{
  "contracts/stake/StakedbMXX.sol": {
    "StakedbMXX": {
      "abi": [
        {
          "inputs": [
            {
              "internalType": "contract IERC20",
              "name": "stakedToken",
              "type": "address"
            },
            {
              "internalType": "contract IERC20",
              "name": "rewardToken",
              "type": "address"
            },
            {
              "internalType": "uint256",
              "name": "cooldownDays",
              "type": "uint256"
            },
            {
              "internalType": "uint256",
              "name": "unstakeWindow",
              "type": "uint256"
            },
            {
              "internalType": "address",
              "name": "rewardsVault",
              "type": "address"
            },
            {
              "internalType": "address",
              "name": "emissionManager",
              "type": "address"
            },
            {
              "internalType": "uint128",
              "name": "distributionDuration",
              "type": "uint128"
            },
            {
              "internalType": "address",
              "name": "poolAddress",
              "type": "address"
            }
          ],
          "stateMutability": "nonpayable",
          "type": "constructor"
        },
        {
          "anonymous": false,
          "inputs": [
            {
              "indexed": true,
              "internalType": "address",
              "name": "owner",
              "type": "address"
            },
            {
              "indexed": true,
              "internalType": "address",
              "name": "spender",
              "type": "address"
            },
            {
              "indexed": false,
              "internalType": "uint256",
              "name": "value",
              "type": "uint256"
            }
          ],
          "name": "Approval",
          "type": "event"
        },
        {
          "anonymous": false,
          "inputs": [
            {
              "indexed": true,
              "internalType": "address",
              "name": "asset",
              "type": "address"
            },
            {
              "indexed": false,
              "internalType": "uint256",
              "name": "emission",
              "type": "uint256"
            }
          ],
          "name": "AssetConfigUpdated",
          "type": "event"
        },
        {
          "anonymous": false,
          "inputs": [
            {
              "indexed": true,
              "internalType": "address",
              "name": "asset",
              "type": "address"
            },
            {
              "indexed": false,
              "internalType": "uint256",
              "name": "index",
              "type": "uint256"
            }
          ],
          "name": "AssetIndexUpdated",
          "type": "event"
        },
        {
          "anonymous": false,
          "inputs": [
            {
              "indexed": true,
              "internalType": "address",
              "name": "user",
              "type": "address"
            }
          ],
          "name": "Cooldown",
          "type": "event"
        },
        {
          "anonymous": false,
          "inputs": [
            {
              "indexed": true,
              "internalType": "address",
              "name": "from",
              "type": "address"
            },
            {
              "indexed": true,
              "internalType": "address",
              "name": "to",
              "type": "address"
            },
            {
              "indexed": false,
              "internalType": "uint256",
              "name": "amount",
              "type": "uint256"
            }
          ],
          "name": "Redeem",
          "type": "event"
        },
        {
          "anonymous": false,
          "inputs": [
            {
              "indexed": false,
              "internalType": "address",
              "name": "user",
              "type": "address"
            },
            {
              "indexed": false,
              "internalType": "uint256",
              "name": "amount",
              "type": "uint256"
            }
          ],
          "name": "RewardsAccrued",
          "type": "event"
        },
        {
          "anonymous": false,
          "inputs": [
            {
              "indexed": true,
              "internalType": "address",
              "name": "from",
              "type": "address"
            },
            {
              "indexed": true,
              "internalType": "address",
              "name": "to",
              "type": "address"
            },
            {
              "indexed": false,
              "internalType": "uint256",
              "name": "amount",
              "type": "uint256"
            }
          ],
          "name": "RewardsClaimed",
          "type": "event"
        },
        {
          "anonymous": false,
          "inputs": [
            {
              "indexed": false,
              "internalType": "address",
              "name": "owner",
              "type": "address"
            },
            {
              "indexed": false,
              "internalType": "uint128",
              "name": "oldValue",
              "type": "uint128"
            },
            {
              "indexed": false,
              "internalType": "uint128",
              "name": "newValue",
              "type": "uint128"
            }
          ],
          "name": "SnapshotDone",
          "type": "event"
        },
        {
          "anonymous": false,
          "inputs": [
            {
              "indexed": true,
              "internalType": "address",
              "name": "from",
              "type": "address"
            },
            {
              "indexed": true,
              "internalType": "address",
              "name": "onBehalfOf",
              "type": "address"
            },
            {
              "indexed": false,
              "internalType": "uint256",
              "name": "amount",
              "type": "uint256"
            }
          ],
          "name": "Staked",
          "type": "event"
        },
        {
          "anonymous": false,
          "inputs": [
            {
              "indexed": true,
              "internalType": "address",
              "name": "from",
              "type": "address"
            },
            {
              "indexed": true,
              "internalType": "address",
              "name": "to",
              "type": "address"
            },
            {
              "indexed": false,
              "internalType": "uint256",
              "name": "value",
              "type": "uint256"
            }
          ],
          "name": "Transfer",
          "type": "event"
        },
        {
          "anonymous": false,
          "inputs": [
            {
              "indexed": true,
              "internalType": "address",
              "name": "user",
              "type": "address"
            },
            {
              "indexed": true,
              "internalType": "address",
              "name": "asset",
              "type": "address"
            },
            {
              "indexed": false,
              "internalType": "uint256",
              "name": "index",
              "type": "uint256"
            }
          ],
          "name": "UserIndexUpdated",
          "type": "event"
        },
        {
          "inputs": [],
          "name": "COOLDOWN_SECONDS",
          "outputs": [
            {
              "internalType": "uint256",
              "name": "",
              "type": "uint256"
            }
          ],
          "stateMutability": "view",
          "type": "function"
        },
        {
          "inputs": [],
          "name": "DISTRIBUTION_END",
          "outputs": [
            {
              "internalType": "uint256",
              "name": "",
              "type": "uint256"
            }
          ],
          "stateMutability": "view",
          "type": "function"
        },
        {
          "inputs": [],
          "name": "EMISSION_MANAGER",
          "outputs": [
            {
              "internalType": "address",
              "name": "",
              "type": "address"
            }
          ],
          "stateMutability": "view",
          "type": "function"
        },
        {
          "inputs": [],
          "name": "PRECISION",
          "outputs": [
            {
              "internalType": "uint8",
              "name": "",
              "type": "uint8"
            }
          ],
          "stateMutability": "view",
          "type": "function"
        },
        {
          "inputs": [],
          "name": "REVISION",
          "outputs": [
            {
              "internalType": "uint256",
              "name": "",
              "type": "uint256"
            }
          ],
          "stateMutability": "view",
          "type": "function"
        },
        {
          "inputs": [],
          "name": "REWARDS_VAULT",
          "outputs": [
            {
              "internalType": "address",
              "name": "",
              "type": "address"
            }
          ],
          "stateMutability": "view",
          "type": "function"
        },
        {
          "inputs": [],
          "name": "REWARD_TOKEN",
          "outputs": [
            {
              "internalType": "contract IERC20",
              "name": "",
              "type": "address"
            }
          ],
          "stateMutability": "view",
          "type": "function"
        },
        {
          "inputs": [],
          "name": "STAKED_TOKEN",
          "outputs": [
            {
              "internalType": "contract IERC20",
              "name": "",
              "type": "address"
            }
          ],
          "stateMutability": "view",
          "type": "function"
        },
        {
          "inputs": [],
          "name": "UNSTAKE_WINDOW",
          "outputs": [
            {
              "internalType": "uint256",
              "name": "",
              "type": "uint256"
            }
          ],
          "stateMutability": "view",
          "type": "function"
        },
        {
          "inputs": [],
          "name": "_bMXXGovernance",
          "outputs": [
            {
              "internalType": "contract ITransferHook",
              "name": "",
              "type": "address"
            }
          ],
          "stateMutability": "view",
          "type": "function"
        },
        {
          "inputs": [
            {
              "internalType": "address",
              "name": "",
              "type": "address"
            }
          ],
          "name": "_countsSnapshots",
          "outputs": [
            {
              "internalType": "uint256",
              "name": "",
              "type": "uint256"
            }
          ],
          "stateMutability": "view",
          "type": "function"
        },
        {
          "inputs": [
            {
              "internalType": "address",
              "name": "",
              "type": "address"
            },
            {
              "internalType": "uint256",
              "name": "",
              "type": "uint256"
            }
          ],
          "name": "_snapshots",
          "outputs": [
            {
              "internalType": "uint128",
              "name": "blockNumber",
              "type": "uint128"
            },
            {
              "internalType": "uint128",
              "name": "value",
              "type": "uint128"
            }
          ],
          "stateMutability": "view",
          "type": "function"
        },
        {
          "inputs": [
            {
              "internalType": "address",
              "name": "owner",
              "type": "address"
            },
            {
              "internalType": "address",
              "name": "spender",
              "type": "address"
            }
          ],
          "name": "allowance",
          "outputs": [
            {
              "internalType": "uint256",
              "name": "",
              "type": "uint256"
            }
          ],
          "stateMutability": "view",
          "type": "function"
        },
        {
          "inputs": [
            {
              "internalType": "address",
              "name": "spender",
              "type": "address"
            },
            {
              "internalType": "uint256",
              "name": "amount",
              "type": "uint256"
            }
          ],
          "name": "approve",
          "outputs": [
            {
              "internalType": "bool",
              "name": "",
              "type": "bool"
            }
          ],
          "stateMutability": "nonpayable",
          "type": "function"
        },
        {
          "inputs": [
            {
              "internalType": "address",
              "name": "",
              "type": "address"
            }
          ],
          "name": "assets",
          "outputs": [
            {
              "internalType": "uint128",
              "name": "emissionPerSecond",
              "type": "uint128"
            },
            {
              "internalType": "uint128",
              "name": "lastUpdateTimestamp",
              "type": "uint128"
            },
            {
              "internalType": "uint256",
              "name": "index",
              "type": "uint256"
            }
          ],
          "stateMutability": "view",
          "type": "function"
        },
        {
          "inputs": [
            {
              "internalType": "address",
              "name": "account",
              "type": "address"
            }
          ],
          "name": "balanceOf",
          "outputs": [
            {
              "internalType": "uint256",
              "name": "",
              "type": "uint256"
            }
          ],
          "stateMutability": "view",
          "type": "function"
        },
        {
          "inputs": [
            {
              "internalType": "address",
              "name": "to",
              "type": "address"
            },
            {
              "internalType": "uint256",
              "name": "amount",
              "type": "uint256"
            }
          ],
          "name": "claimRewards",
          "outputs": [],
          "stateMutability": "nonpayable",
          "type": "function"
        },
        {
          "inputs": [
            {
              "components": [
                {
                  "internalType": "uint128",
                  "name": "emissionPerSecond",
                  "type": "uint128"
                },
                {
                  "internalType": "uint256",
                  "name": "totalStaked",
                  "type": "uint256"
                },
                {
                  "internalType": "address",
                  "name": "underlyingAsset",
                  "type": "address"
                }
              ],
              "internalType": "struct DistributionTypes.AssetConfigInput[]",
              "name": "assetsConfigInput",
              "type": "tuple[]"
            }
          ],
          "name": "configureAssets",
          "outputs": [],
          "stateMutability": "nonpayable",
          "type": "function"
        },
        {
          "inputs": [],
          "name": "cooldown",
          "outputs": [],
          "stateMutability": "nonpayable",
          "type": "function"
        },
        {
          "inputs": [],
          "name": "decimals",
          "outputs": [
            {
              "internalType": "uint8",
              "name": "",
              "type": "uint8"
            }
          ],
          "stateMutability": "view",
          "type": "function"
        },
        {
          "inputs": [
            {
              "internalType": "address",
              "name": "spender",
              "type": "address"
            },
            {
              "internalType": "uint256",
              "name": "subtractedValue",
              "type": "uint256"
            }
          ],
          "name": "decreaseAllowance",
          "outputs": [
            {
              "internalType": "bool",
              "name": "",
              "type": "bool"
            }
          ],
          "stateMutability": "nonpayable",
          "type": "function"
        },
        {
          "inputs": [
            {
              "internalType": "uint256",
              "name": "fromCooldownTimestamp",
              "type": "uint256"
            },
            {
              "internalType": "uint256",
              "name": "amountToReceive",
              "type": "uint256"
            },
            {
              "internalType": "address",
              "name": "toAddress",
              "type": "address"
            },
            {
              "internalType": "uint256",
              "name": "toBalance",
              "type": "uint256"
            }
          ],
          "name": "getNextCooldownTimestamp",
          "outputs": [
            {
              "internalType": "uint256",
              "name": "",
              "type": "uint256"
            }
          ],
          "stateMutability": "nonpayable",
          "type": "function"
        },
        {
          "inputs": [
            {
              "internalType": "address",
              "name": "staker",
              "type": "address"
            }
          ],
          "name": "getTotalRewardsBalance",
          "outputs": [
            {
              "internalType": "uint256",
              "name": "",
              "type": "uint256"
            }
          ],
          "stateMutability": "view",
          "type": "function"
        },
        {
          "inputs": [
            {
              "internalType": "address",
              "name": "user",
              "type": "address"
            },
            {
              "internalType": "address",
              "name": "asset",
              "type": "address"
            }
          ],
          "name": "getUserAssetData",
          "outputs": [
            {
              "internalType": "uint256",
              "name": "",
              "type": "uint256"
            }
          ],
          "stateMutability": "view",
          "type": "function"
        },
        {
          "inputs": [
            {
              "internalType": "address",
              "name": "spender",
              "type": "address"
            },
            {
              "internalType": "uint256",
              "name": "addedValue",
              "type": "uint256"
            }
          ],
          "name": "increaseAllowance",
          "outputs": [
            {
              "internalType": "bool",
              "name": "",
              "type": "bool"
            }
          ],
          "stateMutability": "nonpayable",
          "type": "function"
        },
        {
          "inputs": [
            {
              "internalType": "contract ITransferHook",
              "name": "bMXXGovernance",
              "type": "address"
            },
            {
              "internalType": "string",
              "name": "name",
              "type": "string"
            },
            {
              "internalType": "string",
              "name": "symbol",
              "type": "string"
            },
            {
              "internalType": "uint8",
              "name": "decimals",
              "type": "uint8"
            }
          ],
          "name": "initialize",
          "outputs": [],
          "stateMutability": "nonpayable",
          "type": "function"
        },
        {
          "inputs": [],
          "name": "name",
          "outputs": [
            {
              "internalType": "string",
              "name": "",
              "type": "string"
            }
          ],
          "stateMutability": "view",
          "type": "function"
        },
        {
          "inputs": [
            {
              "internalType": "address",
              "name": "to",
              "type": "address"
            },
            {
              "internalType": "uint256",
              "name": "amount",
              "type": "uint256"
            }
          ],
          "name": "redeem",
          "outputs": [],
          "stateMutability": "nonpayable",
          "type": "function"
        },
        {
          "inputs": [
            {
              "internalType": "address",
              "name": "onBehalfOf",
              "type": "address"
            },
            {
              "internalType": "uint256",
              "name": "amount",
              "type": "uint256"
            }
          ],
          "name": "stake",
          "outputs": [],
          "stateMutability": "nonpayable",
          "type": "function"
        },
        {
          "inputs": [
            {
              "internalType": "address",
              "name": "",
              "type": "address"
            }
          ],
          "name": "stakerRewardsToClaim",
          "outputs": [
            {
              "internalType": "uint256",
              "name": "",
              "type": "uint256"
            }
          ],
          "stateMutability": "view",
          "type": "function"
        },
        {
          "inputs": [
            {
              "internalType": "address",
              "name": "",
              "type": "address"
            }
          ],
          "name": "stakersCooldowns",
          "outputs": [
            {
              "internalType": "uint256",
              "name": "",
              "type": "uint256"
            }
          ],
          "stateMutability": "view",
          "type": "function"
        },
        {
          "inputs": [],
          "name": "symbol",
          "outputs": [
            {
              "internalType": "string",
              "name": "",
              "type": "string"
            }
          ],
          "stateMutability": "view",
          "type": "function"
        },
        {
          "inputs": [],
          "name": "totalSupply",
          "outputs": [
            {
              "internalType": "uint256",
              "name": "",
              "type": "uint256"
            }
          ],
          "stateMutability": "view",
          "type": "function"
        },
        {
          "inputs": [
            {
              "internalType": "address",
              "name": "recipient",
              "type": "address"
            },
            {
              "internalType": "uint256",
              "name": "amount",
              "type": "uint256"
            }
          ],
          "name": "transfer",
          "outputs": [
            {
              "internalType": "bool",
              "name": "",
              "type": "bool"
            }
          ],
          "stateMutability": "nonpayable",
          "type": "function"
        },
        {
          "inputs": [
            {
              "internalType": "address",
              "name": "sender",
              "type": "address"
            },
            {
              "internalType": "address",
              "name": "recipient",
              "type": "address"
            },
            {
              "internalType": "uint256",
              "name": "amount",
              "type": "uint256"
            }
          ],
          "name": "transferFrom",
          "outputs": [
            {
              "internalType": "bool",
              "name": "",
              "type": "bool"
            }
          ],
          "stateMutability": "nonpayable",
          "type": "function"
        }
      ],
      "evm": {
        "bytecode": {
          "linkReferences": {},
          "object": "61016060405260006009553480156200001757600080fd5b5060405162002efa38038062002efa8339810160408190526200003a9162000249565b87878787878787876040518060400160405280600b81526020016a0a6e8c2d6cac840c49ab0b60ab1b815250604051806040016040528060068152602001650e6e8849ab0b60d31b815250601285856001600160801b03168484848282828260039080519060200190620000b0929190620001ad565b508151620000c6906004906020850190620001ad565b5080600560006101000a81548160ff021916908360ff1602179055505050505050506200010281426200017560201b620012b51790919060201c565b60805250606090811b6001600160601b031990811660a0529b811b8c1660c052998a1b8b1660e0525050506101009590955250506101209190915290911b90911661014052603f80546001600160a01b0319166001600160a01b03909216919091179055506200034c9650505050505050565b600082820183811015620001a65760405162461bcd60e51b81526004016200019d90620002fc565b60405180910390fd5b9392505050565b828054600181600116156101000203166002900490600052602060002090601f016020900481019282601f10620001f057805160ff191683800117855562000220565b8280016001018555821562000220579182015b828111156200022057825182559160200191906001019062000203565b506200022e92915062000232565b5090565b5b808211156200022e576000815560010162000233565b600080600080600080600080610100898b03121562000266578384fd5b8851620002738162000333565b60208a0151909850620002868162000333565b8097505060408901519550606089015194506080890151620002a88162000333565b60a08a0151909450620002bb8162000333565b60c08a01519093506001600160801b0381168114620002d8578283fd5b60e08a0151909250620002eb8162000333565b809150509295985092959890939650565b6020808252601b908201527f536166654d6174683a206164646974696f6e206f766572666c6f770000000000604082015260600190565b6001600160a01b03811681146200034957600080fd5b50565b60805160a05160601c60c05160601c60e05160601c61010051610120516101405160601c612b0d620003ed60003980610a8d5280610bdb5250806105bf5280610886528061110952508061057b52806105e75280610913528061112e525080610b125280610bb15250806106f552806108295280610e3a525080610eb0528061105a525080610a695280611eac5280611ee85280611f155250612b0d6000f3fe608060405234801561001057600080fd5b50600436106102115760003560e01c80638dbefee211610125578063ad811840116100ad578063dd62ed3e1161007c578063dd62ed3e14610410578063dde43cba14610423578063f11b81881461042b578063f1cc432a1461044d578063f6d2ee861461046057610211565b8063ad811840146103da578063adc9772e146103e2578063b2a5dbfa146103f5578063cbcbb5071461040857610211565b806399248ea7116100f457806399248ea7146103915780639a99b4f014610399578063a457c2d7146103ac578063a9059cbb146103bf578063aaf5eb68146103d257610211565b80638dbefee214610366578063919cd40f14610379578063946776cd1461038157806395d89b411461038957610211565b8063313ce567116101a857806370a082311161017757806370a082311461031d57806372b49d6314610330578063787a08a6146103385780637e90d7ef146103405780638779588c1461035357610211565b8063313ce567146102da5780633373ee4c146102ef578063359c4a9614610302578063395093511461030a57610211565b80631e9a6950116101e45780631e9a69501461027c57806323b872dd146102915780632acbf823146102a4578063312f6b83146102c557610211565b806306fdde0314610216578063091030c314610234578063095ea7b31461025457806318160ddd14610274575b600080fd5b61021e610473565b60405161022b9190612567565b60405180910390f35b61024761024236600461227a565b610509565b60405161022b91906129e7565b61026761026236600461230e565b61051b565b60405161022b919061255c565b610247610539565b61028f61028a36600461230e565b61053f565b005b61026761029f3660046122ce565b61076e565b6102b76102b236600461230e565b6107f6565b60405161022b9291906129a9565b6102cd610827565b60405161022b91906124e1565b6102e261084b565b60405161022b91906129f0565b6102476102fd366004612296565b610854565b610247610884565b61026761031836600461230e565b6108a8565b61024761032b36600461227a565b6108f6565b610247610911565b61028f610935565b61024761034e36600461227a565b610994565b61024761036136600461227a565b6109a6565b61024761037436600461227a565b6109b8565b610247610a67565b6102cd610a8b565b61021e610aaf565b6102cd610b10565b61028f6103a736600461230e565b610b34565b6102676103ba36600461230e565b610c52565b6102676103cd36600461230e565b610cba565b6102e2610cce565b6102cd610cd3565b61028f6103f036600461230e565b610ce2565b61028f610403366004612339565b610ea5565b6102cd611058565b61024761041e366004612296565b61107c565b6102476110a7565b61043e61043936600461227a565b6110ac565b60405161022b939291906129c3565b61024761045b366004612487565b6110da565b61028f61046e3660046123c9565b6111ec565b60038054604080516020601f60026000196101006001881615020190951694909404938401819004810282018101909252828152606093909290918301828280156104ff5780601f106104d4576101008083540402835291602001916104ff565b820191906000526020600020905b8154815290600101906020018083116104e257829003601f168201915b5050505050905090565b603e6020526000908152604090205481565b600061052f6105286112da565b84846112de565b5060015b92915050565b60025490565b806105655760405162461bcd60e51b815260040161055c90612656565b60405180910390fd5b336000908152603e602052604090205461059f817f00000000000000000000000000000000000000000000000000000000000000006112b5565b42116105bd5760405162461bcd60e51b815260040161055c906126b8565b7f000000000000000000000000000000000000000000000000000000000000000061061261060b837f00000000000000000000000000000000000000000000000000000000000000006112b5565b4290611392565b11156106305760405162461bcd60e51b815260040161055c9061282b565b600061063b336108f6565b9050600081841161064c578361064e565b815b905061065c338360016113d4565b50603f54604051632d24f6c760e01b81526001600160a01b0390911690632d24f6c79061068d9033906004016124e1565b600060405180830381600087803b1580156106a757600080fd5b505af11580156106bb573d6000803e3d6000fd5b505050506106c93382611479565b6106d38282611392565b6106e857336000908152603e60205260408120555b61071c6001600160a01b037f000000000000000000000000000000000000000000000000000000000000000016868361155b565b846001600160a01b0316336001600160a01b03167fd12200efa34901b99367694174c3b0d32c99585fdf37c7c26892136ddd0836d98360405161075f91906129e7565b60405180910390a35050505050565b600061077b8484846115b1565b6107eb846107876112da565b6107e685604051806060016040528060288152602001612a8b602891396001600160a01b038a166000908152600160205260408120906107c56112da565b6001600160a01b031681526020810191909152604001600020549190611741565b6112de565b5060015b9392505050565b60066020908152600092835260408084209091529082529020546001600160801b0380821691600160801b90041682565b7f000000000000000000000000000000000000000000000000000000000000000081565b60055460ff1690565b6001600160a01b038082166000908152603c60209081526040808320938616835260029093019052205492915050565b7f000000000000000000000000000000000000000000000000000000000000000081565b600061052f6108b56112da565b846107e685600160006108c66112da565b6001600160a01b03908116825260208083019390935260409182016000908120918c1681529252902054906112b5565b6001600160a01b031660009081526020819052604090205490565b7f000000000000000000000000000000000000000000000000000000000000000081565b61093e336108f6565b61095a5760405162461bcd60e51b815260040161055c906128f0565b336000818152603e6020526040808220429055517ff52f50426b32362d3e6bb8cb36b7074756b224622def6352a59eac7f66ebe6e89190a2565b603d6020526000908152604090205481565b60076020526000908152604090205481565b60408051600180825281830190925260009160609190816020015b6109db612176565b8152602001906001900390816109d35790505090506040518060600160405280306001600160a01b03168152602001610a13856108f6565b8152602001610a20610539565b81525081600081518110610a3057fe5b60200260200101819052506107ef610a48848361176d565b6001600160a01b0385166000908152603d6020526040902054906112b5565b7f000000000000000000000000000000000000000000000000000000000000000081565b7f000000000000000000000000000000000000000000000000000000000000000081565b60048054604080516020601f60026000196101006001881615020190951694909404938401819004810282018101909252828152606093909290918301828280156104ff5780601f106104d4576101008083540402835291602001916104ff565b7f000000000000000000000000000000000000000000000000000000000000000081565b6000610b4a33610b43336108f6565b60006113d4565b905060006000198314610b5d5782610b5f565b815b9050610b9c816040518060400160405280600e81526020016d1253959053125117d05353d5539560921b815250846117419092919063ffffffff16565b336000908152603d6020526040902055610c017f00000000000000000000000000000000000000000000000000000000000000006001600160a01b03167f0000000000000000000000000000000000000000000000000000000000000000868461185e565b836001600160a01b0316336001600160a01b03167f9310ccfcb8de723f578a9e4282ea9f521f05ae40dc08f3068dfad528a65ee3c783604051610c4491906129e7565b60405180910390a350505050565b600061052f610c5f6112da565b846107e685604051806060016040528060258152602001612ab36025913960016000610c896112da565b6001600160a01b03908116825260208083019390935260409182016000908120918d16815292529020549190611741565b600061052f610cc76112da565b84846115b1565b601281565b6008546001600160a01b031681565b80610cff5760405162461bcd60e51b815260040161055c90612656565b6000610d0a836108f6565b90506000610d21843084610d1c610539565b61187f565b90508015610d9f577f2468f9268c60ad90e2d49edb0032c8a001e733ae888b3ab8e982edf535be1a768482604051610d5a929190612543565b60405180910390a16001600160a01b0384166000908152603d6020526040902054610d8590826112b5565b6001600160a01b0385166000908152603d60205260409020555b610dac60008486856110da565b6001600160a01b038086166000908152603e60205260409081902092909255603f549151632d24f6c760e01b8152911690632d24f6c790610df19087906004016124e1565b600060405180830381600087803b158015610e0b57600080fd5b505af1158015610e1f573d6000803e3d6000fd5b50505050610e2d848461193e565b610e626001600160a01b037f00000000000000000000000000000000000000000000000000000000000000001633308661185e565b836001600160a01b0316336001600160a01b03167f5dac0c1b1112564a045ba943c9d50270893e8e826c49be8e7073adc713ab7bd785604051610c4491906129e7565b336001600160a01b037f00000000000000000000000000000000000000000000000000000000000000001614610eed5760405162461bcd60e51b815260040161055c90612776565b60005b81811015611053576000603c6000858585818110610f0a57fe5b9050606002016040016020810190610f22919061227a565b6001600160a01b03166001600160a01b031681526020019081526020016000209050610f87848484818110610f5357fe5b9050606002016040016020810190610f6b919061227a565b82868686818110610f7857fe5b905060600201602001356119f2565b50838383818110610f9457fe5b610faa9260206060909202019081019150612460565b81546001600160801b0319166001600160801b0391909116178155838383818110610fd157fe5b9050606002016040016020810190610fe9919061227a565b6001600160a01b03167f87fa03892a0556cb6b8f97e6d533a150d4d55fcbf275fff5fa003fa636bcc7fa85858581811061101f57fe5b6110359260206060909202019081019150612460565b6040516110429190612995565b60405180910390a250600101610ef0565b505050565b7f000000000000000000000000000000000000000000000000000000000000000081565b6001600160a01b03918216600090815260016020908152604080832093909416825291909152205490565b600181565b603c60205260009081526040902080546001909101546001600160801b0380831692600160801b9004169083565b6001600160a01b0382166000908152603e6020526040812054806111025760009150506111e4565b60006111587f0000000000000000000000000000000000000000000000000000000000000000611152427f0000000000000000000000000000000000000000000000000000000000000000611392565b90611392565b90508181111561116b57600091506111c5565b600087821161117a578761117c565b425b905082811015611191578293505050506111e4565b6111c161119e88876112b5565b6111bb6111ab8887611aaf565b6111b58b86611aaf565b906112b5565b90611ae9565b9250505b506001600160a01b0384166000908152603e6020526040902081905590505b949350505050565b60006111f6611b2b565b905060095481116112195760405162461bcd60e51b815260040161055c90612728565b6009819055604080516020601f880181900481028201810190925286815261125b918890889081908401838280828437600092019190915250611b3092505050565b61129a84848080601f016020809104026020016040519081016040528093929190818152602001838380828437600092019190915250611b4792505050565b6112a382611b5a565b6112ac87611b70565b50505050505050565b6000828201838110156107ef5760405162461bcd60e51b815260040161055c9061261f565b3390565b6001600160a01b0383166113045760405162461bcd60e51b815260040161055c90612862565b6001600160a01b03821661132a5760405162461bcd60e51b815260040161055c906125dd565b6001600160a01b0380841660008181526001602090815260408083209487168084529490915290819020849055517f8c5be1e5ebec7d5bd14f71427d1e84f3dd0314c0f7b2291e5b200ac8c7c3b925906113859085906129e7565b60405180910390a3505050565b60006107ef83836040518060400160405280601e81526020017f536166654d6174683a207375627472616374696f6e206f766572666c6f770000815250611741565b6000806113e5853086610d1c610539565b6001600160a01b0386166000908152603d60205260408120549192509061140c90836112b5565b90508115611470578315611436576001600160a01b0386166000908152603d602052604090208190555b7f2468f9268c60ad90e2d49edb0032c8a001e733ae888b3ab8e982edf535be1a768683604051611467929190612543565b60405180910390a15b95945050505050565b6001600160a01b03821661149f5760405162461bcd60e51b815260040161055c906127a5565b6114ab82600083611b92565b6114e881604051806060016040528060228152602001612a43602291396001600160a01b0385166000908152602081905260409020549190611741565b6001600160a01b03831660009081526020819052604090205560025461150e9082611392565b6002556040516000906001600160a01b038416907fddf252ad1be2c89b69c2b068fc378daa952ba7f163c4a11628f55a4df523b3ef9061154f9085906129e7565b60405180910390a35050565b6110538363a9059cbb60e01b848460405160240161157a929190612543565b60408051601f198184030181529190526020810180516001600160e01b03166001600160e01b031990931692909217909152611c8a565b60006115bc846108f6565b90506115ca848260016113d4565b50826001600160a01b0316846001600160a01b03161461166c5760006115ef846108f6565b90506115fd848260016113d4565b506001600160a01b0385166000908152603e6020526040902054611623818587856110da565b6001600160a01b0386166000908152603e6020526040902055828414801561164a57508015155b15611669576001600160a01b0386166000908152603e60205260408120555b50505b603f54604051632d24f6c760e01b81526001600160a01b0390911690632d24f6c79061169c9087906004016124e1565b600060405180830381600087803b1580156116b657600080fd5b505af11580156116ca573d6000803e3d6000fd5b5050603f54604051632d24f6c760e01b81526001600160a01b039091169250632d24f6c791506116fe9086906004016124e1565b600060405180830381600087803b15801561171857600080fd5b505af115801561172c573d6000803e3d6000fd5b5050505061173b848484611d6f565b50505050565b600081848411156117655760405162461bcd60e51b815260040161055c9190612567565b505050900390565b600080805b8351811015611856576000603c600086848151811061178d57fe5b602090810291909101810151516001600160a01b0316825281019190915260400160009081206001810154815488519294506117f5926001600160801b0380831692600160801b900416908a90889081106117e457fe5b602002602001015160400151611e84565b905061184a61184387858151811061180957fe5b602002602001015160200151838560020160008c6001600160a01b03166001600160a01b0316815260200190815260200160002054611f7d565b85906112b5565b93505050600101611772565b509392505050565b61173b846323b872dd60e01b85858560405160240161157a939291906124f5565b6001600160a01b038084166000908152603c6020908152604080832093881683526002840190915281205490919082806118ba8885886119f2565b90508083146119325786156118d7576118d4878285611f7d565b91505b6001600160a01b03808a1660008181526002870160205260409081902084905551918a16917fbb123b5c06d5408bbea3c4fef481578175cfb432e3b482c6186f02ed9086585b906119299085906129e7565b60405180910390a35b50979650505050505050565b6001600160a01b0382166119645760405162461bcd60e51b815260040161055c9061295e565b61197060008383611b92565b60025461197d90826112b5565b6002556001600160a01b0382166000908152602081905260409020546119a390826112b5565b6001600160a01b0383166000818152602081905260408082209390935591519091907fddf252ad1be2c89b69c2b068fc378daa952ba7f163c4a11628f55a4df523b3ef9061154f9085906129e7565b6001820154825460009190600160801b90046001600160801b031642811415611a1d575090506107ef565b8454600090611a389084906001600160801b03168488611e84565b9050828114611a8c57808660010181905550866001600160a01b03167f5777ca300dfe5bead41006fbce4389794dbc0ed8d6cccebfaf94630aa04184bc82604051611a8391906129e7565b60405180910390a25b85546001600160801b03428116600160801b029116178655925050509392505050565b600082611abe57506000610533565b82820282848281611acb57fe5b04146107ef5760405162461bcd60e51b815260040161055c906126e7565b60006107ef83836040518060400160405280601a81526020017f536166654d6174683a206469766973696f6e206279207a65726f000000000000815250611f9f565b600190565b8051611b439060039060208401906121a0565b5050565b8051611b439060049060208401906121a0565b6005805460ff191660ff92909216919091179055565b600880546001600160a01b0319166001600160a01b0392909216919091179055565b816001600160a01b0316836001600160a01b03161415611bb157611053565b6001600160a01b03831615611be3576000611bcb846108f6565b9050611be18482611bdc8186611392565b611fd6565b505b6001600160a01b03821615611c10576000611bfd836108f6565b9050611c0e8382611bdc81866112b5565b505b6008546001600160a01b0316801561173b57604051634a39314960e01b81526001600160a01b03821690634a39314990611c52908790879087906004016124f5565b600060405180830381600087803b158015611c6c57600080fd5b505af1158015611c80573d6000803e3d6000fd5b5050505050505050565b611c9c826001600160a01b031661213d565b611cb85760405162461bcd60e51b815260040161055c90612927565b60006060836001600160a01b031683604051611cd491906124c5565b6000604051808303816000865af19150503d8060008114611d11576040519150601f19603f3d011682016040523d82523d6000602084013e611d16565b606091505b509150915081611d385760405162461bcd60e51b815260040161055c90612683565b80511561173b5780806020019051810190611d5391906123a9565b61173b5760405162461bcd60e51b815260040161055c906128a6565b6001600160a01b038316611d955760405162461bcd60e51b815260040161055c906127e6565b6001600160a01b038216611dbb5760405162461bcd60e51b815260040161055c9061259a565b611dc6838383611b92565b611e0381604051806060016040528060268152602001612a65602691396001600160a01b0386166000908152602081905260409020549190611741565b6001600160a01b038085166000908152602081905260408082209390935590841681522054611e3290826112b5565b6001600160a01b0380841660008181526020819052604090819020939093559151908516907fddf252ad1be2c89b69c2b068fc378daa952ba7f163c4a11628f55a4df523b3ef906113859085906129e7565b6000831580611e91575081155b80611ea4575042836001600160801b0316145b80611ed857507f0000000000000000000000000000000000000000000000000000000000000000836001600160801b031610155b15611ee45750836111e4565b60007f00000000000000000000000000000000000000000000000000000000000000004211611f135742611f35565b7f00000000000000000000000000000000000000000000000000000000000000005b90506000611f4c826001600160801b038716611392565b9050611f72876111b5866111bb670de0b6b3a7640000611f6c8c88611aaf565b90611aaf565b979650505050505050565b60006111e4670de0b6b3a76400006111bb611f988686611392565b8790611aaf565b60008183611fc05760405162461bcd60e51b815260040161055c9190612567565b506000838581611fcc57fe5b0495945050505050565b6001600160a01b0383166000908152600760209081526040808320546006909252909120439190811580159061203b57506001600160801b03831681600061201f856001611392565b81526020810191909152604001600020546001600160801b0316145b1561207f578381600061204f856001611392565b8152602081019190915260400160002080546001600160801b03928316600160801b0292169190911790556120fa565b6040805180820182526001600160801b0380861682528681166020808401918252600087815290869052939093209151825493518216600160801b029082166001600160801b031990941693909317169190911790556120e08260016112b5565b6001600160a01b0387166000908152600760205260409020555b7f2cd3c83ddac2953ee75f53265d9ea4463eaf05030e5459a1b7e63819b7ce88f786868660405161212d93929190612519565b60405180910390a1505050505050565b6000813f7fc5d2460186f7233c927e7db2dcc703c0e500b653ca82273b7bfad8045d85a4708181148015906111e4575050151592915050565b604051806060016040528060006001600160a01b0316815260200160008152602001600081525090565b828054600181600116156101000203166002900490600052602060002090601f016020900481019282601f106121e157805160ff191683800117855561220e565b8280016001018555821561220e579182015b8281111561220e5782518255916020019190600101906121f3565b5061221a92915061221e565b5090565b5b8082111561221a576000815560010161221f565b60008083601f840112612244578182fd5b50813567ffffffffffffffff81111561225b578182fd5b60208301915083602082850101111561227357600080fd5b9250929050565b60006020828403121561228b578081fd5b81356107ef81612a2a565b600080604083850312156122a8578081fd5b82356122b381612a2a565b915060208301356122c381612a2a565b809150509250929050565b6000806000606084860312156122e2578081fd5b83356122ed81612a2a565b925060208401356122fd81612a2a565b929592945050506040919091013590565b60008060408385031215612320578182fd5b823561232b81612a2a565b946020939093013593505050565b6000806020838503121561234b578182fd5b823567ffffffffffffffff80821115612362578384fd5b818501915085601f830112612375578384fd5b813581811115612383578485fd5b866020606083028501011115612397578485fd5b60209290920196919550909350505050565b6000602082840312156123ba578081fd5b815180151581146107ef578182fd5b600080600080600080608087890312156123e1578182fd5b86356123ec81612a2a565b9550602087013567ffffffffffffffff80821115612408578384fd5b6124148a838b01612233565b9097509550604089013591508082111561242c578384fd5b5061243989828a01612233565b909450925050606087013560ff81168114612452578182fd5b809150509295509295509295565b600060208284031215612471578081fd5b81356001600160801b03811681146107ef578182fd5b6000806000806080858703121561249c578384fd5b843593506020850135925060408501356124b581612a2a565b9396929550929360600135925050565b600082516124d78184602087016129fe565b9190910192915050565b6001600160a01b0391909116815260200190565b6001600160a01b039384168152919092166020820152604081019190915260600190565b6001600160a01b039390931683526001600160801b03918216602084015216604082015260600190565b6001600160a01b03929092168252602082015260400190565b901515815260200190565b60006020825282518060208401526125868160408501602087016129fe565b601f01601f19169190910160400192915050565b60208082526023908201527f45524332303a207472616e7366657220746f20746865207a65726f206164647260408201526265737360e81b606082015260800190565b60208082526022908201527f45524332303a20617070726f766520746f20746865207a65726f206164647265604082015261737360f01b606082015260800190565b6020808252601b908201527f536166654d6174683a206164646974696f6e206f766572666c6f770000000000604082015260600190565b6020808252601390820152721253959053125117d6915493d7d05353d55395606a1b604082015260600190565b6020808252818101527f5361666545524332303a206c6f772d6c6576656c2063616c6c206661696c6564604082015260600190565b60208082526015908201527424a729aaa32324a1a4a2a72a2fa1a7a7a62227aba760591b604082015260600190565b60208082526021908201527f536166654d6174683a206d756c7469706c69636174696f6e206f766572666c6f6040820152607760f81b606082015260800190565b6020808252602e908201527f436f6e747261637420696e7374616e63652068617320616c726561647920626560408201526d195b881a5b9a5d1a585b1a5e995960921b606082015260800190565b60208082526015908201527427a7262cafa2a6a4a9a9a4a7a72fa6a0a720a3a2a960591b604082015260600190565b60208082526021908201527f45524332303a206275726e2066726f6d20746865207a65726f206164647265736040820152607360f81b606082015260800190565b60208082526025908201527f45524332303a207472616e736665722066726f6d20746865207a65726f206164604082015264647265737360d81b606082015260800190565b60208082526017908201527f554e5354414b455f57494e444f575f46494e4953484544000000000000000000604082015260600190565b60208082526024908201527f45524332303a20617070726f76652066726f6d20746865207a65726f206164646040820152637265737360e01b606082015260800190565b6020808252602a908201527f5361666545524332303a204552433230206f7065726174696f6e20646964206e6040820152691bdd081cdd58d8d9595960b21b606082015260800190565b6020808252601b908201527f494e56414c49445f42414c414e43455f4f4e5f434f4f4c444f574e0000000000604082015260600190565b6020808252601f908201527f5361666545524332303a2063616c6c20746f206e6f6e2d636f6e747261637400604082015260600190565b6020808252601f908201527f45524332303a206d696e7420746f20746865207a65726f206164647265737300604082015260600190565b6001600160801b0391909116815260200190565b6001600160801b0392831681529116602082015260400190565b6001600160801b039384168152919092166020820152604081019190915260600190565b90815260200190565b60ff91909116815260200190565b60005b83811015612a19578181015183820152602001612a01565b8381111561173b5750506000910152565b6001600160a01b0381168114612a3f57600080fd5b5056fe45524332303a206275726e20616d6f756e7420657863656564732062616c616e636545524332303a207472616e7366657220616d6f756e7420657863656564732062616c616e636545524332303a207472616e7366657220616d6f756e74206578636565647320616c6c6f77616e636545524332303a2064656372656173656420616c6c6f77616e63652062656c6f77207a65726fa2646970667358221220d3bffbb5df3ffcd249d283817ba6b4e0ca1f563e96d6c8188e8b8f887dcb794a64736f6c634300060c0033",
          "opcodes": "PUSH2 0x160 PUSH1 0x40 MSTORE PUSH1 0x0 PUSH1 0x9 SSTORE CALLVALUE DUP1 ISZERO PUSH3 0x17 JUMPI PUSH1 0x0 DUP1 REVERT JUMPDEST POP PUSH1 0x40 MLOAD PUSH3 0x2EFA CODESIZE SUB DUP1 PUSH3 0x2EFA DUP4 CODECOPY DUP2 ADD PUSH1 0x40 DUP2 SWAP1 MSTORE PUSH3 0x3A SWAP2 PUSH3 0x249 JUMP JUMPDEST DUP8 DUP8 DUP8 DUP8 DUP8 DUP8 DUP8 DUP8 PUSH1 0x40 MLOAD DUP1 PUSH1 0x40 ADD PUSH1 0x40 MSTORE DUP1 PUSH1 0xB DUP2 MSTORE PUSH1 0x20 ADD PUSH11 0xA6E8C2D6CAC840C49AB0B PUSH1 0xAB SHL DUP2 MSTORE POP PUSH1 0x40 MLOAD DUP1 PUSH1 0x40 ADD PUSH1 0x40 MSTORE DUP1 PUSH1 0x6 DUP2 MSTORE PUSH1 0x20 ADD PUSH6 0xE6E8849AB0B PUSH1 0xD3 SHL DUP2 MSTORE POP PUSH1 0x12 DUP6 DUP6 PUSH1 0x1 PUSH1 0x1 PUSH1 0x80 SHL SUB AND DUP5 DUP5 DUP5 DUP3 DUP3 DUP3 DUP3 PUSH1 0x3 SWAP1 DUP1 MLOAD SWAP1 PUSH1 0x20 ADD SWAP1 PUSH3 0xB0 SWAP3 SWAP2 SWAP1 PUSH3 0x1AD JUMP JUMPDEST POP DUP2 MLOAD PUSH3 0xC6 SWAP1 PUSH1 0x4 SWAP1 PUSH1 0x20 DUP6 ADD SWAP1 PUSH3 0x1AD JUMP JUMPDEST POP DUP1 PUSH1 0x5 PUSH1 0x0 PUSH2 0x100 EXP DUP2 SLOAD DUP2 PUSH1 0xFF MUL NOT AND SWAP1 DUP4 PUSH1 0xFF AND MUL OR SWAP1 SSTORE POP POP POP POP POP POP POP PUSH3 0x102 DUP2 TIMESTAMP PUSH3 0x175 PUSH1 0x20 SHL PUSH3 0x12B5 OR SWAP1 SWAP2 SWAP1 PUSH1 0x20 SHR JUMP JUMPDEST PUSH1 0x80 MSTORE POP PUSH1 0x60 SWAP1 DUP2 SHL PUSH1 0x1 PUSH1 0x1 PUSH1 0x60 SHL SUB NOT SWAP1 DUP2 AND PUSH1 0xA0 MSTORE SWAP12 DUP2 SHL DUP13 AND PUSH1 0xC0 MSTORE SWAP10 DUP11 SHL DUP12 AND PUSH1 0xE0 MSTORE POP POP POP PUSH2 0x100 SWAP6 SWAP1 SWAP6 MSTORE POP POP PUSH2 0x120 SWAP2 SWAP1 SWAP2 MSTORE SWAP1 SWAP2 SHL SWAP1 SWAP2 AND PUSH2 0x140 MSTORE PUSH1 0x3F DUP1 SLOAD PUSH1 0x1 PUSH1 0x1 PUSH1 0xA0 SHL SUB NOT AND PUSH1 0x1 PUSH1 0x1 PUSH1 0xA0 SHL SUB SWAP1 SWAP3 AND SWAP2 SWAP1 SWAP2 OR SWAP1 SSTORE POP PUSH3 0x34C SWAP7 POP POP POP POP POP POP POP JUMP JUMPDEST PUSH1 0x0 DUP3 DUP3 ADD DUP4 DUP2 LT ISZERO PUSH3 0x1A6 JUMPI PUSH1 0x40 MLOAD PUSH3 0x461BCD PUSH1 0xE5 SHL DUP2 MSTORE PUSH1 0x4 ADD PUSH3 0x19D SWAP1 PUSH3 0x2FC JUMP JUMPDEST PUSH1 0x40 MLOAD DUP1 SWAP2 SUB SWAP1 REVERT JUMPDEST SWAP4 SWAP3 POP POP POP JUMP JUMPDEST DUP3 DUP1 SLOAD PUSH1 0x1 DUP2 PUSH1 0x1 AND ISZERO PUSH2 0x100 MUL SUB AND PUSH1 0x2 SWAP1 DIV SWAP1 PUSH1 0x0 MSTORE PUSH1 0x20 PUSH1 0x0 KECCAK256 SWAP1 PUSH1 0x1F ADD PUSH1 0x20 SWAP1 DIV DUP2 ADD SWAP3 DUP3 PUSH1 0x1F LT PUSH3 0x1F0 JUMPI DUP1 MLOAD PUSH1 0xFF NOT AND DUP4 DUP1 ADD OR DUP6 SSTORE PUSH3 0x220 JUMP JUMPDEST DUP3 DUP1 ADD PUSH1 0x1 ADD DUP6 SSTORE DUP3 ISZERO PUSH3 0x220 JUMPI SWAP2 DUP3 ADD JUMPDEST DUP3 DUP2 GT ISZERO PUSH3 0x220 JUMPI DUP3 MLOAD DUP3 SSTORE SWAP2 PUSH1 0x20 ADD SWAP2 SWAP1 PUSH1 0x1 ADD SWAP1 PUSH3 0x203 JUMP JUMPDEST POP PUSH3 0x22E SWAP3 SWAP2 POP PUSH3 0x232 JUMP JUMPDEST POP SWAP1 JUMP JUMPDEST JUMPDEST DUP1 DUP3 GT ISZERO PUSH3 0x22E JUMPI PUSH1 0x0 DUP2 SSTORE PUSH1 0x1 ADD PUSH3 0x233 JUMP JUMPDEST PUSH1 0x0 DUP1 PUSH1 0x0 DUP1 PUSH1 0x0 DUP1 PUSH1 0x0 DUP1 PUSH2 0x100 DUP10 DUP12 SUB SLT ISZERO PUSH3 0x266 JUMPI DUP4 DUP5 REVERT JUMPDEST DUP9 MLOAD PUSH3 0x273 DUP2 PUSH3 0x333 JUMP JUMPDEST PUSH1 0x20 DUP11 ADD MLOAD SWAP1 SWAP9 POP PUSH3 0x286 DUP2 PUSH3 0x333 JUMP JUMPDEST DUP1 SWAP8 POP POP PUSH1 0x40 DUP10 ADD MLOAD SWAP6 POP PUSH1 0x60 DUP10 ADD MLOAD SWAP5 POP PUSH1 0x80 DUP10 ADD MLOAD PUSH3 0x2A8 DUP2 PUSH3 0x333 JUMP JUMPDEST PUSH1 0xA0 DUP11 ADD MLOAD SWAP1 SWAP5 POP PUSH3 0x2BB DUP2 PUSH3 0x333 JUMP JUMPDEST PUSH1 0xC0 DUP11 ADD MLOAD SWAP1 SWAP4 POP PUSH1 0x1 PUSH1 0x1 PUSH1 0x80 SHL SUB DUP2 AND DUP2 EQ PUSH3 0x2D8 JUMPI DUP3 DUP4 REVERT JUMPDEST PUSH1 0xE0 DUP11 ADD MLOAD SWAP1 SWAP3 POP PUSH3 0x2EB DUP2 PUSH3 0x333 JUMP JUMPDEST DUP1 SWAP2 POP POP SWAP3 SWAP6 SWAP9 POP SWAP3 SWAP6 SWAP9 SWAP1 SWAP4 SWAP7 POP JUMP JUMPDEST PUSH1 0x20 DUP1 DUP3 MSTORE PUSH1 0x1B SWAP1 DUP3 ADD MSTORE PUSH32 0x536166654D6174683A206164646974696F6E206F766572666C6F770000000000 PUSH1 0x40 DUP3 ADD MSTORE PUSH1 0x60 ADD SWAP1 JUMP JUMPDEST PUSH1 0x1 PUSH1 0x1 PUSH1 0xA0 SHL SUB DUP2 AND DUP2 EQ PUSH3 0x349 JUMPI PUSH1 0x0 DUP1 REVERT JUMPDEST POP JUMP JUMPDEST PUSH1 0x80 MLOAD PUSH1 0xA0 MLOAD PUSH1 0x60 SHR PUSH1 0xC0 MLOAD PUSH1 0x60 SHR PUSH1 0xE0 MLOAD PUSH1 0x60 SHR PUSH2 0x100 MLOAD PUSH2 0x120 MLOAD PUSH2 0x140 MLOAD PUSH1 0x60 SHR PUSH2 0x2B0D PUSH3 0x3ED PUSH1 0x0 CODECOPY DUP1 PUSH2 0xA8D MSTORE DUP1 PUSH2 0xBDB MSTORE POP DUP1 PUSH2 0x5BF MSTORE DUP1 PUSH2 0x886 MSTORE DUP1 PUSH2 0x1109 MSTORE POP DUP1 PUSH2 0x57B MSTORE DUP1 PUSH2 0x5E7 MSTORE DUP1 PUSH2 0x913 MSTORE DUP1 PUSH2 0x112E MSTORE POP DUP1 PUSH2 0xB12 MSTORE DUP1 PUSH2 0xBB1 MSTORE POP DUP1 PUSH2 0x6F5 MSTORE DUP1 PUSH2 0x829 MSTORE DUP1 PUSH2 0xE3A MSTORE POP DUP1 PUSH2 0xEB0 MSTORE DUP1 PUSH2 0x105A MSTORE POP DUP1 PUSH2 0xA69 MSTORE DUP1 PUSH2 0x1EAC MSTORE DUP1 PUSH2 0x1EE8 MSTORE DUP1 PUSH2 0x1F15 MSTORE POP PUSH2 0x2B0D PUSH1 0x0 RETURN INVALID PUSH1 0x80 PUSH1 0x40 MSTORE CALLVALUE DUP1 ISZERO PUSH2 0x10 JUMPI PUSH1 0x0 DUP1 REVERT JUMPDEST POP PUSH1 0x4 CALLDATASIZE LT PUSH2 0x211 JUMPI PUSH1 0x0 CALLDATALOAD PUSH1 0xE0 SHR DUP1 PUSH4 0x8DBEFEE2 GT PUSH2 0x125 JUMPI DUP1 PUSH4 0xAD811840 GT PUSH2 0xAD JUMPI DUP1 PUSH4 0xDD62ED3E GT PUSH2 0x7C JUMPI DUP1 PUSH4 0xDD62ED3E EQ PUSH2 0x410 JUMPI DUP1 PUSH4 0xDDE43CBA EQ PUSH2 0x423 JUMPI DUP1 PUSH4 0xF11B8188 EQ PUSH2 0x42B JUMPI DUP1 PUSH4 0xF1CC432A EQ PUSH2 0x44D JUMPI DUP1 PUSH4 0xF6D2EE86 EQ PUSH2 0x460 JUMPI PUSH2 0x211 JUMP JUMPDEST DUP1 PUSH4 0xAD811840 EQ PUSH2 0x3DA JUMPI DUP1 PUSH4 0xADC9772E EQ PUSH2 0x3E2 JUMPI DUP1 PUSH4 0xB2A5DBFA EQ PUSH2 0x3F5 JUMPI DUP1 PUSH4 0xCBCBB507 EQ PUSH2 0x408 JUMPI PUSH2 0x211 JUMP JUMPDEST DUP1 PUSH4 0x99248EA7 GT PUSH2 0xF4 JUMPI DUP1 PUSH4 0x99248EA7 EQ PUSH2 0x391 JUMPI DUP1 PUSH4 0x9A99B4F0 EQ PUSH2 0x399 JUMPI DUP1 PUSH4 0xA457C2D7 EQ PUSH2 0x3AC JUMPI DUP1 PUSH4 0xA9059CBB EQ PUSH2 0x3BF JUMPI DUP1 PUSH4 0xAAF5EB68 EQ PUSH2 0x3D2 JUMPI PUSH2 0x211 JUMP JUMPDEST DUP1 PUSH4 0x8DBEFEE2 EQ PUSH2 0x366 JUMPI DUP1 PUSH4 0x919CD40F EQ PUSH2 0x379 JUMPI DUP1 PUSH4 0x946776CD EQ PUSH2 0x381 JUMPI DUP1 PUSH4 0x95D89B41 EQ PUSH2 0x389 JUMPI PUSH2 0x211 JUMP JUMPDEST DUP1 PUSH4 0x313CE567 GT PUSH2 0x1A8 JUMPI DUP1 PUSH4 0x70A08231 GT PUSH2 0x177 JUMPI DUP1 PUSH4 0x70A08231 EQ PUSH2 0x31D JUMPI DUP1 PUSH4 0x72B49D63 EQ PUSH2 0x330 JUMPI DUP1 PUSH4 0x787A08A6 EQ PUSH2 0x338 JUMPI DUP1 PUSH4 0x7E90D7EF EQ PUSH2 0x340 JUMPI DUP1 PUSH4 0x8779588C EQ PUSH2 0x353 JUMPI PUSH2 0x211 JUMP JUMPDEST DUP1 PUSH4 0x313CE567 EQ PUSH2 0x2DA JUMPI DUP1 PUSH4 0x3373EE4C EQ PUSH2 0x2EF JUMPI DUP1 PUSH4 0x359C4A96 EQ PUSH2 0x302 JUMPI DUP1 PUSH4 0x39509351 EQ PUSH2 0x30A JUMPI PUSH2 0x211 JUMP JUMPDEST DUP1 PUSH4 0x1E9A6950 GT PUSH2 0x1E4 JUMPI DUP1 PUSH4 0x1E9A6950 EQ PUSH2 0x27C JUMPI DUP1 PUSH4 0x23B872DD EQ PUSH2 0x291 JUMPI DUP1 PUSH4 0x2ACBF823 EQ PUSH2 0x2A4 JUMPI DUP1 PUSH4 0x312F6B83 EQ PUSH2 0x2C5 JUMPI PUSH2 0x211 JUMP JUMPDEST DUP1 PUSH4 0x6FDDE03 EQ PUSH2 0x216 JUMPI DUP1 PUSH4 0x91030C3 EQ PUSH2 0x234 JUMPI DUP1 PUSH4 0x95EA7B3 EQ PUSH2 0x254 JUMPI DUP1 PUSH4 0x18160DDD EQ PUSH2 0x274 JUMPI JUMPDEST PUSH1 0x0 DUP1 REVERT JUMPDEST PUSH2 0x21E PUSH2 0x473 JUMP JUMPDEST PUSH1 0x40 MLOAD PUSH2 0x22B SWAP2 SWAP1 PUSH2 0x2567 JUMP JUMPDEST PUSH1 0x40 MLOAD DUP1 SWAP2 SUB SWAP1 RETURN JUMPDEST PUSH2 0x247 PUSH2 0x242 CALLDATASIZE PUSH1 0x4 PUSH2 0x227A JUMP JUMPDEST PUSH2 0x509 JUMP JUMPDEST PUSH1 0x40 MLOAD PUSH2 0x22B SWAP2 SWAP1 PUSH2 0x29E7 JUMP JUMPDEST PUSH2 0x267 PUSH2 0x262 CALLDATASIZE PUSH1 0x4 PUSH2 0x230E JUMP JUMPDEST PUSH2 0x51B JUMP JUMPDEST PUSH1 0x40 MLOAD PUSH2 0x22B SWAP2 SWAP1 PUSH2 0x255C JUMP JUMPDEST PUSH2 0x247 PUSH2 0x539 JUMP JUMPDEST PUSH2 0x28F PUSH2 0x28A CALLDATASIZE PUSH1 0x4 PUSH2 0x230E JUMP JUMPDEST PUSH2 0x53F JUMP JUMPDEST STOP JUMPDEST PUSH2 0x267 PUSH2 0x29F CALLDATASIZE PUSH1 0x4 PUSH2 0x22CE JUMP JUMPDEST PUSH2 0x76E JUMP JUMPDEST PUSH2 0x2B7 PUSH2 0x2B2 CALLDATASIZE PUSH1 0x4 PUSH2 0x230E JUMP JUMPDEST PUSH2 0x7F6 JUMP JUMPDEST PUSH1 0x40 MLOAD PUSH2 0x22B SWAP3 SWAP2 SWAP1 PUSH2 0x29A9 JUMP JUMPDEST PUSH2 0x2CD PUSH2 0x827 JUMP JUMPDEST PUSH1 0x40 MLOAD PUSH2 0x22B SWAP2 SWAP1 PUSH2 0x24E1 JUMP JUMPDEST PUSH2 0x2E2 PUSH2 0x84B JUMP JUMPDEST PUSH1 0x40 MLOAD PUSH2 0x22B SWAP2 SWAP1 PUSH2 0x29F0 JUMP JUMPDEST PUSH2 0x247 PUSH2 0x2FD CALLDATASIZE PUSH1 0x4 PUSH2 0x2296 JUMP JUMPDEST PUSH2 0x854 JUMP JUMPDEST PUSH2 0x247 PUSH2 0x884 JUMP JUMPDEST PUSH2 0x267 PUSH2 0x318 CALLDATASIZE PUSH1 0x4 PUSH2 0x230E JUMP JUMPDEST PUSH2 0x8A8 JUMP JUMPDEST PUSH2 0x247 PUSH2 0x32B CALLDATASIZE PUSH1 0x4 PUSH2 0x227A JUMP JUMPDEST PUSH2 0x8F6 JUMP JUMPDEST PUSH2 0x247 PUSH2 0x911 JUMP JUMPDEST PUSH2 0x28F PUSH2 0x935 JUMP JUMPDEST PUSH2 0x247 PUSH2 0x34E CALLDATASIZE PUSH1 0x4 PUSH2 0x227A JUMP JUMPDEST PUSH2 0x994 JUMP JUMPDEST PUSH2 0x247 PUSH2 0x361 CALLDATASIZE PUSH1 0x4 PUSH2 0x227A JUMP JUMPDEST PUSH2 0x9A6 JUMP JUMPDEST PUSH2 0x247 PUSH2 0x374 CALLDATASIZE PUSH1 0x4 PUSH2 0x227A JUMP JUMPDEST PUSH2 0x9B8 JUMP JUMPDEST PUSH2 0x247 PUSH2 0xA67 JUMP JUMPDEST PUSH2 0x2CD PUSH2 0xA8B JUMP JUMPDEST PUSH2 0x21E PUSH2 0xAAF JUMP JUMPDEST PUSH2 0x2CD PUSH2 0xB10 JUMP JUMPDEST PUSH2 0x28F PUSH2 0x3A7 CALLDATASIZE PUSH1 0x4 PUSH2 0x230E JUMP JUMPDEST PUSH2 0xB34 JUMP JUMPDEST PUSH2 0x267 PUSH2 0x3BA CALLDATASIZE PUSH1 0x4 PUSH2 0x230E JUMP JUMPDEST PUSH2 0xC52 JUMP JUMPDEST PUSH2 0x267 PUSH2 0x3CD CALLDATASIZE PUSH1 0x4 PUSH2 0x230E JUMP JUMPDEST PUSH2 0xCBA JUMP JUMPDEST PUSH2 0x2E2 PUSH2 0xCCE JUMP JUMPDEST PUSH2 0x2CD PUSH2 0xCD3 JUMP JUMPDEST PUSH2 0x28F PUSH2 0x3F0 CALLDATASIZE PUSH1 0x4 PUSH2 0x230E JUMP JUMPDEST PUSH2 0xCE2 JUMP JUMPDEST PUSH2 0x28F PUSH2 0x403 CALLDATASIZE PUSH1 0x4 PUSH2 0x2339 JUMP JUMPDEST PUSH2 0xEA5 JUMP JUMPDEST PUSH2 0x2CD PUSH2 0x1058 JUMP JUMPDEST PUSH2 0x247 PUSH2 0x41E CALLDATASIZE PUSH1 0x4 PUSH2 0x2296 JUMP JUMPDEST PUSH2 0x107C JUMP JUMPDEST PUSH2 0x247 PUSH2 0x10A7 JUMP JUMPDEST PUSH2 0x43E PUSH2 0x439 CALLDATASIZE PUSH1 0x4 PUSH2 0x227A JUMP JUMPDEST PUSH2 0x10AC JUMP JUMPDEST PUSH1 0x40 MLOAD PUSH2 0x22B SWAP4 SWAP3 SWAP2 SWAP1 PUSH2 0x29C3 JUMP JUMPDEST PUSH2 0x247 PUSH2 0x45B CALLDATASIZE PUSH1 0x4 PUSH2 0x2487 JUMP JUMPDEST PUSH2 0x10DA JUMP JUMPDEST PUSH2 0x28F PUSH2 0x46E CALLDATASIZE PUSH1 0x4 PUSH2 0x23C9 JUMP JUMPDEST PUSH2 0x11EC JUMP JUMPDEST PUSH1 0x3 DUP1 SLOAD PUSH1 0x40 DUP1 MLOAD PUSH1 0x20 PUSH1 0x1F PUSH1 0x2 PUSH1 0x0 NOT PUSH2 0x100 PUSH1 0x1 DUP9 AND ISZERO MUL ADD SWAP1 SWAP6 AND SWAP5 SWAP1 SWAP5 DIV SWAP4 DUP5 ADD DUP2 SWAP1 DIV DUP2 MUL DUP3 ADD DUP2 ADD SWAP1 SWAP3 MSTORE DUP3 DUP2 MSTORE PUSH1 0x60 SWAP4 SWAP1 SWAP3 SWAP1 SWAP2 DUP4 ADD DUP3 DUP3 DUP1 ISZERO PUSH2 0x4FF JUMPI DUP1 PUSH1 0x1F LT PUSH2 0x4D4 JUMPI PUSH2 0x100 DUP1 DUP4 SLOAD DIV MUL DUP4 MSTORE SWAP2 PUSH1 0x20 ADD SWAP2 PUSH2 0x4FF JUMP JUMPDEST DUP3 ADD SWAP2 SWAP1 PUSH1 0x0 MSTORE PUSH1 0x20 PUSH1 0x0 KECCAK256 SWAP1 JUMPDEST DUP2 SLOAD DUP2 MSTORE SWAP1 PUSH1 0x1 ADD SWAP1 PUSH1 0x20 ADD DUP1 DUP4 GT PUSH2 0x4E2 JUMPI DUP3 SWAP1 SUB PUSH1 0x1F AND DUP3 ADD SWAP2 JUMPDEST POP POP POP POP POP SWAP1 POP SWAP1 JUMP JUMPDEST PUSH1 0x3E PUSH1 0x20 MSTORE PUSH1 0x0 SWAP1 DUP2 MSTORE PUSH1 0x40 SWAP1 KECCAK256 SLOAD DUP2 JUMP JUMPDEST PUSH1 0x0 PUSH2 0x52F PUSH2 0x528 PUSH2 0x12DA JUMP JUMPDEST DUP5 DUP5 PUSH2 0x12DE JUMP JUMPDEST POP PUSH1 0x1 JUMPDEST SWAP3 SWAP2 POP POP JUMP JUMPDEST PUSH1 0x2 SLOAD SWAP1 JUMP JUMPDEST DUP1 PUSH2 0x565 JUMPI PUSH1 0x40 MLOAD PUSH3 0x461BCD PUSH1 0xE5 SHL DUP2 MSTORE PUSH1 0x4 ADD PUSH2 0x55C SWAP1 PUSH2 0x2656 JUMP JUMPDEST PUSH1 0x40 MLOAD DUP1 SWAP2 SUB SWAP1 REVERT JUMPDEST CALLER PUSH1 0x0 SWAP1 DUP2 MSTORE PUSH1 0x3E PUSH1 0x20 MSTORE PUSH1 0x40 SWAP1 KECCAK256 SLOAD PUSH2 0x59F DUP2 PUSH32 0x0 PUSH2 0x12B5 JUMP JUMPDEST TIMESTAMP GT PUSH2 0x5BD JUMPI PUSH1 0x40 MLOAD PUSH3 0x461BCD PUSH1 0xE5 SHL DUP2 MSTORE PUSH1 0x4 ADD PUSH2 0x55C SWAP1 PUSH2 0x26B8 JUMP JUMPDEST PUSH32 0x0 PUSH2 0x612 PUSH2 0x60B DUP4 PUSH32 0x0 PUSH2 0x12B5 JUMP JUMPDEST TIMESTAMP SWAP1 PUSH2 0x1392 JUMP JUMPDEST GT ISZERO PUSH2 0x630 JUMPI PUSH1 0x40 MLOAD PUSH3 0x461BCD PUSH1 0xE5 SHL DUP2 MSTORE PUSH1 0x4 ADD PUSH2 0x55C SWAP1 PUSH2 0x282B JUMP JUMPDEST PUSH1 0x0 PUSH2 0x63B CALLER PUSH2 0x8F6 JUMP JUMPDEST SWAP1 POP PUSH1 0x0 DUP2 DUP5 GT PUSH2 0x64C JUMPI DUP4 PUSH2 0x64E JUMP JUMPDEST DUP2 JUMPDEST SWAP1 POP PUSH2 0x65C CALLER DUP4 PUSH1 0x1 PUSH2 0x13D4 JUMP JUMPDEST POP PUSH1 0x3F SLOAD PUSH1 0x40 MLOAD PUSH4 0x2D24F6C7 PUSH1 0xE0 SHL DUP2 MSTORE PUSH1 0x1 PUSH1 0x1 PUSH1 0xA0 SHL SUB SWAP1 SWAP2 AND SWAP1 PUSH4 0x2D24F6C7 SWAP1 PUSH2 0x68D SWAP1 CALLER SWAP1 PUSH1 0x4 ADD PUSH2 0x24E1 JUMP JUMPDEST PUSH1 0x0 PUSH1 0x40 MLOAD DUP1 DUP4 SUB DUP2 PUSH1 0x0 DUP8 DUP1 EXTCODESIZE ISZERO DUP1 ISZERO PUSH2 0x6A7 JUMPI PUSH1 0x0 DUP1 REVERT JUMPDEST POP GAS CALL ISZERO DUP1 ISZERO PUSH2 0x6BB JUMPI RETURNDATASIZE PUSH1 0x0 DUP1 RETURNDATACOPY RETURNDATASIZE PUSH1 0x0 REVERT JUMPDEST POP POP POP POP PUSH2 0x6C9 CALLER DUP3 PUSH2 0x1479 JUMP JUMPDEST PUSH2 0x6D3 DUP3 DUP3 PUSH2 0x1392 JUMP JUMPDEST PUSH2 0x6E8 JUMPI CALLER PUSH1 0x0 SWAP1 DUP2 MSTORE PUSH1 0x3E PUSH1 0x20 MSTORE PUSH1 0x40 DUP2 KECCAK256 SSTORE JUMPDEST PUSH2 0x71C PUSH1 0x1 PUSH1 0x1 PUSH1 0xA0 SHL SUB PUSH32 0x0 AND DUP7 DUP4 PUSH2 0x155B JUMP JUMPDEST DUP5 PUSH1 0x1 PUSH1 0x1 PUSH1 0xA0 SHL SUB AND CALLER PUSH1 0x1 PUSH1 0x1 PUSH1 0xA0 SHL SUB AND PUSH32 0xD12200EFA34901B99367694174C3B0D32C99585FDF37C7C26892136DDD0836D9 DUP4 PUSH1 0x40 MLOAD PUSH2 0x75F SWAP2 SWAP1 PUSH2 0x29E7 JUMP JUMPDEST PUSH1 0x40 MLOAD DUP1 SWAP2 SUB SWAP1 LOG3 POP POP POP POP POP JUMP JUMPDEST PUSH1 0x0 PUSH2 0x77B DUP5 DUP5 DUP5 PUSH2 0x15B1 JUMP JUMPDEST PUSH2 0x7EB DUP5 PUSH2 0x787 PUSH2 0x12DA JUMP JUMPDEST PUSH2 0x7E6 DUP6 PUSH1 0x40 MLOAD DUP1 PUSH1 0x60 ADD PUSH1 0x40 MSTORE DUP1 PUSH1 0x28 DUP2 MSTORE PUSH1 0x20 ADD PUSH2 0x2A8B PUSH1 0x28 SWAP2 CODECOPY PUSH1 0x1 PUSH1 0x1 PUSH1 0xA0 SHL SUB DUP11 AND PUSH1 0x0 SWAP1 DUP2 MSTORE PUSH1 0x1 PUSH1 0x20 MSTORE PUSH1 0x40 DUP2 KECCAK256 SWAP1 PUSH2 0x7C5 PUSH2 0x12DA JUMP JUMPDEST PUSH1 0x1 PUSH1 0x1 PUSH1 0xA0 SHL SUB AND DUP2 MSTORE PUSH1 0x20 DUP2 ADD SWAP2 SWAP1 SWAP2 MSTORE PUSH1 0x40 ADD PUSH1 0x0 KECCAK256 SLOAD SWAP2 SWAP1 PUSH2 0x1741 JUMP JUMPDEST PUSH2 0x12DE JUMP JUMPDEST POP PUSH1 0x1 JUMPDEST SWAP4 SWAP3 POP POP POP JUMP JUMPDEST PUSH1 0x6 PUSH1 0x20 SWAP1 DUP2 MSTORE PUSH1 0x0 SWAP3 DUP4 MSTORE PUSH1 0x40 DUP1 DUP5 KECCAK256 SWAP1 SWAP2 MSTORE SWAP1 DUP3 MSTORE SWAP1 KECCAK256 SLOAD PUSH1 0x1 PUSH1 0x1 PUSH1 0x80 SHL SUB DUP1 DUP3 AND SWAP2 PUSH1 0x1 PUSH1 0x80 SHL SWAP1 DIV AND DUP3 JUMP JUMPDEST PUSH32 0x0 DUP2 JUMP JUMPDEST PUSH1 0x5 SLOAD PUSH1 0xFF AND SWAP1 JUMP JUMPDEST PUSH1 0x1 PUSH1 0x1 PUSH1 0xA0 SHL SUB DUP1 DUP3 AND PUSH1 0x0 SWAP1 DUP2 MSTORE PUSH1 0x3C PUSH1 0x20 SWAP1 DUP2 MSTORE PUSH1 0x40 DUP1 DUP4 KECCAK256 SWAP4 DUP7 AND DUP4 MSTORE PUSH1 0x2 SWAP1 SWAP4 ADD SWAP1 MSTORE KECCAK256 SLOAD SWAP3 SWAP2 POP POP JUMP JUMPDEST PUSH32 0x0 DUP2 JUMP JUMPDEST PUSH1 0x0 PUSH2 0x52F PUSH2 0x8B5 PUSH2 0x12DA JUMP JUMPDEST DUP5 PUSH2 0x7E6 DUP6 PUSH1 0x1 PUSH1 0x0 PUSH2 0x8C6 PUSH2 0x12DA JUMP JUMPDEST PUSH1 0x1 PUSH1 0x1 PUSH1 0xA0 SHL SUB SWAP1 DUP2 AND DUP3 MSTORE PUSH1 0x20 DUP1 DUP4 ADD SWAP4 SWAP1 SWAP4 MSTORE PUSH1 0x40 SWAP2 DUP3 ADD PUSH1 0x0 SWAP1 DUP2 KECCAK256 SWAP2 DUP13 AND DUP2 MSTORE SWAP3 MSTORE SWAP1 KECCAK256 SLOAD SWAP1 PUSH2 0x12B5 JUMP JUMPDEST PUSH1 0x1 PUSH1 0x1 PUSH1 0xA0 SHL SUB AND PUSH1 0x0 SWAP1 DUP2 MSTORE PUSH1 0x20 DUP2 SWAP1 MSTORE PUSH1 0x40 SWAP1 KECCAK256 SLOAD SWAP1 JUMP JUMPDEST PUSH32 0x0 DUP2 JUMP JUMPDEST PUSH2 0x93E CALLER PUSH2 0x8F6 JUMP JUMPDEST PUSH2 0x95A JUMPI PUSH1 0x40 MLOAD PUSH3 0x461BCD PUSH1 0xE5 SHL DUP2 MSTORE PUSH1 0x4 ADD PUSH2 0x55C SWAP1 PUSH2 0x28F0 JUMP JUMPDEST CALLER PUSH1 0x0 DUP2 DUP2 MSTORE PUSH1 0x3E PUSH1 0x20 MSTORE PUSH1 0x40 DUP1 DUP3 KECCAK256 TIMESTAMP SWAP1 SSTORE MLOAD PUSH32 0xF52F50426B32362D3E6BB8CB36B7074756B224622DEF6352A59EAC7F66EBE6E8 SWAP2 SWAP1 LOG2 JUMP JUMPDEST PUSH1 0x3D PUSH1 0x20 MSTORE PUSH1 0x0 SWAP1 DUP2 MSTORE PUSH1 0x40 SWAP1 KECCAK256 SLOAD DUP2 JUMP JUMPDEST PUSH1 0x7 PUSH1 0x20 MSTORE PUSH1 0x0 SWAP1 DUP2 MSTORE PUSH1 0x40 SWAP1 KECCAK256 SLOAD DUP2 JUMP JUMPDEST PUSH1 0x40 DUP1 MLOAD PUSH1 0x1 DUP1 DUP3 MSTORE DUP2 DUP4 ADD SWAP1 SWAP3 MSTORE PUSH1 0x0 SWAP2 PUSH1 0x60 SWAP2 SWAP1 DUP2 PUSH1 0x20 ADD JUMPDEST PUSH2 0x9DB PUSH2 0x2176 JUMP JUMPDEST DUP2 MSTORE PUSH1 0x20 ADD SWAP1 PUSH1 0x1 SWAP1 SUB SWAP1 DUP2 PUSH2 0x9D3 JUMPI SWAP1 POP POP SWAP1 POP PUSH1 0x40 MLOAD DUP1 PUSH1 0x60 ADD PUSH1 0x40 MSTORE DUP1 ADDRESS PUSH1 0x1 PUSH1 0x1 PUSH1 0xA0 SHL SUB AND DUP2 MSTORE PUSH1 0x20 ADD PUSH2 0xA13 DUP6 PUSH2 0x8F6 JUMP JUMPDEST DUP2 MSTORE PUSH1 0x20 ADD PUSH2 0xA20 PUSH2 0x539 JUMP JUMPDEST DUP2 MSTORE POP DUP2 PUSH1 0x0 DUP2 MLOAD DUP2 LT PUSH2 0xA30 JUMPI INVALID JUMPDEST PUSH1 0x20 MUL PUSH1 0x20 ADD ADD DUP2 SWAP1 MSTORE POP PUSH2 0x7EF PUSH2 0xA48 DUP5 DUP4 PUSH2 0x176D JUMP JUMPDEST PUSH1 0x1 PUSH1 0x1 PUSH1 0xA0 SHL SUB DUP6 AND PUSH1 0x0 SWAP1 DUP2 MSTORE PUSH1 0x3D PUSH1 0x20 MSTORE PUSH1 0x40 SWAP1 KECCAK256 SLOAD SWAP1 PUSH2 0x12B5 JUMP JUMPDEST PUSH32 0x0 DUP2 JUMP JUMPDEST PUSH32 0x0 DUP2 JUMP JUMPDEST PUSH1 0x4 DUP1 SLOAD PUSH1 0x40 DUP1 MLOAD PUSH1 0x20 PUSH1 0x1F PUSH1 0x2 PUSH1 0x0 NOT PUSH2 0x100 PUSH1 0x1 DUP9 AND ISZERO MUL ADD SWAP1 SWAP6 AND SWAP5 SWAP1 SWAP5 DIV SWAP4 DUP5 ADD DUP2 SWAP1 DIV DUP2 MUL DUP3 ADD DUP2 ADD SWAP1 SWAP3 MSTORE DUP3 DUP2 MSTORE PUSH1 0x60 SWAP4 SWAP1 SWAP3 SWAP1 SWAP2 DUP4 ADD DUP3 DUP3 DUP1 ISZERO PUSH2 0x4FF JUMPI DUP1 PUSH1 0x1F LT PUSH2 0x4D4 JUMPI PUSH2 0x100 DUP1 DUP4 SLOAD DIV MUL DUP4 MSTORE SWAP2 PUSH1 0x20 ADD SWAP2 PUSH2 0x4FF JUMP JUMPDEST PUSH32 0x0 DUP2 JUMP JUMPDEST PUSH1 0x0 PUSH2 0xB4A CALLER PUSH2 0xB43 CALLER PUSH2 0x8F6 JUMP JUMPDEST PUSH1 0x0 PUSH2 0x13D4 JUMP JUMPDEST SWAP1 POP PUSH1 0x0 PUSH1 0x0 NOT DUP4 EQ PUSH2 0xB5D JUMPI DUP3 PUSH2 0xB5F JUMP JUMPDEST DUP2 JUMPDEST SWAP1 POP PUSH2 0xB9C DUP2 PUSH1 0x40 MLOAD DUP1 PUSH1 0x40 ADD PUSH1 0x40 MSTORE DUP1 PUSH1 0xE DUP2 MSTORE PUSH1 0x20 ADD PUSH14 0x1253959053125117D05353D55395 PUSH1 0x92 SHL DUP2 MSTORE POP DUP5 PUSH2 0x1741 SWAP1 SWAP3 SWAP2 SWAP1 PUSH4 0xFFFFFFFF AND JUMP JUMPDEST CALLER PUSH1 0x0 SWAP1 DUP2 MSTORE PUSH1 0x3D PUSH1 0x20 MSTORE PUSH1 0x40 SWAP1 KECCAK256 SSTORE PUSH2 0xC01 PUSH32 0x0 PUSH1 0x1 PUSH1 0x1 PUSH1 0xA0 SHL SUB AND PUSH32 0x0 DUP7 DUP5 PUSH2 0x185E JUMP JUMPDEST DUP4 PUSH1 0x1 PUSH1 0x1 PUSH1 0xA0 SHL SUB AND CALLER PUSH1 0x1 PUSH1 0x1 PUSH1 0xA0 SHL SUB AND PUSH32 0x9310CCFCB8DE723F578A9E4282EA9F521F05AE40DC08F3068DFAD528A65EE3C7 DUP4 PUSH1 0x40 MLOAD PUSH2 0xC44 SWAP2 SWAP1 PUSH2 0x29E7 JUMP JUMPDEST PUSH1 0x40 MLOAD DUP1 SWAP2 SUB SWAP1 LOG3 POP POP POP POP JUMP JUMPDEST PUSH1 0x0 PUSH2 0x52F PUSH2 0xC5F PUSH2 0x12DA JUMP JUMPDEST DUP5 PUSH2 0x7E6 DUP6 PUSH1 0x40 MLOAD DUP1 PUSH1 0x60 ADD PUSH1 0x40 MSTORE DUP1 PUSH1 0x25 DUP2 MSTORE PUSH1 0x20 ADD PUSH2 0x2AB3 PUSH1 0x25 SWAP2 CODECOPY PUSH1 0x1 PUSH1 0x0 PUSH2 0xC89 PUSH2 0x12DA JUMP JUMPDEST PUSH1 0x1 PUSH1 0x1 PUSH1 0xA0 SHL SUB SWAP1 DUP2 AND DUP3 MSTORE PUSH1 0x20 DUP1 DUP4 ADD SWAP4 SWAP1 SWAP4 MSTORE PUSH1 0x40 SWAP2 DUP3 ADD PUSH1 0x0 SWAP1 DUP2 KECCAK256 SWAP2 DUP14 AND DUP2 MSTORE SWAP3 MSTORE SWAP1 KECCAK256 SLOAD SWAP2 SWAP1 PUSH2 0x1741 JUMP JUMPDEST PUSH1 0x0 PUSH2 0x52F PUSH2 0xCC7 PUSH2 0x12DA JUMP JUMPDEST DUP5 DUP5 PUSH2 0x15B1 JUMP JUMPDEST PUSH1 0x12 DUP2 JUMP JUMPDEST PUSH1 0x8 SLOAD PUSH1 0x1 PUSH1 0x1 PUSH1 0xA0 SHL SUB AND DUP2 JUMP JUMPDEST DUP1 PUSH2 0xCFF JUMPI PUSH1 0x40 MLOAD PUSH3 0x461BCD PUSH1 0xE5 SHL DUP2 MSTORE PUSH1 0x4 ADD PUSH2 0x55C SWAP1 PUSH2 0x2656 JUMP JUMPDEST PUSH1 0x0 PUSH2 0xD0A DUP4 PUSH2 0x8F6 JUMP JUMPDEST SWAP1 POP PUSH1 0x0 PUSH2 0xD21 DUP5 ADDRESS DUP5 PUSH2 0xD1C PUSH2 0x539 JUMP JUMPDEST PUSH2 0x187F JUMP JUMPDEST SWAP1 POP DUP1 ISZERO PUSH2 0xD9F JUMPI PUSH32 0x2468F9268C60AD90E2D49EDB0032C8A001E733AE888B3AB8E982EDF535BE1A76 DUP5 DUP3 PUSH1 0x40 MLOAD PUSH2 0xD5A SWAP3 SWAP2 SWAP1 PUSH2 0x2543 JUMP JUMPDEST PUSH1 0x40 MLOAD DUP1 SWAP2 SUB SWAP1 LOG1 PUSH1 0x1 PUSH1 0x1 PUSH1 0xA0 SHL SUB DUP5 AND PUSH1 0x0 SWAP1 DUP2 MSTORE PUSH1 0x3D PUSH1 0x20 MSTORE PUSH1 0x40 SWAP1 KECCAK256 SLOAD PUSH2 0xD85 SWAP1 DUP3 PUSH2 0x12B5 JUMP JUMPDEST PUSH1 0x1 PUSH1 0x1 PUSH1 0xA0 SHL SUB DUP6 AND PUSH1 0x0 SWAP1 DUP2 MSTORE PUSH1 0x3D PUSH1 0x20 MSTORE PUSH1 0x40 SWAP1 KECCAK256 SSTORE JUMPDEST PUSH2 0xDAC PUSH1 0x0 DUP5 DUP7 DUP6 PUSH2 0x10DA JUMP JUMPDEST PUSH1 0x1 PUSH1 0x1 PUSH1 0xA0 SHL SUB DUP1 DUP7 AND PUSH1 0x0 SWAP1 DUP2 MSTORE PUSH1 0x3E PUSH1 0x20 MSTORE PUSH1 0x40 SWAP1 DUP2 SWAP1 KECCAK256 SWAP3 SWAP1 SWAP3 SSTORE PUSH1 0x3F SLOAD SWAP2 MLOAD PUSH4 0x2D24F6C7 PUSH1 0xE0 SHL DUP2 MSTORE SWAP2 AND SWAP1 PUSH4 0x2D24F6C7 SWAP1 PUSH2 0xDF1 SWAP1 DUP8 SWAP1 PUSH1 0x4 ADD PUSH2 0x24E1 JUMP JUMPDEST PUSH1 0x0 PUSH1 0x40 MLOAD DUP1 DUP4 SUB DUP2 PUSH1 0x0 DUP8 DUP1 EXTCODESIZE ISZERO DUP1 ISZERO PUSH2 0xE0B JUMPI PUSH1 0x0 DUP1 REVERT JUMPDEST POP GAS CALL ISZERO DUP1 ISZERO PUSH2 0xE1F JUMPI RETURNDATASIZE PUSH1 0x0 DUP1 RETURNDATACOPY RETURNDATASIZE PUSH1 0x0 REVERT JUMPDEST POP POP POP POP PUSH2 0xE2D DUP5 DUP5 PUSH2 0x193E JUMP JUMPDEST PUSH2 0xE62 PUSH1 0x1 PUSH1 0x1 PUSH1 0xA0 SHL SUB PUSH32 0x0 AND CALLER ADDRESS DUP7 PUSH2 0x185E JUMP JUMPDEST DUP4 PUSH1 0x1 PUSH1 0x1 PUSH1 0xA0 SHL SUB AND CALLER PUSH1 0x1 PUSH1 0x1 PUSH1 0xA0 SHL SUB AND PUSH32 0x5DAC0C1B1112564A045BA943C9D50270893E8E826C49BE8E7073ADC713AB7BD7 DUP6 PUSH1 0x40 MLOAD PUSH2 0xC44 SWAP2 SWAP1 PUSH2 0x29E7 JUMP JUMPDEST CALLER PUSH1 0x1 PUSH1 0x1 PUSH1 0xA0 SHL SUB PUSH32 0x0 AND EQ PUSH2 0xEED JUMPI PUSH1 0x40 MLOAD PUSH3 0x461BCD PUSH1 0xE5 SHL DUP2 MSTORE PUSH1 0x4 ADD PUSH2 0x55C SWAP1 PUSH2 0x2776 JUMP JUMPDEST PUSH1 0x0 JUMPDEST DUP2 DUP2 LT ISZERO PUSH2 0x1053 JUMPI PUSH1 0x0 PUSH1 0x3C PUSH1 0x0 DUP6 DUP6 DUP6 DUP2 DUP2 LT PUSH2 0xF0A JUMPI INVALID JUMPDEST SWAP1 POP PUSH1 0x60 MUL ADD PUSH1 0x40 ADD PUSH1 0x20 DUP2 ADD SWAP1 PUSH2 0xF22 SWAP2 SWAP1 PUSH2 0x227A JUMP JUMPDEST PUSH1 0x1 PUSH1 0x1 PUSH1 0xA0 SHL SUB AND PUSH1 0x1 PUSH1 0x1 PUSH1 0xA0 SHL SUB AND DUP2 MSTORE PUSH1 0x20 ADD SWAP1 DUP2 MSTORE PUSH1 0x20 ADD PUSH1 0x0 KECCAK256 SWAP1 POP PUSH2 0xF87 DUP5 DUP5 DUP5 DUP2 DUP2 LT PUSH2 0xF53 JUMPI INVALID JUMPDEST SWAP1 POP PUSH1 0x60 MUL ADD PUSH1 0x40 ADD PUSH1 0x20 DUP2 ADD SWAP1 PUSH2 0xF6B SWAP2 SWAP1 PUSH2 0x227A JUMP JUMPDEST DUP3 DUP7 DUP7 DUP7 DUP2 DUP2 LT PUSH2 0xF78 JUMPI INVALID JUMPDEST SWAP1 POP PUSH1 0x60 MUL ADD PUSH1 0x20 ADD CALLDATALOAD PUSH2 0x19F2 JUMP JUMPDEST POP DUP4 DUP4 DUP4 DUP2 DUP2 LT PUSH2 0xF94 JUMPI INVALID JUMPDEST PUSH2 0xFAA SWAP3 PUSH1 0x20 PUSH1 0x60 SWAP1 SWAP3 MUL ADD SWAP1 DUP2 ADD SWAP2 POP PUSH2 0x2460 JUMP JUMPDEST DUP2 SLOAD PUSH1 0x1 PUSH1 0x1 PUSH1 0x80 SHL SUB NOT AND PUSH1 0x1 PUSH1 0x1 PUSH1 0x80 SHL SUB SWAP2 SWAP1 SWAP2 AND OR DUP2 SSTORE DUP4 DUP4 DUP4 DUP2 DUP2 LT PUSH2 0xFD1 JUMPI INVALID JUMPDEST SWAP1 POP PUSH1 0x60 MUL ADD PUSH1 0x40 ADD PUSH1 0x20 DUP2 ADD SWAP1 PUSH2 0xFE9 SWAP2 SWAP1 PUSH2 0x227A JUMP JUMPDEST PUSH1 0x1 PUSH1 0x1 PUSH1 0xA0 SHL SUB AND PUSH32 0x87FA03892A0556CB6B8F97E6D533A150D4D55FCBF275FFF5FA003FA636BCC7FA DUP6 DUP6 DUP6 DUP2 DUP2 LT PUSH2 0x101F JUMPI INVALID JUMPDEST PUSH2 0x1035 SWAP3 PUSH1 0x20 PUSH1 0x60 SWAP1 SWAP3 MUL ADD SWAP1 DUP2 ADD SWAP2 POP PUSH2 0x2460 JUMP JUMPDEST PUSH1 0x40 MLOAD PUSH2 0x1042 SWAP2 SWAP1 PUSH2 0x2995 JUMP JUMPDEST PUSH1 0x40 MLOAD DUP1 SWAP2 SUB SWAP1 LOG2 POP PUSH1 0x1 ADD PUSH2 0xEF0 JUMP JUMPDEST POP POP POP JUMP JUMPDEST PUSH32 0x0 DUP2 JUMP JUMPDEST PUSH1 0x1 PUSH1 0x1 PUSH1 0xA0 SHL SUB SWAP2 DUP3 AND PUSH1 0x0 SWAP1 DUP2 MSTORE PUSH1 0x1 PUSH1 0x20 SWAP1 DUP2 MSTORE PUSH1 0x40 DUP1 DUP4 KECCAK256 SWAP4 SWAP1 SWAP5 AND DUP3 MSTORE SWAP2 SWAP1 SWAP2 MSTORE KECCAK256 SLOAD SWAP1 JUMP JUMPDEST PUSH1 0x1 DUP2 JUMP JUMPDEST PUSH1 0x3C PUSH1 0x20 MSTORE PUSH1 0x0 SWAP1 DUP2 MSTORE PUSH1 0x40 SWAP1 KECCAK256 DUP1 SLOAD PUSH1 0x1 SWAP1 SWAP2 ADD SLOAD PUSH1 0x1 PUSH1 0x1 PUSH1 0x80 SHL SUB DUP1 DUP4 AND SWAP3 PUSH1 0x1 PUSH1 0x80 SHL SWAP1 DIV AND SWAP1 DUP4 JUMP JUMPDEST PUSH1 0x1 PUSH1 0x1 PUSH1 0xA0 SHL SUB DUP3 AND PUSH1 0x0 SWAP1 DUP2 MSTORE PUSH1 0x3E PUSH1 0x20 MSTORE PUSH1 0x40 DUP2 KECCAK256 SLOAD DUP1 PUSH2 0x1102 JUMPI PUSH1 0x0 SWAP2 POP POP PUSH2 0x11E4 JUMP JUMPDEST PUSH1 0x0 PUSH2 0x1158 PUSH32 0x0 PUSH2 0x1152 TIMESTAMP PUSH32 0x0 PUSH2 0x1392 JUMP JUMPDEST SWAP1 PUSH2 0x1392 JUMP JUMPDEST SWAP1 POP DUP2 DUP2 GT ISZERO PUSH2 0x116B JUMPI PUSH1 0x0 SWAP2 POP PUSH2 0x11C5 JUMP JUMPDEST PUSH1 0x0 DUP8 DUP3 GT PUSH2 0x117A JUMPI DUP8 PUSH2 0x117C JUMP JUMPDEST TIMESTAMP JUMPDEST SWAP1 POP DUP3 DUP2 LT ISZERO PUSH2 0x1191 JUMPI DUP3 SWAP4 POP POP POP POP PUSH2 0x11E4 JUMP JUMPDEST PUSH2 0x11C1 PUSH2 0x119E DUP9 DUP8 PUSH2 0x12B5 JUMP JUMPDEST PUSH2 0x11BB PUSH2 0x11AB DUP9 DUP8 PUSH2 0x1AAF JUMP JUMPDEST PUSH2 0x11B5 DUP12 DUP7 PUSH2 0x1AAF JUMP JUMPDEST SWAP1 PUSH2 0x12B5 JUMP JUMPDEST SWAP1 PUSH2 0x1AE9 JUMP JUMPDEST SWAP3 POP POP JUMPDEST POP PUSH1 0x1 PUSH1 0x1 PUSH1 0xA0 SHL SUB DUP5 AND PUSH1 0x0 SWAP1 DUP2 MSTORE PUSH1 0x3E PUSH1 0x20 MSTORE PUSH1 0x40 SWAP1 KECCAK256 DUP2 SWAP1 SSTORE SWAP1 POP JUMPDEST SWAP5 SWAP4 POP POP POP POP JUMP JUMPDEST PUSH1 0x0 PUSH2 0x11F6 PUSH2 0x1B2B JUMP JUMPDEST SWAP1 POP PUSH1 0x9 SLOAD DUP2 GT PUSH2 0x1219 JUMPI PUSH1 0x40 MLOAD PUSH3 0x461BCD PUSH1 0xE5 SHL DUP2 MSTORE PUSH1 0x4 ADD PUSH2 0x55C SWAP1 PUSH2 0x2728 JUMP JUMPDEST PUSH1 0x9 DUP2 SWAP1 SSTORE PUSH1 0x40 DUP1 MLOAD PUSH1 0x20 PUSH1 0x1F DUP9 ADD DUP2 SWAP1 DIV DUP2 MUL DUP3 ADD DUP2 ADD SWAP1 SWAP3 MSTORE DUP7 DUP2 MSTORE PUSH2 0x125B SWAP2 DUP9 SWAP1 DUP9 SWAP1 DUP2 SWAP1 DUP5 ADD DUP4 DUP3 DUP1 DUP3 DUP5 CALLDATACOPY PUSH1 0x0 SWAP3 ADD SWAP2 SWAP1 SWAP2 MSTORE POP PUSH2 0x1B30 SWAP3 POP POP POP JUMP JUMPDEST PUSH2 0x129A DUP5 DUP5 DUP1 DUP1 PUSH1 0x1F ADD PUSH1 0x20 DUP1 SWAP2 DIV MUL PUSH1 0x20 ADD PUSH1 0x40 MLOAD SWAP1 DUP2 ADD PUSH1 0x40 MSTORE DUP1 SWAP4 SWAP3 SWAP2 SWAP1 DUP2 DUP2 MSTORE PUSH1 0x20 ADD DUP4 DUP4 DUP1 DUP3 DUP5 CALLDATACOPY PUSH1 0x0 SWAP3 ADD SWAP2 SWAP1 SWAP2 MSTORE POP PUSH2 0x1B47 SWAP3 POP POP POP JUMP JUMPDEST PUSH2 0x12A3 DUP3 PUSH2 0x1B5A JUMP JUMPDEST PUSH2 0x12AC DUP8 PUSH2 0x1B70 JUMP JUMPDEST POP POP POP POP POP POP POP JUMP JUMPDEST PUSH1 0x0 DUP3 DUP3 ADD DUP4 DUP2 LT ISZERO PUSH2 0x7EF JUMPI PUSH1 0x40 MLOAD PUSH3 0x461BCD PUSH1 0xE5 SHL DUP2 MSTORE PUSH1 0x4 ADD PUSH2 0x55C SWAP1 PUSH2 0x261F JUMP JUMPDEST CALLER SWAP1 JUMP JUMPDEST PUSH1 0x1 PUSH1 0x1 PUSH1 0xA0 SHL SUB DUP4 AND PUSH2 0x1304 JUMPI PUSH1 0x40 MLOAD PUSH3 0x461BCD PUSH1 0xE5 SHL DUP2 MSTORE PUSH1 0x4 ADD PUSH2 0x55C SWAP1 PUSH2 0x2862 JUMP JUMPDEST PUSH1 0x1 PUSH1 0x1 PUSH1 0xA0 SHL SUB DUP3 AND PUSH2 0x132A JUMPI PUSH1 0x40 MLOAD PUSH3 0x461BCD PUSH1 0xE5 SHL DUP2 MSTORE PUSH1 0x4 ADD PUSH2 0x55C SWAP1 PUSH2 0x25DD JUMP JUMPDEST PUSH1 0x1 PUSH1 0x1 PUSH1 0xA0 SHL SUB DUP1 DUP5 AND PUSH1 0x0 DUP2 DUP2 MSTORE PUSH1 0x1 PUSH1 0x20 SWAP1 DUP2 MSTORE PUSH1 0x40 DUP1 DUP4 KECCAK256 SWAP5 DUP8 AND DUP1 DUP5 MSTORE SWAP5 SWAP1 SWAP2 MSTORE SWAP1 DUP2 SWAP1 KECCAK256 DUP5 SWAP1 SSTORE MLOAD PUSH32 0x8C5BE1E5EBEC7D5BD14F71427D1E84F3DD0314C0F7B2291E5B200AC8C7C3B925 SWAP1 PUSH2 0x1385 SWAP1 DUP6 SWAP1 PUSH2 0x29E7 JUMP JUMPDEST PUSH1 0x40 MLOAD DUP1 SWAP2 SUB SWAP1 LOG3 POP POP POP JUMP JUMPDEST PUSH1 0x0 PUSH2 0x7EF DUP4 DUP4 PUSH1 0x40 MLOAD DUP1 PUSH1 0x40 ADD PUSH1 0x40 MSTORE DUP1 PUSH1 0x1E DUP2 MSTORE PUSH1 0x20 ADD PUSH32 0x536166654D6174683A207375627472616374696F6E206F766572666C6F770000 DUP2 MSTORE POP PUSH2 0x1741 JUMP JUMPDEST PUSH1 0x0 DUP1 PUSH2 0x13E5 DUP6 ADDRESS DUP7 PUSH2 0xD1C PUSH2 0x539 JUMP JUMPDEST PUSH1 0x1 PUSH1 0x1 PUSH1 0xA0 SHL SUB DUP7 AND PUSH1 0x0 SWAP1 DUP2 MSTORE PUSH1 0x3D PUSH1 0x20 MSTORE PUSH1 0x40 DUP2 KECCAK256 SLOAD SWAP2 SWAP3 POP SWAP1 PUSH2 0x140C SWAP1 DUP4 PUSH2 0x12B5 JUMP JUMPDEST SWAP1 POP DUP2 ISZERO PUSH2 0x1470 JUMPI DUP4 ISZERO PUSH2 0x1436 JUMPI PUSH1 0x1 PUSH1 0x1 PUSH1 0xA0 SHL SUB DUP7 AND PUSH1 0x0 SWAP1 DUP2 MSTORE PUSH1 0x3D PUSH1 0x20 MSTORE PUSH1 0x40 SWAP1 KECCAK256 DUP2 SWAP1 SSTORE JUMPDEST PUSH32 0x2468F9268C60AD90E2D49EDB0032C8A001E733AE888B3AB8E982EDF535BE1A76 DUP7 DUP4 PUSH1 0x40 MLOAD PUSH2 0x1467 SWAP3 SWAP2 SWAP1 PUSH2 0x2543 JUMP JUMPDEST PUSH1 0x40 MLOAD DUP1 SWAP2 SUB SWAP1 LOG1 JUMPDEST SWAP6 SWAP5 POP POP POP POP POP JUMP JUMPDEST PUSH1 0x1 PUSH1 0x1 PUSH1 0xA0 SHL SUB DUP3 AND PUSH2 0x149F JUMPI PUSH1 0x40 MLOAD PUSH3 0x461BCD PUSH1 0xE5 SHL DUP2 MSTORE PUSH1 0x4 ADD PUSH2 0x55C SWAP1 PUSH2 0x27A5 JUMP JUMPDEST PUSH2 0x14AB DUP3 PUSH1 0x0 DUP4 PUSH2 0x1B92 JUMP JUMPDEST PUSH2 0x14E8 DUP2 PUSH1 0x40 MLOAD DUP1 PUSH1 0x60 ADD PUSH1 0x40 MSTORE DUP1 PUSH1 0x22 DUP2 MSTORE PUSH1 0x20 ADD PUSH2 0x2A43 PUSH1 0x22 SWAP2 CODECOPY PUSH1 0x1 PUSH1 0x1 PUSH1 0xA0 SHL SUB DUP6 AND PUSH1 0x0 SWAP1 DUP2 MSTORE PUSH1 0x20 DUP2 SWAP1 MSTORE PUSH1 0x40 SWAP1 KECCAK256 SLOAD SWAP2 SWAP1 PUSH2 0x1741 JUMP JUMPDEST PUSH1 0x1 PUSH1 0x1 PUSH1 0xA0 SHL SUB DUP4 AND PUSH1 0x0 SWAP1 DUP2 MSTORE PUSH1 0x20 DUP2 SWAP1 MSTORE PUSH1 0x40 SWAP1 KECCAK256 SSTORE PUSH1 0x2 SLOAD PUSH2 0x150E SWAP1 DUP3 PUSH2 0x1392 JUMP JUMPDEST PUSH1 0x2 SSTORE PUSH1 0x40 MLOAD PUSH1 0x0 SWAP1 PUSH1 0x1 PUSH1 0x1 PUSH1 0xA0 SHL SUB DUP5 AND SWAP1 PUSH32 0xDDF252AD1BE2C89B69C2B068FC378DAA952BA7F163C4A11628F55A4DF523B3EF SWAP1 PUSH2 0x154F SWAP1 DUP6 SWAP1 PUSH2 0x29E7 JUMP JUMPDEST PUSH1 0x40 MLOAD DUP1 SWAP2 SUB SWAP1 LOG3 POP POP JUMP JUMPDEST PUSH2 0x1053 DUP4 PUSH4 0xA9059CBB PUSH1 0xE0 SHL DUP5 DUP5 PUSH1 0x40 MLOAD PUSH1 0x24 ADD PUSH2 0x157A SWAP3 SWAP2 SWAP1 PUSH2 0x2543 JUMP JUMPDEST PUSH1 0x40 DUP1 MLOAD PUSH1 0x1F NOT DUP2 DUP5 SUB ADD DUP2 MSTORE SWAP2 SWAP1 MSTORE PUSH1 0x20 DUP2 ADD DUP1 MLOAD PUSH1 0x1 PUSH1 0x1 PUSH1 0xE0 SHL SUB AND PUSH1 0x1 PUSH1 0x1 PUSH1 0xE0 SHL SUB NOT SWAP1 SWAP4 AND SWAP3 SWAP1 SWAP3 OR SWAP1 SWAP2 MSTORE PUSH2 0x1C8A JUMP JUMPDEST PUSH1 0x0 PUSH2 0x15BC DUP5 PUSH2 0x8F6 JUMP JUMPDEST SWAP1 POP PUSH2 0x15CA DUP5 DUP3 PUSH1 0x1 PUSH2 0x13D4 JUMP JUMPDEST POP DUP3 PUSH1 0x1 PUSH1 0x1 PUSH1 0xA0 SHL SUB AND DUP5 PUSH1 0x1 PUSH1 0x1 PUSH1 0xA0 SHL SUB AND EQ PUSH2 0x166C JUMPI PUSH1 0x0 PUSH2 0x15EF DUP5 PUSH2 0x8F6 JUMP JUMPDEST SWAP1 POP PUSH2 0x15FD DUP5 DUP3 PUSH1 0x1 PUSH2 0x13D4 JUMP JUMPDEST POP PUSH1 0x1 PUSH1 0x1 PUSH1 0xA0 SHL SUB DUP6 AND PUSH1 0x0 SWAP1 DUP2 MSTORE PUSH1 0x3E PUSH1 0x20 MSTORE PUSH1 0x40 SWAP1 KECCAK256 SLOAD PUSH2 0x1623 DUP2 DUP6 DUP8 DUP6 PUSH2 0x10DA JUMP JUMPDEST PUSH1 0x1 PUSH1 0x1 PUSH1 0xA0 SHL SUB DUP7 AND PUSH1 0x0 SWAP1 DUP2 MSTORE PUSH1 0x3E PUSH1 0x20 MSTORE PUSH1 0x40 SWAP1 KECCAK256 SSTORE DUP3 DUP5 EQ DUP1 ISZERO PUSH2 0x164A JUMPI POP DUP1 ISZERO ISZERO JUMPDEST ISZERO PUSH2 0x1669 JUMPI PUSH1 0x1 PUSH1 0x1 PUSH1 0xA0 SHL SUB DUP7 AND PUSH1 0x0 SWAP1 DUP2 MSTORE PUSH1 0x3E PUSH1 0x20 MSTORE PUSH1 0x40 DUP2 KECCAK256 SSTORE JUMPDEST POP POP JUMPDEST PUSH1 0x3F SLOAD PUSH1 0x40 MLOAD PUSH4 0x2D24F6C7 PUSH1 0xE0 SHL DUP2 MSTORE PUSH1 0x1 PUSH1 0x1 PUSH1 0xA0 SHL SUB SWAP1 SWAP2 AND SWAP1 PUSH4 0x2D24F6C7 SWAP1 PUSH2 0x169C SWAP1 DUP8 SWAP1 PUSH1 0x4 ADD PUSH2 0x24E1 JUMP JUMPDEST PUSH1 0x0 PUSH1 0x40 MLOAD DUP1 DUP4 SUB DUP2 PUSH1 0x0 DUP8 DUP1 EXTCODESIZE ISZERO DUP1 ISZERO PUSH2 0x16B6 JUMPI PUSH1 0x0 DUP1 REVERT JUMPDEST POP GAS CALL ISZERO DUP1 ISZERO PUSH2 0x16CA JUMPI RETURNDATASIZE PUSH1 0x0 DUP1 RETURNDATACOPY RETURNDATASIZE PUSH1 0x0 REVERT JUMPDEST POP POP PUSH1 0x3F SLOAD PUSH1 0x40 MLOAD PUSH4 0x2D24F6C7 PUSH1 0xE0 SHL DUP2 MSTORE PUSH1 0x1 PUSH1 0x1 PUSH1 0xA0 SHL SUB SWAP1 SWAP2 AND SWAP3 POP PUSH4 0x2D24F6C7 SWAP2 POP PUSH2 0x16FE SWAP1 DUP7 SWAP1 PUSH1 0x4 ADD PUSH2 0x24E1 JUMP JUMPDEST PUSH1 0x0 PUSH1 0x40 MLOAD DUP1 DUP4 SUB DUP2 PUSH1 0x0 DUP8 DUP1 EXTCODESIZE ISZERO DUP1 ISZERO PUSH2 0x1718 JUMPI PUSH1 0x0 DUP1 REVERT JUMPDEST POP GAS CALL ISZERO DUP1 ISZERO PUSH2 0x172C JUMPI RETURNDATASIZE PUSH1 0x0 DUP1 RETURNDATACOPY RETURNDATASIZE PUSH1 0x0 REVERT JUMPDEST POP POP POP POP PUSH2 0x173B DUP5 DUP5 DUP5 PUSH2 0x1D6F JUMP JUMPDEST POP POP POP POP JUMP JUMPDEST PUSH1 0x0 DUP2 DUP5 DUP5 GT ISZERO PUSH2 0x1765 JUMPI PUSH1 0x40 MLOAD PUSH3 0x461BCD PUSH1 0xE5 SHL DUP2 MSTORE PUSH1 0x4 ADD PUSH2 0x55C SWAP2 SWAP1 PUSH2 0x2567 JUMP JUMPDEST POP POP POP SWAP1 SUB SWAP1 JUMP JUMPDEST PUSH1 0x0 DUP1 DUP1 JUMPDEST DUP4 MLOAD DUP2 LT ISZERO PUSH2 0x1856 JUMPI PUSH1 0x0 PUSH1 0x3C PUSH1 0x0 DUP7 DUP5 DUP2 MLOAD DUP2 LT PUSH2 0x178D JUMPI INVALID JUMPDEST PUSH1 0x20 SWAP1 DUP2 MUL SWAP2 SWAP1 SWAP2 ADD DUP2 ADD MLOAD MLOAD PUSH1 0x1 PUSH1 0x1 PUSH1 0xA0 SHL SUB AND DUP3 MSTORE DUP2 ADD SWAP2 SWAP1 SWAP2 MSTORE PUSH1 0x40 ADD PUSH1 0x0 SWAP1 DUP2 KECCAK256 PUSH1 0x1 DUP2 ADD SLOAD DUP2 SLOAD DUP9 MLOAD SWAP3 SWAP5 POP PUSH2 0x17F5 SWAP3 PUSH1 0x1 PUSH1 0x1 PUSH1 0x80 SHL SUB DUP1 DUP4 AND SWAP3 PUSH1 0x1 PUSH1 0x80 SHL SWAP1 DIV AND SWAP1 DUP11 SWAP1 DUP9 SWAP1 DUP2 LT PUSH2 0x17E4 JUMPI INVALID JUMPDEST PUSH1 0x20 MUL PUSH1 0x20 ADD ADD MLOAD PUSH1 0x40 ADD MLOAD PUSH2 0x1E84 JUMP JUMPDEST SWAP1 POP PUSH2 0x184A PUSH2 0x1843 DUP8 DUP6 DUP2 MLOAD DUP2 LT PUSH2 0x1809 JUMPI INVALID JUMPDEST PUSH1 0x20 MUL PUSH1 0x20 ADD ADD MLOAD PUSH1 0x20 ADD MLOAD DUP4 DUP6 PUSH1 0x2 ADD PUSH1 0x0 DUP13 PUSH1 0x1 PUSH1 0x1 PUSH1 0xA0 SHL SUB AND PUSH1 0x1 PUSH1 0x1 PUSH1 0xA0 SHL SUB AND DUP2 MSTORE PUSH1 0x20 ADD SWAP1 DUP2 MSTORE PUSH1 0x20 ADD PUSH1 0x0 KECCAK256 SLOAD PUSH2 0x1F7D JUMP JUMPDEST DUP6 SWAP1 PUSH2 0x12B5 JUMP JUMPDEST SWAP4 POP POP POP PUSH1 0x1 ADD PUSH2 0x1772 JUMP JUMPDEST POP SWAP4 SWAP3 POP POP POP JUMP JUMPDEST PUSH2 0x173B DUP5 PUSH4 0x23B872DD PUSH1 0xE0 SHL DUP6 DUP6 DUP6 PUSH1 0x40 MLOAD PUSH1 0x24 ADD PUSH2 0x157A SWAP4 SWAP3 SWAP2 SWAP1 PUSH2 0x24F5 JUMP JUMPDEST PUSH1 0x1 PUSH1 0x1 PUSH1 0xA0 SHL SUB DUP1 DUP5 AND PUSH1 0x0 SWAP1 DUP2 MSTORE PUSH1 0x3C PUSH1 0x20 SWAP1 DUP2 MSTORE PUSH1 0x40 DUP1 DUP4 KECCAK256 SWAP4 DUP9 AND DUP4 MSTORE PUSH1 0x2 DUP5 ADD SWAP1 SWAP2 MSTORE DUP2 KECCAK256 SLOAD SWAP1 SWAP2 SWAP1 DUP3 DUP1 PUSH2 0x18BA DUP9 DUP6 DUP9 PUSH2 0x19F2 JUMP JUMPDEST SWAP1 POP DUP1 DUP4 EQ PUSH2 0x1932 JUMPI DUP7 ISZERO PUSH2 0x18D7 JUMPI PUSH2 0x18D4 DUP8 DUP3 DUP6 PUSH2 0x1F7D JUMP JUMPDEST SWAP2 POP JUMPDEST PUSH1 0x1 PUSH1 0x1 PUSH1 0xA0 SHL SUB DUP1 DUP11 AND PUSH1 0x0 DUP2 DUP2 MSTORE PUSH1 0x2 DUP8 ADD PUSH1 0x20 MSTORE PUSH1 0x40 SWAP1 DUP2 SWAP1 KECCAK256 DUP5 SWAP1 SSTORE MLOAD SWAP2 DUP11 AND SWAP2 PUSH32 0xBB123B5C06D5408BBEA3C4FEF481578175CFB432E3B482C6186F02ED9086585B SWAP1 PUSH2 0x1929 SWAP1 DUP6 SWAP1 PUSH2 0x29E7 JUMP JUMPDEST PUSH1 0x40 MLOAD DUP1 SWAP2 SUB SWAP1 LOG3 JUMPDEST POP SWAP8 SWAP7 POP POP POP POP POP POP POP JUMP JUMPDEST PUSH1 0x1 PUSH1 0x1 PUSH1 0xA0 SHL SUB DUP3 AND PUSH2 0x1964 JUMPI PUSH1 0x40 MLOAD PUSH3 0x461BCD PUSH1 0xE5 SHL DUP2 MSTORE PUSH1 0x4 ADD PUSH2 0x55C SWAP1 PUSH2 0x295E JUMP JUMPDEST PUSH2 0x1970 PUSH1 0x0 DUP4 DUP4 PUSH2 0x1B92 JUMP JUMPDEST PUSH1 0x2 SLOAD PUSH2 0x197D SWAP1 DUP3 PUSH2 0x12B5 JUMP JUMPDEST PUSH1 0x2 SSTORE PUSH1 0x1 PUSH1 0x1 PUSH1 0xA0 SHL SUB DUP3 AND PUSH1 0x0 SWAP1 DUP2 MSTORE PUSH1 0x20 DUP2 SWAP1 MSTORE PUSH1 0x40 SWAP1 KECCAK256 SLOAD PUSH2 0x19A3 SWAP1 DUP3 PUSH2 0x12B5 JUMP JUMPDEST PUSH1 0x1 PUSH1 0x1 PUSH1 0xA0 SHL SUB DUP4 AND PUSH1 0x0 DUP2 DUP2 MSTORE PUSH1 0x20 DUP2 SWAP1 MSTORE PUSH1 0x40 DUP1 DUP3 KECCAK256 SWAP4 SWAP1 SWAP4 SSTORE SWAP2 MLOAD SWAP1 SWAP2 SWAP1 PUSH32 0xDDF252AD1BE2C89B69C2B068FC378DAA952BA7F163C4A11628F55A4DF523B3EF SWAP1 PUSH2 0x154F SWAP1 DUP6 SWAP1 PUSH2 0x29E7 JUMP JUMPDEST PUSH1 0x1 DUP3 ADD SLOAD DUP3 SLOAD PUSH1 0x0 SWAP2 SWAP1 PUSH1 0x1 PUSH1 0x80 SHL SWAP1 DIV PUSH1 0x1 PUSH1 0x1 PUSH1 0x80 SHL SUB AND TIMESTAMP DUP2 EQ ISZERO PUSH2 0x1A1D JUMPI POP SWAP1 POP PUSH2 0x7EF JUMP JUMPDEST DUP5 SLOAD PUSH1 0x0 SWAP1 PUSH2 0x1A38 SWAP1 DUP5 SWAP1 PUSH1 0x1 PUSH1 0x1 PUSH1 0x80 SHL SUB AND DUP5 DUP9 PUSH2 0x1E84 JUMP JUMPDEST SWAP1 POP DUP3 DUP2 EQ PUSH2 0x1A8C JUMPI DUP1 DUP7 PUSH1 0x1 ADD DUP2 SWAP1 SSTORE POP DUP7 PUSH1 0x1 PUSH1 0x1 PUSH1 0xA0 SHL SUB AND PUSH32 0x5777CA300DFE5BEAD41006FBCE4389794DBC0ED8D6CCCEBFAF94630AA04184BC DUP3 PUSH1 0x40 MLOAD PUSH2 0x1A83 SWAP2 SWAP1 PUSH2 0x29E7 JUMP JUMPDEST PUSH1 0x40 MLOAD DUP1 SWAP2 SUB SWAP1 LOG2 JUMPDEST DUP6 SLOAD PUSH1 0x1 PUSH1 0x1 PUSH1 0x80 SHL SUB TIMESTAMP DUP2 AND PUSH1 0x1 PUSH1 0x80 SHL MUL SWAP2 AND OR DUP7 SSTORE SWAP3 POP POP POP SWAP4 SWAP3 POP POP POP JUMP JUMPDEST PUSH1 0x0 DUP3 PUSH2 0x1ABE JUMPI POP PUSH1 0x0 PUSH2 0x533 JUMP JUMPDEST DUP3 DUP3 MUL DUP3 DUP5 DUP3 DUP2 PUSH2 0x1ACB JUMPI INVALID JUMPDEST DIV EQ PUSH2 0x7EF JUMPI PUSH1 0x40 MLOAD PUSH3 0x461BCD PUSH1 0xE5 SHL DUP2 MSTORE PUSH1 0x4 ADD PUSH2 0x55C SWAP1 PUSH2 0x26E7 JUMP JUMPDEST PUSH1 0x0 PUSH2 0x7EF DUP4 DUP4 PUSH1 0x40 MLOAD DUP1 PUSH1 0x40 ADD PUSH1 0x40 MSTORE DUP1 PUSH1 0x1A DUP2 MSTORE PUSH1 0x20 ADD PUSH32 0x536166654D6174683A206469766973696F6E206279207A65726F000000000000 DUP2 MSTORE POP PUSH2 0x1F9F JUMP JUMPDEST PUSH1 0x1 SWAP1 JUMP JUMPDEST DUP1 MLOAD PUSH2 0x1B43 SWAP1 PUSH1 0x3 SWAP1 PUSH1 0x20 DUP5 ADD SWAP1 PUSH2 0x21A0 JUMP JUMPDEST POP POP JUMP JUMPDEST DUP1 MLOAD PUSH2 0x1B43 SWAP1 PUSH1 0x4 SWAP1 PUSH1 0x20 DUP5 ADD SWAP1 PUSH2 0x21A0 JUMP JUMPDEST PUSH1 0x5 DUP1 SLOAD PUSH1 0xFF NOT AND PUSH1 0xFF SWAP3 SWAP1 SWAP3 AND SWAP2 SWAP1 SWAP2 OR SWAP1 SSTORE JUMP JUMPDEST PUSH1 0x8 DUP1 SLOAD PUSH1 0x1 PUSH1 0x1 PUSH1 0xA0 SHL SUB NOT AND PUSH1 0x1 PUSH1 0x1 PUSH1 0xA0 SHL SUB SWAP3 SWAP1 SWAP3 AND SWAP2 SWAP1 SWAP2 OR SWAP1 SSTORE JUMP JUMPDEST DUP2 PUSH1 0x1 PUSH1 0x1 PUSH1 0xA0 SHL SUB AND DUP4 PUSH1 0x1 PUSH1 0x1 PUSH1 0xA0 SHL SUB AND EQ ISZERO PUSH2 0x1BB1 JUMPI PUSH2 0x1053 JUMP JUMPDEST PUSH1 0x1 PUSH1 0x1 PUSH1 0xA0 SHL SUB DUP4 AND ISZERO PUSH2 0x1BE3 JUMPI PUSH1 0x0 PUSH2 0x1BCB DUP5 PUSH2 0x8F6 JUMP JUMPDEST SWAP1 POP PUSH2 0x1BE1 DUP5 DUP3 PUSH2 0x1BDC DUP2 DUP7 PUSH2 0x1392 JUMP JUMPDEST PUSH2 0x1FD6 JUMP JUMPDEST POP JUMPDEST PUSH1 0x1 PUSH1 0x1 PUSH1 0xA0 SHL SUB DUP3 AND ISZERO PUSH2 0x1C10 JUMPI PUSH1 0x0 PUSH2 0x1BFD DUP4 PUSH2 0x8F6 JUMP JUMPDEST SWAP1 POP PUSH2 0x1C0E DUP4 DUP3 PUSH2 0x1BDC DUP2 DUP7 PUSH2 0x12B5 JUMP JUMPDEST POP JUMPDEST PUSH1 0x8 SLOAD PUSH1 0x1 PUSH1 0x1 PUSH1 0xA0 SHL SUB AND DUP1 ISZERO PUSH2 0x173B JUMPI PUSH1 0x40 MLOAD PUSH4 0x4A393149 PUSH1 0xE0 SHL DUP2 MSTORE PUSH1 0x1 PUSH1 0x1 PUSH1 0xA0 SHL SUB DUP3 AND SWAP1 PUSH4 0x4A393149 SWAP1 PUSH2 0x1C52 SWAP1 DUP8 SWAP1 DUP8 SWAP1 DUP8 SWAP1 PUSH1 0x4 ADD PUSH2 0x24F5 JUMP JUMPDEST PUSH1 0x0 PUSH1 0x40 MLOAD DUP1 DUP4 SUB DUP2 PUSH1 0x0 DUP8 DUP1 EXTCODESIZE ISZERO DUP1 ISZERO PUSH2 0x1C6C JUMPI PUSH1 0x0 DUP1 REVERT JUMPDEST POP GAS CALL ISZERO DUP1 ISZERO PUSH2 0x1C80 JUMPI RETURNDATASIZE PUSH1 0x0 DUP1 RETURNDATACOPY RETURNDATASIZE PUSH1 0x0 REVERT JUMPDEST POP POP POP POP POP POP POP POP JUMP JUMPDEST PUSH2 0x1C9C DUP3 PUSH1 0x1 PUSH1 0x1 PUSH1 0xA0 SHL SUB AND PUSH2 0x213D JUMP JUMPDEST PUSH2 0x1CB8 JUMPI PUSH1 0x40 MLOAD PUSH3 0x461BCD PUSH1 0xE5 SHL DUP2 MSTORE PUSH1 0x4 ADD PUSH2 0x55C SWAP1 PUSH2 0x2927 JUMP JUMPDEST PUSH1 0x0 PUSH1 0x60 DUP4 PUSH1 0x1 PUSH1 0x1 PUSH1 0xA0 SHL SUB AND DUP4 PUSH1 0x40 MLOAD PUSH2 0x1CD4 SWAP2 SWAP1 PUSH2 0x24C5 JUMP JUMPDEST PUSH1 0x0 PUSH1 0x40 MLOAD DUP1 DUP4 SUB DUP2 PUSH1 0x0 DUP7 GAS CALL SWAP2 POP POP RETURNDATASIZE DUP1 PUSH1 0x0 DUP2 EQ PUSH2 0x1D11 JUMPI PUSH1 0x40 MLOAD SWAP2 POP PUSH1 0x1F NOT PUSH1 0x3F RETURNDATASIZE ADD AND DUP3 ADD PUSH1 0x40 MSTORE RETURNDATASIZE DUP3 MSTORE RETURNDATASIZE PUSH1 0x0 PUSH1 0x20 DUP5 ADD RETURNDATACOPY PUSH2 0x1D16 JUMP JUMPDEST PUSH1 0x60 SWAP2 POP JUMPDEST POP SWAP2 POP SWAP2 POP DUP2 PUSH2 0x1D38 JUMPI PUSH1 0x40 MLOAD PUSH3 0x461BCD PUSH1 0xE5 SHL DUP2 MSTORE PUSH1 0x4 ADD PUSH2 0x55C SWAP1 PUSH2 0x2683 JUMP JUMPDEST DUP1 MLOAD ISZERO PUSH2 0x173B JUMPI DUP1 DUP1 PUSH1 0x20 ADD SWAP1 MLOAD DUP2 ADD SWAP1 PUSH2 0x1D53 SWAP2 SWAP1 PUSH2 0x23A9 JUMP JUMPDEST PUSH2 0x173B JUMPI PUSH1 0x40 MLOAD PUSH3 0x461BCD PUSH1 0xE5 SHL DUP2 MSTORE PUSH1 0x4 ADD PUSH2 0x55C SWAP1 PUSH2 0x28A6 JUMP JUMPDEST PUSH1 0x1 PUSH1 0x1 PUSH1 0xA0 SHL SUB DUP4 AND PUSH2 0x1D95 JUMPI PUSH1 0x40 MLOAD PUSH3 0x461BCD PUSH1 0xE5 SHL DUP2 MSTORE PUSH1 0x4 ADD PUSH2 0x55C SWAP1 PUSH2 0x27E6 JUMP JUMPDEST PUSH1 0x1 PUSH1 0x1 PUSH1 0xA0 SHL SUB DUP3 AND PUSH2 0x1DBB JUMPI PUSH1 0x40 MLOAD PUSH3 0x461BCD PUSH1 0xE5 SHL DUP2 MSTORE PUSH1 0x4 ADD PUSH2 0x55C SWAP1 PUSH2 0x259A JUMP JUMPDEST PUSH2 0x1DC6 DUP4 DUP4 DUP4 PUSH2 0x1B92 JUMP JUMPDEST PUSH2 0x1E03 DUP2 PUSH1 0x40 MLOAD DUP1 PUSH1 0x60 ADD PUSH1 0x40 MSTORE DUP1 PUSH1 0x26 DUP2 MSTORE PUSH1 0x20 ADD PUSH2 0x2A65 PUSH1 0x26 SWAP2 CODECOPY PUSH1 0x1 PUSH1 0x1 PUSH1 0xA0 SHL SUB DUP7 AND PUSH1 0x0 SWAP1 DUP2 MSTORE PUSH1 0x20 DUP2 SWAP1 MSTORE PUSH1 0x40 SWAP1 KECCAK256 SLOAD SWAP2 SWAP1 PUSH2 0x1741 JUMP JUMPDEST PUSH1 0x1 PUSH1 0x1 PUSH1 0xA0 SHL SUB DUP1 DUP6 AND PUSH1 0x0 SWAP1 DUP2 MSTORE PUSH1 0x20 DUP2 SWAP1 MSTORE PUSH1 0x40 DUP1 DUP3 KECCAK256 SWAP4 SWAP1 SWAP4 SSTORE SWAP1 DUP5 AND DUP2 MSTORE KECCAK256 SLOAD PUSH2 0x1E32 SWAP1 DUP3 PUSH2 0x12B5 JUMP JUMPDEST PUSH1 0x1 PUSH1 0x1 PUSH1 0xA0 SHL SUB DUP1 DUP5 AND PUSH1 0x0 DUP2 DUP2 MSTORE PUSH1 0x20 DUP2 SWAP1 MSTORE PUSH1 0x40 SWAP1 DUP2 SWAP1 KECCAK256 SWAP4 SWAP1 SWAP4 SSTORE SWAP2 MLOAD SWAP1 DUP6 AND SWAP1 PUSH32 0xDDF252AD1BE2C89B69C2B068FC378DAA952BA7F163C4A11628F55A4DF523B3EF SWAP1 PUSH2 0x1385 SWAP1 DUP6 SWAP1 PUSH2 0x29E7 JUMP JUMPDEST PUSH1 0x0 DUP4 ISZERO DUP1 PUSH2 0x1E91 JUMPI POP DUP2 ISZERO JUMPDEST DUP1 PUSH2 0x1EA4 JUMPI POP TIMESTAMP DUP4 PUSH1 0x1 PUSH1 0x1 PUSH1 0x80 SHL SUB AND EQ JUMPDEST DUP1 PUSH2 0x1ED8 JUMPI POP PUSH32 0x0 DUP4 PUSH1 0x1 PUSH1 0x1 PUSH1 0x80 SHL SUB AND LT ISZERO JUMPDEST ISZERO PUSH2 0x1EE4 JUMPI POP DUP4 PUSH2 0x11E4 JUMP JUMPDEST PUSH1 0x0 PUSH32 0x0 TIMESTAMP GT PUSH2 0x1F13 JUMPI TIMESTAMP PUSH2 0x1F35 JUMP JUMPDEST PUSH32 0x0 JUMPDEST SWAP1 POP PUSH1 0x0 PUSH2 0x1F4C DUP3 PUSH1 0x1 PUSH1 0x1 PUSH1 0x80 SHL SUB DUP8 AND PUSH2 0x1392 JUMP JUMPDEST SWAP1 POP PUSH2 0x1F72 DUP8 PUSH2 0x11B5 DUP7 PUSH2 0x11BB PUSH8 0xDE0B6B3A7640000 PUSH2 0x1F6C DUP13 DUP9 PUSH2 0x1AAF JUMP JUMPDEST SWAP1 PUSH2 0x1AAF JUMP JUMPDEST SWAP8 SWAP7 POP POP POP POP POP POP POP JUMP JUMPDEST PUSH1 0x0 PUSH2 0x11E4 PUSH8 0xDE0B6B3A7640000 PUSH2 0x11BB PUSH2 0x1F98 DUP7 DUP7 PUSH2 0x1392 JUMP JUMPDEST DUP8 SWAP1 PUSH2 0x1AAF JUMP JUMPDEST PUSH1 0x0 DUP2 DUP4 PUSH2 0x1FC0 JUMPI PUSH1 0x40 MLOAD PUSH3 0x461BCD PUSH1 0xE5 SHL DUP2 MSTORE PUSH1 0x4 ADD PUSH2 0x55C SWAP2 SWAP1 PUSH2 0x2567 JUMP JUMPDEST POP PUSH1 0x0 DUP4 DUP6 DUP2 PUSH2 0x1FCC JUMPI INVALID JUMPDEST DIV SWAP6 SWAP5 POP POP POP POP POP JUMP JUMPDEST PUSH1 0x1 PUSH1 0x1 PUSH1 0xA0 SHL SUB DUP4 AND PUSH1 0x0 SWAP1 DUP2 MSTORE PUSH1 0x7 PUSH1 0x20 SWAP1 DUP2 MSTORE PUSH1 0x40 DUP1 DUP4 KECCAK256 SLOAD PUSH1 0x6 SWAP1 SWAP3 MSTORE SWAP1 SWAP2 KECCAK256 NUMBER SWAP2 SWAP1 DUP2 ISZERO DUP1 ISZERO SWAP1 PUSH2 0x203B JUMPI POP PUSH1 0x1 PUSH1 0x1 PUSH1 0x80 SHL SUB DUP4 AND DUP2 PUSH1 0x0 PUSH2 0x201F DUP6 PUSH1 0x1 PUSH2 0x1392 JUMP JUMPDEST DUP2 MSTORE PUSH1 0x20 DUP2 ADD SWAP2 SWAP1 SWAP2 MSTORE PUSH1 0x40 ADD PUSH1 0x0 KECCAK256 SLOAD PUSH1 0x1 PUSH1 0x1 PUSH1 0x80 SHL SUB AND EQ JUMPDEST ISZERO PUSH2 0x207F JUMPI DUP4 DUP2 PUSH1 0x0 PUSH2 0x204F DUP6 PUSH1 0x1 PUSH2 0x1392 JUMP JUMPDEST DUP2 MSTORE PUSH1 0x20 DUP2 ADD SWAP2 SWAP1 SWAP2 MSTORE PUSH1 0x40 ADD PUSH1 0x0 KECCAK256 DUP1 SLOAD PUSH1 0x1 PUSH1 0x1 PUSH1 0x80 SHL SUB SWAP3 DUP4 AND PUSH1 0x1 PUSH1 0x80 SHL MUL SWAP3 AND SWAP2 SWAP1 SWAP2 OR SWAP1 SSTORE PUSH2 0x20FA JUMP JUMPDEST PUSH1 0x40 DUP1 MLOAD DUP1 DUP3 ADD DUP3 MSTORE PUSH1 0x1 PUSH1 0x1 PUSH1 0x80 SHL SUB DUP1 DUP7 AND DUP3 MSTORE DUP7 DUP2 AND PUSH1 0x20 DUP1 DUP5 ADD SWAP2 DUP3 MSTORE PUSH1 0x0 DUP8 DUP2 MSTORE SWAP1 DUP7 SWAP1 MSTORE SWAP4 SWAP1 SWAP4 KECCAK256 SWAP2 MLOAD DUP3 SLOAD SWAP4 MLOAD DUP3 AND PUSH1 0x1 PUSH1 0x80 SHL MUL SWAP1 DUP3 AND PUSH1 0x1 PUSH1 0x1 PUSH1 0x80 SHL SUB NOT SWAP1 SWAP5 AND SWAP4 SWAP1 SWAP4 OR AND SWAP2 SWAP1 SWAP2 OR SWAP1 SSTORE PUSH2 0x20E0 DUP3 PUSH1 0x1 PUSH2 0x12B5 JUMP JUMPDEST PUSH1 0x1 PUSH1 0x1 PUSH1 0xA0 SHL SUB DUP8 AND PUSH1 0x0 SWAP1 DUP2 MSTORE PUSH1 0x7 PUSH1 0x20 MSTORE PUSH1 0x40 SWAP1 KECCAK256 SSTORE JUMPDEST PUSH32 0x2CD3C83DDAC2953EE75F53265D9EA4463EAF05030E5459A1B7E63819B7CE88F7 DUP7 DUP7 DUP7 PUSH1 0x40 MLOAD PUSH2 0x212D SWAP4 SWAP3 SWAP2 SWAP1 PUSH2 0x2519 JUMP JUMPDEST PUSH1 0x40 MLOAD DUP1 SWAP2 SUB SWAP1 LOG1 POP POP POP POP POP POP JUMP JUMPDEST PUSH1 0x0 DUP2 EXTCODEHASH PUSH32 0xC5D2460186F7233C927E7DB2DCC703C0E500B653CA82273B7BFAD8045D85A470 DUP2 DUP2 EQ DUP1 ISZERO SWAP1 PUSH2 0x11E4 JUMPI POP POP ISZERO ISZERO SWAP3 SWAP2 POP POP JUMP JUMPDEST PUSH1 0x40 MLOAD DUP1 PUSH1 0x60 ADD PUSH1 0x40 MSTORE DUP1 PUSH1 0x0 PUSH1 0x1 PUSH1 0x1 PUSH1 0xA0 SHL SUB AND DUP2 MSTORE PUSH1 0x20 ADD PUSH1 0x0 DUP2 MSTORE PUSH1 0x20 ADD PUSH1 0x0 DUP2 MSTORE POP SWAP1 JUMP JUMPDEST DUP3 DUP1 SLOAD PUSH1 0x1 DUP2 PUSH1 0x1 AND ISZERO PUSH2 0x100 MUL SUB AND PUSH1 0x2 SWAP1 DIV SWAP1 PUSH1 0x0 MSTORE PUSH1 0x20 PUSH1 0x0 KECCAK256 SWAP1 PUSH1 0x1F ADD PUSH1 0x20 SWAP1 DIV DUP2 ADD SWAP3 DUP3 PUSH1 0x1F LT PUSH2 0x21E1 JUMPI DUP1 MLOAD PUSH1 0xFF NOT AND DUP4 DUP1 ADD OR DUP6 SSTORE PUSH2 0x220E JUMP JUMPDEST DUP3 DUP1 ADD PUSH1 0x1 ADD DUP6 SSTORE DUP3 ISZERO PUSH2 0x220E JUMPI SWAP2 DUP3 ADD JUMPDEST DUP3 DUP2 GT ISZERO PUSH2 0x220E JUMPI DUP3 MLOAD DUP3 SSTORE SWAP2 PUSH1 0x20 ADD SWAP2 SWAP1 PUSH1 0x1 ADD SWAP1 PUSH2 0x21F3 JUMP JUMPDEST POP PUSH2 0x221A SWAP3 SWAP2 POP PUSH2 0x221E JUMP JUMPDEST POP SWAP1 JUMP JUMPDEST JUMPDEST DUP1 DUP3 GT ISZERO PUSH2 0x221A JUMPI PUSH1 0x0 DUP2 SSTORE PUSH1 0x1 ADD PUSH2 0x221F JUMP JUMPDEST PUSH1 0x0 DUP1 DUP4 PUSH1 0x1F DUP5 ADD SLT PUSH2 0x2244 JUMPI DUP2 DUP3 REVERT JUMPDEST POP DUP2 CALLDATALOAD PUSH8 0xFFFFFFFFFFFFFFFF DUP2 GT ISZERO PUSH2 0x225B JUMPI DUP2 DUP3 REVERT JUMPDEST PUSH1 0x20 DUP4 ADD SWAP2 POP DUP4 PUSH1 0x20 DUP3 DUP6 ADD ADD GT ISZERO PUSH2 0x2273 JUMPI PUSH1 0x0 DUP1 REVERT JUMPDEST SWAP3 POP SWAP3 SWAP1 POP JUMP JUMPDEST PUSH1 0x0 PUSH1 0x20 DUP3 DUP5 SUB SLT ISZERO PUSH2 0x228B JUMPI DUP1 DUP2 REVERT JUMPDEST DUP2 CALLDATALOAD PUSH2 0x7EF DUP2 PUSH2 0x2A2A JUMP JUMPDEST PUSH1 0x0 DUP1 PUSH1 0x40 DUP4 DUP6 SUB SLT ISZERO PUSH2 0x22A8 JUMPI DUP1 DUP2 REVERT JUMPDEST DUP3 CALLDATALOAD PUSH2 0x22B3 DUP2 PUSH2 0x2A2A JUMP JUMPDEST SWAP2 POP PUSH1 0x20 DUP4 ADD CALLDATALOAD PUSH2 0x22C3 DUP2 PUSH2 0x2A2A JUMP JUMPDEST DUP1 SWAP2 POP POP SWAP3 POP SWAP3 SWAP1 POP JUMP JUMPDEST PUSH1 0x0 DUP1 PUSH1 0x0 PUSH1 0x60 DUP5 DUP7 SUB SLT ISZERO PUSH2 0x22E2 JUMPI DUP1 DUP2 REVERT JUMPDEST DUP4 CALLDATALOAD PUSH2 0x22ED DUP2 PUSH2 0x2A2A JUMP JUMPDEST SWAP3 POP PUSH1 0x20 DUP5 ADD CALLDATALOAD PUSH2 0x22FD DUP2 PUSH2 0x2A2A JUMP JUMPDEST SWAP3 SWAP6 SWAP3 SWAP5 POP POP POP PUSH1 0x40 SWAP2 SWAP1 SWAP2 ADD CALLDATALOAD SWAP1 JUMP JUMPDEST PUSH1 0x0 DUP1 PUSH1 0x40 DUP4 DUP6 SUB SLT ISZERO PUSH2 0x2320 JUMPI DUP2 DUP3 REVERT JUMPDEST DUP3 CALLDATALOAD PUSH2 0x232B DUP2 PUSH2 0x2A2A JUMP JUMPDEST SWAP5 PUSH1 0x20 SWAP4 SWAP1 SWAP4 ADD CALLDATALOAD SWAP4 POP POP POP JUMP JUMPDEST PUSH1 0x0 DUP1 PUSH1 0x20 DUP4 DUP6 SUB SLT ISZERO PUSH2 0x234B JUMPI DUP2 DUP3 REVERT JUMPDEST DUP3 CALLDATALOAD PUSH8 0xFFFFFFFFFFFFFFFF DUP1 DUP3 GT ISZERO PUSH2 0x2362 JUMPI DUP4 DUP5 REVERT JUMPDEST DUP2 DUP6 ADD SWAP2 POP DUP6 PUSH1 0x1F DUP4 ADD SLT PUSH2 0x2375 JUMPI DUP4 DUP5 REVERT JUMPDEST DUP2 CALLDATALOAD DUP2 DUP2 GT ISZERO PUSH2 0x2383 JUMPI DUP5 DUP6 REVERT JUMPDEST DUP7 PUSH1 0x20 PUSH1 0x60 DUP4 MUL DUP6 ADD ADD GT ISZERO PUSH2 0x2397 JUMPI DUP5 DUP6 REVERT JUMPDEST PUSH1 0x20 SWAP3 SWAP1 SWAP3 ADD SWAP7 SWAP2 SWAP6 POP SWAP1 SWAP4 POP POP POP POP JUMP JUMPDEST PUSH1 0x0 PUSH1 0x20 DUP3 DUP5 SUB SLT ISZERO PUSH2 0x23BA JUMPI DUP1 DUP2 REVERT JUMPDEST DUP2 MLOAD DUP1 ISZERO ISZERO DUP2 EQ PUSH2 0x7EF JUMPI DUP2 DUP3 REVERT JUMPDEST PUSH1 0x0 DUP1 PUSH1 0x0 DUP1 PUSH1 0x0 DUP1 PUSH1 0x80 DUP8 DUP10 SUB SLT ISZERO PUSH2 0x23E1 JUMPI DUP2 DUP3 REVERT JUMPDEST DUP7 CALLDATALOAD PUSH2 0x23EC DUP2 PUSH2 0x2A2A JUMP JUMPDEST SWAP6 POP PUSH1 0x20 DUP8 ADD CALLDATALOAD PUSH8 0xFFFFFFFFFFFFFFFF DUP1 DUP3 GT ISZERO PUSH2 0x2408 JUMPI DUP4 DUP5 REVERT JUMPDEST PUSH2 0x2414 DUP11 DUP4 DUP12 ADD PUSH2 0x2233 JUMP JUMPDEST SWAP1 SWAP8 POP SWAP6 POP PUSH1 0x40 DUP10 ADD CALLDATALOAD SWAP2 POP DUP1 DUP3 GT ISZERO PUSH2 0x242C JUMPI DUP4 DUP5 REVERT JUMPDEST POP PUSH2 0x2439 DUP10 DUP3 DUP11 ADD PUSH2 0x2233 JUMP JUMPDEST SWAP1 SWAP5 POP SWAP3 POP POP PUSH1 0x60 DUP8 ADD CALLDATALOAD PUSH1 0xFF DUP2 AND DUP2 EQ PUSH2 0x2452 JUMPI DUP2 DUP3 REVERT JUMPDEST DUP1 SWAP2 POP POP SWAP3 SWAP6 POP SWAP3 SWAP6 POP SWAP3 SWAP6 JUMP JUMPDEST PUSH1 0x0 PUSH1 0x20 DUP3 DUP5 SUB SLT ISZERO PUSH2 0x2471 JUMPI DUP1 DUP2 REVERT JUMPDEST DUP2 CALLDATALOAD PUSH1 0x1 PUSH1 0x1 PUSH1 0x80 SHL SUB DUP2 AND DUP2 EQ PUSH2 0x7EF JUMPI DUP2 DUP3 REVERT JUMPDEST PUSH1 0x0 DUP1 PUSH1 0x0 DUP1 PUSH1 0x80 DUP6 DUP8 SUB SLT ISZERO PUSH2 0x249C JUMPI DUP4 DUP5 REVERT JUMPDEST DUP5 CALLDATALOAD SWAP4 POP PUSH1 0x20 DUP6 ADD CALLDATALOAD SWAP3 POP PUSH1 0x40 DUP6 ADD CALLDATALOAD PUSH2 0x24B5 DUP2 PUSH2 0x2A2A JUMP JUMPDEST SWAP4 SWAP7 SWAP3 SWAP6 POP SWAP3 SWAP4 PUSH1 0x60 ADD CALLDATALOAD SWAP3 POP POP JUMP JUMPDEST PUSH1 0x0 DUP3 MLOAD PUSH2 0x24D7 DUP2 DUP5 PUSH1 0x20 DUP8 ADD PUSH2 0x29FE JUMP JUMPDEST SWAP2 SWAP1 SWAP2 ADD SWAP3 SWAP2 POP POP JUMP JUMPDEST PUSH1 0x1 PUSH1 0x1 PUSH1 0xA0 SHL SUB SWAP2 SWAP1 SWAP2 AND DUP2 MSTORE PUSH1 0x20 ADD SWAP1 JUMP JUMPDEST PUSH1 0x1 PUSH1 0x1 PUSH1 0xA0 SHL SUB SWAP4 DUP5 AND DUP2 MSTORE SWAP2 SWAP1 SWAP3 AND PUSH1 0x20 DUP3 ADD MSTORE PUSH1 0x40 DUP2 ADD SWAP2 SWAP1 SWAP2 MSTORE PUSH1 0x60 ADD SWAP1 JUMP JUMPDEST PUSH1 0x1 PUSH1 0x1 PUSH1 0xA0 SHL SUB SWAP4 SWAP1 SWAP4 AND DUP4 MSTORE PUSH1 0x1 PUSH1 0x1 PUSH1 0x80 SHL SUB SWAP2 DUP3 AND PUSH1 0x20 DUP5 ADD MSTORE AND PUSH1 0x40 DUP3 ADD MSTORE PUSH1 0x60 ADD SWAP1 JUMP JUMPDEST PUSH1 0x1 PUSH1 0x1 PUSH1 0xA0 SHL SUB SWAP3 SWAP1 SWAP3 AND DUP3 MSTORE PUSH1 0x20 DUP3 ADD MSTORE PUSH1 0x40 ADD SWAP1 JUMP JUMPDEST SWAP1 ISZERO ISZERO DUP2 MSTORE PUSH1 0x20 ADD SWAP1 JUMP JUMPDEST PUSH1 0x0 PUSH1 0x20 DUP3 MSTORE DUP3 MLOAD DUP1 PUSH1 0x20 DUP5 ADD MSTORE PUSH2 0x2586 DUP2 PUSH1 0x40 DUP6 ADD PUSH1 0x20 DUP8 ADD PUSH2 0x29FE JUMP JUMPDEST PUSH1 0x1F ADD PUSH1 0x1F NOT AND SWAP2 SWAP1 SWAP2 ADD PUSH1 0x40 ADD SWAP3 SWAP2 POP POP JUMP JUMPDEST PUSH1 0x20 DUP1 DUP3 MSTORE PUSH1 0x23 SWAP1 DUP3 ADD MSTORE PUSH32 0x45524332303A207472616E7366657220746F20746865207A65726F2061646472 PUSH1 0x40 DUP3 ADD MSTORE PUSH3 0x657373 PUSH1 0xE8 SHL PUSH1 0x60 DUP3 ADD MSTORE PUSH1 0x80 ADD SWAP1 JUMP JUMPDEST PUSH1 0x20 DUP1 DUP3 MSTORE PUSH1 0x22 SWAP1 DUP3 ADD MSTORE PUSH32 0x45524332303A20617070726F766520746F20746865207A65726F206164647265 PUSH1 0x40 DUP3 ADD MSTORE PUSH2 0x7373 PUSH1 0xF0 SHL PUSH1 0x60 DUP3 ADD MSTORE PUSH1 0x80 ADD SWAP1 JUMP JUMPDEST PUSH1 0x20 DUP1 DUP3 MSTORE PUSH1 0x1B SWAP1 DUP3 ADD MSTORE PUSH32 0x536166654D6174683A206164646974696F6E206F766572666C6F770000000000 PUSH1 0x40 DUP3 ADD MSTORE PUSH1 0x60 ADD SWAP1 JUMP JUMPDEST PUSH1 0x20 DUP1 DUP3 MSTORE PUSH1 0x13 SWAP1 DUP3 ADD MSTORE PUSH19 0x1253959053125117D6915493D7D05353D55395 PUSH1 0x6A SHL PUSH1 0x40 DUP3 ADD MSTORE PUSH1 0x60 ADD SWAP1 JUMP JUMPDEST PUSH1 0x20 DUP1 DUP3 MSTORE DUP2 DUP2 ADD MSTORE PUSH32 0x5361666545524332303A206C6F772D6C6576656C2063616C6C206661696C6564 PUSH1 0x40 DUP3 ADD MSTORE PUSH1 0x60 ADD SWAP1 JUMP JUMPDEST PUSH1 0x20 DUP1 DUP3 MSTORE PUSH1 0x15 SWAP1 DUP3 ADD MSTORE PUSH21 0x24A729AAA32324A1A4A2A72A2FA1A7A7A62227ABA7 PUSH1 0x59 SHL PUSH1 0x40 DUP3 ADD MSTORE PUSH1 0x60 ADD SWAP1 JUMP JUMPDEST PUSH1 0x20 DUP1 DUP3 MSTORE PUSH1 0x21 SWAP1 DUP3 ADD MSTORE PUSH32 0x536166654D6174683A206D756C7469706C69636174696F6E206F766572666C6F PUSH1 0x40 DUP3 ADD MSTORE PUSH1 0x77 PUSH1 0xF8 SHL PUSH1 0x60 DUP3 ADD MSTORE PUSH1 0x80 ADD SWAP1 JUMP JUMPDEST PUSH1 0x20 DUP1 DUP3 MSTORE PUSH1 0x2E SWAP1 DUP3 ADD MSTORE PUSH32 0x436F6E747261637420696E7374616E63652068617320616C7265616479206265 PUSH1 0x40 DUP3 ADD MSTORE PUSH14 0x195B881A5B9A5D1A585B1A5E9959 PUSH1 0x92 SHL PUSH1 0x60 DUP3 ADD MSTORE PUSH1 0x80 ADD SWAP1 JUMP JUMPDEST PUSH1 0x20 DUP1 DUP3 MSTORE PUSH1 0x15 SWAP1 DUP3 ADD MSTORE PUSH21 0x27A7262CAFA2A6A4A9A9A4A7A72FA6A0A720A3A2A9 PUSH1 0x59 SHL PUSH1 0x40 DUP3 ADD MSTORE PUSH1 0x60 ADD SWAP1 JUMP JUMPDEST PUSH1 0x20 DUP1 DUP3 MSTORE PUSH1 0x21 SWAP1 DUP3 ADD MSTORE PUSH32 0x45524332303A206275726E2066726F6D20746865207A65726F20616464726573 PUSH1 0x40 DUP3 ADD MSTORE PUSH1 0x73 PUSH1 0xF8 SHL PUSH1 0x60 DUP3 ADD MSTORE PUSH1 0x80 ADD SWAP1 JUMP JUMPDEST PUSH1 0x20 DUP1 DUP3 MSTORE PUSH1 0x25 SWAP1 DUP3 ADD MSTORE PUSH32 0x45524332303A207472616E736665722066726F6D20746865207A65726F206164 PUSH1 0x40 DUP3 ADD MSTORE PUSH5 0x6472657373 PUSH1 0xD8 SHL PUSH1 0x60 DUP3 ADD MSTORE PUSH1 0x80 ADD SWAP1 JUMP JUMPDEST PUSH1 0x20 DUP1 DUP3 MSTORE PUSH1 0x17 SWAP1 DUP3 ADD MSTORE PUSH32 0x554E5354414B455F57494E444F575F46494E4953484544000000000000000000 PUSH1 0x40 DUP3 ADD MSTORE PUSH1 0x60 ADD SWAP1 JUMP JUMPDEST PUSH1 0x20 DUP1 DUP3 MSTORE PUSH1 0x24 SWAP1 DUP3 ADD MSTORE PUSH32 0x45524332303A20617070726F76652066726F6D20746865207A65726F20616464 PUSH1 0x40 DUP3 ADD MSTORE PUSH4 0x72657373 PUSH1 0xE0 SHL PUSH1 0x60 DUP3 ADD MSTORE PUSH1 0x80 ADD SWAP1 JUMP JUMPDEST PUSH1 0x20 DUP1 DUP3 MSTORE PUSH1 0x2A SWAP1 DUP3 ADD MSTORE PUSH32 0x5361666545524332303A204552433230206F7065726174696F6E20646964206E PUSH1 0x40 DUP3 ADD MSTORE PUSH10 0x1BDD081CDD58D8D95959 PUSH1 0xB2 SHL PUSH1 0x60 DUP3 ADD MSTORE PUSH1 0x80 ADD SWAP1 JUMP JUMPDEST PUSH1 0x20 DUP1 DUP3 MSTORE PUSH1 0x1B SWAP1 DUP3 ADD MSTORE PUSH32 0x494E56414C49445F42414C414E43455F4F4E5F434F4F4C444F574E0000000000 PUSH1 0x40 DUP3 ADD MSTORE PUSH1 0x60 ADD SWAP1 JUMP JUMPDEST PUSH1 0x20 DUP1 DUP3 MSTORE PUSH1 0x1F SWAP1 DUP3 ADD MSTORE PUSH32 0x5361666545524332303A2063616C6C20746F206E6F6E2D636F6E747261637400 PUSH1 0x40 DUP3 ADD MSTORE PUSH1 0x60 ADD SWAP1 JUMP JUMPDEST PUSH1 0x20 DUP1 DUP3 MSTORE PUSH1 0x1F SWAP1 DUP3 ADD MSTORE PUSH32 0x45524332303A206D696E7420746F20746865207A65726F206164647265737300 PUSH1 0x40 DUP3 ADD MSTORE PUSH1 0x60 ADD SWAP1 JUMP JUMPDEST PUSH1 0x1 PUSH1 0x1 PUSH1 0x80 SHL SUB SWAP2 SWAP1 SWAP2 AND DUP2 MSTORE PUSH1 0x20 ADD SWAP1 JUMP JUMPDEST PUSH1 0x1 PUSH1 0x1 PUSH1 0x80 SHL SUB SWAP3 DUP4 AND DUP2 MSTORE SWAP2 AND PUSH1 0x20 DUP3 ADD MSTORE PUSH1 0x40 ADD SWAP1 JUMP JUMPDEST PUSH1 0x1 PUSH1 0x1 PUSH1 0x80 SHL SUB SWAP4 DUP5 AND DUP2 MSTORE SWAP2 SWAP1 SWAP3 AND PUSH1 0x20 DUP3 ADD MSTORE PUSH1 0x40 DUP2 ADD SWAP2 SWAP1 SWAP2 MSTORE PUSH1 0x60 ADD SWAP1 JUMP JUMPDEST SWAP1 DUP2 MSTORE PUSH1 0x20 ADD SWAP1 JUMP JUMPDEST PUSH1 0xFF SWAP2 SWAP1 SWAP2 AND DUP2 MSTORE PUSH1 0x20 ADD SWAP1 JUMP JUMPDEST PUSH1 0x0 JUMPDEST DUP4 DUP2 LT ISZERO PUSH2 0x2A19 JUMPI DUP2 DUP2 ADD MLOAD DUP4 DUP3 ADD MSTORE PUSH1 0x20 ADD PUSH2 0x2A01 JUMP JUMPDEST DUP4 DUP2 GT ISZERO PUSH2 0x173B JUMPI POP POP PUSH1 0x0 SWAP2 ADD MSTORE JUMP JUMPDEST PUSH1 0x1 PUSH1 0x1 PUSH1 0xA0 SHL SUB DUP2 AND DUP2 EQ PUSH2 0x2A3F JUMPI PUSH1 0x0 DUP1 REVERT JUMPDEST POP JUMP INVALID GASLIMIT MSTORE NUMBER ORIGIN ADDRESS GASPRICE KECCAK256 PUSH3 0x75726E KECCAK256 PUSH2 0x6D6F PUSH22 0x6E7420657863656564732062616C616E636545524332 ADDRESS GASPRICE KECCAK256 PUSH21 0x72616E7366657220616D6F756E7420657863656564 PUSH20 0x2062616C616E636545524332303A207472616E73 PUSH7 0x657220616D6F75 PUSH15 0x74206578636565647320616C6C6F77 PUSH2 0x6E63 PUSH6 0x45524332303A KECCAK256 PUSH5 0x6563726561 PUSH20 0x656420616C6C6F77616E63652062656C6F77207A PUSH6 0x726FA2646970 PUSH7 0x7358221220D3BF 0xFB 0xB5 0xDF EXTCODEHASH 0xFC 0xD2 0x49 0xD2 DUP4 DUP2 PUSH28 0xA6B4E0CA1F563E96D6C8188E8B8F887DCB794A64736F6C634300060C STOP CALLER "
        },
        "methodIdentifiers": {
          "COOLDOWN_SECONDS()": "72b49d63",
          "DISTRIBUTION_END()": "919cd40f",
          "EMISSION_MANAGER()": "cbcbb507",
          "PRECISION()": "aaf5eb68",
          "REVISION()": "dde43cba",
          "REWARDS_VAULT()": "946776cd",
          "REWARD_TOKEN()": "99248ea7",
          "STAKED_TOKEN()": "312f6b83",
          "UNSTAKE_WINDOW()": "359c4a96",
          "_bMXXGovernance()": "ad811840",
          "_countsSnapshots(address)": "8779588c",
          "_snapshots(address,uint256)": "2acbf823",
          "allowance(address,address)": "dd62ed3e",
          "approve(address,uint256)": "095ea7b3",
          "assets(address)": "f11b8188",
          "balanceOf(address)": "70a08231",
          "claimRewards(address,uint256)": "9a99b4f0",
          "configureAssets((uint128,uint256,address)[])": "b2a5dbfa",
          "cooldown()": "787a08a6",
          "decimals()": "313ce567",
          "decreaseAllowance(address,uint256)": "a457c2d7",
          "getNextCooldownTimestamp(uint256,uint256,address,uint256)": "f1cc432a",
          "getTotalRewardsBalance(address)": "8dbefee2",
          "getUserAssetData(address,address)": "3373ee4c",
          "increaseAllowance(address,uint256)": "39509351",
          "initialize(address,string,string,uint8)": "f6d2ee86",
          "name()": "06fdde03",
          "redeem(address,uint256)": "1e9a6950",
          "stake(address,uint256)": "adc9772e",
          "stakerRewardsToClaim(address)": "7e90d7ef",
          "stakersCooldowns(address)": "091030c3",
          "symbol()": "95d89b41",
          "totalSupply()": "18160ddd",
          "transfer(address,uint256)": "a9059cbb",
          "transferFrom(address,address,uint256)": "23b872dd"
        }
      }
    }
  }
}