{
  "contracts/mocks/BTokenMock.sol": {
    "BTokenMock": {
      "abi": [
        {
          "inputs": [
            {
              "internalType": "contract IbMXXIncentivesController",
              "name": "bic",
              "type": "address"
            }
          ],
          "stateMutability": "nonpayable",
          "type": "constructor"
        },
        {
          "anonymous": false,
          "inputs": [
            {
              "indexed": true,
              "internalType": "address",
              "name": "asset",
              "type": "address"
            },
            {
              "indexed": false,
              "internalType": "uint256",
              "name": "emission",
              "type": "uint256"
            }
          ],
          "name": "AssetConfigUpdated",
          "type": "event"
        },
        {
          "anonymous": false,
          "inputs": [
            {
              "indexed": true,
              "internalType": "address",
              "name": "asset",
              "type": "address"
            },
            {
              "indexed": false,
              "internalType": "uint256",
              "name": "index",
              "type": "uint256"
            }
          ],
          "name": "AssetIndexUpdated",
          "type": "event"
        },
        {
          "anonymous": false,
          "inputs": [
            {
              "indexed": true,
              "internalType": "address",
              "name": "user",
              "type": "address"
            },
            {
              "indexed": false,
              "internalType": "uint256",
              "name": "amount",
              "type": "uint256"
            }
          ],
          "name": "RewardsAccrued",
          "type": "event"
        },
        {
          "anonymous": false,
          "inputs": [
            {
              "indexed": true,
              "internalType": "address",
              "name": "user",
              "type": "address"
            },
            {
              "indexed": true,
              "internalType": "address",
              "name": "asset",
              "type": "address"
            },
            {
              "indexed": false,
              "internalType": "uint256",
              "name": "index",
              "type": "uint256"
            }
          ],
          "name": "UserIndexUpdated",
          "type": "event"
        },
        {
          "inputs": [],
          "name": "_bic",
          "outputs": [
            {
              "internalType": "contract IbMXXIncentivesController",
              "name": "",
              "type": "address"
            }
          ],
          "stateMutability": "view",
          "type": "function"
        },
        {
          "inputs": [],
          "name": "cleanUserState",
          "outputs": [],
          "stateMutability": "nonpayable",
          "type": "function"
        },
        {
          "inputs": [
            {
              "internalType": "address",
              "name": "user",
              "type": "address"
            }
          ],
          "name": "getScaledUserBalanceAndSupply",
          "outputs": [
            {
              "internalType": "uint256",
              "name": "",
              "type": "uint256"
            },
            {
              "internalType": "uint256",
              "name": "",
              "type": "uint256"
            }
          ],
          "stateMutability": "view",
          "type": "function"
        },
        {
          "inputs": [
            {
              "internalType": "address",
              "name": "user",
              "type": "address"
            },
            {
              "internalType": "uint256",
              "name": "userBalance",
              "type": "uint256"
            },
            {
              "internalType": "uint256",
              "name": "totalSupply",
              "type": "uint256"
            }
          ],
          "name": "handleActionOnBic",
          "outputs": [],
          "stateMutability": "nonpayable",
          "type": "function"
        },
        {
          "inputs": [
            {
              "internalType": "uint256",
              "name": "userBalance",
              "type": "uint256"
            },
            {
              "internalType": "uint256",
              "name": "totalSupply",
              "type": "uint256"
            }
          ],
          "name": "setUserBalanceAndSupply",
          "outputs": [],
          "stateMutability": "nonpayable",
          "type": "function"
        }
      ],
      "evm": {
        "bytecode": {
          "linkReferences": {},
          "object": "608060405234801561001057600080fd5b5060405161030438038061030483398101604081905261002f91610054565b600080546001600160a01b0319166001600160a01b0392909216919091179055610082565b600060208284031215610065578081fd5b81516001600160a01b038116811461007b578182fd5b9392505050565b610273806100916000396000f3fe608060405234801561001057600080fd5b50600436106100575760003560e01c80630afbcdc91461005c578063b39944ba14610086578063cb06001714610090578063d71222ac146100a3578063f794ca51146100b8575b600080fd5b61006f61006a366004610184565b6100cb565b60405161007d92919061022f565b60405180910390f35b61008e6100d6565b005b61008e61009e3660046101a6565b6100e2565b6100ab61014d565b60405161007d919061021b565b61008e6100c63660046101d9565b61015c565b600154600254915091565b60006001819055600255565b6000546040516318c39f1760e11b81526001600160a01b03909116906331873e2e90610116908690869086906004016101fa565b600060405180830381600087803b15801561013057600080fd5b505af1158015610144573d6000803e3d6000fd5b50505050505050565b6000546001600160a01b031681565b600191909155600255565b80356001600160a01b038116811461017e57600080fd5b92915050565b600060208284031215610195578081fd5b61019f8383610167565b9392505050565b6000806000606084860312156101ba578182fd5b6101c48585610167565b95602085013595506040909401359392505050565b600080604083850312156101eb578182fd5b50508035926020909101359150565b6001600160a01b039390931683526020830191909152604082015260600190565b6001600160a01b0391909116815260200190565b91825260208201526040019056fea264697066735822122068948ffd614b3cf17f80962c93c85eb398683f5f85d5f89b53de3a81d3ed44f964736f6c634300060c0033",
          "opcodes": "PUSH1 0x80 PUSH1 0x40 MSTORE CALLVALUE DUP1 ISZERO PUSH2 0x10 JUMPI PUSH1 0x0 DUP1 REVERT JUMPDEST POP PUSH1 0x40 MLOAD PUSH2 0x304 CODESIZE SUB DUP1 PUSH2 0x304 DUP4 CODECOPY DUP2 ADD PUSH1 0x40 DUP2 SWAP1 MSTORE PUSH2 0x2F SWAP2 PUSH2 0x54 JUMP JUMPDEST PUSH1 0x0 DUP1 SLOAD PUSH1 0x1 PUSH1 0x1 PUSH1 0xA0 SHL SUB NOT AND PUSH1 0x1 PUSH1 0x1 PUSH1 0xA0 SHL SUB SWAP3 SWAP1 SWAP3 AND SWAP2 SWAP1 SWAP2 OR SWAP1 SSTORE PUSH2 0x82 JUMP JUMPDEST PUSH1 0x0 PUSH1 0x20 DUP3 DUP5 SUB SLT ISZERO PUSH2 0x65 JUMPI DUP1 DUP2 REVERT JUMPDEST DUP2 MLOAD PUSH1 0x1 PUSH1 0x1 PUSH1 0xA0 SHL SUB DUP2 AND DUP2 EQ PUSH2 0x7B JUMPI DUP2 DUP3 REVERT JUMPDEST SWAP4 SWAP3 POP POP POP JUMP JUMPDEST PUSH2 0x273 DUP1 PUSH2 0x91 PUSH1 0x0 CODECOPY PUSH1 0x0 RETURN INVALID PUSH1 0x80 PUSH1 0x40 MSTORE CALLVALUE DUP1 ISZERO PUSH2 0x10 JUMPI PUSH1 0x0 DUP1 REVERT JUMPDEST POP PUSH1 0x4 CALLDATASIZE LT PUSH2 0x57 JUMPI PUSH1 0x0 CALLDATALOAD PUSH1 0xE0 SHR DUP1 PUSH4 0xAFBCDC9 EQ PUSH2 0x5C JUMPI DUP1 PUSH4 0xB39944BA EQ PUSH2 0x86 JUMPI DUP1 PUSH4 0xCB060017 EQ PUSH2 0x90 JUMPI DUP1 PUSH4 0xD71222AC EQ PUSH2 0xA3 JUMPI DUP1 PUSH4 0xF794CA51 EQ PUSH2 0xB8 JUMPI JUMPDEST PUSH1 0x0 DUP1 REVERT JUMPDEST PUSH2 0x6F PUSH2 0x6A CALLDATASIZE PUSH1 0x4 PUSH2 0x184 JUMP JUMPDEST PUSH2 0xCB JUMP JUMPDEST PUSH1 0x40 MLOAD PUSH2 0x7D SWAP3 SWAP2 SWAP1 PUSH2 0x22F JUMP JUMPDEST PUSH1 0x40 MLOAD DUP1 SWAP2 SUB SWAP1 RETURN JUMPDEST PUSH2 0x8E PUSH2 0xD6 JUMP JUMPDEST STOP JUMPDEST PUSH2 0x8E PUSH2 0x9E CALLDATASIZE PUSH1 0x4 PUSH2 0x1A6 JUMP JUMPDEST PUSH2 0xE2 JUMP JUMPDEST PUSH2 0xAB PUSH2 0x14D JUMP JUMPDEST PUSH1 0x40 MLOAD PUSH2 0x7D SWAP2 SWAP1 PUSH2 0x21B JUMP JUMPDEST PUSH2 0x8E PUSH2 0xC6 CALLDATASIZE PUSH1 0x4 PUSH2 0x1D9 JUMP JUMPDEST PUSH2 0x15C JUMP JUMPDEST PUSH1 0x1 SLOAD PUSH1 0x2 SLOAD SWAP2 POP SWAP2 JUMP JUMPDEST PUSH1 0x0 PUSH1 0x1 DUP2 SWAP1 SSTORE PUSH1 0x2 SSTORE JUMP JUMPDEST PUSH1 0x0 SLOAD PUSH1 0x40 MLOAD PUSH4 0x18C39F17 PUSH1 0xE1 SHL DUP2 MSTORE PUSH1 0x1 PUSH1 0x1 PUSH1 0xA0 SHL SUB SWAP1 SWAP2 AND SWAP1 PUSH4 0x31873E2E SWAP1 PUSH2 0x116 SWAP1 DUP7 SWAP1 DUP7 SWAP1 DUP7 SWAP1 PUSH1 0x4 ADD PUSH2 0x1FA JUMP JUMPDEST PUSH1 0x0 PUSH1 0x40 MLOAD DUP1 DUP4 SUB DUP2 PUSH1 0x0 DUP8 DUP1 EXTCODESIZE ISZERO DUP1 ISZERO PUSH2 0x130 JUMPI PUSH1 0x0 DUP1 REVERT JUMPDEST POP GAS CALL ISZERO DUP1 ISZERO PUSH2 0x144 JUMPI RETURNDATASIZE PUSH1 0x0 DUP1 RETURNDATACOPY RETURNDATASIZE PUSH1 0x0 REVERT JUMPDEST POP POP POP POP POP POP POP JUMP JUMPDEST PUSH1 0x0 SLOAD PUSH1 0x1 PUSH1 0x1 PUSH1 0xA0 SHL SUB AND DUP2 JUMP JUMPDEST PUSH1 0x1 SWAP2 SWAP1 SWAP2 SSTORE PUSH1 0x2 SSTORE JUMP JUMPDEST DUP1 CALLDATALOAD PUSH1 0x1 PUSH1 0x1 PUSH1 0xA0 SHL SUB DUP2 AND DUP2 EQ PUSH2 0x17E JUMPI PUSH1 0x0 DUP1 REVERT JUMPDEST SWAP3 SWAP2 POP POP JUMP JUMPDEST PUSH1 0x0 PUSH1 0x20 DUP3 DUP5 SUB SLT ISZERO PUSH2 0x195 JUMPI DUP1 DUP2 REVERT JUMPDEST PUSH2 0x19F DUP4 DUP4 PUSH2 0x167 JUMP JUMPDEST SWAP4 SWAP3 POP POP POP JUMP JUMPDEST PUSH1 0x0 DUP1 PUSH1 0x0 PUSH1 0x60 DUP5 DUP7 SUB SLT ISZERO PUSH2 0x1BA JUMPI DUP2 DUP3 REVERT JUMPDEST PUSH2 0x1C4 DUP6 DUP6 PUSH2 0x167 JUMP JUMPDEST SWAP6 PUSH1 0x20 DUP6 ADD CALLDATALOAD SWAP6 POP PUSH1 0x40 SWAP1 SWAP5 ADD CALLDATALOAD SWAP4 SWAP3 POP POP POP JUMP JUMPDEST PUSH1 0x0 DUP1 PUSH1 0x40 DUP4 DUP6 SUB SLT ISZERO PUSH2 0x1EB JUMPI DUP2 DUP3 REVERT JUMPDEST POP POP DUP1 CALLDATALOAD SWAP3 PUSH1 0x20 SWAP1 SWAP2 ADD CALLDATALOAD SWAP2 POP JUMP JUMPDEST PUSH1 0x1 PUSH1 0x1 PUSH1 0xA0 SHL SUB SWAP4 SWAP1 SWAP4 AND DUP4 MSTORE PUSH1 0x20 DUP4 ADD SWAP2 SWAP1 SWAP2 MSTORE PUSH1 0x40 DUP3 ADD MSTORE PUSH1 0x60 ADD SWAP1 JUMP JUMPDEST PUSH1 0x1 PUSH1 0x1 PUSH1 0xA0 SHL SUB SWAP2 SWAP1 SWAP2 AND DUP2 MSTORE PUSH1 0x20 ADD SWAP1 JUMP JUMPDEST SWAP2 DUP3 MSTORE PUSH1 0x20 DUP3 ADD MSTORE PUSH1 0x40 ADD SWAP1 JUMP INVALID LOG2 PUSH5 0x6970667358 0x22 SLT KECCAK256 PUSH9 0x948FFD614B3CF17F80 SWAP7 0x2C SWAP4 0xC8 0x5E 0xB3 SWAP9 PUSH9 0x3F5F85D5F89B53DE3A DUP2 0xD3 0xED DIFFICULTY 0xF9 PUSH5 0x736F6C6343 STOP MOD 0xC STOP CALLER "
        },
        "methodIdentifiers": {
          "_bic()": "d71222ac",
          "cleanUserState()": "b39944ba",
          "getScaledUserBalanceAndSupply(address)": "0afbcdc9",
          "handleActionOnBic(address,uint256,uint256)": "cb060017",
          "setUserBalanceAndSupply(uint256,uint256)": "f794ca51"
        }
      }
    }
  }
}