{
  "contracts/stake/bMXXDistributionManager.sol": {
    "bMXXDistributionManager": {
      "abi": [
        {
          "inputs": [
            {
              "internalType": "address",
              "name": "emissionManager",
              "type": "address"
            },
            {
              "internalType": "uint256",
              "name": "distributionDuration",
              "type": "uint256"
            }
          ],
          "stateMutability": "nonpayable",
          "type": "constructor"
        },
        {
          "anonymous": false,
          "inputs": [
            {
              "indexed": true,
              "internalType": "address",
              "name": "asset",
              "type": "address"
            },
            {
              "indexed": false,
              "internalType": "uint256",
              "name": "emission",
              "type": "uint256"
            }
          ],
          "name": "AssetConfigUpdated",
          "type": "event"
        },
        {
          "anonymous": false,
          "inputs": [
            {
              "indexed": true,
              "internalType": "address",
              "name": "asset",
              "type": "address"
            },
            {
              "indexed": false,
              "internalType": "uint256",
              "name": "index",
              "type": "uint256"
            }
          ],
          "name": "AssetIndexUpdated",
          "type": "event"
        },
        {
          "anonymous": false,
          "inputs": [
            {
              "indexed": true,
              "internalType": "address",
              "name": "user",
              "type": "address"
            },
            {
              "indexed": true,
              "internalType": "address",
              "name": "asset",
              "type": "address"
            },
            {
              "indexed": false,
              "internalType": "uint256",
              "name": "index",
              "type": "uint256"
            }
          ],
          "name": "UserIndexUpdated",
          "type": "event"
        },
        {
          "inputs": [],
          "name": "DISTRIBUTION_END",
          "outputs": [
            {
              "internalType": "uint256",
              "name": "",
              "type": "uint256"
            }
          ],
          "stateMutability": "view",
          "type": "function"
        },
        {
          "inputs": [],
          "name": "EMISSION_MANAGER",
          "outputs": [
            {
              "internalType": "address",
              "name": "",
              "type": "address"
            }
          ],
          "stateMutability": "view",
          "type": "function"
        },
        {
          "inputs": [],
          "name": "PRECISION",
          "outputs": [
            {
              "internalType": "uint8",
              "name": "",
              "type": "uint8"
            }
          ],
          "stateMutability": "view",
          "type": "function"
        },
        {
          "inputs": [
            {
              "internalType": "address",
              "name": "",
              "type": "address"
            }
          ],
          "name": "assets",
          "outputs": [
            {
              "internalType": "uint128",
              "name": "emissionPerSecond",
              "type": "uint128"
            },
            {
              "internalType": "uint128",
              "name": "lastUpdateTimestamp",
              "type": "uint128"
            },
            {
              "internalType": "uint256",
              "name": "index",
              "type": "uint256"
            }
          ],
          "stateMutability": "view",
          "type": "function"
        },
        {
          "inputs": [
            {
              "components": [
                {
                  "internalType": "uint128",
                  "name": "emissionPerSecond",
                  "type": "uint128"
                },
                {
                  "internalType": "uint256",
                  "name": "totalStaked",
                  "type": "uint256"
                },
                {
                  "internalType": "address",
                  "name": "underlyingAsset",
                  "type": "address"
                }
              ],
              "internalType": "struct DistributionTypes.AssetConfigInput[]",
              "name": "assetsConfigInput",
              "type": "tuple[]"
            }
          ],
          "name": "configureAssets",
          "outputs": [],
          "stateMutability": "nonpayable",
          "type": "function"
        },
        {
          "inputs": [
            {
              "internalType": "address",
              "name": "user",
              "type": "address"
            },
            {
              "internalType": "address",
              "name": "asset",
              "type": "address"
            }
          ],
          "name": "getUserAssetData",
          "outputs": [
            {
              "internalType": "uint256",
              "name": "",
              "type": "uint256"
            }
          ],
          "stateMutability": "view",
          "type": "function"
        }
      ],
      "evm": {
        "bytecode": {
          "linkReferences": {},
          "object": "60c060405234801561001057600080fd5b50604051610a45380380610a4583398101604081905261002f91610094565b610046814261005f60201b6103671790919060201c565b6080525060601b6001600160601b03191660a052610103565b60008282018381101561008d5760405162461bcd60e51b8152600401610084906100cc565b60405180910390fd5b9392505050565b600080604083850312156100a6578182fd5b82516001600160a01b03811681146100bc578283fd5b6020939093015192949293505050565b6020808252601b908201527f536166654d6174683a206164646974696f6e206f766572666c6f770000000000604082015260600190565b60805160a05160601c61090861013d6000398061015c528061031752508061012a528061047852806104b452806104e152506109086000f3fe608060405234801561001057600080fd5b50600436106100625760003560e01c80633373ee4c14610067578063919cd40f14610090578063aaf5eb6814610098578063b2a5dbfa146100ad578063cbcbb507146100c2578063f11b8188146100d7575b600080fd5b61007a6100753660046106aa565b6100f9565b60405161008791906108bb565b60405180910390f35b61007a610128565b6100a061014c565b60405161008791906108c4565b6100c06100bb3660046106de565b610151565b005b6100ca610315565b6040516100879190610775565b6100ea6100e536600461068f565b610339565b60405161008793929190610897565b6001600160a01b0380821660009081526020818152604080832093861683526002909301905220545b92915050565b7f000000000000000000000000000000000000000000000000000000000000000081565b601281565b336001600160a01b037f000000000000000000000000000000000000000000000000000000000000000016146101a25760405162461bcd60e51b815260040161019990610854565b60405180910390fd5b60005b818110156103105760008060008585858181106101be57fe5b90506060020160400160208101906101d6919061068f565b6001600160a01b03166001600160a01b03168152602001908152602001600020905061023b84848481811061020757fe5b905060600201604001602081019061021f919061068f565b8286868681811061022c57fe5b90506060020160200135610393565b5083838381811061024857fe5b61025e926020606090920201908101915061074e565b81546fffffffffffffffffffffffffffffffff19166001600160801b039190911617815583838381811061028e57fe5b90506060020160400160208101906102a6919061068f565b6001600160a01b03167f87fa03892a0556cb6b8f97e6d533a150d4d55fcbf275fff5fa003fa636bcc7fa8585858181106102dc57fe5b6102f2926020606090920201908101915061074e565b6040516102ff9190610883565b60405180910390a2506001016101a5565b505050565b7f000000000000000000000000000000000000000000000000000000000000000081565b600060208190529081526040902080546001909101546001600160801b0380831692600160801b9004169083565b60008282018381101561038c5760405162461bcd60e51b8152600401610199906107dc565b9392505050565b6001820154825460009190600160801b90046001600160801b0316428114156103be5750905061038c565b84546000906103d99084906001600160801b03168488610450565b905082811461042d57808660010181905550866001600160a01b03167f5777ca300dfe5bead41006fbce4389794dbc0ed8d6cccebfaf94630aa04184bc8260405161042491906108bb565b60405180910390a25b85546001600160801b03428116600160801b029116178655925050509392505050565b600083158061045d575081155b80610470575042836001600160801b0316145b806104a457507f0000000000000000000000000000000000000000000000000000000000000000836001600160801b031610155b156104b057508361054f565b60007f000000000000000000000000000000000000000000000000000000000000000042116104df5742610501565b7f00000000000000000000000000000000000000000000000000000000000000005b90506000610518826001600160801b038716610557565b905061054a876105448661053e670de0b6b3a76400006105388c88610599565b90610599565b906105d3565b90610367565b925050505b949350505050565b600061038c83836040518060400160405280601e81526020017f536166654d6174683a207375627472616374696f6e206f766572666c6f770000815250610615565b6000826105a857506000610122565b828202828482816105b557fe5b041461038c5760405162461bcd60e51b815260040161019990610813565b600061038c83836040518060400160405280601a81526020017f536166654d6174683a206469766973696f6e206279207a65726f000000000000815250610641565b600081848411156106395760405162461bcd60e51b81526004016101999190610789565b505050900390565b600081836106625760405162461bcd60e51b81526004016101999190610789565b50600083858161066e57fe5b0495945050505050565b80356001600160a01b038116811461012257600080fd5b6000602082840312156106a0578081fd5b61038c8383610678565b600080604083850312156106bc578081fd5b6106c68484610678565b91506106d58460208501610678565b90509250929050565b600080602083850312156106f0578182fd5b823567ffffffffffffffff80821115610707578384fd5b818501915085601f83011261071a578384fd5b813581811115610728578485fd5b86602060608302850101111561073c578485fd5b60209290920196919550909350505050565b60006020828403121561075f578081fd5b81356001600160801b038116811461038c578182fd5b6001600160a01b0391909116815260200190565b6000602080835283518082850152825b818110156107b557858101830151858201604001528201610799565b818111156107c65783604083870101525b50601f01601f1916929092016040019392505050565b6020808252601b908201527f536166654d6174683a206164646974696f6e206f766572666c6f770000000000604082015260600190565b60208082526021908201527f536166654d6174683a206d756c7469706c69636174696f6e206f766572666c6f6040820152607760f81b606082015260800190565b60208082526015908201527427a7262cafa2a6a4a9a9a4a7a72fa6a0a720a3a2a960591b604082015260600190565b6001600160801b0391909116815260200190565b6001600160801b039384168152919092166020820152604081019190915260600190565b90815260200190565b60ff9190911681526020019056fea26469706673582212209dba283682ae7554a4a23507a99cf0cb3e73dfe3c33ea20694e2a3288149c39c64736f6c634300060c0033",
          "opcodes": "PUSH1 0xC0 PUSH1 0x40 MSTORE CALLVALUE DUP1 ISZERO PUSH2 0x10 JUMPI PUSH1 0x0 DUP1 REVERT JUMPDEST POP PUSH1 0x40 MLOAD PUSH2 0xA45 CODESIZE SUB DUP1 PUSH2 0xA45 DUP4 CODECOPY DUP2 ADD PUSH1 0x40 DUP2 SWAP1 MSTORE PUSH2 0x2F SWAP2 PUSH2 0x94 JUMP JUMPDEST PUSH2 0x46 DUP2 TIMESTAMP PUSH2 0x5F PUSH1 0x20 SHL PUSH2 0x367 OR SWAP1 SWAP2 SWAP1 PUSH1 0x20 SHR JUMP JUMPDEST PUSH1 0x80 MSTORE POP PUSH1 0x60 SHL PUSH1 0x1 PUSH1 0x1 PUSH1 0x60 SHL SUB NOT AND PUSH1 0xA0 MSTORE PUSH2 0x103 JUMP JUMPDEST PUSH1 0x0 DUP3 DUP3 ADD DUP4 DUP2 LT ISZERO PUSH2 0x8D JUMPI PUSH1 0x40 MLOAD PUSH3 0x461BCD PUSH1 0xE5 SHL DUP2 MSTORE PUSH1 0x4 ADD PUSH2 0x84 SWAP1 PUSH2 0xCC JUMP JUMPDEST PUSH1 0x40 MLOAD DUP1 SWAP2 SUB SWAP1 REVERT JUMPDEST SWAP4 SWAP3 POP POP POP JUMP JUMPDEST PUSH1 0x0 DUP1 PUSH1 0x40 DUP4 DUP6 SUB SLT ISZERO PUSH2 0xA6 JUMPI DUP2 DUP3 REVERT JUMPDEST DUP3 MLOAD PUSH1 0x1 PUSH1 0x1 PUSH1 0xA0 SHL SUB DUP2 AND DUP2 EQ PUSH2 0xBC JUMPI DUP3 DUP4 REVERT JUMPDEST PUSH1 0x20 SWAP4 SWAP1 SWAP4 ADD MLOAD SWAP3 SWAP5 SWAP3 SWAP4 POP POP POP JUMP JUMPDEST PUSH1 0x20 DUP1 DUP3 MSTORE PUSH1 0x1B SWAP1 DUP3 ADD MSTORE PUSH32 0x536166654D6174683A206164646974696F6E206F766572666C6F770000000000 PUSH1 0x40 DUP3 ADD MSTORE PUSH1 0x60 ADD SWAP1 JUMP JUMPDEST PUSH1 0x80 MLOAD PUSH1 0xA0 MLOAD PUSH1 0x60 SHR PUSH2 0x908 PUSH2 0x13D PUSH1 0x0 CODECOPY DUP1 PUSH2 0x15C MSTORE DUP1 PUSH2 0x317 MSTORE POP DUP1 PUSH2 0x12A MSTORE DUP1 PUSH2 0x478 MSTORE DUP1 PUSH2 0x4B4 MSTORE DUP1 PUSH2 0x4E1 MSTORE POP PUSH2 0x908 PUSH1 0x0 RETURN INVALID PUSH1 0x80 PUSH1 0x40 MSTORE CALLVALUE DUP1 ISZERO PUSH2 0x10 JUMPI PUSH1 0x0 DUP1 REVERT JUMPDEST POP PUSH1 0x4 CALLDATASIZE LT PUSH2 0x62 JUMPI PUSH1 0x0 CALLDATALOAD PUSH1 0xE0 SHR DUP1 PUSH4 0x3373EE4C EQ PUSH2 0x67 JUMPI DUP1 PUSH4 0x919CD40F EQ PUSH2 0x90 JUMPI DUP1 PUSH4 0xAAF5EB68 EQ PUSH2 0x98 JUMPI DUP1 PUSH4 0xB2A5DBFA EQ PUSH2 0xAD JUMPI DUP1 PUSH4 0xCBCBB507 EQ PUSH2 0xC2 JUMPI DUP1 PUSH4 0xF11B8188 EQ PUSH2 0xD7 JUMPI JUMPDEST PUSH1 0x0 DUP1 REVERT JUMPDEST PUSH2 0x7A PUSH2 0x75 CALLDATASIZE PUSH1 0x4 PUSH2 0x6AA JUMP JUMPDEST PUSH2 0xF9 JUMP JUMPDEST PUSH1 0x40 MLOAD PUSH2 0x87 SWAP2 SWAP1 PUSH2 0x8BB JUMP JUMPDEST PUSH1 0x40 MLOAD DUP1 SWAP2 SUB SWAP1 RETURN JUMPDEST PUSH2 0x7A PUSH2 0x128 JUMP JUMPDEST PUSH2 0xA0 PUSH2 0x14C JUMP JUMPDEST PUSH1 0x40 MLOAD PUSH2 0x87 SWAP2 SWAP1 PUSH2 0x8C4 JUMP JUMPDEST PUSH2 0xC0 PUSH2 0xBB CALLDATASIZE PUSH1 0x4 PUSH2 0x6DE JUMP JUMPDEST PUSH2 0x151 JUMP JUMPDEST STOP JUMPDEST PUSH2 0xCA PUSH2 0x315 JUMP JUMPDEST PUSH1 0x40 MLOAD PUSH2 0x87 SWAP2 SWAP1 PUSH2 0x775 JUMP JUMPDEST PUSH2 0xEA PUSH2 0xE5 CALLDATASIZE PUSH1 0x4 PUSH2 0x68F JUMP JUMPDEST PUSH2 0x339 JUMP JUMPDEST PUSH1 0x40 MLOAD PUSH2 0x87 SWAP4 SWAP3 SWAP2 SWAP1 PUSH2 0x897 JUMP JUMPDEST PUSH1 0x1 PUSH1 0x1 PUSH1 0xA0 SHL SUB DUP1 DUP3 AND PUSH1 0x0 SWAP1 DUP2 MSTORE PUSH1 0x20 DUP2 DUP2 MSTORE PUSH1 0x40 DUP1 DUP4 KECCAK256 SWAP4 DUP7 AND DUP4 MSTORE PUSH1 0x2 SWAP1 SWAP4 ADD SWAP1 MSTORE KECCAK256 SLOAD JUMPDEST SWAP3 SWAP2 POP POP JUMP JUMPDEST PUSH32 0x0 DUP2 JUMP JUMPDEST PUSH1 0x12 DUP2 JUMP JUMPDEST CALLER PUSH1 0x1 PUSH1 0x1 PUSH1 0xA0 SHL SUB PUSH32 0x0 AND EQ PUSH2 0x1A2 JUMPI PUSH1 0x40 MLOAD PUSH3 0x461BCD PUSH1 0xE5 SHL DUP2 MSTORE PUSH1 0x4 ADD PUSH2 0x199 SWAP1 PUSH2 0x854 JUMP JUMPDEST PUSH1 0x40 MLOAD DUP1 SWAP2 SUB SWAP1 REVERT JUMPDEST PUSH1 0x0 JUMPDEST DUP2 DUP2 LT ISZERO PUSH2 0x310 JUMPI PUSH1 0x0 DUP1 PUSH1 0x0 DUP6 DUP6 DUP6 DUP2 DUP2 LT PUSH2 0x1BE JUMPI INVALID JUMPDEST SWAP1 POP PUSH1 0x60 MUL ADD PUSH1 0x40 ADD PUSH1 0x20 DUP2 ADD SWAP1 PUSH2 0x1D6 SWAP2 SWAP1 PUSH2 0x68F JUMP JUMPDEST PUSH1 0x1 PUSH1 0x1 PUSH1 0xA0 SHL SUB AND PUSH1 0x1 PUSH1 0x1 PUSH1 0xA0 SHL SUB AND DUP2 MSTORE PUSH1 0x20 ADD SWAP1 DUP2 MSTORE PUSH1 0x20 ADD PUSH1 0x0 KECCAK256 SWAP1 POP PUSH2 0x23B DUP5 DUP5 DUP5 DUP2 DUP2 LT PUSH2 0x207 JUMPI INVALID JUMPDEST SWAP1 POP PUSH1 0x60 MUL ADD PUSH1 0x40 ADD PUSH1 0x20 DUP2 ADD SWAP1 PUSH2 0x21F SWAP2 SWAP1 PUSH2 0x68F JUMP JUMPDEST DUP3 DUP7 DUP7 DUP7 DUP2 DUP2 LT PUSH2 0x22C JUMPI INVALID JUMPDEST SWAP1 POP PUSH1 0x60 MUL ADD PUSH1 0x20 ADD CALLDATALOAD PUSH2 0x393 JUMP JUMPDEST POP DUP4 DUP4 DUP4 DUP2 DUP2 LT PUSH2 0x248 JUMPI INVALID JUMPDEST PUSH2 0x25E SWAP3 PUSH1 0x20 PUSH1 0x60 SWAP1 SWAP3 MUL ADD SWAP1 DUP2 ADD SWAP2 POP PUSH2 0x74E JUMP JUMPDEST DUP2 SLOAD PUSH16 0xFFFFFFFFFFFFFFFFFFFFFFFFFFFFFFFF NOT AND PUSH1 0x1 PUSH1 0x1 PUSH1 0x80 SHL SUB SWAP2 SWAP1 SWAP2 AND OR DUP2 SSTORE DUP4 DUP4 DUP4 DUP2 DUP2 LT PUSH2 0x28E JUMPI INVALID JUMPDEST SWAP1 POP PUSH1 0x60 MUL ADD PUSH1 0x40 ADD PUSH1 0x20 DUP2 ADD SWAP1 PUSH2 0x2A6 SWAP2 SWAP1 PUSH2 0x68F JUMP JUMPDEST PUSH1 0x1 PUSH1 0x1 PUSH1 0xA0 SHL SUB AND PUSH32 0x87FA03892A0556CB6B8F97E6D533A150D4D55FCBF275FFF5FA003FA636BCC7FA DUP6 DUP6 DUP6 DUP2 DUP2 LT PUSH2 0x2DC JUMPI INVALID JUMPDEST PUSH2 0x2F2 SWAP3 PUSH1 0x20 PUSH1 0x60 SWAP1 SWAP3 MUL ADD SWAP1 DUP2 ADD SWAP2 POP PUSH2 0x74E JUMP JUMPDEST PUSH1 0x40 MLOAD PUSH2 0x2FF SWAP2 SWAP1 PUSH2 0x883 JUMP JUMPDEST PUSH1 0x40 MLOAD DUP1 SWAP2 SUB SWAP1 LOG2 POP PUSH1 0x1 ADD PUSH2 0x1A5 JUMP JUMPDEST POP POP POP JUMP JUMPDEST PUSH32 0x0 DUP2 JUMP JUMPDEST PUSH1 0x0 PUSH1 0x20 DUP2 SWAP1 MSTORE SWAP1 DUP2 MSTORE PUSH1 0x40 SWAP1 KECCAK256 DUP1 SLOAD PUSH1 0x1 SWAP1 SWAP2 ADD SLOAD PUSH1 0x1 PUSH1 0x1 PUSH1 0x80 SHL SUB DUP1 DUP4 AND SWAP3 PUSH1 0x1 PUSH1 0x80 SHL SWAP1 DIV AND SWAP1 DUP4 JUMP JUMPDEST PUSH1 0x0 DUP3 DUP3 ADD DUP4 DUP2 LT ISZERO PUSH2 0x38C JUMPI PUSH1 0x40 MLOAD PUSH3 0x461BCD PUSH1 0xE5 SHL DUP2 MSTORE PUSH1 0x4 ADD PUSH2 0x199 SWAP1 PUSH2 0x7DC JUMP JUMPDEST SWAP4 SWAP3 POP POP POP JUMP JUMPDEST PUSH1 0x1 DUP3 ADD SLOAD DUP3 SLOAD PUSH1 0x0 SWAP2 SWAP1 PUSH1 0x1 PUSH1 0x80 SHL SWAP1 DIV PUSH1 0x1 PUSH1 0x1 PUSH1 0x80 SHL SUB AND TIMESTAMP DUP2 EQ ISZERO PUSH2 0x3BE JUMPI POP SWAP1 POP PUSH2 0x38C JUMP JUMPDEST DUP5 SLOAD PUSH1 0x0 SWAP1 PUSH2 0x3D9 SWAP1 DUP5 SWAP1 PUSH1 0x1 PUSH1 0x1 PUSH1 0x80 SHL SUB AND DUP5 DUP9 PUSH2 0x450 JUMP JUMPDEST SWAP1 POP DUP3 DUP2 EQ PUSH2 0x42D JUMPI DUP1 DUP7 PUSH1 0x1 ADD DUP2 SWAP1 SSTORE POP DUP7 PUSH1 0x1 PUSH1 0x1 PUSH1 0xA0 SHL SUB AND PUSH32 0x5777CA300DFE5BEAD41006FBCE4389794DBC0ED8D6CCCEBFAF94630AA04184BC DUP3 PUSH1 0x40 MLOAD PUSH2 0x424 SWAP2 SWAP1 PUSH2 0x8BB JUMP JUMPDEST PUSH1 0x40 MLOAD DUP1 SWAP2 SUB SWAP1 LOG2 JUMPDEST DUP6 SLOAD PUSH1 0x1 PUSH1 0x1 PUSH1 0x80 SHL SUB TIMESTAMP DUP2 AND PUSH1 0x1 PUSH1 0x80 SHL MUL SWAP2 AND OR DUP7 SSTORE SWAP3 POP POP POP SWAP4 SWAP3 POP POP POP JUMP JUMPDEST PUSH1 0x0 DUP4 ISZERO DUP1 PUSH2 0x45D JUMPI POP DUP2 ISZERO JUMPDEST DUP1 PUSH2 0x470 JUMPI POP TIMESTAMP DUP4 PUSH1 0x1 PUSH1 0x1 PUSH1 0x80 SHL SUB AND EQ JUMPDEST DUP1 PUSH2 0x4A4 JUMPI POP PUSH32 0x0 DUP4 PUSH1 0x1 PUSH1 0x1 PUSH1 0x80 SHL SUB AND LT ISZERO JUMPDEST ISZERO PUSH2 0x4B0 JUMPI POP DUP4 PUSH2 0x54F JUMP JUMPDEST PUSH1 0x0 PUSH32 0x0 TIMESTAMP GT PUSH2 0x4DF JUMPI TIMESTAMP PUSH2 0x501 JUMP JUMPDEST PUSH32 0x0 JUMPDEST SWAP1 POP PUSH1 0x0 PUSH2 0x518 DUP3 PUSH1 0x1 PUSH1 0x1 PUSH1 0x80 SHL SUB DUP8 AND PUSH2 0x557 JUMP JUMPDEST SWAP1 POP PUSH2 0x54A DUP8 PUSH2 0x544 DUP7 PUSH2 0x53E PUSH8 0xDE0B6B3A7640000 PUSH2 0x538 DUP13 DUP9 PUSH2 0x599 JUMP JUMPDEST SWAP1 PUSH2 0x599 JUMP JUMPDEST SWAP1 PUSH2 0x5D3 JUMP JUMPDEST SWAP1 PUSH2 0x367 JUMP JUMPDEST SWAP3 POP POP POP JUMPDEST SWAP5 SWAP4 POP POP POP POP JUMP JUMPDEST PUSH1 0x0 PUSH2 0x38C DUP4 DUP4 PUSH1 0x40 MLOAD DUP1 PUSH1 0x40 ADD PUSH1 0x40 MSTORE DUP1 PUSH1 0x1E DUP2 MSTORE PUSH1 0x20 ADD PUSH32 0x536166654D6174683A207375627472616374696F6E206F766572666C6F770000 DUP2 MSTORE POP PUSH2 0x615 JUMP JUMPDEST PUSH1 0x0 DUP3 PUSH2 0x5A8 JUMPI POP PUSH1 0x0 PUSH2 0x122 JUMP JUMPDEST DUP3 DUP3 MUL DUP3 DUP5 DUP3 DUP2 PUSH2 0x5B5 JUMPI INVALID JUMPDEST DIV EQ PUSH2 0x38C JUMPI PUSH1 0x40 MLOAD PUSH3 0x461BCD PUSH1 0xE5 SHL DUP2 MSTORE PUSH1 0x4 ADD PUSH2 0x199 SWAP1 PUSH2 0x813 JUMP JUMPDEST PUSH1 0x0 PUSH2 0x38C DUP4 DUP4 PUSH1 0x40 MLOAD DUP1 PUSH1 0x40 ADD PUSH1 0x40 MSTORE DUP1 PUSH1 0x1A DUP2 MSTORE PUSH1 0x20 ADD PUSH32 0x536166654D6174683A206469766973696F6E206279207A65726F000000000000 DUP2 MSTORE POP PUSH2 0x641 JUMP JUMPDEST PUSH1 0x0 DUP2 DUP5 DUP5 GT ISZERO PUSH2 0x639 JUMPI PUSH1 0x40 MLOAD PUSH3 0x461BCD PUSH1 0xE5 SHL DUP2 MSTORE PUSH1 0x4 ADD PUSH2 0x199 SWAP2 SWAP1 PUSH2 0x789 JUMP JUMPDEST POP POP POP SWAP1 SUB SWAP1 JUMP JUMPDEST PUSH1 0x0 DUP2 DUP4 PUSH2 0x662 JUMPI PUSH1 0x40 MLOAD PUSH3 0x461BCD PUSH1 0xE5 SHL DUP2 MSTORE PUSH1 0x4 ADD PUSH2 0x199 SWAP2 SWAP1 PUSH2 0x789 JUMP JUMPDEST POP PUSH1 0x0 DUP4 DUP6 DUP2 PUSH2 0x66E JUMPI INVALID JUMPDEST DIV SWAP6 SWAP5 POP POP POP POP POP JUMP JUMPDEST DUP1 CALLDATALOAD PUSH1 0x1 PUSH1 0x1 PUSH1 0xA0 SHL SUB DUP2 AND DUP2 EQ PUSH2 0x122 JUMPI PUSH1 0x0 DUP1 REVERT JUMPDEST PUSH1 0x0 PUSH1 0x20 DUP3 DUP5 SUB SLT ISZERO PUSH2 0x6A0 JUMPI DUP1 DUP2 REVERT JUMPDEST PUSH2 0x38C DUP4 DUP4 PUSH2 0x678 JUMP JUMPDEST PUSH1 0x0 DUP1 PUSH1 0x40 DUP4 DUP6 SUB SLT ISZERO PUSH2 0x6BC JUMPI DUP1 DUP2 REVERT JUMPDEST PUSH2 0x6C6 DUP5 DUP5 PUSH2 0x678 JUMP JUMPDEST SWAP2 POP PUSH2 0x6D5 DUP5 PUSH1 0x20 DUP6 ADD PUSH2 0x678 JUMP JUMPDEST SWAP1 POP SWAP3 POP SWAP3 SWAP1 POP JUMP JUMPDEST PUSH1 0x0 DUP1 PUSH1 0x20 DUP4 DUP6 SUB SLT ISZERO PUSH2 0x6F0 JUMPI DUP2 DUP3 REVERT JUMPDEST DUP3 CALLDATALOAD PUSH8 0xFFFFFFFFFFFFFFFF DUP1 DUP3 GT ISZERO PUSH2 0x707 JUMPI DUP4 DUP5 REVERT JUMPDEST DUP2 DUP6 ADD SWAP2 POP DUP6 PUSH1 0x1F DUP4 ADD SLT PUSH2 0x71A JUMPI DUP4 DUP5 REVERT JUMPDEST DUP2 CALLDATALOAD DUP2 DUP2 GT ISZERO PUSH2 0x728 JUMPI DUP5 DUP6 REVERT JUMPDEST DUP7 PUSH1 0x20 PUSH1 0x60 DUP4 MUL DUP6 ADD ADD GT ISZERO PUSH2 0x73C JUMPI DUP5 DUP6 REVERT JUMPDEST PUSH1 0x20 SWAP3 SWAP1 SWAP3 ADD SWAP7 SWAP2 SWAP6 POP SWAP1 SWAP4 POP POP POP POP JUMP JUMPDEST PUSH1 0x0 PUSH1 0x20 DUP3 DUP5 SUB SLT ISZERO PUSH2 0x75F JUMPI DUP1 DUP2 REVERT JUMPDEST DUP2 CALLDATALOAD PUSH1 0x1 PUSH1 0x1 PUSH1 0x80 SHL SUB DUP2 AND DUP2 EQ PUSH2 0x38C JUMPI DUP2 DUP3 REVERT JUMPDEST PUSH1 0x1 PUSH1 0x1 PUSH1 0xA0 SHL SUB SWAP2 SWAP1 SWAP2 AND DUP2 MSTORE PUSH1 0x20 ADD SWAP1 JUMP JUMPDEST PUSH1 0x0 PUSH1 0x20 DUP1 DUP4 MSTORE DUP4 MLOAD DUP1 DUP3 DUP6 ADD MSTORE DUP3 JUMPDEST DUP2 DUP2 LT ISZERO PUSH2 0x7B5 JUMPI DUP6 DUP2 ADD DUP4 ADD MLOAD DUP6 DUP3 ADD PUSH1 0x40 ADD MSTORE DUP3 ADD PUSH2 0x799 JUMP JUMPDEST DUP2 DUP2 GT ISZERO PUSH2 0x7C6 JUMPI DUP4 PUSH1 0x40 DUP4 DUP8 ADD ADD MSTORE JUMPDEST POP PUSH1 0x1F ADD PUSH1 0x1F NOT AND SWAP3 SWAP1 SWAP3 ADD PUSH1 0x40 ADD SWAP4 SWAP3 POP POP POP JUMP JUMPDEST PUSH1 0x20 DUP1 DUP3 MSTORE PUSH1 0x1B SWAP1 DUP3 ADD MSTORE PUSH32 0x536166654D6174683A206164646974696F6E206F766572666C6F770000000000 PUSH1 0x40 DUP3 ADD MSTORE PUSH1 0x60 ADD SWAP1 JUMP JUMPDEST PUSH1 0x20 DUP1 DUP3 MSTORE PUSH1 0x21 SWAP1 DUP3 ADD MSTORE PUSH32 0x536166654D6174683A206D756C7469706C69636174696F6E206F766572666C6F PUSH1 0x40 DUP3 ADD MSTORE PUSH1 0x77 PUSH1 0xF8 SHL PUSH1 0x60 DUP3 ADD MSTORE PUSH1 0x80 ADD SWAP1 JUMP JUMPDEST PUSH1 0x20 DUP1 DUP3 MSTORE PUSH1 0x15 SWAP1 DUP3 ADD MSTORE PUSH21 0x27A7262CAFA2A6A4A9A9A4A7A72FA6A0A720A3A2A9 PUSH1 0x59 SHL PUSH1 0x40 DUP3 ADD MSTORE PUSH1 0x60 ADD SWAP1 JUMP JUMPDEST PUSH1 0x1 PUSH1 0x1 PUSH1 0x80 SHL SUB SWAP2 SWAP1 SWAP2 AND DUP2 MSTORE PUSH1 0x20 ADD SWAP1 JUMP JUMPDEST PUSH1 0x1 PUSH1 0x1 PUSH1 0x80 SHL SUB SWAP4 DUP5 AND DUP2 MSTORE SWAP2 SWAP1 SWAP3 AND PUSH1 0x20 DUP3 ADD MSTORE PUSH1 0x40 DUP2 ADD SWAP2 SWAP1 SWAP2 MSTORE PUSH1 0x60 ADD SWAP1 JUMP JUMPDEST SWAP1 DUP2 MSTORE PUSH1 0x20 ADD SWAP1 JUMP JUMPDEST PUSH1 0xFF SWAP2 SWAP1 SWAP2 AND DUP2 MSTORE PUSH1 0x20 ADD SWAP1 JUMP INVALID LOG2 PUSH5 0x6970667358 0x22 SLT KECCAK256 SWAP14 0xBA 0x28 CALLDATASIZE DUP3 0xAE PUSH22 0x54A4A23507A99CF0CB3E73DFE3C33EA20694E2A32881 0x49 0xC3 SWAP13 PUSH5 0x736F6C6343 STOP MOD 0xC STOP CALLER "
        },
        "methodIdentifiers": {
          "DISTRIBUTION_END()": "919cd40f",
          "EMISSION_MANAGER()": "cbcbb507",
          "PRECISION()": "aaf5eb68",
          "assets(address)": "f11b8188",
          "configureAssets((uint128,uint256,address)[])": "b2a5dbfa",
          "getUserAssetData(address,address)": "3373ee4c"
        }
      }
    }
  }
}