{
  "contracts/stake/bMXXIncentivesController.sol": {
    "bMXXIncentivesController": {
      "abi": [
        {
          "inputs": [
            {
              "internalType": "contract IERC20",
              "name": "rewardToken",
              "type": "address"
            },
            {
              "internalType": "address",
              "name": "rewardsVault",
              "type": "address"
            },
            {
              "internalType": "contract IStakedbMXX",
              "name": "psm",
              "type": "address"
            },
            {
              "internalType": "uint256",
              "name": "extraPsmReward",
              "type": "uint256"
            },
            {
              "internalType": "address",
              "name": "emissionManager",
              "type": "address"
            },
            {
              "internalType": "uint128",
              "name": "distributionDuration",
              "type": "uint128"
            }
          ],
          "stateMutability": "nonpayable",
          "type": "constructor"
        },
        {
          "anonymous": false,
          "inputs": [
            {
              "indexed": true,
              "internalType": "address",
              "name": "asset",
              "type": "address"
            },
            {
              "indexed": false,
              "internalType": "uint256",
              "name": "emission",
              "type": "uint256"
            }
          ],
          "name": "AssetConfigUpdated",
          "type": "event"
        },
        {
          "anonymous": false,
          "inputs": [
            {
              "indexed": true,
              "internalType": "address",
              "name": "asset",
              "type": "address"
            },
            {
              "indexed": false,
              "internalType": "uint256",
              "name": "index",
              "type": "uint256"
            }
          ],
          "name": "AssetIndexUpdated",
          "type": "event"
        },
        {
          "anonymous": false,
          "inputs": [
            {
              "indexed": true,
              "internalType": "address",
              "name": "user",
              "type": "address"
            },
            {
              "indexed": false,
              "internalType": "uint256",
              "name": "amount",
              "type": "uint256"
            }
          ],
          "name": "RewardsAccrued",
          "type": "event"
        },
        {
          "anonymous": false,
          "inputs": [
            {
              "indexed": true,
              "internalType": "address",
              "name": "user",
              "type": "address"
            },
            {
              "indexed": true,
              "internalType": "address",
              "name": "to",
              "type": "address"
            },
            {
              "indexed": false,
              "internalType": "uint256",
              "name": "amount",
              "type": "uint256"
            }
          ],
          "name": "RewardsClaimed",
          "type": "event"
        },
        {
          "anonymous": false,
          "inputs": [
            {
              "indexed": true,
              "internalType": "address",
              "name": "user",
              "type": "address"
            },
            {
              "indexed": true,
              "internalType": "address",
              "name": "asset",
              "type": "address"
            },
            {
              "indexed": false,
              "internalType": "uint256",
              "name": "index",
              "type": "uint256"
            }
          ],
          "name": "UserIndexUpdated",
          "type": "event"
        },
        {
          "inputs": [],
          "name": "DISTRIBUTION_END",
          "outputs": [
            {
              "internalType": "uint256",
              "name": "",
              "type": "uint256"
            }
          ],
          "stateMutability": "view",
          "type": "function"
        },
        {
          "inputs": [],
          "name": "EMISSION_MANAGER",
          "outputs": [
            {
              "internalType": "address",
              "name": "",
              "type": "address"
            }
          ],
          "stateMutability": "view",
          "type": "function"
        },
        {
          "inputs": [],
          "name": "EXTRA_PSM_REWARD",
          "outputs": [
            {
              "internalType": "uint256",
              "name": "",
              "type": "uint256"
            }
          ],
          "stateMutability": "view",
          "type": "function"
        },
        {
          "inputs": [],
          "name": "PRECISION",
          "outputs": [
            {
              "internalType": "uint8",
              "name": "",
              "type": "uint8"
            }
          ],
          "stateMutability": "view",
          "type": "function"
        },
        {
          "inputs": [],
          "name": "PSM",
          "outputs": [
            {
              "internalType": "contract IStakedbMXX",
              "name": "",
              "type": "address"
            }
          ],
          "stateMutability": "view",
          "type": "function"
        },
        {
          "inputs": [],
          "name": "REVISION",
          "outputs": [
            {
              "internalType": "uint256",
              "name": "",
              "type": "uint256"
            }
          ],
          "stateMutability": "view",
          "type": "function"
        },
        {
          "inputs": [],
          "name": "REWARDS_VAULT",
          "outputs": [
            {
              "internalType": "address",
              "name": "",
              "type": "address"
            }
          ],
          "stateMutability": "view",
          "type": "function"
        },
        {
          "inputs": [],
          "name": "REWARD_TOKEN",
          "outputs": [
            {
              "internalType": "contract IERC20",
              "name": "",
              "type": "address"
            }
          ],
          "stateMutability": "view",
          "type": "function"
        },
        {
          "inputs": [
            {
              "internalType": "address",
              "name": "",
              "type": "address"
            }
          ],
          "name": "assets",
          "outputs": [
            {
              "internalType": "uint128",
              "name": "emissionPerSecond",
              "type": "uint128"
            },
            {
              "internalType": "uint128",
              "name": "lastUpdateTimestamp",
              "type": "uint128"
            },
            {
              "internalType": "uint256",
              "name": "index",
              "type": "uint256"
            }
          ],
          "stateMutability": "view",
          "type": "function"
        },
        {
          "inputs": [
            {
              "internalType": "address[]",
              "name": "assets",
              "type": "address[]"
            },
            {
              "internalType": "uint256",
              "name": "amount",
              "type": "uint256"
            },
            {
              "internalType": "address",
              "name": "to",
              "type": "address"
            },
            {
              "internalType": "bool",
              "name": "stake",
              "type": "bool"
            }
          ],
          "name": "claimRewards",
          "outputs": [
            {
              "internalType": "uint256",
              "name": "",
              "type": "uint256"
            }
          ],
          "stateMutability": "nonpayable",
          "type": "function"
        },
        {
          "inputs": [
            {
              "components": [
                {
                  "internalType": "uint128",
                  "name": "emissionPerSecond",
                  "type": "uint128"
                },
                {
                  "internalType": "uint256",
                  "name": "totalStaked",
                  "type": "uint256"
                },
                {
                  "internalType": "address",
                  "name": "underlyingAsset",
                  "type": "address"
                }
              ],
              "internalType": "struct DistributionTypes.AssetConfigInput[]",
              "name": "assetsConfigInput",
              "type": "tuple[]"
            }
          ],
          "name": "configureAssets",
          "outputs": [],
          "stateMutability": "nonpayable",
          "type": "function"
        },
        {
          "inputs": [
            {
              "internalType": "address[]",
              "name": "assets",
              "type": "address[]"
            },
            {
              "internalType": "address",
              "name": "user",
              "type": "address"
            }
          ],
          "name": "getRewardsBalance",
          "outputs": [
            {
              "internalType": "uint256",
              "name": "",
              "type": "uint256"
            }
          ],
          "stateMutability": "view",
          "type": "function"
        },
        {
          "inputs": [
            {
              "internalType": "address",
              "name": "user",
              "type": "address"
            },
            {
              "internalType": "address",
              "name": "asset",
              "type": "address"
            }
          ],
          "name": "getUserAssetData",
          "outputs": [
            {
              "internalType": "uint256",
              "name": "",
              "type": "uint256"
            }
          ],
          "stateMutability": "view",
          "type": "function"
        },
        {
          "inputs": [
            {
              "internalType": "address",
              "name": "_user",
              "type": "address"
            }
          ],
          "name": "getUserUnclaimedRewards",
          "outputs": [
            {
              "internalType": "uint256",
              "name": "",
              "type": "uint256"
            }
          ],
          "stateMutability": "view",
          "type": "function"
        },
        {
          "inputs": [
            {
              "internalType": "address",
              "name": "user",
              "type": "address"
            },
            {
              "internalType": "uint256",
              "name": "userBalance",
              "type": "uint256"
            },
            {
              "internalType": "uint256",
              "name": "totalSupply",
              "type": "uint256"
            }
          ],
          "name": "handleAction",
          "outputs": [],
          "stateMutability": "nonpayable",
          "type": "function"
        },
        {
          "inputs": [],
          "name": "initialize",
          "outputs": [],
          "stateMutability": "nonpayable",
          "type": "function"
        }
      ],
      "evm": {
        "bytecode": {
          "linkReferences": {},
          "object": "610140604052600080553480156200001657600080fd5b50604051620019d4380380620019d48339810160408190526200003991620000d2565b81816001600160801b03166200005e81426200009a60201b62000d6c1790919060201c565b608052506001600160601b0319606091821b811660a05296811b871660e05294851b8616610100525050911b90911660c05261012052620001b3565b600082820183811015620000cb5760405162461bcd60e51b8152600401620000c29062000163565b60405180910390fd5b9392505050565b60008060008060008060c08789031215620000eb578182fd5b8651620000f8816200019a565b60208801519096506200010b816200019a565b60408801519095506200011e816200019a565b60608801516080890151919550935062000138816200019a565b60a08801519092506001600160801b038116811462000155578182fd5b809150509295509295509295565b6020808252601b908201527f536166654d6174683a206164646974696f6e206f766572666c6f770000000000604082015260600190565b6001600160a01b0381168114620001b057600080fd5b50565b60805160a05160601c60c05160601c60e05160601c6101005160601c6101205161178f62000245600039806102f6528061059352508061060b52806107535280610b0e5250806105de528061072652806108805280610b3252508061031a52806106a152806108ad525080610b645280610d17525080610aea528061116e52806111aa52806111d7525061178f6000f3fe608060405234801561001057600080fd5b50600436106101005760003560e01c8063919cd40f11610097578063b2a5dbfa11610066578063b2a5dbfa146101ce578063cbcbb507146101e1578063dde43cba146101e9578063f11b8188146101f157610100565b8063919cd40f146101a1578063946776cd146101a957806399248ea7146101b1578063aaf5eb68146101b957610100565b80635dac9ed7116100d35780635dac9ed71461015e5780638116c484146101735780638129fc1c146101865780638b599f261461018e57610100565b8063198fa81e1461010557806331873e2e1461012e5780633373ee4c146101435780633ec3126d14610156575b600080fd5b610118610113366004611338565b610213565b6040516101259190611731565b60405180910390f35b61014161013c366004611387565b61022e565b005b610118610151366004611353565b6102c3565b6101186102f4565b610166610318565b6040516101259190611560565b61011861018136600461140d565b61033c565b61014161082e565b61011861019c3660046113ba565b61092f565b610118610ae8565b610166610b0c565b610166610b30565b6101c1610b54565b604051610125919061173a565b6101416101dc36600461148a565b610b59565b610166610d15565b610118610d39565b6102046101ff366004611338565b610d3e565b6040516101259392919061170d565b6001600160a01b031660009081526034602052604090205490565b600061023c84338585610d91565b905080156102bd576001600160a01b0384166000908152603460205260409020546102679082610d6c565b6001600160a01b038516600081815260346020526040908190209290925590517f2468f9268c60ad90e2d49edb0032c8a001e733ae888b3ab8e982edf535be1a76906102b4908490611731565b60405180910390a25b50505050565b6001600160a01b03808216600090815260336020908152604080832093861683526002909301905220545b92915050565b7f000000000000000000000000000000000000000000000000000000000000000081565b7f000000000000000000000000000000000000000000000000000000000000000081565b60008361034b57506000610825565b3360008181526034602052604090205460608767ffffffffffffffff8111801561037457600080fd5b506040519080825280602002602001820160405280156103ae57816020015b61039b6112ae565b8152602001906001900390816103935790505b50905060005b888110156104da578989828181106103c857fe5b90506020020160208101906103dd9190611338565b8282815181106103e957fe5b60209081029190910101516001600160a01b03909116905289898281811061040d57fe5b90506020020160208101906104229190611338565b6001600160a01b0316630afbcdc9856040518263ffffffff1660e01b815260040161044d9190611560565b604080518083038186803b15801561046457600080fd5b505afa158015610478573d6000803e3d6000fd5b505050506040513d601f19601f8201168201806040525081019061049c919061153d565b8383815181106104a857fe5b60200260200101516020018484815181106104bf57fe5b602090810291909101015160400191909152526001016103b4565b5060006104e78483610e52565b9050801561053d576104f98382610d6c565b9250836001600160a01b03167f2468f9268c60ad90e2d49edb0032c8a001e733ae888b3ab8e982edf535be1a76826040516105349190611731565b60405180910390a25b8261054f576000945050505050610825565b600083891161055e5788610560565b835b6001600160a01b038616600090815260346020526040902081860390559050861561070f576105c46105bd60646105b7847f0000000000000000000000000000000000000000000000000000000000000000610ec6565b90610f00565b8290610d6c565b6040516323b872dd60e01b81529091506001600160a01b037f000000000000000000000000000000000000000000000000000000000000000016906323b872dd90610637907f00000000000000000000000000000000000000000000000000000000000000009030908690600401611574565b602060405180830381600087803b15801561065157600080fd5b505af1158015610665573d6000803e3d6000fd5b505050506040513d601f19601f8201168201806040525081019061068991906114fa565b506040516356e4bb9760e11b81526001600160a01b037f0000000000000000000000000000000000000000000000000000000000000000169063adc9772e906106d8908b908590600401611598565b600060405180830381600087803b1580156106f257600080fd5b505af1158015610706573d6000803e3d6000fd5b505050506107d3565b6040516323b872dd60e01b81526001600160a01b037f000000000000000000000000000000000000000000000000000000000000000016906323b872dd9061077f907f0000000000000000000000000000000000000000000000000000000000000000908c908690600401611574565b602060405180830381600087803b15801561079957600080fd5b505af11580156107ad573d6000803e3d6000fd5b505050506040513d601f19601f820116820180604052508101906107d191906114fa565b505b876001600160a01b0316336001600160a01b03167f9310ccfcb8de723f578a9e4282ea9f521f05ae40dc08f3068dfad528a65ee3c7836040516108169190611731565b60405180910390a39450505050505b95945050505050565b6000610838610f42565b905060005481116108645760405162461bcd60e51b815260040161085b9061167c565b60405180910390fd5b600081905560405163095ea7b360e01b81526001600160a01b037f0000000000000000000000000000000000000000000000000000000000000000169063095ea7b3906108d9907f00000000000000000000000000000000000000000000000000000000000000009060001990600401611598565b602060405180830381600087803b1580156108f357600080fd5b505af1158015610907573d6000803e3d6000fd5b505050506040513d601f19601f8201168201806040525081019061092b91906114fa565b5050565b6001600160a01b03811660009081526034602052604081205460608467ffffffffffffffff8111801561096157600080fd5b5060405190808252806020026020018201604052801561099b57816020015b6109886112ae565b8152602001906001900390816109805790505b50905060005b85811015610ac7578686828181106109b557fe5b90506020020160208101906109ca9190611338565b8282815181106109d657fe5b60209081029190910101516001600160a01b0390911690528686828181106109fa57fe5b9050602002016020810190610a0f9190611338565b6001600160a01b0316630afbcdc9866040518263ffffffff1660e01b8152600401610a3a9190611560565b604080518083038186803b158015610a5157600080fd5b505afa158015610a65573d6000803e3d6000fd5b505050506040513d601f19601f82011682018060405250810190610a89919061153d565b838381518110610a9557fe5b6020026020010151602001848481518110610aac57fe5b602090810291909101015160400191909152526001016109a1565b50610adc610ad58583610f47565b8390610d6c565b925050505b9392505050565b7f000000000000000000000000000000000000000000000000000000000000000081565b7f000000000000000000000000000000000000000000000000000000000000000081565b7f000000000000000000000000000000000000000000000000000000000000000081565b601281565b336001600160a01b037f00000000000000000000000000000000000000000000000000000000000000001614610ba15760405162461bcd60e51b815260040161085b906116ca565b60005b81811015610d1057600060336000858585818110610bbe57fe5b9050606002016040016020810190610bd69190611338565b6001600160a01b03166001600160a01b031681526020019081526020016000209050610c3b848484818110610c0757fe5b9050606002016040016020810190610c1f9190611338565b82868686818110610c2c57fe5b90506060020160200135611030565b50838383818110610c4857fe5b610c5e9260206060909202019081019150611516565b81546fffffffffffffffffffffffffffffffff19166001600160801b0391909116178155838383818110610c8e57fe5b9050606002016040016020810190610ca69190611338565b6001600160a01b03167f87fa03892a0556cb6b8f97e6d533a150d4d55fcbf275fff5fa003fa636bcc7fa858585818110610cdc57fe5b610cf29260206060909202019081019150611516565b604051610cff91906116f9565b60405180910390a250600101610ba4565b505050565b7f000000000000000000000000000000000000000000000000000000000000000081565b600181565b603360205260009081526040902080546001909101546001600160801b0380831692600160801b9004169083565b600082820183811015610ae15760405162461bcd60e51b815260040161085b90611604565b6001600160a01b0380841660009081526033602090815260408083209388168352600284019091528120549091908280610dcc888588611030565b9050808314610e44578615610de957610de68782856110ed565b91505b6001600160a01b03808a1660008181526002870160205260409081902084905551918a16917fbb123b5c06d5408bbea3c4fef481578175cfb432e3b482c6186f02ed9086585b90610e3b908590611731565b60405180910390a35b50925050505b949350505050565b600080805b8351811015610ebe57610eb4610ad586868481518110610e7357fe5b602002602001015160000151878581518110610e8b57fe5b602002602001015160200151888681518110610ea357fe5b602002602001015160400151610d91565b9150600101610e57565b509392505050565b600082610ed5575060006102ee565b82820282848281610ee257fe5b0414610ae15760405162461bcd60e51b815260040161085b9061163b565b6000610ae183836040518060400160405280601a81526020017f536166654d6174683a206469766973696f6e206279207a65726f00000000000081525061110f565b600190565b600080805b8351811015610ebe57600060336000868481518110610f6757fe5b602090810291909101810151516001600160a01b031682528101919091526040016000908120600181015481548851929450610fcf926001600160801b0380831692600160801b900416908a9088908110610fbe57fe5b602002602001015160400151611146565b905061102461101d878581518110610fe357fe5b602002602001015160200151838560020160008c6001600160a01b03166001600160a01b03168152602001908152602001600020546110ed565b8590610d6c565b93505050600101610f4c565b6001820154825460009190600160801b90046001600160801b03164281141561105b57509050610ae1565b84546000906110769084906001600160801b03168488611146565b90508281146110ca57808660010181905550866001600160a01b03167f5777ca300dfe5bead41006fbce4389794dbc0ed8d6cccebfaf94630aa04184bc826040516110c19190611731565b60405180910390a25b85546001600160801b03428116600160801b029116178655925050509392505050565b6000610e4a670de0b6b3a76400006105b76111088686611245565b8790610ec6565b600081836111305760405162461bcd60e51b815260040161085b91906115b1565b50600083858161113c57fe5b0495945050505050565b6000831580611153575081155b80611166575042836001600160801b0316145b8061119a57507f0000000000000000000000000000000000000000000000000000000000000000836001600160801b031610155b156111a6575083610e4a565b60007f000000000000000000000000000000000000000000000000000000000000000042116111d557426111f7565b7f00000000000000000000000000000000000000000000000000000000000000005b9050600061120e826001600160801b038716611245565b905061123a87611234866105b7670de0b6b3a764000061122e8c88610ec6565b90610ec6565b90610d6c565b979650505050505050565b6000610ae183836040518060400160405280601e81526020017f536166654d6174683a207375627472616374696f6e206f766572666c6f770000815250600081848411156112a65760405162461bcd60e51b815260040161085b91906115b1565b505050900390565b604051806060016040528060006001600160a01b0316815260200160008152602001600081525090565b80356001600160a01b03811681146102ee57600080fd5b60008083601f840112611300578182fd5b50813567ffffffffffffffff811115611317578182fd5b602083019150836020808302850101111561133157600080fd5b9250929050565b600060208284031215611349578081fd5b610ae183836112d8565b60008060408385031215611365578081fd5b61136f84846112d8565b915061137e84602085016112d8565b90509250929050565b60008060006060848603121561139b578081fd5b6113a585856112d8565b95602085013595506040909401359392505050565b6000806000604084860312156113ce578283fd5b833567ffffffffffffffff8111156113e4578384fd5b6113f0868287016112ef565b9094509250611404905085602086016112d8565b90509250925092565b600080600080600060808688031215611424578081fd5b853567ffffffffffffffff81111561143a578182fd5b611446888289016112ef565b9096509450506020860135925060408601356001600160a01b038116811461146c578182fd5b9150606086013561147c81611748565b809150509295509295909350565b6000806020838503121561149c578182fd5b823567ffffffffffffffff808211156114b3578384fd5b818501915085601f8301126114c6578384fd5b8135818111156114d4578485fd5b8660206060830285010111156114e8578485fd5b60209290920196919550909350505050565b60006020828403121561150b578081fd5b8151610ae181611748565b600060208284031215611527578081fd5b81356001600160801b0381168114610ae1578182fd5b6000806040838503121561154f578182fd5b505080516020909101519092909150565b6001600160a01b0391909116815260200190565b6001600160a01b039384168152919092166020820152604081019190915260600190565b6001600160a01b03929092168252602082015260400190565b6000602080835283518082850152825b818110156115dd578581018301518582016040015282016115c1565b818111156115ee5783604083870101525b50601f01601f1916929092016040019392505050565b6020808252601b908201527f536166654d6174683a206164646974696f6e206f766572666c6f770000000000604082015260600190565b60208082526021908201527f536166654d6174683a206d756c7469706c69636174696f6e206f766572666c6f6040820152607760f81b606082015260800190565b6020808252602e908201527f436f6e747261637420696e7374616e63652068617320616c726561647920626560408201526d195b881a5b9a5d1a585b1a5e995960921b606082015260800190565b60208082526015908201527427a7262cafa2a6a4a9a9a4a7a72fa6a0a720a3a2a960591b604082015260600190565b6001600160801b0391909116815260200190565b6001600160801b039384168152919092166020820152604081019190915260600190565b90815260200190565b60ff91909116815260200190565b801515811461175657600080fd5b5056fea2646970667358221220abf20508c48c02ab6a010ce925c69f538db5d84a0a7a89a55104874acf9b000d64736f6c634300060c0033",
          "opcodes": "PUSH2 0x140 PUSH1 0x40 MSTORE PUSH1 0x0 DUP1 SSTORE CALLVALUE DUP1 ISZERO PUSH3 0x16 JUMPI PUSH1 0x0 DUP1 REVERT JUMPDEST POP PUSH1 0x40 MLOAD PUSH3 0x19D4 CODESIZE SUB DUP1 PUSH3 0x19D4 DUP4 CODECOPY DUP2 ADD PUSH1 0x40 DUP2 SWAP1 MSTORE PUSH3 0x39 SWAP2 PUSH3 0xD2 JUMP JUMPDEST DUP2 DUP2 PUSH1 0x1 PUSH1 0x1 PUSH1 0x80 SHL SUB AND PUSH3 0x5E DUP2 TIMESTAMP PUSH3 0x9A PUSH1 0x20 SHL PUSH3 0xD6C OR SWAP1 SWAP2 SWAP1 PUSH1 0x20 SHR JUMP JUMPDEST PUSH1 0x80 MSTORE POP PUSH1 0x1 PUSH1 0x1 PUSH1 0x60 SHL SUB NOT PUSH1 0x60 SWAP2 DUP3 SHL DUP2 AND PUSH1 0xA0 MSTORE SWAP7 DUP2 SHL DUP8 AND PUSH1 0xE0 MSTORE SWAP5 DUP6 SHL DUP7 AND PUSH2 0x100 MSTORE POP POP SWAP2 SHL SWAP1 SWAP2 AND PUSH1 0xC0 MSTORE PUSH2 0x120 MSTORE PUSH3 0x1B3 JUMP JUMPDEST PUSH1 0x0 DUP3 DUP3 ADD DUP4 DUP2 LT ISZERO PUSH3 0xCB JUMPI PUSH1 0x40 MLOAD PUSH3 0x461BCD PUSH1 0xE5 SHL DUP2 MSTORE PUSH1 0x4 ADD PUSH3 0xC2 SWAP1 PUSH3 0x163 JUMP JUMPDEST PUSH1 0x40 MLOAD DUP1 SWAP2 SUB SWAP1 REVERT JUMPDEST SWAP4 SWAP3 POP POP POP JUMP JUMPDEST PUSH1 0x0 DUP1 PUSH1 0x0 DUP1 PUSH1 0x0 DUP1 PUSH1 0xC0 DUP8 DUP10 SUB SLT ISZERO PUSH3 0xEB JUMPI DUP2 DUP3 REVERT JUMPDEST DUP7 MLOAD PUSH3 0xF8 DUP2 PUSH3 0x19A JUMP JUMPDEST PUSH1 0x20 DUP9 ADD MLOAD SWAP1 SWAP7 POP PUSH3 0x10B DUP2 PUSH3 0x19A JUMP JUMPDEST PUSH1 0x40 DUP9 ADD MLOAD SWAP1 SWAP6 POP PUSH3 0x11E DUP2 PUSH3 0x19A JUMP JUMPDEST PUSH1 0x60 DUP9 ADD MLOAD PUSH1 0x80 DUP10 ADD MLOAD SWAP2 SWAP6 POP SWAP4 POP PUSH3 0x138 DUP2 PUSH3 0x19A JUMP JUMPDEST PUSH1 0xA0 DUP9 ADD MLOAD SWAP1 SWAP3 POP PUSH1 0x1 PUSH1 0x1 PUSH1 0x80 SHL SUB DUP2 AND DUP2 EQ PUSH3 0x155 JUMPI DUP2 DUP3 REVERT JUMPDEST DUP1 SWAP2 POP POP SWAP3 SWAP6 POP SWAP3 SWAP6 POP SWAP3 SWAP6 JUMP JUMPDEST PUSH1 0x20 DUP1 DUP3 MSTORE PUSH1 0x1B SWAP1 DUP3 ADD MSTORE PUSH32 0x536166654D6174683A206164646974696F6E206F766572666C6F770000000000 PUSH1 0x40 DUP3 ADD MSTORE PUSH1 0x60 ADD SWAP1 JUMP JUMPDEST PUSH1 0x1 PUSH1 0x1 PUSH1 0xA0 SHL SUB DUP2 AND DUP2 EQ PUSH3 0x1B0 JUMPI PUSH1 0x0 DUP1 REVERT JUMPDEST POP JUMP JUMPDEST PUSH1 0x80 MLOAD PUSH1 0xA0 MLOAD PUSH1 0x60 SHR PUSH1 0xC0 MLOAD PUSH1 0x60 SHR PUSH1 0xE0 MLOAD PUSH1 0x60 SHR PUSH2 0x100 MLOAD PUSH1 0x60 SHR PUSH2 0x120 MLOAD PUSH2 0x178F PUSH3 0x245 PUSH1 0x0 CODECOPY DUP1 PUSH2 0x2F6 MSTORE DUP1 PUSH2 0x593 MSTORE POP DUP1 PUSH2 0x60B MSTORE DUP1 PUSH2 0x753 MSTORE DUP1 PUSH2 0xB0E MSTORE POP DUP1 PUSH2 0x5DE MSTORE DUP1 PUSH2 0x726 MSTORE DUP1 PUSH2 0x880 MSTORE DUP1 PUSH2 0xB32 MSTORE POP DUP1 PUSH2 0x31A MSTORE DUP1 PUSH2 0x6A1 MSTORE DUP1 PUSH2 0x8AD MSTORE POP DUP1 PUSH2 0xB64 MSTORE DUP1 PUSH2 0xD17 MSTORE POP DUP1 PUSH2 0xAEA MSTORE DUP1 PUSH2 0x116E MSTORE DUP1 PUSH2 0x11AA MSTORE DUP1 PUSH2 0x11D7 MSTORE POP PUSH2 0x178F PUSH1 0x0 RETURN INVALID PUSH1 0x80 PUSH1 0x40 MSTORE CALLVALUE DUP1 ISZERO PUSH2 0x10 JUMPI PUSH1 0x0 DUP1 REVERT JUMPDEST POP PUSH1 0x4 CALLDATASIZE LT PUSH2 0x100 JUMPI PUSH1 0x0 CALLDATALOAD PUSH1 0xE0 SHR DUP1 PUSH4 0x919CD40F GT PUSH2 0x97 JUMPI DUP1 PUSH4 0xB2A5DBFA GT PUSH2 0x66 JUMPI DUP1 PUSH4 0xB2A5DBFA EQ PUSH2 0x1CE JUMPI DUP1 PUSH4 0xCBCBB507 EQ PUSH2 0x1E1 JUMPI DUP1 PUSH4 0xDDE43CBA EQ PUSH2 0x1E9 JUMPI DUP1 PUSH4 0xF11B8188 EQ PUSH2 0x1F1 JUMPI PUSH2 0x100 JUMP JUMPDEST DUP1 PUSH4 0x919CD40F EQ PUSH2 0x1A1 JUMPI DUP1 PUSH4 0x946776CD EQ PUSH2 0x1A9 JUMPI DUP1 PUSH4 0x99248EA7 EQ PUSH2 0x1B1 JUMPI DUP1 PUSH4 0xAAF5EB68 EQ PUSH2 0x1B9 JUMPI PUSH2 0x100 JUMP JUMPDEST DUP1 PUSH4 0x5DAC9ED7 GT PUSH2 0xD3 JUMPI DUP1 PUSH4 0x5DAC9ED7 EQ PUSH2 0x15E JUMPI DUP1 PUSH4 0x8116C484 EQ PUSH2 0x173 JUMPI DUP1 PUSH4 0x8129FC1C EQ PUSH2 0x186 JUMPI DUP1 PUSH4 0x8B599F26 EQ PUSH2 0x18E JUMPI PUSH2 0x100 JUMP JUMPDEST DUP1 PUSH4 0x198FA81E EQ PUSH2 0x105 JUMPI DUP1 PUSH4 0x31873E2E EQ PUSH2 0x12E JUMPI DUP1 PUSH4 0x3373EE4C EQ PUSH2 0x143 JUMPI DUP1 PUSH4 0x3EC3126D EQ PUSH2 0x156 JUMPI JUMPDEST PUSH1 0x0 DUP1 REVERT JUMPDEST PUSH2 0x118 PUSH2 0x113 CALLDATASIZE PUSH1 0x4 PUSH2 0x1338 JUMP JUMPDEST PUSH2 0x213 JUMP JUMPDEST PUSH1 0x40 MLOAD PUSH2 0x125 SWAP2 SWAP1 PUSH2 0x1731 JUMP JUMPDEST PUSH1 0x40 MLOAD DUP1 SWAP2 SUB SWAP1 RETURN JUMPDEST PUSH2 0x141 PUSH2 0x13C CALLDATASIZE PUSH1 0x4 PUSH2 0x1387 JUMP JUMPDEST PUSH2 0x22E JUMP JUMPDEST STOP JUMPDEST PUSH2 0x118 PUSH2 0x151 CALLDATASIZE PUSH1 0x4 PUSH2 0x1353 JUMP JUMPDEST PUSH2 0x2C3 JUMP JUMPDEST PUSH2 0x118 PUSH2 0x2F4 JUMP JUMPDEST PUSH2 0x166 PUSH2 0x318 JUMP JUMPDEST PUSH1 0x40 MLOAD PUSH2 0x125 SWAP2 SWAP1 PUSH2 0x1560 JUMP JUMPDEST PUSH2 0x118 PUSH2 0x181 CALLDATASIZE PUSH1 0x4 PUSH2 0x140D JUMP JUMPDEST PUSH2 0x33C JUMP JUMPDEST PUSH2 0x141 PUSH2 0x82E JUMP JUMPDEST PUSH2 0x118 PUSH2 0x19C CALLDATASIZE PUSH1 0x4 PUSH2 0x13BA JUMP JUMPDEST PUSH2 0x92F JUMP JUMPDEST PUSH2 0x118 PUSH2 0xAE8 JUMP JUMPDEST PUSH2 0x166 PUSH2 0xB0C JUMP JUMPDEST PUSH2 0x166 PUSH2 0xB30 JUMP JUMPDEST PUSH2 0x1C1 PUSH2 0xB54 JUMP JUMPDEST PUSH1 0x40 MLOAD PUSH2 0x125 SWAP2 SWAP1 PUSH2 0x173A JUMP JUMPDEST PUSH2 0x141 PUSH2 0x1DC CALLDATASIZE PUSH1 0x4 PUSH2 0x148A JUMP JUMPDEST PUSH2 0xB59 JUMP JUMPDEST PUSH2 0x166 PUSH2 0xD15 JUMP JUMPDEST PUSH2 0x118 PUSH2 0xD39 JUMP JUMPDEST PUSH2 0x204 PUSH2 0x1FF CALLDATASIZE PUSH1 0x4 PUSH2 0x1338 JUMP JUMPDEST PUSH2 0xD3E JUMP JUMPDEST PUSH1 0x40 MLOAD PUSH2 0x125 SWAP4 SWAP3 SWAP2 SWAP1 PUSH2 0x170D JUMP JUMPDEST PUSH1 0x1 PUSH1 0x1 PUSH1 0xA0 SHL SUB AND PUSH1 0x0 SWAP1 DUP2 MSTORE PUSH1 0x34 PUSH1 0x20 MSTORE PUSH1 0x40 SWAP1 KECCAK256 SLOAD SWAP1 JUMP JUMPDEST PUSH1 0x0 PUSH2 0x23C DUP5 CALLER DUP6 DUP6 PUSH2 0xD91 JUMP JUMPDEST SWAP1 POP DUP1 ISZERO PUSH2 0x2BD JUMPI PUSH1 0x1 PUSH1 0x1 PUSH1 0xA0 SHL SUB DUP5 AND PUSH1 0x0 SWAP1 DUP2 MSTORE PUSH1 0x34 PUSH1 0x20 MSTORE PUSH1 0x40 SWAP1 KECCAK256 SLOAD PUSH2 0x267 SWAP1 DUP3 PUSH2 0xD6C JUMP JUMPDEST PUSH1 0x1 PUSH1 0x1 PUSH1 0xA0 SHL SUB DUP6 AND PUSH1 0x0 DUP2 DUP2 MSTORE PUSH1 0x34 PUSH1 0x20 MSTORE PUSH1 0x40 SWAP1 DUP2 SWAP1 KECCAK256 SWAP3 SWAP1 SWAP3 SSTORE SWAP1 MLOAD PUSH32 0x2468F9268C60AD90E2D49EDB0032C8A001E733AE888B3AB8E982EDF535BE1A76 SWAP1 PUSH2 0x2B4 SWAP1 DUP5 SWAP1 PUSH2 0x1731 JUMP JUMPDEST PUSH1 0x40 MLOAD DUP1 SWAP2 SUB SWAP1 LOG2 JUMPDEST POP POP POP POP JUMP JUMPDEST PUSH1 0x1 PUSH1 0x1 PUSH1 0xA0 SHL SUB DUP1 DUP3 AND PUSH1 0x0 SWAP1 DUP2 MSTORE PUSH1 0x33 PUSH1 0x20 SWAP1 DUP2 MSTORE PUSH1 0x40 DUP1 DUP4 KECCAK256 SWAP4 DUP7 AND DUP4 MSTORE PUSH1 0x2 SWAP1 SWAP4 ADD SWAP1 MSTORE KECCAK256 SLOAD JUMPDEST SWAP3 SWAP2 POP POP JUMP JUMPDEST PUSH32 0x0 DUP2 JUMP JUMPDEST PUSH32 0x0 DUP2 JUMP JUMPDEST PUSH1 0x0 DUP4 PUSH2 0x34B JUMPI POP PUSH1 0x0 PUSH2 0x825 JUMP JUMPDEST CALLER PUSH1 0x0 DUP2 DUP2 MSTORE PUSH1 0x34 PUSH1 0x20 MSTORE PUSH1 0x40 SWAP1 KECCAK256 SLOAD PUSH1 0x60 DUP8 PUSH8 0xFFFFFFFFFFFFFFFF DUP2 GT DUP1 ISZERO PUSH2 0x374 JUMPI PUSH1 0x0 DUP1 REVERT JUMPDEST POP PUSH1 0x40 MLOAD SWAP1 DUP1 DUP3 MSTORE DUP1 PUSH1 0x20 MUL PUSH1 0x20 ADD DUP3 ADD PUSH1 0x40 MSTORE DUP1 ISZERO PUSH2 0x3AE JUMPI DUP2 PUSH1 0x20 ADD JUMPDEST PUSH2 0x39B PUSH2 0x12AE JUMP JUMPDEST DUP2 MSTORE PUSH1 0x20 ADD SWAP1 PUSH1 0x1 SWAP1 SUB SWAP1 DUP2 PUSH2 0x393 JUMPI SWAP1 POP JUMPDEST POP SWAP1 POP PUSH1 0x0 JUMPDEST DUP9 DUP2 LT ISZERO PUSH2 0x4DA JUMPI DUP10 DUP10 DUP3 DUP2 DUP2 LT PUSH2 0x3C8 JUMPI INVALID JUMPDEST SWAP1 POP PUSH1 0x20 MUL ADD PUSH1 0x20 DUP2 ADD SWAP1 PUSH2 0x3DD SWAP2 SWAP1 PUSH2 0x1338 JUMP JUMPDEST DUP3 DUP3 DUP2 MLOAD DUP2 LT PUSH2 0x3E9 JUMPI INVALID JUMPDEST PUSH1 0x20 SWAP1 DUP2 MUL SWAP2 SWAP1 SWAP2 ADD ADD MLOAD PUSH1 0x1 PUSH1 0x1 PUSH1 0xA0 SHL SUB SWAP1 SWAP2 AND SWAP1 MSTORE DUP10 DUP10 DUP3 DUP2 DUP2 LT PUSH2 0x40D JUMPI INVALID JUMPDEST SWAP1 POP PUSH1 0x20 MUL ADD PUSH1 0x20 DUP2 ADD SWAP1 PUSH2 0x422 SWAP2 SWAP1 PUSH2 0x1338 JUMP JUMPDEST PUSH1 0x1 PUSH1 0x1 PUSH1 0xA0 SHL SUB AND PUSH4 0xAFBCDC9 DUP6 PUSH1 0x40 MLOAD DUP3 PUSH4 0xFFFFFFFF AND PUSH1 0xE0 SHL DUP2 MSTORE PUSH1 0x4 ADD PUSH2 0x44D SWAP2 SWAP1 PUSH2 0x1560 JUMP JUMPDEST PUSH1 0x40 DUP1 MLOAD DUP1 DUP4 SUB DUP2 DUP7 DUP1 EXTCODESIZE ISZERO DUP1 ISZERO PUSH2 0x464 JUMPI PUSH1 0x0 DUP1 REVERT JUMPDEST POP GAS STATICCALL ISZERO DUP1 ISZERO PUSH2 0x478 JUMPI RETURNDATASIZE PUSH1 0x0 DUP1 RETURNDATACOPY RETURNDATASIZE PUSH1 0x0 REVERT JUMPDEST POP POP POP POP PUSH1 0x40 MLOAD RETURNDATASIZE PUSH1 0x1F NOT PUSH1 0x1F DUP3 ADD AND DUP3 ADD DUP1 PUSH1 0x40 MSTORE POP DUP2 ADD SWAP1 PUSH2 0x49C SWAP2 SWAP1 PUSH2 0x153D JUMP JUMPDEST DUP4 DUP4 DUP2 MLOAD DUP2 LT PUSH2 0x4A8 JUMPI INVALID JUMPDEST PUSH1 0x20 MUL PUSH1 0x20 ADD ADD MLOAD PUSH1 0x20 ADD DUP5 DUP5 DUP2 MLOAD DUP2 LT PUSH2 0x4BF JUMPI INVALID JUMPDEST PUSH1 0x20 SWAP1 DUP2 MUL SWAP2 SWAP1 SWAP2 ADD ADD MLOAD PUSH1 0x40 ADD SWAP2 SWAP1 SWAP2 MSTORE MSTORE PUSH1 0x1 ADD PUSH2 0x3B4 JUMP JUMPDEST POP PUSH1 0x0 PUSH2 0x4E7 DUP5 DUP4 PUSH2 0xE52 JUMP JUMPDEST SWAP1 POP DUP1 ISZERO PUSH2 0x53D JUMPI PUSH2 0x4F9 DUP4 DUP3 PUSH2 0xD6C JUMP JUMPDEST SWAP3 POP DUP4 PUSH1 0x1 PUSH1 0x1 PUSH1 0xA0 SHL SUB AND PUSH32 0x2468F9268C60AD90E2D49EDB0032C8A001E733AE888B3AB8E982EDF535BE1A76 DUP3 PUSH1 0x40 MLOAD PUSH2 0x534 SWAP2 SWAP1 PUSH2 0x1731 JUMP JUMPDEST PUSH1 0x40 MLOAD DUP1 SWAP2 SUB SWAP1 LOG2 JUMPDEST DUP3 PUSH2 0x54F JUMPI PUSH1 0x0 SWAP5 POP POP POP POP POP PUSH2 0x825 JUMP JUMPDEST PUSH1 0x0 DUP4 DUP10 GT PUSH2 0x55E JUMPI DUP9 PUSH2 0x560 JUMP JUMPDEST DUP4 JUMPDEST PUSH1 0x1 PUSH1 0x1 PUSH1 0xA0 SHL SUB DUP7 AND PUSH1 0x0 SWAP1 DUP2 MSTORE PUSH1 0x34 PUSH1 0x20 MSTORE PUSH1 0x40 SWAP1 KECCAK256 DUP2 DUP7 SUB SWAP1 SSTORE SWAP1 POP DUP7 ISZERO PUSH2 0x70F JUMPI PUSH2 0x5C4 PUSH2 0x5BD PUSH1 0x64 PUSH2 0x5B7 DUP5 PUSH32 0x0 PUSH2 0xEC6 JUMP JUMPDEST SWAP1 PUSH2 0xF00 JUMP JUMPDEST DUP3 SWAP1 PUSH2 0xD6C JUMP JUMPDEST PUSH1 0x40 MLOAD PUSH4 0x23B872DD PUSH1 0xE0 SHL DUP2 MSTORE SWAP1 SWAP2 POP PUSH1 0x1 PUSH1 0x1 PUSH1 0xA0 SHL SUB PUSH32 0x0 AND SWAP1 PUSH4 0x23B872DD SWAP1 PUSH2 0x637 SWAP1 PUSH32 0x0 SWAP1 ADDRESS SWAP1 DUP7 SWAP1 PUSH1 0x4 ADD PUSH2 0x1574 JUMP JUMPDEST PUSH1 0x20 PUSH1 0x40 MLOAD DUP1 DUP4 SUB DUP2 PUSH1 0x0 DUP8 DUP1 EXTCODESIZE ISZERO DUP1 ISZERO PUSH2 0x651 JUMPI PUSH1 0x0 DUP1 REVERT JUMPDEST POP GAS CALL ISZERO DUP1 ISZERO PUSH2 0x665 JUMPI RETURNDATASIZE PUSH1 0x0 DUP1 RETURNDATACOPY RETURNDATASIZE PUSH1 0x0 REVERT JUMPDEST POP POP POP POP PUSH1 0x40 MLOAD RETURNDATASIZE PUSH1 0x1F NOT PUSH1 0x1F DUP3 ADD AND DUP3 ADD DUP1 PUSH1 0x40 MSTORE POP DUP2 ADD SWAP1 PUSH2 0x689 SWAP2 SWAP1 PUSH2 0x14FA JUMP JUMPDEST POP PUSH1 0x40 MLOAD PUSH4 0x56E4BB97 PUSH1 0xE1 SHL DUP2 MSTORE PUSH1 0x1 PUSH1 0x1 PUSH1 0xA0 SHL SUB PUSH32 0x0 AND SWAP1 PUSH4 0xADC9772E SWAP1 PUSH2 0x6D8 SWAP1 DUP12 SWAP1 DUP6 SWAP1 PUSH1 0x4 ADD PUSH2 0x1598 JUMP JUMPDEST PUSH1 0x0 PUSH1 0x40 MLOAD DUP1 DUP4 SUB DUP2 PUSH1 0x0 DUP8 DUP1 EXTCODESIZE ISZERO DUP1 ISZERO PUSH2 0x6F2 JUMPI PUSH1 0x0 DUP1 REVERT JUMPDEST POP GAS CALL ISZERO DUP1 ISZERO PUSH2 0x706 JUMPI RETURNDATASIZE PUSH1 0x0 DUP1 RETURNDATACOPY RETURNDATASIZE PUSH1 0x0 REVERT JUMPDEST POP POP POP POP PUSH2 0x7D3 JUMP JUMPDEST PUSH1 0x40 MLOAD PUSH4 0x23B872DD PUSH1 0xE0 SHL DUP2 MSTORE PUSH1 0x1 PUSH1 0x1 PUSH1 0xA0 SHL SUB PUSH32 0x0 AND SWAP1 PUSH4 0x23B872DD SWAP1 PUSH2 0x77F SWAP1 PUSH32 0x0 SWAP1 DUP13 SWAP1 DUP7 SWAP1 PUSH1 0x4 ADD PUSH2 0x1574 JUMP JUMPDEST PUSH1 0x20 PUSH1 0x40 MLOAD DUP1 DUP4 SUB DUP2 PUSH1 0x0 DUP8 DUP1 EXTCODESIZE ISZERO DUP1 ISZERO PUSH2 0x799 JUMPI PUSH1 0x0 DUP1 REVERT JUMPDEST POP GAS CALL ISZERO DUP1 ISZERO PUSH2 0x7AD JUMPI RETURNDATASIZE PUSH1 0x0 DUP1 RETURNDATACOPY RETURNDATASIZE PUSH1 0x0 REVERT JUMPDEST POP POP POP POP PUSH1 0x40 MLOAD RETURNDATASIZE PUSH1 0x1F NOT PUSH1 0x1F DUP3 ADD AND DUP3 ADD DUP1 PUSH1 0x40 MSTORE POP DUP2 ADD SWAP1 PUSH2 0x7D1 SWAP2 SWAP1 PUSH2 0x14FA JUMP JUMPDEST POP JUMPDEST DUP8 PUSH1 0x1 PUSH1 0x1 PUSH1 0xA0 SHL SUB AND CALLER PUSH1 0x1 PUSH1 0x1 PUSH1 0xA0 SHL SUB AND PUSH32 0x9310CCFCB8DE723F578A9E4282EA9F521F05AE40DC08F3068DFAD528A65EE3C7 DUP4 PUSH1 0x40 MLOAD PUSH2 0x816 SWAP2 SWAP1 PUSH2 0x1731 JUMP JUMPDEST PUSH1 0x40 MLOAD DUP1 SWAP2 SUB SWAP1 LOG3 SWAP5 POP POP POP POP POP JUMPDEST SWAP6 SWAP5 POP POP POP POP POP JUMP JUMPDEST PUSH1 0x0 PUSH2 0x838 PUSH2 0xF42 JUMP JUMPDEST SWAP1 POP PUSH1 0x0 SLOAD DUP2 GT PUSH2 0x864 JUMPI PUSH1 0x40 MLOAD PUSH3 0x461BCD PUSH1 0xE5 SHL DUP2 MSTORE PUSH1 0x4 ADD PUSH2 0x85B SWAP1 PUSH2 0x167C JUMP JUMPDEST PUSH1 0x40 MLOAD DUP1 SWAP2 SUB SWAP1 REVERT JUMPDEST PUSH1 0x0 DUP2 SWAP1 SSTORE PUSH1 0x40 MLOAD PUSH4 0x95EA7B3 PUSH1 0xE0 SHL DUP2 MSTORE PUSH1 0x1 PUSH1 0x1 PUSH1 0xA0 SHL SUB PUSH32 0x0 AND SWAP1 PUSH4 0x95EA7B3 SWAP1 PUSH2 0x8D9 SWAP1 PUSH32 0x0 SWAP1 PUSH1 0x0 NOT SWAP1 PUSH1 0x4 ADD PUSH2 0x1598 JUMP JUMPDEST PUSH1 0x20 PUSH1 0x40 MLOAD DUP1 DUP4 SUB DUP2 PUSH1 0x0 DUP8 DUP1 EXTCODESIZE ISZERO DUP1 ISZERO PUSH2 0x8F3 JUMPI PUSH1 0x0 DUP1 REVERT JUMPDEST POP GAS CALL ISZERO DUP1 ISZERO PUSH2 0x907 JUMPI RETURNDATASIZE PUSH1 0x0 DUP1 RETURNDATACOPY RETURNDATASIZE PUSH1 0x0 REVERT JUMPDEST POP POP POP POP PUSH1 0x40 MLOAD RETURNDATASIZE PUSH1 0x1F NOT PUSH1 0x1F DUP3 ADD AND DUP3 ADD DUP1 PUSH1 0x40 MSTORE POP DUP2 ADD SWAP1 PUSH2 0x92B SWAP2 SWAP1 PUSH2 0x14FA JUMP JUMPDEST POP POP JUMP JUMPDEST PUSH1 0x1 PUSH1 0x1 PUSH1 0xA0 SHL SUB DUP2 AND PUSH1 0x0 SWAP1 DUP2 MSTORE PUSH1 0x34 PUSH1 0x20 MSTORE PUSH1 0x40 DUP2 KECCAK256 SLOAD PUSH1 0x60 DUP5 PUSH8 0xFFFFFFFFFFFFFFFF DUP2 GT DUP1 ISZERO PUSH2 0x961 JUMPI PUSH1 0x0 DUP1 REVERT JUMPDEST POP PUSH1 0x40 MLOAD SWAP1 DUP1 DUP3 MSTORE DUP1 PUSH1 0x20 MUL PUSH1 0x20 ADD DUP3 ADD PUSH1 0x40 MSTORE DUP1 ISZERO PUSH2 0x99B JUMPI DUP2 PUSH1 0x20 ADD JUMPDEST PUSH2 0x988 PUSH2 0x12AE JUMP JUMPDEST DUP2 MSTORE PUSH1 0x20 ADD SWAP1 PUSH1 0x1 SWAP1 SUB SWAP1 DUP2 PUSH2 0x980 JUMPI SWAP1 POP JUMPDEST POP SWAP1 POP PUSH1 0x0 JUMPDEST DUP6 DUP2 LT ISZERO PUSH2 0xAC7 JUMPI DUP7 DUP7 DUP3 DUP2 DUP2 LT PUSH2 0x9B5 JUMPI INVALID JUMPDEST SWAP1 POP PUSH1 0x20 MUL ADD PUSH1 0x20 DUP2 ADD SWAP1 PUSH2 0x9CA SWAP2 SWAP1 PUSH2 0x1338 JUMP JUMPDEST DUP3 DUP3 DUP2 MLOAD DUP2 LT PUSH2 0x9D6 JUMPI INVALID JUMPDEST PUSH1 0x20 SWAP1 DUP2 MUL SWAP2 SWAP1 SWAP2 ADD ADD MLOAD PUSH1 0x1 PUSH1 0x1 PUSH1 0xA0 SHL SUB SWAP1 SWAP2 AND SWAP1 MSTORE DUP7 DUP7 DUP3 DUP2 DUP2 LT PUSH2 0x9FA JUMPI INVALID JUMPDEST SWAP1 POP PUSH1 0x20 MUL ADD PUSH1 0x20 DUP2 ADD SWAP1 PUSH2 0xA0F SWAP2 SWAP1 PUSH2 0x1338 JUMP JUMPDEST PUSH1 0x1 PUSH1 0x1 PUSH1 0xA0 SHL SUB AND PUSH4 0xAFBCDC9 DUP7 PUSH1 0x40 MLOAD DUP3 PUSH4 0xFFFFFFFF AND PUSH1 0xE0 SHL DUP2 MSTORE PUSH1 0x4 ADD PUSH2 0xA3A SWAP2 SWAP1 PUSH2 0x1560 JUMP JUMPDEST PUSH1 0x40 DUP1 MLOAD DUP1 DUP4 SUB DUP2 DUP7 DUP1 EXTCODESIZE ISZERO DUP1 ISZERO PUSH2 0xA51 JUMPI PUSH1 0x0 DUP1 REVERT JUMPDEST POP GAS STATICCALL ISZERO DUP1 ISZERO PUSH2 0xA65 JUMPI RETURNDATASIZE PUSH1 0x0 DUP1 RETURNDATACOPY RETURNDATASIZE PUSH1 0x0 REVERT JUMPDEST POP POP POP POP PUSH1 0x40 MLOAD RETURNDATASIZE PUSH1 0x1F NOT PUSH1 0x1F DUP3 ADD AND DUP3 ADD DUP1 PUSH1 0x40 MSTORE POP DUP2 ADD SWAP1 PUSH2 0xA89 SWAP2 SWAP1 PUSH2 0x153D JUMP JUMPDEST DUP4 DUP4 DUP2 MLOAD DUP2 LT PUSH2 0xA95 JUMPI INVALID JUMPDEST PUSH1 0x20 MUL PUSH1 0x20 ADD ADD MLOAD PUSH1 0x20 ADD DUP5 DUP5 DUP2 MLOAD DUP2 LT PUSH2 0xAAC JUMPI INVALID JUMPDEST PUSH1 0x20 SWAP1 DUP2 MUL SWAP2 SWAP1 SWAP2 ADD ADD MLOAD PUSH1 0x40 ADD SWAP2 SWAP1 SWAP2 MSTORE MSTORE PUSH1 0x1 ADD PUSH2 0x9A1 JUMP JUMPDEST POP PUSH2 0xADC PUSH2 0xAD5 DUP6 DUP4 PUSH2 0xF47 JUMP JUMPDEST DUP4 SWAP1 PUSH2 0xD6C JUMP JUMPDEST SWAP3 POP POP POP JUMPDEST SWAP4 SWAP3 POP POP POP JUMP JUMPDEST PUSH32 0x0 DUP2 JUMP JUMPDEST PUSH32 0x0 DUP2 JUMP JUMPDEST PUSH32 0x0 DUP2 JUMP JUMPDEST PUSH1 0x12 DUP2 JUMP JUMPDEST CALLER PUSH1 0x1 PUSH1 0x1 PUSH1 0xA0 SHL SUB PUSH32 0x0 AND EQ PUSH2 0xBA1 JUMPI PUSH1 0x40 MLOAD PUSH3 0x461BCD PUSH1 0xE5 SHL DUP2 MSTORE PUSH1 0x4 ADD PUSH2 0x85B SWAP1 PUSH2 0x16CA JUMP JUMPDEST PUSH1 0x0 JUMPDEST DUP2 DUP2 LT ISZERO PUSH2 0xD10 JUMPI PUSH1 0x0 PUSH1 0x33 PUSH1 0x0 DUP6 DUP6 DUP6 DUP2 DUP2 LT PUSH2 0xBBE JUMPI INVALID JUMPDEST SWAP1 POP PUSH1 0x60 MUL ADD PUSH1 0x40 ADD PUSH1 0x20 DUP2 ADD SWAP1 PUSH2 0xBD6 SWAP2 SWAP1 PUSH2 0x1338 JUMP JUMPDEST PUSH1 0x1 PUSH1 0x1 PUSH1 0xA0 SHL SUB AND PUSH1 0x1 PUSH1 0x1 PUSH1 0xA0 SHL SUB AND DUP2 MSTORE PUSH1 0x20 ADD SWAP1 DUP2 MSTORE PUSH1 0x20 ADD PUSH1 0x0 KECCAK256 SWAP1 POP PUSH2 0xC3B DUP5 DUP5 DUP5 DUP2 DUP2 LT PUSH2 0xC07 JUMPI INVALID JUMPDEST SWAP1 POP PUSH1 0x60 MUL ADD PUSH1 0x40 ADD PUSH1 0x20 DUP2 ADD SWAP1 PUSH2 0xC1F SWAP2 SWAP1 PUSH2 0x1338 JUMP JUMPDEST DUP3 DUP7 DUP7 DUP7 DUP2 DUP2 LT PUSH2 0xC2C JUMPI INVALID JUMPDEST SWAP1 POP PUSH1 0x60 MUL ADD PUSH1 0x20 ADD CALLDATALOAD PUSH2 0x1030 JUMP JUMPDEST POP DUP4 DUP4 DUP4 DUP2 DUP2 LT PUSH2 0xC48 JUMPI INVALID JUMPDEST PUSH2 0xC5E SWAP3 PUSH1 0x20 PUSH1 0x60 SWAP1 SWAP3 MUL ADD SWAP1 DUP2 ADD SWAP2 POP PUSH2 0x1516 JUMP JUMPDEST DUP2 SLOAD PUSH16 0xFFFFFFFFFFFFFFFFFFFFFFFFFFFFFFFF NOT AND PUSH1 0x1 PUSH1 0x1 PUSH1 0x80 SHL SUB SWAP2 SWAP1 SWAP2 AND OR DUP2 SSTORE DUP4 DUP4 DUP4 DUP2 DUP2 LT PUSH2 0xC8E JUMPI INVALID JUMPDEST SWAP1 POP PUSH1 0x60 MUL ADD PUSH1 0x40 ADD PUSH1 0x20 DUP2 ADD SWAP1 PUSH2 0xCA6 SWAP2 SWAP1 PUSH2 0x1338 JUMP JUMPDEST PUSH1 0x1 PUSH1 0x1 PUSH1 0xA0 SHL SUB AND PUSH32 0x87FA03892A0556CB6B8F97E6D533A150D4D55FCBF275FFF5FA003FA636BCC7FA DUP6 DUP6 DUP6 DUP2 DUP2 LT PUSH2 0xCDC JUMPI INVALID JUMPDEST PUSH2 0xCF2 SWAP3 PUSH1 0x20 PUSH1 0x60 SWAP1 SWAP3 MUL ADD SWAP1 DUP2 ADD SWAP2 POP PUSH2 0x1516 JUMP JUMPDEST PUSH1 0x40 MLOAD PUSH2 0xCFF SWAP2 SWAP1 PUSH2 0x16F9 JUMP JUMPDEST PUSH1 0x40 MLOAD DUP1 SWAP2 SUB SWAP1 LOG2 POP PUSH1 0x1 ADD PUSH2 0xBA4 JUMP JUMPDEST POP POP POP JUMP JUMPDEST PUSH32 0x0 DUP2 JUMP JUMPDEST PUSH1 0x1 DUP2 JUMP JUMPDEST PUSH1 0x33 PUSH1 0x20 MSTORE PUSH1 0x0 SWAP1 DUP2 MSTORE PUSH1 0x40 SWAP1 KECCAK256 DUP1 SLOAD PUSH1 0x1 SWAP1 SWAP2 ADD SLOAD PUSH1 0x1 PUSH1 0x1 PUSH1 0x80 SHL SUB DUP1 DUP4 AND SWAP3 PUSH1 0x1 PUSH1 0x80 SHL SWAP1 DIV AND SWAP1 DUP4 JUMP JUMPDEST PUSH1 0x0 DUP3 DUP3 ADD DUP4 DUP2 LT ISZERO PUSH2 0xAE1 JUMPI PUSH1 0x40 MLOAD PUSH3 0x461BCD PUSH1 0xE5 SHL DUP2 MSTORE PUSH1 0x4 ADD PUSH2 0x85B SWAP1 PUSH2 0x1604 JUMP JUMPDEST PUSH1 0x1 PUSH1 0x1 PUSH1 0xA0 SHL SUB DUP1 DUP5 AND PUSH1 0x0 SWAP1 DUP2 MSTORE PUSH1 0x33 PUSH1 0x20 SWAP1 DUP2 MSTORE PUSH1 0x40 DUP1 DUP4 KECCAK256 SWAP4 DUP9 AND DUP4 MSTORE PUSH1 0x2 DUP5 ADD SWAP1 SWAP2 MSTORE DUP2 KECCAK256 SLOAD SWAP1 SWAP2 SWAP1 DUP3 DUP1 PUSH2 0xDCC DUP9 DUP6 DUP9 PUSH2 0x1030 JUMP JUMPDEST SWAP1 POP DUP1 DUP4 EQ PUSH2 0xE44 JUMPI DUP7 ISZERO PUSH2 0xDE9 JUMPI PUSH2 0xDE6 DUP8 DUP3 DUP6 PUSH2 0x10ED JUMP JUMPDEST SWAP2 POP JUMPDEST PUSH1 0x1 PUSH1 0x1 PUSH1 0xA0 SHL SUB DUP1 DUP11 AND PUSH1 0x0 DUP2 DUP2 MSTORE PUSH1 0x2 DUP8 ADD PUSH1 0x20 MSTORE PUSH1 0x40 SWAP1 DUP2 SWAP1 KECCAK256 DUP5 SWAP1 SSTORE MLOAD SWAP2 DUP11 AND SWAP2 PUSH32 0xBB123B5C06D5408BBEA3C4FEF481578175CFB432E3B482C6186F02ED9086585B SWAP1 PUSH2 0xE3B SWAP1 DUP6 SWAP1 PUSH2 0x1731 JUMP JUMPDEST PUSH1 0x40 MLOAD DUP1 SWAP2 SUB SWAP1 LOG3 JUMPDEST POP SWAP3 POP POP POP JUMPDEST SWAP5 SWAP4 POP POP POP POP JUMP JUMPDEST PUSH1 0x0 DUP1 DUP1 JUMPDEST DUP4 MLOAD DUP2 LT ISZERO PUSH2 0xEBE JUMPI PUSH2 0xEB4 PUSH2 0xAD5 DUP7 DUP7 DUP5 DUP2 MLOAD DUP2 LT PUSH2 0xE73 JUMPI INVALID JUMPDEST PUSH1 0x20 MUL PUSH1 0x20 ADD ADD MLOAD PUSH1 0x0 ADD MLOAD DUP8 DUP6 DUP2 MLOAD DUP2 LT PUSH2 0xE8B JUMPI INVALID JUMPDEST PUSH1 0x20 MUL PUSH1 0x20 ADD ADD MLOAD PUSH1 0x20 ADD MLOAD DUP9 DUP7 DUP2 MLOAD DUP2 LT PUSH2 0xEA3 JUMPI INVALID JUMPDEST PUSH1 0x20 MUL PUSH1 0x20 ADD ADD MLOAD PUSH1 0x40 ADD MLOAD PUSH2 0xD91 JUMP JUMPDEST SWAP2 POP PUSH1 0x1 ADD PUSH2 0xE57 JUMP JUMPDEST POP SWAP4 SWAP3 POP POP POP JUMP JUMPDEST PUSH1 0x0 DUP3 PUSH2 0xED5 JUMPI POP PUSH1 0x0 PUSH2 0x2EE JUMP JUMPDEST DUP3 DUP3 MUL DUP3 DUP5 DUP3 DUP2 PUSH2 0xEE2 JUMPI INVALID JUMPDEST DIV EQ PUSH2 0xAE1 JUMPI PUSH1 0x40 MLOAD PUSH3 0x461BCD PUSH1 0xE5 SHL DUP2 MSTORE PUSH1 0x4 ADD PUSH2 0x85B SWAP1 PUSH2 0x163B JUMP JUMPDEST PUSH1 0x0 PUSH2 0xAE1 DUP4 DUP4 PUSH1 0x40 MLOAD DUP1 PUSH1 0x40 ADD PUSH1 0x40 MSTORE DUP1 PUSH1 0x1A DUP2 MSTORE PUSH1 0x20 ADD PUSH32 0x536166654D6174683A206469766973696F6E206279207A65726F000000000000 DUP2 MSTORE POP PUSH2 0x110F JUMP JUMPDEST PUSH1 0x1 SWAP1 JUMP JUMPDEST PUSH1 0x0 DUP1 DUP1 JUMPDEST DUP4 MLOAD DUP2 LT ISZERO PUSH2 0xEBE JUMPI PUSH1 0x0 PUSH1 0x33 PUSH1 0x0 DUP7 DUP5 DUP2 MLOAD DUP2 LT PUSH2 0xF67 JUMPI INVALID JUMPDEST PUSH1 0x20 SWAP1 DUP2 MUL SWAP2 SWAP1 SWAP2 ADD DUP2 ADD MLOAD MLOAD PUSH1 0x1 PUSH1 0x1 PUSH1 0xA0 SHL SUB AND DUP3 MSTORE DUP2 ADD SWAP2 SWAP1 SWAP2 MSTORE PUSH1 0x40 ADD PUSH1 0x0 SWAP1 DUP2 KECCAK256 PUSH1 0x1 DUP2 ADD SLOAD DUP2 SLOAD DUP9 MLOAD SWAP3 SWAP5 POP PUSH2 0xFCF SWAP3 PUSH1 0x1 PUSH1 0x1 PUSH1 0x80 SHL SUB DUP1 DUP4 AND SWAP3 PUSH1 0x1 PUSH1 0x80 SHL SWAP1 DIV AND SWAP1 DUP11 SWAP1 DUP9 SWAP1 DUP2 LT PUSH2 0xFBE JUMPI INVALID JUMPDEST PUSH1 0x20 MUL PUSH1 0x20 ADD ADD MLOAD PUSH1 0x40 ADD MLOAD PUSH2 0x1146 JUMP JUMPDEST SWAP1 POP PUSH2 0x1024 PUSH2 0x101D DUP8 DUP6 DUP2 MLOAD DUP2 LT PUSH2 0xFE3 JUMPI INVALID JUMPDEST PUSH1 0x20 MUL PUSH1 0x20 ADD ADD MLOAD PUSH1 0x20 ADD MLOAD DUP4 DUP6 PUSH1 0x2 ADD PUSH1 0x0 DUP13 PUSH1 0x1 PUSH1 0x1 PUSH1 0xA0 SHL SUB AND PUSH1 0x1 PUSH1 0x1 PUSH1 0xA0 SHL SUB AND DUP2 MSTORE PUSH1 0x20 ADD SWAP1 DUP2 MSTORE PUSH1 0x20 ADD PUSH1 0x0 KECCAK256 SLOAD PUSH2 0x10ED JUMP JUMPDEST DUP6 SWAP1 PUSH2 0xD6C JUMP JUMPDEST SWAP4 POP POP POP PUSH1 0x1 ADD PUSH2 0xF4C JUMP JUMPDEST PUSH1 0x1 DUP3 ADD SLOAD DUP3 SLOAD PUSH1 0x0 SWAP2 SWAP1 PUSH1 0x1 PUSH1 0x80 SHL SWAP1 DIV PUSH1 0x1 PUSH1 0x1 PUSH1 0x80 SHL SUB AND TIMESTAMP DUP2 EQ ISZERO PUSH2 0x105B JUMPI POP SWAP1 POP PUSH2 0xAE1 JUMP JUMPDEST DUP5 SLOAD PUSH1 0x0 SWAP1 PUSH2 0x1076 SWAP1 DUP5 SWAP1 PUSH1 0x1 PUSH1 0x1 PUSH1 0x80 SHL SUB AND DUP5 DUP9 PUSH2 0x1146 JUMP JUMPDEST SWAP1 POP DUP3 DUP2 EQ PUSH2 0x10CA JUMPI DUP1 DUP7 PUSH1 0x1 ADD DUP2 SWAP1 SSTORE POP DUP7 PUSH1 0x1 PUSH1 0x1 PUSH1 0xA0 SHL SUB AND PUSH32 0x5777CA300DFE5BEAD41006FBCE4389794DBC0ED8D6CCCEBFAF94630AA04184BC DUP3 PUSH1 0x40 MLOAD PUSH2 0x10C1 SWAP2 SWAP1 PUSH2 0x1731 JUMP JUMPDEST PUSH1 0x40 MLOAD DUP1 SWAP2 SUB SWAP1 LOG2 JUMPDEST DUP6 SLOAD PUSH1 0x1 PUSH1 0x1 PUSH1 0x80 SHL SUB TIMESTAMP DUP2 AND PUSH1 0x1 PUSH1 0x80 SHL MUL SWAP2 AND OR DUP7 SSTORE SWAP3 POP POP POP SWAP4 SWAP3 POP POP POP JUMP JUMPDEST PUSH1 0x0 PUSH2 0xE4A PUSH8 0xDE0B6B3A7640000 PUSH2 0x5B7 PUSH2 0x1108 DUP7 DUP7 PUSH2 0x1245 JUMP JUMPDEST DUP8 SWAP1 PUSH2 0xEC6 JUMP JUMPDEST PUSH1 0x0 DUP2 DUP4 PUSH2 0x1130 JUMPI PUSH1 0x40 MLOAD PUSH3 0x461BCD PUSH1 0xE5 SHL DUP2 MSTORE PUSH1 0x4 ADD PUSH2 0x85B SWAP2 SWAP1 PUSH2 0x15B1 JUMP JUMPDEST POP PUSH1 0x0 DUP4 DUP6 DUP2 PUSH2 0x113C JUMPI INVALID JUMPDEST DIV SWAP6 SWAP5 POP POP POP POP POP JUMP JUMPDEST PUSH1 0x0 DUP4 ISZERO DUP1 PUSH2 0x1153 JUMPI POP DUP2 ISZERO JUMPDEST DUP1 PUSH2 0x1166 JUMPI POP TIMESTAMP DUP4 PUSH1 0x1 PUSH1 0x1 PUSH1 0x80 SHL SUB AND EQ JUMPDEST DUP1 PUSH2 0x119A JUMPI POP PUSH32 0x0 DUP4 PUSH1 0x1 PUSH1 0x1 PUSH1 0x80 SHL SUB AND LT ISZERO JUMPDEST ISZERO PUSH2 0x11A6 JUMPI POP DUP4 PUSH2 0xE4A JUMP JUMPDEST PUSH1 0x0 PUSH32 0x0 TIMESTAMP GT PUSH2 0x11D5 JUMPI TIMESTAMP PUSH2 0x11F7 JUMP JUMPDEST PUSH32 0x0 JUMPDEST SWAP1 POP PUSH1 0x0 PUSH2 0x120E DUP3 PUSH1 0x1 PUSH1 0x1 PUSH1 0x80 SHL SUB DUP8 AND PUSH2 0x1245 JUMP JUMPDEST SWAP1 POP PUSH2 0x123A DUP8 PUSH2 0x1234 DUP7 PUSH2 0x5B7 PUSH8 0xDE0B6B3A7640000 PUSH2 0x122E DUP13 DUP9 PUSH2 0xEC6 JUMP JUMPDEST SWAP1 PUSH2 0xEC6 JUMP JUMPDEST SWAP1 PUSH2 0xD6C JUMP JUMPDEST SWAP8 SWAP7 POP POP POP POP POP POP POP JUMP JUMPDEST PUSH1 0x0 PUSH2 0xAE1 DUP4 DUP4 PUSH1 0x40 MLOAD DUP1 PUSH1 0x40 ADD PUSH1 0x40 MSTORE DUP1 PUSH1 0x1E DUP2 MSTORE PUSH1 0x20 ADD PUSH32 0x536166654D6174683A207375627472616374696F6E206F766572666C6F770000 DUP2 MSTORE POP PUSH1 0x0 DUP2 DUP5 DUP5 GT ISZERO PUSH2 0x12A6 JUMPI PUSH1 0x40 MLOAD PUSH3 0x461BCD PUSH1 0xE5 SHL DUP2 MSTORE PUSH1 0x4 ADD PUSH2 0x85B SWAP2 SWAP1 PUSH2 0x15B1 JUMP JUMPDEST POP POP POP SWAP1 SUB SWAP1 JUMP JUMPDEST PUSH1 0x40 MLOAD DUP1 PUSH1 0x60 ADD PUSH1 0x40 MSTORE DUP1 PUSH1 0x0 PUSH1 0x1 PUSH1 0x1 PUSH1 0xA0 SHL SUB AND DUP2 MSTORE PUSH1 0x20 ADD PUSH1 0x0 DUP2 MSTORE PUSH1 0x20 ADD PUSH1 0x0 DUP2 MSTORE POP SWAP1 JUMP JUMPDEST DUP1 CALLDATALOAD PUSH1 0x1 PUSH1 0x1 PUSH1 0xA0 SHL SUB DUP2 AND DUP2 EQ PUSH2 0x2EE JUMPI PUSH1 0x0 DUP1 REVERT JUMPDEST PUSH1 0x0 DUP1 DUP4 PUSH1 0x1F DUP5 ADD SLT PUSH2 0x1300 JUMPI DUP2 DUP3 REVERT JUMPDEST POP DUP2 CALLDATALOAD PUSH8 0xFFFFFFFFFFFFFFFF DUP2 GT ISZERO PUSH2 0x1317 JUMPI DUP2 DUP3 REVERT JUMPDEST PUSH1 0x20 DUP4 ADD SWAP2 POP DUP4 PUSH1 0x20 DUP1 DUP4 MUL DUP6 ADD ADD GT ISZERO PUSH2 0x1331 JUMPI PUSH1 0x0 DUP1 REVERT JUMPDEST SWAP3 POP SWAP3 SWAP1 POP JUMP JUMPDEST PUSH1 0x0 PUSH1 0x20 DUP3 DUP5 SUB SLT ISZERO PUSH2 0x1349 JUMPI DUP1 DUP2 REVERT JUMPDEST PUSH2 0xAE1 DUP4 DUP4 PUSH2 0x12D8 JUMP JUMPDEST PUSH1 0x0 DUP1 PUSH1 0x40 DUP4 DUP6 SUB SLT ISZERO PUSH2 0x1365 JUMPI DUP1 DUP2 REVERT JUMPDEST PUSH2 0x136F DUP5 DUP5 PUSH2 0x12D8 JUMP JUMPDEST SWAP2 POP PUSH2 0x137E DUP5 PUSH1 0x20 DUP6 ADD PUSH2 0x12D8 JUMP JUMPDEST SWAP1 POP SWAP3 POP SWAP3 SWAP1 POP JUMP JUMPDEST PUSH1 0x0 DUP1 PUSH1 0x0 PUSH1 0x60 DUP5 DUP7 SUB SLT ISZERO PUSH2 0x139B JUMPI DUP1 DUP2 REVERT JUMPDEST PUSH2 0x13A5 DUP6 DUP6 PUSH2 0x12D8 JUMP JUMPDEST SWAP6 PUSH1 0x20 DUP6 ADD CALLDATALOAD SWAP6 POP PUSH1 0x40 SWAP1 SWAP5 ADD CALLDATALOAD SWAP4 SWAP3 POP POP POP JUMP JUMPDEST PUSH1 0x0 DUP1 PUSH1 0x0 PUSH1 0x40 DUP5 DUP7 SUB SLT ISZERO PUSH2 0x13CE JUMPI DUP3 DUP4 REVERT JUMPDEST DUP4 CALLDATALOAD PUSH8 0xFFFFFFFFFFFFFFFF DUP2 GT ISZERO PUSH2 0x13E4 JUMPI DUP4 DUP5 REVERT JUMPDEST PUSH2 0x13F0 DUP7 DUP3 DUP8 ADD PUSH2 0x12EF JUMP JUMPDEST SWAP1 SWAP5 POP SWAP3 POP PUSH2 0x1404 SWAP1 POP DUP6 PUSH1 0x20 DUP7 ADD PUSH2 0x12D8 JUMP JUMPDEST SWAP1 POP SWAP3 POP SWAP3 POP SWAP3 JUMP JUMPDEST PUSH1 0x0 DUP1 PUSH1 0x0 DUP1 PUSH1 0x0 PUSH1 0x80 DUP7 DUP9 SUB SLT ISZERO PUSH2 0x1424 JUMPI DUP1 DUP2 REVERT JUMPDEST DUP6 CALLDATALOAD PUSH8 0xFFFFFFFFFFFFFFFF DUP2 GT ISZERO PUSH2 0x143A JUMPI DUP2 DUP3 REVERT JUMPDEST PUSH2 0x1446 DUP9 DUP3 DUP10 ADD PUSH2 0x12EF JUMP JUMPDEST SWAP1 SWAP7 POP SWAP5 POP POP PUSH1 0x20 DUP7 ADD CALLDATALOAD SWAP3 POP PUSH1 0x40 DUP7 ADD CALLDATALOAD PUSH1 0x1 PUSH1 0x1 PUSH1 0xA0 SHL SUB DUP2 AND DUP2 EQ PUSH2 0x146C JUMPI DUP2 DUP3 REVERT JUMPDEST SWAP2 POP PUSH1 0x60 DUP7 ADD CALLDATALOAD PUSH2 0x147C DUP2 PUSH2 0x1748 JUMP JUMPDEST DUP1 SWAP2 POP POP SWAP3 SWAP6 POP SWAP3 SWAP6 SWAP1 SWAP4 POP JUMP JUMPDEST PUSH1 0x0 DUP1 PUSH1 0x20 DUP4 DUP6 SUB SLT ISZERO PUSH2 0x149C JUMPI DUP2 DUP3 REVERT JUMPDEST DUP3 CALLDATALOAD PUSH8 0xFFFFFFFFFFFFFFFF DUP1 DUP3 GT ISZERO PUSH2 0x14B3 JUMPI DUP4 DUP5 REVERT JUMPDEST DUP2 DUP6 ADD SWAP2 POP DUP6 PUSH1 0x1F DUP4 ADD SLT PUSH2 0x14C6 JUMPI DUP4 DUP5 REVERT JUMPDEST DUP2 CALLDATALOAD DUP2 DUP2 GT ISZERO PUSH2 0x14D4 JUMPI DUP5 DUP6 REVERT JUMPDEST DUP7 PUSH1 0x20 PUSH1 0x60 DUP4 MUL DUP6 ADD ADD GT ISZERO PUSH2 0x14E8 JUMPI DUP5 DUP6 REVERT JUMPDEST PUSH1 0x20 SWAP3 SWAP1 SWAP3 ADD SWAP7 SWAP2 SWAP6 POP SWAP1 SWAP4 POP POP POP POP JUMP JUMPDEST PUSH1 0x0 PUSH1 0x20 DUP3 DUP5 SUB SLT ISZERO PUSH2 0x150B JUMPI DUP1 DUP2 REVERT JUMPDEST DUP2 MLOAD PUSH2 0xAE1 DUP2 PUSH2 0x1748 JUMP JUMPDEST PUSH1 0x0 PUSH1 0x20 DUP3 DUP5 SUB SLT ISZERO PUSH2 0x1527 JUMPI DUP1 DUP2 REVERT JUMPDEST DUP2 CALLDATALOAD PUSH1 0x1 PUSH1 0x1 PUSH1 0x80 SHL SUB DUP2 AND DUP2 EQ PUSH2 0xAE1 JUMPI DUP2 DUP3 REVERT JUMPDEST PUSH1 0x0 DUP1 PUSH1 0x40 DUP4 DUP6 SUB SLT ISZERO PUSH2 0x154F JUMPI DUP2 DUP3 REVERT JUMPDEST POP POP DUP1 MLOAD PUSH1 0x20 SWAP1 SWAP2 ADD MLOAD SWAP1 SWAP3 SWAP1 SWAP2 POP JUMP JUMPDEST PUSH1 0x1 PUSH1 0x1 PUSH1 0xA0 SHL SUB SWAP2 SWAP1 SWAP2 AND DUP2 MSTORE PUSH1 0x20 ADD SWAP1 JUMP JUMPDEST PUSH1 0x1 PUSH1 0x1 PUSH1 0xA0 SHL SUB SWAP4 DUP5 AND DUP2 MSTORE SWAP2 SWAP1 SWAP3 AND PUSH1 0x20 DUP3 ADD MSTORE PUSH1 0x40 DUP2 ADD SWAP2 SWAP1 SWAP2 MSTORE PUSH1 0x60 ADD SWAP1 JUMP JUMPDEST PUSH1 0x1 PUSH1 0x1 PUSH1 0xA0 SHL SUB SWAP3 SWAP1 SWAP3 AND DUP3 MSTORE PUSH1 0x20 DUP3 ADD MSTORE PUSH1 0x40 ADD SWAP1 JUMP JUMPDEST PUSH1 0x0 PUSH1 0x20 DUP1 DUP4 MSTORE DUP4 MLOAD DUP1 DUP3 DUP6 ADD MSTORE DUP3 JUMPDEST DUP2 DUP2 LT ISZERO PUSH2 0x15DD JUMPI DUP6 DUP2 ADD DUP4 ADD MLOAD DUP6 DUP3 ADD PUSH1 0x40 ADD MSTORE DUP3 ADD PUSH2 0x15C1 JUMP JUMPDEST DUP2 DUP2 GT ISZERO PUSH2 0x15EE JUMPI DUP4 PUSH1 0x40 DUP4 DUP8 ADD ADD MSTORE JUMPDEST POP PUSH1 0x1F ADD PUSH1 0x1F NOT AND SWAP3 SWAP1 SWAP3 ADD PUSH1 0x40 ADD SWAP4 SWAP3 POP POP POP JUMP JUMPDEST PUSH1 0x20 DUP1 DUP3 MSTORE PUSH1 0x1B SWAP1 DUP3 ADD MSTORE PUSH32 0x536166654D6174683A206164646974696F6E206F766572666C6F770000000000 PUSH1 0x40 DUP3 ADD MSTORE PUSH1 0x60 ADD SWAP1 JUMP JUMPDEST PUSH1 0x20 DUP1 DUP3 MSTORE PUSH1 0x21 SWAP1 DUP3 ADD MSTORE PUSH32 0x536166654D6174683A206D756C7469706C69636174696F6E206F766572666C6F PUSH1 0x40 DUP3 ADD MSTORE PUSH1 0x77 PUSH1 0xF8 SHL PUSH1 0x60 DUP3 ADD MSTORE PUSH1 0x80 ADD SWAP1 JUMP JUMPDEST PUSH1 0x20 DUP1 DUP3 MSTORE PUSH1 0x2E SWAP1 DUP3 ADD MSTORE PUSH32 0x436F6E747261637420696E7374616E63652068617320616C7265616479206265 PUSH1 0x40 DUP3 ADD MSTORE PUSH14 0x195B881A5B9A5D1A585B1A5E9959 PUSH1 0x92 SHL PUSH1 0x60 DUP3 ADD MSTORE PUSH1 0x80 ADD SWAP1 JUMP JUMPDEST PUSH1 0x20 DUP1 DUP3 MSTORE PUSH1 0x15 SWAP1 DUP3 ADD MSTORE PUSH21 0x27A7262CAFA2A6A4A9A9A4A7A72FA6A0A720A3A2A9 PUSH1 0x59 SHL PUSH1 0x40 DUP3 ADD MSTORE PUSH1 0x60 ADD SWAP1 JUMP JUMPDEST PUSH1 0x1 PUSH1 0x1 PUSH1 0x80 SHL SUB SWAP2 SWAP1 SWAP2 AND DUP2 MSTORE PUSH1 0x20 ADD SWAP1 JUMP JUMPDEST PUSH1 0x1 PUSH1 0x1 PUSH1 0x80 SHL SUB SWAP4 DUP5 AND DUP2 MSTORE SWAP2 SWAP1 SWAP3 AND PUSH1 0x20 DUP3 ADD MSTORE PUSH1 0x40 DUP2 ADD SWAP2 SWAP1 SWAP2 MSTORE PUSH1 0x60 ADD SWAP1 JUMP JUMPDEST SWAP1 DUP2 MSTORE PUSH1 0x20 ADD SWAP1 JUMP JUMPDEST PUSH1 0xFF SWAP2 SWAP1 SWAP2 AND DUP2 MSTORE PUSH1 0x20 ADD SWAP1 JUMP JUMPDEST DUP1 ISZERO ISZERO DUP2 EQ PUSH2 0x1756 JUMPI PUSH1 0x0 DUP1 REVERT JUMPDEST POP JUMP INVALID LOG2 PUSH5 0x6970667358 0x22 SLT KECCAK256 0xAB CALLCODE SDIV ADDMOD 0xC4 DUP13 MUL 0xAB PUSH11 0x10CE925C69F538DB5D84A EXP PUSH27 0x89A55104874ACF9B000D64736F6C634300060C0033000000000000 "
        },
        "methodIdentifiers": {
          "DISTRIBUTION_END()": "919cd40f",
          "EMISSION_MANAGER()": "cbcbb507",
          "EXTRA_PSM_REWARD()": "3ec3126d",
          "PRECISION()": "aaf5eb68",
          "PSM()": "5dac9ed7",
          "REVISION()": "dde43cba",
          "REWARDS_VAULT()": "946776cd",
          "REWARD_TOKEN()": "99248ea7",
          "assets(address)": "f11b8188",
          "claimRewards(address[],uint256,address,bool)": "8116c484",
          "configureAssets((uint128,uint256,address)[])": "b2a5dbfa",
          "getRewardsBalance(address[],address)": "8b599f26",
          "getUserAssetData(address,address)": "3373ee4c",
          "getUserUnclaimedRewards(address)": "198fa81e",
          "handleAction(address,uint256,uint256)": "31873e2e",
          "initialize()": "8129fc1c"
        }
      }
    }
  }
}