{
  "contractName": "bMXXDistributionManager",
  "abi": [
    {
      "inputs": [
        {
          "internalType": "address",
          "name": "emissionManager",
          "type": "address"
        },
        {
          "internalType": "uint256",
          "name": "distributionDuration",
          "type": "uint256"
        }
      ],
      "stateMutability": "nonpayable",
      "type": "constructor"
    },
    {
      "anonymous": false,
      "inputs": [
        {
          "indexed": true,
          "internalType": "address",
          "name": "asset",
          "type": "address"
        },
        {
          "indexed": false,
          "internalType": "uint256",
          "name": "emission",
          "type": "uint256"
        }
      ],
      "name": "AssetConfigUpdated",
      "type": "event"
    },
    {
      "anonymous": false,
      "inputs": [
        {
          "indexed": true,
          "internalType": "address",
          "name": "asset",
          "type": "address"
        },
        {
          "indexed": false,
          "internalType": "uint256",
          "name": "index",
          "type": "uint256"
        }
      ],
      "name": "AssetIndexUpdated",
      "type": "event"
    },
    {
      "anonymous": false,
      "inputs": [
        {
          "indexed": true,
          "internalType": "address",
          "name": "user",
          "type": "address"
        },
        {
          "indexed": true,
          "internalType": "address",
          "name": "asset",
          "type": "address"
        },
        {
          "indexed": false,
          "internalType": "uint256",
          "name": "index",
          "type": "uint256"
        }
      ],
      "name": "UserIndexUpdated",
      "type": "event"
    },
    {
      "inputs": [],
      "name": "DISTRIBUTION_END",
      "outputs": [
        {
          "internalType": "uint256",
          "name": "",
          "type": "uint256"
        }
      ],
      "stateMutability": "view",
      "type": "function"
    },
    {
      "inputs": [],
      "name": "EMISSION_MANAGER",
      "outputs": [
        {
          "internalType": "address",
          "name": "",
          "type": "address"
        }
      ],
      "stateMutability": "view",
      "type": "function"
    },
    {
      "inputs": [],
      "name": "PRECISION",
      "outputs": [
        {
          "internalType": "uint8",
          "name": "",
          "type": "uint8"
        }
      ],
      "stateMutability": "view",
      "type": "function"
    },
    {
      "inputs": [
        {
          "internalType": "address",
          "name": "",
          "type": "address"
        }
      ],
      "name": "assets",
      "outputs": [
        {
          "internalType": "uint128",
          "name": "emissionPerSecond",
          "type": "uint128"
        },
        {
          "internalType": "uint128",
          "name": "lastUpdateTimestamp",
          "type": "uint128"
        },
        {
          "internalType": "uint256",
          "name": "index",
          "type": "uint256"
        }
      ],
      "stateMutability": "view",
      "type": "function"
    },
    {
      "inputs": [
        {
          "components": [
            {
              "internalType": "uint128",
              "name": "emissionPerSecond",
              "type": "uint128"
            },
            {
              "internalType": "uint256",
              "name": "totalStaked",
              "type": "uint256"
            },
            {
              "internalType": "address",
              "name": "underlyingAsset",
              "type": "address"
            }
          ],
          "internalType": "struct DistributionTypes.AssetConfigInput[]",
          "name": "assetsConfigInput",
          "type": "tuple[]"
        }
      ],
      "name": "configureAssets",
      "outputs": [],
      "stateMutability": "nonpayable",
      "type": "function"
    },
    {
      "inputs": [
        {
          "internalType": "address",
          "name": "user",
          "type": "address"
        },
        {
          "internalType": "address",
          "name": "asset",
          "type": "address"
        }
      ],
      "name": "getUserAssetData",
      "outputs": [
        {
          "internalType": "uint256",
          "name": "",
          "type": "uint256"
        }
      ],
      "stateMutability": "view",
      "type": "function"
    }
  ],
  "bytecode": "0x60c06040523480156200001157600080fd5b50604051620010f3380380620010f383398181016040528101906200003791906200011d565b6200005181426200009760201b620004c11790919060201c565b608081815250508173ffffffffffffffffffffffffffffffffffffffff1660a08173ffffffffffffffffffffffffffffffffffffffff1660601b81525050505062000245565b600080828401905083811015620000e5576040517f08c379a0000000000000000000000000000000000000000000000000000000008152600401620000dc90620001a0565b60405180910390fd5b8091505092915050565b600081519050620001008162000211565b92915050565b60008151905062000117816200022b565b92915050565b600080604083850312156200013157600080fd5b60006200014185828601620000ef565b9250506020620001548582860162000106565b9150509250929050565b60006200016d601b83620001c2565b91507f536166654d6174683a206164646974696f6e206f766572666c6f7700000000006000830152602082019050919050565b60006020820190508181036000830152620001bb816200015e565b9050919050565b600082825260208201905092915050565b6000620001e082620001e7565b9050919050565b600073ffffffffffffffffffffffffffffffffffffffff82169050919050565b6000819050919050565b6200021c81620001d3565b81146200022857600080fd5b50565b620002368162000207565b81146200024257600080fd5b50565b60805160a05160601c610e7362000280600039806101f3528061043d5250806101ca528061068752806106cd52806106fa5250610e736000f3fe608060405234801561001057600080fd5b50600436106100625760003560e01c80633373ee4c14610067578063919cd40f14610097578063aaf5eb68146100b5578063b2a5dbfa146100d3578063cbcbb507146100ef578063f11b81881461010d575b600080fd5b610081600480360381019061007c91906109ff565b61013f565b60405161008e9190610d02565b60405180910390f35b61009f6101c8565b6040516100ac9190610d02565b60405180910390f35b6100bd6101ec565b6040516100ca9190610d1d565b60405180910390f35b6100ed60048036038101906100e89190610a3b565b6101f1565b005b6100f761043b565b6040516101049190610c13565b60405180910390f35b610127600480360381019061012291906109d6565b61045f565b60405161013693929190610ccb565b60405180910390f35b60008060008373ffffffffffffffffffffffffffffffffffffffff1673ffffffffffffffffffffffffffffffffffffffff16815260200190815260200160002060020160008473ffffffffffffffffffffffffffffffffffffffff1673ffffffffffffffffffffffffffffffffffffffff16815260200190815260200160002054905092915050565b7f000000000000000000000000000000000000000000000000000000000000000081565b601281565b7f000000000000000000000000000000000000000000000000000000000000000073ffffffffffffffffffffffffffffffffffffffff163373ffffffffffffffffffffffffffffffffffffffff161461027f576040517f08c379a000000000000000000000000000000000000000000000000000000000815260040161027690610c90565b60405180910390fd5b60005b8282905081101561043657600080600085858581811061029e57fe5b90506060020160400160208101906102b691906109d6565b73ffffffffffffffffffffffffffffffffffffffff1673ffffffffffffffffffffffffffffffffffffffff168152602001908152602001600020905061033584848481811061030157fe5b905060600201604001602081019061031991906109d6565b8286868681811061032657fe5b90506060020160200135610516565b5083838381811061034257fe5b905060600201600001602081019061035a9190610a80565b8160000160006101000a8154816fffffffffffffffffffffffffffffffff02191690836fffffffffffffffffffffffffffffffff1602179055508383838181106103a057fe5b90506060020160400160208101906103b891906109d6565b73ffffffffffffffffffffffffffffffffffffffff167f87fa03892a0556cb6b8f97e6d533a150d4d55fcbf275fff5fa003fa636bcc7fa8585858181106103fb57fe5b90506060020160000160208101906104139190610a80565b6040516104209190610cb0565b60405180910390a2508080600101915050610282565b505050565b7f000000000000000000000000000000000000000000000000000000000000000081565b60006020528060005260406000206000915090508060000160009054906101000a90046fffffffffffffffffffffffffffffffff16908060000160109054906101000a90046fffffffffffffffffffffffffffffffff16908060010154905083565b60008082840190508381101561050c576040517f08c379a000000000000000000000000000000000000000000000000000000000815260040161050390610c50565b60405180910390fd5b8091505092915050565b6000808360010154905060008460000160109054906101000a90046fffffffffffffffffffffffffffffffff169050806fffffffffffffffffffffffffffffffff1642141561056957819250505061064c565b60006105a9838760000160009054906101000a90046fffffffffffffffffffffffffffffffff166fffffffffffffffffffffffffffffffff168488610653565b905082811461060a578086600101819055508673ffffffffffffffffffffffffffffffffffffffff167f5777ca300dfe5bead41006fbce4389794dbc0ed8d6cccebfaf94630aa04184bc826040516106019190610d02565b60405180910390a25b428660000160106101000a8154816fffffffffffffffffffffffffffffffff02191690836fffffffffffffffffffffffffffffffff1602179055508093505050505b9392505050565b6000808414806106635750600082145b8061067f575042836fffffffffffffffffffffffffffffffff16145b806106bc57507f0000000000000000000000000000000000000000000000000000000000000000836fffffffffffffffffffffffffffffffff1610155b156106c95784905061079a565b60007f000000000000000000000000000000000000000000000000000000000000000042116106f8574261071a565b7f00000000000000000000000000000000000000000000000000000000000000005b90506000610743856fffffffffffffffffffffffffffffffff16836107a290919063ffffffff16565b90506107958761078786610779601260ff16600a0a61076b878d6107ec90919063ffffffff16565b6107ec90919063ffffffff16565b61085c90919063ffffffff16565b6104c190919063ffffffff16565b925050505b949350505050565b60006107e483836040518060400160405280601e81526020017f536166654d6174683a207375627472616374696f6e206f766572666c6f7700008152506108a6565b905092915050565b6000808314156107ff5760009050610856565b600082840290508284828161081057fe5b0414610851576040517f08c379a000000000000000000000000000000000000000000000000000000000815260040161084890610c70565b60405180910390fd5b809150505b92915050565b600061089e83836040518060400160405280601a81526020017f536166654d6174683a206469766973696f6e206279207a65726f000000000000815250610901565b905092915050565b60008383111582906108ee576040517f08c379a00000000000000000000000000000000000000000000000000000000081526004016108e59190610c2e565b60405180910390fd5b5060008385039050809150509392505050565b60008083118290610948576040517f08c379a000000000000000000000000000000000000000000000000000000000815260040161093f9190610c2e565b60405180910390fd5b50600083858161095457fe5b049050809150509392505050565b60008135905061097181610e0f565b92915050565b60008083601f84011261098957600080fd5b8235905067ffffffffffffffff8111156109a257600080fd5b6020830191508360608202830111156109ba57600080fd5b9250929050565b6000813590506109d081610e26565b92915050565b6000602082840312156109e857600080fd5b60006109f684828501610962565b91505092915050565b60008060408385031215610a1257600080fd5b6000610a2085828601610962565b9250506020610a3185828601610962565b9150509250929050565b60008060208385031215610a4e57600080fd5b600083013567ffffffffffffffff811115610a6857600080fd5b610a7485828601610977565b92509250509250929050565b600060208284031215610a9257600080fd5b6000610aa0848285016109c1565b91505092915050565b610ab281610d54565b82525050565b6000610ac382610d38565b610acd8185610d43565b9350610add818560208601610dcb565b610ae681610dfe565b840191505092915050565b6000610afe601b83610d43565b91507f536166654d6174683a206164646974696f6e206f766572666c6f7700000000006000830152602082019050919050565b6000610b3e602183610d43565b91507f536166654d6174683a206d756c7469706c69636174696f6e206f766572666c6f60008301527f77000000000000000000000000000000000000000000000000000000000000006020830152604082019050919050565b6000610ba4601583610d43565b91507f4f4e4c595f454d495353494f4e5f4d414e4147455200000000000000000000006000830152602082019050919050565b610be081610d66565b82525050565b610bef81610db9565b82525050565b610bfe81610da2565b82525050565b610c0d81610dac565b82525050565b6000602082019050610c286000830184610aa9565b92915050565b60006020820190508181036000830152610c488184610ab8565b905092915050565b60006020820190508181036000830152610c6981610af1565b9050919050565b60006020820190508181036000830152610c8981610b31565b9050919050565b60006020820190508181036000830152610ca981610b97565b9050919050565b6000602082019050610cc56000830184610be6565b92915050565b6000606082019050610ce06000830186610bd7565b610ced6020830185610bd7565b610cfa6040830184610bf5565b949350505050565b6000602082019050610d176000830184610bf5565b92915050565b6000602082019050610d326000830184610c04565b92915050565b600081519050919050565b600082825260208201905092915050565b6000610d5f82610d82565b9050919050565b60006fffffffffffffffffffffffffffffffff82169050919050565b600073ffffffffffffffffffffffffffffffffffffffff82169050919050565b6000819050919050565b600060ff82169050919050565b6000610dc482610d66565b9050919050565b60005b83811015610de9578082015181840152602081019050610dce565b83811115610df8576000848401525b50505050565b6000601f19601f8301169050919050565b610e1881610d54565b8114610e2357600080fd5b50565b610e2f81610d66565b8114610e3a57600080fd5b5056fea2646970667358221220d1d1dabd7ea41362673918bb4f6fea0137a9ed93bf170e533b0f94dcd3e5227464736f6c634300060c0033",
  "immutableReferences": {
    "2915": [
      {
        "length": 32,
        "start": 458
      },
      {
        "length": 32,
        "start": 1671
      },
      {
        "length": 32,
        "start": 1741
      },
      {
        "length": 32,
        "start": 1786
      }
    ],
    "2917": [
      {
        "length": 32,
        "start": 499
      },
      {
        "length": 32,
        "start": 1085
      }
    ]
  },
  "source": "// SPDX-License-Identifier: agpl-3.0\r\npragma solidity 0.6.12;\r\npragma experimental ABIEncoderV2;\r\n\r\nimport {SafeMath} from \"../lib/SafeMath.sol\";\r\nimport {DistributionTypes} from \"../lib/DistributionTypes.sol\";\r\nimport {\r\n    IbMXXDistributionManager\r\n} from \"../interfaces/IbMXXDistributionManager.sol\";\r\n\r\n/**\r\n * @title bMXXDistributionManager\r\n * @notice Accounting contract to manage multiple staking distributions\r\n * @author bMXX\r\n **/\r\ncontract bMXXDistributionManager is IbMXXDistributionManager {\r\n    using SafeMath for uint256;\r\n\r\n    struct AssetData {\r\n        uint128 emissionPerSecond;\r\n        uint128 lastUpdateTimestamp;\r\n        uint256 index;\r\n        mapping(address => uint256) users;\r\n    }\r\n\r\n    uint256 public immutable DISTRIBUTION_END;\r\n\r\n    address public immutable EMISSION_MANAGER;\r\n\r\n    uint8 public constant PRECISION = 18;\r\n\r\n    mapping(address => AssetData) public assets;\r\n\r\n    event AssetConfigUpdated(address indexed asset, uint256 emission);\r\n    event AssetIndexUpdated(address indexed asset, uint256 index);\r\n    event UserIndexUpdated(\r\n        address indexed user,\r\n        address indexed asset,\r\n        uint256 index\r\n    );\r\n\r\n    constructor(address emissionManager, uint256 distributionDuration) public {\r\n        DISTRIBUTION_END = block.timestamp.add(distributionDuration);\r\n        EMISSION_MANAGER = emissionManager;\r\n    }\r\n\r\n    /**\r\n     * @dev Configures the distribution of rewards for a list of assets\r\n     * @param assetsConfigInput The list of configurations to apply\r\n     **/\r\n    function configureAssets(\r\n        DistributionTypes.AssetConfigInput[] calldata assetsConfigInput\r\n    ) external override {\r\n        require(msg.sender == EMISSION_MANAGER, \"ONLY_EMISSION_MANAGER\");\r\n\r\n        for (uint256 i = 0; i < assetsConfigInput.length; i++) {\r\n            AssetData storage assetConfig = assets[assetsConfigInput[i]\r\n                .underlyingAsset];\r\n\r\n            _updateAssetStateInternal(\r\n                assetsConfigInput[i].underlyingAsset,\r\n                assetConfig,\r\n                assetsConfigInput[i].totalStaked\r\n            );\r\n\r\n            assetConfig.emissionPerSecond = assetsConfigInput[i]\r\n                .emissionPerSecond;\r\n\r\n            emit AssetConfigUpdated(\r\n                assetsConfigInput[i].underlyingAsset,\r\n                assetsConfigInput[i].emissionPerSecond\r\n            );\r\n        }\r\n    }\r\n\r\n    /**\r\n     * @dev Updates the state of one distribution, mainly rewards index and timestamp\r\n     * @param underlyingAsset The address used as key in the distribution, for example stBMXX or the bTokens addresses on bMXX\r\n     * @param assetConfig Storage pointer to the distribution's config\r\n     * @param totalStaked Current total of staked assets for this distribution\r\n     * @return The new distribution index\r\n     **/\r\n    function _updateAssetStateInternal(\r\n        address underlyingAsset,\r\n        AssetData storage assetConfig,\r\n        uint256 totalStaked\r\n    ) internal returns (uint256) {\r\n        uint256 oldIndex = assetConfig.index;\r\n        uint128 lastUpdateTimestamp = assetConfig.lastUpdateTimestamp;\r\n\r\n        if (block.timestamp == lastUpdateTimestamp) {\r\n            return oldIndex;\r\n        }\r\n\r\n        uint256 newIndex = _getAssetIndex(\r\n            oldIndex,\r\n            assetConfig.emissionPerSecond,\r\n            lastUpdateTimestamp,\r\n            totalStaked\r\n        );\r\n\r\n        if (newIndex != oldIndex) {\r\n            assetConfig.index = newIndex;\r\n            emit AssetIndexUpdated(underlyingAsset, newIndex);\r\n        }\r\n\r\n        assetConfig.lastUpdateTimestamp = uint128(block.timestamp);\r\n\r\n        return newIndex;\r\n    }\r\n\r\n    /**\r\n     * @dev Updates the state of an user in a distribution\r\n     * @param user The user's address\r\n     * @param asset The address of the reference asset of the distribution\r\n     * @param stakedByUser Amount of tokens staked by the user in the distribution at the moment\r\n     * @param totalStaked Total tokens staked in the distribution\r\n     * @return The accrued rewards for the user until the moment\r\n     **/\r\n    function _updateUserAssetInternal(\r\n        address user,\r\n        address asset,\r\n        uint256 stakedByUser,\r\n        uint256 totalStaked\r\n    ) internal returns (uint256) {\r\n        AssetData storage assetData = assets[asset];\r\n        uint256 userIndex = assetData.users[user];\r\n        uint256 accruedRewards = 0;\r\n\r\n        uint256 newIndex = _updateAssetStateInternal(\r\n            asset,\r\n            assetData,\r\n            totalStaked\r\n        );\r\n\r\n        if (userIndex != newIndex) {\r\n            if (stakedByUser != 0) {\r\n                accruedRewards = _getRewards(stakedByUser, newIndex, userIndex);\r\n            }\r\n\r\n            assetData.users[user] = newIndex;\r\n            emit UserIndexUpdated(user, asset, newIndex);\r\n        }\r\n\r\n        return accruedRewards;\r\n    }\r\n\r\n    /**\r\n     * @dev Used by \"frontend\" stake contracts to update the data of an user when claiming rewards from there\r\n     * @param user The address of the user\r\n     * @param stakes List of structs of the user data related with his stake\r\n     * @return The accrued rewards for the user until the moment\r\n     **/\r\n    function _claimRewards(\r\n        address user,\r\n        DistributionTypes.UserStakeInput[] memory stakes\r\n    ) internal returns (uint256) {\r\n        uint256 accruedRewards = 0;\r\n\r\n        for (uint256 i = 0; i < stakes.length; i++) {\r\n            accruedRewards = accruedRewards.add(\r\n                _updateUserAssetInternal(\r\n                    user,\r\n                    stakes[i].underlyingAsset,\r\n                    stakes[i].stakedByUser,\r\n                    stakes[i].totalStaked\r\n                )\r\n            );\r\n        }\r\n\r\n        return accruedRewards;\r\n    }\r\n\r\n    /**\r\n     * @dev Return the accrued rewards for an user over a list of distribution\r\n     * @param user The address of the user\r\n     * @param stakes List of structs of the user data related with his stake\r\n     * @return The accrued rewards for the user until the moment\r\n     **/\r\n    function _getUnclaimedRewards(\r\n        address user,\r\n        DistributionTypes.UserStakeInput[] memory stakes\r\n    ) internal view returns (uint256) {\r\n        uint256 accruedRewards = 0;\r\n\r\n        for (uint256 i = 0; i < stakes.length; i++) {\r\n            AssetData storage assetConfig = assets[stakes[i].underlyingAsset];\r\n            uint256 assetIndex = _getAssetIndex(\r\n                assetConfig.index,\r\n                assetConfig.emissionPerSecond,\r\n                assetConfig.lastUpdateTimestamp,\r\n                stakes[i].totalStaked\r\n            );\r\n\r\n            accruedRewards = accruedRewards.add(\r\n                _getRewards(\r\n                    stakes[i].stakedByUser,\r\n                    assetIndex,\r\n                    assetConfig.users[user]\r\n                )\r\n            );\r\n        }\r\n        return accruedRewards;\r\n    }\r\n\r\n    /**\r\n     * @dev Internal function for the calculation of user's rewards on a distribution\r\n     * @param principalUserBalance Amount staked by the user on a distribution\r\n     * @param reserveIndex Current index of the distribution\r\n     * @param userIndex Index stored for the user, representation his staking moment\r\n     * @return The rewards\r\n     **/\r\n    function _getRewards(\r\n        uint256 principalUserBalance,\r\n        uint256 reserveIndex,\r\n        uint256 userIndex\r\n    ) internal pure returns (uint256) {\r\n        return\r\n            principalUserBalance.mul(reserveIndex.sub(userIndex)).div(\r\n                10**uint256(PRECISION)\r\n            );\r\n    }\r\n\r\n    /**\r\n     * @dev Calculates the next value of an specific distribution index, with validations\r\n     * @param currentIndex Current index of the distribution\r\n     * @param emissionPerSecond Representing the total rewards distributed per second per asset unit, on the distribution\r\n     * @param lastUpdateTimestamp Last moment this distribution was updated\r\n     * @param totalBalance of tokens considered for the distribution\r\n     * @return The new index.\r\n     **/\r\n    function _getAssetIndex(\r\n        uint256 currentIndex,\r\n        uint256 emissionPerSecond,\r\n        uint128 lastUpdateTimestamp,\r\n        uint256 totalBalance\r\n    ) internal view returns (uint256) {\r\n        if (\r\n            emissionPerSecond == 0 ||\r\n            totalBalance == 0 ||\r\n            lastUpdateTimestamp == block.timestamp ||\r\n            lastUpdateTimestamp >= DISTRIBUTION_END\r\n        ) {\r\n            return currentIndex;\r\n        }\r\n\r\n        uint256 currentTimestamp = block.timestamp > DISTRIBUTION_END\r\n            ? DISTRIBUTION_END\r\n            : block.timestamp;\r\n        uint256 timeDelta = currentTimestamp.sub(lastUpdateTimestamp);\r\n        return\r\n            emissionPerSecond\r\n                .mul(timeDelta)\r\n                .mul(10**uint256(PRECISION))\r\n                .div(totalBalance)\r\n                .add(currentIndex);\r\n    }\r\n\r\n    /**\r\n     * @dev Returns the data of an user on a distribution\r\n     * @param user Address of the user\r\n     * @param asset The address of the reference asset of the distribution\r\n     * @return The new index\r\n     **/\r\n    function getUserAssetData(address user, address asset)\r\n        public\r\n        view\r\n        returns (uint256)\r\n    {\r\n        return assets[asset].users[user];\r\n    }\r\n}\r\n",
  "sourcePath": "/Users/dev/Documents/Project/MCLendNew/MCL-SmartContracts/staking/contracts/stake/bMXXDistributionManager.sol",
  "compiler": {
    "name": "solc",
    "version": "0.6.12+commit.27d51765.Emscripten.clang"
  },
  "schemaVersion": "3.2.3",
  "updatedAt": "2021-01-14T04:00:49.155Z",
  "devdoc": {
    "author": "bMXX*",
    "kind": "dev",
    "methods": {
      "configureAssets((uint128,uint256,address)[])": {
        "details": "Configures the distribution of rewards for a list of assets",
        "params": {
          "assetsConfigInput": "The list of configurations to apply*"
        }
      },
      "getUserAssetData(address,address)": {
        "details": "Returns the data of an user on a distribution",
        "params": {
          "asset": "The address of the reference asset of the distribution",
          "user": "Address of the user"
        },
        "returns": {
          "_0": "The new index*"
        }
      }
    },
    "title": "bMXXDistributionManager",
    "version": 1
  },
  "userdoc": {
    "kind": "user",
    "methods": {},
    "notice": "Accounting contract to manage multiple staking distributions",
    "version": 1
  }
}