{
  "contractName": "bMXXIncentivesController",
  "abi": [
    {
      "inputs": [
        {
          "internalType": "contract IERC20",
          "name": "rewardToken",
          "type": "address"
        },
        {
          "internalType": "address",
          "name": "rewardsVault",
          "type": "address"
        },
        {
          "internalType": "contract IStakedbMXX",
          "name": "psm",
          "type": "address"
        },
        {
          "internalType": "uint256",
          "name": "extraPsmReward",
          "type": "uint256"
        },
        {
          "internalType": "address",
          "name": "emissionManager",
          "type": "address"
        },
        {
          "internalType": "uint128",
          "name": "distributionDuration",
          "type": "uint128"
        }
      ],
      "stateMutability": "nonpayable",
      "type": "constructor"
    },
    {
      "anonymous": false,
      "inputs": [
        {
          "indexed": true,
          "internalType": "address",
          "name": "asset",
          "type": "address"
        },
        {
          "indexed": false,
          "internalType": "uint256",
          "name": "emission",
          "type": "uint256"
        }
      ],
      "name": "AssetConfigUpdated",
      "type": "event"
    },
    {
      "anonymous": false,
      "inputs": [
        {
          "indexed": true,
          "internalType": "address",
          "name": "asset",
          "type": "address"
        },
        {
          "indexed": false,
          "internalType": "uint256",
          "name": "index",
          "type": "uint256"
        }
      ],
      "name": "AssetIndexUpdated",
      "type": "event"
    },
    {
      "anonymous": false,
      "inputs": [
        {
          "indexed": true,
          "internalType": "address",
          "name": "user",
          "type": "address"
        },
        {
          "indexed": false,
          "internalType": "uint256",
          "name": "amount",
          "type": "uint256"
        }
      ],
      "name": "RewardsAccrued",
      "type": "event"
    },
    {
      "anonymous": false,
      "inputs": [
        {
          "indexed": true,
          "internalType": "address",
          "name": "user",
          "type": "address"
        },
        {
          "indexed": true,
          "internalType": "address",
          "name": "to",
          "type": "address"
        },
        {
          "indexed": false,
          "internalType": "uint256",
          "name": "amount",
          "type": "uint256"
        }
      ],
      "name": "RewardsClaimed",
      "type": "event"
    },
    {
      "anonymous": false,
      "inputs": [
        {
          "indexed": true,
          "internalType": "address",
          "name": "user",
          "type": "address"
        },
        {
          "indexed": true,
          "internalType": "address",
          "name": "asset",
          "type": "address"
        },
        {
          "indexed": false,
          "internalType": "uint256",
          "name": "index",
          "type": "uint256"
        }
      ],
      "name": "UserIndexUpdated",
      "type": "event"
    },
    {
      "inputs": [],
      "name": "DISTRIBUTION_END",
      "outputs": [
        {
          "internalType": "uint256",
          "name": "",
          "type": "uint256"
        }
      ],
      "stateMutability": "view",
      "type": "function"
    },
    {
      "inputs": [],
      "name": "EMISSION_MANAGER",
      "outputs": [
        {
          "internalType": "address",
          "name": "",
          "type": "address"
        }
      ],
      "stateMutability": "view",
      "type": "function"
    },
    {
      "inputs": [],
      "name": "EXTRA_PSM_REWARD",
      "outputs": [
        {
          "internalType": "uint256",
          "name": "",
          "type": "uint256"
        }
      ],
      "stateMutability": "view",
      "type": "function"
    },
    {
      "inputs": [],
      "name": "PRECISION",
      "outputs": [
        {
          "internalType": "uint8",
          "name": "",
          "type": "uint8"
        }
      ],
      "stateMutability": "view",
      "type": "function"
    },
    {
      "inputs": [],
      "name": "PSM",
      "outputs": [
        {
          "internalType": "contract IStakedbMXX",
          "name": "",
          "type": "address"
        }
      ],
      "stateMutability": "view",
      "type": "function"
    },
    {
      "inputs": [],
      "name": "REVISION",
      "outputs": [
        {
          "internalType": "uint256",
          "name": "",
          "type": "uint256"
        }
      ],
      "stateMutability": "view",
      "type": "function"
    },
    {
      "inputs": [],
      "name": "REWARDS_VAULT",
      "outputs": [
        {
          "internalType": "address",
          "name": "",
          "type": "address"
        }
      ],
      "stateMutability": "view",
      "type": "function"
    },
    {
      "inputs": [],
      "name": "REWARD_TOKEN",
      "outputs": [
        {
          "internalType": "contract IERC20",
          "name": "",
          "type": "address"
        }
      ],
      "stateMutability": "view",
      "type": "function"
    },
    {
      "inputs": [
        {
          "internalType": "address",
          "name": "",
          "type": "address"
        }
      ],
      "name": "assets",
      "outputs": [
        {
          "internalType": "uint128",
          "name": "emissionPerSecond",
          "type": "uint128"
        },
        {
          "internalType": "uint128",
          "name": "lastUpdateTimestamp",
          "type": "uint128"
        },
        {
          "internalType": "uint256",
          "name": "index",
          "type": "uint256"
        }
      ],
      "stateMutability": "view",
      "type": "function"
    },
    {
      "inputs": [
        {
          "components": [
            {
              "internalType": "uint128",
              "name": "emissionPerSecond",
              "type": "uint128"
            },
            {
              "internalType": "uint256",
              "name": "totalStaked",
              "type": "uint256"
            },
            {
              "internalType": "address",
              "name": "underlyingAsset",
              "type": "address"
            }
          ],
          "internalType": "struct DistributionTypes.AssetConfigInput[]",
          "name": "assetsConfigInput",
          "type": "tuple[]"
        }
      ],
      "name": "configureAssets",
      "outputs": [],
      "stateMutability": "nonpayable",
      "type": "function"
    },
    {
      "inputs": [
        {
          "internalType": "address",
          "name": "user",
          "type": "address"
        },
        {
          "internalType": "address",
          "name": "asset",
          "type": "address"
        }
      ],
      "name": "getUserAssetData",
      "outputs": [
        {
          "internalType": "uint256",
          "name": "",
          "type": "uint256"
        }
      ],
      "stateMutability": "view",
      "type": "function"
    },
    {
      "inputs": [],
      "name": "initialize",
      "outputs": [],
      "stateMutability": "nonpayable",
      "type": "function"
    },
    {
      "inputs": [
        {
          "internalType": "address",
          "name": "user",
          "type": "address"
        },
        {
          "internalType": "uint256",
          "name": "userBalance",
          "type": "uint256"
        },
        {
          "internalType": "uint256",
          "name": "totalSupply",
          "type": "uint256"
        }
      ],
      "name": "handleAction",
      "outputs": [],
      "stateMutability": "nonpayable",
      "type": "function"
    },
    {
      "inputs": [
        {
          "internalType": "address[]",
          "name": "assets",
          "type": "address[]"
        },
        {
          "internalType": "address",
          "name": "user",
          "type": "address"
        }
      ],
      "name": "getRewardsBalance",
      "outputs": [
        {
          "internalType": "uint256",
          "name": "",
          "type": "uint256"
        }
      ],
      "stateMutability": "view",
      "type": "function"
    },
    {
      "inputs": [
        {
          "internalType": "address[]",
          "name": "assets",
          "type": "address[]"
        },
        {
          "internalType": "uint256",
          "name": "amount",
          "type": "uint256"
        },
        {
          "internalType": "address",
          "name": "to",
          "type": "address"
        },
        {
          "internalType": "bool",
          "name": "stake",
          "type": "bool"
        }
      ],
      "name": "claimRewards",
      "outputs": [
        {
          "internalType": "uint256",
          "name": "",
          "type": "uint256"
        }
      ],
      "stateMutability": "nonpayable",
      "type": "function"
    },
    {
      "inputs": [
        {
          "internalType": "address",
          "name": "_user",
          "type": "address"
        }
      ],
      "name": "getUserUnclaimedRewards",
      "outputs": [
        {
          "internalType": "uint256",
          "name": "",
          "type": "uint256"
        }
      ],
      "stateMutability": "view",
      "type": "function"
    }
  ],
  "bytecode": "0x610140604052600080553480156200001657600080fd5b50604051620028823803806200288283398181016040528101906200003c919062000230565b81816fffffffffffffffffffffffffffffffff166200006a81426200016560201b620012131790919060201c565b608081815250508173ffffffffffffffffffffffffffffffffffffffff1660a08173ffffffffffffffffffffffffffffffffffffffff1660601b8152505050508573ffffffffffffffffffffffffffffffffffffffff1660e08173ffffffffffffffffffffffffffffffffffffffff1660601b815250508473ffffffffffffffffffffffffffffffffffffffff166101008173ffffffffffffffffffffffffffffffffffffffff1660601b815250508373ffffffffffffffffffffffffffffffffffffffff1660c08173ffffffffffffffffffffffffffffffffffffffff1660601b815250508261012081815250505050505050506200043f565b600080828401905083811015620001b3576040517f08c379a0000000000000000000000000000000000000000000000000000000008152600401620001aa9062000308565b60405180910390fd5b8091505092915050565b600081519050620001ce81620003bd565b92915050565b600081519050620001e581620003d7565b92915050565b600081519050620001fc81620003f1565b92915050565b60008151905062000213816200040b565b92915050565b6000815190506200022a8162000425565b92915050565b60008060008060008060c087890312156200024a57600080fd5b60006200025a89828a01620001d4565b96505060206200026d89828a01620001bd565b95505060406200028089828a01620001eb565b94505060606200029389828a0162000219565b9350506080620002a689828a01620001bd565b92505060a0620002b989828a0162000202565b9150509295509295509295565b6000620002d5601b836200032a565b91507f536166654d6174683a206164646974696f6e206f766572666c6f7700000000006000830152602082019050919050565b600060208201905081810360008301526200032381620002c6565b9050919050565b600082825260208201905092915050565b6000620003488262000393565b9050919050565b60006200035c826200033b565b9050919050565b600062000370826200033b565b9050919050565b60006fffffffffffffffffffffffffffffffff82169050919050565b600073ffffffffffffffffffffffffffffffffffffffff82169050919050565b6000819050919050565b620003c8816200033b565b8114620003d457600080fd5b50565b620003e2816200034f565b8114620003ee57600080fd5b50565b620003fc8162000363565b81146200040857600080fd5b50565b620004168162000377565b81146200042257600080fd5b50565b6200043081620003b3565b81146200043c57600080fd5b50565b60805160a05160601c60c05160601c60e05160601c6101005160601c610120516123b1620004d160003980610500528061085e5250806108e95280610a4b5280610ef25250806108ad5280610a0f5280610bae5280610f16525080610524528061097d5280610bea525080610f3f528061118a525080610ece52806118c35280611909528061193652506123b16000f3fe608060405234801561001057600080fd5b50600436106101005760003560e01c8063919cd40f11610097578063b2a5dbfa11610066578063b2a5dbfa1461029f578063cbcbb507146102bb578063dde43cba146102d9578063f11b8188146102f757610100565b8063919cd40f14610227578063946776cd1461024557806399248ea714610263578063aaf5eb681461028157610100565b80635dac9ed7116100d35780635dac9ed71461019f5780638116c484146101bd5780638129fc1c146101ed5780638b599f26146101f757610100565b8063198fa81e1461010557806331873e2e146101355780633373ee4c146101515780633ec3126d14610181575b600080fd5b61011f600480360381019061011a9190611bcc565b610329565b60405161012c91906121be565b60405180910390f35b61014f600480360381019061014a9190611c31565b610372565b005b61016b60048036038101906101669190611bf5565b610474565b60405161017891906121be565b60405180910390f35b6101896104fe565b60405161019691906121be565b60405180910390f35b6101a7610522565b6040516101b491906120af565b60405180910390f35b6101d760048036038101906101d29190611cd8565b610546565b6040516101e491906121be565b60405180910390f35b6101f5610b55565b005b610211600480360381019061020c9190611c80565b610c9d565b60405161021e91906121be565b60405180910390f35b61022f610ecc565b60405161023c91906121be565b60405180910390f35b61024d610ef0565b60405161025a9190612019565b60405180910390f35b61026b610f14565b6040516102789190612094565b60405180910390f35b610289610f38565b60405161029691906121d9565b60405180910390f35b6102b960048036038101906102b49190611d58565b610f3d565b005b6102c3611188565b6040516102d09190612019565b60405180910390f35b6102e16111ac565b6040516102ee91906121be565b60405180910390f35b610311600480360381019061030c9190611bcc565b6111b1565b60405161032093929190612187565b60405180910390f35b6000603460008373ffffffffffffffffffffffffffffffffffffffff1673ffffffffffffffffffffffffffffffffffffffff168152602001908152602001600020549050919050565b600061038084338585611268565b90506000811461046e576103dc81603460008773ffffffffffffffffffffffffffffffffffffffff1673ffffffffffffffffffffffffffffffffffffffff1681526020019081526020016000205461121390919063ffffffff16565b603460008673ffffffffffffffffffffffffffffffffffffffff1673ffffffffffffffffffffffffffffffffffffffff168152602001908152602001600020819055508373ffffffffffffffffffffffffffffffffffffffff167f2468f9268c60ad90e2d49edb0032c8a001e733ae888b3ab8e982edf535be1a768260405161046591906121be565b60405180910390a25b50505050565b6000603360008373ffffffffffffffffffffffffffffffffffffffff1673ffffffffffffffffffffffffffffffffffffffff16815260200190815260200160002060020160008473ffffffffffffffffffffffffffffffffffffffff1673ffffffffffffffffffffffffffffffffffffffff16815260200190815260200160002054905092915050565b7f000000000000000000000000000000000000000000000000000000000000000081565b7f000000000000000000000000000000000000000000000000000000000000000081565b6000808414156105595760009050610b4c565b60003390506000603460008373ffffffffffffffffffffffffffffffffffffffff1673ffffffffffffffffffffffffffffffffffffffff16815260200190815260200160002054905060608888905067ffffffffffffffff811180156105be57600080fd5b506040519080825280602002602001820160405280156105f857816020015b6105e5611a83565b8152602001906001900390816105dd5790505b50905060005b898990508110156107615789898281811061061557fe5b905060200201602081019061062a9190611bcc565b82828151811061063657fe5b60200260200101516000019073ffffffffffffffffffffffffffffffffffffffff16908173ffffffffffffffffffffffffffffffffffffffff168152505089898281811061068057fe5b90506020020160208101906106959190611bcc565b73ffffffffffffffffffffffffffffffffffffffff16630afbcdc9856040518263ffffffff1660e01b81526004016106cd9190612019565b604080518083038186803b1580156106e457600080fd5b505afa1580156106f8573d6000803e3d6000fd5b505050506040513d601f19601f8201168201806040525081019061071c9190611def565b83838151811061072857fe5b602002602001015160200184848151811061073f57fe5b60200260200101516040018281525082815250505080806001019150506105fe565b50600061076e84836113da565b9050600081146107dc5761078b818461121390919063ffffffff16565b92508373ffffffffffffffffffffffffffffffffffffffff167f2468f9268c60ad90e2d49edb0032c8a001e733ae888b3ab8e982edf535be1a76826040516107d391906121be565b60405180910390a25b60008314156107f2576000945050505050610b4c565b60008389116108015788610803565b835b9050808403603460008773ffffffffffffffffffffffffffffffffffffffff1673ffffffffffffffffffffffffffffffffffffffff168152602001908152602001600020819055508615610a0d576108a961089a606461088c7f00000000000000000000000000000000000000000000000000000000000000008561146a90919063ffffffff16565b6114da90919063ffffffff16565b8261121390919063ffffffff16565b90507f000000000000000000000000000000000000000000000000000000000000000073ffffffffffffffffffffffffffffffffffffffff166323b872dd7f000000000000000000000000000000000000000000000000000000000000000030846040518463ffffffff1660e01b815260040161092893929190612034565b602060405180830381600087803b15801561094257600080fd5b505af1158015610956573d6000803e3d6000fd5b505050506040513d601f19601f8201168201806040525081019061097a9190611d9d565b507f000000000000000000000000000000000000000000000000000000000000000073ffffffffffffffffffffffffffffffffffffffff1663adc9772e89836040518363ffffffff1660e01b81526004016109d692919061206b565b600060405180830381600087803b1580156109f057600080fd5b505af1158015610a04573d6000803e3d6000fd5b50505050610ade565b7f000000000000000000000000000000000000000000000000000000000000000073ffffffffffffffffffffffffffffffffffffffff166323b872dd7f00000000000000000000000000000000000000000000000000000000000000008a846040518463ffffffff1660e01b8152600401610a8a93929190612034565b602060405180830381600087803b158015610aa457600080fd5b505af1158015610ab8573d6000803e3d6000fd5b505050506040513d601f19601f82011682018060405250810190610adc9190611d9d565b505b8773ffffffffffffffffffffffffffffffffffffffff163373ffffffffffffffffffffffffffffffffffffffff167f9310ccfcb8de723f578a9e4282ea9f521f05ae40dc08f3068dfad528a65ee3c783604051610b3b91906121be565b60405180910390a380955050505050505b95945050505050565b6000610b5f611524565b90506000548111610ba5576040517f08c379a0000000000000000000000000000000000000000000000000000000008152600401610b9c9061212c565b60405180910390fd5b806000819055507f000000000000000000000000000000000000000000000000000000000000000073ffffffffffffffffffffffffffffffffffffffff1663095ea7b37f00000000000000000000000000000000000000000000000000000000000000007fffffffffffffffffffffffffffffffffffffffffffffffffffffffffffffffff6040518363ffffffff1660e01b8152600401610c4792919061206b565b602060405180830381600087803b158015610c6157600080fd5b505af1158015610c75573d6000803e3d6000fd5b505050506040513d601f19601f82011682018060405250810190610c999190611d9d565b5050565b600080603460008473ffffffffffffffffffffffffffffffffffffffff1673ffffffffffffffffffffffffffffffffffffffff16815260200190815260200160002054905060608585905067ffffffffffffffff81118015610cfe57600080fd5b50604051908082528060200260200182016040528015610d3857816020015b610d25611a83565b815260200190600190039081610d1d5790505b50905060005b86869050811015610ea157868682818110610d5557fe5b9050602002016020810190610d6a9190611bcc565b828281518110610d7657fe5b60200260200101516000019073ffffffffffffffffffffffffffffffffffffffff16908173ffffffffffffffffffffffffffffffffffffffff1681525050868682818110610dc057fe5b9050602002016020810190610dd59190611bcc565b73ffffffffffffffffffffffffffffffffffffffff16630afbcdc9866040518263ffffffff1660e01b8152600401610e0d9190612019565b604080518083038186803b158015610e2457600080fd5b505afa158015610e38573d6000803e3d6000fd5b505050506040513d601f19601f82011682018060405250810190610e5c9190611def565b838381518110610e6857fe5b6020026020010151602001848481518110610e7f57fe5b6020026020010151604001828152508281525050508080600101915050610d3e565b50610ebe610eaf858361152d565b8361121390919063ffffffff16565b915081925050509392505050565b7f000000000000000000000000000000000000000000000000000000000000000081565b7f000000000000000000000000000000000000000000000000000000000000000081565b7f000000000000000000000000000000000000000000000000000000000000000081565b601281565b7f000000000000000000000000000000000000000000000000000000000000000073ffffffffffffffffffffffffffffffffffffffff163373ffffffffffffffffffffffffffffffffffffffff1614610fcb576040517f08c379a0000000000000000000000000000000000000000000000000000000008152600401610fc29061214c565b60405180910390fd5b60005b8282905081101561118357600060336000858585818110610feb57fe5b90506060020160400160208101906110039190611bcc565b73ffffffffffffffffffffffffffffffffffffffff1673ffffffffffffffffffffffffffffffffffffffff168152602001908152602001600020905061108284848481811061104e57fe5b90506060020160400160208101906110669190611bcc565b8286868681811061107357fe5b905060600201602001356116a8565b5083838381811061108f57fe5b90506060020160000160208101906110a79190611dc6565b8160000160006101000a8154816fffffffffffffffffffffffffffffffff02191690836fffffffffffffffffffffffffffffffff1602179055508383838181106110ed57fe5b90506060020160400160208101906111059190611bcc565b73ffffffffffffffffffffffffffffffffffffffff167f87fa03892a0556cb6b8f97e6d533a150d4d55fcbf275fff5fa003fa636bcc7fa85858581811061114857fe5b90506060020160000160208101906111609190611dc6565b60405161116d919061216c565b60405180910390a2508080600101915050610fce565b505050565b7f000000000000000000000000000000000000000000000000000000000000000081565b600181565b60336020528060005260406000206000915090508060000160009054906101000a90046fffffffffffffffffffffffffffffffff16908060000160109054906101000a90046fffffffffffffffffffffffffffffffff16908060010154905083565b60008082840190508381101561125e576040517f08c379a0000000000000000000000000000000000000000000000000000000008152600401611255906120ec565b60405180910390fd5b8091505092915050565b600080603360008673ffffffffffffffffffffffffffffffffffffffff1673ffffffffffffffffffffffffffffffffffffffff168152602001908152602001600020905060008160020160008873ffffffffffffffffffffffffffffffffffffffff1673ffffffffffffffffffffffffffffffffffffffff1681526020019081526020016000205490506000806113008885886116a8565b90508083146113cb576000871461131f5761131c8782856117e5565b91505b808460020160008b73ffffffffffffffffffffffffffffffffffffffff1673ffffffffffffffffffffffffffffffffffffffff168152602001908152602001600020819055508773ffffffffffffffffffffffffffffffffffffffff168973ffffffffffffffffffffffffffffffffffffffff167fbb123b5c06d5408bbea3c4fef481578175cfb432e3b482c6186f02ed9086585b836040516113c291906121be565b60405180910390a35b81945050505050949350505050565b6000806000905060005b835181101561145f576114506114418686848151811061140057fe5b60200260200101516000015187858151811061141857fe5b60200260200101516020015188868151811061143057fe5b602002602001015160400151611268565b8361121390919063ffffffff16565b915080806001019150506113e4565b508091505092915050565b60008083141561147d57600090506114d4565b600082840290508284828161148e57fe5b04146114cf576040517f08c379a00000000000000000000000000000000000000000000000000000000081526004016114c69061210c565b60405180910390fd5b809150505b92915050565b600061151c83836040518060400160405280601a81526020017f536166654d6174683a206469766973696f6e206279207a65726f00000000000081525061182e565b905092915050565b60006001905090565b6000806000905060005b835181101561169d5760006033600086848151811061155257fe5b60200260200101516000015173ffffffffffffffffffffffffffffffffffffffff1673ffffffffffffffffffffffffffffffffffffffff1681526020019081526020016000209050600061161582600101548360000160009054906101000a90046fffffffffffffffffffffffffffffffff166fffffffffffffffffffffffffffffffff168460000160109054906101000a90046fffffffffffffffffffffffffffffffff1689878151811061160457fe5b60200260200101516040015161188f565b905061168c61167d87858151811061162957fe5b602002602001015160200151838560020160008c73ffffffffffffffffffffffffffffffffffffffff1673ffffffffffffffffffffffffffffffffffffffff168152602001908152602001600020546117e5565b8561121390919063ffffffff16565b935050508080600101915050611537565b508091505092915050565b6000808360010154905060008460000160109054906101000a90046fffffffffffffffffffffffffffffffff169050806fffffffffffffffffffffffffffffffff164214156116fb5781925050506117de565b600061173b838760000160009054906101000a90046fffffffffffffffffffffffffffffffff166fffffffffffffffffffffffffffffffff16848861188f565b905082811461179c578086600101819055508673ffffffffffffffffffffffffffffffffffffffff167f5777ca300dfe5bead41006fbce4389794dbc0ed8d6cccebfaf94630aa04184bc8260405161179391906121be565b60405180910390a25b428660000160106101000a8154816fffffffffffffffffffffffffffffffff02191690836fffffffffffffffffffffffffffffffff1602179055508093505050505b9392505050565b6000611825601260ff16600a0a61181761180885876119de90919063ffffffff16565b8761146a90919063ffffffff16565b6114da90919063ffffffff16565b90509392505050565b60008083118290611875576040517f08c379a000000000000000000000000000000000000000000000000000000000815260040161186c91906120ca565b60405180910390fd5b50600083858161188157fe5b049050809150509392505050565b60008084148061189f5750600082145b806118bb575042836fffffffffffffffffffffffffffffffff16145b806118f857507f0000000000000000000000000000000000000000000000000000000000000000836fffffffffffffffffffffffffffffffff1610155b15611905578490506119d6565b60007f000000000000000000000000000000000000000000000000000000000000000042116119345742611956565b7f00000000000000000000000000000000000000000000000000000000000000005b9050600061197f856fffffffffffffffffffffffffffffffff16836119de90919063ffffffff16565b90506119d1876119c3866119b5601260ff16600a0a6119a7878d61146a90919063ffffffff16565b61146a90919063ffffffff16565b6114da90919063ffffffff16565b61121390919063ffffffff16565b925050505b949350505050565b6000611a2083836040518060400160405280601e81526020017f536166654d6174683a207375627472616374696f6e206f766572666c6f770000815250611a28565b905092915050565b6000838311158290611a70576040517f08c379a0000000000000000000000000000000000000000000000000000000008152600401611a6791906120ca565b60405180910390fd5b5060008385039050809150509392505050565b6040518060600160405280600073ffffffffffffffffffffffffffffffffffffffff16815260200160008152602001600081525090565b600081359050611ac98161231f565b92915050565b60008083601f840112611ae157600080fd5b8235905067ffffffffffffffff811115611afa57600080fd5b602083019150836020820283011115611b1257600080fd5b9250929050565b60008083601f840112611b2b57600080fd5b8235905067ffffffffffffffff811115611b4457600080fd5b602083019150836060820283011115611b5c57600080fd5b9250929050565b600081359050611b7281612336565b92915050565b600081519050611b8781612336565b92915050565b600081359050611b9c8161234d565b92915050565b600081359050611bb181612364565b92915050565b600081519050611bc681612364565b92915050565b600060208284031215611bde57600080fd5b6000611bec84828501611aba565b91505092915050565b60008060408385031215611c0857600080fd5b6000611c1685828601611aba565b9250506020611c2785828601611aba565b9150509250929050565b600080600060608486031215611c4657600080fd5b6000611c5486828701611aba565b9350506020611c6586828701611ba2565b9250506040611c7686828701611ba2565b9150509250925092565b600080600060408486031215611c9557600080fd5b600084013567ffffffffffffffff811115611caf57600080fd5b611cbb86828701611acf565b93509350506020611cce86828701611aba565b9150509250925092565b600080600080600060808688031215611cf057600080fd5b600086013567ffffffffffffffff811115611d0a57600080fd5b611d1688828901611acf565b95509550506020611d2988828901611ba2565b9350506040611d3a88828901611aba565b9250506060611d4b88828901611b63565b9150509295509295909350565b60008060208385031215611d6b57600080fd5b600083013567ffffffffffffffff811115611d8557600080fd5b611d9185828601611b19565b92509250509250929050565b600060208284031215611daf57600080fd5b6000611dbd84828501611b78565b91505092915050565b600060208284031215611dd857600080fd5b6000611de684828501611b8d565b91505092915050565b60008060408385031215611e0257600080fd5b6000611e1085828601611bb7565b9250506020611e2185828601611bb7565b9150509250929050565b611e3481612210565b82525050565b611e4381612281565b82525050565b611e52816122a5565b82525050565b6000611e63826121f4565b611e6d81856121ff565b9350611e7d8185602086016122db565b611e868161230e565b840191505092915050565b6000611e9e601b836121ff565b91507f536166654d6174683a206164646974696f6e206f766572666c6f7700000000006000830152602082019050919050565b6000611ede6021836121ff565b91507f536166654d6174683a206d756c7469706c69636174696f6e206f766572666c6f60008301527f77000000000000000000000000000000000000000000000000000000000000006020830152604082019050919050565b6000611f44602e836121ff565b91507f436f6e747261637420696e7374616e63652068617320616c726561647920626560008301527f656e20696e697469616c697a65640000000000000000000000000000000000006020830152604082019050919050565b6000611faa6015836121ff565b91507f4f4e4c595f454d495353494f4e5f4d414e4147455200000000000000000000006000830152602082019050919050565b611fe68161222e565b82525050565b611ff5816122c9565b82525050565b6120048161226a565b82525050565b61201381612274565b82525050565b600060208201905061202e6000830184611e2b565b92915050565b60006060820190506120496000830186611e2b565b6120566020830185611e2b565b6120636040830184611ffb565b949350505050565b60006040820190506120806000830185611e2b565b61208d6020830184611ffb565b9392505050565b60006020820190506120a96000830184611e3a565b92915050565b60006020820190506120c46000830184611e49565b92915050565b600060208201905081810360008301526120e48184611e58565b905092915050565b6000602082019050818103600083015261210581611e91565b9050919050565b6000602082019050818103600083015261212581611ed1565b9050919050565b6000602082019050818103600083015261214581611f37565b9050919050565b6000602082019050818103600083015261216581611f9d565b9050919050565b60006020820190506121816000830184611fec565b92915050565b600060608201905061219c6000830186611fdd565b6121a96020830185611fdd565b6121b66040830184611ffb565b949350505050565b60006020820190506121d36000830184611ffb565b92915050565b60006020820190506121ee600083018461200a565b92915050565b600081519050919050565b600082825260208201905092915050565b600061221b8261224a565b9050919050565b60008115159050919050565b60006fffffffffffffffffffffffffffffffff82169050919050565b600073ffffffffffffffffffffffffffffffffffffffff82169050919050565b6000819050919050565b600060ff82169050919050565b600061228c82612293565b9050919050565b600061229e8261224a565b9050919050565b60006122b0826122b7565b9050919050565b60006122c28261224a565b9050919050565b60006122d48261222e565b9050919050565b60005b838110156122f95780820151818401526020810190506122de565b83811115612308576000848401525b50505050565b6000601f19601f8301169050919050565b61232881612210565b811461233357600080fd5b50565b61233f81612222565b811461234a57600080fd5b50565b6123568161222e565b811461236157600080fd5b50565b61236d8161226a565b811461237857600080fd5b5056fea2646970667358221220c5b7cedeb1838f099c467ec2469e45dd51584294cf3ba4d03209858df1c1c35264736f6c634300060c0033",
  "immutableReferences": {
    "2915": [
      {
        "length": 32,
        "start": 3790
      },
      {
        "length": 32,
        "start": 6339
      },
      {
        "length": 32,
        "start": 6409
      },
      {
        "length": 32,
        "start": 6454
      }
    ],
    "2917": [
      {
        "length": 32,
        "start": 3903
      },
      {
        "length": 32,
        "start": 4490
      }
    ],
    "3451": [
      {
        "length": 32,
        "start": 1316
      },
      {
        "length": 32,
        "start": 2429
      },
      {
        "length": 32,
        "start": 3050
      }
    ],
    "3453": [
      {
        "length": 32,
        "start": 2221
      },
      {
        "length": 32,
        "start": 2575
      },
      {
        "length": 32,
        "start": 2990
      },
      {
        "length": 32,
        "start": 3862
      }
    ],
    "3455": [
      {
        "length": 32,
        "start": 2281
      },
      {
        "length": 32,
        "start": 2635
      },
      {
        "length": 32,
        "start": 3826
      }
    ],
    "3457": [
      {
        "length": 32,
        "start": 1280
      },
      {
        "length": 32,
        "start": 2142
      }
    ]
  },
  "source": "// SPDX-License-Identifier: agpl-3.0\r\npragma solidity 0.6.12;\r\npragma experimental ABIEncoderV2;\r\n\r\nimport {DistributionTypes} from \"../lib/DistributionTypes.sol\";\r\n\r\nimport {IERC20} from \"../interfaces/IERC20.sol\";\r\nimport {IBToken} from \"../interfaces/IBToken.sol\";\r\nimport {\r\n    IbMXXIncentivesController\r\n} from \"../interfaces/IbMXXIncentivesController.sol\";\r\nimport {IStakedbMXX} from \"../interfaces/IStakedbMXX.sol\";\r\nimport {VersionedInitializable} from \"../utils/VersionedInitializable.sol\";\r\nimport {bMXXDistributionManager} from \"./bMXXDistributionManager.sol\";\r\n\r\n/**\r\n * @title bMXXIncentivesController\r\n * @notice Distributor contract for rewards to the bMXX protocol\r\n * @author bMXX\r\n **/\r\ncontract bMXXIncentivesController is\r\n    IbMXXIncentivesController,\r\n    VersionedInitializable,\r\n    bMXXDistributionManager\r\n{\r\n    uint256 public constant REVISION = 1;\r\n\r\n    IStakedbMXX public immutable PSM;\r\n\r\n    IERC20 public immutable REWARD_TOKEN;\r\n    address public immutable REWARDS_VAULT;\r\n    uint256 public immutable EXTRA_PSM_REWARD;\r\n\r\n    mapping(address => uint256) internal _usersUnclaimedRewards;\r\n\r\n    event RewardsAccrued(address indexed user, uint256 amount);\r\n    event RewardsClaimed(\r\n        address indexed user,\r\n        address indexed to,\r\n        uint256 amount\r\n    );\r\n\r\n    constructor(\r\n        IERC20 rewardToken,\r\n        address rewardsVault,\r\n        IStakedbMXX psm,\r\n        uint256 extraPsmReward,\r\n        address emissionManager,\r\n        uint128 distributionDuration\r\n    ) public bMXXDistributionManager(emissionManager, distributionDuration) {\r\n        REWARD_TOKEN = rewardToken;\r\n        REWARDS_VAULT = rewardsVault;\r\n        PSM = psm;\r\n        EXTRA_PSM_REWARD = extraPsmReward;\r\n    }\r\n\r\n    /**\r\n     * @dev Called by the proxy contract. Not used at the moment, but for the future\r\n     **/\r\n    function initialize() external initializer {\r\n        // to unlock possibility to stake on behalf of the user\r\n        REWARD_TOKEN.approve(address(PSM), type(uint256).max);\r\n    }\r\n\r\n    /**\r\n     * @dev Called by the corresponding asset on any update that affects the rewards distribution\r\n     * @param user The address of the user\r\n     * @param userBalance The balance of the user of the asset in the lending pool\r\n     * @param totalSupply The total supply of the asset in the lending pool\r\n     **/\r\n    function handleAction(\r\n        address user,\r\n        uint256 userBalance,\r\n        uint256 totalSupply\r\n    ) external override {\r\n        uint256 accruedRewards = _updateUserAssetInternal(\r\n            user,\r\n            msg.sender,\r\n            userBalance,\r\n            totalSupply\r\n        );\r\n        if (accruedRewards != 0) {\r\n            _usersUnclaimedRewards[user] = _usersUnclaimedRewards[user].add(\r\n                accruedRewards\r\n            );\r\n            emit RewardsAccrued(user, accruedRewards);\r\n        }\r\n    }\r\n\r\n    /**\r\n     * @dev Returns the total of rewards of an user, already accrued + not yet accrued\r\n     * @param user The address of the user\r\n     * @return The rewards\r\n     **/\r\n    function getRewardsBalance(address[] calldata assets, address user)\r\n        external\r\n        override\r\n        view\r\n        returns (uint256)\r\n    {\r\n        uint256 unclaimedRewards = _usersUnclaimedRewards[user];\r\n\r\n\r\n    DistributionTypes.UserStakeInput[] memory userState = new DistributionTypes.UserStakeInput[](assets.length);\r\n        for (uint256 i = 0; i < assets.length; i++) {\r\n            userState[i].underlyingAsset = assets[i];\r\n            (userState[i].stakedByUser, userState[i].totalStaked) = IBToken(\r\n                assets[i]\r\n            )\r\n                .getScaledUserBalanceAndSupply(user);\r\n        }\r\n        unclaimedRewards = unclaimedRewards.add(\r\n            _getUnclaimedRewards(user, userState)\r\n        );\r\n        return unclaimedRewards;\r\n    }\r\n\r\n    /**\r\n     * @dev Claims reward for an user, on all the assets of the lending pool, accumulating the pending rewards\r\n     * @param amount Amount of rewards to claim\r\n     * @param to Address that will be receiving the rewards\r\n     * @param stake Boolean flag to determined if the claimed rewards should be staked in the Safety Module or not\r\n     * @return Rewards claimed\r\n     **/\r\n    function claimRewards(\r\n        address[] calldata assets,\r\n        uint256 amount,\r\n        address to,\r\n        bool stake\r\n    ) external override returns (uint256) {\r\n        if (amount == 0) {\r\n            return 0;\r\n        }\r\n        address user = msg.sender;\r\n        uint256 unclaimedRewards = _usersUnclaimedRewards[user];\r\n\r\n\r\n            DistributionTypes.UserStakeInput[] memory userState\r\n         = new DistributionTypes.UserStakeInput[](assets.length);\r\n        for (uint256 i = 0; i < assets.length; i++) {\r\n            userState[i].underlyingAsset = assets[i];\r\n            (userState[i].stakedByUser, userState[i].totalStaked) = IBToken(\r\n                assets[i]\r\n            )\r\n                .getScaledUserBalanceAndSupply(user);\r\n        }\r\n\r\n        uint256 accruedRewards = _claimRewards(user, userState);\r\n        if (accruedRewards != 0) {\r\n            unclaimedRewards = unclaimedRewards.add(accruedRewards);\r\n            emit RewardsAccrued(user, accruedRewards);\r\n        }\r\n\r\n        if (unclaimedRewards == 0) {\r\n            return 0;\r\n        }\r\n\r\n        uint256 amountToClaim = amount > unclaimedRewards\r\n            ? unclaimedRewards\r\n            : amount;\r\n        _usersUnclaimedRewards[user] = unclaimedRewards - amountToClaim; // Safe due to the previous line\r\n\r\n        if (stake) {\r\n            amountToClaim = amountToClaim.add(\r\n                amountToClaim.mul(EXTRA_PSM_REWARD).div(100)\r\n            );\r\n            REWARD_TOKEN.transferFrom(\r\n                REWARDS_VAULT,\r\n                address(this),\r\n                amountToClaim\r\n            );\r\n            PSM.stake(to, amountToClaim);\r\n        } else {\r\n            REWARD_TOKEN.transferFrom(REWARDS_VAULT, to, amountToClaim);\r\n        }\r\n        emit RewardsClaimed(msg.sender, to, amountToClaim);\r\n\r\n        return amountToClaim;\r\n    }\r\n\r\n    /**\r\n     * @dev returns the unclaimed rewards of the user\r\n     * @param _user the address of the user\r\n     * @return the unclaimed user rewards\r\n     */\r\n    function getUserUnclaimedRewards(address _user)\r\n        external\r\n        view\r\n        returns (uint256)\r\n    {\r\n        return _usersUnclaimedRewards[_user];\r\n    }\r\n\r\n    /**\r\n     * @dev returns the revision of the implementation contract\r\n     */\r\n    function getRevision() internal override pure returns (uint256) {\r\n        return REVISION;\r\n    }\r\n}\r\n",
  "sourcePath": "/Users/dev/Documents/Project/MCLendNew/MCL-SmartContracts/staking/contracts/stake/bMXXIncentivesController.sol",
  "compiler": {
    "name": "solc",
    "version": "0.6.12+commit.27d51765.Emscripten.clang"
  },
  "schemaVersion": "3.2.3",
  "updatedAt": "2021-01-14T04:00:49.166Z",
  "devdoc": {
    "author": "bMXX*",
    "kind": "dev",
    "methods": {
      "claimRewards(address[],uint256,address,bool)": {
        "details": "Claims reward for an user, on all the assets of the lending pool, accumulating the pending rewards",
        "params": {
          "amount": "Amount of rewards to claim",
          "stake": "Boolean flag to determined if the claimed rewards should be staked in the Safety Module or not",
          "to": "Address that will be receiving the rewards"
        },
        "returns": {
          "_0": "Rewards claimed*"
        }
      },
      "configureAssets((uint128,uint256,address)[])": {
        "details": "Configures the distribution of rewards for a list of assets",
        "params": {
          "assetsConfigInput": "The list of configurations to apply*"
        }
      },
      "getRewardsBalance(address[],address)": {
        "details": "Returns the total of rewards of an user, already accrued + not yet accrued",
        "params": {
          "user": "The address of the user"
        },
        "returns": {
          "_0": "The rewards*"
        }
      },
      "getUserAssetData(address,address)": {
        "details": "Returns the data of an user on a distribution",
        "params": {
          "asset": "The address of the reference asset of the distribution",
          "user": "Address of the user"
        },
        "returns": {
          "_0": "The new index*"
        }
      },
      "getUserUnclaimedRewards(address)": {
        "details": "returns the unclaimed rewards of the user",
        "params": {
          "_user": "the address of the user"
        },
        "returns": {
          "_0": "the unclaimed user rewards"
        }
      },
      "handleAction(address,uint256,uint256)": {
        "details": "Called by the corresponding asset on any update that affects the rewards distribution",
        "params": {
          "totalSupply": "The total supply of the asset in the lending pool*",
          "user": "The address of the user",
          "userBalance": "The balance of the user of the asset in the lending pool"
        }
      },
      "initialize()": {
        "details": "Called by the proxy contract. Not used at the moment, but for the future*"
      }
    },
    "title": "bMXXIncentivesController",
    "version": 1
  },
  "userdoc": {
    "kind": "user",
    "methods": {},
    "notice": "Distributor contract for rewards to the bMXX protocol",
    "version": 1
  }
}