{
  "contractName": "LendingPoolMock",
  "abi": [
    {
      "anonymous": false,
      "inputs": [],
      "name": "LendingPoolMockEvent",
      "type": "event"
    },
    {
      "inputs": [
        {
          "internalType": "address",
          "name": "_user",
          "type": "address"
        }
      ],
      "name": "updateGovernanceStakingRewards",
      "outputs": [],
      "stateMutability": "nonpayable",
      "type": "function"
    }
  ],
  "bytecode": "0x6080604052348015600f57600080fd5b5060d38061001e6000396000f3fe6080604052348015600f57600080fd5b506004361060285760003560e01c80632d24f6c714602d575b600080fd5b606c60048036036020811015604157600080fd5b81019080803573ffffffffffffffffffffffffffffffffffffffff169060200190929190505050606e565b005b7f974e1cbe7608e81eb2c1b0f073f63819df0886b8c4060f0dfb622fbb1925995d60405160405180910390a15056fea26469706673582212203b6a48c52e7abacb5452693daf38b3d87c020e9728079542dbb0911b3704d7bb64736f6c634300060c0033",
  "immutableReferences": {},
  "source": "// SPDX-License-Identifier: agpl-3.0\npragma solidity 0.6.12;\n\nimport {ILendingPool} from \"../interfaces/ILendingPool.sol\";\n\ncontract LendingPoolMock is ILendingPool {\n event LendingPoolMockEvent();\n function updateGovernanceStakingRewards(address _user)\n  external override{\n     emit LendingPoolMockEvent();\n }\n}\n",
  "sourcePath": "/Users/dev/Documents/Project/MCLendNew/MCL-SmartContracts/staking/contracts/mocks/LendingPoolMock.sol",
  "compiler": {
    "name": "solc",
    "version": "0.6.12+commit.27d51765.Emscripten.clang"
  },
  "schemaVersion": "3.2.3",
  "updatedAt": "2021-02-02T06:20:37.724Z",
  "devdoc": {
    "kind": "dev",
    "methods": {},
    "version": 1
  },
  "userdoc": {
    "kind": "user",
    "methods": {},
    "version": 1
  }
}