{
  "contractName": "MockTransferHook",
  "abi": [
    {
      "anonymous": false,
      "inputs": [],
      "name": "MockHookEvent",
      "type": "event"
    },
    {
      "inputs": [
        {
          "internalType": "address",
          "name": "from",
          "type": "address"
        },
        {
          "internalType": "address",
          "name": "to",
          "type": "address"
        },
        {
          "internalType": "uint256",
          "name": "amount",
          "type": "uint256"
        }
      ],
      "name": "onTransfer",
      "outputs": [],
      "stateMutability": "nonpayable",
      "type": "function"
    }
  ],
  "bytecode": "0x608060405234801561001057600080fd5b5060ff8061001f6000396000f3fe6080604052348015600f57600080fd5b506004361060285760003560e01c80634a39314914602d575b600080fd5b609660048036036060811015604157600080fd5b81019080803573ffffffffffffffffffffffffffffffffffffffff169060200190929190803573ffffffffffffffffffffffffffffffffffffffff169060200190929190803590602001909291905050506098565b005b7f34250cbfa6d218c1d0a9b5950b60dac352f03d00642722e501cbc86d1ea8130160405160405180910390a150505056fea2646970667358221220427812f670c62be3a3020da49dde6b00d0def533fc7ca15e7502a4e23d7a797264736f6c634300060c0033",
  "immutableReferences": {},
  "source": "// SPDX-License-Identifier: agpl-3.0\r\npragma solidity 0.6.12;\r\n\r\nimport {ITransferHook} from \"../interfaces/ITransferHook.sol\";\r\n\r\ncontract MockTransferHook is ITransferHook {\r\n    event MockHookEvent();\r\n\r\n    function onTransfer(\r\n        address from,\r\n        address to,\r\n        uint256 amount\r\n    ) external override {\r\n        emit MockHookEvent();\r\n    }\r\n}\r\n",
  "sourcePath": "/Users/dev/Documents/Project/MCLendNew/MCL-SmartContracts/staking/contracts/mocks/MockTransferHook.sol",
  "compiler": {
    "name": "solc",
    "version": "0.6.12+commit.27d51765.Emscripten.clang"
  },
  "schemaVersion": "3.2.3",
  "updatedAt": "2021-01-14T04:00:49.137Z",
  "devdoc": {
    "kind": "dev",
    "methods": {},
    "version": 1
  },
  "userdoc": {
    "kind": "user",
    "methods": {},
    "version": 1
  }
}