{
  "contractName": "StakedToken",
  "abi": [
    {
      "inputs": [
        {
          "internalType": "contract IERC20",
          "name": "stakedToken",
          "type": "address"
        },
        {
          "internalType": "contract IERC20",
          "name": "rewardToken",
          "type": "address"
        },
        {
          "internalType": "uint256",
          "name": "cooldownSeconds",
          "type": "uint256"
        },
        {
          "internalType": "uint256",
          "name": "unstakeWindow",
          "type": "uint256"
        },
        {
          "internalType": "address",
          "name": "rewardsVault",
          "type": "address"
        },
        {
          "internalType": "address",
          "name": "emissionManager",
          "type": "address"
        },
        {
          "internalType": "uint128",
          "name": "distributionDuration",
          "type": "uint128"
        },
        {
          "internalType": "address",
          "name": "poolAddress",
          "type": "address"
        },
        {
          "internalType": "string",
          "name": "name",
          "type": "string"
        },
        {
          "internalType": "string",
          "name": "symbol",
          "type": "string"
        },
        {
          "internalType": "uint8",
          "name": "decimals",
          "type": "uint8"
        }
      ],
      "stateMutability": "nonpayable",
      "type": "constructor"
    },
    {
      "anonymous": false,
      "inputs": [
        {
          "indexed": true,
          "internalType": "address",
          "name": "owner",
          "type": "address"
        },
        {
          "indexed": true,
          "internalType": "address",
          "name": "spender",
          "type": "address"
        },
        {
          "indexed": false,
          "internalType": "uint256",
          "name": "value",
          "type": "uint256"
        }
      ],
      "name": "Approval",
      "type": "event"
    },
    {
      "anonymous": false,
      "inputs": [
        {
          "indexed": true,
          "internalType": "address",
          "name": "asset",
          "type": "address"
        },
        {
          "indexed": false,
          "internalType": "uint256",
          "name": "emission",
          "type": "uint256"
        }
      ],
      "name": "AssetConfigUpdated",
      "type": "event"
    },
    {
      "anonymous": false,
      "inputs": [
        {
          "indexed": true,
          "internalType": "address",
          "name": "asset",
          "type": "address"
        },
        {
          "indexed": false,
          "internalType": "uint256",
          "name": "index",
          "type": "uint256"
        }
      ],
      "name": "AssetIndexUpdated",
      "type": "event"
    },
    {
      "anonymous": false,
      "inputs": [
        {
          "indexed": true,
          "internalType": "address",
          "name": "user",
          "type": "address"
        }
      ],
      "name": "Cooldown",
      "type": "event"
    },
    {
      "anonymous": false,
      "inputs": [
        {
          "indexed": true,
          "internalType": "address",
          "name": "from",
          "type": "address"
        },
        {
          "indexed": true,
          "internalType": "address",
          "name": "to",
          "type": "address"
        },
        {
          "indexed": false,
          "internalType": "uint256",
          "name": "amount",
          "type": "uint256"
        },
        {
          "indexed": false,
          "internalType": "uint256",
          "name": "timestamp",
          "type": "uint256"
        }
      ],
      "name": "Redeem",
      "type": "event"
    },
    {
      "anonymous": false,
      "inputs": [
        {
          "indexed": false,
          "internalType": "address",
          "name": "user",
          "type": "address"
        },
        {
          "indexed": false,
          "internalType": "uint256",
          "name": "amount",
          "type": "uint256"
        }
      ],
      "name": "RewardsAccrued",
      "type": "event"
    },
    {
      "anonymous": false,
      "inputs": [
        {
          "indexed": true,
          "internalType": "address",
          "name": "from",
          "type": "address"
        },
        {
          "indexed": true,
          "internalType": "address",
          "name": "to",
          "type": "address"
        },
        {
          "indexed": false,
          "internalType": "uint256",
          "name": "amount",
          "type": "uint256"
        },
        {
          "indexed": false,
          "internalType": "uint256",
          "name": "timestamp",
          "type": "uint256"
        }
      ],
      "name": "RewardsClaimed",
      "type": "event"
    },
    {
      "anonymous": false,
      "inputs": [
        {
          "indexed": false,
          "internalType": "address",
          "name": "owner",
          "type": "address"
        },
        {
          "indexed": false,
          "internalType": "uint128",
          "name": "oldValue",
          "type": "uint128"
        },
        {
          "indexed": false,
          "internalType": "uint128",
          "name": "newValue",
          "type": "uint128"
        }
      ],
      "name": "SnapshotDone",
      "type": "event"
    },
    {
      "anonymous": false,
      "inputs": [
        {
          "indexed": true,
          "internalType": "address",
          "name": "from",
          "type": "address"
        },
        {
          "indexed": true,
          "internalType": "address",
          "name": "onBehalfOf",
          "type": "address"
        },
        {
          "indexed": false,
          "internalType": "uint256",
          "name": "amount",
          "type": "uint256"
        },
        {
          "indexed": false,
          "internalType": "uint256",
          "name": "timestamp",
          "type": "uint256"
        }
      ],
      "name": "Staked",
      "type": "event"
    },
    {
      "anonymous": false,
      "inputs": [
        {
          "indexed": true,
          "internalType": "address",
          "name": "from",
          "type": "address"
        },
        {
          "indexed": true,
          "internalType": "address",
          "name": "to",
          "type": "address"
        },
        {
          "indexed": false,
          "internalType": "uint256",
          "name": "value",
          "type": "uint256"
        }
      ],
      "name": "Transfer",
      "type": "event"
    },
    {
      "anonymous": false,
      "inputs": [
        {
          "indexed": true,
          "internalType": "address",
          "name": "user",
          "type": "address"
        },
        {
          "indexed": true,
          "internalType": "address",
          "name": "asset",
          "type": "address"
        },
        {
          "indexed": false,
          "internalType": "uint256",
          "name": "index",
          "type": "uint256"
        }
      ],
      "name": "UserIndexUpdated",
      "type": "event"
    },
    {
      "inputs": [],
      "name": "COOLDOWN_SECONDS",
      "outputs": [
        {
          "internalType": "uint256",
          "name": "",
          "type": "uint256"
        }
      ],
      "stateMutability": "view",
      "type": "function"
    },
    {
      "inputs": [],
      "name": "DISTRIBUTION_END",
      "outputs": [
        {
          "internalType": "uint256",
          "name": "",
          "type": "uint256"
        }
      ],
      "stateMutability": "view",
      "type": "function"
    },
    {
      "inputs": [],
      "name": "EMISSION_MANAGER",
      "outputs": [
        {
          "internalType": "address",
          "name": "",
          "type": "address"
        }
      ],
      "stateMutability": "view",
      "type": "function"
    },
    {
      "inputs": [],
      "name": "PRECISION",
      "outputs": [
        {
          "internalType": "uint8",
          "name": "",
          "type": "uint8"
        }
      ],
      "stateMutability": "view",
      "type": "function"
    },
    {
      "inputs": [],
      "name": "REVISION",
      "outputs": [
        {
          "internalType": "uint256",
          "name": "",
          "type": "uint256"
        }
      ],
      "stateMutability": "view",
      "type": "function"
    },
    {
      "inputs": [],
      "name": "REWARDS_VAULT",
      "outputs": [
        {
          "internalType": "address",
          "name": "",
          "type": "address"
        }
      ],
      "stateMutability": "view",
      "type": "function"
    },
    {
      "inputs": [],
      "name": "REWARD_TOKEN",
      "outputs": [
        {
          "internalType": "contract IERC20",
          "name": "",
          "type": "address"
        }
      ],
      "stateMutability": "view",
      "type": "function"
    },
    {
      "inputs": [],
      "name": "STAKED_TOKEN",
      "outputs": [
        {
          "internalType": "contract IERC20",
          "name": "",
          "type": "address"
        }
      ],
      "stateMutability": "view",
      "type": "function"
    },
    {
      "inputs": [],
      "name": "UNSTAKE_WINDOW",
      "outputs": [
        {
          "internalType": "uint256",
          "name": "",
          "type": "uint256"
        }
      ],
      "stateMutability": "view",
      "type": "function"
    },
    {
      "inputs": [],
      "name": "_bMXXGovernance",
      "outputs": [
        {
          "internalType": "contract ITransferHook",
          "name": "",
          "type": "address"
        }
      ],
      "stateMutability": "view",
      "type": "function"
    },
    {
      "inputs": [
        {
          "internalType": "address",
          "name": "",
          "type": "address"
        }
      ],
      "name": "_countsSnapshots",
      "outputs": [
        {
          "internalType": "uint256",
          "name": "",
          "type": "uint256"
        }
      ],
      "stateMutability": "view",
      "type": "function"
    },
    {
      "inputs": [
        {
          "internalType": "address",
          "name": "",
          "type": "address"
        },
        {
          "internalType": "uint256",
          "name": "",
          "type": "uint256"
        }
      ],
      "name": "_snapshots",
      "outputs": [
        {
          "internalType": "uint128",
          "name": "blockNumber",
          "type": "uint128"
        },
        {
          "internalType": "uint128",
          "name": "value",
          "type": "uint128"
        }
      ],
      "stateMutability": "view",
      "type": "function"
    },
    {
      "inputs": [
        {
          "internalType": "address",
          "name": "owner",
          "type": "address"
        },
        {
          "internalType": "address",
          "name": "spender",
          "type": "address"
        }
      ],
      "name": "allowance",
      "outputs": [
        {
          "internalType": "uint256",
          "name": "",
          "type": "uint256"
        }
      ],
      "stateMutability": "view",
      "type": "function"
    },
    {
      "inputs": [
        {
          "internalType": "address",
          "name": "spender",
          "type": "address"
        },
        {
          "internalType": "uint256",
          "name": "amount",
          "type": "uint256"
        }
      ],
      "name": "approve",
      "outputs": [
        {
          "internalType": "bool",
          "name": "",
          "type": "bool"
        }
      ],
      "stateMutability": "nonpayable",
      "type": "function"
    },
    {
      "inputs": [
        {
          "internalType": "address",
          "name": "",
          "type": "address"
        }
      ],
      "name": "assets",
      "outputs": [
        {
          "internalType": "uint128",
          "name": "emissionPerSecond",
          "type": "uint128"
        },
        {
          "internalType": "uint128",
          "name": "lastUpdateTimestamp",
          "type": "uint128"
        },
        {
          "internalType": "uint256",
          "name": "index",
          "type": "uint256"
        }
      ],
      "stateMutability": "view",
      "type": "function"
    },
    {
      "inputs": [
        {
          "internalType": "address",
          "name": "account",
          "type": "address"
        }
      ],
      "name": "balanceOf",
      "outputs": [
        {
          "internalType": "uint256",
          "name": "",
          "type": "uint256"
        }
      ],
      "stateMutability": "view",
      "type": "function"
    },
    {
      "inputs": [
        {
          "components": [
            {
              "internalType": "uint128",
              "name": "emissionPerSecond",
              "type": "uint128"
            },
            {
              "internalType": "uint256",
              "name": "totalStaked",
              "type": "uint256"
            },
            {
              "internalType": "address",
              "name": "underlyingAsset",
              "type": "address"
            }
          ],
          "internalType": "struct DistributionTypes.AssetConfigInput[]",
          "name": "assetsConfigInput",
          "type": "tuple[]"
        }
      ],
      "name": "configureAssets",
      "outputs": [],
      "stateMutability": "nonpayable",
      "type": "function"
    },
    {
      "inputs": [],
      "name": "decimals",
      "outputs": [
        {
          "internalType": "uint8",
          "name": "",
          "type": "uint8"
        }
      ],
      "stateMutability": "view",
      "type": "function"
    },
    {
      "inputs": [
        {
          "internalType": "address",
          "name": "spender",
          "type": "address"
        },
        {
          "internalType": "uint256",
          "name": "subtractedValue",
          "type": "uint256"
        }
      ],
      "name": "decreaseAllowance",
      "outputs": [
        {
          "internalType": "bool",
          "name": "",
          "type": "bool"
        }
      ],
      "stateMutability": "nonpayable",
      "type": "function"
    },
    {
      "inputs": [
        {
          "internalType": "address",
          "name": "user",
          "type": "address"
        },
        {
          "internalType": "address",
          "name": "asset",
          "type": "address"
        }
      ],
      "name": "getUserAssetData",
      "outputs": [
        {
          "internalType": "uint256",
          "name": "",
          "type": "uint256"
        }
      ],
      "stateMutability": "view",
      "type": "function"
    },
    {
      "inputs": [
        {
          "internalType": "address",
          "name": "spender",
          "type": "address"
        },
        {
          "internalType": "uint256",
          "name": "addedValue",
          "type": "uint256"
        }
      ],
      "name": "increaseAllowance",
      "outputs": [
        {
          "internalType": "bool",
          "name": "",
          "type": "bool"
        }
      ],
      "stateMutability": "nonpayable",
      "type": "function"
    },
    {
      "inputs": [],
      "name": "name",
      "outputs": [
        {
          "internalType": "string",
          "name": "",
          "type": "string"
        }
      ],
      "stateMutability": "view",
      "type": "function"
    },
    {
      "inputs": [
        {
          "internalType": "address",
          "name": "",
          "type": "address"
        }
      ],
      "name": "stakerRewardsToClaim",
      "outputs": [
        {
          "internalType": "uint256",
          "name": "",
          "type": "uint256"
        }
      ],
      "stateMutability": "view",
      "type": "function"
    },
    {
      "inputs": [
        {
          "internalType": "address",
          "name": "",
          "type": "address"
        }
      ],
      "name": "stakersCooldowns",
      "outputs": [
        {
          "internalType": "uint256",
          "name": "",
          "type": "uint256"
        }
      ],
      "stateMutability": "view",
      "type": "function"
    },
    {
      "inputs": [],
      "name": "symbol",
      "outputs": [
        {
          "internalType": "string",
          "name": "",
          "type": "string"
        }
      ],
      "stateMutability": "view",
      "type": "function"
    },
    {
      "inputs": [],
      "name": "totalSupply",
      "outputs": [
        {
          "internalType": "uint256",
          "name": "",
          "type": "uint256"
        }
      ],
      "stateMutability": "view",
      "type": "function"
    },
    {
      "inputs": [
        {
          "internalType": "address",
          "name": "recipient",
          "type": "address"
        },
        {
          "internalType": "uint256",
          "name": "amount",
          "type": "uint256"
        }
      ],
      "name": "transfer",
      "outputs": [
        {
          "internalType": "bool",
          "name": "",
          "type": "bool"
        }
      ],
      "stateMutability": "nonpayable",
      "type": "function"
    },
    {
      "inputs": [
        {
          "internalType": "address",
          "name": "sender",
          "type": "address"
        },
        {
          "internalType": "address",
          "name": "recipient",
          "type": "address"
        },
        {
          "internalType": "uint256",
          "name": "amount",
          "type": "uint256"
        }
      ],
      "name": "transferFrom",
      "outputs": [
        {
          "internalType": "bool",
          "name": "",
          "type": "bool"
        }
      ],
      "stateMutability": "nonpayable",
      "type": "function"
    },
    {
      "inputs": [
        {
          "internalType": "contract ITransferHook",
          "name": "bMXXGovernance",
          "type": "address"
        },
        {
          "internalType": "address",
          "name": "poolAddress",
          "type": "address"
        },
        {
          "internalType": "string",
          "name": "name",
          "type": "string"
        },
        {
          "internalType": "string",
          "name": "symbol",
          "type": "string"
        },
        {
          "internalType": "uint8",
          "name": "decimals",
          "type": "uint8"
        }
      ],
      "name": "initialize",
      "outputs": [],
      "stateMutability": "nonpayable",
      "type": "function"
    },
    {
      "inputs": [
        {
          "internalType": "address",
          "name": "onBehalfOf",
          "type": "address"
        },
        {
          "internalType": "uint256",
          "name": "amount",
          "type": "uint256"
        }
      ],
      "name": "stake",
      "outputs": [],
      "stateMutability": "nonpayable",
      "type": "function"
    },
    {
      "inputs": [
        {
          "internalType": "address",
          "name": "to",
          "type": "address"
        },
        {
          "internalType": "uint256",
          "name": "amount",
          "type": "uint256"
        }
      ],
      "name": "redeem",
      "outputs": [],
      "stateMutability": "nonpayable",
      "type": "function"
    },
    {
      "inputs": [],
      "name": "cooldown",
      "outputs": [],
      "stateMutability": "nonpayable",
      "type": "function"
    },
    {
      "inputs": [
        {
          "internalType": "address",
          "name": "to",
          "type": "address"
        },
        {
          "internalType": "uint256",
          "name": "amount",
          "type": "uint256"
        }
      ],
      "name": "claimRewards",
      "outputs": [],
      "stateMutability": "nonpayable",
      "type": "function"
    },
    {
      "inputs": [
        {
          "internalType": "uint256",
          "name": "fromCooldownTimestamp",
          "type": "uint256"
        },
        {
          "internalType": "uint256",
          "name": "amountToReceive",
          "type": "uint256"
        },
        {
          "internalType": "address",
          "name": "toAddress",
          "type": "address"
        },
        {
          "internalType": "uint256",
          "name": "toBalance",
          "type": "uint256"
        }
      ],
      "name": "getNextCooldownTimestamp",
      "outputs": [
        {
          "internalType": "uint256",
          "name": "",
          "type": "uint256"
        }
      ],
      "stateMutability": "nonpayable",
      "type": "function"
    },
    {
      "inputs": [
        {
          "internalType": "address",
          "name": "staker",
          "type": "address"
        }
      ],
      "name": "getTotalRewardsBalance",
      "outputs": [
        {
          "internalType": "uint256",
          "name": "",
          "type": "uint256"
        }
      ],
      "stateMutability": "view",
      "type": "function"
    }
  ],
  "bytecode": "0x61016060405260006009553480156200001757600080fd5b50604051620052d0380380620052d083398181016040528101906200003d9190620003db565b85856fffffffffffffffffffffffffffffffff1684848482828282600390805190602001906200006f92919062000266565b5081600490805190602001906200008892919062000266565b5080600560006101000a81548160ff021916908360ff160217905550505050505050620000c481426200020e60201b62001df31790919060201c565b608081815250508173ffffffffffffffffffffffffffffffffffffffff1660a08173ffffffffffffffffffffffffffffffffffffffff1660601b8152505050508a73ffffffffffffffffffffffffffffffffffffffff1660c08173ffffffffffffffffffffffffffffffffffffffff1660601b815250508973ffffffffffffffffffffffffffffffffffffffff1660e08173ffffffffffffffffffffffffffffffffffffffff1660601b815250508861010081815250508761012081815250508673ffffffffffffffffffffffffffffffffffffffff166101408173ffffffffffffffffffffffffffffffffffffffff1660601b8152505083603f60006101000a81548173ffffffffffffffffffffffffffffffffffffffff021916908373ffffffffffffffffffffffffffffffffffffffff160217905550505050505050505050505062000717565b6000808284019050838110156200025c576040517f08c379a0000000000000000000000000000000000000000000000000000000008152600401620002539062000556565b60405180910390fd5b8091505092915050565b828054600181600116156101000203166002900490600052602060002090601f016020900481019282601f10620002a957805160ff1916838001178555620002da565b82800160010185558215620002da579182015b82811115620002d9578251825591602001919060010190620002bc565b5b509050620002e99190620002ed565b5090565b5b8082111562000308576000816000905550600101620002ee565b5090565b6000815190506200031d8162000695565b92915050565b6000815190506200033481620006af565b92915050565b600082601f8301126200034c57600080fd5b8151620003636200035d82620005a6565b62000578565b915080825260208301602083018583830111156200038057600080fd5b6200038d8382846200065f565b50505092915050565b600081519050620003a781620006c9565b92915050565b600081519050620003be81620006e3565b92915050565b600081519050620003d581620006fd565b92915050565b60008060008060008060008060008060006101608c8e031215620003fe57600080fd5b60006200040e8e828f0162000323565b9b50506020620004218e828f0162000323565b9a50506040620004348e828f01620003ad565b9950506060620004478e828f01620003ad565b98505060806200045a8e828f016200030c565b97505060a06200046d8e828f016200030c565b96505060c0620004808e828f0162000396565b95505060e0620004938e828f016200030c565b9450506101008c015167ffffffffffffffff811115620004b257600080fd5b620004c08e828f016200033a565b9350506101208c015167ffffffffffffffff811115620004df57600080fd5b620004ed8e828f016200033a565b925050610140620005018e828f01620003c4565b9150509295989b509295989b9093969950565b600062000523601b83620005d3565b91507f536166654d6174683a206164646974696f6e206f766572666c6f7700000000006000830152602082019050919050565b60006020820190508181036000830152620005718162000514565b9050919050565b6000604051905081810181811067ffffffffffffffff821117156200059c57600080fd5b8060405250919050565b600067ffffffffffffffff821115620005be57600080fd5b601f19601f8301169050602081019050919050565b600082825260208201905092915050565b6000620005f18262000628565b9050919050565b60006200060582620005e4565b9050919050565b60006fffffffffffffffffffffffffffffffff82169050919050565b600073ffffffffffffffffffffffffffffffffffffffff82169050919050565b6000819050919050565b600060ff82169050919050565b60005b838110156200067f57808201518184015260208101905062000662565b838111156200068f576000848401525b50505050565b620006a081620005e4565b8114620006ac57600080fd5b50565b620006ba81620005f8565b8114620006c657600080fd5b50565b620006d4816200060c565b8114620006e057600080fd5b50565b620006ee8162000648565b8114620006fa57600080fd5b50565b620007088162000652565b81146200071457600080fd5b50565b60805160a05160601c60c05160601c60e05160601c61010051610120516101405160601c614b18620007b86000398061125d52806114225250806109035280610d8f5280611ca9525080610892528061092a5280610eae5280611ccd5250806113235280611445525080610ad45280610cca528061183b5250806118ef5280611b3a5250806112395280613424528061346a52806134975250614b186000f3fe608060405234801561001057600080fd5b50600436106102115760003560e01c80638779588c11610125578063aaf5eb68116100ad578063cbcbb5071161007c578063cbcbb50714610655578063dd62ed3e14610673578063dde43cba146106a3578063f11b8188146106c1578063f1cc432a146106f357610211565b8063aaf5eb68146105e1578063ad811840146105ff578063adc9772e1461061d578063b2a5dbfa1461063957610211565b806395d89b41116100f457806395d89b411461052957806399248ea7146105475780639a99b4f014610565578063a457c2d714610581578063a9059cbb146105b157610211565b80638779588c1461048d5780638dbefee2146104bd578063919cd40f146104ed578063946776cd1461050b57610211565b8063313ce567116101a857806370a082311161017757806370a08231146103e957806372b49d6314610419578063787a08a6146104375780637e90d7ef146104415780638420ce991461047157610211565b8063313ce5671461034d5780633373ee4c1461036b578063359c4a961461039b57806339509351146103b957610211565b80631e9a6950116101e45780631e9a6950146102b257806323b872dd146102ce5780632acbf823146102fe578063312f6b831461032f57610211565b806306fdde0314610216578063091030c314610234578063095ea7b31461026457806318160ddd14610294575b600080fd5b61021e610723565b60405161022b919061451e565b60405180910390f35b61024e60048036038101906102499190613aee565b6107c5565b60405161025b91906147db565b60405180910390f35b61027e60048036038101906102799190613ba2565b6107dd565b60405161028b91906144cd565b60405180910390f35b61029c6107fb565b6040516102a991906147db565b60405180910390f35b6102cc60048036038101906102c79190613ba2565b610805565b005b6102e860048036038101906102e39190613b53565b610b86565b6040516102f591906144cd565b60405180910390f35b61031860048036038101906103139190613ba2565b610c5f565b60405161032692919061477b565b60405180910390f35b610337610cc8565b60405161034491906144e8565b60405180910390f35b610355610cec565b604051610362919061481f565b60405180910390f35b61038560048036038101906103809190613b17565b610d03565b60405161039291906147db565b60405180910390f35b6103a3610d8d565b6040516103b091906147db565b60405180910390f35b6103d360048036038101906103ce9190613ba2565b610db1565b6040516103e091906144cd565b60405180910390f35b61040360048036038101906103fe9190613aee565b610e64565b60405161041091906147db565b60405180910390f35b610421610eac565b60405161042e91906147db565b60405180910390f35b61043f610ed0565b005b61045b60048036038101906104569190613aee565b610fa5565b60405161046891906147db565b60405180910390f35b61048b60048036038101906104869190613c4c565b610fbd565b005b6104a760048036038101906104a29190613aee565b61110b565b6040516104b491906147db565b60405180910390f35b6104d760048036038101906104d29190613aee565b611123565b6040516104e491906147db565b60405180910390f35b6104f5611237565b60405161050291906147db565b60405180910390f35b61051361125b565b6040516105209190614400565b60405180910390f35b61053161127f565b60405161053e919061451e565b60405180910390f35b61054f611321565b60405161055c91906144e8565b60405180910390f35b61057f600480360381019061057a9190613ba2565b611345565b005b61059b60048036038101906105969190613ba2565b6114f7565b6040516105a891906144cd565b60405180910390f35b6105cb60048036038101906105c69190613ba2565b6115c4565b6040516105d891906144cd565b60405180910390f35b6105e96115e2565b6040516105f6919061481f565b60405180910390f35b6106076115e7565b6040516106149190614503565b60405180910390f35b61063760048036038101906106329190613ba2565b61160d565b005b610653600480360381019061064e9190613bde565b6118ed565b005b61065d611b38565b60405161066a9190614400565b60405180910390f35b61068d60048036038101906106889190613b17565b611b5c565b60405161069a91906147db565b60405180910390f35b6106ab611be3565b6040516106b891906147db565b60405180910390f35b6106db60048036038101906106d69190613aee565b611be8565b6040516106ea939291906147a4565b60405180910390f35b61070d60048036038101906107089190613d25565b611c4a565b60405161071a91906147db565b60405180910390f35b606060038054600181600116156101000203166002900480601f0160208091040260200160405190810160405280929190818152602001828054600181600116156101000203166002900480156107bb5780601f10610790576101008083540402835291602001916107bb565b820191906000526020600020905b81548152906001019060200180831161079e57829003601f168201915b5050505050905090565b603e6020528060005260406000206000915090505481565b60006107f16107ea611e48565b8484611e50565b6001905092915050565b6000600254905090565b6000811415610849576040517f08c379a0000000000000000000000000000000000000000000000000000000008152600401610840906145a0565b60405180910390fd5b6000603e60003373ffffffffffffffffffffffffffffffffffffffff1673ffffffffffffffffffffffffffffffffffffffff1681526020019081526020016000205490506108c07f000000000000000000000000000000000000000000000000000000000000000082611df390919063ffffffff16565b4211610901576040517f08c379a00000000000000000000000000000000000000000000000000000000081526004016108f8906145e0565b60405180910390fd5b7f00000000000000000000000000000000000000000000000000000000000000006109676109587f000000000000000000000000000000000000000000000000000000000000000084611df390919063ffffffff16565b4261201b90919063ffffffff16565b11156109a8576040517f08c379a000000000000000000000000000000000000000000000000000000000815260040161099f906146a0565b60405180910390fd5b60006109b333610e64565b905060008184116109c457836109c6565b815b90506109d433836001612065565b50603f60009054906101000a900473ffffffffffffffffffffffffffffffffffffffff1673ffffffffffffffffffffffffffffffffffffffff16632d24f6c7336040518263ffffffff1660e01b8152600401610a30919061441b565b600060405180830381600087803b158015610a4a57600080fd5b505af1158015610a5e573d6000803e3d6000fd5b50505050610a6c338261216c565b6000610a81828461201b90919063ffffffff16565b1415610acd576000603e60003373ffffffffffffffffffffffffffffffffffffffff1673ffffffffffffffffffffffffffffffffffffffff168152602001908152602001600020819055505b610b1885827f000000000000000000000000000000000000000000000000000000000000000073ffffffffffffffffffffffffffffffffffffffff1661231a9092919063ffffffff16565b8473ffffffffffffffffffffffffffffffffffffffff163373ffffffffffffffffffffffffffffffffffffffff167f3f693fff038bb8a046aa76d9516190ac7444f7d69cf952c4cbdc086fdef2d6fc8342604051610b779291906147f6565b60405180910390a35050505050565b6000610b938484846123a0565b610c5484610b9f611e48565b610c4f85604051806060016040528060288152602001614a9660289139600160008b73ffffffffffffffffffffffffffffffffffffffff1673ffffffffffffffffffffffffffffffffffffffff1681526020019081526020016000206000610c05611e48565b73ffffffffffffffffffffffffffffffffffffffff1673ffffffffffffffffffffffffffffffffffffffff168152602001908152602001600020546126239092919063ffffffff16565b611e50565b600190509392505050565b6006602052816000526040600020602052806000526040600020600091509150508060000160009054906101000a90046fffffffffffffffffffffffffffffffff16908060000160109054906101000a90046fffffffffffffffffffffffffffffffff16905082565b7f000000000000000000000000000000000000000000000000000000000000000081565b6000600560009054906101000a900460ff16905090565b6000603c60008373ffffffffffffffffffffffffffffffffffffffff1673ffffffffffffffffffffffffffffffffffffffff16815260200190815260200160002060020160008473ffffffffffffffffffffffffffffffffffffffff1673ffffffffffffffffffffffffffffffffffffffff16815260200190815260200160002054905092915050565b7f000000000000000000000000000000000000000000000000000000000000000081565b6000610e5a610dbe611e48565b84610e558560016000610dcf611e48565b73ffffffffffffffffffffffffffffffffffffffff1673ffffffffffffffffffffffffffffffffffffffff16815260200190815260200160002060008973ffffffffffffffffffffffffffffffffffffffff1673ffffffffffffffffffffffffffffffffffffffff16815260200190815260200160002054611df390919063ffffffff16565b611e50565b6001905092915050565b60008060008373ffffffffffffffffffffffffffffffffffffffff1673ffffffffffffffffffffffffffffffffffffffff168152602001908152602001600020549050919050565b7f000000000000000000000000000000000000000000000000000000000000000081565b6000610edb33610e64565b1415610f1c576040517f08c379a0000000000000000000000000000000000000000000000000000000008152600401610f1390614700565b60405180910390fd5b42603e60003373ffffffffffffffffffffffffffffffffffffffff1673ffffffffffffffffffffffffffffffffffffffff168152602001908152602001600020819055503373ffffffffffffffffffffffffffffffffffffffff167ff52f50426b32362d3e6bb8cb36b7074756b224622def6352a59eac7f66ebe6e860405160405180910390a2565b603d6020528060005260406000206000915090505481565b6000610fc761267e565b9050600954811161100d576040517f08c379a000000000000000000000000000000000000000000000000000000000815260040161100490614620565b60405180910390fd5b8060098190555061106186868080601f016020809104026020016040519081016040528093929190818152602001838380828437600081840152601f19601f82011690508083019250505050505050612687565b6110ae84848080601f016020809104026020016040519081016040528093929190818152602001838380828437600081840152601f19601f820116905080830192505050505050506126a1565b6110b7826126bb565b6110c0886126d9565b86603f60006101000a81548173ffffffffffffffffffffffffffffffffffffffff021916908373ffffffffffffffffffffffffffffffffffffffff1602179055505050505050505050565b60076020528060005260406000206000915090505481565b60006060600167ffffffffffffffff8111801561113f57600080fd5b5060405190808252806020026020018201604052801561117957816020015b611166613908565b81526020019060019003908161115e5790505b50905060405180606001604052803073ffffffffffffffffffffffffffffffffffffffff1681526020016111ac85610e64565b81526020016111b96107fb565b815250816000815181106111c957fe5b602002602001018190525061122f6111e1848361271d565b603d60008673ffffffffffffffffffffffffffffffffffffffff1673ffffffffffffffffffffffffffffffffffffffff16815260200190815260200160002054611df390919063ffffffff16565b915050919050565b7f000000000000000000000000000000000000000000000000000000000000000081565b7f000000000000000000000000000000000000000000000000000000000000000081565b606060048054600181600116156101000203166002900480601f0160208091040260200160405190810160405280929190818152602001828054600181600116156101000203166002900480156113175780601f106112ec57610100808354040283529160200191611317565b820191906000526020600020905b8154815290600101906020018083116112fa57829003601f168201915b5050505050905090565b7f000000000000000000000000000000000000000000000000000000000000000081565b600061135b3361135433610e64565b6000612065565b905060007fffffffffffffffffffffffffffffffffffffffffffffffffffffffffffffffff831461138c578261138e565b815b90506113da816040518060400160405280600e81526020017f494e56414c49445f414d4f554e54000000000000000000000000000000000000815250846126239092919063ffffffff16565b603d60003373ffffffffffffffffffffffffffffffffffffffff1673ffffffffffffffffffffffffffffffffffffffff1681526020019081526020016000208190555061148a7f000000000000000000000000000000000000000000000000000000000000000085837f000000000000000000000000000000000000000000000000000000000000000073ffffffffffffffffffffffffffffffffffffffff16612898909392919063ffffffff16565b8373ffffffffffffffffffffffffffffffffffffffff163373ffffffffffffffffffffffffffffffffffffffff167fd92c424393cb3ccdf7d5e36602e3bfa34f24490579ba47978f4bcfad496995f283426040516114e99291906147f6565b60405180910390a350505050565b60006115ba611504611e48565b846115b585604051806060016040528060258152602001614abe602591396001600061152e611e48565b73ffffffffffffffffffffffffffffffffffffffff1673ffffffffffffffffffffffffffffffffffffffff16815260200190815260200160002060008a73ffffffffffffffffffffffffffffffffffffffff1673ffffffffffffffffffffffffffffffffffffffff168152602001908152602001600020546126239092919063ffffffff16565b611e50565b6001905092915050565b60006115d86115d1611e48565b84846123a0565b6001905092915050565b601281565b600860009054906101000a900473ffffffffffffffffffffffffffffffffffffffff1681565b6000811415611651576040517f08c379a0000000000000000000000000000000000000000000000000000000008152600401611648906145a0565b60405180910390fd5b600061165c83610e64565b9050600061167384308461166e6107fb565b612921565b90506000811461174c577f2468f9268c60ad90e2d49edb0032c8a001e733ae888b3ab8e982edf535be1a7684826040516116ae9291906144a4565b60405180910390a161170881603d60008773ffffffffffffffffffffffffffffffffffffffff1673ffffffffffffffffffffffffffffffffffffffff16815260200190815260200160002054611df390919063ffffffff16565b603d60008673ffffffffffffffffffffffffffffffffffffffff1673ffffffffffffffffffffffffffffffffffffffff168152602001908152602001600020819055505b6117596000848685611c4a565b603e60008673ffffffffffffffffffffffffffffffffffffffff1673ffffffffffffffffffffffffffffffffffffffff16815260200190815260200160002081905550603f60009054906101000a900473ffffffffffffffffffffffffffffffffffffffff1673ffffffffffffffffffffffffffffffffffffffff16632d24f6c7856040518263ffffffff1660e01b81526004016117f79190614400565b600060405180830381600087803b15801561181157600080fd5b505af1158015611825573d6000803e3d6000fd5b505050506118338484612a93565b6118803330857f000000000000000000000000000000000000000000000000000000000000000073ffffffffffffffffffffffffffffffffffffffff16612898909392919063ffffffff16565b8373ffffffffffffffffffffffffffffffffffffffff163373ffffffffffffffffffffffffffffffffffffffff167f6c86f3fd5118b3aa8bb4f389a617046de0a3d3d477de1a1673d227f802f616dc85426040516118df9291906147f6565b60405180910390a350505050565b7f000000000000000000000000000000000000000000000000000000000000000073ffffffffffffffffffffffffffffffffffffffff163373ffffffffffffffffffffffffffffffffffffffff161461197b576040517f08c379a000000000000000000000000000000000000000000000000000000000815260040161197290614640565b60405180910390fd5b60005b82829050811015611b33576000603c600085858581811061199b57fe5b90506060020160400160208101906119b39190613aee565b73ffffffffffffffffffffffffffffffffffffffff1673ffffffffffffffffffffffffffffffffffffffff1681526020019081526020016000209050611a328484848181106119fe57fe5b9050606002016040016020810190611a169190613aee565b82868686818110611a2357fe5b90506060020160200135612c27565b50838383818110611a3f57fe5b9050606002016000016020810190611a579190613cfc565b8160000160006101000a8154816fffffffffffffffffffffffffffffffff02191690836fffffffffffffffffffffffffffffffff160217905550838383818110611a9d57fe5b9050606002016040016020810190611ab59190613aee565b73ffffffffffffffffffffffffffffffffffffffff167f87fa03892a0556cb6b8f97e6d533a150d4d55fcbf275fff5fa003fa636bcc7fa858585818110611af857fe5b9050606002016000016020810190611b109190613cfc565b604051611b1d9190614760565b60405180910390a250808060010191505061197e565b505050565b7f000000000000000000000000000000000000000000000000000000000000000081565b6000600160008473ffffffffffffffffffffffffffffffffffffffff1673ffffffffffffffffffffffffffffffffffffffff16815260200190815260200160002060008373ffffffffffffffffffffffffffffffffffffffff1673ffffffffffffffffffffffffffffffffffffffff16815260200190815260200160002054905092915050565b600181565b603c6020528060005260406000206000915090508060000160009054906101000a90046fffffffffffffffffffffffffffffffff16908060000160109054906101000a90046fffffffffffffffffffffffffffffffff16908060010154905083565b600080603e60008573ffffffffffffffffffffffffffffffffffffffff1673ffffffffffffffffffffffffffffffffffffffff1681526020019081526020016000205490506000811415611ca2576000915050611deb565b6000611d097f0000000000000000000000000000000000000000000000000000000000000000611cfb7f00000000000000000000000000000000000000000000000000000000000000004261201b90919063ffffffff16565b61201b90919063ffffffff16565b905081811115611d1c5760009150611da1565b6000878211611d2b5787611d2d565b425b905082811015611d4257829350505050611deb565b611d9d611d588689611df390919063ffffffff16565b611d8f611d6e8689612d6490919063ffffffff16565b611d81858c612d6490919063ffffffff16565b611df390919063ffffffff16565b612dd490919063ffffffff16565b9250505b81603e60008773ffffffffffffffffffffffffffffffffffffffff1673ffffffffffffffffffffffffffffffffffffffff1681526020019081526020016000208190555081925050505b949350505050565b600080828401905083811015611e3e576040517f08c379a0000000000000000000000000000000000000000000000000000000008152600401611e3590614580565b60405180910390fd5b8091505092915050565b600033905090565b600073ffffffffffffffffffffffffffffffffffffffff168373ffffffffffffffffffffffffffffffffffffffff161415611ec0576040517f08c379a0000000000000000000000000000000000000000000000000000000008152600401611eb7906146c0565b60405180910390fd5b600073ffffffffffffffffffffffffffffffffffffffff168273ffffffffffffffffffffffffffffffffffffffff161415611f30576040517f08c379a0000000000000000000000000000000000000000000000000000000008152600401611f2790614560565b60405180910390fd5b80600160008573ffffffffffffffffffffffffffffffffffffffff1673ffffffffffffffffffffffffffffffffffffffff16815260200190815260200160002060008473ffffffffffffffffffffffffffffffffffffffff1673ffffffffffffffffffffffffffffffffffffffff168152602001908152602001600020819055508173ffffffffffffffffffffffffffffffffffffffff168373ffffffffffffffffffffffffffffffffffffffff167f8c5be1e5ebec7d5bd14f71427d1e84f3dd0314c0f7b2291e5b200ac8c7c3b9258360405161200e91906147db565b60405180910390a3505050565b600061205d83836040518060400160405280601e81526020017f536166654d6174683a207375627472616374696f6e206f766572666c6f770000815250612623565b905092915050565b60008061207b8530866120766107fb565b612921565b905060006120d182603d60008973ffffffffffffffffffffffffffffffffffffffff1673ffffffffffffffffffffffffffffffffffffffff16815260200190815260200160002054611df390919063ffffffff16565b9050600082146121605783156121265780603d60008873ffffffffffffffffffffffffffffffffffffffff1673ffffffffffffffffffffffffffffffffffffffff168152602001908152602001600020819055505b7f2468f9268c60ad90e2d49edb0032c8a001e733ae888b3ab8e982edf535be1a7686836040516121579291906144a4565b60405180910390a15b80925050509392505050565b600073ffffffffffffffffffffffffffffffffffffffff168273ffffffffffffffffffffffffffffffffffffffff1614156121dc576040517f08c379a00000000000000000000000000000000000000000000000000000000081526004016121d390614660565b60405180910390fd5b6121e882600083612e1e565b61225381604051806060016040528060228152602001614a4e602291396000808673ffffffffffffffffffffffffffffffffffffffff1673ffffffffffffffffffffffffffffffffffffffff168152602001908152602001600020546126239092919063ffffffff16565b6000808473ffffffffffffffffffffffffffffffffffffffff1673ffffffffffffffffffffffffffffffffffffffff168152602001908152602001600020819055506122aa8160025461201b90919063ffffffff16565b600281905550600073ffffffffffffffffffffffffffffffffffffffff168273ffffffffffffffffffffffffffffffffffffffff167fddf252ad1be2c89b69c2b068fc378daa952ba7f163c4a11628f55a4df523b3ef8360405161230e91906147db565b60405180910390a35050565b61239b8363a9059cbb60e01b84846040516024016123399291906144a4565b604051602081830303815290604052907bffffffffffffffffffffffffffffffffffffffffffffffffffffffff19166020820180517bffffffffffffffffffffffffffffffffffffffffffffffffffffffff8381831617835250505050612fe9565b505050565b60006123ab84610e64565b90506123b984826001612065565b508273ffffffffffffffffffffffffffffffffffffffff168473ffffffffffffffffffffffffffffffffffffffff16146124f85760006123f884610e64565b905061240684826001612065565b506000603e60008773ffffffffffffffffffffffffffffffffffffffff1673ffffffffffffffffffffffffffffffffffffffff16815260200190815260200160002054905061245781858785611c4a565b603e60008773ffffffffffffffffffffffffffffffffffffffff1673ffffffffffffffffffffffffffffffffffffffff1681526020019081526020016000208190555083831480156124aa575060008114155b156124f5576000603e60008873ffffffffffffffffffffffffffffffffffffffff1673ffffffffffffffffffffffffffffffffffffffff168152602001908152602001600020819055505b50505b603f60009054906101000a900473ffffffffffffffffffffffffffffffffffffffff1673ffffffffffffffffffffffffffffffffffffffff16632d24f6c7856040518263ffffffff1660e01b81526004016125539190614400565b600060405180830381600087803b15801561256d57600080fd5b505af1158015612581573d6000803e3d6000fd5b50505050603f60009054906101000a900473ffffffffffffffffffffffffffffffffffffffff1673ffffffffffffffffffffffffffffffffffffffff16632d24f6c7846040518263ffffffff1660e01b81526004016125e09190614400565b600060405180830381600087803b1580156125fa57600080fd5b505af115801561260e573d6000803e3d6000fd5b5050505061261d84848461315b565b50505050565b600083831115829061266b576040517f08c379a0000000000000000000000000000000000000000000000000000000008152600401612662919061451e565b60405180910390fd5b5060008385039050809150509392505050565b60006001905090565b806003908051906020019061269d92919061393f565b5050565b80600490805190602001906126b792919061393f565b5050565b80600560006101000a81548160ff021916908360ff16021790555050565b80600860006101000a81548173ffffffffffffffffffffffffffffffffffffffff021916908373ffffffffffffffffffffffffffffffffffffffff16021790555050565b6000806000905060005b835181101561288d576000603c600086848151811061274257fe5b60200260200101516000015173ffffffffffffffffffffffffffffffffffffffff1673ffffffffffffffffffffffffffffffffffffffff1681526020019081526020016000209050600061280582600101548360000160009054906101000a90046fffffffffffffffffffffffffffffffff166fffffffffffffffffffffffffffffffff168460000160109054906101000a90046fffffffffffffffffffffffffffffffff168987815181106127f457fe5b6020026020010151604001516133f0565b905061287c61286d87858151811061281957fe5b602002602001015160200151838560020160008c73ffffffffffffffffffffffffffffffffffffffff1673ffffffffffffffffffffffffffffffffffffffff1681526020019081526020016000205461353f565b85611df390919063ffffffff16565b935050508080600101915050612727565b508091505092915050565b61291b846323b872dd60e01b8585856040516024016128b993929190614436565b604051602081830303815290604052907bffffffffffffffffffffffffffffffffffffffffffffffffffffffff19166020820180517bffffffffffffffffffffffffffffffffffffffffffffffffffffffff8381831617835250505050612fe9565b50505050565b600080603c60008673ffffffffffffffffffffffffffffffffffffffff1673ffffffffffffffffffffffffffffffffffffffff168152602001908152602001600020905060008160020160008873ffffffffffffffffffffffffffffffffffffffff1673ffffffffffffffffffffffffffffffffffffffff1681526020019081526020016000205490506000806129b9888588612c27565b9050808314612a8457600087146129d8576129d587828561353f565b91505b808460020160008b73ffffffffffffffffffffffffffffffffffffffff1673ffffffffffffffffffffffffffffffffffffffff168152602001908152602001600020819055508773ffffffffffffffffffffffffffffffffffffffff168973ffffffffffffffffffffffffffffffffffffffff167fbb123b5c06d5408bbea3c4fef481578175cfb432e3b482c6186f02ed9086585b83604051612a7b91906147db565b60405180910390a35b81945050505050949350505050565b600073ffffffffffffffffffffffffffffffffffffffff168273ffffffffffffffffffffffffffffffffffffffff161415612b03576040517f08c379a0000000000000000000000000000000000000000000000000000000008152600401612afa90614740565b60405180910390fd5b612b0f60008383612e1e565b612b2481600254611df390919063ffffffff16565b600281905550612b7b816000808573ffffffffffffffffffffffffffffffffffffffff1673ffffffffffffffffffffffffffffffffffffffff16815260200190815260200160002054611df390919063ffffffff16565b6000808473ffffffffffffffffffffffffffffffffffffffff1673ffffffffffffffffffffffffffffffffffffffff168152602001908152602001600020819055508173ffffffffffffffffffffffffffffffffffffffff16600073ffffffffffffffffffffffffffffffffffffffff167fddf252ad1be2c89b69c2b068fc378daa952ba7f163c4a11628f55a4df523b3ef83604051612c1b91906147db565b60405180910390a35050565b6000808360010154905060008460000160109054906101000a90046fffffffffffffffffffffffffffffffff169050806fffffffffffffffffffffffffffffffff16421415612c7a578192505050612d5d565b6000612cba838760000160009054906101000a90046fffffffffffffffffffffffffffffffff166fffffffffffffffffffffffffffffffff1684886133f0565b9050828114612d1b578086600101819055508673ffffffffffffffffffffffffffffffffffffffff167f5777ca300dfe5bead41006fbce4389794dbc0ed8d6cccebfaf94630aa04184bc82604051612d1291906147db565b60405180910390a25b428660000160106101000a8154816fffffffffffffffffffffffffffffffff02191690836fffffffffffffffffffffffffffffffff1602179055508093505050505b9392505050565b600080831415612d775760009050612dce565b6000828402905082848281612d8857fe5b0414612dc9576040517f08c379a0000000000000000000000000000000000000000000000000000000008152600401612dc090614600565b60405180910390fd5b809150505b92915050565b6000612e1683836040518060400160405280601a81526020017f536166654d6174683a206469766973696f6e206279207a65726f000000000000815250613588565b905092915050565b8173ffffffffffffffffffffffffffffffffffffffff168373ffffffffffffffffffffffffffffffffffffffff161415612e5757612fe4565b600073ffffffffffffffffffffffffffffffffffffffff168373ffffffffffffffffffffffffffffffffffffffff1614612eb7576000612e9684610e64565b9050612eb58482612eb0858561201b90919063ffffffff16565b6135e9565b505b600073ffffffffffffffffffffffffffffffffffffffff168273ffffffffffffffffffffffffffffffffffffffff1614612f17576000612ef683610e64565b9050612f158382612f108585611df390919063ffffffff16565b6135e9565b505b6000600860009054906101000a900473ffffffffffffffffffffffffffffffffffffffff169050600073ffffffffffffffffffffffffffffffffffffffff168173ffffffffffffffffffffffffffffffffffffffff1614612fe2578073ffffffffffffffffffffffffffffffffffffffff16634a3931498585856040518463ffffffff1660e01b8152600401612faf93929190614436565b600060405180830381600087803b158015612fc957600080fd5b505af1158015612fdd573d6000803e3d6000fd5b505050505b505b505050565b6130088273ffffffffffffffffffffffffffffffffffffffff166138bd565b613047576040517f08c379a000000000000000000000000000000000000000000000000000000000815260040161303e90614720565b60405180910390fd5b600060608373ffffffffffffffffffffffffffffffffffffffff168360405161307091906143e9565b6000604051808303816000865af19150503d80600081146130ad576040519150601f19603f3d011682016040523d82523d6000602084013e6130b2565b606091505b5091509150816130f7576040517f08c379a00000000000000000000000000000000000000000000000000000000081526004016130ee906145c0565b60405180910390fd5b60008151111561315557808060200190518101906131159190613c23565b613154576040517f08c379a000000000000000000000000000000000000000000000000000000000815260040161314b906146e0565b60405180910390fd5b5b50505050565b600073ffffffffffffffffffffffffffffffffffffffff168373ffffffffffffffffffffffffffffffffffffffff1614156131cb576040517f08c379a00000000000000000000000000000000000000000000000000000000081526004016131c290614680565b60405180910390fd5b600073ffffffffffffffffffffffffffffffffffffffff168273ffffffffffffffffffffffffffffffffffffffff16141561323b576040517f08c379a000000000000000000000000000000000000000000000000000000000815260040161323290614540565b60405180910390fd5b613246838383612e1e565b6132b181604051806060016040528060268152602001614a70602691396000808773ffffffffffffffffffffffffffffffffffffffff1673ffffffffffffffffffffffffffffffffffffffff168152602001908152602001600020546126239092919063ffffffff16565b6000808573ffffffffffffffffffffffffffffffffffffffff1673ffffffffffffffffffffffffffffffffffffffff16815260200190815260200160002081905550613344816000808573ffffffffffffffffffffffffffffffffffffffff1673ffffffffffffffffffffffffffffffffffffffff16815260200190815260200160002054611df390919063ffffffff16565b6000808473ffffffffffffffffffffffffffffffffffffffff1673ffffffffffffffffffffffffffffffffffffffff168152602001908152602001600020819055508173ffffffffffffffffffffffffffffffffffffffff168373ffffffffffffffffffffffffffffffffffffffff167fddf252ad1be2c89b69c2b068fc378daa952ba7f163c4a11628f55a4df523b3ef836040516133e391906147db565b60405180910390a3505050565b6000808414806134005750600082145b8061341c575042836fffffffffffffffffffffffffffffffff16145b8061345957507f0000000000000000000000000000000000000000000000000000000000000000836fffffffffffffffffffffffffffffffff1610155b1561346657849050613537565b60007f0000000000000000000000000000000000000000000000000000000000000000421161349557426134b7565b7f00000000000000000000000000000000000000000000000000000000000000005b905060006134e0856fffffffffffffffffffffffffffffffff168361201b90919063ffffffff16565b90506135328761352486613516601260ff16600a0a613508878d612d6490919063ffffffff16565b612d6490919063ffffffff16565b612dd490919063ffffffff16565b611df390919063ffffffff16565b925050505b949350505050565b600061357f601260ff16600a0a613571613562858761201b90919063ffffffff16565b87612d6490919063ffffffff16565b612dd490919063ffffffff16565b90509392505050565b600080831182906135cf576040517f08c379a00000000000000000000000000000000000000000000000000000000081526004016135c6919061451e565b60405180910390fd5b5060008385816135db57fe5b049050809150509392505050565b60004390506000600760008673ffffffffffffffffffffffffffffffffffffffff1673ffffffffffffffffffffffffffffffffffffffff1681526020019081526020016000205490506000600660008773ffffffffffffffffffffffffffffffffffffffff1673ffffffffffffffffffffffffffffffffffffffff1681526020019081526020016000209050600082141580156136ed5750826fffffffffffffffffffffffffffffffff168160006136ab60018661201b90919063ffffffff16565b815260200190815260200160002060000160009054906101000a90046fffffffffffffffffffffffffffffffff166fffffffffffffffffffffffffffffffff16145b15613756578381600061370a60018661201b90919063ffffffff16565b815260200190815260200160002060000160106101000a8154816fffffffffffffffffffffffffffffffff02191690836fffffffffffffffffffffffffffffffff16021790555061387a565b6040518060400160405280846fffffffffffffffffffffffffffffffff168152602001856fffffffffffffffffffffffffffffffff1681525081600084815260200190815260200160002060008201518160000160006101000a8154816fffffffffffffffffffffffffffffffff02191690836fffffffffffffffffffffffffffffffff16021790555060208201518160000160106101000a8154816fffffffffffffffffffffffffffffffff02191690836fffffffffffffffffffffffffffffffff160217905550905050613836600183611df390919063ffffffff16565b600760008873ffffffffffffffffffffffffffffffffffffffff1673ffffffffffffffffffffffffffffffffffffffff168152602001908152602001600020819055505b7f2cd3c83ddac2953ee75f53265d9ea4463eaf05030e5459a1b7e63819b7ce88f78686866040516138ad9392919061446d565b60405180910390a1505050505050565b60008060007fc5d2460186f7233c927e7db2dcc703c0e500b653ca82273b7bfad8045d85a47060001b9050833f91508082141580156138ff57506000801b8214155b92505050919050565b6040518060600160405280600073ffffffffffffffffffffffffffffffffffffffff16815260200160008152602001600081525090565b828054600181600116156101000203166002900490600052602060002090601f016020900481019282601f1061398057805160ff19168380011785556139ae565b828001600101855582156139ae579182015b828111156139ad578251825591602001919060010190613992565b5b5090506139bb91906139bf565b5090565b5b808211156139d85760008160009055506001016139c0565b5090565b6000813590506139eb816149c3565b92915050565b60008083601f840112613a0357600080fd5b8235905067ffffffffffffffff811115613a1c57600080fd5b602083019150836060820283011115613a3457600080fd5b9250929050565b600081519050613a4a816149da565b92915050565b600081359050613a5f816149f1565b92915050565b60008083601f840112613a7757600080fd5b8235905067ffffffffffffffff811115613a9057600080fd5b602083019150836001820283011115613aa857600080fd5b9250929050565b600081359050613abe81614a08565b92915050565b600081359050613ad381614a1f565b92915050565b600081359050613ae881614a36565b92915050565b600060208284031215613b0057600080fd5b6000613b0e848285016139dc565b91505092915050565b60008060408385031215613b2a57600080fd5b6000613b38858286016139dc565b9250506020613b49858286016139dc565b9150509250929050565b600080600060608486031215613b6857600080fd5b6000613b76868287016139dc565b9350506020613b87868287016139dc565b9250506040613b9886828701613ac4565b9150509250925092565b60008060408385031215613bb557600080fd5b6000613bc3858286016139dc565b9250506020613bd485828601613ac4565b9150509250929050565b60008060208385031215613bf157600080fd5b600083013567ffffffffffffffff811115613c0b57600080fd5b613c17858286016139f1565b92509250509250929050565b600060208284031215613c3557600080fd5b6000613c4384828501613a3b565b91505092915050565b600080600080600080600060a0888a031215613c6757600080fd5b6000613c758a828b01613a50565b9750506020613c868a828b016139dc565b965050604088013567ffffffffffffffff811115613ca357600080fd5b613caf8a828b01613a65565b9550955050606088013567ffffffffffffffff811115613cce57600080fd5b613cda8a828b01613a65565b93509350506080613ced8a828b01613ad9565b91505092959891949750929550565b600060208284031215613d0e57600080fd5b6000613d1c84828501613aaf565b91505092915050565b60008060008060808587031215613d3b57600080fd5b6000613d4987828801613ac4565b9450506020613d5a87828801613ac4565b9350506040613d6b878288016139dc565b9250506060613d7c87828801613ac4565b91505092959194509250565b613d91816148ef565b82525050565b613da08161486c565b82525050565b613daf8161487e565b82525050565b6000613dc08261483a565b613dca8185614850565b9350613dda81856020860161497f565b80840191505092915050565b613def81614901565b82525050565b613dfe81614925565b82525050565b6000613e0f82614845565b613e19818561485b565b9350613e2981856020860161497f565b613e32816149b2565b840191505092915050565b6000613e4a60238361485b565b91507f45524332303a207472616e7366657220746f20746865207a65726f206164647260008301527f65737300000000000000000000000000000000000000000000000000000000006020830152604082019050919050565b6000613eb060228361485b565b91507f45524332303a20617070726f766520746f20746865207a65726f20616464726560008301527f73730000000000000000000000000000000000000000000000000000000000006020830152604082019050919050565b6000613f16601b8361485b565b91507f536166654d6174683a206164646974696f6e206f766572666c6f7700000000006000830152602082019050919050565b6000613f5660138361485b565b91507f494e56414c49445f5a45524f5f414d4f554e54000000000000000000000000006000830152602082019050919050565b6000613f9660208361485b565b91507f5361666545524332303a206c6f772d6c6576656c2063616c6c206661696c65646000830152602082019050919050565b6000613fd660158361485b565b91507f494e53554646494349454e545f434f4f4c444f574e00000000000000000000006000830152602082019050919050565b600061401660218361485b565b91507f536166654d6174683a206d756c7469706c69636174696f6e206f766572666c6f60008301527f77000000000000000000000000000000000000000000000000000000000000006020830152604082019050919050565b600061407c602e8361485b565b91507f436f6e747261637420696e7374616e63652068617320616c726561647920626560008301527f656e20696e697469616c697a65640000000000000000000000000000000000006020830152604082019050919050565b60006140e260158361485b565b91507f4f4e4c595f454d495353494f4e5f4d414e4147455200000000000000000000006000830152602082019050919050565b600061412260218361485b565b91507f45524332303a206275726e2066726f6d20746865207a65726f2061646472657360008301527f73000000000000000000000000000000000000000000000000000000000000006020830152604082019050919050565b600061418860258361485b565b91507f45524332303a207472616e736665722066726f6d20746865207a65726f20616460008301527f64726573730000000000000000000000000000000000000000000000000000006020830152604082019050919050565b60006141ee60178361485b565b91507f554e5354414b455f57494e444f575f46494e49534845440000000000000000006000830152602082019050919050565b600061422e60248361485b565b91507f45524332303a20617070726f76652066726f6d20746865207a65726f2061646460008301527f72657373000000000000000000000000000000000000000000000000000000006020830152604082019050919050565b6000614294602a8361485b565b91507f5361666545524332303a204552433230206f7065726174696f6e20646964206e60008301527f6f742073756363656564000000000000000000000000000000000000000000006020830152604082019050919050565b60006142fa601b8361485b565b91507f494e56414c49445f42414c414e43455f4f4e5f434f4f4c444f574e00000000006000830152602082019050919050565b600061433a601f8361485b565b91507f5361666545524332303a2063616c6c20746f206e6f6e2d636f6e7472616374006000830152602082019050919050565b600061437a601f8361485b565b91507f45524332303a206d696e7420746f20746865207a65726f2061646472657373006000830152602082019050919050565b6143b68161489c565b82525050565b6143c581614949565b82525050565b6143d4816148d8565b82525050565b6143e3816148e2565b82525050565b60006143f58284613db5565b915081905092915050565b60006020820190506144156000830184613d97565b92915050565b60006020820190506144306000830184613d88565b92915050565b600060608201905061444b6000830186613d97565b6144586020830185613d97565b61446560408301846143cb565b949350505050565b60006060820190506144826000830186613d97565b61448f60208301856143ad565b61449c60408301846143ad565b949350505050565b60006040820190506144b96000830185613d97565b6144c660208301846143cb565b9392505050565b60006020820190506144e26000830184613da6565b92915050565b60006020820190506144fd6000830184613de6565b92915050565b60006020820190506145186000830184613df5565b92915050565b600060208201905081810360008301526145388184613e04565b905092915050565b6000602082019050818103600083015261455981613e3d565b9050919050565b6000602082019050818103600083015261457981613ea3565b9050919050565b6000602082019050818103600083015261459981613f09565b9050919050565b600060208201905081810360008301526145b981613f49565b9050919050565b600060208201905081810360008301526145d981613f89565b9050919050565b600060208201905081810360008301526145f981613fc9565b9050919050565b6000602082019050818103600083015261461981614009565b9050919050565b600060208201905081810360008301526146398161406f565b9050919050565b60006020820190508181036000830152614659816140d5565b9050919050565b6000602082019050818103600083015261467981614115565b9050919050565b600060208201905081810360008301526146998161417b565b9050919050565b600060208201905081810360008301526146b9816141e1565b9050919050565b600060208201905081810360008301526146d981614221565b9050919050565b600060208201905081810360008301526146f981614287565b9050919050565b60006020820190508181036000830152614719816142ed565b9050919050565b600060208201905081810360008301526147398161432d565b9050919050565b600060208201905081810360008301526147598161436d565b9050919050565b600060208201905061477560008301846143bc565b92915050565b600060408201905061479060008301856143ad565b61479d60208301846143ad565b9392505050565b60006060820190506147b960008301866143ad565b6147c660208301856143ad565b6147d360408301846143cb565b949350505050565b60006020820190506147f060008301846143cb565b92915050565b600060408201905061480b60008301856143cb565b61481860208301846143cb565b9392505050565b600060208201905061483460008301846143da565b92915050565b600081519050919050565b600081519050919050565b600081905092915050565b600082825260208201905092915050565b6000614877826148b8565b9050919050565b60008115159050919050565b60006148958261486c565b9050919050565b60006fffffffffffffffffffffffffffffffff82169050919050565b600073ffffffffffffffffffffffffffffffffffffffff82169050919050565b6000819050919050565b600060ff82169050919050565b60006148fa8261495b565b9050919050565b600061490c82614913565b9050919050565b600061491e826148b8565b9050919050565b600061493082614937565b9050919050565b6000614942826148b8565b9050919050565b60006149548261489c565b9050919050565b60006149668261496d565b9050919050565b6000614978826148b8565b9050919050565b60005b8381101561499d578082015181840152602081019050614982565b838111156149ac576000848401525b50505050565b6000601f19601f8301169050919050565b6149cc8161486c565b81146149d757600080fd5b50565b6149e38161487e565b81146149ee57600080fd5b50565b6149fa8161488a565b8114614a0557600080fd5b50565b614a118161489c565b8114614a1c57600080fd5b50565b614a28816148d8565b8114614a3357600080fd5b50565b614a3f816148e2565b8114614a4a57600080fd5b5056fe45524332303a206275726e20616d6f756e7420657863656564732062616c616e636545524332303a207472616e7366657220616d6f756e7420657863656564732062616c616e636545524332303a207472616e7366657220616d6f756e74206578636565647320616c6c6f77616e636545524332303a2064656372656173656420616c6c6f77616e63652062656c6f77207a65726fa26469706673582212200159c167afca64f3f955b36a5eeb1c3539beb80f862305adf0fd4f3b47edd23e64736f6c634300060c0033",
  "immutableReferences": {
    "2099": [
      {
        "length": 32,
        "start": 2772
      },
      {
        "length": 32,
        "start": 3274
      },
      {
        "length": 32,
        "start": 6203
      }
    ],
    "2101": [
      {
        "length": 32,
        "start": 4899
      },
      {
        "length": 32,
        "start": 5189
      }
    ],
    "2103": [
      {
        "length": 32,
        "start": 2194
      },
      {
        "length": 32,
        "start": 2346
      },
      {
        "length": 32,
        "start": 3758
      },
      {
        "length": 32,
        "start": 7373
      }
    ],
    "2106": [
      {
        "length": 32,
        "start": 2307
      },
      {
        "length": 32,
        "start": 3471
      },
      {
        "length": 32,
        "start": 7337
      }
    ],
    "2109": [
      {
        "length": 32,
        "start": 4701
      },
      {
        "length": 32,
        "start": 5154
      }
    ],
    "2954": [
      {
        "length": 32,
        "start": 4665
      },
      {
        "length": 32,
        "start": 13348
      },
      {
        "length": 32,
        "start": 13418
      },
      {
        "length": 32,
        "start": 13463
      }
    ],
    "2956": [
      {
        "length": 32,
        "start": 6383
      },
      {
        "length": 32,
        "start": 6970
      }
    ]
  },
  "source": "// SPDX-License-Identifier: agpl-3.0\r\npragma solidity 0.6.12;\r\npragma experimental ABIEncoderV2;\r\n\r\nimport \"../lib/SafeMath.sol\";\r\nimport {IERC20} from \"../interfaces/IERC20.sol\";\r\nimport {IStakedbMXX} from \"../interfaces/IStakedbMXX.sol\";\r\nimport {ITransferHook} from \"../interfaces/ITransferHook.sol\";\r\nimport {ERC20WithSnapshot} from \"../lib/ERC20WithSnapshot.sol\";\r\nimport {SafeERC20} from \"../lib/SafeERC20.sol\";\r\nimport {VersionedInitializable} from \"../utils/VersionedInitializable.sol\";\r\nimport {DistributionTypes} from \"../lib/DistributionTypes.sol\";\r\nimport {bMXXDistributionManager} from \"./bMXXDistributionManager.sol\";\r\nimport {ILendingPool} from \"../interfaces/ILendingPool.sol\";\r\n\r\n\r\n/**\r\n * @title StakedToken\r\n * @notice Contract to stake bMXX token, tokenize the position and get rewards, inheriting from a distribution manager contract\r\n * @author bMXX\r\n **/\r\ncontract StakedToken is\r\n    IStakedbMXX,\r\n    ERC20WithSnapshot,\r\n    VersionedInitializable,\r\n    bMXXDistributionManager\r\n{\r\n    using SafeERC20 for IERC20;\r\n    using SafeMath for uint256;\r\n\r\n    uint256 public constant REVISION = 1;\r\n\r\n    IERC20 public immutable STAKED_TOKEN;\r\n    IERC20 public immutable REWARD_TOKEN;\r\n    uint256 public immutable COOLDOWN_SECONDS;\r\n\r\n    /// @notice Seconds available to redeem once the cooldown period is fullfilled\r\n    uint256 public immutable UNSTAKE_WINDOW;\r\n\r\n    /// @notice Address to pull from the rewards, needs to have approved this contract\r\n    address public immutable REWARDS_VAULT;\r\n\r\n    mapping(address => uint256) public stakerRewardsToClaim;\r\n    mapping(address => uint256) public stakersCooldowns;\r\n\r\n    event Staked(\r\n        address indexed from,\r\n        address indexed onBehalfOf,\r\n        uint256 amount,\r\n        uint256 timestamp\r\n    );\r\n    event Redeem(address indexed from, address indexed to, uint256 amount, uint256 timestamp);\r\n\r\n    event RewardsAccrued(address user, uint256 amount);\r\n    event RewardsClaimed(\r\n        address indexed from,\r\n        address indexed to,\r\n        uint256 amount,\r\n        uint256 timestamp\r\n    );\r\n\r\n    event Cooldown(address indexed user);\r\n\r\n    ILendingPool private POOL;\r\n\r\n    constructor(\r\n        IERC20 stakedToken,\r\n        IERC20 rewardToken,\r\n        uint256 cooldownSeconds,\r\n        uint256 unstakeWindow,\r\n        address rewardsVault,\r\n        address emissionManager,\r\n        uint128 distributionDuration,\r\n        address poolAddress,\r\n        string memory name,\r\n        string memory symbol,\r\n        uint8 decimals\r\n    )\r\n        public\r\n        ERC20WithSnapshot(name, symbol, decimals)\r\n        bMXXDistributionManager(emissionManager, distributionDuration)\r\n    {\r\n        STAKED_TOKEN = stakedToken;\r\n        REWARD_TOKEN = rewardToken;\r\n        COOLDOWN_SECONDS = cooldownSeconds;\r\n        UNSTAKE_WINDOW = unstakeWindow;\r\n        REWARDS_VAULT = rewardsVault;\r\n        POOL = ILendingPool(poolAddress); \r\n    }\r\n\r\n    /**\r\n     * @dev Called by the proxy contract\r\n     **/\r\n    function initialize(\r\n        ITransferHook bMXXGovernance,\r\n        address poolAddress,\r\n        string calldata name,\r\n        string calldata symbol,\r\n        uint8 decimals\r\n    ) external initializer {\r\n        _setName(name);\r\n        _setSymbol(symbol);\r\n        _setDecimals(decimals);\r\n        _setbMXXGovernance(bMXXGovernance);\r\n        POOL = ILendingPool(poolAddress); \r\n    }\r\n\r\n    function stake(address onBehalfOf, uint256 amount) external override {\r\n        require(amount != 0, \"INVALID_ZERO_AMOUNT\");\r\n        uint256 balanceOfUser = balanceOf(onBehalfOf);\r\n\r\n        uint256 accruedRewards =\r\n            _updateUserAssetInternal(\r\n                onBehalfOf,\r\n                address(this),\r\n                balanceOfUser,\r\n                totalSupply()\r\n            );\r\n        if (accruedRewards != 0) {\r\n            emit RewardsAccrued(onBehalfOf, accruedRewards);\r\n            stakerRewardsToClaim[onBehalfOf] = stakerRewardsToClaim[onBehalfOf]\r\n                .add(accruedRewards);\r\n        }\r\n\r\n        stakersCooldowns[onBehalfOf] = getNextCooldownTimestamp(\r\n            0,\r\n            amount,\r\n            onBehalfOf,\r\n            balanceOfUser\r\n        );\r\n\r\n        POOL.updateGovernanceStakingRewards(onBehalfOf);\r\n\r\n        _mint(onBehalfOf, amount);\r\n        IERC20(STAKED_TOKEN).safeTransferFrom(\r\n            msg.sender,\r\n            address(this),\r\n            amount\r\n        );\r\n\r\n        emit Staked(msg.sender, onBehalfOf, amount, block.timestamp);\r\n    }\r\n\r\n    /**\r\n     * @dev Redeems staked tokens, and stop earning rewards\r\n     * @param to Address to redeem to\r\n     * @param amount Amount to redeem\r\n     **/\r\n    function redeem(address to, uint256 amount) external override {\r\n        require(amount != 0, \"INVALID_ZERO_AMOUNT\");\r\n        //solium-disable-next-line\r\n        uint256 cooldownStartTimestamp = stakersCooldowns[msg.sender];\r\n        require(\r\n            block.timestamp > cooldownStartTimestamp.add(COOLDOWN_SECONDS),\r\n            \"INSUFFICIENT_COOLDOWN\"\r\n        );\r\n        require(\r\n            block.timestamp.sub(cooldownStartTimestamp.add(COOLDOWN_SECONDS)) <=\r\n                UNSTAKE_WINDOW,\r\n            \"UNSTAKE_WINDOW_FINISHED\"\r\n        );\r\n        uint256 balanceOfMessageSender = balanceOf(msg.sender);\r\n\r\n        uint256 amountToRedeem =\r\n            (amount > balanceOfMessageSender) ? balanceOfMessageSender : amount;\r\n\r\n        _updateCurrentUnclaimedRewards(\r\n            msg.sender,\r\n            balanceOfMessageSender,\r\n            true\r\n        );\r\n\r\n        POOL.updateGovernanceStakingRewards(msg.sender);\r\n\r\n        _burn(msg.sender, amountToRedeem);\r\n\r\n        if (balanceOfMessageSender.sub(amountToRedeem) == 0) {\r\n            stakersCooldowns[msg.sender] = 0;\r\n        }\r\n\r\n        IERC20(STAKED_TOKEN).safeTransfer(to, amountToRedeem);\r\n\r\n        emit Redeem(msg.sender, to, amountToRedeem, block.timestamp);\r\n    }\r\n\r\n    /**\r\n     * @dev Activates the cooldown period to unstake\r\n     * - It can't be called if the user is not staking\r\n     **/\r\n    function cooldown() external override {\r\n        require(balanceOf(msg.sender) != 0, \"INVALID_BALANCE_ON_COOLDOWN\");\r\n        //solium-disable-next-line\r\n        stakersCooldowns[msg.sender] = block.timestamp;\r\n\r\n        emit Cooldown(msg.sender);\r\n    }\r\n\r\n    /**\r\n     * @dev Claims an `amount` of `REWARD_TOKEN` to the address `to`\r\n     * @param to Address to stake for\r\n     * @param amount Amount to stake\r\n     **/\r\n    function claimRewards(address to, uint256 amount) external override {\r\n        uint256 newTotalRewards =\r\n            _updateCurrentUnclaimedRewards(\r\n                msg.sender,\r\n                balanceOf(msg.sender),\r\n                false\r\n            );\r\n        uint256 amountToClaim =\r\n            (amount == type(uint256).max) ? newTotalRewards : amount;\r\n\r\n        stakerRewardsToClaim[msg.sender] = newTotalRewards.sub(\r\n            amountToClaim,\r\n            \"INVALID_AMOUNT\"\r\n        );\r\n\r\n        REWARD_TOKEN.safeTransferFrom(REWARDS_VAULT, to, amountToClaim);\r\n\r\n        emit RewardsClaimed(msg.sender, to, amountToClaim, block.timestamp);\r\n    }\r\n\r\n    /**\r\n     * @dev Internal ERC20 _transfer of the tokenized staked tokens\r\n     * @param from Address to transfer from\r\n     * @param to Address to transfer to\r\n     * @param amount Amount to transfer\r\n     **/\r\n    function _transfer(\r\n        address from,\r\n        address to,\r\n        uint256 amount\r\n    ) internal override {\r\n        uint256 balanceOfFrom = balanceOf(from);\r\n        // Sender\r\n        _updateCurrentUnclaimedRewards(from, balanceOfFrom, true);\r\n\r\n        // Recipient\r\n        if (from != to) {\r\n            uint256 balanceOfTo = balanceOf(to);\r\n            _updateCurrentUnclaimedRewards(to, balanceOfTo, true);\r\n\r\n            uint256 previousSenderCooldown = stakersCooldowns[from];\r\n            stakersCooldowns[to] = getNextCooldownTimestamp(\r\n                previousSenderCooldown,\r\n                amount,\r\n                to,\r\n                balanceOfTo\r\n            );\r\n            // if cooldown was set and whole balance of sender was transferred - clear cooldown\r\n            if (balanceOfFrom == amount && previousSenderCooldown != 0) {\r\n                stakersCooldowns[from] = 0;\r\n            }\r\n        }\r\n\r\n        // Handle the rewards from RewardManager ( Depositor, Governance )\r\n        POOL.updateGovernanceStakingRewards(from);\r\n        POOL.updateGovernanceStakingRewards(to);\r\n\r\n        super._transfer(from, to, amount);\r\n    }\r\n\r\n    /**\r\n     * @dev Updates the user state related with his accrued rewards\r\n     * @param user Address of the user\r\n     * @param userBalance The current balance of the user\r\n     * @param updateStorage Boolean flag used to update or not the stakerRewardsToClaim of the user\r\n     * @return The unclaimed rewards that were added to the total accrued\r\n     **/\r\n    function _updateCurrentUnclaimedRewards(\r\n        address user,\r\n        uint256 userBalance,\r\n        bool updateStorage\r\n    ) internal returns (uint256) {\r\n        uint256 accruedRewards =\r\n            _updateUserAssetInternal(\r\n                user,\r\n                address(this),\r\n                userBalance,\r\n                totalSupply()\r\n            );\r\n        uint256 unclaimedRewards =\r\n            stakerRewardsToClaim[user].add(accruedRewards);\r\n\r\n        if (accruedRewards != 0) {\r\n            if (updateStorage) {\r\n                stakerRewardsToClaim[user] = unclaimedRewards;\r\n            }\r\n            emit RewardsAccrued(user, accruedRewards);\r\n        }\r\n\r\n        return unclaimedRewards;\r\n    }\r\n\r\n    /**\r\n     * @dev Calculates the how is gonna be a new cooldown timestamp depending on the sender/receiver situation\r\n     *  - If the timestamp of the sender is \"better\" or the timestamp of the recipient is 0, we take the one of the recipient\r\n     *  - Weighted average of from/to cooldown timestamps if:\r\n     *    # The sender doesn't have the cooldown activated (timestamp 0).\r\n     *    # The sender timestamp is expired\r\n     *    # The sender has a \"worse\" timestamp\r\n     *  - If the receiver's cooldown timestamp expired (too old), the next is 0\r\n     * @param fromCooldownTimestamp Cooldown timestamp of the sender\r\n     * @param amountToReceive Amount\r\n     * @param toAddress Address of the recipient\r\n     * @param toBalance Current balance of the receiver\r\n     * @return The new cooldown timestamp\r\n     **/\r\n    function getNextCooldownTimestamp(\r\n        uint256 fromCooldownTimestamp,\r\n        uint256 amountToReceive,\r\n        address toAddress,\r\n        uint256 toBalance\r\n    ) public returns (uint256) {\r\n        uint256 toCooldownTimestamp = stakersCooldowns[toAddress];\r\n        if (toCooldownTimestamp == 0) {\r\n            return 0;\r\n        }\r\n\r\n        uint256 minimalValidCooldownTimestamp =\r\n            block.timestamp.sub(COOLDOWN_SECONDS).sub(UNSTAKE_WINDOW);\r\n\r\n        if (minimalValidCooldownTimestamp > toCooldownTimestamp) {\r\n            toCooldownTimestamp = 0;\r\n        } else {\r\n            uint256 fromCooldownTimestamp =\r\n                (minimalValidCooldownTimestamp > fromCooldownTimestamp)\r\n                    ? block.timestamp\r\n                    : fromCooldownTimestamp;\r\n\r\n            if (fromCooldownTimestamp < toCooldownTimestamp) {\r\n                return toCooldownTimestamp;\r\n            } else {\r\n                toCooldownTimestamp = (\r\n                    amountToReceive.mul(fromCooldownTimestamp).add(\r\n                        toBalance.mul(toCooldownTimestamp)\r\n                    )\r\n                )\r\n                    .div(amountToReceive.add(toBalance));\r\n            }\r\n        }\r\n        stakersCooldowns[toAddress] = toCooldownTimestamp;\r\n\r\n        return toCooldownTimestamp;\r\n    }\r\n\r\n    /**\r\n     * @dev Return the total rewards pending to claim by an staker\r\n     * @param staker The staker address\r\n     * @return The rewards\r\n     */\r\n    function getTotalRewardsBalance(address staker)\r\n        external\r\n        view\r\n        returns (uint256)\r\n    {\r\n        DistributionTypes.UserStakeInput[] memory userStakeInputs =\r\n            new DistributionTypes.UserStakeInput[](1);\r\n        userStakeInputs[0] = DistributionTypes.UserStakeInput({\r\n            underlyingAsset: address(this),\r\n            stakedByUser: balanceOf(staker),\r\n            totalStaked: totalSupply()\r\n        });\r\n        return\r\n            stakerRewardsToClaim[staker].add(\r\n                _getUnclaimedRewards(staker, userStakeInputs)\r\n            );\r\n    }\r\n\r\n    /**\r\n     * @dev returns the revision of the implementation contract\r\n     * @return The revision\r\n     */\r\n    function getRevision() internal pure override returns (uint256) {\r\n        return REVISION;\r\n    }\r\n}\r\n",
  "sourcePath": "/Users/dev/Documents/Project/MCLendNew/MCL-SmartContracts/staking/contracts/stake/StakedToken.sol",
  "compiler": {
    "name": "solc",
    "version": "0.6.12+commit.27d51765.Emscripten.clang"
  },
  "schemaVersion": "3.2.3",
  "updatedAt": "2021-02-02T13:26:56.811Z",
  "devdoc": {
    "author": "bMXX*",
    "kind": "dev",
    "methods": {
      "allowance(address,address)": {
        "details": "returns the allowance of spender on the tokens owned by owner",
        "params": {
          "owner": "the owner of the tokens",
          "spender": "the user allowed to spend the owner's tokens"
        },
        "returns": {
          "_0": "the amount of owner's tokens spender is allowed to spend*"
        }
      },
      "approve(address,uint256)": {
        "details": "allows spender to spend the tokens owned by msg.sender",
        "params": {
          "spender": "the user allowed to spend msg.sender tokens"
        },
        "returns": {
          "_0": "true*"
        }
      },
      "balanceOf(address)": {
        "returns": {
          "_0": "the balance of the token*"
        }
      },
      "claimRewards(address,uint256)": {
        "details": "Claims an `amount` of `REWARD_TOKEN` to the address `to`",
        "params": {
          "amount": "Amount to stake*",
          "to": "Address to stake for"
        }
      },
      "configureAssets((uint128,uint256,address)[])": {
        "details": "Configures the distribution of rewards for a list of assets",
        "params": {
          "assetsConfigInput": "The list of configurations to apply*"
        }
      },
      "cooldown()": {
        "details": "Activates the cooldown period to unstake - It can't be called if the user is not staking*"
      },
      "decimals()": {
        "returns": {
          "_0": "the decimals of the token*"
        }
      },
      "decreaseAllowance(address,uint256)": {
        "details": "decreases the allowance of spender to spend msg.sender tokens",
        "params": {
          "spender": "the user allowed to spend on behalf of msg.sender",
          "subtractedValue": "the amount being subtracted to the allowance"
        },
        "returns": {
          "_0": "true*"
        }
      },
      "getNextCooldownTimestamp(uint256,uint256,address,uint256)": {
        "details": "Calculates the how is gonna be a new cooldown timestamp depending on the sender/receiver situation  - If the timestamp of the sender is \"better\" or the timestamp of the recipient is 0, we take the one of the recipient  - Weighted average of from/to cooldown timestamps if:    # The sender doesn't have the cooldown activated (timestamp 0).    # The sender timestamp is expired    # The sender has a \"worse\" timestamp  - If the receiver's cooldown timestamp expired (too old), the next is 0",
        "params": {
          "amountToReceive": "Amount",
          "fromCooldownTimestamp": "Cooldown timestamp of the sender",
          "toAddress": "Address of the recipient",
          "toBalance": "Current balance of the receiver"
        },
        "returns": {
          "_0": "The new cooldown timestamp*"
        }
      },
      "getTotalRewardsBalance(address)": {
        "details": "Return the total rewards pending to claim by an staker",
        "params": {
          "staker": "The staker address"
        },
        "returns": {
          "_0": "The rewards"
        }
      },
      "getUserAssetData(address,address)": {
        "details": "Returns the data of an user on a distribution",
        "params": {
          "asset": "The address of the reference asset of the distribution",
          "user": "Address of the user"
        },
        "returns": {
          "_0": "The new index*"
        }
      },
      "increaseAllowance(address,uint256)": {
        "details": "increases the allowance of spender to spend msg.sender tokens",
        "params": {
          "addedValue": "the amount being added to the allowance",
          "spender": "the user allowed to spend on behalf of msg.sender"
        },
        "returns": {
          "_0": "true*"
        }
      },
      "initialize(address,address,string,string,uint8)": {
        "details": "Called by the proxy contract*"
      },
      "name()": {
        "returns": {
          "_0": "the name of the token*"
        }
      },
      "redeem(address,uint256)": {
        "details": "Redeems staked tokens, and stop earning rewards",
        "params": {
          "amount": "Amount to redeem*",
          "to": "Address to redeem to"
        }
      },
      "symbol()": {
        "returns": {
          "_0": "the symbol of the token*"
        }
      },
      "totalSupply()": {
        "returns": {
          "_0": "the total supply of the token*"
        }
      },
      "transfer(address,uint256)": {
        "details": "executes a transfer of tokens from msg.sender to recipient",
        "params": {
          "amount": "the amount of tokens being transferred",
          "recipient": "the recipient of the tokens"
        },
        "returns": {
          "_0": "true if the transfer succeeds, false otherwise*"
        }
      },
      "transferFrom(address,address,uint256)": {
        "details": "executes a transfer of token from sender to recipient, if msg.sender is allowed to do so",
        "params": {
          "amount": "the amount of tokens being transferred",
          "recipient": "the recipient of the tokens",
          "sender": "the owner of the tokens"
        },
        "returns": {
          "_0": "true if the transfer succeeds, false otherwise*"
        }
      }
    },
    "title": "StakedToken",
    "version": 1
  },
  "userdoc": {
    "kind": "user",
    "methods": {
      "REWARDS_VAULT()": {
        "notice": "Address to pull from the rewards, needs to have approved this contract"
      },
      "UNSTAKE_WINDOW()": {
        "notice": "Seconds available to redeem once the cooldown period is fullfilled"
      }
    },
    "notice": "Contract to stake bMXX token, tokenize the position and get rewards, inheriting from a distribution manager contract",
    "version": 1
  }
}