{
	"data": {
		"bytecode": {
			"linkReferences": {},
			"object": "608060405234801561001057600080fd5b506101ac806100206000396000f3fe608060405234801561001057600080fd5b506004361061004c5760003560e01c806372eb293d146100515780639f86a0ee1461007f578063bb85c0bb146100ab578063fbe5ba1e146100e3575b600080fd5b61007d6004803603604081101561006757600080fd5b506001600160a01b038135169060200135610109565b005b61007d6004803603604081101561009557600080fd5b506001600160a01b038135169060200135610125565b6100d1600480360360208110156100c157600080fd5b50356001600160a01b0316610141565b60408051918252519081900360200190f35b6100d1600480360360208110156100f957600080fd5b50356001600160a01b031661015c565b6001600160a01b03909116600090815260208190526040902055565b6001600160a01b03909116600090815260016020526040902055565b6001600160a01b031660009081526020819052604090205490565b6001600160a01b03166000908152600160205260409020549056fea265627a7a72315820b38c388bc43b9ea731507fc8e9ece1f428f8570ab5586ed06baa248099f67d9864736f6c63430005110032",
			"opcodes": "PUSH1 0x80 PUSH1 0x40 MSTORE CALLVALUE DUP1 ISZERO PUSH2 0x10 JUMPI PUSH1 0x0 DUP1 REVERT JUMPDEST POP PUSH2 0x1AC DUP1 PUSH2 0x20 PUSH1 0x0 CODECOPY PUSH1 0x0 RETURN INVALID PUSH1 0x80 PUSH1 0x40 MSTORE CALLVALUE DUP1 ISZERO PUSH2 0x10 JUMPI PUSH1 0x0 DUP1 REVERT JUMPDEST POP PUSH1 0x4 CALLDATASIZE LT PUSH2 0x4C JUMPI PUSH1 0x0 CALLDATALOAD PUSH1 0xE0 SHR DUP1 PUSH4 0x72EB293D EQ PUSH2 0x51 JUMPI DUP1 PUSH4 0x9F86A0EE EQ PUSH2 0x7F JUMPI DUP1 PUSH4 0xBB85C0BB EQ PUSH2 0xAB JUMPI DUP1 PUSH4 0xFBE5BA1E EQ PUSH2 0xE3 JUMPI JUMPDEST PUSH1 0x0 DUP1 REVERT JUMPDEST PUSH2 0x7D PUSH1 0x4 DUP1 CALLDATASIZE SUB PUSH1 0x40 DUP2 LT ISZERO PUSH2 0x67 JUMPI PUSH1 0x0 DUP1 REVERT JUMPDEST POP PUSH1 0x1 PUSH1 0x1 PUSH1 0xA0 SHL SUB DUP2 CALLDATALOAD AND SWAP1 PUSH1 0x20 ADD CALLDATALOAD PUSH2 0x109 JUMP JUMPDEST STOP JUMPDEST PUSH2 0x7D PUSH1 0x4 DUP1 CALLDATASIZE SUB PUSH1 0x40 DUP2 LT ISZERO PUSH2 0x95 JUMPI PUSH1 0x0 DUP1 REVERT JUMPDEST POP PUSH1 0x1 PUSH1 0x1 PUSH1 0xA0 SHL SUB DUP2 CALLDATALOAD AND SWAP1 PUSH1 0x20 ADD CALLDATALOAD PUSH2 0x125 JUMP JUMPDEST PUSH2 0xD1 PUSH1 0x4 DUP1 CALLDATASIZE SUB PUSH1 0x20 DUP2 LT ISZERO PUSH2 0xC1 JUMPI PUSH1 0x0 DUP1 REVERT JUMPDEST POP CALLDATALOAD PUSH1 0x1 PUSH1 0x1 PUSH1 0xA0 SHL SUB AND PUSH2 0x141 JUMP JUMPDEST PUSH1 0x40 DUP1 MLOAD SWAP2 DUP3 MSTORE MLOAD SWAP1 DUP2 SWAP1 SUB PUSH1 0x20 ADD SWAP1 RETURN JUMPDEST PUSH2 0xD1 PUSH1 0x4 DUP1 CALLDATASIZE SUB PUSH1 0x20 DUP2 LT ISZERO PUSH2 0xF9 JUMPI PUSH1 0x0 DUP1 REVERT JUMPDEST POP CALLDATALOAD PUSH1 0x1 PUSH1 0x1 PUSH1 0xA0 SHL SUB AND PUSH2 0x15C JUMP JUMPDEST PUSH1 0x1 PUSH1 0x1 PUSH1 0xA0 SHL SUB SWAP1 SWAP2 AND PUSH1 0x0 SWAP1 DUP2 MSTORE PUSH1 0x20 DUP2 SWAP1 MSTORE PUSH1 0x40 SWAP1 KECCAK256 SSTORE JUMP JUMPDEST PUSH1 0x1 PUSH1 0x1 PUSH1 0xA0 SHL SUB SWAP1 SWAP2 AND PUSH1 0x0 SWAP1 DUP2 MSTORE PUSH1 0x1 PUSH1 0x20 MSTORE PUSH1 0x40 SWAP1 KECCAK256 SSTORE JUMP JUMPDEST PUSH1 0x1 PUSH1 0x1 PUSH1 0xA0 SHL SUB AND PUSH1 0x0 SWAP1 DUP2 MSTORE PUSH1 0x20 DUP2 SWAP1 MSTORE PUSH1 0x40 SWAP1 KECCAK256 SLOAD SWAP1 JUMP JUMPDEST PUSH1 0x1 PUSH1 0x1 PUSH1 0xA0 SHL SUB AND PUSH1 0x0 SWAP1 DUP2 MSTORE PUSH1 0x1 PUSH1 0x20 MSTORE PUSH1 0x40 SWAP1 KECCAK256 SLOAD SWAP1 JUMP INVALID LOG2 PUSH6 0x627A7A723158 KECCAK256 0xB3 DUP13 CODESIZE DUP12 0xC4 EXTCODESIZE SWAP15 0xA7 BALANCE POP PUSH32 0xC8E9ECE1F428F8570AB5586ED06BAA248099F67D9864736F6C63430005110032 "
		},
		"gasEstimates": {
			"creation": {
				"codeDepositCost": "85600",
				"executionCost": "135",
				"totalCost": "85735"
			},
			"external": {
				"getMarketBorrowRate(address)": "1167",
				"getMarketLiquidityRate(address)": "1186",
				"setMarketBorrowRate(address,uint256)": "20293",
				"setMarketLiquidityRate(address,uint256)": "20312"
			}
		},
		"methodIdentifiers": {
			"getMarketBorrowRate(address)": "bb85c0bb",
			"getMarketLiquidityRate(address)": "fbe5ba1e",
			"setMarketBorrowRate(address,uint256)": "72eb293d",
			"setMarketLiquidityRate(address,uint256)": "9f86a0ee"
		}
	},
	"abi": [
		{
			"constant": true,
			"inputs": [
				{
					"internalType": "address",
					"name": "_asset",
					"type": "address"
				}
			],
			"name": "getMarketBorrowRate",
			"outputs": [
				{
					"internalType": "uint256",
					"name": "",
					"type": "uint256"
				}
			],
			"payable": false,
			"stateMutability": "view",
			"type": "function"
		},
		{
			"constant": true,
			"inputs": [
				{
					"internalType": "address",
					"name": "_asset",
					"type": "address"
				}
			],
			"name": "getMarketLiquidityRate",
			"outputs": [
				{
					"internalType": "uint256",
					"name": "",
					"type": "uint256"
				}
			],
			"payable": false,
			"stateMutability": "view",
			"type": "function"
		},
		{
			"constant": false,
			"inputs": [
				{
					"internalType": "address",
					"name": "_asset",
					"type": "address"
				},
				{
					"internalType": "uint256",
					"name": "_rate",
					"type": "uint256"
				}
			],
			"name": "setMarketBorrowRate",
			"outputs": [],
			"payable": false,
			"stateMutability": "nonpayable",
			"type": "function"
		},
		{
			"constant": false,
			"inputs": [
				{
					"internalType": "address",
					"name": "_asset",
					"type": "address"
				},
				{
					"internalType": "uint256",
					"name": "_rate",
					"type": "uint256"
				}
			],
			"name": "setMarketLiquidityRate",
			"outputs": [],
			"payable": false,
			"stateMutability": "nonpayable",
			"type": "function"
		}
	]
}