{
  "contractName": "AddressStorage",
  "abi": [
    {
      "constant": true,
      "inputs": [
        {
          "internalType": "bytes32",
          "name": "_key",
          "type": "bytes32"
        }
      ],
      "name": "getAddress",
      "outputs": [
        {
          "internalType": "address",
          "name": "",
          "type": "address"
        }
      ],
      "payable": false,
      "stateMutability": "view",
      "type": "function"
    }
  ],
  "bytecode": "0x608060405234801561001057600080fd5b50610109806100206000396000f3fe6080604052348015600f57600080fd5b506004361060285760003560e01c806321f8a72114602d575b600080fd5b605660048036036020811015604157600080fd5b81019080803590602001909291905050506098565b604051808273ffffffffffffffffffffffffffffffffffffffff1673ffffffffffffffffffffffffffffffffffffffff16815260200191505060405180910390f35b600080600083815260200190815260200160002060009054906101000a900473ffffffffffffffffffffffffffffffffffffffff16905091905056fea265627a7a72315820df58fd8732785526b40a6f95a150be18b97b9129d1f0c08c3b2dc6b444208aba64736f6c63430005100032",
  "source": "pragma solidity ^0.5.0;\r\n\r\ncontract AddressStorage {\r\n    mapping(bytes32 => address) private addresses;\r\n\r\n    /**\r\n     * @dev function to return the addresses associated with a given key value\r\n     * @param _key the key value to be examined\r\n     **/\r\n    function getAddress(bytes32 _key) public view returns (address) {\r\n        return addresses[_key];\r\n    }\r\n\r\n    /**\r\n     * @dev function to set a key value with a provided key and value argument\r\n     * @param _key The key to be set\r\n     * @param _value The value to be set\r\n     **/\r\n    function _setAddress(bytes32 _key, address _value) internal {\r\n        addresses[_key] = _value;\r\n    }\r\n}\r\n",
  "sourcePath": "/Users/dev/Documents/Project/MCLendNew/MCL-SmartContracts/lending/contracts/configuration/AddressStorage.sol",
  "compiler": {
    "name": "solc",
    "version": "0.5.16+commit.9c3226ce.Emscripten.clang"
  },
  "schemaVersion": "3.2.3",
  "updatedAt": "2021-01-15T04:28:32.364Z",
  "devdoc": {
    "methods": {
      "getAddress(bytes32)": {
        "details": "function to return the addresses associated with a given key value",
        "params": {
          "_key": "the key value to be examined*"
        }
      }
    }
  },
  "userdoc": {
    "methods": {}
  }
}