{
  "contractName": "DefaultReserveInterestRateStrategy",
  "abi": [
    {
      "inputs": [
        {
          "internalType": "address",
          "name": "_reserve",
          "type": "address"
        },
        {
          "internalType": "contract LendingPoolAddressesProvider",
          "name": "_provider",
          "type": "address"
        },
        {
          "internalType": "uint256",
          "name": "_baseVariableBorrowRate",
          "type": "uint256"
        },
        {
          "internalType": "uint256",
          "name": "_variableRateSlope1",
          "type": "uint256"
        },
        {
          "internalType": "uint256",
          "name": "_variableRateSlope2",
          "type": "uint256"
        },
        {
          "internalType": "uint256",
          "name": "_stableRateSlope1",
          "type": "uint256"
        },
        {
          "internalType": "uint256",
          "name": "_stableRateSlope2",
          "type": "uint256"
        }
      ],
      "payable": false,
      "stateMutability": "nonpayable",
      "type": "constructor"
    },
    {
      "constant": true,
      "inputs": [],
      "name": "EXCESS_UTILIZATION_RATE",
      "outputs": [
        {
          "internalType": "uint256",
          "name": "",
          "type": "uint256"
        }
      ],
      "payable": false,
      "stateMutability": "view",
      "type": "function"
    },
    {
      "constant": true,
      "inputs": [],
      "name": "OPTIMAL_UTILIZATION_RATE",
      "outputs": [
        {
          "internalType": "uint256",
          "name": "",
          "type": "uint256"
        }
      ],
      "payable": false,
      "stateMutability": "view",
      "type": "function"
    },
    {
      "constant": true,
      "inputs": [],
      "name": "addressesProvider",
      "outputs": [
        {
          "internalType": "contract LendingPoolAddressesProvider",
          "name": "",
          "type": "address"
        }
      ],
      "payable": false,
      "stateMutability": "view",
      "type": "function"
    },
    {
      "constant": true,
      "inputs": [],
      "name": "baseVariableBorrowRate",
      "outputs": [
        {
          "internalType": "uint256",
          "name": "",
          "type": "uint256"
        }
      ],
      "payable": false,
      "stateMutability": "view",
      "type": "function"
    },
    {
      "constant": true,
      "inputs": [],
      "name": "reserve",
      "outputs": [
        {
          "internalType": "address",
          "name": "",
          "type": "address"
        }
      ],
      "payable": false,
      "stateMutability": "view",
      "type": "function"
    },
    {
      "constant": true,
      "inputs": [],
      "name": "stableRateSlope1",
      "outputs": [
        {
          "internalType": "uint256",
          "name": "",
          "type": "uint256"
        }
      ],
      "payable": false,
      "stateMutability": "view",
      "type": "function"
    },
    {
      "constant": true,
      "inputs": [],
      "name": "stableRateSlope2",
      "outputs": [
        {
          "internalType": "uint256",
          "name": "",
          "type": "uint256"
        }
      ],
      "payable": false,
      "stateMutability": "view",
      "type": "function"
    },
    {
      "constant": true,
      "inputs": [],
      "name": "variableRateSlope1",
      "outputs": [
        {
          "internalType": "uint256",
          "name": "",
          "type": "uint256"
        }
      ],
      "payable": false,
      "stateMutability": "view",
      "type": "function"
    },
    {
      "constant": true,
      "inputs": [],
      "name": "variableRateSlope2",
      "outputs": [
        {
          "internalType": "uint256",
          "name": "",
          "type": "uint256"
        }
      ],
      "payable": false,
      "stateMutability": "view",
      "type": "function"
    },
    {
      "constant": true,
      "inputs": [],
      "name": "getBaseVariableBorrowRate",
      "outputs": [
        {
          "internalType": "uint256",
          "name": "",
          "type": "uint256"
        }
      ],
      "payable": false,
      "stateMutability": "view",
      "type": "function"
    },
    {
      "constant": true,
      "inputs": [],
      "name": "getVariableRateSlope1",
      "outputs": [
        {
          "internalType": "uint256",
          "name": "",
          "type": "uint256"
        }
      ],
      "payable": false,
      "stateMutability": "view",
      "type": "function"
    },
    {
      "constant": true,
      "inputs": [],
      "name": "getVariableRateSlope2",
      "outputs": [
        {
          "internalType": "uint256",
          "name": "",
          "type": "uint256"
        }
      ],
      "payable": false,
      "stateMutability": "view",
      "type": "function"
    },
    {
      "constant": true,
      "inputs": [],
      "name": "getStableRateSlope1",
      "outputs": [
        {
          "internalType": "uint256",
          "name": "",
          "type": "uint256"
        }
      ],
      "payable": false,
      "stateMutability": "view",
      "type": "function"
    },
    {
      "constant": true,
      "inputs": [],
      "name": "getStableRateSlope2",
      "outputs": [
        {
          "internalType": "uint256",
          "name": "",
          "type": "uint256"
        }
      ],
      "payable": false,
      "stateMutability": "view",
      "type": "function"
    },
    {
      "constant": true,
      "inputs": [
        {
          "internalType": "address",
          "name": "_reserve",
          "type": "address"
        },
        {
          "internalType": "uint256",
          "name": "_availableLiquidity",
          "type": "uint256"
        },
        {
          "internalType": "uint256",
          "name": "_totalBorrowsStable",
          "type": "uint256"
        },
        {
          "internalType": "uint256",
          "name": "_totalBorrowsVariable",
          "type": "uint256"
        },
        {
          "internalType": "uint256",
          "name": "_averageStableBorrowRate",
          "type": "uint256"
        }
      ],
      "name": "calculateInterestRates",
      "outputs": [
        {
          "internalType": "uint256",
          "name": "currentLiquidityRate",
          "type": "uint256"
        },
        {
          "internalType": "uint256",
          "name": "currentStableBorrowRate",
          "type": "uint256"
        },
        {
          "internalType": "uint256",
          "name": "currentVariableBorrowRate",
          "type": "uint256"
        }
      ],
      "payable": false,
      "stateMutability": "view",
      "type": "function"
    }
  ],
  "bytecode": "0x608060405234801561001057600080fd5b50604051610dad380380610dad833981810160405260e081101561003357600080fd5b8101908080519060200190929190805190602001909291908051906020019092919080519060200190929190805190602001909291908051906020019092919080519060200190929190505050856000806101000a81548173ffffffffffffffffffffffffffffffffffffffff021916908373ffffffffffffffffffffffffffffffffffffffff160217905550846001819055508360028190555082600381905550816004819055508060058190555086600660006101000a81548173ffffffffffffffffffffffffffffffffffffffff021916908373ffffffffffffffffffffffffffffffffffffffff16021790555050505050505050610c738061013a6000396000f3fe608060405234801561001057600080fd5b50600436106100d55760003560e01c80637b832f58116100875780637b832f581461021c578063a15f30ac1461023a578063b258954414610258578063c72c4d1014610276578063ccab01a3146102c0578063cd3293de146102de578063d5cd739114610328578063f420240914610346576100d5565b80630b3429a2146100da5780630bdf953f146100f857806314e32da414610116578063173198731461013457806334762ca51461015257806357e37af01461017057806365614f81146101fe575b600080fd5b6100e2610364565b6040518082815260200191505060405180910390f35b61010061036e565b6040518082815260200191505060405180910390f35b61011e610374565b6040518082815260200191505060405180910390f35b61013c61037e565b6040518082815260200191505060405180910390f35b61015a61038d565b6040518082815260200191505060405180910390f35b6101da600480360360a081101561018657600080fd5b81019080803573ffffffffffffffffffffffffffffffffffffffff16906020019092919080359060200190929190803590602001909291908035906020019092919080359060200190929190505050610397565b60405180848152602001838152602001828152602001935050505060405180910390f35b6102066106e5565b6040518082815260200191505060405180910390f35b6102246106eb565b6040518082815260200191505060405180910390f35b6102426106f1565b6040518082815260200191505060405180910390f35b610260610701565b6040518082815260200191505060405180910390f35b61027e610707565b604051808273ffffffffffffffffffffffffffffffffffffffff1673ffffffffffffffffffffffffffffffffffffffff16815260200191505060405180910390f35b6102c861072c565b6040518082815260200191505060405180910390f35b6102e6610732565b604051808273ffffffffffffffffffffffffffffffffffffffff1673ffffffffffffffffffffffffffffffffffffffff16815260200191505060405180910390f35b610330610758565b6040518082815260200191505060405180910390f35b61034e610762565b6040518082815260200191505060405180910390f35b6000600254905090565b60045481565b6000600554905090565b6aa56fa5b99019a5c800000081565b6000600154905090565b6000806000806103b0868861076c90919063ffffffff16565b9050600080821480156103c35750600089145b6103f1576103ec6103dd838b61076c90919063ffffffff16565b836107f490919063ffffffff16565b6103f4565b60005b90506000809054906101000a900473ffffffffffffffffffffffffffffffffffffffff1673ffffffffffffffffffffffffffffffffffffffff16633618abba6040518163ffffffff1660e01b815260040160206040518083038186803b15801561045d57600080fd5b505afa158015610471573d6000803e3d6000fd5b505050506040513d602081101561048757600080fd5b810190808051906020019092919050505073ffffffffffffffffffffffffffffffffffffffff1663bb85c0bb8b6040518263ffffffff1660e01b8152600401808273ffffffffffffffffffffffffffffffffffffffff1673ffffffffffffffffffffffffffffffffffffffff16815260200191505060206040518083038186803b15801561051457600080fd5b505afa158015610528573d6000803e3d6000fd5b505050506040513d602081101561053e57600080fd5b810190808051906020019092919050505093506b0295be96e6406697200000008111156106275760006105a36aa56fa5b99019a5c80000006105956b0295be96e6406697200000008561085090919063ffffffff16565b6107f490919063ffffffff16565b90506105e06105bd8260055461089a90919063ffffffff16565b6105d26004548861076c90919063ffffffff16565b61076c90919063ffffffff16565b945061061f6105fa8260035461089a90919063ffffffff16565b61061160025460015461076c90919063ffffffff16565b61076c90919063ffffffff16565b9350506106b8565b61066c61065d61064c6b0295be96e640669720000000846107f490919063ffffffff16565b60045461089a90919063ffffffff16565b8561076c90919063ffffffff16565b93506106b56106a46002546106966b0295be96e640669720000000856107f490919063ffffffff16565b61089a90919063ffffffff16565b60015461076c90919063ffffffff16565b92505b6106d6816106c88a8a878b6108fd565b61089a90919063ffffffff16565b94505050955095509592505050565b60035481565b60025481565b6b0295be96e64066972000000081565b60015481565b6000809054906101000a900473ffffffffffffffffffffffffffffffffffffffff1681565b60055481565b600660009054906101000a900473ffffffffffffffffffffffffffffffffffffffff1681565b6000600454905090565b6000600354905090565b6000808284019050838110156107ea576040517f08c379a000000000000000000000000000000000000000000000000000000000815260040180806020018281038252601b8152602001807f536166654d6174683a206164646974696f6e206f766572666c6f77000000000081525060200191505060405180910390fd5b8091505092915050565b6000806002838161080157fe5b0490506108478361083961082a6b033b2e3c9fd0803ce8000000886109a790919063ffffffff16565b8461076c90919063ffffffff16565b610a2d90919063ffffffff16565b91505092915050565b600061089283836040518060400160405280601e81526020017f536166654d6174683a207375627472616374696f6e206f766572666c6f770000815250610a77565b905092915050565b60006108f56b033b2e3c9fd0803ce80000006108e76108c285876109a790919063ffffffff16565b60026b033b2e3c9fd0803ce8000000816108d857fe5b0461076c90919063ffffffff16565b610a2d90919063ffffffff16565b905092915050565b600080610913858761076c90919063ffffffff16565b9050600081141561092857600091505061099f565b60006109458561093788610b37565b61089a90919063ffffffff16565b90506000610964856109568a610b37565b61089a90919063ffffffff16565b9050600061099561097485610b37565b610987848661076c90919063ffffffff16565b6107f490919063ffffffff16565b9050809450505050505b949350505050565b6000808314156109ba5760009050610a27565b60008284029050828482816109cb57fe5b0414610a22576040517f08c379a0000000000000000000000000000000000000000000000000000000008152600401808060200182810382526021815260200180610c1e6021913960400191505060405180910390fd5b809150505b92915050565b6000610a6f83836040518060400160405280601a81526020017f536166654d6174683a206469766973696f6e206279207a65726f000000000000815250610b57565b905092915050565b6000838311158290610b24576040517f08c379a00000000000000000000000000000000000000000000000000000000081526004018080602001828103825283818151815260200191508051906020019080838360005b83811015610ae9578082015181840152602081019050610ace565b50505050905090810190601f168015610b165780820380516001836020036101000a031916815260200191505b509250505060405180910390fd5b5060008385039050809150509392505050565b6000610b50633b9aca00836109a790919063ffffffff16565b9050919050565b60008083118290610c03576040517f08c379a00000000000000000000000000000000000000000000000000000000081526004018080602001828103825283818151815260200191508051906020019080838360005b83811015610bc8578082015181840152602081019050610bad565b50505050905090810190601f168015610bf55780820380516001836020036101000a031916815260200191505b509250505060405180910390fd5b506000838581610c0f57fe5b04905080915050939250505056fe536166654d6174683a206d756c7469706c69636174696f6e206f766572666c6f77a265627a7a72315820d41228d6b0734263ee1d02b55d764e7dabb2b646e2d8236e4f8fe010cc3f3e6f64736f6c63430005100032",
  "source": "pragma solidity ^0.5.0;\n\nimport \"openzeppelin-solidity/contracts/math/SafeMath.sol\";\n\nimport \"../interfaces/IReserveInterestRateStrategy.sol\";\nimport \"../libraries/WadRayMath.sol\";\nimport \"../configuration/LendingPoolAddressesProvider.sol\";\nimport \"./LendingPoolCore.sol\";\nimport \"../interfaces/ILendingRateOracle.sol\";\n\n/**\n * @title DefaultReserveInterestRateStrategy contract\n * @notice implements the calculation of the interest rates depending on the\n * reserve parameters.\n * @dev if there is need to update the calculation of the interest rates for a\n * specific reserve,\n * a new version of this contract will be deployed.\n * @author Multiplier Finance\n **/\ncontract DefaultReserveInterestRateStrategy is IReserveInterestRateStrategy {\n    using WadRayMath for uint256;\n    using SafeMath for uint256;\n\n    /**\n     * @dev this constant represents the utilization rate at which the pool aims\n     * to obtain most competitive borrow rates\n     * expressed in ray\n     **/\n    uint256 public constant OPTIMAL_UTILIZATION_RATE = 0.8 * 1e27;\n\n    /**\n     * @dev this constant represents the excess utilization rate above the\n     * optimal. It's always equal to\n     * 1-optimal utilization rate. Added as a constant here for gas optimizations\n     * expressed in ray\n     **/\n\n    uint256 public constant EXCESS_UTILIZATION_RATE = 0.2 * 1e27;\n\n    LendingPoolAddressesProvider public addressesProvider;\n\n    //base variable borrow rate when Utilization rate = 0. Expressed in ray\n    uint256 public baseVariableBorrowRate;\n\n    //slope of the variable interest curve when utilization rate > 0 and <=\n    // OPTIMAL_UTILIZATION_RATE. Expressed in ray\n    uint256 public variableRateSlope1;\n\n    //slope of the variable interest curve when utilization rate >\n    // OPTIMAL_UTILIZATION_RATE. Expressed in ray\n    uint256 public variableRateSlope2;\n\n    //slope of the stable interest curve when utilization rate > 0 and <=\n    // OPTIMAL_UTILIZATION_RATE. Expressed in ray\n    uint256 public stableRateSlope1;\n\n    //slope of the stable interest curve when utilization rate >\n    // OPTIMAL_UTILIZATION_RATE. Expressed in ray\n    uint256 public stableRateSlope2;\n    address public reserve;\n\n    constructor(\n        address _reserve,\n        LendingPoolAddressesProvider _provider,\n        uint256 _baseVariableBorrowRate,\n        uint256 _variableRateSlope1,\n        uint256 _variableRateSlope2,\n        uint256 _stableRateSlope1,\n        uint256 _stableRateSlope2\n    ) public {\n        addressesProvider = _provider;\n        baseVariableBorrowRate = _baseVariableBorrowRate;\n        variableRateSlope1 = _variableRateSlope1;\n        variableRateSlope2 = _variableRateSlope2;\n        stableRateSlope1 = _stableRateSlope1;\n        stableRateSlope2 = _stableRateSlope2;\n        reserve = _reserve;\n    }\n\n    /**\n    @dev accessors\n     */\n\n    function getBaseVariableBorrowRate() external view returns (uint256) {\n        return baseVariableBorrowRate;\n    }\n\n    function getVariableRateSlope1() external view returns (uint256) {\n        return variableRateSlope1;\n    }\n\n    function getVariableRateSlope2() external view returns (uint256) {\n        return variableRateSlope2;\n    }\n\n    function getStableRateSlope1() external view returns (uint256) {\n        return stableRateSlope1;\n    }\n\n    function getStableRateSlope2() external view returns (uint256) {\n        return stableRateSlope2;\n    }\n\n    /**\n     * @dev calculates the interest rates depending on the available liquidity\n     * and the total borrowed.\n     * @param _reserve the address of the reserve\n     * @param _availableLiquidity the liquidity available in the reserve\n     * @param _totalBorrowsStable the total borrowed from the reserve a stable\n     * rate\n     * @param _totalBorrowsVariable the total borrowed from the reserve at a\n     * variable rate\n     * @param _averageStableBorrowRate the weighted average of all the stable\n     * rate borrows\n     * @return the liquidity rate, stable borrow rate and variable borrow rate\n     * calculated from the input parameters\n     **/\n    function calculateInterestRates(\n        address _reserve,\n        uint256 _availableLiquidity,\n        uint256 _totalBorrowsStable,\n        uint256 _totalBorrowsVariable,\n        uint256 _averageStableBorrowRate\n    )\n        external\n        view\n        returns (\n            uint256 currentLiquidityRate,\n            uint256 currentStableBorrowRate,\n            uint256 currentVariableBorrowRate\n        )\n    {\n        uint256 totalBorrows = _totalBorrowsStable.add(_totalBorrowsVariable);\n\n        uint256 utilizationRate =\n            (totalBorrows == 0 && _availableLiquidity == 0)\n                ? 0\n                : totalBorrows.rayDiv(_availableLiquidity.add(totalBorrows));\n\n        currentStableBorrowRate = ILendingRateOracle(\n            addressesProvider.getLendingRateOracle()\n        )\n            .getMarketBorrowRate(_reserve);\n\n        if (utilizationRate > OPTIMAL_UTILIZATION_RATE) {\n            uint256 excessUtilizationRateRatio =\n                utilizationRate.sub(OPTIMAL_UTILIZATION_RATE).rayDiv(\n                    EXCESS_UTILIZATION_RATE\n                );\n\n            currentStableBorrowRate = currentStableBorrowRate\n                .add(stableRateSlope1)\n                .add(stableRateSlope2.rayMul(excessUtilizationRateRatio));\n\n            currentVariableBorrowRate = baseVariableBorrowRate\n                .add(variableRateSlope1)\n                .add(variableRateSlope2.rayMul(excessUtilizationRateRatio));\n        } else {\n            currentStableBorrowRate = currentStableBorrowRate.add(\n                stableRateSlope1.rayMul(\n                    utilizationRate.rayDiv(OPTIMAL_UTILIZATION_RATE)\n                )\n            );\n            currentVariableBorrowRate = baseVariableBorrowRate.add(\n                utilizationRate.rayDiv(OPTIMAL_UTILIZATION_RATE).rayMul(\n                    variableRateSlope1\n                )\n            );\n        }\n\n        currentLiquidityRate = getOverallBorrowRateInternal(\n            _totalBorrowsStable,\n            _totalBorrowsVariable,\n            currentVariableBorrowRate,\n            _averageStableBorrowRate\n        )\n            .rayMul(utilizationRate);\n    }\n\n    /**\n     * @dev calculates the overall borrow rate as the weighted average between the total variable borrows and total stable borrows.\n     * @param _totalBorrowsStable the total borrowed from the reserve a stable\n     * rate\n     * @param _totalBorrowsVariable the total borrowed from the reserve at a\n     * variable rate\n     * @param _currentVariableBorrowRate the current variable borrow rate\n     * @param _currentAverageStableBorrowRate the weighted average of all the\n     * stable rate borrows\n     * @return the weighted averaged borrow rate\n     **/\n    function getOverallBorrowRateInternal(\n        uint256 _totalBorrowsStable,\n        uint256 _totalBorrowsVariable,\n        uint256 _currentVariableBorrowRate,\n        uint256 _currentAverageStableBorrowRate\n    ) internal pure returns (uint256) {\n        uint256 totalBorrows = _totalBorrowsStable.add(_totalBorrowsVariable);\n\n        if (totalBorrows == 0) return 0;\n\n        uint256 weightedVariableRate =\n            _totalBorrowsVariable.wadToRay().rayMul(_currentVariableBorrowRate);\n\n        uint256 weightedStableRate =\n            _totalBorrowsStable.wadToRay().rayMul(\n                _currentAverageStableBorrowRate\n            );\n\n        uint256 overallBorrowRate =\n            weightedVariableRate.add(weightedStableRate).rayDiv(\n                totalBorrows.wadToRay()\n            );\n\n        return overallBorrowRate;\n    }\n}\n",
  "sourcePath": "/Users/dev/Documents/Project/MCLendNew/MCL-SmartContracts/lending/contracts/lendingpool/DefaultReserveInterestRateStrategy.sol",
  "compiler": {
    "name": "solc",
    "version": "0.5.16+commit.9c3226ce.Emscripten.clang"
  },
  "schemaVersion": "3.2.3",
  "updatedAt": "2021-02-19T07:32:48.515Z",
  "devdoc": {
    "author": "Multiplier Finance*",
    "details": "if there is need to update the calculation of the interest rates for a specific reserve, a new version of this contract will be deployed.",
    "methods": {
      "calculateInterestRates(address,uint256,uint256,uint256,uint256)": {
        "details": "calculates the interest rates depending on the available liquidity and the total borrowed.",
        "params": {
          "_availableLiquidity": "the liquidity available in the reserve",
          "_averageStableBorrowRate": "the weighted average of all the stable rate borrows",
          "_reserve": "the address of the reserve",
          "_totalBorrowsStable": "the total borrowed from the reserve a stable rate",
          "_totalBorrowsVariable": "the total borrowed from the reserve at a variable rate"
        },
        "return": "the liquidity rate, stable borrow rate and variable borrow rate calculated from the input parameters*"
      },
      "getBaseVariableBorrowRate()": {
        "details": "accessors"
      }
    },
    "title": "DefaultReserveInterestRateStrategy contract"
  },
  "userdoc": {
    "methods": {},
    "notice": "implements the calculation of the interest rates depending on the reserve parameters."
  }
}