{
  "contractName": "FeeProvider",
  "abi": [
    {
      "constant": true,
      "inputs": [],
      "name": "FEE_PROVIDER_REVISION",
      "outputs": [
        {
          "internalType": "uint256",
          "name": "",
          "type": "uint256"
        }
      ],
      "payable": false,
      "stateMutability": "view",
      "type": "function"
    },
    {
      "constant": false,
      "inputs": [
        {
          "internalType": "address",
          "name": "_addressesProvider",
          "type": "address"
        }
      ],
      "name": "initialize",
      "outputs": [],
      "payable": false,
      "stateMutability": "nonpayable",
      "type": "function"
    },
    {
      "constant": true,
      "inputs": [
        {
          "internalType": "uint256",
          "name": "_amount",
          "type": "uint256"
        }
      ],
      "name": "calculateLoanOriginationFee",
      "outputs": [
        {
          "internalType": "uint256",
          "name": "",
          "type": "uint256"
        }
      ],
      "payable": false,
      "stateMutability": "view",
      "type": "function"
    },
    {
      "constant": true,
      "inputs": [
        {
          "internalType": "uint256",
          "name": "_originationFee",
          "type": "uint256"
        }
      ],
      "name": "calculateRewards",
      "outputs": [
        {
          "internalType": "uint256",
          "name": "",
          "type": "uint256"
        },
        {
          "internalType": "uint256",
          "name": "",
          "type": "uint256"
        },
        {
          "internalType": "uint256",
          "name": "",
          "type": "uint256"
        }
      ],
      "payable": false,
      "stateMutability": "view",
      "type": "function"
    },
    {
      "constant": true,
      "inputs": [],
      "name": "getFeeRates",
      "outputs": [
        {
          "internalType": "uint256",
          "name": "",
          "type": "uint256"
        },
        {
          "internalType": "uint256",
          "name": "",
          "type": "uint256"
        }
      ],
      "payable": false,
      "stateMutability": "view",
      "type": "function"
    },
    {
      "constant": true,
      "inputs": [],
      "name": "getFlashLoanFee",
      "outputs": [
        {
          "internalType": "uint256",
          "name": "",
          "type": "uint256"
        }
      ],
      "payable": false,
      "stateMutability": "view",
      "type": "function"
    },
    {
      "constant": true,
      "inputs": [],
      "name": "getRewardRates",
      "outputs": [
        {
          "internalType": "uint256",
          "name": "",
          "type": "uint256"
        },
        {
          "internalType": "uint256",
          "name": "",
          "type": "uint256"
        },
        {
          "internalType": "uint256",
          "name": "",
          "type": "uint256"
        }
      ],
      "payable": false,
      "stateMutability": "view",
      "type": "function"
    }
  ],
  "bytecode": "0x60806040526000805534801561001457600080fd5b50610769806100246000396000f3fe608060405234801561001057600080fd5b506004361061006d5760003560e01c80630c056a3114610072578063249bbe911461009e578063b0d73d4e146100e0578063c4d66de8146100fe578063d3ea435014610142578063d6e7a55e14610192578063fd90c2be146101b7575b600080fd5b61007a6101d5565b60405180848152602001838152602001828152602001935050505060405180910390f35b6100ca600480360360208110156100b457600080fd5b8101908080359060200190929190505050610219565b6040518082815260200191505060405180910390f35b6100e861023b565b6040518082815260200191505060405180910390f35b6101406004803603602081101561011457600080fd5b81019080803573ffffffffffffffffffffffffffffffffffffffff169060200190929190505050610240565b005b61016e6004803603602081101561015857600080fd5b8101908080359060200190929190505050610330565b60405180848152602001838152602001828152602001935050505060405180910390f35b61019a610429565b604051808381526020018281526020019250505060405180910390f35b6101bf610443565b6040518082815260200191505060405180910390f35b6000806000806702c68af0bb1400006709b6e64a8ec60000670de0b6b3a7640000030390506709b6e64a8ec600006702c68af0bb1400008293509350935050909192565b60006102346509184e72a0008361045290919063ffffffff16565b9050919050565b600181565b600061024a6104ad565b9050600160009054906101000a900460ff168061026b575061026a6104b6565b5b80610277575060005481115b6102cc576040517f08c379a000000000000000000000000000000000000000000000000000000000815260040180806020018281038252602e815260200180610707602e913960400191505060405180910390fd5b6000600160009054906101000a900460ff1615905080156103095760018060006101000a81548160ff021916908315150217905550816000819055505b801561032b576000600160006101000a81548160ff0219169083151502179055505b505050565b6000806000670de0b6b3a76400006103616702c68af0bb1400006709b6e64a8ec600006104c790919063ffffffff16565b11156103d5576040517f08c379a000000000000000000000000000000000000000000000000000000000815260040180806020018281038252601b8152602001807f496e76616c6964204665657320636f6e66696775726174696f6e73000000000081525060200191505060405180910390fd5b60006103f26709b6e64a8ec600008661045290919063ffffffff16565b905060006104116702c68af0bb1400008761045290919063ffffffff16565b90508181828489030394509450945050509193909250565b6000806509184e72a000660221b262dd8000915091509091565b6000660221b262dd8000905090565b60006104a5670de0b6b3a7640000610497610476858761054f90919063ffffffff16565b6002670de0b6b3a76400008161048857fe5b046104c790919063ffffffff16565b6105d590919063ffffffff16565b905092915050565b60006001905090565b600080303b90506000811491505090565b600080828401905083811015610545576040517f08c379a000000000000000000000000000000000000000000000000000000000815260040180806020018281038252601b8152602001807f536166654d6174683a206164646974696f6e206f766572666c6f77000000000081525060200191505060405180910390fd5b8091505092915050565b60008083141561056257600090506105cf565b600082840290508284828161057357fe5b04146105ca576040517f08c379a00000000000000000000000000000000000000000000000000000000081526004018080602001828103825260218152602001806106e66021913960400191505060405180910390fd5b809150505b92915050565b600061061783836040518060400160405280601a81526020017f536166654d6174683a206469766973696f6e206279207a65726f00000000000081525061061f565b905092915050565b600080831182906106cb576040517f08c379a00000000000000000000000000000000000000000000000000000000081526004018080602001828103825283818151815260200191508051906020019080838360005b83811015610690578082015181840152602081019050610675565b50505050905090810190601f1680156106bd5780820380516001836020036101000a031916815260200191505b509250505060405180910390fd5b5060008385816106d757fe5b04905080915050939250505056fe536166654d6174683a206d756c7469706c69636174696f6e206f766572666c6f77436f6e747261637420696e7374616e63652068617320616c7265616479206265656e20696e697469616c697a6564a265627a7a72315820c51b5c95d674629f88915e94fc2d2e813749c0b71ae192a53caba02fbb41027464736f6c63430005100032",
  "source": "pragma solidity ^0.5.0;\r\n\r\nimport \"../libraries/openzeppelin-upgradeability/VersionedInitializable.sol\";\r\nimport \"../interfaces/IFeeProvider.sol\";\r\nimport \"../libraries/WadRayMath.sol\";\r\n\r\n/**\r\n * @title FeeProvider contract\r\n * @notice Implements calculation for the fees applied by the protocol\r\n * @author Multiplier Finance\r\n **/\r\ncontract FeeProvider is IFeeProvider, VersionedInitializable {\r\n    using SafeMath for uint256;\r\n    using WadRayMath for uint256;\r\n\r\n    // percentage of the fee to be calculated on the loan amount\r\n    uint256 private constant originationFeeRate = 0.00001 * 1e18; // 100% = 1e18;\r\n    uint256 private constant flashloanFeeRate = 0.0006 * 1e18;\r\n    \r\n    // 70/20/10% reward rates //\r\n    uint256 private constant supplierRewardRate = 0.7 * 1e18;\r\n    uint256 private constant governanceRewardRate = 0.2 * 1e18;\r\n    // uint256 private safetyModuleRewardRate; // The remaining of 1 - supplierRewardRate - governanceRewardRate\r\n    \r\n\r\n    uint256 public constant FEE_PROVIDER_REVISION = 0x1;\r\n\r\n    function getRevision() internal pure returns (uint256) {\r\n        return FEE_PROVIDER_REVISION;\r\n    }\r\n\r\n\r\n    /**\r\n     * @dev initializes the FeeProvider after it's added to the proxy\r\n     * @param _addressesProvider the address of the LendingPoolAddressesProvider\r\n     */\r\n    function initialize(address _addressesProvider) public initializer {\r\n    }\r\n\r\n    /**\r\n     * @dev calculates the origination fee for every loan executed on the\r\n     * platform.\r\n     * @param _amount the amount of the loan\r\n     **/\r\n    function calculateLoanOriginationFee(uint256 _amount)\r\n        external\r\n        view\r\n        returns (uint256)\r\n    {\r\n        return _amount.wadMul(originationFeeRate);\r\n    }\r\n\r\n    /**\r\n     * @dev returns the origination fee percentage\r\n     **/\r\n    function calculateRewards(uint256 _originationFee) external view returns (uint256, uint256, uint256) {\r\n        \r\n        // Checks to prevent improper percentages\r\n        require (supplierRewardRate.add(governanceRewardRate) <= 1e18, \"Invalid Fees configurations\");\r\n\r\n        uint256 supplierReward = _originationFee.wadMul(supplierRewardRate);\r\n        uint256 govtReward = _originationFee.wadMul(governanceRewardRate);\r\n        \r\n        return (supplierReward, govtReward, _originationFee - supplierReward - govtReward);\r\n        \r\n    }\r\n  \r\n    function getFeeRates() external view returns (uint256, uint256) {\r\n        return (originationFeeRate, flashloanFeeRate);\r\n    }\r\n\r\n    function getFlashLoanFee() external view returns (uint256) {\r\n        return flashloanFeeRate;\r\n    }\r\n    \r\n    function getRewardRates() external view returns (uint256, uint256, uint256) {\r\n        uint256 safetyModuleRate = 1e18 - supplierRewardRate - governanceRewardRate;\r\n        return (supplierRewardRate, governanceRewardRate, safetyModuleRate);\r\n    }\r\n    \r\n}\r\n",
  "sourcePath": "/Users/dev/Documents/Project/MCLendNew/MCL-SmartContracts/lending/contracts/fees/FeeProvider.sol",
  "compiler": {
    "name": "solc",
    "version": "0.5.16+commit.9c3226ce.Emscripten.clang"
  },
  "schemaVersion": "3.2.3",
  "updatedAt": "2021-02-19T07:32:48.494Z",
  "devdoc": {
    "author": "Multiplier Finance*",
    "methods": {
      "calculateLoanOriginationFee(uint256)": {
        "details": "calculates the origination fee for every loan executed on the platform.",
        "params": {
          "_amount": "the amount of the loan*"
        }
      },
      "calculateRewards(uint256)": {
        "details": "returns the origination fee percentage*"
      },
      "initialize(address)": {
        "details": "initializes the FeeProvider after it's added to the proxy",
        "params": {
          "_addressesProvider": "the address of the LendingPoolAddressesProvider"
        }
      }
    },
    "title": "FeeProvider contract"
  },
  "userdoc": {
    "methods": {},
    "notice": "Implements calculation for the fees applied by the protocol"
  }
}