{
  "contractName": "LendingPool",
  "abi": [
    {
      "anonymous": false,
      "inputs": [
        {
          "indexed": true,
          "internalType": "address",
          "name": "_reserve",
          "type": "address"
        },
        {
          "indexed": true,
          "internalType": "address",
          "name": "_user",
          "type": "address"
        },
        {
          "indexed": false,
          "internalType": "uint256",
          "name": "_amount",
          "type": "uint256"
        },
        {
          "indexed": false,
          "internalType": "uint256",
          "name": "_borrowRateMode",
          "type": "uint256"
        },
        {
          "indexed": false,
          "internalType": "uint256",
          "name": "_borrowRate",
          "type": "uint256"
        },
        {
          "indexed": false,
          "internalType": "uint256",
          "name": "_originationFee",
          "type": "uint256"
        },
        {
          "indexed": false,
          "internalType": "uint256",
          "name": "_borrowBalanceIncrease",
          "type": "uint256"
        },
        {
          "indexed": true,
          "internalType": "uint16",
          "name": "_referral",
          "type": "uint16"
        },
        {
          "indexed": false,
          "internalType": "uint256",
          "name": "_timestamp",
          "type": "uint256"
        }
      ],
      "name": "Borrow",
      "type": "event"
    },
    {
      "anonymous": false,
      "inputs": [
        {
          "indexed": true,
          "internalType": "address",
          "name": "_reserve",
          "type": "address"
        },
        {
          "indexed": true,
          "internalType": "address",
          "name": "_user",
          "type": "address"
        },
        {
          "indexed": false,
          "internalType": "uint256",
          "name": "_amount",
          "type": "uint256"
        },
        {
          "indexed": false,
          "internalType": "uint256",
          "name": "_timestamp",
          "type": "uint256"
        }
      ],
      "name": "ClaimReward",
      "type": "event"
    },
    {
      "anonymous": false,
      "inputs": [
        {
          "indexed": true,
          "internalType": "address",
          "name": "_reserve",
          "type": "address"
        },
        {
          "indexed": true,
          "internalType": "address",
          "name": "_user",
          "type": "address"
        },
        {
          "indexed": false,
          "internalType": "uint256",
          "name": "_amount",
          "type": "uint256"
        },
        {
          "indexed": true,
          "internalType": "uint16",
          "name": "_referral",
          "type": "uint16"
        },
        {
          "indexed": false,
          "internalType": "uint256",
          "name": "_timestamp",
          "type": "uint256"
        }
      ],
      "name": "Deposit",
      "type": "event"
    },
    {
      "anonymous": false,
      "inputs": [
        {
          "indexed": true,
          "internalType": "address",
          "name": "_target",
          "type": "address"
        },
        {
          "indexed": true,
          "internalType": "address",
          "name": "_reserve",
          "type": "address"
        },
        {
          "indexed": false,
          "internalType": "uint256",
          "name": "_amount",
          "type": "uint256"
        },
        {
          "indexed": false,
          "internalType": "uint256",
          "name": "_timestamp",
          "type": "uint256"
        }
      ],
      "name": "FlashLoan",
      "type": "event"
    },
    {
      "anonymous": false,
      "inputs": [
        {
          "indexed": true,
          "internalType": "address",
          "name": "_collateral",
          "type": "address"
        },
        {
          "indexed": true,
          "internalType": "address",
          "name": "_reserve",
          "type": "address"
        },
        {
          "indexed": true,
          "internalType": "address",
          "name": "_user",
          "type": "address"
        },
        {
          "indexed": false,
          "internalType": "uint256",
          "name": "_purchaseAmount",
          "type": "uint256"
        },
        {
          "indexed": false,
          "internalType": "uint256",
          "name": "_liquidatedCollateralAmount",
          "type": "uint256"
        },
        {
          "indexed": false,
          "internalType": "uint256",
          "name": "_accruedBorrowInterest",
          "type": "uint256"
        },
        {
          "indexed": false,
          "internalType": "address",
          "name": "_liquidator",
          "type": "address"
        },
        {
          "indexed": false,
          "internalType": "bool",
          "name": "_receiveMToken",
          "type": "bool"
        },
        {
          "indexed": false,
          "internalType": "uint256",
          "name": "_timestamp",
          "type": "uint256"
        }
      ],
      "name": "LiquidationCall",
      "type": "event"
    },
    {
      "anonymous": false,
      "inputs": [
        {
          "indexed": true,
          "internalType": "address",
          "name": "_collateral",
          "type": "address"
        },
        {
          "indexed": true,
          "internalType": "address",
          "name": "_reserve",
          "type": "address"
        },
        {
          "indexed": true,
          "internalType": "address",
          "name": "_user",
          "type": "address"
        },
        {
          "indexed": false,
          "internalType": "uint256",
          "name": "_feeLiquidated",
          "type": "uint256"
        },
        {
          "indexed": false,
          "internalType": "uint256",
          "name": "_liquidatedCollateralForFee",
          "type": "uint256"
        },
        {
          "indexed": false,
          "internalType": "uint256",
          "name": "_timestamp",
          "type": "uint256"
        }
      ],
      "name": "OriginationFeeLiquidated",
      "type": "event"
    },
    {
      "anonymous": false,
      "inputs": [
        {
          "indexed": true,
          "internalType": "address",
          "name": "_reserve",
          "type": "address"
        },
        {
          "indexed": true,
          "internalType": "address",
          "name": "_user",
          "type": "address"
        },
        {
          "indexed": false,
          "internalType": "uint256",
          "name": "_newStableRate",
          "type": "uint256"
        },
        {
          "indexed": false,
          "internalType": "uint256",
          "name": "_borrowBalanceIncrease",
          "type": "uint256"
        },
        {
          "indexed": false,
          "internalType": "uint256",
          "name": "_timestamp",
          "type": "uint256"
        }
      ],
      "name": "RebalanceStableBorrowRate",
      "type": "event"
    },
    {
      "anonymous": false,
      "inputs": [
        {
          "indexed": true,
          "internalType": "address",
          "name": "_reserve",
          "type": "address"
        },
        {
          "indexed": true,
          "internalType": "address",
          "name": "_user",
          "type": "address"
        },
        {
          "indexed": false,
          "internalType": "uint256",
          "name": "_amount",
          "type": "uint256"
        },
        {
          "indexed": false,
          "internalType": "uint256",
          "name": "_timestamp",
          "type": "uint256"
        }
      ],
      "name": "RedeemUnderlying",
      "type": "event"
    },
    {
      "anonymous": false,
      "inputs": [
        {
          "indexed": true,
          "internalType": "address",
          "name": "_reserve",
          "type": "address"
        },
        {
          "indexed": true,
          "internalType": "address",
          "name": "_user",
          "type": "address"
        },
        {
          "indexed": true,
          "internalType": "address",
          "name": "_repayer",
          "type": "address"
        },
        {
          "indexed": false,
          "internalType": "uint256",
          "name": "_amountMinusFees",
          "type": "uint256"
        },
        {
          "indexed": false,
          "internalType": "uint256",
          "name": "_fees",
          "type": "uint256"
        },
        {
          "indexed": false,
          "internalType": "uint256",
          "name": "_borrowBalanceIncrease",
          "type": "uint256"
        },
        {
          "indexed": false,
          "internalType": "uint256",
          "name": "_timestamp",
          "type": "uint256"
        }
      ],
      "name": "Repay",
      "type": "event"
    },
    {
      "anonymous": false,
      "inputs": [
        {
          "indexed": true,
          "internalType": "address",
          "name": "_reserve",
          "type": "address"
        },
        {
          "indexed": true,
          "internalType": "address",
          "name": "_user",
          "type": "address"
        }
      ],
      "name": "ReserveUsedAsCollateralDisabled",
      "type": "event"
    },
    {
      "anonymous": false,
      "inputs": [
        {
          "indexed": true,
          "internalType": "address",
          "name": "_reserve",
          "type": "address"
        },
        {
          "indexed": true,
          "internalType": "address",
          "name": "_user",
          "type": "address"
        }
      ],
      "name": "ReserveUsedAsCollateralEnabled",
      "type": "event"
    },
    {
      "anonymous": false,
      "inputs": [
        {
          "indexed": true,
          "internalType": "address",
          "name": "_reserve",
          "type": "address"
        },
        {
          "indexed": true,
          "internalType": "address",
          "name": "_user",
          "type": "address"
        },
        {
          "indexed": false,
          "internalType": "uint256",
          "name": "_newRateMode",
          "type": "uint256"
        },
        {
          "indexed": false,
          "internalType": "uint256",
          "name": "_newRate",
          "type": "uint256"
        },
        {
          "indexed": false,
          "internalType": "uint256",
          "name": "_borrowBalanceIncrease",
          "type": "uint256"
        },
        {
          "indexed": false,
          "internalType": "uint256",
          "name": "_timestamp",
          "type": "uint256"
        }
      ],
      "name": "Swap",
      "type": "event"
    },
    {
      "constant": true,
      "inputs": [],
      "name": "LENDINGPOOL_REVISION",
      "outputs": [
        {
          "internalType": "uint256",
          "name": "",
          "type": "uint256"
        }
      ],
      "payable": false,
      "stateMutability": "view",
      "type": "function"
    },
    {
      "constant": true,
      "inputs": [],
      "name": "UINT_MAX_VALUE",
      "outputs": [
        {
          "internalType": "uint256",
          "name": "",
          "type": "uint256"
        }
      ],
      "payable": false,
      "stateMutability": "view",
      "type": "function"
    },
    {
      "constant": true,
      "inputs": [],
      "name": "addressesProvider",
      "outputs": [
        {
          "internalType": "contract LendingPoolAddressesProvider",
          "name": "",
          "type": "address"
        }
      ],
      "payable": false,
      "stateMutability": "view",
      "type": "function"
    },
    {
      "constant": true,
      "inputs": [],
      "name": "core",
      "outputs": [
        {
          "internalType": "contract LendingPoolCore",
          "name": "",
          "type": "address"
        }
      ],
      "payable": false,
      "stateMutability": "view",
      "type": "function"
    },
    {
      "constant": true,
      "inputs": [],
      "name": "dataProvider",
      "outputs": [
        {
          "internalType": "contract LendingPoolDataProvider",
          "name": "",
          "type": "address"
        }
      ],
      "payable": false,
      "stateMutability": "view",
      "type": "function"
    },
    {
      "constant": true,
      "inputs": [],
      "name": "feeProvider",
      "outputs": [
        {
          "internalType": "contract IFeeProvider",
          "name": "",
          "type": "address"
        }
      ],
      "payable": false,
      "stateMutability": "view",
      "type": "function"
    },
    {
      "constant": true,
      "inputs": [],
      "name": "parametersProvider",
      "outputs": [
        {
          "internalType": "contract LendingPoolParametersProvider",
          "name": "",
          "type": "address"
        }
      ],
      "payable": false,
      "stateMutability": "view",
      "type": "function"
    },
    {
      "constant": true,
      "inputs": [],
      "name": "rewardsMgr",
      "outputs": [
        {
          "internalType": "contract RewardsManager",
          "name": "",
          "type": "address"
        }
      ],
      "payable": false,
      "stateMutability": "view",
      "type": "function"
    },
    {
      "constant": false,
      "inputs": [
        {
          "internalType": "contract LendingPoolAddressesProvider",
          "name": "_addressesProvider",
          "type": "address"
        }
      ],
      "name": "initialize",
      "outputs": [],
      "payable": false,
      "stateMutability": "nonpayable",
      "type": "function"
    },
    {
      "constant": false,
      "inputs": [
        {
          "internalType": "address",
          "name": "_reserve",
          "type": "address"
        },
        {
          "internalType": "uint256",
          "name": "_amount",
          "type": "uint256"
        },
        {
          "internalType": "uint16",
          "name": "_referralCode",
          "type": "uint16"
        }
      ],
      "name": "deposit",
      "outputs": [],
      "payable": true,
      "stateMutability": "payable",
      "type": "function"
    },
    {
      "constant": false,
      "inputs": [
        {
          "internalType": "address",
          "name": "_reserve",
          "type": "address"
        },
        {
          "internalType": "address payable",
          "name": "_user",
          "type": "address"
        },
        {
          "internalType": "uint256",
          "name": "_amount",
          "type": "uint256"
        },
        {
          "internalType": "uint256",
          "name": "_mTokenBalanceAfterRedeem",
          "type": "uint256"
        }
      ],
      "name": "redeemUnderlying",
      "outputs": [],
      "payable": false,
      "stateMutability": "nonpayable",
      "type": "function"
    },
    {
      "constant": false,
      "inputs": [
        {
          "internalType": "address",
          "name": "_reserve",
          "type": "address"
        },
        {
          "internalType": "uint256",
          "name": "_amount",
          "type": "uint256"
        },
        {
          "internalType": "uint256",
          "name": "_interestRateMode",
          "type": "uint256"
        },
        {
          "internalType": "uint16",
          "name": "_referralCode",
          "type": "uint16"
        }
      ],
      "name": "borrow",
      "outputs": [],
      "payable": false,
      "stateMutability": "nonpayable",
      "type": "function"
    },
    {
      "constant": false,
      "inputs": [
        {
          "internalType": "address",
          "name": "_reserve",
          "type": "address"
        },
        {
          "internalType": "uint256",
          "name": "_amount",
          "type": "uint256"
        },
        {
          "internalType": "address payable",
          "name": "_onBehalfOf",
          "type": "address"
        }
      ],
      "name": "repay",
      "outputs": [],
      "payable": true,
      "stateMutability": "payable",
      "type": "function"
    },
    {
      "constant": false,
      "inputs": [
        {
          "internalType": "address",
          "name": "_reserve",
          "type": "address"
        }
      ],
      "name": "swapBorrowRateMode",
      "outputs": [],
      "payable": false,
      "stateMutability": "nonpayable",
      "type": "function"
    },
    {
      "constant": false,
      "inputs": [
        {
          "internalType": "address",
          "name": "_reserve",
          "type": "address"
        },
        {
          "internalType": "address",
          "name": "_user",
          "type": "address"
        }
      ],
      "name": "rebalanceStableBorrowRate",
      "outputs": [],
      "payable": false,
      "stateMutability": "nonpayable",
      "type": "function"
    },
    {
      "constant": false,
      "inputs": [
        {
          "internalType": "address",
          "name": "_reserve",
          "type": "address"
        },
        {
          "internalType": "bool",
          "name": "_useAsCollateral",
          "type": "bool"
        }
      ],
      "name": "setUserUseReserveAsCollateral",
      "outputs": [],
      "payable": false,
      "stateMutability": "nonpayable",
      "type": "function"
    },
    {
      "constant": false,
      "inputs": [
        {
          "internalType": "address",
          "name": "_collateral",
          "type": "address"
        },
        {
          "internalType": "address",
          "name": "_reserve",
          "type": "address"
        },
        {
          "internalType": "address",
          "name": "_user",
          "type": "address"
        },
        {
          "internalType": "uint256",
          "name": "_purchaseAmount",
          "type": "uint256"
        },
        {
          "internalType": "bool",
          "name": "_receiveMToken",
          "type": "bool"
        }
      ],
      "name": "liquidationCall",
      "outputs": [],
      "payable": true,
      "stateMutability": "payable",
      "type": "function"
    },
    {
      "constant": false,
      "inputs": [
        {
          "internalType": "address",
          "name": "_receiver",
          "type": "address"
        },
        {
          "internalType": "address",
          "name": "_reserve",
          "type": "address"
        },
        {
          "internalType": "uint256",
          "name": "_amount",
          "type": "uint256"
        },
        {
          "internalType": "bytes",
          "name": "_params",
          "type": "bytes"
        }
      ],
      "name": "flashLoan",
      "outputs": [],
      "payable": false,
      "stateMutability": "nonpayable",
      "type": "function"
    },
    {
      "constant": true,
      "inputs": [
        {
          "internalType": "address",
          "name": "_reserve",
          "type": "address"
        }
      ],
      "name": "getReserveConfigurationData",
      "outputs": [
        {
          "internalType": "uint256",
          "name": "ltv",
          "type": "uint256"
        },
        {
          "internalType": "uint256",
          "name": "liquidationThreshold",
          "type": "uint256"
        },
        {
          "internalType": "uint256",
          "name": "liquidationBonus",
          "type": "uint256"
        },
        {
          "internalType": "address",
          "name": "interestRateStrategyAddress",
          "type": "address"
        },
        {
          "internalType": "bool",
          "name": "usageAsCollateralEnabled",
          "type": "bool"
        },
        {
          "internalType": "bool",
          "name": "borrowingEnabled",
          "type": "bool"
        },
        {
          "internalType": "bool",
          "name": "stableBorrowRateEnabled",
          "type": "bool"
        },
        {
          "internalType": "bool",
          "name": "isActive",
          "type": "bool"
        }
      ],
      "payable": false,
      "stateMutability": "view",
      "type": "function"
    },
    {
      "constant": true,
      "inputs": [
        {
          "internalType": "address",
          "name": "_reserve",
          "type": "address"
        }
      ],
      "name": "getReserveData",
      "outputs": [
        {
          "internalType": "uint256",
          "name": "totalLiquidity",
          "type": "uint256"
        },
        {
          "internalType": "uint256",
          "name": "availableLiquidity",
          "type": "uint256"
        },
        {
          "internalType": "uint256",
          "name": "totalBorrowsStable",
          "type": "uint256"
        },
        {
          "internalType": "uint256",
          "name": "totalBorrowsVariable",
          "type": "uint256"
        },
        {
          "internalType": "uint256",
          "name": "liquidityRate",
          "type": "uint256"
        },
        {
          "internalType": "uint256",
          "name": "variableBorrowRate",
          "type": "uint256"
        },
        {
          "internalType": "uint256",
          "name": "stableBorrowRate",
          "type": "uint256"
        },
        {
          "internalType": "uint256",
          "name": "averageStableBorrowRate",
          "type": "uint256"
        },
        {
          "internalType": "uint256",
          "name": "utilizationRate",
          "type": "uint256"
        },
        {
          "internalType": "uint256",
          "name": "liquidityIndex",
          "type": "uint256"
        },
        {
          "internalType": "uint256",
          "name": "variableBorrowIndex",
          "type": "uint256"
        },
        {
          "internalType": "address",
          "name": "mTokenAddress",
          "type": "address"
        },
        {
          "internalType": "uint40",
          "name": "lastUpdateTimestamp",
          "type": "uint40"
        }
      ],
      "payable": false,
      "stateMutability": "view",
      "type": "function"
    },
    {
      "constant": true,
      "inputs": [
        {
          "internalType": "address",
          "name": "_user",
          "type": "address"
        }
      ],
      "name": "getUserAccountData",
      "outputs": [
        {
          "internalType": "uint256",
          "name": "totalLiquidityBNB",
          "type": "uint256"
        },
        {
          "internalType": "uint256",
          "name": "totalCollateralBNB",
          "type": "uint256"
        },
        {
          "internalType": "uint256",
          "name": "totalBorrowsBNB",
          "type": "uint256"
        },
        {
          "internalType": "uint256",
          "name": "totalFeesBNB",
          "type": "uint256"
        },
        {
          "internalType": "uint256",
          "name": "availableBorrowsBNB",
          "type": "uint256"
        },
        {
          "internalType": "uint256",
          "name": "currentLiquidationThreshold",
          "type": "uint256"
        },
        {
          "internalType": "uint256",
          "name": "ltv",
          "type": "uint256"
        },
        {
          "internalType": "uint256",
          "name": "healthFactor",
          "type": "uint256"
        }
      ],
      "payable": false,
      "stateMutability": "view",
      "type": "function"
    },
    {
      "constant": true,
      "inputs": [
        {
          "internalType": "address",
          "name": "_reserve",
          "type": "address"
        },
        {
          "internalType": "address",
          "name": "_user",
          "type": "address"
        }
      ],
      "name": "getUserReserveData",
      "outputs": [
        {
          "internalType": "uint256",
          "name": "currentMTokenBalance",
          "type": "uint256"
        },
        {
          "internalType": "uint256",
          "name": "currentBorrowBalance",
          "type": "uint256"
        },
        {
          "internalType": "uint256",
          "name": "principalBorrowBalance",
          "type": "uint256"
        },
        {
          "internalType": "uint256",
          "name": "borrowRateMode",
          "type": "uint256"
        },
        {
          "internalType": "uint256",
          "name": "borrowRate",
          "type": "uint256"
        },
        {
          "internalType": "uint256",
          "name": "liquidityRate",
          "type": "uint256"
        },
        {
          "internalType": "uint256",
          "name": "originationFee",
          "type": "uint256"
        },
        {
          "internalType": "uint256",
          "name": "variableBorrowIndex",
          "type": "uint256"
        },
        {
          "internalType": "uint256",
          "name": "lastUpdateTimestamp",
          "type": "uint256"
        },
        {
          "internalType": "bool",
          "name": "usageAsCollateralEnabled",
          "type": "bool"
        }
      ],
      "payable": false,
      "stateMutability": "view",
      "type": "function"
    },
    {
      "constant": true,
      "inputs": [],
      "name": "getReserves",
      "outputs": [
        {
          "internalType": "address[]",
          "name": "",
          "type": "address[]"
        }
      ],
      "payable": false,
      "stateMutability": "view",
      "type": "function"
    },
    {
      "constant": false,
      "inputs": [],
      "name": "registerAllPoolsForReward",
      "outputs": [],
      "payable": false,
      "stateMutability": "nonpayable",
      "type": "function"
    },
    {
      "constant": true,
      "inputs": [
        {
          "internalType": "address",
          "name": "_reserve",
          "type": "address"
        },
        {
          "internalType": "enum RewardsManager.RewardTypes",
          "name": "_type",
          "type": "uint8"
        }
      ],
      "name": "readReward",
      "outputs": [
        {
          "internalType": "uint256",
          "name": "",
          "type": "uint256"
        }
      ],
      "payable": false,
      "stateMutability": "view",
      "type": "function"
    },
    {
      "constant": false,
      "inputs": [
        {
          "internalType": "address",
          "name": "_reserve",
          "type": "address"
        },
        {
          "internalType": "address",
          "name": "_user",
          "type": "address"
        }
      ],
      "name": "updateRewards",
      "outputs": [],
      "payable": false,
      "stateMutability": "nonpayable",
      "type": "function"
    },
    {
      "constant": false,
      "inputs": [
        {
          "internalType": "address",
          "name": "_user",
          "type": "address"
        }
      ],
      "name": "updateGovernanceStakingRewards",
      "outputs": [],
      "payable": false,
      "stateMutability": "nonpayable",
      "type": "function"
    },
    {
      "constant": false,
      "inputs": [
        {
          "internalType": "address",
          "name": "_reserve",
          "type": "address"
        },
        {
          "internalType": "address",
          "name": "_user",
          "type": "address"
        }
      ],
      "name": "updateLpReward",
      "outputs": [],
      "payable": false,
      "stateMutability": "nonpayable",
      "type": "function"
    },
    {
      "constant": false,
      "inputs": [
        {
          "internalType": "address",
          "name": "_reserve",
          "type": "address"
        },
        {
          "internalType": "address",
          "name": "_user",
          "type": "address"
        },
        {
          "internalType": "enum RewardsManager.RewardTypes",
          "name": "_type",
          "type": "uint8"
        },
        {
          "internalType": "uint256",
          "name": "num",
          "type": "uint256"
        }
      ],
      "name": "updatePartialReward",
      "outputs": [],
      "payable": false,
      "stateMutability": "nonpayable",
      "type": "function"
    },
    {
      "constant": false,
      "inputs": [
        {
          "internalType": "address",
          "name": "_reserve",
          "type": "address"
        },
        {
          "internalType": "enum RewardsManager.RewardTypes",
          "name": "_type",
          "type": "uint8"
        }
      ],
      "name": "claimReward",
      "outputs": [],
      "payable": false,
      "stateMutability": "nonpayable",
      "type": "function"
    },
    {
      "constant": false,
      "inputs": [
        {
          "internalType": "enum RewardsManager.RewardTypes",
          "name": "_type",
          "type": "uint8"
        }
      ],
      "name": "claimAllReward",
      "outputs": [],
      "payable": false,
      "stateMutability": "nonpayable",
      "type": "function"
    }
  ],
  "bytecode": "0x6080604052600060015560016000819055506190b580620000216000396000f3fe6080604052600436106101975760003560e01c80635cffe9de116100e2578063bf92857c11610085578063bf92857c14610c49578063c4d66de814610cdf578063c72c4d1014610d30578063c858f5f914610d87578063cd11238214610dfa578063d0fc81d214610e6b578063d2d0e06614610e96578063f2f4eb2614610ef257610197565b80635cffe9de1461090c5780638a8d757814610a1e5780638afaff0214610a5c5780638d2146bd14610a875780639895e3d814610a9e57806399b51a5c14610b23578063b334ed8614610b81578063b8ccc17514610bd857610197565b80632d24f6c71161014a5780632d24f6c71461052c57806335ea6a751461057d5780633e150141146106705780634066fdea1461074257806348ca13001461079957806358707e06146107ea5780635a3b74b9146108415780635ceae9c41461089e57610197565b8062a718a91461019c578063062acc59146102365780630902f1ac1461028d5780630982e405146102f95780630e37d36f146103815780631c71dbef146103f257806328dd2d0114610464575b600080fd5b610234600480360360a08110156101b257600080fd5b81019080803573ffffffffffffffffffffffffffffffffffffffff169060200190929190803573ffffffffffffffffffffffffffffffffffffffff169060200190929190803573ffffffffffffffffffffffffffffffffffffffff16906020019092919080359060200190929190803515159060200190929190505050610f49565b005b34801561024257600080fd5b5061024b61151e565b604051808273ffffffffffffffffffffffffffffffffffffffff1673ffffffffffffffffffffffffffffffffffffffff16815260200191505060405180910390f35b34801561029957600080fd5b506102a2611544565b6040518080602001828103825283818151815260200191508051906020019060200280838360005b838110156102e55780820151818401526020810190506102ca565b505050509050019250505060405180910390f35b34801561030557600080fd5b5061037f6004803603608081101561031c57600080fd5b81019080803573ffffffffffffffffffffffffffffffffffffffff169060200190929190803573ffffffffffffffffffffffffffffffffffffffff169060200190929190803560ff16906020019092919080359060200190929190505050611688565b005b34801561038d57600080fd5b506103f0600480360360408110156103a457600080fd5b81019080803573ffffffffffffffffffffffffffffffffffffffff169060200190929190803573ffffffffffffffffffffffffffffffffffffffff1690602001909291905050506119d5565b005b3480156103fe57600080fd5b5061044e6004803603604081101561041557600080fd5b81019080803573ffffffffffffffffffffffffffffffffffffffff169060200190929190803560ff169060200190929190505050611cd1565b6040518082815260200191505060405180910390f35b34801561047057600080fd5b506104d36004803603604081101561048757600080fd5b81019080803573ffffffffffffffffffffffffffffffffffffffff169060200190929190803573ffffffffffffffffffffffffffffffffffffffff169060200190929190505050612017565b604051808b81526020018a8152602001898152602001888152602001878152602001868152602001858152602001848152602001838152602001821515151581526020019a505050505050505050505060405180910390f35b34801561053857600080fd5b5061057b6004803603602081101561054f57600080fd5b81019080803573ffffffffffffffffffffffffffffffffffffffff1690602001909291905050506121b3565b005b34801561058957600080fd5b506105cc600480360360208110156105a057600080fd5b81019080803573ffffffffffffffffffffffffffffffffffffffff169060200190929190505050612522565b604051808e81526020018d81526020018c81526020018b81526020018a81526020018981526020018881526020018781526020018681526020018581526020018481526020018373ffffffffffffffffffffffffffffffffffffffff1673ffffffffffffffffffffffffffffffffffffffff1681526020018264ffffffffff1664ffffffffff1681526020019d505050505050505050505050505060405180910390f35b34801561067c57600080fd5b506106bf6004803603602081101561069357600080fd5b81019080803573ffffffffffffffffffffffffffffffffffffffff1690602001909291905050506126b5565b604051808981526020018881526020018781526020018673ffffffffffffffffffffffffffffffffffffffff1673ffffffffffffffffffffffffffffffffffffffff168152602001851515151581526020018415151515815260200183151515158152602001821515151581526020019850505050505050505060405180910390f35b34801561074e57600080fd5b506107576127fe565b604051808273ffffffffffffffffffffffffffffffffffffffff1673ffffffffffffffffffffffffffffffffffffffff16815260200191505060405180910390f35b3480156107a557600080fd5b506107e8600480360360208110156107bc57600080fd5b81019080803573ffffffffffffffffffffffffffffffffffffffff169060200190929190505050612824565b005b3480156107f657600080fd5b506107ff612ec9565b604051808273ffffffffffffffffffffffffffffffffffffffff1673ffffffffffffffffffffffffffffffffffffffff16815260200191505060405180910390f35b34801561084d57600080fd5b5061089c6004803603604081101561086457600080fd5b81019080803573ffffffffffffffffffffffffffffffffffffffff169060200190929190803515159060200190929190505050612eef565b005b61090a600480360360608110156108b457600080fd5b81019080803573ffffffffffffffffffffffffffffffffffffffff16906020019092919080359060200190929190803573ffffffffffffffffffffffffffffffffffffffff169060200190929190505050613426565b005b34801561091857600080fd5b50610a1c6004803603608081101561092f57600080fd5b81019080803573ffffffffffffffffffffffffffffffffffffffff169060200190929190803573ffffffffffffffffffffffffffffffffffffffff169060200190929190803590602001909291908035906020019064010000000081111561099657600080fd5b8201836020820111156109a857600080fd5b803590602001918460018302840111640100000000831117156109ca57600080fd5b91908080601f016020809104026020016040519081016040528093929190818152602001838380828437600081840152601f19601f8201169050808301925050505050505091929192905050506140a4565b005b348015610a2a57600080fd5b50610a5a60048036036020811015610a4157600080fd5b81019080803560ff169060200190929190505050614a45565b005b348015610a6857600080fd5b50610a71614bca565b6040518082815260200191505060405180910390f35b348015610a9357600080fd5b50610a9c614bcf565b005b348015610aaa57600080fd5b50610b2160048036036080811015610ac157600080fd5b81019080803573ffffffffffffffffffffffffffffffffffffffff169060200190929190803573ffffffffffffffffffffffffffffffffffffffff1690602001909291908035906020019092919080359060200190929190505050614ebe565b005b348015610b2f57600080fd5b50610b7f60048036036040811015610b4657600080fd5b81019080803573ffffffffffffffffffffffffffffffffffffffff169060200190929190803560ff169060200190929190505050615465565b005b348015610b8d57600080fd5b50610b96615473565b604051808273ffffffffffffffffffffffffffffffffffffffff1673ffffffffffffffffffffffffffffffffffffffff16815260200191505060405180910390f35b348015610be457600080fd5b50610c4760048036036040811015610bfb57600080fd5b81019080803573ffffffffffffffffffffffffffffffffffffffff169060200190929190803573ffffffffffffffffffffffffffffffffffffffff169060200190929190505050615499565b005b348015610c5557600080fd5b50610c9860048036036020811015610c6c57600080fd5b81019080803573ffffffffffffffffffffffffffffffffffffffff1690602001909291905050506156c5565b604051808981526020018881526020018781526020018681526020018581526020018481526020018381526020018281526020019850505050505050505060405180910390f35b348015610ceb57600080fd5b50610d2e60048036036020811015610d0257600080fd5b81019080803573ffffffffffffffffffffffffffffffffffffffff16906020019092919050505061580e565b005b348015610d3c57600080fd5b50610d45615ccc565b604051808273ffffffffffffffffffffffffffffffffffffffff1673ffffffffffffffffffffffffffffffffffffffff16815260200191505060405180910390f35b348015610d9357600080fd5b50610df860048036036080811015610daa57600080fd5b81019080803573ffffffffffffffffffffffffffffffffffffffff1690602001909291908035906020019092919080359060200190929190803561ffff169060200190929190505050615cf2565b005b348015610e0657600080fd5b50610e6960048036036040811015610e1d57600080fd5b81019080803573ffffffffffffffffffffffffffffffffffffffff169060200190929190803573ffffffffffffffffffffffffffffffffffffffff169060200190929190505050616b50565b005b348015610e7757600080fd5b50610e8061748c565b6040518082815260200191505060405180910390f35b610ef060048036036060811015610eac57600080fd5b81019080803573ffffffffffffffffffffffffffffffffffffffff16906020019092919080359060200190929190803561ffff1690602001909291905050506174b0565b005b348015610efe57600080fd5b50610f07617a66565b604051808273ffffffffffffffffffffffffffffffffffffffff1673ffffffffffffffffffffffffffffffffffffffff16815260200191505060405180910390f35b6001600080828254019250508190555060008054905084610f6981617a8c565b86610f7381617a8c565b6000603560009054906101000a900473ffffffffffffffffffffffffffffffffffffffff1673ffffffffffffffffffffffffffffffffffffffff16635834eb9a6040518163ffffffff1660e01b815260040160206040518083038186803b158015610fdd57600080fd5b505afa158015610ff1573d6000803e3d6000fd5b505050506040513d602081101561100757600080fd5b81019080805190602001909291905050509050600060608273ffffffffffffffffffffffffffffffffffffffff168b8b8b8b8b604051602401808673ffffffffffffffffffffffffffffffffffffffff1673ffffffffffffffffffffffffffffffffffffffff1681526020018573ffffffffffffffffffffffffffffffffffffffff1673ffffffffffffffffffffffffffffffffffffffff1681526020018473ffffffffffffffffffffffffffffffffffffffff1673ffffffffffffffffffffffffffffffffffffffff16815260200183815260200182151515158152602001955050505050506040516020818303038152906040527ea718a9000000000000000000000000000000000000000000000000000000007bffffffffffffffffffffffffffffffffffffffffffffffffffffffff19166020820180517bffffffffffffffffffffffffffffffffffffffffffffffffffffffff83818316178352505050506040518082805190602001908083835b6020831061119d578051825260208201915060208101905060208303925061117a565b6001836020036101000a038019825116818451168082178552505050505050905001915050600060405180830381855af49150503d80600081146111fd576040519150601f19603f3d011682016040523d82523d6000602084013e611202565b606091505b50915091508161127a576040517f08c379a00000000000000000000000000000000000000000000000000000000081526004018080602001828103825260178152602001807f4c69717569646174696f6e2063616c6c206661696c656400000000000000000081525060200191505060405180910390fd5b6000606082806020019051604081101561129357600080fd5b8101908080519060200190929190805160405193929190846401000000008211156112bd57600080fd5b838201915060208201858111156112d357600080fd5b82518660018202830111640100000000821117156112f057600080fd5b8083526020830192505050908051906020019080838360005b83811015611324578082015181840152602081019050611309565b50505050905090810190601f1680156113515780820380516001836020036101000a031916815260200191505b506040525050509150915060008214611498578060405160200180807f4c69717569646174696f6e206661696c65643a2000000000000000000000000081525060140182805190602001908083835b602083106113c357805182526020820191506020810190506020830392506113a0565b6001836020036101000a0380198251168184511680821785525050505050509050019150506040516020818303038152906040526040517f08c379a00000000000000000000000000000000000000000000000000000000081526004018080602001828103825283818151815260200191508051906020019080838360005b8381101561145d578082015181840152602081019050611442565b50505050905090810190601f16801561148a5780820380516001836020036101000a031916815260200191505b509250505060405180910390fd5b505050505050506000548114611516576040517f08c379a000000000000000000000000000000000000000000000000000000000815260040180806020018281038252601f8152602001807f5265656e7472616e637947756172643a207265656e7472616e742063616c6c0081525060200191505060405180910390fd5b505050505050565b603a60009054906101000a900473ffffffffffffffffffffffffffffffffffffffff1681565b6060603660009054906101000a900473ffffffffffffffffffffffffffffffffffffffff1673ffffffffffffffffffffffffffffffffffffffff16630902f1ac6040518163ffffffff1660e01b815260040160006040518083038186803b1580156115ae57600080fd5b505afa1580156115c2573d6000803e3d6000fd5b505050506040513d6000823e3d601f19601f8201168201806040525060208110156115ec57600080fd5b810190808051604051939291908464010000000082111561160c57600080fd5b8382019150602082018581111561162257600080fd5b825186602082028301116401000000008211171561163f57600080fd5b8083526020830192505050908051906020019060200280838360005b8381101561167657808201518184015260208101905061165b565b50505050905001604052505050905090565b60028081111561169457fe5b8260028111156116a057fe5b14156116ab576119cf565b60008060028111156116b957fe5b8360028111156116c557fe5b146117a957603660009054906101000a900473ffffffffffffffffffffffffffffffffffffffff1673ffffffffffffffffffffffffffffffffffffffff16639659227d856040518263ffffffff1660e01b8152600401808273ffffffffffffffffffffffffffffffffffffffff1673ffffffffffffffffffffffffffffffffffffffff16815260200191505060206040518083038186803b15801561176957600080fd5b505afa15801561177d573d6000803e3d6000fd5b505050506040513d602081101561179357600080fd5b81019080805190602001909291905050506118b8565b603660009054906101000a900473ffffffffffffffffffffffffffffffffffffffff1673ffffffffffffffffffffffffffffffffffffffff1663cda0af9686866040518363ffffffff1660e01b8152600401808373ffffffffffffffffffffffffffffffffffffffff1673ffffffffffffffffffffffffffffffffffffffff1681526020018273ffffffffffffffffffffffffffffffffffffffff1673ffffffffffffffffffffffffffffffffffffffff1681526020019250505060206040518083038186803b15801561187c57600080fd5b505afa158015611890573d6000803e3d6000fd5b505050506040513d60208110156118a657600080fd5b81019080805190602001909291905050505b9050603a60009054906101000a900473ffffffffffffffffffffffffffffffffffffffff1673ffffffffffffffffffffffffffffffffffffffff16630d3c1f6f86868685876040518663ffffffff1660e01b8152600401808673ffffffffffffffffffffffffffffffffffffffff1673ffffffffffffffffffffffffffffffffffffffff1681526020018573ffffffffffffffffffffffffffffffffffffffff1673ffffffffffffffffffffffffffffffffffffffff16815260200184600281111561198057fe5b60ff16815260200183815260200182815260200195505050505050600060405180830381600087803b1580156119b557600080fd5b505af11580156119c9573d6000803e3d6000fd5b50505050505b50505050565b6000603660009054906101000a900473ffffffffffffffffffffffffffffffffffffffff1673ffffffffffffffffffffffffffffffffffffffff1663cda0af9684846040518363ffffffff1660e01b8152600401808373ffffffffffffffffffffffffffffffffffffffff1673ffffffffffffffffffffffffffffffffffffffff1681526020018273ffffffffffffffffffffffffffffffffffffffff1673ffffffffffffffffffffffffffffffffffffffff1681526020019250505060206040518083038186803b158015611aaa57600080fd5b505afa158015611abe573d6000803e3d6000fd5b505050506040513d6020811015611ad457600080fd5b810190808051906020019092919050505090506000603660009054906101000a900473ffffffffffffffffffffffffffffffffffffffff1673ffffffffffffffffffffffffffffffffffffffff16639659227d846040518263ffffffff1660e01b8152600401808273ffffffffffffffffffffffffffffffffffffffff1673ffffffffffffffffffffffffffffffffffffffff16815260200191505060206040518083038186803b158015611b8857600080fd5b505afa158015611b9c573d6000803e3d6000fd5b505050506040513d6020811015611bb257600080fd5b81019080805190602001909291905050509050603a60009054906101000a900473ffffffffffffffffffffffffffffffffffffffff1673ffffffffffffffffffffffffffffffffffffffff16633721535e8585858560006040518663ffffffff1660e01b8152600401808673ffffffffffffffffffffffffffffffffffffffff1673ffffffffffffffffffffffffffffffffffffffff1681526020018573ffffffffffffffffffffffffffffffffffffffff1673ffffffffffffffffffffffffffffffffffffffff16815260200184815260200183815260200182815260200195505050505050600060405180830381600087803b158015611cb357600080fd5b505af1158015611cc7573d6000803e3d6000fd5b5050505050505050565b60008060006002811115611ce157fe5b836002811115611ced57fe5b14611dd157603660009054906101000a900473ffffffffffffffffffffffffffffffffffffffff1673ffffffffffffffffffffffffffffffffffffffff16639659227d336040518263ffffffff1660e01b8152600401808273ffffffffffffffffffffffffffffffffffffffff1673ffffffffffffffffffffffffffffffffffffffff16815260200191505060206040518083038186803b158015611d9157600080fd5b505afa158015611da5573d6000803e3d6000fd5b505050506040513d6020811015611dbb57600080fd5b8101908080519060200190929190505050611ee0565b603660009054906101000a900473ffffffffffffffffffffffffffffffffffffffff1673ffffffffffffffffffffffffffffffffffffffff1663cda0af9685336040518363ffffffff1660e01b8152600401808373ffffffffffffffffffffffffffffffffffffffff1673ffffffffffffffffffffffffffffffffffffffff1681526020018273ffffffffffffffffffffffffffffffffffffffff1673ffffffffffffffffffffffffffffffffffffffff1681526020019250505060206040518083038186803b158015611ea457600080fd5b505afa158015611eb8573d6000803e3d6000fd5b505050506040513d6020811015611ece57600080fd5b81019080805190602001909291905050505b9050603a60009054906101000a900473ffffffffffffffffffffffffffffffffffffffff1673ffffffffffffffffffffffffffffffffffffffff16632ae61099853386856040518563ffffffff1660e01b8152600401808573ffffffffffffffffffffffffffffffffffffffff1673ffffffffffffffffffffffffffffffffffffffff1681526020018473ffffffffffffffffffffffffffffffffffffffff1673ffffffffffffffffffffffffffffffffffffffff168152602001836002811115611fa757fe5b60ff16815260200182815260200194505050505060206040518083038186803b158015611fd357600080fd5b505afa158015611fe7573d6000803e3d6000fd5b505050506040513d6020811015611ffd57600080fd5b810190808051906020019092919050505091505092915050565b600080600080600080600080600080603760009054906101000a900473ffffffffffffffffffffffffffffffffffffffff1673ffffffffffffffffffffffffffffffffffffffff166328dd2d018d8d6040518363ffffffff1660e01b8152600401808373ffffffffffffffffffffffffffffffffffffffff1673ffffffffffffffffffffffffffffffffffffffff1681526020018273ffffffffffffffffffffffffffffffffffffffff1673ffffffffffffffffffffffffffffffffffffffff168152602001925050506101406040518083038186803b1580156120fa57600080fd5b505afa15801561210e573d6000803e3d6000fd5b505050506040513d61014081101561212557600080fd5b810190808051906020019092919080519060200190929190805190602001909291908051906020019092919080519060200190929190805190602001909291908051906020019092919080519060200190929190805190602001909291908051906020019092919050505099509950995099509950995099509950995099509295989b9194979a5092959850565b6000603660009054906101000a900473ffffffffffffffffffffffffffffffffffffffff1673ffffffffffffffffffffffffffffffffffffffff16639659227d836040518263ffffffff1660e01b8152600401808273ffffffffffffffffffffffffffffffffffffffff1673ffffffffffffffffffffffffffffffffffffffff16815260200191505060206040518083038186803b15801561225457600080fd5b505afa158015612268573d6000803e3d6000fd5b505050506040513d602081101561227e57600080fd5b810190808051906020019092919050505090506060603660009054906101000a900473ffffffffffffffffffffffffffffffffffffffff1673ffffffffffffffffffffffffffffffffffffffff16630902f1ac6040518163ffffffff1660e01b815260040160006040518083038186803b1580156122fb57600080fd5b505afa15801561230f573d6000803e3d6000fd5b505050506040513d6000823e3d601f19601f82011682018060405250602081101561233957600080fd5b810190808051604051939291908464010000000082111561235957600080fd5b8382019150602082018581111561236f57600080fd5b825186602082028301116401000000008211171561238c57600080fd5b8083526020830192505050908051906020019060200280838360005b838110156123c35780820151818401526020810190506123a8565b50505050905001604052505050905060008151905060008090505b8181101561251b57603a60009054906101000a900473ffffffffffffffffffffffffffffffffffffffff1673ffffffffffffffffffffffffffffffffffffffff16630d3c1f6f84838151811061243057fe5b60200260200101518760018860006040518663ffffffff1660e01b8152600401808673ffffffffffffffffffffffffffffffffffffffff1673ffffffffffffffffffffffffffffffffffffffff1681526020018573ffffffffffffffffffffffffffffffffffffffff1673ffffffffffffffffffffffffffffffffffffffff1681526020018460028111156124c157fe5b60ff16815260200183815260200182815260200195505050505050600060405180830381600087803b1580156124f657600080fd5b505af115801561250a573d6000803e3d6000fd5b5050505080806001019150506123de565b5050505050565b6000806000806000806000806000806000806000603760009054906101000a900473ffffffffffffffffffffffffffffffffffffffff1673ffffffffffffffffffffffffffffffffffffffff166335ea6a758f6040518263ffffffff1660e01b8152600401808273ffffffffffffffffffffffffffffffffffffffff1673ffffffffffffffffffffffffffffffffffffffff1681526020019150506101a06040518083038186803b1580156125d657600080fd5b505afa1580156125ea573d6000803e3d6000fd5b505050506040513d6101a081101561260157600080fd5b81019080805190602001909291908051906020019092919080519060200190929190805190602001909291908051906020019092919080519060200190929190805190602001909291908051906020019092919080519060200190929190805190602001909291908051906020019092919080519060200190929190805190602001909291905050509c509c509c509c509c509c509c509c509c509c509c509c509c5091939597999b9d90929496989a9c50565b600080600080600080600080603760009054906101000a900473ffffffffffffffffffffffffffffffffffffffff1673ffffffffffffffffffffffffffffffffffffffff16633e1501418a6040518263ffffffff1660e01b8152600401808273ffffffffffffffffffffffffffffffffffffffff1673ffffffffffffffffffffffffffffffffffffffff1681526020019150506101006040518083038186803b15801561276157600080fd5b505afa158015612775573d6000803e3d6000fd5b505050506040513d61010081101561278c57600080fd5b81019080805190602001909291908051906020019092919080519060200190929190805190602001909291908051906020019092919080519060200190929190805190602001909291908051906020019092919050505097509750975097509750975097509750919395975091939597565b603960009054906101000a900473ffffffffffffffffffffffffffffffffffffffff1681565b600160008082825401925050819055506000805490508161284481617a8c565b8261284e81617bbe565b6000806000603660009054906101000a900473ffffffffffffffffffffffffffffffffffffffff1673ffffffffffffffffffffffffffffffffffffffff16639fb8afcd88336040518363ffffffff1660e01b8152600401808373ffffffffffffffffffffffffffffffffffffffff1673ffffffffffffffffffffffffffffffffffffffff1681526020018273ffffffffffffffffffffffffffffffffffffffff1673ffffffffffffffffffffffffffffffffffffffff1681526020019250505060606040518083038186803b15801561292657600080fd5b505afa15801561293a573d6000803e3d6000fd5b505050506040513d606081101561295057600080fd5b81019080805190602001909291908051906020019092919080519060200190929190505050925092509250600082116129d4576040517f08c379a0000000000000000000000000000000000000000000000000000000008152600401808060200182810382526037815260200180618dff6037913960400191505060405180910390fd5b6000603660009054906101000a900473ffffffffffffffffffffffffffffffffffffffff1673ffffffffffffffffffffffffffffffffffffffff16631ca19f1989336040518363ffffffff1660e01b8152600401808373ffffffffffffffffffffffffffffffffffffffff1673ffffffffffffffffffffffffffffffffffffffff1681526020018273ffffffffffffffffffffffffffffffffffffffff1673ffffffffffffffffffffffffffffffffffffffff1681526020019250505060206040518083038186803b158015612aa957600080fd5b505afa158015612abd573d6000803e3d6000fd5b505050506040513d6020811015612ad357600080fd5b81019080805190602001909291905050509050600280811115612af257fe5b816002811115612afe57fe5b1415612c7057603660009054906101000a900473ffffffffffffffffffffffffffffffffffffffff1673ffffffffffffffffffffffffffffffffffffffff1663e2174d868933866040518463ffffffff1660e01b8152600401808473ffffffffffffffffffffffffffffffffffffffff1673ffffffffffffffffffffffffffffffffffffffff1681526020018373ffffffffffffffffffffffffffffffffffffffff1673ffffffffffffffffffffffffffffffffffffffff168152602001828152602001935050505060206040518083038186803b158015612bdf57600080fd5b505afa158015612bf3573d6000803e3d6000fd5b505050506040513d6020811015612c0957600080fd5b8101908080519060200190929190505050612c6f576040517f08c379a0000000000000000000000000000000000000000000000000000000008152600401808060200182810382526030815260200180618fe96030913960400191505060405180910390fd5b5b600080603660009054906101000a900473ffffffffffffffffffffffffffffffffffffffff1673ffffffffffffffffffffffffffffffffffffffff1663f61483118b33898989896040518763ffffffff1660e01b8152600401808773ffffffffffffffffffffffffffffffffffffffff1673ffffffffffffffffffffffffffffffffffffffff1681526020018673ffffffffffffffffffffffffffffffffffffffff1673ffffffffffffffffffffffffffffffffffffffff168152602001858152602001848152602001838152602001826002811115612d4c57fe5b60ff16815260200196505050505050506040805180830381600087803b158015612d7557600080fd5b505af1158015612d89573d6000803e3d6000fd5b505050506040513d6040811015612d9f57600080fd5b810190808051906020019092919080519060200190929190505050915091503373ffffffffffffffffffffffffffffffffffffffff168a73ffffffffffffffffffffffffffffffffffffffff167fb3e2773606abfd36b5bd91394b3a54d1398336c65005baf7bf7a05efeffaf75b846002811115612e1957fe5b8488426040518085815260200184815260200183815260200182815260200194505050505060405180910390a350505050505050506000548114612ec5576040517f08c379a000000000000000000000000000000000000000000000000000000000815260040180806020018281038252601f8152602001807f5265656e7472616e637947756172643a207265656e7472616e742063616c6c0081525060200191505060405180910390fd5b5050565b603860009054906101000a900473ffffffffffffffffffffffffffffffffffffffff1681565b6001600080828254019250508190555060008054905082612f0f81617a8c565b83612f1981617bbe565b6000603660009054906101000a900473ffffffffffffffffffffffffffffffffffffffff1673ffffffffffffffffffffffffffffffffffffffff166318a4dbca87336040518363ffffffff1660e01b8152600401808373ffffffffffffffffffffffffffffffffffffffff1673ffffffffffffffffffffffffffffffffffffffff1681526020018273ffffffffffffffffffffffffffffffffffffffff1673ffffffffffffffffffffffffffffffffffffffff1681526020019250505060206040518083038186803b158015612fee57600080fd5b505afa158015613002573d6000803e3d6000fd5b505050506040513d602081101561301857600080fd5b8101908080519060200190929190505050905060008111613084576040517f08c379a000000000000000000000000000000000000000000000000000000000815260040180806020018281038252602a815260200180618f5a602a913960400191505060405180910390fd5b603760009054906101000a900473ffffffffffffffffffffffffffffffffffffffff1673ffffffffffffffffffffffffffffffffffffffff166376e9d6158733846040518463ffffffff1660e01b8152600401808473ffffffffffffffffffffffffffffffffffffffff1673ffffffffffffffffffffffffffffffffffffffff1681526020018373ffffffffffffffffffffffffffffffffffffffff1673ffffffffffffffffffffffffffffffffffffffff168152602001828152602001935050505060206040518083038186803b15801561315f57600080fd5b505afa158015613173573d6000803e3d6000fd5b505050506040513d602081101561318957600080fd5b81019080805190602001909291905050506131ef576040517f08c379a0000000000000000000000000000000000000000000000000000000008152600401808060200182810382526030815260200180618c516030913960400191505060405180910390fd5b603660009054906101000a900473ffffffffffffffffffffffffffffffffffffffff1673ffffffffffffffffffffffffffffffffffffffff1663fa51854c8733886040518463ffffffff1660e01b8152600401808473ffffffffffffffffffffffffffffffffffffffff1673ffffffffffffffffffffffffffffffffffffffff1681526020018373ffffffffffffffffffffffffffffffffffffffff1673ffffffffffffffffffffffffffffffffffffffff168152602001821515151581526020019350505050600060405180830381600087803b1580156132d057600080fd5b505af11580156132e4573d6000803e3d6000fd5b50505050841561334c573373ffffffffffffffffffffffffffffffffffffffff168673ffffffffffffffffffffffffffffffffffffffff167e058a56ea94653cdf4f152d227ace22d4c00ad99e2a43f58cb7d9e3feb295f260405160405180910390a36133a7565b3373ffffffffffffffffffffffffffffffffffffffff168673ffffffffffffffffffffffffffffffffffffffff167f44c58d81365b66dd4b1a7f36c25aa97b8c71c361ee4937adc1a00000227db5dd60405160405180910390a35b5050506000548114613421576040517f08c379a000000000000000000000000000000000000000000000000000000000815260040180806020018281038252601f8152602001807f5265656e7472616e637947756172643a207265656e7472616e742063616c6c0081525060200191505060405180910390fd5b505050565b600160008082825401925050819055506000805490508361344681617a8c565b8361345081617cf1565b613458618a7c565b603660009054906101000a900473ffffffffffffffffffffffffffffffffffffffff1673ffffffffffffffffffffffffffffffffffffffff16639fb8afcd88876040518363ffffffff1660e01b8152600401808373ffffffffffffffffffffffffffffffffffffffff1673ffffffffffffffffffffffffffffffffffffffff1681526020018273ffffffffffffffffffffffffffffffffffffffff1673ffffffffffffffffffffffffffffffffffffffff1681526020019250505060606040518083038186803b15801561352b57600080fd5b505afa15801561353f573d6000803e3d6000fd5b505050506040513d606081101561355557600080fd5b81019080805190602001909291908051906020019092919080519060200190929190505050836000018460200185604001838152508381525083815250505050603660009054906101000a900473ffffffffffffffffffffffffffffffffffffffff1673ffffffffffffffffffffffffffffffffffffffff1663feab31ac88876040518363ffffffff1660e01b8152600401808373ffffffffffffffffffffffffffffffffffffffff1673ffffffffffffffffffffffffffffffffffffffff1681526020018273ffffffffffffffffffffffffffffffffffffffff1673ffffffffffffffffffffffffffffffffffffffff1681526020019250505060206040518083038186803b15801561366857600080fd5b505afa15801561367c573d6000803e3d6000fd5b505050506040513d602081101561369257600080fd5b81019080805190602001909291905050508160e00181815250508673ffffffffffffffffffffffffffffffffffffffff166136cb617d6a565b73ffffffffffffffffffffffffffffffffffffffff1614816060019015159081151581525050600081602001511161374e576040517f08c379a0000000000000000000000000000000000000000000000000000000008152600401808060200182810382526029815260200180618fc06029913960400191505060405180910390fd5b7fffffffffffffffffffffffffffffffffffffffffffffffffffffffffffffffff861415806137a857508473ffffffffffffffffffffffffffffffffffffffff163373ffffffffffffffffffffffffffffffffffffffff16145b6137fd576040517f08c379a00000000000000000000000000000000000000000000000000000000081526004018080602001828103825260448152602001806190196044913960600191505060405180910390fd5b6138188160e001518260200151617d8690919063ffffffff16565b8160800181815250507fffffffffffffffffffffffffffffffffffffffffffffffffffffffffffffffff86141580156138545750806080015186105b1561386457858160800181815250505b80606001511580613879575080608001513410155b6138ce576040517f08c379a0000000000000000000000000000000000000000000000000000000008152600401808060200182810382526028815260200180618d556028913960400191505060405180910390fd5b60008160e0015190508160e001518260800151116138ee57816080015190505b6138f888876119d5565b6139028882617e0e565b8160e00151826080015111613bec57603660009054906101000a900473ffffffffffffffffffffffffffffffffffffffff1673ffffffffffffffffffffffffffffffffffffffff1663da12d96f898860008660800151876040015160006040518763ffffffff1660e01b8152600401808773ffffffffffffffffffffffffffffffffffffffff1673ffffffffffffffffffffffffffffffffffffffff1681526020018673ffffffffffffffffffffffffffffffffffffffff1673ffffffffffffffffffffffffffffffffffffffff168152602001858152602001848152602001838152602001821515151581526020019650505050505050600060405180830381600087803b158015613a1457600080fd5b505af1158015613a28573d6000803e3d6000fd5b50505050603660009054906101000a900473ffffffffffffffffffffffffffffffffffffffff1673ffffffffffffffffffffffffffffffffffffffff166338b32a338360600151613a7a576000613a80565b83608001515b8a89866080015160006040518663ffffffff1660e01b8152600401808573ffffffffffffffffffffffffffffffffffffffff1673ffffffffffffffffffffffffffffffffffffffff1681526020018473ffffffffffffffffffffffffffffffffffffffff1673ffffffffffffffffffffffffffffffffffffffff168152602001838152602001821515151581526020019450505050506000604051808303818588803b158015613b2f57600080fd5b505af1158015613b43573d6000803e3d6000fd5b50505050503373ffffffffffffffffffffffffffffffffffffffff168673ffffffffffffffffffffffffffffffffffffffff168973ffffffffffffffffffffffffffffffffffffffff167fb718f0b14f03d8c3adf35b15e3da52421b042ac879e5a689011a8b1e0036773d600086608001518760400151426040518085815260200184815260200183815260200182815260200194505050505060405180910390a45050614025565b613c078260e0015183608001516180a890919063ffffffff16565b8260a0018181525050603660009054906101000a900473ffffffffffffffffffffffffffffffffffffffff1673ffffffffffffffffffffffffffffffffffffffff1663da12d96f89888560a001518660e0015187604001518860a001518960200151146040518763ffffffff1660e01b8152600401808773ffffffffffffffffffffffffffffffffffffffff1673ffffffffffffffffffffffffffffffffffffffff1681526020018673ffffffffffffffffffffffffffffffffffffffff1673ffffffffffffffffffffffffffffffffffffffff168152602001858152602001848152602001838152602001821515151581526020019650505050505050600060405180830381600087803b158015613d1f57600080fd5b505af1158015613d33573d6000803e3d6000fd5b5050505060008260e001511115613e6157603660009054906101000a900473ffffffffffffffffffffffffffffffffffffffff1673ffffffffffffffffffffffffffffffffffffffff166338b32a338360600151613d92576000613d98565b8360e001515b8a338660e0015160006040518663ffffffff1660e01b8152600401808573ffffffffffffffffffffffffffffffffffffffff1673ffffffffffffffffffffffffffffffffffffffff1681526020018473ffffffffffffffffffffffffffffffffffffffff1673ffffffffffffffffffffffffffffffffffffffff168152602001838152602001821515151581526020019450505050506000604051808303818588803b158015613e4757600080fd5b505af1158015613e5b573d6000803e3d6000fd5b50505050505b603660009054906101000a900473ffffffffffffffffffffffffffffffffffffffff1673ffffffffffffffffffffffffffffffffffffffff166328fcf4d38360600151613eaf576000613ec7565b613ec68460e00151346180a890919063ffffffff16565b5b8a338660a001516040518563ffffffff1660e01b8152600401808473ffffffffffffffffffffffffffffffffffffffff1673ffffffffffffffffffffffffffffffffffffffff1681526020018373ffffffffffffffffffffffffffffffffffffffff1673ffffffffffffffffffffffffffffffffffffffff16815260200182815260200193505050506000604051808303818588803b158015613f6957600080fd5b505af1158015613f7d573d6000803e3d6000fd5b50505050503373ffffffffffffffffffffffffffffffffffffffff168673ffffffffffffffffffffffffffffffffffffffff168973ffffffffffffffffffffffffffffffffffffffff167fb718f0b14f03d8c3adf35b15e3da52421b042ac879e5a689011a8b1e0036773d8560a001518660e001518760400151426040518085815260200184815260200183815260200182815260200194505050505060405180910390a450505b5050600054811461409e576040517f08c379a000000000000000000000000000000000000000000000000000000000815260040180806020018281038252601f8152602001807f5265656e7472616e637947756172643a207265656e7472616e742063616c6c0081525060200191505060405180910390fd5b50505050565b60016000808282540192505081905550600080549050836140c481617a8c565b836140ce81617cf1565b60006140d8617d6a565b73ffffffffffffffffffffffffffffffffffffffff168773ffffffffffffffffffffffffffffffffffffffff16146141e9578673ffffffffffffffffffffffffffffffffffffffff166370a08231603660009054906101000a900473ffffffffffffffffffffffffffffffffffffffff166040518263ffffffff1660e01b8152600401808273ffffffffffffffffffffffffffffffffffffffff1673ffffffffffffffffffffffffffffffffffffffff16815260200191505060206040518083038186803b1580156141a957600080fd5b505afa1580156141bd573d6000803e3d6000fd5b505050506040513d60208110156141d357600080fd5b8101908080519060200190929190505050614224565b603660009054906101000a900473ffffffffffffffffffffffffffffffffffffffff1673ffffffffffffffffffffffffffffffffffffffff16315b90508581101561427f576040517f08c379a0000000000000000000000000000000000000000000000000000000008152600401808060200182810382526031815260200180618bae6031913960400191505060405180910390fd5b6000603960009054906101000a900473ffffffffffffffffffffffffffffffffffffffff1673ffffffffffffffffffffffffffffffffffffffff1663fd90c2be6040518163ffffffff1660e01b815260040160206040518083038186803b1580156142e957600080fd5b505afa1580156142fd573d6000803e3d6000fd5b505050506040513d602081101561431357600080fd5b81019080805190602001909291905050509050600061433b82896180f290919063ffffffff16565b905060008111614396576040517f08c379a0000000000000000000000000000000000000000000000000000000008152600401808060200182810382526032815260200180618ec16032913960400191505060405180910390fd5b60008a905060008b9050603660009054906101000a900473ffffffffffffffffffffffffffffffffffffffff1673ffffffffffffffffffffffffffffffffffffffff1663fa93b2a58c838d6040518463ffffffff1660e01b8152600401808473ffffffffffffffffffffffffffffffffffffffff1673ffffffffffffffffffffffffffffffffffffffff1681526020018373ffffffffffffffffffffffffffffffffffffffff1673ffffffffffffffffffffffffffffffffffffffff1681526020018281526020019350505050600060405180830381600087803b15801561447d57600080fd5b505af1158015614491573d6000803e3d6000fd5b505050508173ffffffffffffffffffffffffffffffffffffffff1663ee8725588c8c868d6040518563ffffffff1660e01b8152600401808573ffffffffffffffffffffffffffffffffffffffff1673ffffffffffffffffffffffffffffffffffffffff16815260200184815260200183815260200180602001828103825283818151815260200191508051906020019080838360005b83811015614542578082015181840152602081019050614527565b50505050905090810190601f16801561456f5780820380516001836020036101000a031916815260200191505b5095505050505050600060405180830381600087803b15801561459157600080fd5b505af11580156145a5573d6000803e3d6000fd5b5050505060006145b3617d6a565b73ffffffffffffffffffffffffffffffffffffffff168c73ffffffffffffffffffffffffffffffffffffffff16146146c4578b73ffffffffffffffffffffffffffffffffffffffff166370a08231603660009054906101000a900473ffffffffffffffffffffffffffffffffffffffff166040518263ffffffff1660e01b8152600401808273ffffffffffffffffffffffffffffffffffffffff1673ffffffffffffffffffffffffffffffffffffffff16815260200191505060206040518083038186803b15801561468457600080fd5b505afa158015614698573d6000803e3d6000fd5b505050506040513d60208110156146ae57600080fd5b81019080805190602001909291905050506146ff565b603660009054906101000a900473ffffffffffffffffffffffffffffffffffffffff1673ffffffffffffffffffffffffffffffffffffffff16315b90506147148487617d8690919063ffffffff16565b811461476b576040517f08c379a0000000000000000000000000000000000000000000000000000000008152600401808060200182810382526032815260200180618dcd6032913960400191505060405180910390fd5b603660009054906101000a900473ffffffffffffffffffffffffffffffffffffffff1673ffffffffffffffffffffffffffffffffffffffff16639792d51e8d6040518263ffffffff1660e01b8152600401808273ffffffffffffffffffffffffffffffffffffffff1673ffffffffffffffffffffffffffffffffffffffff168152602001915050600060405180830381600087803b15801561480c57600080fd5b505af1158015614820573d6000803e3d6000fd5b5050505061482e8c85617e0e565b603660009054906101000a900473ffffffffffffffffffffffffffffffffffffffff1673ffffffffffffffffffffffffffffffffffffffff166338b32a338d603660009054906101000a900473ffffffffffffffffffffffffffffffffffffffff168760016040518563ffffffff1660e01b8152600401808573ffffffffffffffffffffffffffffffffffffffff1673ffffffffffffffffffffffffffffffffffffffff1681526020018473ffffffffffffffffffffffffffffffffffffffff1673ffffffffffffffffffffffffffffffffffffffff16815260200183815260200182151515158152602001945050505050600060405180830381600087803b15801561493a57600080fd5b505af115801561494e573d6000803e3d6000fd5b505050508b73ffffffffffffffffffffffffffffffffffffffff168d73ffffffffffffffffffffffffffffffffffffffff167f0d7d75e01ab95780d3cd1c8ec0dd6c2ce19e3a20427eec8bf53283b6fb8e95f08d42604051808381526020018281526020019250505060405180910390a350505050505050506000548114614a3e576040517f08c379a000000000000000000000000000000000000000000000000000000000815260040180806020018281038252601f8152602001807f5265656e7472616e637947756172643a207265656e7472616e742063616c6c0081525060200191505060405180910390fd5b5050505050565b6060603660009054906101000a900473ffffffffffffffffffffffffffffffffffffffff1673ffffffffffffffffffffffffffffffffffffffff16630902f1ac6040518163ffffffff1660e01b815260040160006040518083038186803b158015614aaf57600080fd5b505afa158015614ac3573d6000803e3d6000fd5b505050506040513d6000823e3d601f19601f820116820180604052506020811015614aed57600080fd5b8101908080516040519392919084640100000000821115614b0d57600080fd5b83820191506020820185811115614b2357600080fd5b8251866020820283011164010000000082111715614b4057600080fd5b8083526020830192505050908051906020019060200280838360005b83811015614b77578082015181840152602081019050614b5c565b50505050905001604052505050905060008151905060008090505b81811015614bc457614bb7838281518110614ba957fe5b60200260200101518561814d565b8080600101915050614b92565b50505050565b600181565b603560009054906101000a900473ffffffffffffffffffffffffffffffffffffffff1673ffffffffffffffffffffffffffffffffffffffff166304e76c8f6040518163ffffffff1660e01b815260040160206040518083038186803b158015614c3757600080fd5b505afa158015614c4b573d6000803e3d6000fd5b505050506040513d6020811015614c6157600080fd5b8101908080519060200190929190505050603a60006101000a81548173ffffffffffffffffffffffffffffffffffffffff021916908373ffffffffffffffffffffffffffffffffffffffff160217905550603a60009054906101000a900473ffffffffffffffffffffffffffffffffffffffff1673ffffffffffffffffffffffffffffffffffffffff166330ab9fdb603660009054906101000a900473ffffffffffffffffffffffffffffffffffffffff1673ffffffffffffffffffffffffffffffffffffffff16630902f1ac6040518163ffffffff1660e01b815260040160006040518083038186803b158015614d5857600080fd5b505afa158015614d6c573d6000803e3d6000fd5b505050506040513d6000823e3d601f19601f820116820180604052506020811015614d9657600080fd5b8101908080516040519392919084640100000000821115614db657600080fd5b83820191506020820185811115614dcc57600080fd5b8251866020820283011164010000000082111715614de957600080fd5b8083526020830192505050908051906020019060200280838360005b83811015614e20578082015181840152602081019050614e05565b505050509050016040525050506040518263ffffffff1660e01b81526004018080602001828103825283818151815260200191508051906020019060200280838360005b83811015614e7f578082015181840152602081019050614e64565b5050505090500192505050600060405180830381600087803b158015614ea457600080fd5b505af1158015614eb8573d6000803e3d6000fd5b50505050565b6001600080828254019250508190555060008054905084603660009054906101000a900473ffffffffffffffffffffffffffffffffffffffff1673ffffffffffffffffffffffffffffffffffffffff16635c90bc85826040518263ffffffff1660e01b8152600401808273ffffffffffffffffffffffffffffffffffffffff1673ffffffffffffffffffffffffffffffffffffffff16815260200191505060206040518083038186803b158015614f7457600080fd5b505afa158015614f88573d6000803e3d6000fd5b505050506040513d6020811015614f9e57600080fd5b810190808051906020019092919050505073ffffffffffffffffffffffffffffffffffffffff163373ffffffffffffffffffffffffffffffffffffffff1614615032576040517f08c379a000000000000000000000000000000000000000000000000000000000815260040180806020018281038252604b815260200180618ca5604b913960600191505060405180910390fd5b8561503c81617a8c565b8461504681617cf1565b6000603660009054906101000a900473ffffffffffffffffffffffffffffffffffffffff1673ffffffffffffffffffffffffffffffffffffffff1663e24030198a6040518263ffffffff1660e01b8152600401808273ffffffffffffffffffffffffffffffffffffffff1673ffffffffffffffffffffffffffffffffffffffff16815260200191505060206040518083038186803b1580156150e757600080fd5b505afa1580156150fb573d6000803e3d6000fd5b505050506040513d602081101561511157600080fd5b810190808051906020019092919050505090508681101561517d576040517f08c379a0000000000000000000000000000000000000000000000000000000008152600401808060200182810382526031815260200180618cf06031913960400191505060405180910390fd5b603660009054906101000a900473ffffffffffffffffffffffffffffffffffffffff1673ffffffffffffffffffffffffffffffffffffffff1663afcdbea38a8a8a60008b146040518563ffffffff1660e01b8152600401808573ffffffffffffffffffffffffffffffffffffffff1673ffffffffffffffffffffffffffffffffffffffff1681526020018473ffffffffffffffffffffffffffffffffffffffff1673ffffffffffffffffffffffffffffffffffffffff16815260200183815260200182151515158152602001945050505050600060405180830381600087803b15801561526957600080fd5b505af115801561527d573d6000803e3d6000fd5b50505050603660009054906101000a900473ffffffffffffffffffffffffffffffffffffffff1673ffffffffffffffffffffffffffffffffffffffff1663fa93b2a58a8a8a6040518463ffffffff1660e01b8152600401808473ffffffffffffffffffffffffffffffffffffffff1673ffffffffffffffffffffffffffffffffffffffff1681526020018373ffffffffffffffffffffffffffffffffffffffff1673ffffffffffffffffffffffffffffffffffffffff1681526020018281526020019350505050600060405180830381600087803b15801561535e57600080fd5b505af1158015615372573d6000803e3d6000fd5b505050508773ffffffffffffffffffffffffffffffffffffffff168973ffffffffffffffffffffffffffffffffffffffff167f9c4ed599cd8555b9c1e8cd7643240d7d71eb76b792948c49fcb4d411f7b6b3c68942604051808381526020018281526020019250505060405180910390a350505050600054811461545e576040517f08c379a000000000000000000000000000000000000000000000000000000000815260040180806020018281038252601f8152602001807f5265656e7472616e637947756172643a207265656e7472616e742063616c6c0081525060200191505060405180910390fd5b5050505050565b61546f828261814d565b5050565b603760009054906101000a900473ffffffffffffffffffffffffffffffffffffffff1681565b6000603660009054906101000a900473ffffffffffffffffffffffffffffffffffffffff1673ffffffffffffffffffffffffffffffffffffffff1663cda0af9684846040518363ffffffff1660e01b8152600401808373ffffffffffffffffffffffffffffffffffffffff1673ffffffffffffffffffffffffffffffffffffffff1681526020018273ffffffffffffffffffffffffffffffffffffffff1673ffffffffffffffffffffffffffffffffffffffff1681526020019250505060206040518083038186803b15801561556e57600080fd5b505afa158015615582573d6000803e3d6000fd5b505050506040513d602081101561559857600080fd5b81019080805190602001909291905050509050603a60009054906101000a900473ffffffffffffffffffffffffffffffffffffffff1673ffffffffffffffffffffffffffffffffffffffff16630d3c1f6f848460008560006040518663ffffffff1660e01b8152600401808673ffffffffffffffffffffffffffffffffffffffff1673ffffffffffffffffffffffffffffffffffffffff1681526020018573ffffffffffffffffffffffffffffffffffffffff1673ffffffffffffffffffffffffffffffffffffffff16815260200184600281111561567357fe5b60ff16815260200183815260200182815260200195505050505050600060405180830381600087803b1580156156a857600080fd5b505af11580156156bc573d6000803e3d6000fd5b50505050505050565b600080600080600080600080603760009054906101000a900473ffffffffffffffffffffffffffffffffffffffff1673ffffffffffffffffffffffffffffffffffffffff1663bf92857c8a6040518263ffffffff1660e01b8152600401808273ffffffffffffffffffffffffffffffffffffffff1673ffffffffffffffffffffffffffffffffffffffff1681526020019150506101006040518083038186803b15801561577157600080fd5b505afa158015615785573d6000803e3d6000fd5b505050506040513d61010081101561579c57600080fd5b81019080805190602001909291908051906020019092919080519060200190929190805190602001909291908051906020019092919080519060200190929190805190602001909291908051906020019092919050505097509750975097509750975097509750919395975091939597565b6000615818618716565b9050600260009054906101000a900460ff1680615839575061583861871f565b5b80615845575060015481115b61589a576040517f08c379a000000000000000000000000000000000000000000000000000000000815260040180806020018281038252602e815260200180618ef3602e913960400191505060405180910390fd5b6000600260009054906101000a900460ff1615905080156158d8576001600260006101000a81548160ff021916908315150217905550816001819055505b82603560006101000a81548173ffffffffffffffffffffffffffffffffffffffff021916908373ffffffffffffffffffffffffffffffffffffffff160217905550603560009054906101000a900473ffffffffffffffffffffffffffffffffffffffff1673ffffffffffffffffffffffffffffffffffffffff1663ed6ff7606040518163ffffffff1660e01b815260040160206040518083038186803b15801561598157600080fd5b505afa158015615995573d6000803e3d6000fd5b505050506040513d60208110156159ab57600080fd5b8101908080519060200190929190505050603660006101000a81548173ffffffffffffffffffffffffffffffffffffffff021916908373ffffffffffffffffffffffffffffffffffffffff160217905550603560009054906101000a900473ffffffffffffffffffffffffffffffffffffffff1673ffffffffffffffffffffffffffffffffffffffff16632f58b80d6040518163ffffffff1660e01b815260040160206040518083038186803b158015615a6457600080fd5b505afa158015615a78573d6000803e3d6000fd5b505050506040513d6020811015615a8e57600080fd5b8101908080519060200190929190505050603760006101000a81548173ffffffffffffffffffffffffffffffffffffffff021916908373ffffffffffffffffffffffffffffffffffffffff160217905550603560009054906101000a900473ffffffffffffffffffffffffffffffffffffffff1673ffffffffffffffffffffffffffffffffffffffff166304061d8e6040518163ffffffff1660e01b815260040160206040518083038186803b158015615b4757600080fd5b505afa158015615b5b573d6000803e3d6000fd5b505050506040513d6020811015615b7157600080fd5b8101908080519060200190929190505050603860006101000a81548173ffffffffffffffffffffffffffffffffffffffff021916908373ffffffffffffffffffffffffffffffffffffffff160217905550603560009054906101000a900473ffffffffffffffffffffffffffffffffffffffff1673ffffffffffffffffffffffffffffffffffffffff1663fbeefc3c6040518163ffffffff1660e01b815260040160206040518083038186803b158015615c2a57600080fd5b505afa158015615c3e573d6000803e3d6000fd5b505050506040513d6020811015615c5457600080fd5b8101908080519060200190929190505050603960006101000a81548173ffffffffffffffffffffffffffffffffffffffff021916908373ffffffffffffffffffffffffffffffffffffffff1602179055508015615cc7576000600260006101000a81548160ff0219169083151502179055505b505050565b603560009054906101000a900473ffffffffffffffffffffffffffffffffffffffff1681565b6001600080828254019250508190555060008054905084615d1281617a8c565b85615d1c81617bbe565b85615d2681617cf1565b615d2e618aca565b603660009054906101000a900473ffffffffffffffffffffffffffffffffffffffff1673ffffffffffffffffffffffffffffffffffffffff16635cf2e6568a6040518263ffffffff1660e01b8152600401808273ffffffffffffffffffffffffffffffffffffffff1673ffffffffffffffffffffffffffffffffffffffff16815260200191505060206040518083038186803b158015615dcd57600080fd5b505afa158015615de1573d6000803e3d6000fd5b505050506040513d6020811015615df757600080fd5b8101908080519060200190929190505050615e5d576040517f08c379a0000000000000000000000000000000000000000000000000000000008152600401808060200182810382526024815260200180618c816024913960400191505060405180910390fd5b86600280811115615e6a57fe5b1480615e8157508660016002811115615e7f57fe5b145b615ed6576040517f08c379a0000000000000000000000000000000000000000000000000000000008152600401808060200182810382526023815260200180618bdf6023913960400191505060405180910390fd5b866002811115615ee257fe5b816101c001906002811115615ef357fe5b90816002811115615f0057fe5b81525050603660009054906101000a900473ffffffffffffffffffffffffffffffffffffffff1673ffffffffffffffffffffffffffffffffffffffff1663e24030198a6040518263ffffffff1660e01b8152600401808273ffffffffffffffffffffffffffffffffffffffff1673ffffffffffffffffffffffffffffffffffffffff16815260200191505060206040518083038186803b158015615fa357600080fd5b505afa158015615fb7573d6000803e3d6000fd5b505050506040513d6020811015615fcd57600080fd5b810190808051906020019092919050505081610160018181525050615ff788826101600151618730565b1561604d576040517f08c379a0000000000000000000000000000000000000000000000000000000008152600401808060200182810382526036815260200180618e8b6036913960400191505060405180910390fd5b603760009054906101000a900473ffffffffffffffffffffffffffffffffffffffff1673ffffffffffffffffffffffffffffffffffffffff16632c6d0e9b336040518263ffffffff1660e01b8152600401808273ffffffffffffffffffffffffffffffffffffffff1673ffffffffffffffffffffffffffffffffffffffff1681526020019150506101006040518083038186803b1580156160ed57600080fd5b505afa158015616101573d6000803e3d6000fd5b505050506040513d61010081101561611857600080fd5b810190808051906020019092919080519060200190929190805190602001909291908051906020019092919080519060200190929190805190602001909291908051906020019092919080519060200190929190505050909192939495965090508660c0018760e0018861010001896020018a6040018b6101e0018615151515815250868152508681525086815250868152508681525050505050505060008160c001511161622f576040517f08c379a000000000000000000000000000000000000000000000000000000000815260040180806020018281038252601b8152602001807f54686520636f6c6c61746572616c2062616c616e63652069732030000000000081525060200191505060405180910390fd5b806101e001511561628b576040517f08c379a000000000000000000000000000000000000000000000000000000000815260040180806020018281038252603f815260200180618b6f603f913960400191505060405180910390fd5b603960009054906101000a900473ffffffffffffffffffffffffffffffffffffffff1673ffffffffffffffffffffffffffffffffffffffff1663249bbe91896040518263ffffffff1660e01b81526004018082815260200191505060206040518083038186803b1580156162fe57600080fd5b505afa158015616312573d6000803e3d6000fd5b505050506040513d602081101561632857600080fd5b8101908080519060200190929190505050816060018181525050600081606001511161639f576040517f08c379a0000000000000000000000000000000000000000000000000000000008152600401808060200182810382526021815260200180618c026021913960400191505060405180910390fd5b603760009054906101000a900473ffffffffffffffffffffffffffffffffffffffff1673ffffffffffffffffffffffffffffffffffffffff1663dd335c968a8a84606001518560e0015186610100015187602001516040518763ffffffff1660e01b8152600401808773ffffffffffffffffffffffffffffffffffffffff1673ffffffffffffffffffffffffffffffffffffffff168152602001868152602001858152602001848152602001838152602001828152602001965050505050505060206040518083038186803b15801561647757600080fd5b505afa15801561648b573d6000803e3d6000fd5b505050506040513d60208110156164a157600080fd5b81019080805190602001909291905050508160a00181815250508060c001518160a00151111561651c576040517f08c379a0000000000000000000000000000000000000000000000000000000008152600401808060200182810382526034815260200180618e366034913960400191505060405180910390fd5b6001600281111561652957fe5b816101c00151600281111561653a57fe5b14156167dd57603660009054906101000a900473ffffffffffffffffffffffffffffffffffffffff1673ffffffffffffffffffffffffffffffffffffffff1663e2174d868a338b6040518463ffffffff1660e01b8152600401808473ffffffffffffffffffffffffffffffffffffffff1673ffffffffffffffffffffffffffffffffffffffff1681526020018373ffffffffffffffffffffffffffffffffffffffff1673ffffffffffffffffffffffffffffffffffffffff168152602001828152602001935050505060206040518083038186803b15801561661b57600080fd5b505afa15801561662f573d6000803e3d6000fd5b505050506040513d602081101561664557600080fd5b81019080805190602001909291905050506166ab576040517f08c379a0000000000000000000000000000000000000000000000000000000008152600401808060200182810382526039815260200180618f216039913960400191505060405180910390fd5b6000603860009054906101000a900473ffffffffffffffffffffffffffffffffffffffff1673ffffffffffffffffffffffffffffffffffffffff1663d6b725ac6040518163ffffffff1660e01b815260040160206040518083038186803b15801561671557600080fd5b505afa158015616729573d6000803e3d6000fd5b505050506040513d602081101561673f57600080fd5b81019080805190602001909291905050509050600061677f60646167718486610160015161875790919063ffffffff16565b6187dd90919063ffffffff16565b9050808a11156167da576040517f08c379a000000000000000000000000000000000000000000000000000000000815260040180806020018281038252603c815260200180618f84603c913960400191505060405180910390fd5b50505b603660009054906101000a900473ffffffffffffffffffffffffffffffffffffffff1673ffffffffffffffffffffffffffffffffffffffff166337ac6fe48a338b8560600151866101c001516040518663ffffffff1660e01b8152600401808673ffffffffffffffffffffffffffffffffffffffff1673ffffffffffffffffffffffffffffffffffffffff1681526020018573ffffffffffffffffffffffffffffffffffffffff1673ffffffffffffffffffffffffffffffffffffffff1681526020018481526020018381526020018260028111156168b857fe5b60ff168152602001955050505050506040805180830381600087803b1580156168e057600080fd5b505af11580156168f4573d6000803e3d6000fd5b505050506040513d604081101561690a57600080fd5b810190808051906020019092919080519060200190929190505050826101a001836101200182815250828152505050603660009054906101000a900473ffffffffffffffffffffffffffffffffffffffff1673ffffffffffffffffffffffffffffffffffffffff1663fa93b2a58a338b6040518463ffffffff1660e01b8152600401808473ffffffffffffffffffffffffffffffffffffffff1673ffffffffffffffffffffffffffffffffffffffff1681526020018373ffffffffffffffffffffffffffffffffffffffff1673ffffffffffffffffffffffffffffffffffffffff1681526020018281526020019350505050600060405180830381600087803b158015616a1657600080fd5b505af1158015616a2a573d6000803e3d6000fd5b505050508561ffff163373ffffffffffffffffffffffffffffffffffffffff168a73ffffffffffffffffffffffffffffffffffffffff167f1e77446728e5558aa1b7e81e0cdab9cc1b075ba893b740600c76a315c2caa5538b8b866101a0015187606001518861012001514260405180878152602001868152602001858152602001848152602001838152602001828152602001965050505050505060405180910390a4505050506000548114616b49576040517f08c379a000000000000000000000000000000000000000000000000000000000815260040180806020018281038252601f8152602001807f5265656e7472616e637947756172643a207265656e7472616e742063616c6c0081525060200191505060405180910390fd5b5050505050565b6001600080828254019250508190555060008054905082616b7081617a8c565b600080603660009054906101000a900473ffffffffffffffffffffffffffffffffffffffff1673ffffffffffffffffffffffffffffffffffffffff16639fb8afcd87876040518363ffffffff1660e01b8152600401808373ffffffffffffffffffffffffffffffffffffffff1673ffffffffffffffffffffffffffffffffffffffff1681526020018273ffffffffffffffffffffffffffffffffffffffff1673ffffffffffffffffffffffffffffffffffffffff1681526020019250505060606040518083038186803b158015616c4657600080fd5b505afa158015616c5a573d6000803e3d6000fd5b505050506040513d6060811015616c7057600080fd5b81019080805190602001909291908051906020019092919080519060200190929190505050925092505060008211616cf3576040517f08c379a000000000000000000000000000000000000000000000000000000000815260040180806020018281038252602e815260200180618c23602e913960400191505060405180910390fd5b60016002811115616d0057fe5b603660009054906101000a900473ffffffffffffffffffffffffffffffffffffffff1673ffffffffffffffffffffffffffffffffffffffff16631ca19f1988886040518363ffffffff1660e01b8152600401808373ffffffffffffffffffffffffffffffffffffffff1673ffffffffffffffffffffffffffffffffffffffff1681526020018273ffffffffffffffffffffffffffffffffffffffff1673ffffffffffffffffffffffffffffffffffffffff1681526020019250505060206040518083038186803b158015616dd357600080fd5b505afa158015616de7573d6000803e3d6000fd5b505050506040513d6020811015616dfd57600080fd5b81019080805190602001909291905050506002811115616e1957fe5b14616e6f576040517f08c379a0000000000000000000000000000000000000000000000000000000008152600401808060200182810382526034815260200180618d216034913960400191505060405180910390fd5b6000603660009054906101000a900473ffffffffffffffffffffffffffffffffffffffff1673ffffffffffffffffffffffffffffffffffffffff16636fffab0c88886040518363ffffffff1660e01b8152600401808373ffffffffffffffffffffffffffffffffffffffff1673ffffffffffffffffffffffffffffffffffffffff1681526020018273ffffffffffffffffffffffffffffffffffffffff1673ffffffffffffffffffffffffffffffffffffffff1681526020019250505060206040518083038186803b158015616f4457600080fd5b505afa158015616f58573d6000803e3d6000fd5b505050506040513d6020811015616f6e57600080fd5b810190808051906020019092919050505090506000603660009054906101000a900473ffffffffffffffffffffffffffffffffffffffff1673ffffffffffffffffffffffffffffffffffffffff1663c540148e896040518263ffffffff1660e01b8152600401808273ffffffffffffffffffffffffffffffffffffffff1673ffffffffffffffffffffffffffffffffffffffff16815260200191505060206040518083038186803b15801561702257600080fd5b505afa158015617036573d6000803e3d6000fd5b505050506040513d602081101561704c57600080fd5b810190808051906020019092919050505090506000603660009054906101000a900473ffffffffffffffffffffffffffffffffffffffff1673ffffffffffffffffffffffffffffffffffffffff166388079d888a6040518263ffffffff1660e01b8152600401808273ffffffffffffffffffffffffffffffffffffffff1673ffffffffffffffffffffffffffffffffffffffff16815260200191505060206040518083038186803b15801561710057600080fd5b505afa158015617114573d6000803e3d6000fd5b505050506040513d602081101561712a57600080fd5b81019080805190602001909291905050509050600061720d6171fe603860009054906101000a900473ffffffffffffffffffffffffffffffffffffffff1673ffffffffffffffffffffffffffffffffffffffff166346f4f8d16040518163ffffffff1660e01b815260040160206040518083038186803b1580156171ad57600080fd5b505afa1580156171c1573d6000803e3d6000fd5b505050506040513d60208110156171d757600080fd5b81019080805190602001909291905050506171f0618827565b617d8690919063ffffffff16565b8361883b90919063ffffffff16565b90508284108061721c57508084115b156173be576000603660009054906101000a900473ffffffffffffffffffffffffffffffffffffffff1673ffffffffffffffffffffffffffffffffffffffff1663af825b078c8c896040518463ffffffff1660e01b8152600401808473ffffffffffffffffffffffffffffffffffffffff1673ffffffffffffffffffffffffffffffffffffffff1681526020018373ffffffffffffffffffffffffffffffffffffffff1673ffffffffffffffffffffffffffffffffffffffff1681526020018281526020019350505050602060405180830381600087803b15801561730057600080fd5b505af1158015617314573d6000803e3d6000fd5b505050506040513d602081101561732a57600080fd5b810190808051906020019092919050505090508973ffffffffffffffffffffffffffffffffffffffff168b73ffffffffffffffffffffffffffffffffffffffff167f5050ad184862424ee0852d1838d355ad65bed1e5e6da67ac9a2dac1922677f6083894260405180848152602001838152602001828152602001935050505060405180910390a35050505050505061740f565b6040517f08c379a000000000000000000000000000000000000000000000000000000000815260040180806020018281038252602f815260200180618d9e602f913960400191505060405180910390fd5b506000548114617487576040517f08c379a000000000000000000000000000000000000000000000000000000000815260040180806020018281038252601f8152602001807f5265656e7472616e637947756172643a207265656e7472616e742063616c6c0081525060200191505060405180910390fd5b505050565b7fffffffffffffffffffffffffffffffffffffffffffffffffffffffffffffffff81565b60016000808282540192505081905550600080549050836174d081617a8c565b846174da81617bbe565b846174e481617cf1565b6000603660009054906101000a900473ffffffffffffffffffffffffffffffffffffffff1673ffffffffffffffffffffffffffffffffffffffff166318a4dbca89336040518363ffffffff1660e01b8152600401808373ffffffffffffffffffffffffffffffffffffffff1673ffffffffffffffffffffffffffffffffffffffff1681526020018273ffffffffffffffffffffffffffffffffffffffff1673ffffffffffffffffffffffffffffffffffffffff1681526020019250505060206040518083038186803b1580156175b957600080fd5b505afa1580156175cd573d6000803e3d6000fd5b505050506040513d60208110156175e357600080fd5b8101908080519060200190929190505050905060008082149050603660009054906101000a900473ffffffffffffffffffffffffffffffffffffffff1673ffffffffffffffffffffffffffffffffffffffff1663bcd6ffa48a338b856040518563ffffffff1660e01b8152600401808573ffffffffffffffffffffffffffffffffffffffff1673ffffffffffffffffffffffffffffffffffffffff1681526020018473ffffffffffffffffffffffffffffffffffffffff1673ffffffffffffffffffffffffffffffffffffffff16815260200183815260200182151515158152602001945050505050600060405180830381600087803b1580156176e657600080fd5b505af11580156176fa573d6000803e3d6000fd5b505050506000603660009054906101000a900473ffffffffffffffffffffffffffffffffffffffff1673ffffffffffffffffffffffffffffffffffffffff16635c90bc858b6040518263ffffffff1660e01b8152600401808273ffffffffffffffffffffffffffffffffffffffff1673ffffffffffffffffffffffffffffffffffffffff16815260200191505060206040518083038186803b15801561779f57600080fd5b505afa1580156177b3573d6000803e3d6000fd5b505050506040513d60208110156177c957600080fd5b810190808051906020019092919050505090508073ffffffffffffffffffffffffffffffffffffffff166394362e8b338b6040518363ffffffff1660e01b8152600401808373ffffffffffffffffffffffffffffffffffffffff1673ffffffffffffffffffffffffffffffffffffffff16815260200182815260200192505050600060405180830381600087803b15801561786357600080fd5b505af1158015617877573d6000803e3d6000fd5b50505050603660009054906101000a900473ffffffffffffffffffffffffffffffffffffffff1673ffffffffffffffffffffffffffffffffffffffff166328fcf4d3348c338d6040518563ffffffff1660e01b8152600401808473ffffffffffffffffffffffffffffffffffffffff1673ffffffffffffffffffffffffffffffffffffffff1681526020018373ffffffffffffffffffffffffffffffffffffffff1673ffffffffffffffffffffffffffffffffffffffff16815260200182815260200193505050506000604051808303818588803b15801561795857600080fd5b505af115801561796c573d6000803e3d6000fd5b50505050508761ffff163373ffffffffffffffffffffffffffffffffffffffff168b73ffffffffffffffffffffffffffffffffffffffff167fc12c57b1c73a2c3a2ea4613e9476abb3d8d146857aab7329e24243fb59710c828c42604051808381526020018281526020019250505060405180910390a45050505050506000548114617a60576040517f08c379a000000000000000000000000000000000000000000000000000000000815260040180806020018281038252601f8152602001807f5265656e7472616e637947756172643a207265656e7472616e742063616c6c0081525060200191505060405180910390fd5b50505050565b603660009054906101000a900473ffffffffffffffffffffffffffffffffffffffff1681565b603660009054906101000a900473ffffffffffffffffffffffffffffffffffffffff1673ffffffffffffffffffffffffffffffffffffffff166305075d6e826040518263ffffffff1660e01b8152600401808273ffffffffffffffffffffffffffffffffffffffff1673ffffffffffffffffffffffffffffffffffffffff16815260200191505060206040518083038186803b158015617b2b57600080fd5b505afa158015617b3f573d6000803e3d6000fd5b505050506040513d6020811015617b5557600080fd5b8101908080519060200190929190505050617bbb576040517f08c379a0000000000000000000000000000000000000000000000000000000008152600401808060200182810382526021815260200180618d7d6021913960400191505060405180910390fd5b50565b603660009054906101000a900473ffffffffffffffffffffffffffffffffffffffff1673ffffffffffffffffffffffffffffffffffffffff16634a08accb826040518263ffffffff1660e01b8152600401808273ffffffffffffffffffffffffffffffffffffffff1673ffffffffffffffffffffffffffffffffffffffff16815260200191505060206040518083038186803b158015617c5d57600080fd5b505afa158015617c71573d6000803e3d6000fd5b505050506040513d6020811015617c8757600080fd5b810190808051906020019092919050505015617cee576040517f08c379a000000000000000000000000000000000000000000000000000000000815260040180806020018281038252602481526020018061905d6024913960400191505060405180910390fd5b50565b60008111617d67576040517f08c379a000000000000000000000000000000000000000000000000000000000815260040180806020018281038252601d8152602001807f416d6f756e74206d7573742062652067726561746572207468616e203000000081525060200191505060405180910390fd5b50565b600073eeeeeeeeeeeeeeeeeeeeeeeeeeeeeeeeeeeeeeee905090565b600080828401905083811015617e04576040517f08c379a000000000000000000000000000000000000000000000000000000000815260040180806020018281038252601b8152602001807f536166654d6174683a206164646974696f6e206f766572666c6f77000000000081525060200191505060405180910390fd5b8091505092915050565b617e16618b54565b603960009054906101000a900473ffffffffffffffffffffffffffffffffffffffff1673ffffffffffffffffffffffffffffffffffffffff1663d3ea4350836040518263ffffffff1660e01b81526004018082815260200191505060606040518083038186803b158015617e8957600080fd5b505afa158015617e9d573d6000803e3d6000fd5b505050506040513d6060811015617eb357600080fd5b81019080805190602001909291908051906020019092919080519060200190929190505050508260000183602001828152508281525050506000603660009054906101000a900473ffffffffffffffffffffffffffffffffffffffff1673ffffffffffffffffffffffffffffffffffffffff166369cb88fd856040518263ffffffff1660e01b8152600401808273ffffffffffffffffffffffffffffffffffffffff1673ffffffffffffffffffffffffffffffffffffffff16815260200191505060206040518083038186803b158015617f8c57600080fd5b505afa158015617fa0573d6000803e3d6000fd5b505050506040513d6020811015617fb657600080fd5b81019080805190602001909291905050509050603a60009054906101000a900473ffffffffffffffffffffffffffffffffffffffff1673ffffffffffffffffffffffffffffffffffffffff166333f93b428584600001518486602001516040518563ffffffff1660e01b8152600401808573ffffffffffffffffffffffffffffffffffffffff1673ffffffffffffffffffffffffffffffffffffffff168152602001848152602001838152602001828152602001945050505050600060405180830381600087803b15801561808a57600080fd5b505af115801561809e573d6000803e3d6000fd5b5050505050505050565b60006180ea83836040518060400160405280601e81526020017f536166654d6174683a207375627472616374696f6e206f766572666c6f77000081525061889e565b905092915050565b6000618145670de0b6b3a7640000618137618116858761875790919063ffffffff16565b6002670de0b6b3a76400008161812857fe5b04617d8690919063ffffffff16565b6187dd90919063ffffffff16565b905092915050565b600080600281111561815b57fe5b82600281111561816757fe5b1461824b57603660009054906101000a900473ffffffffffffffffffffffffffffffffffffffff1673ffffffffffffffffffffffffffffffffffffffff16639659227d336040518263ffffffff1660e01b8152600401808273ffffffffffffffffffffffffffffffffffffffff1673ffffffffffffffffffffffffffffffffffffffff16815260200191505060206040518083038186803b15801561820b57600080fd5b505afa15801561821f573d6000803e3d6000fd5b505050506040513d602081101561823557600080fd5b810190808051906020019092919050505061835a565b603660009054906101000a900473ffffffffffffffffffffffffffffffffffffffff1673ffffffffffffffffffffffffffffffffffffffff1663cda0af9684336040518363ffffffff1660e01b8152600401808373ffffffffffffffffffffffffffffffffffffffff1673ffffffffffffffffffffffffffffffffffffffff1681526020018273ffffffffffffffffffffffffffffffffffffffff1673ffffffffffffffffffffffffffffffffffffffff1681526020019250505060206040518083038186803b15801561831e57600080fd5b505afa158015618332573d6000803e3d6000fd5b505050506040513d602081101561834857600080fd5b81019080805190602001909291905050505b90506000603a60009054906101000a900473ffffffffffffffffffffffffffffffffffffffff1673ffffffffffffffffffffffffffffffffffffffff16632ae61099853386866040518563ffffffff1660e01b8152600401808573ffffffffffffffffffffffffffffffffffffffff1673ffffffffffffffffffffffffffffffffffffffff1681526020018473ffffffffffffffffffffffffffffffffffffffff1673ffffffffffffffffffffffffffffffffffffffff16815260200183600281111561842357fe5b60ff16815260200182815260200194505050505060206040518083038186803b15801561844f57600080fd5b505afa158015618463573d6000803e3d6000fd5b505050506040513d602081101561847957600080fd5b810190808051906020019092919050505090506000811461871057603a60009054906101000a900473ffffffffffffffffffffffffffffffffffffffff1673ffffffffffffffffffffffffffffffffffffffff1663b6638fbb8533866040518463ffffffff1660e01b8152600401808473ffffffffffffffffffffffffffffffffffffffff1673ffffffffffffffffffffffffffffffffffffffff1681526020018373ffffffffffffffffffffffffffffffffffffffff1673ffffffffffffffffffffffffffffffffffffffff16815260200182600281111561855857fe5b60ff1681526020019350505050600060405180830381600087803b15801561857f57600080fd5b505af1158015618593573d6000803e3d6000fd5b50505050603a60009054906101000a900473ffffffffffffffffffffffffffffffffffffffff1673ffffffffffffffffffffffffffffffffffffffff1663cf2305cd848633856040518563ffffffff1660e01b8152600401808560028111156185f857fe5b60ff1681526020018473ffffffffffffffffffffffffffffffffffffffff1673ffffffffffffffffffffffffffffffffffffffff1681526020018373ffffffffffffffffffffffffffffffffffffffff1673ffffffffffffffffffffffffffffffffffffffff168152602001828152602001945050505050600060405180830381600087803b15801561868a57600080fd5b505af115801561869e573d6000803e3d6000fd5b505050503373ffffffffffffffffffffffffffffffffffffffff168473ffffffffffffffffffffffffffffffffffffffff167ffe7c5fc89da23a432c91f264decb100ab9d08ab7b14650c3cdb9b6b4f84a60e98342604051808381526020018281526020019250505060405180910390a35b50505050565b60006001905090565b600080303b90506000811491505090565b6000670dbd2fc137a3000061874e838561895e90919063ffffffff16565b11905092915050565b60008083141561876a57600090506187d7565b600082840290508284828161877b57fe5b04146187d2576040517f08c379a0000000000000000000000000000000000000000000000000000000008152600401808060200182810382526021815260200180618e6a6021913960400191505060405180910390fd5b809150505b92915050565b600061881f83836040518060400160405280601a81526020017f536166654d6174683a206469766973696f6e206279207a65726f0000000000008152506189b6565b905092915050565b60006b033b2e3c9fd0803ce8000000905090565b60006188966b033b2e3c9fd0803ce8000000618888618863858761875790919063ffffffff16565b60026b033b2e3c9fd0803ce80000008161887957fe5b04617d8690919063ffffffff16565b6187dd90919063ffffffff16565b905092915050565b600083831115829061894b576040517f08c379a00000000000000000000000000000000000000000000000000000000081526004018080602001828103825283818151815260200191508051906020019080838360005b838110156189105780820151818401526020810190506188f5565b50505050905090810190601f16801561893d5780820380516001836020036101000a031916815260200191505b509250505060405180910390fd5b5060008385039050809150509392505050565b6000806002838161896b57fe5b0490506189ad8361899f618990670de0b6b3a76400008861875790919063ffffffff16565b84617d8690919063ffffffff16565b6187dd90919063ffffffff16565b91505092915050565b60008083118290618a62576040517f08c379a00000000000000000000000000000000000000000000000000000000081526004018080602001828103825283818151815260200191508051906020019080838360005b83811015618a27578082015181840152602081019050618a0c565b50505050905090810190601f168015618a545780820380516001836020036101000a031916815260200191505b509250505060405180910390fd5b506000838581618a6e57fe5b049050809150509392505050565b60405180610120016040528060008152602001600081526020016000815260200160001515815260200160008152602001600081526020016000815260200160008152602001600081525090565b604051806102000160405280600081526020016000815260200160008152602001600081526020016000815260200160008152602001600081526020016000815260200160008152602001600081526020016000815260200160008152602001600081526020016000815260200160006002811115618b4557fe5b81526020016000151581525090565b60405180604001604052806000815260200160008152509056fe54686520626f72726f7765722063616e20616c7265616479206265206c69717569646174656420736f2068652063616e6e6f7420626f72726f77206d6f72655468657265206973206e6f7420656e6f756768206c697175696469747920617661696c61626c6520746f20626f72726f77496e76616c696420696e7465726573742072617465206d6f64652073656c656374656454686520616d6f756e7420746f20626f72726f7720697320746f6f20736d616c6c5573657220646f6573206e6f74206861766520616e7920626f72726f7720666f722074686973207265736572766555736572206465706f73697420697320616c7265616479206265696e67207573656420617320636f6c6c61746572616c52657365727665206973206e6f7420656e61626c656420666f7220626f72726f77696e675468652063616c6c6572206f6620746869732066756e6374696f6e2063616e206f6e6c7920626520746865206d546f6b656e20636f6e7472616374206f66207468697320726573657276655468657265206973206e6f7420656e6f756768206c697175696469747920617661696c61626c6520746f2072656465656d546865207573657220626f72726f77206973207661726961626c6520616e642063616e6e6f7420626520726562616c616e636564496e76616c6964206d73672e76616c75652073656e7420666f72207468652072657061796d656e74416374696f6e20726571756972657320616e206163746976652072657365727665496e746572657374207261746520726562616c616e636520636f6e646974696f6e732077657265206e6f74206d65745468652061637475616c2062616c616e6365206f66207468652070726f746f636f6c20697320696e636f6e73697374656e745573657220646f6573206e6f742068617665206120626f72726f7720696e2070726f6772657373206f6e207468697320726573657276655468657265206973206e6f7420656e6f75676820636f6c6c61746572616c20746f20636f7665722061206e657720626f72726f77536166654d6174683a206d756c7469706c69636174696f6e206f766572666c6f775468657265206973206e6f7420656e6f756768206c697175696469747920617661696c61626c6520696e2074686520726573657276655468652072657175657374656420616d6f756e7420697320746f6f20736d616c6c20666f72206120666c6173684c6f616e2e436f6e747261637420696e7374616e63652068617320616c7265616479206265656e20696e697469616c697a6564557365722063616e6e6f7420626f72726f77207468652073656c656374656420616d6f756e742077697468206120737461626c6520726174655573657220646f6573206e6f74206861766520616e79206c6971756964697479206465706f73697465645573657220697320747279696e6720746f20626f72726f7720746f6f206d756368206c6971756964697479206174206120737461626c652072617465546865207573657220646f6573206e6f74206861766520616e7920626f72726f772070656e64696e67557365722063616e6e6f7420626f72726f77207468652073656c656374656420616d6f756e7420617420737461626c65546f207265706179206f6e20626568616c66206f6620616e207573657220616e206578706c6963697420616d6f756e7420746f207265706179206973206e65656465642e416374696f6e20726571756972657320616e20756e667265657a65642072657365727665a265627a7a7231582059b73ffa0315ce99b480beda8066e4760b897a5aced6430a74a877391995e34764736f6c63430005100032",
  "source": "pragma solidity ^0.5.0;\n\nimport \"openzeppelin-solidity/contracts/math/SafeMath.sol\";\nimport \"openzeppelin-solidity/contracts/utils/ReentrancyGuard.sol\";\nimport \"openzeppelin-solidity/contracts/utils/Address.sol\";\nimport \"openzeppelin-solidity/contracts/token/ERC20/IERC20.sol\";\nimport \"../libraries/openzeppelin-upgradeability/VersionedInitializable.sol\";\n\nimport \"../configuration/LendingPoolAddressesProvider.sol\";\nimport \"../configuration/LendingPoolParametersProvider.sol\";\nimport \"../tokenization/MToken.sol\";\nimport \"../libraries/CoreLibrary.sol\";\nimport \"../libraries/WadRayMath.sol\";\nimport \"../interfaces/IFeeProvider.sol\";\nimport \"../rewards/RewardsManager.sol\";\nimport \"../flashloan/interfaces/IFlashLoanReceiver.sol\";\nimport \"./LendingPoolCore.sol\";\nimport \"./LendingPoolDataProvider.sol\";\nimport \"./LendingPoolLiquidationManager.sol\";\nimport \"../libraries/BscAddressLib.sol\";\n\n/**\n * @title LendingPool contract\n * @notice Implements the actions of the LendingPool, and exposes accessory\n * methods to fetch the users and reserve data\n * @author Multiplier Finance\n **/\n\ncontract LendingPool is ReentrancyGuard, VersionedInitializable {\n    using SafeMath for uint256;\n    using WadRayMath for uint256;\n    using Address for address;\n\n    LendingPoolAddressesProvider public addressesProvider;\n    LendingPoolCore public core;\n    LendingPoolDataProvider public dataProvider;\n    LendingPoolParametersProvider public parametersProvider;\n    IFeeProvider public feeProvider;\n    RewardsManager public rewardsMgr;\n\n    /**\n     * @dev emitted on deposit\n     * @param _reserve the address of the reserve\n     * @param _user the address of the user\n     * @param _amount the amount to be deposited\n     * @param _referral the referral number of the action\n     * @param _timestamp the timestamp of the action\n     **/\n    event Deposit(\n        address indexed _reserve,\n        address indexed _user,\n        uint256 _amount,\n        uint16 indexed _referral,\n        uint256 _timestamp\n    );\n\n    /**\n     * @dev emitted during a redeem action.\n     * @param _reserve the address of the reserve\n     * @param _user the address of the user\n     * @param _amount the amount to be deposited\n     * @param _timestamp the timestamp of the action\n     **/\n    event RedeemUnderlying(\n        address indexed _reserve,\n        address indexed _user,\n        uint256 _amount,\n        uint256 _timestamp\n    );\n\n    /**\n     * @dev emitted on borrow\n     * @param _reserve the address of the reserve\n     * @param _user the address of the user\n     * @param _amount the amount to be deposited\n     * @param _borrowRateMode the rate mode, can be either 1-stable or 2-variable\n     * @param _borrowRate the rate at which the user has borrowed\n     * @param _originationFee the origination fee to be paid by the user\n     * @param _borrowBalanceIncrease the balance increase since the last borrow,\n     * 0 if it's the first time borrowing\n     * @param _referral the referral number of the action\n     * @param _timestamp the timestamp of the action\n     **/\n    event Borrow(\n        address indexed _reserve,\n        address indexed _user,\n        uint256 _amount,\n        uint256 _borrowRateMode,\n        uint256 _borrowRate,\n        uint256 _originationFee,\n        uint256 _borrowBalanceIncrease,\n        uint16 indexed _referral,\n        uint256 _timestamp\n    );\n\n    /**\n     * @dev emitted on repay\n     * @param _reserve the address of the reserve\n     * @param _user the address of the user for which the repay has been executed\n     * @param _repayer the address of the user that has performed the repay\n     * action\n     * @param _amountMinusFees the amount repaid minus fees\n     * @param _fees the fees repaid\n     * @param _borrowBalanceIncrease the balance increase since the last action\n     * @param _timestamp the timestamp of the action\n     **/\n    event Repay(\n        address indexed _reserve,\n        address indexed _user,\n        address indexed _repayer,\n        uint256 _amountMinusFees,\n        uint256 _fees,\n        uint256 _borrowBalanceIncrease,\n        uint256 _timestamp\n    );\n\n    /**\n     * @dev emitted when a user performs a rate swap\n     * @param _reserve the address of the reserve\n     * @param _user the address of the user executing the swap\n     * @param _newRateMode the new interest rate mode\n     * @param _newRate the new borrow rate\n     * @param _borrowBalanceIncrease the balance increase since the last action\n     * @param _timestamp the timestamp of the action\n     **/\n    event Swap(\n        address indexed _reserve,\n        address indexed _user,\n        uint256 _newRateMode,\n        uint256 _newRate,\n        uint256 _borrowBalanceIncrease,\n        uint256 _timestamp\n    );\n\n    /**\n     * @dev emitted when a user enables a reserve as collateral\n     * @param _reserve the address of the reserve\n     * @param _user the address of the user\n     **/\n    event ReserveUsedAsCollateralEnabled(\n        address indexed _reserve,\n        address indexed _user\n    );\n\n    /**\n     * @dev emitted when a user disables a reserve as collateral\n     * @param _reserve the address of the reserve\n     * @param _user the address of the user\n     **/\n    event ReserveUsedAsCollateralDisabled(\n        address indexed _reserve,\n        address indexed _user\n    );\n\n    /**\n     * @dev emitted when the stable rate of a user gets rebalanced\n     * @param _reserve the address of the reserve\n     * @param _user the address of the user for which the rebalance has been\n     * executed\n     * @param _newStableRate the new stable borrow rate after the rebalance\n     * @param _borrowBalanceIncrease the balance increase since the last action\n     * @param _timestamp the timestamp of the action\n     **/\n    event RebalanceStableBorrowRate(\n        address indexed _reserve,\n        address indexed _user,\n        uint256 _newStableRate,\n        uint256 _borrowBalanceIncrease,\n        uint256 _timestamp\n    );\n\n    /**\n     * @dev emitted when a flashloan is executed\n     * @param _target the address of the flashLoanReceiver\n     * @param _reserve the address of the reserve\n     * @param _amount the amount requested\n     * @param _timestamp the timestamp of the action\n     **/\n    event FlashLoan(\n        address indexed _target,\n        address indexed _reserve,\n        uint256 _amount,\n        uint256 _timestamp\n    );\n\n    /**\n     * @dev these events are not emitted directly by the LendingPool\n     * but they are declared here as the LendingPoolLiquidationManager\n     * is executed using a delegateCall().\n     * This allows to have the events in the generated ABI for LendingPool.\n     **/\n\n    /**\n     * @dev emitted when a borrow fee is liquidated\n     * @param _collateral the address of the collateral being liquidated\n     * @param _reserve the address of the reserve\n     * @param _user the address of the user being liquidated\n     * @param _feeLiquidated the total fee liquidated\n     * @param _liquidatedCollateralForFee the amount of collateral received by\n     * the protocol in exchange for the fee\n     * @param _timestamp the timestamp of the action\n     **/\n    event OriginationFeeLiquidated(\n        address indexed _collateral,\n        address indexed _reserve,\n        address indexed _user,\n        uint256 _feeLiquidated,\n        uint256 _liquidatedCollateralForFee,\n        uint256 _timestamp\n    );\n\n    /**\n     * @dev emitted when a borrower is liquidated\n     * @param _collateral the address of the collateral being liquidated\n     * @param _reserve the address of the reserve\n     * @param _user the address of the user being liquidated\n     * @param _purchaseAmount the total amount liquidated\n     * @param _liquidatedCollateralAmount the amount of collateral being\n     * liquidated\n     * @param _accruedBorrowInterest the amount of interest accrued by the\n     * borrower since the last action\n     * @param _liquidator the address of the liquidator\n     * @param _receiveMToken true if the liquidator wants to receive\n     * mTokens, false otherwise\n     * @param _timestamp the timestamp of the action\n     **/\n    event LiquidationCall(\n        address indexed _collateral,\n        address indexed _reserve,\n        address indexed _user,\n        uint256 _purchaseAmount,\n        uint256 _liquidatedCollateralAmount,\n        uint256 _accruedBorrowInterest,\n        address _liquidator,\n        bool _receiveMToken,\n        uint256 _timestamp\n    );\n\n    /**\n     * @dev emitted when user claim reward.\n     * @param _reserve the address of the reserve\n     * @param _user the address of the user for which the reward was claimed to\n     * @param _amount the amount of reward\n     * @param _timestamp the timestamp of the action\n     **/\n    event ClaimReward(\n        address indexed _reserve,\n        address indexed _user,\n        uint256 _amount,\n        uint256 _timestamp\n    );\n\n    /**\n     * @dev functions affected by this modifier can only be invoked by the\n     * mToken.sol contract\n     * @param _reserve the address of the reserve\n     **/\n    modifier onlyOverlyingmToken(address _reserve) {\n        require(\n            msg.sender == core.getReservemTokenAddress(_reserve),\n            \"The caller of this function can only be the mToken contract of this reserve\"\n        );\n        _;\n    }\n\n    /**\n     * @dev functions affected by this modifier can only be invoked if the\n     * reserve is active\n     * @param _reserve the address of the reserve\n     **/\n    modifier onlyActiveReserve(address _reserve) {\n        requireReserveActiveInternal(_reserve);\n        _;\n    }\n\n    /**\n     * @dev functions affected by this modifier can only be invoked if the\n     * reserve is not freezed.\n     * A freezed reserve only allows redeems, repays, rebalances and\n     * liquidations.\n     * @param _reserve the address of the reserve\n     **/\n    modifier onlyUnfreezedReserve(address _reserve) {\n        requireReserveNotFreezedInternal(_reserve);\n        _;\n    }\n\n    /**\n     * @dev functions affected by this modifier can only be invoked if the\n     * provided _amount input parameter\n     * is not zero.\n     * @param _amount the amount provided\n     **/\n    modifier onlyAmountGreaterThanZero(uint256 _amount) {\n        requireAmountGreaterThanZeroInternal(_amount);\n        _;\n    }\n\n    uint256 public constant UINT_MAX_VALUE = uint256(-1);\n\n    uint256 public constant LENDINGPOOL_REVISION = 0x1;\n\n    function getRevision() internal pure returns (uint256) {\n        return LENDINGPOOL_REVISION;\n    }\n\n    /**\n     * @dev this function is invoked by the proxy contract when the LendingPool\n     * contract is added to the\n     * AddressesProvider.\n     * @param _addressesProvider the address of the LendingPoolAddressesProvider\n     * registry\n     **/\n    function initialize(LendingPoolAddressesProvider _addressesProvider)\n        public\n        initializer\n    {\n        addressesProvider = _addressesProvider;\n        core = LendingPoolCore(addressesProvider.getLendingPoolCore());\n        dataProvider = LendingPoolDataProvider(\n            addressesProvider.getLendingPoolDataProvider()\n        );\n        parametersProvider = LendingPoolParametersProvider(\n            addressesProvider.getLendingPoolParametersProvider()\n        );\n        feeProvider = IFeeProvider(addressesProvider.getFeeProvider());\n    }\n\n    /**\n     * @dev deposits The underlying asset into the reserve. A corresponding\n     * amount of the overlying asset (mTokens)\n     * is minted.\n     * @param _reserve the address of the reserve\n     * @param _amount the amount to be deposited\n     * @param _referralCode integrators are assigned a referral code and can\n     * potentially receive rewards.\n     **/\n    function deposit(\n        address _reserve,\n        uint256 _amount,\n        uint16 _referralCode\n    )\n        external\n        payable\n        nonReentrant\n        onlyActiveReserve(_reserve)\n        onlyUnfreezedReserve(_reserve)\n        onlyAmountGreaterThanZero(_amount)\n    {\n        uint256 curBalance =\n            core.getUserUnderlyingAssetBalance(_reserve, msg.sender);\n        bool isFirstDeposit = (curBalance == 0);\n\n        core.updateStateOnDeposit(\n            _reserve,\n            msg.sender,\n            _amount,\n            isFirstDeposit\n        );\n\n        //minting mToken to user 1:1 with the specific exchange rate\n        mToken mToken = mToken(core.getReservemTokenAddress(_reserve));\n        mToken.mintOnDeposit(msg.sender, _amount);\n\n        //transfer to the core contract\n        core.transferToReserve.value(msg.value)(_reserve, msg.sender, _amount);\n\n        //solium-disable-next-line\n        emit Deposit(\n            _reserve,\n            msg.sender,\n            _amount,\n            _referralCode,\n            block.timestamp\n        );\n    }\n\n    /**\n     * @dev Redeems the underlying amount of assets requested by _user.\n     * This function is executed by the overlying mToken contract in response\n     * to a redeem action.\n     * @param _reserve the address of the reserve\n     * @param _user the address of the user performing the action\n     * @param _amount the underlying amount to be redeemed\n     **/\n    function redeemUnderlying(\n        address _reserve,\n        address payable _user,\n        uint256 _amount,\n        uint256 _mTokenBalanceAfterRedeem\n    )\n        external\n        nonReentrant\n        onlyOverlyingmToken(_reserve)\n        onlyActiveReserve(_reserve)\n        onlyAmountGreaterThanZero(_amount)\n    {\n        uint256 currentAvailableLiquidity =\n            core.getReserveAvailableLiquidity(_reserve);\n        require(\n            currentAvailableLiquidity >= _amount,\n            \"There is not enough liquidity available to redeem\"\n        );\n\n        core.updateStateOnRedeem(\n            _reserve,\n            _user,\n            _amount,\n            _mTokenBalanceAfterRedeem == 0\n        );\n\n        core.transferToUser(_reserve, _user, _amount);\n\n        //solium-disable-next-line\n        emit RedeemUnderlying(_reserve, _user, _amount, block.timestamp);\n    }\n\n    /**\n     * @dev data structures for local computations in the borrow() method.\n     */\n\n    struct BorrowLocalVars {\n        uint256 principalBorrowBalance;\n        uint256 currentLtv;\n        uint256 currentLiquidationThreshold;\n        uint256 borrowFee;\n        uint256 requestedBorrowAmountBNB;\n        uint256 amountOfCollateralNeededBNB;\n        uint256 userCollateralBalanceBNB;\n        uint256 userBorrowBalanceBNB;\n        uint256 userTotalFeesBNB;\n        uint256 borrowBalanceIncrease;\n        uint256 currentReserveStableRate;\n        uint256 availableLiquidity;\n        uint256 reserveDecimals;\n        uint256 finalUserBorrowRate;\n        CoreLibrary.InterestRateMode rateMode;\n        bool healthFactorBelowThreshold;\n    }\n\n    /**\n     * @dev Allows users to borrow a specific amount of the reserve currency,\n     * provided that the borrower\n     * already deposited enough collateral.\n     * @param _reserve the address of the reserve\n     * @param _amount the amount to be borrowed\n     * @param _interestRateMode the interest rate mode at which the user wants\n     * to borrow. Can be 0 (STABLE) or 1 (VARIABLE)\n     **/\n    function borrow(\n        address _reserve,\n        uint256 _amount,\n        uint256 _interestRateMode,\n        uint16 _referralCode\n    )\n        external\n        nonReentrant\n        onlyActiveReserve(_reserve)\n        onlyUnfreezedReserve(_reserve)\n        onlyAmountGreaterThanZero(_amount)\n    {\n        // Usage of a memory struct of vars to avoid \"Stack too deep\" errors\n        // due to local variables\n        BorrowLocalVars memory vars;\n\n        //check that the reserve is enabled for borrowing\n        require(\n            core.isReserveBorrowingEnabled(_reserve),\n            \"Reserve is not enabled for borrowing\"\n        );\n        //validate interest rate mode\n        require(\n            uint256(CoreLibrary.InterestRateMode.VARIABLE) ==\n                _interestRateMode ||\n                uint256(CoreLibrary.InterestRateMode.STABLE) ==\n                _interestRateMode,\n            \"Invalid interest rate mode selected\"\n        );\n\n        //cast the rateMode to coreLibrary.interestRateMode\n        vars.rateMode = CoreLibrary.InterestRateMode(_interestRateMode);\n\n        //check that the amount is available in the reserve\n        vars.availableLiquidity = core.getReserveAvailableLiquidity(_reserve);\n\n        // Only allow the borrowing up to 99% of the availability liquidity\n        require(\n            !CoreLibrary.exceed99Percent(_amount, vars.availableLiquidity),\n            \"There is not enough liquidity available in the reserve\"\n        );\n\n        (\n            ,\n            vars.userCollateralBalanceBNB,\n            vars.userBorrowBalanceBNB,\n            vars.userTotalFeesBNB,\n            vars.currentLtv,\n            vars.currentLiquidationThreshold,\n            ,\n            vars.healthFactorBelowThreshold\n        ) = dataProvider.calculateUserGlobalData(msg.sender);\n\n        require(\n            vars.userCollateralBalanceBNB > 0,\n            \"The collateral balance is 0\"\n        );\n\n        require(\n            !vars.healthFactorBelowThreshold,\n            \"The borrower can already be liquidated so he cannot borrow more\"\n        );\n\n        //calculating fees\n        vars.borrowFee = feeProvider.calculateLoanOriginationFee(_amount);\n\n        require(vars.borrowFee > 0, \"The amount to borrow is too small\");\n\n        vars.amountOfCollateralNeededBNB = dataProvider\n            .calculateCollateralNeededInBNB(\n            _reserve,\n            _amount,\n            vars.borrowFee,\n            vars.userBorrowBalanceBNB,\n            vars.userTotalFeesBNB,\n            vars.currentLtv\n        );\n\n        require(\n            vars.amountOfCollateralNeededBNB <= vars.userCollateralBalanceBNB,\n            \"There is not enough collateral to cover a new borrow\"\n        );\n\n        /**\n         * Following conditions need to be met if the user is borrowing at a\n         * stable rate:\n         * 1. Reserve must be enabled for stable rate borrowing\n         * 2. Users cannot borrow from the reserve if their collateral is\n         * (mostly) the same currency\n         *    they are borrowing, to prevent abuses.\n         * 3. Users will be able to borrow only a relatively small, configurable\n         * amount of the total\n         *    liquidity\n         **/\n\n        if (vars.rateMode == CoreLibrary.InterestRateMode.STABLE) {\n            //check if the borrow mode is stable and if stable rate borrowing is enabled on this reserve\n            require(\n                core.isUserAllowedToBorrowAtStable(\n                    _reserve,\n                    msg.sender,\n                    _amount\n                ),\n                \"User cannot borrow the selected amount with a stable rate\"\n            );\n\n            //calculate the max available loan size in stable rate mode as a percentage of the\n            //available liquidity\n            uint256 maxLoanPercent =\n                parametersProvider.getMaxStableRateBorrowSizePercent();\n            uint256 maxLoanSizeStable =\n                vars.availableLiquidity.mul(maxLoanPercent).div(100);\n\n            require(\n                _amount <= maxLoanSizeStable,\n                \"User is trying to borrow too much liquidity at a stable rate\"\n            );\n        }\n\n        //all conditions passed - borrow is accepted\n        (vars.finalUserBorrowRate, vars.borrowBalanceIncrease) = core\n            .updateStateOnBorrow(\n            _reserve,\n            msg.sender,\n            _amount,\n            vars.borrowFee,\n            vars.rateMode\n        );\n\n        //if we reached this point, we can transfer\n        core.transferToUser(_reserve, msg.sender, _amount);\n\n        emit Borrow(\n            _reserve,\n            msg.sender,\n            _amount,\n            _interestRateMode,\n            vars.finalUserBorrowRate,\n            vars.borrowFee,\n            vars.borrowBalanceIncrease,\n            _referralCode,\n            //solium-disable-next-line\n            block.timestamp\n        );\n    }\n\n    /**\n     * @notice repays a borrow on the specific reserve, for the specified amount\n     * (or for the whole amount, if uint256(-1) is specified).\n     * @dev the target user is defined by _onBehalfOf. If there is no repayment\n     * on behalf of another account,\n     * _onBehalfOf must be equal to msg.sender.\n     * @param _reserve the address of the reserve on which the user borrowed\n     * @param _amount the amount to repay, or uint256(-1) if the user wants to\n     * repay everything\n     * @param _onBehalfOf the address for which msg.sender is repaying.\n     **/\n\n    struct RepayLocalVars {\n        uint256 principalBorrowBalance;\n        uint256 compoundedBorrowBalance;\n        uint256 borrowBalanceIncrease;\n        bool isBnb;\n        uint256 paybackAmount;\n        uint256 paybackAmountMinusFees;\n        uint256 currentStableRate;\n        uint256 originationFee;\n        uint256 totalLiquidity;\n    }\n\n    struct RewardLocalVars {\n        uint256 suppliers;\n        uint256 governace;\n    }\n\n    function repay(\n        address _reserve,\n        uint256 _amount,\n        address payable _onBehalfOf\n    )\n        external\n        payable\n        nonReentrant\n        onlyActiveReserve(_reserve)\n        onlyAmountGreaterThanZero(_amount)\n    {\n        // Usage of a memory struct of vars to avoid \"Stack too deep\" errors\n        // due to local variables\n        RepayLocalVars memory vars;\n\n        (\n            vars.principalBorrowBalance,\n            vars.compoundedBorrowBalance,\n            vars.borrowBalanceIncrease\n        ) = core.getUserBorrowBalances(_reserve, _onBehalfOf);\n\n        vars.originationFee = core.getUserOriginationFee(_reserve, _onBehalfOf);\n        vars.isBnb = BscAddressLib.bnbAddress() == _reserve;\n\n        require(\n            vars.compoundedBorrowBalance > 0,\n            \"The user does not have any borrow pending\"\n        );\n\n        require(\n            _amount != UINT_MAX_VALUE || msg.sender == _onBehalfOf,\n            \"To repay on behalf of an user an explicit amount to repay is needed.\"\n        );\n\n        //default to max amount\n        vars.paybackAmount = vars.compoundedBorrowBalance.add(\n            vars.originationFee\n        );\n\n        if (_amount != UINT_MAX_VALUE && _amount < vars.paybackAmount) {\n            vars.paybackAmount = _amount;\n        }\n\n        require(\n            !vars.isBnb || msg.value >= vars.paybackAmount,\n            \"Invalid msg.value sent for the repayment\"\n        );\n\n        // RewardManager : add reward item based on the fee paid back //\n        //vars.totalLiquidity = core.getReserveTotalLiquidity(_reserve);\n        uint256 feeReward = vars.originationFee;\n        if (vars.paybackAmount <= vars.originationFee) {\n            feeReward = vars.paybackAmount;\n        }\n\n        // Update and accumulate reward for this address.\n        updateRewards(_reserve, _onBehalfOf);\n        // RewardManager: Add new reward item. //\n        addRewardItem(_reserve, feeReward);\n\n        // if the amount is smaller than the origination fee, just transfer the\n        // amount to the fee destination address\n        if (vars.paybackAmount <= vars.originationFee) {\n            core.updateStateOnRepay(\n                _reserve,\n                _onBehalfOf,\n                0,\n                vars.paybackAmount,\n                vars.borrowBalanceIncrease,\n                false\n            );\n\n            core.transferToFeeCollectionAddress.value(\n                vars.isBnb ? vars.paybackAmount : 0\n            )(_reserve, _onBehalfOf, vars.paybackAmount, false);\n\n            emit Repay(\n                _reserve,\n                _onBehalfOf,\n                msg.sender,\n                0,\n                vars.paybackAmount,\n                vars.borrowBalanceIncrease,\n                //solium-disable-next-line\n                block.timestamp\n            );\n            return;\n        }\n\n        vars.paybackAmountMinusFees = vars.paybackAmount.sub(\n            vars.originationFee\n        );\n\n        core.updateStateOnRepay(\n            _reserve,\n            _onBehalfOf,\n            vars.paybackAmountMinusFees,\n            vars.originationFee,\n            vars.borrowBalanceIncrease,\n            vars.compoundedBorrowBalance == vars.paybackAmountMinusFees\n        );\n\n        // if the user didn't repay the origination fee, transfer the fee to the\n        // fee collection address\n        if (vars.originationFee > 0) {\n            core.transferToFeeCollectionAddress.value(\n                vars.isBnb ? vars.originationFee : 0\n            )(_reserve, msg.sender, vars.originationFee, false);\n        }\n\n        //sending the total msg.value if the transfer is BNB.\n        //the transferToReserve() function will take care of sending the\n        //excess BNB back to the caller\n        core.transferToReserve.value(\n            vars.isBnb ? msg.value.sub(vars.originationFee) : 0\n        )(_reserve, msg.sender, vars.paybackAmountMinusFees);\n\n        emit Repay(\n            _reserve,\n            _onBehalfOf,\n            msg.sender,\n            vars.paybackAmountMinusFees,\n            vars.originationFee,\n            vars.borrowBalanceIncrease,\n            //solium-disable-next-line\n            block.timestamp\n        );\n    }\n\n    /**\n     * @dev borrowers can user this function to swap between stable and variable\n     * borrow rate modes.\n     * @param _reserve the address of the reserve on which the user borrowed\n     **/\n    function swapBorrowRateMode(address _reserve)\n        external\n        nonReentrant\n        onlyActiveReserve(_reserve)\n        onlyUnfreezedReserve(_reserve)\n    {\n        (\n            uint256 principalBorrowBalance,\n            uint256 compoundedBorrowBalance,\n            uint256 borrowBalanceIncrease\n        ) = core.getUserBorrowBalances(_reserve, msg.sender);\n\n        require(\n            compoundedBorrowBalance > 0,\n            \"User does not have a borrow in progress on this reserve\"\n        );\n\n        CoreLibrary.InterestRateMode currentRateMode =\n            core.getUserCurrentBorrowRateMode(_reserve, msg.sender);\n\n        if (currentRateMode == CoreLibrary.InterestRateMode.VARIABLE) {\n            /**\n             * user wants to swap to stable, before swapping we need to ensure\n             * that\n             * 1. stable borrow rate is enabled on the reserve\n             * 2. user is not trying to abuse the reserve by depositing\n             * more collateral than he is borrowing, artificially lowering\n             * the interest rate, borrowing at variable, and switching to stable\n             **/\n            require(\n                core.isUserAllowedToBorrowAtStable(\n                    _reserve,\n                    msg.sender,\n                    compoundedBorrowBalance\n                ),\n                \"User cannot borrow the selected amount at stable\"\n            );\n        }\n\n        (CoreLibrary.InterestRateMode newRateMode, uint256 newBorrowRate) =\n            core.updateStateOnSwapRate(\n                _reserve,\n                msg.sender,\n                principalBorrowBalance,\n                compoundedBorrowBalance,\n                borrowBalanceIncrease,\n                currentRateMode\n            );\n\n        emit Swap(\n            _reserve,\n            msg.sender,\n            uint256(newRateMode),\n            newBorrowRate,\n            borrowBalanceIncrease,\n            //solium-disable-next-line\n            block.timestamp\n        );\n    }\n\n    /**\n     * @dev rebalances the stable interest rate of a user if current liquidity\n     * rate > user stable rate.\n     * this is regulated by Multiplier to ensure that the protocol is not\n     * abused, and the user is paying a fair\n     * rate. Anyone can call this function though.\n     * @param _reserve the address of the reserve\n     * @param _user the address of the user to be rebalanced\n     **/\n    function rebalanceStableBorrowRate(address _reserve, address _user)\n        external\n        nonReentrant\n        onlyActiveReserve(_reserve)\n    {\n        (, uint256 compoundedBalance, uint256 borrowBalanceIncrease) =\n            core.getUserBorrowBalances(_reserve, _user);\n\n        //step 1: user must be borrowing on _reserve at a stable rate\n        require(\n            compoundedBalance > 0,\n            \"User does not have any borrow for this reserve\"\n        );\n\n        require(\n            core.getUserCurrentBorrowRateMode(_reserve, _user) ==\n                CoreLibrary.InterestRateMode.STABLE,\n            \"The user borrow is variable and cannot be rebalanced\"\n        );\n\n        uint256 userCurrentStableRate =\n            core.getUserCurrentStableBorrowRate(_reserve, _user);\n        uint256 liquidityRate = core.getReserveCurrentLiquidityRate(_reserve);\n        uint256 reserveCurrentStableRate =\n            core.getReserveCurrentStableBorrowRate(_reserve);\n        uint256 rebalanceDownRateThreshold =\n            reserveCurrentStableRate.rayMul(\n                WadRayMath.ray().add(\n                    parametersProvider.getRebalanceDownRateDelta()\n                )\n            );\n\n        // Step 2: we have two possible situations to rebalance:\n\n        // 1. user stable borrow rate is below the current liquidity rate. The\n        // loan needs to be rebalanced,\n        // as this situation can be abused (user putting back the borrowed\n        // liquidity in the same reserve to earn on it)\n        // 2. user stable rate is above the market avg borrow rate of a certain\n        // delta, and utilization rate is low.\n        // In this case, the user is paying an interest that is too high, and\n        // needs to be rescaled down.\n        if (\n            userCurrentStableRate < liquidityRate ||\n            userCurrentStableRate > rebalanceDownRateThreshold\n        ) {\n            uint256 newStableRate =\n                core.updateStateOnRebalance(\n                    _reserve,\n                    _user,\n                    borrowBalanceIncrease\n                );\n\n            emit RebalanceStableBorrowRate(\n                _reserve,\n                _user,\n                newStableRate,\n                borrowBalanceIncrease,\n                //solium-disable-next-line\n                block.timestamp\n            );\n\n            return;\n        }\n\n        revert(\"Interest rate rebalance conditions were not met\");\n    }\n\n    /**\n     * @dev allows depositors to enable or disable a specific deposit as\n     * collateral.\n     * @param _reserve the address of the reserve\n     * @param _useAsCollateral true if the user wants to user the deposit as\n     * collateral, false otherwise.\n     **/\n    function setUserUseReserveAsCollateral(\n        address _reserve,\n        bool _useAsCollateral\n    )\n        external\n        nonReentrant\n        onlyActiveReserve(_reserve)\n        onlyUnfreezedReserve(_reserve)\n    {\n        uint256 underlyingBalance =\n            core.getUserUnderlyingAssetBalance(_reserve, msg.sender);\n\n        require(\n            underlyingBalance > 0,\n            \"User does not have any liquidity deposited\"\n        );\n\n        require(\n            dataProvider.balanceDecreaseAllowed(\n                _reserve,\n                msg.sender,\n                underlyingBalance\n            ),\n            \"User deposit is already being used as collateral\"\n        );\n\n        core.setUserUseReserveAsCollateral(\n            _reserve,\n            msg.sender,\n            _useAsCollateral\n        );\n\n        if (_useAsCollateral) {\n            emit ReserveUsedAsCollateralEnabled(_reserve, msg.sender);\n        } else {\n            emit ReserveUsedAsCollateralDisabled(_reserve, msg.sender);\n        }\n    }\n\n    /**\n     * @dev users can invoke this function to liquidate an undercollateralized\n     * position.\n     * @param _collateral the address of the collateral to liquidated\n     * @param _reserve the address of the principal reserve\n     * @param _user the address of the borrower\n     * @param _purchaseAmount the amount of principal that the liquidator wants\n     * to repay\n     * @param _receiveMToken true if the liquidators wants to receive the\n     * mTokens, false if\n     * he wants to receive the underlying asset directly\n     **/\n    function liquidationCall(\n        address _collateral,\n        address _reserve,\n        address _user,\n        uint256 _purchaseAmount,\n        bool _receiveMToken\n    )\n        external\n        payable\n        nonReentrant\n        onlyActiveReserve(_reserve)\n        onlyActiveReserve(_collateral)\n    {\n        address liquidationManager =\n            addressesProvider.getLendingPoolLiquidationManager();\n        //solium-disable-next-line\n        (bool success, bytes memory result) =\n            liquidationManager.delegatecall(\n                abi.encodeWithSignature(\n                    \"liquidationCall(address,address,address,uint256,bool)\",\n                    _collateral,\n                    _reserve,\n                    _user,\n                    _purchaseAmount,\n                    _receiveMToken\n                )\n            );\n\n        require(success, \"Liquidation call failed\");\n\n        (uint256 returnCode, string memory returnMessage) =\n            abi.decode(result, (uint256, string));\n\n        if (returnCode != 0) {\n            //error found\n            revert(\n                string(abi.encodePacked(\"Liquidation failed: \", returnMessage))\n            );\n        }\n    }\n\n    /**\n     * @dev allows smartcontracts to access the liquidity of the pool within one\n     * transaction,\n     * as long as the amount taken plus a fee is returned. NOTE There are\n     * security concerns for developers of flashloan receiver contracts\n     * that must be kept into consideration. For further details please visit\n     * TODO: Multiplier Finance Documentation Link\n     * @param _receiver The address of the contract receiving the funds. The\n     * receiver should implement the IFlashLoanReceiver interface.\n     * @param _reserve the address of the principal reserve\n     * @param _amount the amount requested for this flashloan\n     **/\n    function flashLoan(\n        address _receiver,\n        address _reserve,\n        uint256 _amount,\n        bytes memory _params\n    )\n        public\n        nonReentrant\n        onlyActiveReserve(_reserve)\n        onlyAmountGreaterThanZero(_amount)\n    {\n        //check that the reserve has enough available liquidity\n        uint256 availableLiquidityBefore =\n            _reserve == BscAddressLib.bnbAddress()\n                ? address(core).balance\n                : IERC20(_reserve).balanceOf(address(core));\n\n        require(\n            availableLiquidityBefore >= _amount,\n            \"There is not enough liquidity available to borrow\"\n        );\n\n        //calculate amount fee\n        uint256 protocolFeeRate = feeProvider.getFlashLoanFee();\n        uint256 amountFee = _amount.wadMul(protocolFeeRate);\n        require(\n            amountFee > 0,\n            \"The requested amount is too small for a flashLoan.\"\n        );\n\n        //get the FlashLoanReceiver instance\n        IFlashLoanReceiver receiver = IFlashLoanReceiver(_receiver);\n\n        address payable userPayable = address(uint160(_receiver));\n\n        //transfer funds to the receiver\n        core.transferToUser(_reserve, userPayable, _amount);\n\n        //execute action of the receiver\n        receiver.executeOperation(_reserve, _amount, amountFee, _params);\n\n        //check that the actual balance of the core contract includes the returned amount\n        uint256 availableLiquidityAfter =\n            _reserve == BscAddressLib.bnbAddress()\n                ? address(core).balance\n                : IERC20(_reserve).balanceOf(address(core));\n\n        require(\n            availableLiquidityAfter == availableLiquidityBefore.add(amountFee),\n            \"The actual balance of the protocol is inconsistent\"\n        );\n\n        core.updateStateOnFlashLoan(_reserve);\n\n        // Reward Manager : Add reward item\n        addRewardItem(_reserve, amountFee);\n\n        // At this point in time, the _amountFee is in the Core address.\n        core.transferToFeeCollectionAddress(\n            _reserve,\n            address(core),\n            amountFee,\n            true\n        );\n\n        //solium-disable-next-line\n        emit FlashLoan(_receiver, _reserve, _amount, block.timestamp);\n    }\n\n    /**\n     * @dev accessory functions to fetch data from the core contract\n     **/\n\n    function getReserveConfigurationData(address _reserve)\n        external\n        view\n        returns (\n            uint256 ltv,\n            uint256 liquidationThreshold,\n            uint256 liquidationBonus,\n            address interestRateStrategyAddress,\n            bool usageAsCollateralEnabled,\n            bool borrowingEnabled,\n            bool stableBorrowRateEnabled,\n            bool isActive\n        )\n    {\n        return dataProvider.getReserveConfigurationData(_reserve);\n    }\n\n    function getReserveData(address _reserve)\n        external\n        view\n        returns (\n            uint256 totalLiquidity,\n            uint256 availableLiquidity,\n            uint256 totalBorrowsStable,\n            uint256 totalBorrowsVariable,\n            uint256 liquidityRate,\n            uint256 variableBorrowRate,\n            uint256 stableBorrowRate,\n            uint256 averageStableBorrowRate,\n            uint256 utilizationRate,\n            uint256 liquidityIndex,\n            uint256 variableBorrowIndex,\n            address mTokenAddress,\n            uint40 lastUpdateTimestamp\n        )\n    {\n        return dataProvider.getReserveData(_reserve);\n    }\n\n    function getUserAccountData(address _user)\n        external\n        view\n        returns (\n            uint256 totalLiquidityBNB,\n            uint256 totalCollateralBNB,\n            uint256 totalBorrowsBNB,\n            uint256 totalFeesBNB,\n            uint256 availableBorrowsBNB,\n            uint256 currentLiquidationThreshold,\n            uint256 ltv,\n            uint256 healthFactor\n        )\n    {\n        return dataProvider.getUserAccountData(_user);\n    }\n\n    function getUserReserveData(address _reserve, address _user)\n        external\n        view\n        returns (\n            uint256 currentMTokenBalance,\n            uint256 currentBorrowBalance,\n            uint256 principalBorrowBalance,\n            uint256 borrowRateMode,\n            uint256 borrowRate,\n            uint256 liquidityRate,\n            uint256 originationFee,\n            uint256 variableBorrowIndex,\n            uint256 lastUpdateTimestamp,\n            bool usageAsCollateralEnabled\n        )\n    {\n        return dataProvider.getUserReserveData(_reserve, _user);\n    }\n\n    function getReserves() external view returns (address[] memory) {\n        return core.getReserves();\n    }\n\n    /**\n     * @dev internal function to save on code size for the onlyActiveReserve\n     * modifier\n     **/\n    function requireReserveActiveInternal(address _reserve) internal view {\n        require(\n            core.getReserveIsActive(_reserve),\n            \"Action requires an active reserve\"\n        );\n    }\n\n    /**\n     * @notice internal function to save on code size for the\n     * onlyUnfreezedReserve modifier\n     **/\n    function requireReserveNotFreezedInternal(address _reserve) internal view {\n        require(\n            !core.getReserveIsFreezed(_reserve),\n            \"Action requires an unfreezed reserve\"\n        );\n    }\n\n    /**\n     * @notice internal function to save on code size for the\n     * onlyAmountGreaterThanZero modifier\n     **/\n    function requireAmountGreaterThanZeroInternal(uint256 _amount)\n        internal\n        pure\n    {\n        require(_amount > 0, \"Amount must be greater than 0\");\n    }\n\n    // Reward Manager\n    // This need to be called before reward giving. If new reserve token is added, call this function again //\n\n    function registerAllPoolsForReward() external {\n        rewardsMgr = RewardsManager(addressesProvider.getRewardManager());\n        rewardsMgr.registerPools(core.getReserves());\n    }\n\n    function readReward(address _reserve, RewardsManager.RewardTypes _type)\n        external\n        view\n        returns (uint256)\n    {\n        uint256 share =\n            _type == RewardsManager.RewardTypes.Depositor\n                ? core.getUsermTokenBalance(_reserve, msg.sender)\n                : core.getUserStakedTokenBalance(msg.sender);\n\n        return rewardsMgr.readRewards(_reserve, msg.sender, _type, share);\n    }\n\n    function updateRewards(address _reserve, address _user) public {\n        uint256 mTokenBalance = core.getUsermTokenBalance(_reserve, _user);\n        uint256 stakedBalance = core.getUserStakedTokenBalance(_user);\n\n        rewardsMgr.updateRewards(\n            _reserve,\n            _user,\n            mTokenBalance,\n            stakedBalance,\n            0\n        );\n    }\n\n    function updateGovernanceStakingRewards(address _user) external {\n        uint256 stakedBalance = core.getUserStakedTokenBalance(_user);\n\n        address[] memory reserves = core.getReserves();\n        uint256 len = reserves.length;\n        for (uint256 i = 0; i < len; i++) {\n            rewardsMgr.updateReward(\n                reserves[i],\n                _user,\n                RewardsManager.RewardTypes.Governance,\n                stakedBalance,\n                0\n            );\n        }\n    }\n\n    function updateLpReward(address _reserve, address _user) external {\n        uint256 mTokenBalance = core.getUsermTokenBalance(_reserve, _user);\n        rewardsMgr.updateReward(\n            _reserve,\n            _user,\n            RewardsManager.RewardTypes.Depositor,\n            mTokenBalance,\n            0\n        );\n    }\n\n    // In case a user has not claim for a very long time (exceed eVM max read/write), we can update it by batches //\n    function updatePartialReward(\n        address _reserve,\n        address _user,\n        RewardsManager.RewardTypes _type,\n        uint256 num\n    ) external {\n        // Allow batch update only for Depositor and Governance rewards //\n        if (_type == RewardsManager.RewardTypes.Safety) {\n            return;\n        }\n\n        uint256 balance =\n            _type == RewardsManager.RewardTypes.Depositor\n                ? core.getUsermTokenBalance(_reserve, _user)\n                : core.getUserStakedTokenBalance(_user);\n\n        rewardsMgr.updateReward(_reserve, _user, _type, balance, num);\n    }\n\n    function addRewardItem(address _reserve, uint256 _amount) private {\n        RewardLocalVars memory reward;\n        (reward.suppliers, reward.governace, ) = feeProvider.calculateRewards(\n            _amount\n        );\n\n        uint256 liquidity = core.getTotalmTokenSupply(_reserve);\n        rewardsMgr.addRewardItem(\n            _reserve,\n            reward.suppliers,\n            liquidity,\n            reward.governace\n        );\n    }\n\n    function claimReward(address _reserve, RewardsManager.RewardTypes _type)\n        external\n    {\n        claimRewardInternal(_reserve, _type);\n    }\n\n    function claimAllReward(RewardsManager.RewardTypes _type) external {\n        // Loop over all rewards and claims //\n        address[] memory addresses = core.getReserves();\n        uint256 len = addresses.length;\n        for (uint256 i = 0; i < len; i++) {\n            claimRewardInternal(addresses[i], _type);\n        }\n    }\n\n    function claimRewardInternal(\n        address _reserve,\n        RewardsManager.RewardTypes _type\n    ) internal {\n        uint256 share =\n            _type == RewardsManager.RewardTypes.Depositor\n                ? core.getUsermTokenBalance(_reserve, msg.sender)\n                : core.getUserStakedTokenBalance(msg.sender);\n\n        uint256 amt =\n            rewardsMgr.readRewards(_reserve, msg.sender, _type, share);\n\n        if (amt != 0) {\n            rewardsMgr.resetReward(_reserve, msg.sender, _type);\n            rewardsMgr.withdrawFromVault(_type, _reserve, msg.sender, amt);\n\n            //solium-disable-next-line\n            emit ClaimReward(_reserve, msg.sender, amt, block.timestamp);\n        }\n    }\n}\n",
  "sourcePath": "/Users/dev/Documents/Project/MCLendNew/MCL-SmartContracts/lending/contracts/lendingpool/LendingPool.sol",
  "compiler": {
    "name": "solc",
    "version": "0.5.16+commit.9c3226ce.Emscripten.clang"
  },
  "schemaVersion": "3.2.3",
  "updatedAt": "2021-02-19T07:32:48.534Z",
  "devdoc": {
    "author": "Multiplier Finance*",
    "methods": {
      "borrow(address,uint256,uint256,uint16)": {
        "details": "Allows users to borrow a specific amount of the reserve currency, provided that the borrower already deposited enough collateral.",
        "params": {
          "_amount": "the amount to be borrowed",
          "_interestRateMode": "the interest rate mode at which the user wants to borrow. Can be 0 (STABLE) or 1 (VARIABLE)*",
          "_reserve": "the address of the reserve"
        }
      },
      "deposit(address,uint256,uint16)": {
        "details": "deposits The underlying asset into the reserve. A corresponding amount of the overlying asset (mTokens) is minted.",
        "params": {
          "_amount": "the amount to be deposited",
          "_referralCode": "integrators are assigned a referral code and can potentially receive rewards.*",
          "_reserve": "the address of the reserve"
        }
      },
      "flashLoan(address,address,uint256,bytes)": {
        "details": "allows smartcontracts to access the liquidity of the pool within one transaction, as long as the amount taken plus a fee is returned. NOTE There are security concerns for developers of flashloan receiver contracts that must be kept into consideration. For further details please visit TODO: Multiplier Finance Documentation Link",
        "params": {
          "_amount": "the amount requested for this flashloan*",
          "_receiver": "The address of the contract receiving the funds. The receiver should implement the IFlashLoanReceiver interface.",
          "_reserve": "the address of the principal reserve"
        }
      },
      "getReserveConfigurationData(address)": {
        "details": "accessory functions to fetch data from the core contract*"
      },
      "initialize(address)": {
        "details": "this function is invoked by the proxy contract when the LendingPool contract is added to the AddressesProvider.",
        "params": {
          "_addressesProvider": "the address of the LendingPoolAddressesProvider registry*"
        }
      },
      "liquidationCall(address,address,address,uint256,bool)": {
        "details": "users can invoke this function to liquidate an undercollateralized position.",
        "params": {
          "_collateral": "the address of the collateral to liquidated",
          "_purchaseAmount": "the amount of principal that the liquidator wants to repay",
          "_receiveMToken": "true if the liquidators wants to receive the mTokens, false if he wants to receive the underlying asset directly*",
          "_reserve": "the address of the principal reserve",
          "_user": "the address of the borrower"
        }
      },
      "rebalanceStableBorrowRate(address,address)": {
        "details": "rebalances the stable interest rate of a user if current liquidity rate > user stable rate. this is regulated by Multiplier to ensure that the protocol is not abused, and the user is paying a fair rate. Anyone can call this function though.",
        "params": {
          "_reserve": "the address of the reserve",
          "_user": "the address of the user to be rebalanced*"
        }
      },
      "redeemUnderlying(address,address,uint256,uint256)": {
        "details": "Redeems the underlying amount of assets requested by _user. This function is executed by the overlying mToken contract in response to a redeem action.",
        "params": {
          "_amount": "the underlying amount to be redeemed*",
          "_reserve": "the address of the reserve",
          "_user": "the address of the user performing the action"
        }
      },
      "setUserUseReserveAsCollateral(address,bool)": {
        "details": "allows depositors to enable or disable a specific deposit as collateral.",
        "params": {
          "_reserve": "the address of the reserve",
          "_useAsCollateral": "true if the user wants to user the deposit as collateral, false otherwise.*"
        }
      },
      "swapBorrowRateMode(address)": {
        "details": "borrowers can user this function to swap between stable and variable borrow rate modes.",
        "params": {
          "_reserve": "the address of the reserve on which the user borrowed*"
        }
      }
    },
    "title": "LendingPool contract"
  },
  "userdoc": {
    "methods": {},
    "notice": "Implements the actions of the LendingPool, and exposes accessory methods to fetch the users and reserve data"
  }
}