{
  "contractName": "LendingPoolConfigurator",
  "abi": [
    {
      "anonymous": false,
      "inputs": [
        {
          "indexed": true,
          "internalType": "address",
          "name": "_reserve",
          "type": "address"
        }
      ],
      "name": "BorrowingDisabledOnReserve",
      "type": "event"
    },
    {
      "anonymous": false,
      "inputs": [
        {
          "indexed": false,
          "internalType": "address",
          "name": "_reserve",
          "type": "address"
        },
        {
          "indexed": false,
          "internalType": "bool",
          "name": "_stableRateEnabled",
          "type": "bool"
        }
      ],
      "name": "BorrowingEnabledOnReserve",
      "type": "event"
    },
    {
      "anonymous": false,
      "inputs": [
        {
          "indexed": true,
          "internalType": "address",
          "name": "_reserve",
          "type": "address"
        }
      ],
      "name": "ReserveActivated",
      "type": "event"
    },
    {
      "anonymous": false,
      "inputs": [
        {
          "indexed": false,
          "internalType": "address",
          "name": "_reserve",
          "type": "address"
        },
        {
          "indexed": false,
          "internalType": "uint256",
          "name": "_ltv",
          "type": "uint256"
        }
      ],
      "name": "ReserveBaseLtvChanged",
      "type": "event"
    },
    {
      "anonymous": false,
      "inputs": [
        {
          "indexed": true,
          "internalType": "address",
          "name": "_reserve",
          "type": "address"
        }
      ],
      "name": "ReserveDeactivated",
      "type": "event"
    },
    {
      "anonymous": false,
      "inputs": [
        {
          "indexed": false,
          "internalType": "address",
          "name": "_reserve",
          "type": "address"
        },
        {
          "indexed": false,
          "internalType": "uint256",
          "name": "_decimals",
          "type": "uint256"
        }
      ],
      "name": "ReserveDecimalsChanged",
      "type": "event"
    },
    {
      "anonymous": false,
      "inputs": [
        {
          "indexed": true,
          "internalType": "address",
          "name": "_reserve",
          "type": "address"
        }
      ],
      "name": "ReserveDisabledAsCollateral",
      "type": "event"
    },
    {
      "anonymous": false,
      "inputs": [
        {
          "indexed": true,
          "internalType": "address",
          "name": "_reserve",
          "type": "address"
        },
        {
          "indexed": false,
          "internalType": "uint256",
          "name": "_ltv",
          "type": "uint256"
        },
        {
          "indexed": false,
          "internalType": "uint256",
          "name": "_liquidationThreshold",
          "type": "uint256"
        },
        {
          "indexed": false,
          "internalType": "uint256",
          "name": "_liquidationBonus",
          "type": "uint256"
        }
      ],
      "name": "ReserveEnabledAsCollateral",
      "type": "event"
    },
    {
      "anonymous": false,
      "inputs": [
        {
          "indexed": true,
          "internalType": "address",
          "name": "_reserve",
          "type": "address"
        }
      ],
      "name": "ReserveFreezed",
      "type": "event"
    },
    {
      "anonymous": false,
      "inputs": [
        {
          "indexed": true,
          "internalType": "address",
          "name": "_reserve",
          "type": "address"
        },
        {
          "indexed": true,
          "internalType": "address",
          "name": "_mToken",
          "type": "address"
        },
        {
          "indexed": false,
          "internalType": "address",
          "name": "_interestRateStrategyAddress",
          "type": "address"
        }
      ],
      "name": "ReserveInitialized",
      "type": "event"
    },
    {
      "anonymous": false,
      "inputs": [
        {
          "indexed": false,
          "internalType": "address",
          "name": "_reserve",
          "type": "address"
        },
        {
          "indexed": false,
          "internalType": "address",
          "name": "_strategy",
          "type": "address"
        }
      ],
      "name": "ReserveInterestRateStrategyChanged",
      "type": "event"
    },
    {
      "anonymous": false,
      "inputs": [
        {
          "indexed": false,
          "internalType": "address",
          "name": "_reserve",
          "type": "address"
        },
        {
          "indexed": false,
          "internalType": "uint256",
          "name": "_bonus",
          "type": "uint256"
        }
      ],
      "name": "ReserveLiquidationBonusChanged",
      "type": "event"
    },
    {
      "anonymous": false,
      "inputs": [
        {
          "indexed": false,
          "internalType": "address",
          "name": "_reserve",
          "type": "address"
        },
        {
          "indexed": false,
          "internalType": "uint256",
          "name": "_threshold",
          "type": "uint256"
        }
      ],
      "name": "ReserveLiquidationThresholdChanged",
      "type": "event"
    },
    {
      "anonymous": false,
      "inputs": [
        {
          "indexed": true,
          "internalType": "address",
          "name": "_reserve",
          "type": "address"
        }
      ],
      "name": "ReserveRemoved",
      "type": "event"
    },
    {
      "anonymous": false,
      "inputs": [
        {
          "indexed": true,
          "internalType": "address",
          "name": "_reserve",
          "type": "address"
        }
      ],
      "name": "ReserveUnfreezed",
      "type": "event"
    },
    {
      "anonymous": false,
      "inputs": [
        {
          "indexed": true,
          "internalType": "address",
          "name": "_reserve",
          "type": "address"
        }
      ],
      "name": "StableRateDisabledOnReserve",
      "type": "event"
    },
    {
      "anonymous": false,
      "inputs": [
        {
          "indexed": true,
          "internalType": "address",
          "name": "_reserve",
          "type": "address"
        }
      ],
      "name": "StableRateEnabledOnReserve",
      "type": "event"
    },
    {
      "constant": true,
      "inputs": [],
      "name": "CONFIGURATOR_REVISION",
      "outputs": [
        {
          "internalType": "uint256",
          "name": "",
          "type": "uint256"
        }
      ],
      "payable": false,
      "stateMutability": "view",
      "type": "function"
    },
    {
      "constant": true,
      "inputs": [],
      "name": "poolAddressesProvider",
      "outputs": [
        {
          "internalType": "contract LendingPoolAddressesProvider",
          "name": "",
          "type": "address"
        }
      ],
      "payable": false,
      "stateMutability": "view",
      "type": "function"
    },
    {
      "constant": false,
      "inputs": [
        {
          "internalType": "contract LendingPoolAddressesProvider",
          "name": "_poolAddressesProvider",
          "type": "address"
        }
      ],
      "name": "initialize",
      "outputs": [],
      "payable": false,
      "stateMutability": "nonpayable",
      "type": "function"
    },
    {
      "constant": false,
      "inputs": [
        {
          "internalType": "address",
          "name": "_reserve",
          "type": "address"
        },
        {
          "internalType": "uint8",
          "name": "_underlyingAssetDecimals",
          "type": "uint8"
        },
        {
          "internalType": "address",
          "name": "_interestRateStrategyAddress",
          "type": "address"
        }
      ],
      "name": "initReserve",
      "outputs": [],
      "payable": false,
      "stateMutability": "nonpayable",
      "type": "function"
    },
    {
      "constant": false,
      "inputs": [
        {
          "internalType": "address",
          "name": "_reserve",
          "type": "address"
        },
        {
          "internalType": "string",
          "name": "_mTokenName",
          "type": "string"
        },
        {
          "internalType": "string",
          "name": "_mTokenSymbol",
          "type": "string"
        },
        {
          "internalType": "uint8",
          "name": "_underlyingAssetDecimals",
          "type": "uint8"
        },
        {
          "internalType": "address",
          "name": "_interestRateStrategyAddress",
          "type": "address"
        }
      ],
      "name": "initReserveWithData",
      "outputs": [],
      "payable": false,
      "stateMutability": "nonpayable",
      "type": "function"
    },
    {
      "constant": false,
      "inputs": [
        {
          "internalType": "address",
          "name": "_reserveToRemove",
          "type": "address"
        }
      ],
      "name": "removeLastAddedReserve",
      "outputs": [],
      "payable": false,
      "stateMutability": "nonpayable",
      "type": "function"
    },
    {
      "constant": false,
      "inputs": [
        {
          "internalType": "address",
          "name": "_reserve",
          "type": "address"
        },
        {
          "internalType": "bool",
          "name": "_stableBorrowRateEnabled",
          "type": "bool"
        }
      ],
      "name": "enableBorrowingOnReserve",
      "outputs": [],
      "payable": false,
      "stateMutability": "nonpayable",
      "type": "function"
    },
    {
      "constant": false,
      "inputs": [
        {
          "internalType": "address",
          "name": "_reserve",
          "type": "address"
        }
      ],
      "name": "disableBorrowingOnReserve",
      "outputs": [],
      "payable": false,
      "stateMutability": "nonpayable",
      "type": "function"
    },
    {
      "constant": false,
      "inputs": [
        {
          "internalType": "address",
          "name": "_reserve",
          "type": "address"
        },
        {
          "internalType": "uint256",
          "name": "_baseLTVasCollateral",
          "type": "uint256"
        },
        {
          "internalType": "uint256",
          "name": "_liquidationThreshold",
          "type": "uint256"
        },
        {
          "internalType": "uint256",
          "name": "_liquidationBonus",
          "type": "uint256"
        }
      ],
      "name": "enableReserveAsCollateral",
      "outputs": [],
      "payable": false,
      "stateMutability": "nonpayable",
      "type": "function"
    },
    {
      "constant": false,
      "inputs": [
        {
          "internalType": "address",
          "name": "_reserve",
          "type": "address"
        }
      ],
      "name": "disableReserveAsCollateral",
      "outputs": [],
      "payable": false,
      "stateMutability": "nonpayable",
      "type": "function"
    },
    {
      "constant": false,
      "inputs": [
        {
          "internalType": "address",
          "name": "_reserve",
          "type": "address"
        }
      ],
      "name": "enableReserveStableBorrowRate",
      "outputs": [],
      "payable": false,
      "stateMutability": "nonpayable",
      "type": "function"
    },
    {
      "constant": false,
      "inputs": [
        {
          "internalType": "address",
          "name": "_reserve",
          "type": "address"
        }
      ],
      "name": "disableReserveStableBorrowRate",
      "outputs": [],
      "payable": false,
      "stateMutability": "nonpayable",
      "type": "function"
    },
    {
      "constant": false,
      "inputs": [
        {
          "internalType": "address",
          "name": "_reserve",
          "type": "address"
        }
      ],
      "name": "activateReserve",
      "outputs": [],
      "payable": false,
      "stateMutability": "nonpayable",
      "type": "function"
    },
    {
      "constant": false,
      "inputs": [
        {
          "internalType": "address",
          "name": "_reserve",
          "type": "address"
        }
      ],
      "name": "deactivateReserve",
      "outputs": [],
      "payable": false,
      "stateMutability": "nonpayable",
      "type": "function"
    },
    {
      "constant": false,
      "inputs": [
        {
          "internalType": "address",
          "name": "_reserve",
          "type": "address"
        }
      ],
      "name": "freezeReserve",
      "outputs": [],
      "payable": false,
      "stateMutability": "nonpayable",
      "type": "function"
    },
    {
      "constant": false,
      "inputs": [
        {
          "internalType": "address",
          "name": "_reserve",
          "type": "address"
        }
      ],
      "name": "unfreezeReserve",
      "outputs": [],
      "payable": false,
      "stateMutability": "nonpayable",
      "type": "function"
    },
    {
      "constant": false,
      "inputs": [
        {
          "internalType": "address",
          "name": "_reserve",
          "type": "address"
        },
        {
          "internalType": "uint256",
          "name": "_ltv",
          "type": "uint256"
        }
      ],
      "name": "setReserveBaseLTVasCollateral",
      "outputs": [],
      "payable": false,
      "stateMutability": "nonpayable",
      "type": "function"
    },
    {
      "constant": false,
      "inputs": [
        {
          "internalType": "address",
          "name": "_reserve",
          "type": "address"
        },
        {
          "internalType": "uint256",
          "name": "_threshold",
          "type": "uint256"
        }
      ],
      "name": "setReserveLiquidationThreshold",
      "outputs": [],
      "payable": false,
      "stateMutability": "nonpayable",
      "type": "function"
    },
    {
      "constant": false,
      "inputs": [
        {
          "internalType": "address",
          "name": "_reserve",
          "type": "address"
        },
        {
          "internalType": "uint256",
          "name": "_bonus",
          "type": "uint256"
        }
      ],
      "name": "setReserveLiquidationBonus",
      "outputs": [],
      "payable": false,
      "stateMutability": "nonpayable",
      "type": "function"
    },
    {
      "constant": false,
      "inputs": [
        {
          "internalType": "address",
          "name": "_reserve",
          "type": "address"
        },
        {
          "internalType": "uint256",
          "name": "_decimals",
          "type": "uint256"
        }
      ],
      "name": "setReserveDecimals",
      "outputs": [],
      "payable": false,
      "stateMutability": "nonpayable",
      "type": "function"
    },
    {
      "constant": false,
      "inputs": [
        {
          "internalType": "address",
          "name": "_reserve",
          "type": "address"
        },
        {
          "internalType": "address",
          "name": "_rateStrategyAddress",
          "type": "address"
        }
      ],
      "name": "setReserveInterestRateStrategyAddress",
      "outputs": [],
      "payable": false,
      "stateMutability": "nonpayable",
      "type": "function"
    },
    {
      "constant": false,
      "inputs": [],
      "name": "refreshLendingPoolCoreConfiguration",
      "outputs": [],
      "payable": false,
      "stateMutability": "nonpayable",
      "type": "function"
    }
  ],
  "bytecode": "0x60806040526000805534801561001457600080fd5b5061880480620000256000396000f3fe60806040523480156200001157600080fd5b5060043610620001605760003560e01c8063a8dc0f4511620000c9578063d466016f1162000087578063d466016f146200079d578063dae4c4e714620007ee578063e12dcc6c1462000835578063e8ae2f5b1462000841578063eede87c11462000888578063ef1f937314620008db5762000160565b8063a8dc0f45146200063a578063b75d6f341462000681578063b8c0f74514620006c8578063c4d66de8146200070f578063d06e2ec114620007565762000160565b806366bbd928116200012357806366bbd928146200048057806370fb84f414620004d15780637aca76eb14620005225780637af635a6146200056957806380e17d871462000589578063a5bc826c14620005d55762000160565b8063071033e414620001655780631d2118f914620001d95780633443a14b146200024057806336805a6214620002915780633e72a4541462000439575b600080fd5b620001d7600480360360608110156200017d57600080fd5b81019080803573ffffffffffffffffffffffffffffffffffffffff169060200190929190803560ff169060200190929190803573ffffffffffffffffffffffffffffffffffffffff16906020019092919050505062000922565b005b6200023e60048036036040811015620001f157600080fd5b81019080803573ffffffffffffffffffffffffffffffffffffffff169060200190929190803573ffffffffffffffffffffffffffffffffffffffff16906020019092919050505062000e29565b005b6200028f600480360360408110156200025857600080fd5b81019080803573ffffffffffffffffffffffffffffffffffffffff1690602001909291908035906020019092919050505062001167565b005b62000437600480360360a0811015620002a957600080fd5b81019080803573ffffffffffffffffffffffffffffffffffffffff16906020019092919080359060200190640100000000811115620002e757600080fd5b820183602082011115620002fa57600080fd5b803590602001918460018302840111640100000000831117156200031d57600080fd5b91908080601f016020809104026020016040519081016040528093929190818152602001838380828437600081840152601f19601f820116905080830192505050505050509192919290803590602001906401000000008111156200038157600080fd5b8201836020820111156200039457600080fd5b80359060200191846001830284011164010000000083111715620003b757600080fd5b91908080601f016020809104026020016040519081016040528093929190818152602001838380828437600081840152601f19601f820116905080830192505050505050509192919290803560ff169060200190929190803573ffffffffffffffffffffffffffffffffffffffff1690602001909291905050506200144d565b005b6200047e600480360360208110156200045157600080fd5b81019080803573ffffffffffffffffffffffffffffffffffffffff16906020019092919050505062001973565b005b620004cf600480360360408110156200049857600080fd5b81019080803573ffffffffffffffffffffffffffffffffffffffff1690602001909291908035906020019092919050505062001d3d565b005b6200052060048036036040811015620004e957600080fd5b81019080803573ffffffffffffffffffffffffffffffffffffffff1690602001909291908035906020019092919050505062002023565b005b62000567600480360360208110156200053a57600080fd5b81019080803573ffffffffffffffffffffffffffffffffffffffff16906020019092919050505062002309565b005b62000573620025be565b6040518082815260200191505060405180910390f35b62000593620025c3565b604051808273ffffffffffffffffffffffffffffffffffffffff1673ffffffffffffffffffffffffffffffffffffffff16815260200191505060405180910390f35b6200063860048036036080811015620005ed57600080fd5b81019080803573ffffffffffffffffffffffffffffffffffffffff169060200190929190803590602001909291908035906020019092919080359060200190929190505050620025e9565b005b6200067f600480360360208110156200065257600080fd5b81019080803573ffffffffffffffffffffffffffffffffffffffff169060200190929190505050620028d4565b005b620006c6600480360360208110156200069957600080fd5b81019080803573ffffffffffffffffffffffffffffffffffffffff16906020019092919050505062002b89565b005b6200070d60048036036020811015620006e057600080fd5b81019080803573ffffffffffffffffffffffffffffffffffffffff16906020019092919050505062002e3e565b005b62000754600480360360208110156200072757600080fd5b81019080803573ffffffffffffffffffffffffffffffffffffffff169060200190929190505050620030f3565b005b6200079b600480360360208110156200076e57600080fd5b81019080803573ffffffffffffffffffffffffffffffffffffffff1690602001909291905050506200322e565b005b620007ec60048036036040811015620007b557600080fd5b81019080803573ffffffffffffffffffffffffffffffffffffffff16906020019092919080359060200190929190505050620034e3565b005b62000833600480360360208110156200080657600080fd5b81019080803573ffffffffffffffffffffffffffffffffffffffff169060200190929190505050620037c9565b005b6200083f62003a7e565b005b62000886600480360360208110156200085957600080fd5b81019080803573ffffffffffffffffffffffffffffffffffffffff16906020019092919050505062003cb8565b005b620008d960048036036040811015620008a057600080fd5b81019080803573ffffffffffffffffffffffffffffffffffffffff16906020019092919080351515906020019092919050505062003f6d565b005b6200092060048036036020811015620008f357600080fd5b81019080803573ffffffffffffffffffffffffffffffffffffffff1690602001909291905050506200425b565b005b3373ffffffffffffffffffffffffffffffffffffffff16603460009054906101000a900473ffffffffffffffffffffffffffffffffffffffff1673ffffffffffffffffffffffffffffffffffffffff166333128d596040518163ffffffff1660e01b815260040160206040518083038186803b158015620009a257600080fd5b505afa158015620009b7573d6000803e3d6000fd5b505050506040513d6020811015620009ce57600080fd5b810190808051906020019092919050505073ffffffffffffffffffffffffffffffffffffffff161462000a4d576040517f08c379a00000000000000000000000000000000000000000000000000000000081526004018080602001828103825260298152602001806200874f6029913960400191505060405180910390fd5b600083905060608173ffffffffffffffffffffffffffffffffffffffff166306fdde036040518163ffffffff1660e01b815260040160006040518083038186803b15801562000a9b57600080fd5b505afa15801562000ab0573d6000803e3d6000fd5b505050506040513d6000823e3d601f19601f82011682018060405250602081101562000adb57600080fd5b810190808051604051939291908464010000000082111562000afc57600080fd5b8382019150602082018581111562000b1357600080fd5b825186600182028301116401000000008211171562000b3157600080fd5b8083526020830192505050908051906020019080838360005b8381101562000b6757808201518184015260208101905062000b4a565b50505050905090810190601f16801562000b955780820380516001836020036101000a031916815260200191505b5060405250505060405160200180807f4d756c7469706c69657220496e7465726573742062656172696e672000000000815250601c0182805190602001908083835b6020831062000bfc578051825260208201915060208101905060208303925062000bd7565b6001836020036101000a038019825116818451168082178552505050505050905001915050604051602081830303815290604052905060608273ffffffffffffffffffffffffffffffffffffffff166395d89b416040518163ffffffff1660e01b815260040160006040518083038186803b15801562000c7b57600080fd5b505afa15801562000c90573d6000803e3d6000fd5b505050506040513d6000823e3d601f19601f82011682018060405250602081101562000cbb57600080fd5b810190808051604051939291908464010000000082111562000cdc57600080fd5b8382019150602082018581111562000cf357600080fd5b825186600182028301116401000000008211171562000d1157600080fd5b8083526020830192505050908051906020019080838360005b8381101562000d4757808201518184015260208101905062000d2a565b50505050905090810190601f16801562000d755780820380516001836020036101000a031916815260200191505b5060405250505060405160200180807f6d7800000000000000000000000000000000000000000000000000000000000081525060020182805190602001908083835b6020831062000ddc578051825260208201915060208101905060208303925062000db7565b6001836020036101000a038019825116818451168082178552505050505050905001915050604051602081830303815290604052905062000e2186838388886200144d565b505050505050565b3373ffffffffffffffffffffffffffffffffffffffff16603460009054906101000a900473ffffffffffffffffffffffffffffffffffffffff1673ffffffffffffffffffffffffffffffffffffffff166333128d596040518163ffffffff1660e01b815260040160206040518083038186803b15801562000ea957600080fd5b505afa15801562000ebe573d6000803e3d6000fd5b505050506040513d602081101562000ed557600080fd5b810190808051906020019092919050505073ffffffffffffffffffffffffffffffffffffffff161462000f54576040517f08c379a00000000000000000000000000000000000000000000000000000000081526004018080602001828103825260298152602001806200874f6029913960400191505060405180910390fd5b6000603460009054906101000a900473ffffffffffffffffffffffffffffffffffffffff1673ffffffffffffffffffffffffffffffffffffffff1663ed6ff7606040518163ffffffff1660e01b815260040160206040518083038186803b15801562000fbf57600080fd5b505afa15801562000fd4573d6000803e3d6000fd5b505050506040513d602081101562000feb57600080fd5b810190808051906020019092919050505090508073ffffffffffffffffffffffffffffffffffffffff16631d2118f984846040518363ffffffff1660e01b8152600401808373ffffffffffffffffffffffffffffffffffffffff1673ffffffffffffffffffffffffffffffffffffffff1681526020018273ffffffffffffffffffffffffffffffffffffffff1673ffffffffffffffffffffffffffffffffffffffff16815260200192505050600060405180830381600087803b158015620010b257600080fd5b505af1158015620010c7573d6000803e3d6000fd5b505050507f5644b64ebb0ce18c4032248ca52f58355469092ff072866c3dcd8640e817d6a58383604051808373ffffffffffffffffffffffffffffffffffffffff1673ffffffffffffffffffffffffffffffffffffffff1681526020018273ffffffffffffffffffffffffffffffffffffffff1673ffffffffffffffffffffffffffffffffffffffff1681526020019250505060405180910390a1505050565b3373ffffffffffffffffffffffffffffffffffffffff16603460009054906101000a900473ffffffffffffffffffffffffffffffffffffffff1673ffffffffffffffffffffffffffffffffffffffff166333128d596040518163ffffffff1660e01b815260040160206040518083038186803b158015620011e757600080fd5b505afa158015620011fc573d6000803e3d6000fd5b505050506040513d60208110156200121357600080fd5b810190808051906020019092919050505073ffffffffffffffffffffffffffffffffffffffff161462001292576040517f08c379a00000000000000000000000000000000000000000000000000000000081526004018080602001828103825260298152602001806200874f6029913960400191505060405180910390fd5b6000603460009054906101000a900473ffffffffffffffffffffffffffffffffffffffff1673ffffffffffffffffffffffffffffffffffffffff1663ed6ff7606040518163ffffffff1660e01b815260040160206040518083038186803b158015620012fd57600080fd5b505afa15801562001312573d6000803e3d6000fd5b505050506040513d60208110156200132957600080fd5b810190808051906020019092919050505090508073ffffffffffffffffffffffffffffffffffffffff16633443a14b84846040518363ffffffff1660e01b8152600401808373ffffffffffffffffffffffffffffffffffffffff1673ffffffffffffffffffffffffffffffffffffffff16815260200182815260200192505050600060405180830381600087803b158015620013c457600080fd5b505af1158015620013d9573d6000803e3d6000fd5b505050507f437dd3b61b7c7eee7fc70515c8846482dfca92e2e1e02af5d638c5d4878d67148383604051808373ffffffffffffffffffffffffffffffffffffffff1673ffffffffffffffffffffffffffffffffffffffff1681526020018281526020019250505060405180910390a1505050565b3373ffffffffffffffffffffffffffffffffffffffff16603460009054906101000a900473ffffffffffffffffffffffffffffffffffffffff1673ffffffffffffffffffffffffffffffffffffffff166333128d596040518163ffffffff1660e01b815260040160206040518083038186803b158015620014cd57600080fd5b505afa158015620014e2573d6000803e3d6000fd5b505050506040513d6020811015620014f957600080fd5b810190808051906020019092919050505073ffffffffffffffffffffffffffffffffffffffff161462001578576040517f08c379a00000000000000000000000000000000000000000000000000000000081526004018080602001828103825260298152602001806200874f6029913960400191505060405180910390fd5b6000603460009054906101000a900473ffffffffffffffffffffffffffffffffffffffff1673ffffffffffffffffffffffffffffffffffffffff1663ed6ff7606040518163ffffffff1660e01b815260040160206040518083038186803b158015620015e357600080fd5b505afa158015620015f8573d6000803e3d6000fd5b505050506040513d60208110156200160f57600080fd5b810190808051906020019092919050505090506000603460009054906101000a900473ffffffffffffffffffffffffffffffffffffffff168785888860405162001659906200452a565b808673ffffffffffffffffffffffffffffffffffffffff1673ffffffffffffffffffffffffffffffffffffffff1681526020018573ffffffffffffffffffffffffffffffffffffffff1673ffffffffffffffffffffffffffffffffffffffff1681526020018460ff1660ff1681526020018060200180602001838103835285818151815260200191508051906020019080838360005b838110156200170c578082015181840152602081019050620016ef565b50505050905090810190601f1680156200173a5780820380516001836020036101000a031916815260200191505b50838103825284818151815260200191508051906020019080838360005b838110156200177557808201518184015260208101905062001758565b50505050905090810190601f168015620017a35780820380516001836020036101000a031916815260200191505b50975050505050505050604051809103906000f080158015620017ca573d6000803e3d6000fd5b5090508173ffffffffffffffffffffffffffffffffffffffff166345330a40888387876040518563ffffffff1660e01b8152600401808573ffffffffffffffffffffffffffffffffffffffff1673ffffffffffffffffffffffffffffffffffffffff1681526020018473ffffffffffffffffffffffffffffffffffffffff1673ffffffffffffffffffffffffffffffffffffffff1681526020018360ff1681526020018273ffffffffffffffffffffffffffffffffffffffff1673ffffffffffffffffffffffffffffffffffffffff168152602001945050505050600060405180830381600087803b158015620018c057600080fd5b505af1158015620018d5573d6000803e3d6000fd5b505050508073ffffffffffffffffffffffffffffffffffffffff168773ffffffffffffffffffffffffffffffffffffffff167f1d9fcd0dc935b4778d5af97f55c4d7b2553257382f1ef25c412114c8eeebd88e85604051808273ffffffffffffffffffffffffffffffffffffffff1673ffffffffffffffffffffffffffffffffffffffff16815260200191505060405180910390a350505050505050565b3373ffffffffffffffffffffffffffffffffffffffff16603460009054906101000a900473ffffffffffffffffffffffffffffffffffffffff1673ffffffffffffffffffffffffffffffffffffffff166333128d596040518163ffffffff1660e01b815260040160206040518083038186803b158015620019f357600080fd5b505afa15801562001a08573d6000803e3d6000fd5b505050506040513d602081101562001a1f57600080fd5b810190808051906020019092919050505073ffffffffffffffffffffffffffffffffffffffff161462001a9e576040517f08c379a00000000000000000000000000000000000000000000000000000000081526004018080602001828103825260298152602001806200874f6029913960400191505060405180910390fd5b6000603460009054906101000a900473ffffffffffffffffffffffffffffffffffffffff1673ffffffffffffffffffffffffffffffffffffffff1663ed6ff7606040518163ffffffff1660e01b815260040160206040518083038186803b15801562001b0957600080fd5b505afa15801562001b1e573d6000803e3d6000fd5b505050506040513d602081101562001b3557600080fd5b8101908080519060200190929190505050905060008173ffffffffffffffffffffffffffffffffffffffff1663c33cfd90846040518263ffffffff1660e01b8152600401808273ffffffffffffffffffffffffffffffffffffffff1673ffffffffffffffffffffffffffffffffffffffff16815260200191505060206040518083038186803b15801562001bc857600080fd5b505afa15801562001bdd573d6000803e3d6000fd5b505050506040513d602081101562001bf457600080fd5b81019080805190602001909291905050501462001c5d576040517f08c379a000000000000000000000000000000000000000000000000000000000815260040180806020018281038252602a815260200180620087a6602a913960400191505060405180910390fd5b8073ffffffffffffffffffffffffffffffffffffffff16633e72a454836040518263ffffffff1660e01b8152600401808273ffffffffffffffffffffffffffffffffffffffff1673ffffffffffffffffffffffffffffffffffffffff168152602001915050600060405180830381600087803b15801562001cdd57600080fd5b505af115801562001cf2573d6000803e3d6000fd5b505050508173ffffffffffffffffffffffffffffffffffffffff167f6f60cf8bd0f218cabe1ea3150bd07b0b758c35c4cfdf7138017a283e65564d5e60405160405180910390a25050565b3373ffffffffffffffffffffffffffffffffffffffff16603460009054906101000a900473ffffffffffffffffffffffffffffffffffffffff1673ffffffffffffffffffffffffffffffffffffffff166333128d596040518163ffffffff1660e01b815260040160206040518083038186803b15801562001dbd57600080fd5b505afa15801562001dd2573d6000803e3d6000fd5b505050506040513d602081101562001de957600080fd5b810190808051906020019092919050505073ffffffffffffffffffffffffffffffffffffffff161462001e68576040517f08c379a00000000000000000000000000000000000000000000000000000000081526004018080602001828103825260298152602001806200874f6029913960400191505060405180910390fd5b6000603460009054906101000a900473ffffffffffffffffffffffffffffffffffffffff1673ffffffffffffffffffffffffffffffffffffffff1663ed6ff7606040518163ffffffff1660e01b815260040160206040518083038186803b15801562001ed357600080fd5b505afa15801562001ee8573d6000803e3d6000fd5b505050506040513d602081101562001eff57600080fd5b810190808051906020019092919050505090508073ffffffffffffffffffffffffffffffffffffffff166366bbd92884846040518363ffffffff1660e01b8152600401808373ffffffffffffffffffffffffffffffffffffffff1673ffffffffffffffffffffffffffffffffffffffff16815260200182815260200192505050600060405180830381600087803b15801562001f9a57600080fd5b505af115801562001faf573d6000803e3d6000fd5b505050507f2e73b7f1df792712003e6859f940c1e8711c3f1329474771fee71d2ec11631298383604051808373ffffffffffffffffffffffffffffffffffffffff1673ffffffffffffffffffffffffffffffffffffffff1681526020018281526020019250505060405180910390a1505050565b3373ffffffffffffffffffffffffffffffffffffffff16603460009054906101000a900473ffffffffffffffffffffffffffffffffffffffff1673ffffffffffffffffffffffffffffffffffffffff166333128d596040518163ffffffff1660e01b815260040160206040518083038186803b158015620020a357600080fd5b505afa158015620020b8573d6000803e3d6000fd5b505050506040513d6020811015620020cf57600080fd5b810190808051906020019092919050505073ffffffffffffffffffffffffffffffffffffffff16146200214e576040517f08c379a00000000000000000000000000000000000000000000000000000000081526004018080602001828103825260298152602001806200874f6029913960400191505060405180910390fd5b6000603460009054906101000a900473ffffffffffffffffffffffffffffffffffffffff1673ffffffffffffffffffffffffffffffffffffffff1663ed6ff7606040518163ffffffff1660e01b815260040160206040518083038186803b158015620021b957600080fd5b505afa158015620021ce573d6000803e3d6000fd5b505050506040513d6020811015620021e557600080fd5b810190808051906020019092919050505090508073ffffffffffffffffffffffffffffffffffffffff166370fb84f484846040518363ffffffff1660e01b8152600401808373ffffffffffffffffffffffffffffffffffffffff1673ffffffffffffffffffffffffffffffffffffffff16815260200182815260200192505050600060405180830381600087803b1580156200228057600080fd5b505af115801562002295573d6000803e3d6000fd5b505050507fe3ba662f7011e701056a43e8cf832242322eeff01453e7a72d01ec2af36d9aec8383604051808373ffffffffffffffffffffffffffffffffffffffff1673ffffffffffffffffffffffffffffffffffffffff1681526020018281526020019250505060405180910390a1505050565b3373ffffffffffffffffffffffffffffffffffffffff16603460009054906101000a900473ffffffffffffffffffffffffffffffffffffffff1673ffffffffffffffffffffffffffffffffffffffff166333128d596040518163ffffffff1660e01b815260040160206040518083038186803b1580156200238957600080fd5b505afa1580156200239e573d6000803e3d6000fd5b505050506040513d6020811015620023b557600080fd5b810190808051906020019092919050505073ffffffffffffffffffffffffffffffffffffffff161462002434576040517f08c379a00000000000000000000000000000000000000000000000000000000081526004018080602001828103825260298152602001806200874f6029913960400191505060405180910390fd5b6000603460009054906101000a900473ffffffffffffffffffffffffffffffffffffffff1673ffffffffffffffffffffffffffffffffffffffff1663ed6ff7606040518163ffffffff1660e01b815260040160206040518083038186803b1580156200249f57600080fd5b505afa158015620024b4573d6000803e3d6000fd5b505050506040513d6020811015620024cb57600080fd5b810190808051906020019092919050505090508073ffffffffffffffffffffffffffffffffffffffff16637aca76eb836040518263ffffffff1660e01b8152600401808273ffffffffffffffffffffffffffffffffffffffff1673ffffffffffffffffffffffffffffffffffffffff168152602001915050600060405180830381600087803b1580156200255e57600080fd5b505af115801562002573573d6000803e3d6000fd5b505050508173ffffffffffffffffffffffffffffffffffffffff167fda5cdb66c77023db6abe5226a4d4a40c3b8e768012f4ff4e446f62f60127fc5660405160405180910390a25050565b600181565b603460009054906101000a900473ffffffffffffffffffffffffffffffffffffffff1681565b3373ffffffffffffffffffffffffffffffffffffffff16603460009054906101000a900473ffffffffffffffffffffffffffffffffffffffff1673ffffffffffffffffffffffffffffffffffffffff166333128d596040518163ffffffff1660e01b815260040160206040518083038186803b1580156200266957600080fd5b505afa1580156200267e573d6000803e3d6000fd5b505050506040513d60208110156200269557600080fd5b810190808051906020019092919050505073ffffffffffffffffffffffffffffffffffffffff161462002714576040517f08c379a00000000000000000000000000000000000000000000000000000000081526004018080602001828103825260298152602001806200874f6029913960400191505060405180910390fd5b6000603460009054906101000a900473ffffffffffffffffffffffffffffffffffffffff1673ffffffffffffffffffffffffffffffffffffffff1663ed6ff7606040518163ffffffff1660e01b815260040160206040518083038186803b1580156200277f57600080fd5b505afa15801562002794573d6000803e3d6000fd5b505050506040513d6020811015620027ab57600080fd5b810190808051906020019092919050505090508073ffffffffffffffffffffffffffffffffffffffff1663a5bc826c868686866040518563ffffffff1660e01b8152600401808573ffffffffffffffffffffffffffffffffffffffff1673ffffffffffffffffffffffffffffffffffffffff168152602001848152602001838152602001828152602001945050505050600060405180830381600087803b1580156200285657600080fd5b505af11580156200286b573d6000803e3d6000fd5b505050508473ffffffffffffffffffffffffffffffffffffffff167fdfe62f53e7707d64f99bca15d2bdf3facc4074bc047e7dec2ea130300e99274485858560405180848152602001838152602001828152602001935050505060405180910390a25050505050565b3373ffffffffffffffffffffffffffffffffffffffff16603460009054906101000a900473ffffffffffffffffffffffffffffffffffffffff1673ffffffffffffffffffffffffffffffffffffffff166333128d596040518163ffffffff1660e01b815260040160206040518083038186803b1580156200295457600080fd5b505afa15801562002969573d6000803e3d6000fd5b505050506040513d60208110156200298057600080fd5b810190808051906020019092919050505073ffffffffffffffffffffffffffffffffffffffff1614620029ff576040517f08c379a00000000000000000000000000000000000000000000000000000000081526004018080602001828103825260298152602001806200874f6029913960400191505060405180910390fd5b6000603460009054906101000a900473ffffffffffffffffffffffffffffffffffffffff1673ffffffffffffffffffffffffffffffffffffffff1663ed6ff7606040518163ffffffff1660e01b815260040160206040518083038186803b15801562002a6a57600080fd5b505afa15801562002a7f573d6000803e3d6000fd5b505050506040513d602081101562002a9657600080fd5b810190808051906020019092919050505090508073ffffffffffffffffffffffffffffffffffffffff1663a8dc0f45836040518263ffffffff1660e01b8152600401808273ffffffffffffffffffffffffffffffffffffffff1673ffffffffffffffffffffffffffffffffffffffff168152602001915050600060405180830381600087803b15801562002b2957600080fd5b505af115801562002b3e573d6000803e3d6000fd5b505050508173ffffffffffffffffffffffffffffffffffffffff167fe9a7e5fd4fc8ea18e602350324bf48e8f05d12434af0ce0be05743e6a5fdcb9e60405160405180910390a25050565b3373ffffffffffffffffffffffffffffffffffffffff16603460009054906101000a900473ffffffffffffffffffffffffffffffffffffffff1673ffffffffffffffffffffffffffffffffffffffff166333128d596040518163ffffffff1660e01b815260040160206040518083038186803b15801562002c0957600080fd5b505afa15801562002c1e573d6000803e3d6000fd5b505050506040513d602081101562002c3557600080fd5b810190808051906020019092919050505073ffffffffffffffffffffffffffffffffffffffff161462002cb4576040517f08c379a00000000000000000000000000000000000000000000000000000000081526004018080602001828103825260298152602001806200874f6029913960400191505060405180910390fd5b6000603460009054906101000a900473ffffffffffffffffffffffffffffffffffffffff1673ffffffffffffffffffffffffffffffffffffffff1663ed6ff7606040518163ffffffff1660e01b815260040160206040518083038186803b15801562002d1f57600080fd5b505afa15801562002d34573d6000803e3d6000fd5b505050506040513d602081101562002d4b57600080fd5b810190808051906020019092919050505090508073ffffffffffffffffffffffffffffffffffffffff1663b75d6f34836040518263ffffffff1660e01b8152600401808273ffffffffffffffffffffffffffffffffffffffff1673ffffffffffffffffffffffffffffffffffffffff168152602001915050600060405180830381600087803b15801562002dde57600080fd5b505af115801562002df3573d6000803e3d6000fd5b505050508173ffffffffffffffffffffffffffffffffffffffff167f35b80cd8ea3440e9a8454f116fa658b858da1b64c86c48451f4559cefcdfb56c60405160405180910390a25050565b3373ffffffffffffffffffffffffffffffffffffffff16603460009054906101000a900473ffffffffffffffffffffffffffffffffffffffff1673ffffffffffffffffffffffffffffffffffffffff166333128d596040518163ffffffff1660e01b815260040160206040518083038186803b15801562002ebe57600080fd5b505afa15801562002ed3573d6000803e3d6000fd5b505050506040513d602081101562002eea57600080fd5b810190808051906020019092919050505073ffffffffffffffffffffffffffffffffffffffff161462002f69576040517f08c379a00000000000000000000000000000000000000000000000000000000081526004018080602001828103825260298152602001806200874f6029913960400191505060405180910390fd5b6000603460009054906101000a900473ffffffffffffffffffffffffffffffffffffffff1673ffffffffffffffffffffffffffffffffffffffff1663ed6ff7606040518163ffffffff1660e01b815260040160206040518083038186803b15801562002fd457600080fd5b505afa15801562002fe9573d6000803e3d6000fd5b505050506040513d60208110156200300057600080fd5b810190808051906020019092919050505090508073ffffffffffffffffffffffffffffffffffffffff1663b8c0f745836040518263ffffffff1660e01b8152600401808273ffffffffffffffffffffffffffffffffffffffff1673ffffffffffffffffffffffffffffffffffffffff168152602001915050600060405180830381600087803b1580156200309357600080fd5b505af1158015620030a8573d6000803e3d6000fd5b505050508173ffffffffffffffffffffffffffffffffffffffff167f8bbf35441ac2c607ddecadd3d8ee58636d32f217fad201fb2655581502dd84e360405160405180910390a25050565b6000620030ff62004510565b9050600160009054906101000a900460ff16806200312357506200312262004519565b5b8062003130575060005481115b62003187576040517f08c379a000000000000000000000000000000000000000000000000000000000815260040180806020018281038252602e81526020018062008778602e913960400191505060405180910390fd5b6000600160009054906101000a900460ff161590508015620031c55760018060006101000a81548160ff021916908315150217905550816000819055505b82603460006101000a81548173ffffffffffffffffffffffffffffffffffffffff021916908373ffffffffffffffffffffffffffffffffffffffff160217905550801562003229576000600160006101000a81548160ff0219169083151502179055505b505050565b3373ffffffffffffffffffffffffffffffffffffffff16603460009054906101000a900473ffffffffffffffffffffffffffffffffffffffff1673ffffffffffffffffffffffffffffffffffffffff166333128d596040518163ffffffff1660e01b815260040160206040518083038186803b158015620032ae57600080fd5b505afa158015620032c3573d6000803e3d6000fd5b505050506040513d6020811015620032da57600080fd5b810190808051906020019092919050505073ffffffffffffffffffffffffffffffffffffffff161462003359576040517f08c379a00000000000000000000000000000000000000000000000000000000081526004018080602001828103825260298152602001806200874f6029913960400191505060405180910390fd5b6000603460009054906101000a900473ffffffffffffffffffffffffffffffffffffffff1673ffffffffffffffffffffffffffffffffffffffff1663ed6ff7606040518163ffffffff1660e01b815260040160206040518083038186803b158015620033c457600080fd5b505afa158015620033d9573d6000803e3d6000fd5b505050506040513d6020811015620033f057600080fd5b810190808051906020019092919050505090508073ffffffffffffffffffffffffffffffffffffffff1663d06e2ec1836040518263ffffffff1660e01b8152600401808273ffffffffffffffffffffffffffffffffffffffff1673ffffffffffffffffffffffffffffffffffffffff168152602001915050600060405180830381600087803b1580156200348357600080fd5b505af115801562003498573d6000803e3d6000fd5b505050508173ffffffffffffffffffffffffffffffffffffffff167f19dbf059e4d3a0cb998d4328b7b991bbe312827eeb053d8ff63edf33158e01db60405160405180910390a25050565b3373ffffffffffffffffffffffffffffffffffffffff16603460009054906101000a900473ffffffffffffffffffffffffffffffffffffffff1673ffffffffffffffffffffffffffffffffffffffff166333128d596040518163ffffffff1660e01b815260040160206040518083038186803b1580156200356357600080fd5b505afa15801562003578573d6000803e3d6000fd5b505050506040513d60208110156200358f57600080fd5b810190808051906020019092919050505073ffffffffffffffffffffffffffffffffffffffff16146200360e576040517f08c379a00000000000000000000000000000000000000000000000000000000081526004018080602001828103825260298152602001806200874f6029913960400191505060405180910390fd5b6000603460009054906101000a900473ffffffffffffffffffffffffffffffffffffffff1673ffffffffffffffffffffffffffffffffffffffff1663ed6ff7606040518163ffffffff1660e01b815260040160206040518083038186803b1580156200367957600080fd5b505afa1580156200368e573d6000803e3d6000fd5b505050506040513d6020811015620036a557600080fd5b810190808051906020019092919050505090508073ffffffffffffffffffffffffffffffffffffffff1663d466016f84846040518363ffffffff1660e01b8152600401808373ffffffffffffffffffffffffffffffffffffffff1673ffffffffffffffffffffffffffffffffffffffff16815260200182815260200192505050600060405180830381600087803b1580156200374057600080fd5b505af115801562003755573d6000803e3d6000fd5b505050507fda47540c7f7fd5a68c3285f3bb708f322424f948f41df6f51622fa24b39686648383604051808373ffffffffffffffffffffffffffffffffffffffff1673ffffffffffffffffffffffffffffffffffffffff1681526020018281526020019250505060405180910390a1505050565b3373ffffffffffffffffffffffffffffffffffffffff16603460009054906101000a900473ffffffffffffffffffffffffffffffffffffffff1673ffffffffffffffffffffffffffffffffffffffff166333128d596040518163ffffffff1660e01b815260040160206040518083038186803b1580156200384957600080fd5b505afa1580156200385e573d6000803e3d6000fd5b505050506040513d60208110156200387557600080fd5b810190808051906020019092919050505073ffffffffffffffffffffffffffffffffffffffff1614620038f4576040517f08c379a00000000000000000000000000000000000000000000000000000000081526004018080602001828103825260298152602001806200874f6029913960400191505060405180910390fd5b6000603460009054906101000a900473ffffffffffffffffffffffffffffffffffffffff1673ffffffffffffffffffffffffffffffffffffffff1663ed6ff7606040518163ffffffff1660e01b815260040160206040518083038186803b1580156200395f57600080fd5b505afa15801562003974573d6000803e3d6000fd5b505050506040513d60208110156200398b57600080fd5b810190808051906020019092919050505090508073ffffffffffffffffffffffffffffffffffffffff1663dae4c4e7836040518263ffffffff1660e01b8152600401808273ffffffffffffffffffffffffffffffffffffffff1673ffffffffffffffffffffffffffffffffffffffff168152602001915050600060405180830381600087803b15801562003a1e57600080fd5b505af115801562003a33573d6000803e3d6000fd5b505050508173ffffffffffffffffffffffffffffffffffffffff167f8dee2b2f3e98319ae6347eda521788f73f4086c9be9a594942b370b137fb8cb160405160405180910390a25050565b3373ffffffffffffffffffffffffffffffffffffffff16603460009054906101000a900473ffffffffffffffffffffffffffffffffffffffff1673ffffffffffffffffffffffffffffffffffffffff166333128d596040518163ffffffff1660e01b815260040160206040518083038186803b15801562003afe57600080fd5b505afa15801562003b13573d6000803e3d6000fd5b505050506040513d602081101562003b2a57600080fd5b810190808051906020019092919050505073ffffffffffffffffffffffffffffffffffffffff161462003ba9576040517f08c379a00000000000000000000000000000000000000000000000000000000081526004018080602001828103825260298152602001806200874f6029913960400191505060405180910390fd5b6000603460009054906101000a900473ffffffffffffffffffffffffffffffffffffffff1673ffffffffffffffffffffffffffffffffffffffff1663ed6ff7606040518163ffffffff1660e01b815260040160206040518083038186803b15801562003c1457600080fd5b505afa15801562003c29573d6000803e3d6000fd5b505050506040513d602081101562003c4057600080fd5b810190808051906020019092919050505090508073ffffffffffffffffffffffffffffffffffffffff1663646810836040518163ffffffff1660e01b8152600401600060405180830381600087803b15801562003c9c57600080fd5b505af115801562003cb1573d6000803e3d6000fd5b5050505050565b3373ffffffffffffffffffffffffffffffffffffffff16603460009054906101000a900473ffffffffffffffffffffffffffffffffffffffff1673ffffffffffffffffffffffffffffffffffffffff166333128d596040518163ffffffff1660e01b815260040160206040518083038186803b15801562003d3857600080fd5b505afa15801562003d4d573d6000803e3d6000fd5b505050506040513d602081101562003d6457600080fd5b810190808051906020019092919050505073ffffffffffffffffffffffffffffffffffffffff161462003de3576040517f08c379a00000000000000000000000000000000000000000000000000000000081526004018080602001828103825260298152602001806200874f6029913960400191505060405180910390fd5b6000603460009054906101000a900473ffffffffffffffffffffffffffffffffffffffff1673ffffffffffffffffffffffffffffffffffffffff1663ed6ff7606040518163ffffffff1660e01b815260040160206040518083038186803b15801562003e4e57600080fd5b505afa15801562003e63573d6000803e3d6000fd5b505050506040513d602081101562003e7a57600080fd5b810190808051906020019092919050505090508073ffffffffffffffffffffffffffffffffffffffff1663e8ae2f5b836040518263ffffffff1660e01b8152600401808273ffffffffffffffffffffffffffffffffffffffff1673ffffffffffffffffffffffffffffffffffffffff168152602001915050600060405180830381600087803b15801562003f0d57600080fd5b505af115801562003f22573d6000803e3d6000fd5b505050508173ffffffffffffffffffffffffffffffffffffffff167f9cc75e4cafc9a556a369bc53468649075680eb554d225d5918f199453824796d60405160405180910390a25050565b3373ffffffffffffffffffffffffffffffffffffffff16603460009054906101000a900473ffffffffffffffffffffffffffffffffffffffff1673ffffffffffffffffffffffffffffffffffffffff166333128d596040518163ffffffff1660e01b815260040160206040518083038186803b15801562003fed57600080fd5b505afa15801562004002573d6000803e3d6000fd5b505050506040513d60208110156200401957600080fd5b810190808051906020019092919050505073ffffffffffffffffffffffffffffffffffffffff161462004098576040517f08c379a00000000000000000000000000000000000000000000000000000000081526004018080602001828103825260298152602001806200874f6029913960400191505060405180910390fd5b6000603460009054906101000a900473ffffffffffffffffffffffffffffffffffffffff1673ffffffffffffffffffffffffffffffffffffffff1663ed6ff7606040518163ffffffff1660e01b815260040160206040518083038186803b1580156200410357600080fd5b505afa15801562004118573d6000803e3d6000fd5b505050506040513d60208110156200412f57600080fd5b810190808051906020019092919050505090508073ffffffffffffffffffffffffffffffffffffffff1663eede87c184846040518363ffffffff1660e01b8152600401808373ffffffffffffffffffffffffffffffffffffffff1673ffffffffffffffffffffffffffffffffffffffff1681526020018215151515815260200192505050600060405180830381600087803b158015620041ce57600080fd5b505af1158015620041e3573d6000803e3d6000fd5b505050507fab2f7f9e5ca2772fafa94f355c1842a80ae6b9e41f83083098d81f67d7a0b5088383604051808373ffffffffffffffffffffffffffffffffffffffff1673ffffffffffffffffffffffffffffffffffffffff168152602001821515151581526020019250505060405180910390a1505050565b3373ffffffffffffffffffffffffffffffffffffffff16603460009054906101000a900473ffffffffffffffffffffffffffffffffffffffff1673ffffffffffffffffffffffffffffffffffffffff166333128d596040518163ffffffff1660e01b815260040160206040518083038186803b158015620042db57600080fd5b505afa158015620042f0573d6000803e3d6000fd5b505050506040513d60208110156200430757600080fd5b810190808051906020019092919050505073ffffffffffffffffffffffffffffffffffffffff161462004386576040517f08c379a00000000000000000000000000000000000000000000000000000000081526004018080602001828103825260298152602001806200874f6029913960400191505060405180910390fd5b6000603460009054906101000a900473ffffffffffffffffffffffffffffffffffffffff1673ffffffffffffffffffffffffffffffffffffffff1663ed6ff7606040518163ffffffff1660e01b815260040160206040518083038186803b158015620043f157600080fd5b505afa15801562004406573d6000803e3d6000fd5b505050506040513d60208110156200441d57600080fd5b810190808051906020019092919050505090508073ffffffffffffffffffffffffffffffffffffffff1663ef1f9373836040518263ffffffff1660e01b8152600401808273ffffffffffffffffffffffffffffffffffffffff1673ffffffffffffffffffffffffffffffffffffffff168152602001915050600060405180830381600087803b158015620044b057600080fd5b505af1158015620044c5573d6000803e3d6000fd5b505050508173ffffffffffffffffffffffffffffffffffffffff167f995959c2ceab6ce20e8cd89c904e449fd3e21918a0f420c9ec9340595585526b60405160405180910390a25050565b60006001905090565b600080303b90506000811491505090565b61421680620045398339019056fe60806040523480156200001157600080fd5b506040516200421638038062004216833981810160405260a08110156200003757600080fd5b81019080805190602001909291908051906020019092919080519060200190929190805160405193929190846401000000008211156200007657600080fd5b838201915060208201858111156200008d57600080fd5b8251866001820283011164010000000082111715620000ab57600080fd5b8083526020830192505050908051906020019080838360005b83811015620000e1578082015181840152602081019050620000c4565b50505050905090810190601f1680156200010f5780820380516001836020036101000a031916815260200191505b50604052602001805160405193929190846401000000008211156200013357600080fd5b838201915060208201858111156200014a57600080fd5b82518660018202830111640100000000821117156200016857600080fd5b8083526020830192505050908051906020019080838360005b838110156200019e57808201518184015260208101905062000181565b50505050905090810190601f168015620001cc5780820380516001836020036101000a031916815260200191505b506040525050508181848260039080519060200190620001ee92919062000565565b5081600490805190602001906200020792919062000565565b5080600560006101000a81548160ff021916908360ff16021790555050505084600a60006101000a81548173ffffffffffffffffffffffffffffffffffffffff021916908373ffffffffffffffffffffffffffffffffffffffff160217905550600a60009054906101000a900473ffffffffffffffffffffffffffffffffffffffff1673ffffffffffffffffffffffffffffffffffffffff1663ed6ff7606040518163ffffffff1660e01b815260040160206040518083038186803b158015620002d057600080fd5b505afa158015620002e5573d6000803e3d6000fd5b505050506040513d6020811015620002fc57600080fd5b8101908080519060200190929190505050600b60006101000a81548173ffffffffffffffffffffffffffffffffffffffff021916908373ffffffffffffffffffffffffffffffffffffffff160217905550600a60009054906101000a900473ffffffffffffffffffffffffffffffffffffffff1673ffffffffffffffffffffffffffffffffffffffff16630261bf8b6040518163ffffffff1660e01b815260040160206040518083038186803b158015620003b657600080fd5b505afa158015620003cb573d6000803e3d6000fd5b505050506040513d6020811015620003e257600080fd5b8101908080519060200190929190505050600c60006101000a81548173ffffffffffffffffffffffffffffffffffffffff021916908373ffffffffffffffffffffffffffffffffffffffff160217905550600a60009054906101000a900473ffffffffffffffffffffffffffffffffffffffff1673ffffffffffffffffffffffffffffffffffffffff16632f58b80d6040518163ffffffff1660e01b815260040160206040518083038186803b1580156200049c57600080fd5b505afa158015620004b1573d6000803e3d6000fd5b505050506040513d6020811015620004c857600080fd5b8101908080519060200190929190505050600d60006101000a81548173ffffffffffffffffffffffffffffffffffffffff021916908373ffffffffffffffffffffffffffffffffffffffff16021790555083600560016101000a81548173ffffffffffffffffffffffffffffffffffffffff021916908373ffffffffffffffffffffffffffffffffffffffff160217905550505050505062000614565b828054600181600116156101000203166002900490600052602060002090601f016020900481019282601f10620005a857805160ff1916838001178555620005d9565b82800160010185558215620005d9579182015b82811115620005d8578251825591602001919060010190620005bb565b5b509050620005e89190620005ec565b5090565b6200061191905b808211156200060d576000816000905550600101620005f3565b5090565b90565b613bf280620006246000396000f3fe608060405234801561001057600080fd5b506004361061016e5760003560e01c80635eae177c116100ce578063a9059cbb11610087578063a9059cbb146107fd578063c634dfaa14610863578063d0fc81d2146108bb578063db006a75146108d9578063dd62ed3e14610907578063ee9907a41461097f578063f866c319146109d75761016e565b80635eae177c146105be57806370a082311461062457806389d1a0fc1461067c57806394362e8b146106c657806395d89b4114610714578063a457c2d7146107975761016e565b806323b872dd1161012b57806323b872dd1461035a57806330d7e198146103e0578063313ce567146103fe578063325a9b131461042257806339509351146104865780633edb7cb8146104ec578063445e80101461053a5761016e565b806306fdde0314610173578063095ea7b3146101f65780630e49072d1461025c57806312c87c2d146102a057806318160ddd146102e45780631d51e7cf14610302575b600080fd5b61017b610a45565b6040518080602001828103825283818151815260200191508051906020019080838360005b838110156101bb5780820151818401526020810190506101a0565b50505050905090810190601f1680156101e85780820380516001836020036101000a031916815260200191505b509250505060405180910390f35b6102426004803603604081101561020c57600080fd5b81019080803573ffffffffffffffffffffffffffffffffffffffff16906020019092919080359060200190929190505050610ae7565b604051808215151515815260200191505060405180910390f35b61029e6004803603602081101561027257600080fd5b81019080803573ffffffffffffffffffffffffffffffffffffffff169060200190929190505050610b05565b005b6102e2600480360360208110156102b657600080fd5b81019080803573ffffffffffffffffffffffffffffffffffffffff169060200190929190505050610b12565b005b6102ec610c72565b6040518082815260200191505060405180910390f35b6103446004803603602081101561031857600080fd5b81019080803573ffffffffffffffffffffffffffffffffffffffff169060200190929190505050610db7565b6040518082815260200191505060405180910390f35b6103c66004803603606081101561037057600080fd5b81019080803573ffffffffffffffffffffffffffffffffffffffff169060200190929190803573ffffffffffffffffffffffffffffffffffffffff16906020019092919080359060200190929190505050610e00565b604051808215151515815260200191505060405180910390f35b6103e8610ed9565b6040518082815260200191505060405180910390f35b610406610ee8565b604051808260ff1660ff16815260200191505060405180910390f35b6104846004803603604081101561043857600080fd5b81019080803573ffffffffffffffffffffffffffffffffffffffff169060200190929190803573ffffffffffffffffffffffffffffffffffffffff169060200190929190505050610eff565b005b6104d26004803603604081101561049c57600080fd5b81019080803573ffffffffffffffffffffffffffffffffffffffff16906020019092919080359060200190929190505050610ff0565b604051808215151515815260200191505060405180910390f35b6105386004803603604081101561050257600080fd5b81019080803573ffffffffffffffffffffffffffffffffffffffff169060200190929190803590602001909291905050506110a3565b005b61057c6004803603602081101561055057600080fd5b81019080803573ffffffffffffffffffffffffffffffffffffffff16906020019092919050505061121b565b604051808273ffffffffffffffffffffffffffffffffffffffff1673ffffffffffffffffffffffffffffffffffffffff16815260200191505060405180910390f35b61060a600480360360408110156105d457600080fd5b81019080803573ffffffffffffffffffffffffffffffffffffffff16906020019092919080359060200190929190505050611284565b604051808215151515815260200191505060405180910390f35b6106666004803603602081101561063a57600080fd5b81019080803573ffffffffffffffffffffffffffffffffffffffff1690602001909291905050506113c6565b6040518082815260200191505060405180910390f35b61068461153b565b604051808273ffffffffffffffffffffffffffffffffffffffff1673ffffffffffffffffffffffffffffffffffffffff16815260200191505060405180910390f35b610712600480360360408110156106dc57600080fd5b81019080803573ffffffffffffffffffffffffffffffffffffffff16906020019092919080359060200190929190505050611561565b005b61071c6116ae565b6040518080602001828103825283818151815260200191508051906020019080838360005b8381101561075c578082015181840152602081019050610741565b50505050905090810190601f1680156107895780820380516001836020036101000a031916815260200191505b509250505060405180910390f35b6107e3600480360360408110156107ad57600080fd5b81019080803573ffffffffffffffffffffffffffffffffffffffff16906020019092919080359060200190929190505050611750565b604051808215151515815260200191505060405180910390f35b6108496004803603604081101561081357600080fd5b81019080803573ffffffffffffffffffffffffffffffffffffffff1690602001909291908035906020019092919050505061181d565b604051808215151515815260200191505060405180910390f35b6108a56004803603602081101561087957600080fd5b81019080803573ffffffffffffffffffffffffffffffffffffffff16906020019092919050505061183b565b6040518082815260200191505060405180910390f35b6108c361184d565b6040518082815260200191505060405180910390f35b610905600480360360208110156108ef57600080fd5b8101908080359060200190929190505050611871565b005b6109696004803603604081101561091d57600080fd5b81019080803573ffffffffffffffffffffffffffffffffffffffff169060200190929190803573ffffffffffffffffffffffffffffffffffffffff169060200190929190505050611bf0565b6040518082815260200191505060405180910390f35b6109c16004803603602081101561099557600080fd5b81019080803573ffffffffffffffffffffffffffffffffffffffff169060200190929190505050611c77565b6040518082815260200191505060405180910390f35b610a43600480360360608110156109ed57600080fd5b81019080803573ffffffffffffffffffffffffffffffffffffffff169060200190929190803573ffffffffffffffffffffffffffffffffffffffff16906020019092919080359060200190929190505050611cc0565b005b606060038054600181600116156101000203166002900480601f016020809104026020016040519081016040528092919081815260200182805460018160011615610100020316600290048015610add5780601f10610ab257610100808354040283529160200191610add565b820191906000526020600020905b815481529060010190602001808311610ac057829003601f168201915b5050505050905090565b6000610afb610af4611d76565b8484611d7e565b6001905092915050565b610b0f3382611f75565b50565b3373ffffffffffffffffffffffffffffffffffffffff168173ffffffffffffffffffffffffffffffffffffffff161415610b97576040517f08c379a00000000000000000000000000000000000000000000000000000000081526004018080602001828103825260258152602001806139b96025913960400191505060405180910390fd5b80600960003373ffffffffffffffffffffffffffffffffffffffff1673ffffffffffffffffffffffffffffffffffffffff16815260200190815260200160002060006101000a81548173ffffffffffffffffffffffffffffffffffffffff021916908373ffffffffffffffffffffffffffffffffffffffff1602179055508073ffffffffffffffffffffffffffffffffffffffff163373ffffffffffffffffffffffffffffffffffffffff167fc2d6a42a9d5273283f73009a07aacfb043f2f91173a8d9d33b504afe898db08b60405160405180910390a350565b600080610c7d61234b565b90506000811415610c92576000915050610db4565b610db0610dab600b60009054906101000a900473ffffffffffffffffffffffffffffffffffffffff1673ffffffffffffffffffffffffffffffffffffffff1663d15e0053600560019054906101000a900473ffffffffffffffffffffffffffffffffffffffff166040518263ffffffff1660e01b8152600401808273ffffffffffffffffffffffffffffffffffffffff1673ffffffffffffffffffffffffffffffffffffffff16815260200191505060206040518083038186803b158015610d5957600080fd5b505afa158015610d6d573d6000803e3d6000fd5b505050506040513d6020811015610d8357600080fd5b8101908080519060200190929190505050610d9d84612355565b61237590919063ffffffff16565b6123d8565b9150505b90565b6000600860008373ffffffffffffffffffffffffffffffffffffffff1673ffffffffffffffffffffffffffffffffffffffff168152602001908152602001600020549050919050565b6000610e0d84848461241d565b610ece84610e19611d76565b610ec9856040518060600160405280602881526020016139ff60289139600160008b73ffffffffffffffffffffffffffffffffffffffff1673ffffffffffffffffffffffffffffffffffffffff1681526020019081526020016000206000610e7f611d76565b73ffffffffffffffffffffffffffffffffffffffff1673ffffffffffffffffffffffffffffffffffffffff168152602001908152602001600020546124ad9092919063ffffffff16565b611d7e565b600190509392505050565b6000610ee361234b565b905090565b6000600560009054906101000a900460ff16905090565b600960008373ffffffffffffffffffffffffffffffffffffffff1673ffffffffffffffffffffffffffffffffffffffff16815260200190815260200160002060009054906101000a900473ffffffffffffffffffffffffffffffffffffffff1673ffffffffffffffffffffffffffffffffffffffff163373ffffffffffffffffffffffffffffffffffffffff1614610fe2576040517f08c379a000000000000000000000000000000000000000000000000000000000815260040180806020018281038252603a815260200180613b84603a913960400191505060405180910390fd5b610fec8282611f75565b5050565b6000611099610ffd611d76565b84611094856001600061100e611d76565b73ffffffffffffffffffffffffffffffffffffffff1673ffffffffffffffffffffffffffffffffffffffff16815260200190815260200160002060008973ffffffffffffffffffffffffffffffffffffffff1673ffffffffffffffffffffffffffffffffffffffff1681526020019081526020016000205461256d90919063ffffffff16565b611d7e565b6001905092915050565b600c60009054906101000a900473ffffffffffffffffffffffffffffffffffffffff1673ffffffffffffffffffffffffffffffffffffffff163373ffffffffffffffffffffffffffffffffffffffff1614611149576040517f08c379a0000000000000000000000000000000000000000000000000000000008152600401808060200182810382526032815260200180613b2d6032913960400191505060405180910390fd5b611152826125f5565b600080600061116085612707565b935093509350506111728583866128b6565b61117c8585612bac565b600080905060006111968686612d6490919063ffffffff16565b14156111a8576111a586612dae565b90505b8573ffffffffffffffffffffffffffffffffffffffff167f90e5d3d68ec162d9c7de393037a3ede04dd44f68e051bf2ace4a73c299dbc4db8685846111ed57856111f0565b60005b60405180848152602001838152602001828152602001935050505060405180910390a2505050505050565b6000600760008373ffffffffffffffffffffffffffffffffffffffff1673ffffffffffffffffffffffffffffffffffffffff16815260200190815260200160002060009054906101000a900473ffffffffffffffffffffffffffffffffffffffff169050919050565b6000600d60009054906101000a900473ffffffffffffffffffffffffffffffffffffffff1673ffffffffffffffffffffffffffffffffffffffff166376e9d615600560019054906101000a900473ffffffffffffffffffffffffffffffffffffffff1685856040518463ffffffff1660e01b8152600401808473ffffffffffffffffffffffffffffffffffffffff1673ffffffffffffffffffffffffffffffffffffffff1681526020018373ffffffffffffffffffffffffffffffffffffffff1673ffffffffffffffffffffffffffffffffffffffff168152602001828152602001935050505060206040518083038186803b15801561138357600080fd5b505afa158015611397573d6000803e3d6000fd5b505050506040513d60208110156113ad57600080fd5b8101908080519060200190929190505050905092915050565b6000806113d283612f46565b90506000600860008573ffffffffffffffffffffffffffffffffffffffff1673ffffffffffffffffffffffffffffffffffffffff1681526020019081526020016000205490506000821480156114285750600081145b1561143857600092505050611536565b600073ffffffffffffffffffffffffffffffffffffffff16600760008673ffffffffffffffffffffffffffffffffffffffff1673ffffffffffffffffffffffffffffffffffffffff16815260200190815260200160002060009054906101000a900473ffffffffffffffffffffffffffffffffffffffff1673ffffffffffffffffffffffffffffffffffffffff161415611503576114fa816114ec866114e7858761256d90919063ffffffff16565b612f8e565b612d6490919063ffffffff16565b92505050611536565b611531611522826115148785612f8e565b612d6490919063ffffffff16565b8361256d90919063ffffffff16565b925050505b919050565b600560019054906101000a900473ffffffffffffffffffffffffffffffffffffffff1681565b600c60009054906101000a900473ffffffffffffffffffffffffffffffffffffffff1673ffffffffffffffffffffffffffffffffffffffff163373ffffffffffffffffffffffffffffffffffffffff1614611607576040517f08c379a0000000000000000000000000000000000000000000000000000000008152600401808060200182810382526032815260200180613b2d6032913960400191505060405180910390fd5b611610826125f5565b60008061161c84612707565b93509350505061164084611639858561256d90919063ffffffff16565b60006128b6565b61164a8484613107565b8373ffffffffffffffffffffffffffffffffffffffff167fbe7799898ca2d813ff902b487c1b434ab45b47edd8f38b77ad5e99aae8341b7a84848460405180848152602001838152602001828152602001935050505060405180910390a250505050565b606060048054600181600116156101000203166002900480601f0160208091040260200160405190810160405280929190818152602001828054600181600116156101000203166002900480156117465780601f1061171b57610100808354040283529160200191611746565b820191906000526020600020905b81548152906001019060200180831161172957829003601f168201915b5050505050905090565b600061181361175d611d76565b8461180e85604051806060016040528060258152602001613b5f6025913960016000611787611d76565b73ffffffffffffffffffffffffffffffffffffffff1673ffffffffffffffffffffffffffffffffffffffff16815260200190815260200160002060008a73ffffffffffffffffffffffffffffffffffffffff1673ffffffffffffffffffffffffffffffffffffffff168152602001908152602001600020546124ad9092919063ffffffff16565b611d7e565b6001905092915050565b600061183161182a611d76565b848461241d565b6001905092915050565b600061184682612f46565b9050919050565b7fffffffffffffffffffffffffffffffffffffffffffffffffffffffffffffffff81565b600081116118e7576040517f08c379a00000000000000000000000000000000000000000000000000000000081526004018080602001828103825260208152602001807f416d6f756e7420746f2072656465656d206e6565647320746f206265203e203081525060200191505060405180910390fd5b6118f0336125f5565b60008060006118fe33612707565b9350935093505060008490507fffffffffffffffffffffffffffffffffffffffffffffffffffffffffffffffff851415611936578390505b8381111561198f576040517f08c379a000000000000000000000000000000000000000000000000000000000815260040180806020018281038252603281526020018061393f6032913960400191505060405180910390fd5b6119993382611284565b611a0b576040517f08c379a000000000000000000000000000000000000000000000000000000000815260040180806020018281038252601b8152602001807f5472616e736665722063616e6e6f7420626520616c6c6f7765642e000000000081525060200191505060405180910390fd5b611a163384836128b6565b611a203382612bac565b60008090506000611a3a8387612d6490919063ffffffff16565b1415611a4c57611a4933612dae565b90505b600c60009054906101000a900473ffffffffffffffffffffffffffffffffffffffff1673ffffffffffffffffffffffffffffffffffffffff16639895e3d8600560019054906101000a900473ffffffffffffffffffffffffffffffffffffffff163385611ac2878b612d6490919063ffffffff16565b6040518563ffffffff1660e01b8152600401808573ffffffffffffffffffffffffffffffffffffffff1673ffffffffffffffffffffffffffffffffffffffff1681526020018473ffffffffffffffffffffffffffffffffffffffff1673ffffffffffffffffffffffffffffffffffffffff168152602001838152602001828152602001945050505050600060405180830381600087803b158015611b6557600080fd5b505af1158015611b79573d6000803e3d6000fd5b505050503373ffffffffffffffffffffffffffffffffffffffff167fbd5034ffbd47e4e72a94baa2cdb74c6fad73cb3bcdc13036b72ec8306f5a7646838684611bc25786611bc5565b60005b60405180848152602001838152602001828152602001935050505060405180910390a2505050505050565b6000600160008473ffffffffffffffffffffffffffffffffffffffff1673ffffffffffffffffffffffffffffffffffffffff16815260200190815260200160002060008373ffffffffffffffffffffffffffffffffffffffff1673ffffffffffffffffffffffffffffffffffffffff16815260200190815260200160002054905092915050565b6000600660008373ffffffffffffffffffffffffffffffffffffffff1673ffffffffffffffffffffffffffffffffffffffff168152602001908152602001600020549050919050565b600c60009054906101000a900473ffffffffffffffffffffffffffffffffffffffff1673ffffffffffffffffffffffffffffffffffffffff163373ffffffffffffffffffffffffffffffffffffffff1614611d66576040517f08c379a0000000000000000000000000000000000000000000000000000000008152600401808060200182810382526032815260200180613b2d6032913960400191505060405180910390fd5b611d718383836132c2565b505050565b600033905090565b600073ffffffffffffffffffffffffffffffffffffffff168373ffffffffffffffffffffffffffffffffffffffff161415611e04576040517f08c379a0000000000000000000000000000000000000000000000000000000008152600401808060200182810382526024815260200180613b096024913960400191505060405180910390fd5b600073ffffffffffffffffffffffffffffffffffffffff168273ffffffffffffffffffffffffffffffffffffffff161415611e8a576040517f08c379a00000000000000000000000000000000000000000000000000000000081526004018080602001828103825260228152602001806139716022913960400191505060405180910390fd5b80600160008573ffffffffffffffffffffffffffffffffffffffff1673ffffffffffffffffffffffffffffffffffffffff16815260200190815260200160002060008473ffffffffffffffffffffffffffffffffffffffff1673ffffffffffffffffffffffffffffffffffffffff168152602001908152602001600020819055508173ffffffffffffffffffffffffffffffffffffffff168373ffffffffffffffffffffffffffffffffffffffff167f8c5be1e5ebec7d5bd14f71427d1e84f3dd0314c0f7b2291e5b200ac8c7c3b925836040518082815260200191505060405180910390a3505050565b6000600760008473ffffffffffffffffffffffffffffffffffffffff1673ffffffffffffffffffffffffffffffffffffffff16815260200190815260200160002060009054906101000a900473ffffffffffffffffffffffffffffffffffffffff1690508073ffffffffffffffffffffffffffffffffffffffff168273ffffffffffffffffffffffffffffffffffffffff16141561205e576040517f08c379a000000000000000000000000000000000000000000000000000000000815260040180806020018281038252602a815260200180613a27602a913960400191505060405180910390fd5b60008060008061206d87612707565b9350935093509350600083116120ce576040517f08c379a0000000000000000000000000000000000000000000000000000000008152600401808060200182810382526042815260200180613a516042913960600191505060405180910390fd5b600073ffffffffffffffffffffffffffffffffffffffff168573ffffffffffffffffffffffffffffffffffffffff161461210f5761210e876000866128b6565b5b8673ffffffffffffffffffffffffffffffffffffffff168673ffffffffffffffffffffffffffffffffffffffff161415612242576000600760008973ffffffffffffffffffffffffffffffffffffffff1673ffffffffffffffffffffffffffffffffffffffff16815260200190815260200160002060006101000a81548173ffffffffffffffffffffffffffffffffffffffff021916908373ffffffffffffffffffffffffffffffffffffffff160217905550600073ffffffffffffffffffffffffffffffffffffffff168773ffffffffffffffffffffffffffffffffffffffff167f5e3cad45b1fe24159d1cb39788d82d0f69cc15770aa96fba1d3d1a734873559485858560405180848152602001838152602001828152602001935050505060405180910390a35050505050612347565b85600760008973ffffffffffffffffffffffffffffffffffffffff1673ffffffffffffffffffffffffffffffffffffffff16815260200190815260200160002060006101000a81548173ffffffffffffffffffffffffffffffffffffffff021916908373ffffffffffffffffffffffffffffffffffffffff1602179055506122cc878460006128b6565b8573ffffffffffffffffffffffffffffffffffffffff168773ffffffffffffffffffffffffffffffffffffffff167f5e3cad45b1fe24159d1cb39788d82d0f69cc15770aa96fba1d3d1a734873559485858560405180848152602001838152602001828152602001935050505060405180910390a350505050505b5050565b6000600254905090565b600061236e633b9aca008361345190919063ffffffff16565b9050919050565b60006123d06b033b2e3c9fd0803ce80000006123c261239d858761345190919063ffffffff16565b60026b033b2e3c9fd0803ce8000000816123b357fe5b0461256d90919063ffffffff16565b6134d790919063ffffffff16565b905092915050565b6000806002633b9aca00816123e957fe5b049050612415633b9aca00612407858461256d90919063ffffffff16565b6134d790919063ffffffff16565b915050919050565b82816124298282611284565b61249b576040517f08c379a000000000000000000000000000000000000000000000000000000000815260040180806020018281038252601b8152602001807f5472616e736665722063616e6e6f7420626520616c6c6f7765642e000000000081525060200191505060405180910390fd5b6124a68585856132c2565b5050505050565b600083831115829061255a576040517f08c379a00000000000000000000000000000000000000000000000000000000081526004018080602001828103825283818151815260200191508051906020019080838360005b8381101561251f578082015181840152602081019050612504565b50505050905090810190601f16801561254c5780820380516001836020036101000a031916815260200191505b509250505060405180910390fd5b5060008385039050809150509392505050565b6000808284019050838110156125eb576040517f08c379a000000000000000000000000000000000000000000000000000000000815260040180806020018281038252601b8152602001807f536166654d6174683a206164646974696f6e206f766572666c6f77000000000081525060200191505060405180910390fd5b8091505092915050565b600c60009054906101000a900473ffffffffffffffffffffffffffffffffffffffff1673ffffffffffffffffffffffffffffffffffffffff1663b8ccc175600560019054906101000a900473ffffffffffffffffffffffffffffffffffffffff16836040518363ffffffff1660e01b8152600401808373ffffffffffffffffffffffffffffffffffffffff1673ffffffffffffffffffffffffffffffffffffffff1681526020018273ffffffffffffffffffffffffffffffffffffffff1673ffffffffffffffffffffffffffffffffffffffff16815260200192505050600060405180830381600087803b1580156126ec57600080fd5b505af1158015612700573d6000803e3d6000fd5b5050505050565b600080600080600061271886612f46565b9050600061273782612729896113c6565b612d6490919063ffffffff16565b90506000811461274c5761274b8782613107565b5b6000600b60009054906101000a900473ffffffffffffffffffffffffffffffffffffffff1673ffffffffffffffffffffffffffffffffffffffff1663d15e0053600560019054906101000a900473ffffffffffffffffffffffffffffffffffffffff166040518263ffffffff1660e01b8152600401808273ffffffffffffffffffffffffffffffffffffffff1673ffffffffffffffffffffffffffffffffffffffff16815260200191505060206040518083038186803b15801561280f57600080fd5b505afa158015612823573d6000803e3d6000fd5b505050506040513d602081101561283957600080fd5b8101908080519060200190929190505050600660008a73ffffffffffffffffffffffffffffffffffffffff1673ffffffffffffffffffffffffffffffffffffffff1681526020019081526020016000208190559050826128a2838561256d90919063ffffffff16565b838396509650965096505050509193509193565b6000600760008573ffffffffffffffffffffffffffffffffffffffff1673ffffffffffffffffffffffffffffffffffffffff16815260200190815260200160002060009054906101000a900473ffffffffffffffffffffffffffffffffffffffff169050600073ffffffffffffffffffffffffffffffffffffffff168173ffffffffffffffffffffffffffffffffffffffff1614156129555750612ba7565b60008061296183612707565b9350935050506129cb846129bd87600860008873ffffffffffffffffffffffffffffffffffffffff1673ffffffffffffffffffffffffffffffffffffffff1681526020019081526020016000205461256d90919063ffffffff16565b612d6490919063ffffffff16565b600860008573ffffffffffffffffffffffffffffffffffffffff1673ffffffffffffffffffffffffffffffffffffffff168152602001908152602001600020819055506000600760008573ffffffffffffffffffffffffffffffffffffffff1673ffffffffffffffffffffffffffffffffffffffff16815260200190815260200160002060009054906101000a900473ffffffffffffffffffffffffffffffffffffffff169050600073ffffffffffffffffffffffffffffffffffffffff168173ffffffffffffffffffffffffffffffffffffffff1614612b3c57612af883600860008473ffffffffffffffffffffffffffffffffffffffff1673ffffffffffffffffffffffffffffffffffffffff1681526020019081526020016000205461256d90919063ffffffff16565b600860008373ffffffffffffffffffffffffffffffffffffffff1673ffffffffffffffffffffffffffffffffffffffff168152602001908152602001600020819055505b8373ffffffffffffffffffffffffffffffffffffffff167f70ff8cf632603e2bfd1afb7e4061acce53d95356b1be9726b99fa22ba733b01f848489896040518085815260200184815260200183815260200182815260200194505050505060405180910390a2505050505b505050565b600073ffffffffffffffffffffffffffffffffffffffff168273ffffffffffffffffffffffffffffffffffffffff161415612c32576040517f08c379a0000000000000000000000000000000000000000000000000000000008152600401808060200182810382526021815260200180613ac36021913960400191505060405180910390fd5b612c9d8160405180606001604052806022815260200161391d602291396000808673ffffffffffffffffffffffffffffffffffffffff1673ffffffffffffffffffffffffffffffffffffffff168152602001908152602001600020546124ad9092919063ffffffff16565b6000808473ffffffffffffffffffffffffffffffffffffffff1673ffffffffffffffffffffffffffffffffffffffff16815260200190815260200160002081905550612cf481600254612d6490919063ffffffff16565b600281905550600073ffffffffffffffffffffffffffffffffffffffff168273ffffffffffffffffffffffffffffffffffffffff167fddf252ad1be2c89b69c2b068fc378daa952ba7f163c4a11628f55a4df523b3ef836040518082815260200191505060405180910390a35050565b6000612da683836040518060400160405280601e81526020017f536166654d6174683a207375627472616374696f6e206f766572666c6f7700008152506124ad565b905092915050565b600080600760008473ffffffffffffffffffffffffffffffffffffffff1673ffffffffffffffffffffffffffffffffffffffff16815260200190815260200160002060006101000a81548173ffffffffffffffffffffffffffffffffffffffff021916908373ffffffffffffffffffffffffffffffffffffffff160217905550600073ffffffffffffffffffffffffffffffffffffffff168273ffffffffffffffffffffffffffffffffffffffff167f5e3cad45b1fe24159d1cb39788d82d0f69cc15770aa96fba1d3d1a7348735594600080600060405180848152602001838152602001828152602001935050505060405180910390a36000600860008473ffffffffffffffffffffffffffffffffffffffff1673ffffffffffffffffffffffffffffffffffffffff168152602001908152602001600020541415612f3c576000600660008473ffffffffffffffffffffffffffffffffffffffff1673ffffffffffffffffffffffffffffffffffffffff1681526020019081526020016000208190555060019050612f41565b600090505b919050565b60008060008373ffffffffffffffffffffffffffffffffffffffff1673ffffffffffffffffffffffffffffffffffffffff168152602001908152602001600020549050919050565b60006130ff6130fa600660008673ffffffffffffffffffffffffffffffffffffffff1673ffffffffffffffffffffffffffffffffffffffff168152602001908152602001600020546130ec600b60009054906101000a900473ffffffffffffffffffffffffffffffffffffffff1673ffffffffffffffffffffffffffffffffffffffff1663d15e0053600560019054906101000a900473ffffffffffffffffffffffffffffffffffffffff166040518263ffffffff1660e01b8152600401808273ffffffffffffffffffffffffffffffffffffffff1673ffffffffffffffffffffffffffffffffffffffff16815260200191505060206040518083038186803b15801561309a57600080fd5b505afa1580156130ae573d6000803e3d6000fd5b505050506040513d60208110156130c457600080fd5b81019080805190602001909291905050506130de87612355565b61237590919063ffffffff16565b61352190919063ffffffff16565b6123d8565b905092915050565b600073ffffffffffffffffffffffffffffffffffffffff168273ffffffffffffffffffffffffffffffffffffffff1614156131aa576040517f08c379a000000000000000000000000000000000000000000000000000000000815260040180806020018281038252601f8152602001807f45524332303a206d696e7420746f20746865207a65726f20616464726573730081525060200191505060405180910390fd5b6131bf8160025461256d90919063ffffffff16565b600281905550613216816000808573ffffffffffffffffffffffffffffffffffffffff1673ffffffffffffffffffffffffffffffffffffffff1681526020019081526020016000205461256d90919063ffffffff16565b6000808473ffffffffffffffffffffffffffffffffffffffff1673ffffffffffffffffffffffffffffffffffffffff168152602001908152602001600020819055508173ffffffffffffffffffffffffffffffffffffffff16600073ffffffffffffffffffffffffffffffffffffffff167fddf252ad1be2c89b69c2b068fc378daa952ba7f163c4a11628f55a4df523b3ef836040518082815260200191505060405180910390a35050565b6000811161331b576040517f08c379a0000000000000000000000000000000000000000000000000000000008152600401808060200182810382526030815260200180613a936030913960400191505060405180910390fd5b613324836125f5565b61332d826125f5565b600080600061333b86612707565b9350935093505060008061334e87612707565b93509350505061335f8885886128b6565b61337d87613376888561256d90919063ffffffff16565b60006128b6565b61338888888861357d565b600080905060006133a28888612d6490919063ffffffff16565b14156133b4576133b189612dae565b90505b8773ffffffffffffffffffffffffffffffffffffffff168973ffffffffffffffffffffffffffffffffffffffff167f89a178eaa27e0cd201bd795ca8ff716ac0df9618494510ca79771cfc66ffcde8898887866134115789613414565b60005b88604051808681526020018581526020018481526020018381526020018281526020019550505050505060405180910390a3505050505050505050565b60008083141561346457600090506134d1565b600082840290508284828161347557fe5b04146134cc576040517f08c379a00000000000000000000000000000000000000000000000000000000081526004018080602001828103825260218152602001806139de6021913960400191505060405180910390fd5b809150505b92915050565b600061351983836040518060400160405280601a81526020017f536166654d6174683a206469766973696f6e206279207a65726f000000000000815250613833565b905092915050565b6000806002838161352e57fe5b049050613574836135666135576b033b2e3c9fd0803ce80000008861345190919063ffffffff16565b8461256d90919063ffffffff16565b6134d790919063ffffffff16565b91505092915050565b600073ffffffffffffffffffffffffffffffffffffffff168373ffffffffffffffffffffffffffffffffffffffff161415613603576040517f08c379a0000000000000000000000000000000000000000000000000000000008152600401808060200182810382526025815260200180613ae46025913960400191505060405180910390fd5b600073ffffffffffffffffffffffffffffffffffffffff168273ffffffffffffffffffffffffffffffffffffffff161415613689576040517f08c379a00000000000000000000000000000000000000000000000000000000081526004018080602001828103825260238152602001806138fa6023913960400191505060405180910390fd5b6136f481604051806060016040528060268152602001613993602691396000808773ffffffffffffffffffffffffffffffffffffffff1673ffffffffffffffffffffffffffffffffffffffff168152602001908152602001600020546124ad9092919063ffffffff16565b6000808573ffffffffffffffffffffffffffffffffffffffff1673ffffffffffffffffffffffffffffffffffffffff16815260200190815260200160002081905550613787816000808573ffffffffffffffffffffffffffffffffffffffff1673ffffffffffffffffffffffffffffffffffffffff1681526020019081526020016000205461256d90919063ffffffff16565b6000808473ffffffffffffffffffffffffffffffffffffffff1673ffffffffffffffffffffffffffffffffffffffff168152602001908152602001600020819055508173ffffffffffffffffffffffffffffffffffffffff168373ffffffffffffffffffffffffffffffffffffffff167fddf252ad1be2c89b69c2b068fc378daa952ba7f163c4a11628f55a4df523b3ef836040518082815260200191505060405180910390a3505050565b600080831182906138df576040517f08c379a00000000000000000000000000000000000000000000000000000000081526004018080602001828103825283818151815260200191508051906020019080838360005b838110156138a4578082015181840152602081019050613889565b50505050905090810190601f1680156138d15780820380516001836020036101000a031916815260200191505b509250505060405180910390fd5b5060008385816138eb57fe5b04905080915050939250505056fe45524332303a207472616e7366657220746f20746865207a65726f206164647265737345524332303a206275726e20616d6f756e7420657863656564732062616c616e6365557365722063616e6e6f742072656465656d206d6f7265207468616e2074686520617661696c61626c652062616c616e636545524332303a20617070726f766520746f20746865207a65726f206164647265737345524332303a207472616e7366657220616d6f756e7420657863656564732062616c616e6365557365722063616e6e6f74206769766520616c6c6f77616e636520746f2068696d73656c66536166654d6174683a206d756c7469706c69636174696f6e206f766572666c6f7745524332303a207472616e7366657220616d6f756e74206578636565647320616c6c6f77616e6365496e74657265737420697320616c7265616479207265646972656374656420746f207468652075736572496e7465726573742073747265616d2063616e206f6e6c79206265207265646972656374656420696620746865726520697320612076616c69642062616c616e63655472616e7366657272656420616d6f756e74206e6565647320746f2062652067726561746572207468616e207a65726f45524332303a206275726e2066726f6d20746865207a65726f206164647265737345524332303a207472616e736665722066726f6d20746865207a65726f206164647265737345524332303a20617070726f76652066726f6d20746865207a65726f20616464726573735468652063616c6c6572206f6620746869732066756e6374696f6e206d7573742062652061206c656e64696e6720706f6f6c45524332303a2064656372656173656420616c6c6f77616e63652062656c6f77207a65726f43616c6c6572206973206e6f7420616c6c6f77656420746f2072656469726563742074686520696e746572657374206f66207468652075736572a265627a7a72315820818be870dc3d2724e026be73ac48872aa2f5e8864631e27df9a12b11d411199964736f6c634300051000325468652063616c6c6572206d7573742062652061206c656e64696e6720706f6f6c206d616e61676572436f6e747261637420696e7374616e63652068617320616c7265616479206265656e20696e697469616c697a6564546865206c6971756964697479206f66207468652072657365727665206e6565647320746f2062652030a265627a7a723158202065f4ac976b1bc28ae516a55bc7e057e5f95eec59cb450f3c3a211387d2da0a64736f6c63430005100032",
  "source": "pragma solidity ^0.5.0;\n\nimport \"openzeppelin-solidity/contracts/math/SafeMath.sol\";\nimport \"openzeppelin-solidity/contracts/token/ERC20/ERC20Detailed.sol\";\nimport \"../libraries/openzeppelin-upgradeability/VersionedInitializable.sol\";\nimport \"../configuration/LendingPoolAddressesProvider.sol\";\nimport \"./LendingPoolCore.sol\";\nimport \"../tokenization/MToken.sol\";\n\n/**\n * @title LendingPoolConfigurator contract\n * @author Multiplier Finance\n * @notice Executes configuration methods on the LendingPoolCore contract.\n * Allows to enable/disable reserves,\n * and set different protocol parameters.\n **/\n\ncontract LendingPoolConfigurator is VersionedInitializable {\n    using SafeMath for uint256;\n\n    /**\n     * @dev emitted when a reserve is initialized.\n     * @param _reserve the address of the reserve\n     * @param _mToken the address of the overlying mToken contract\n     * @param _interestRateStrategyAddress the address of the interest rate\n     * strategy for the reserve\n     **/\n    event ReserveInitialized(\n        address indexed _reserve,\n        address indexed _mToken,\n        address _interestRateStrategyAddress\n    );\n\n    /**\n     * @dev emitted when a reserve is removed.\n     * @param _reserve the address of the reserve\n     **/\n    event ReserveRemoved(address indexed _reserve);\n\n    /**\n     * @dev emitted when borrowing is enabled on a reserve\n     * @param _reserve the address of the reserve\n     * @param _stableRateEnabled true if stable rate borrowing is enabled, false\n     * otherwise\n     **/\n    event BorrowingEnabledOnReserve(address _reserve, bool _stableRateEnabled);\n\n    /**\n     * @dev emitted when borrowing is disabled on a reserve\n     * @param _reserve the address of the reserve\n     **/\n    event BorrowingDisabledOnReserve(address indexed _reserve);\n\n    /**\n     * @dev emitted when a reserve is enabled as collateral.\n     * @param _reserve the address of the reserve\n     * @param _ltv the loan to value of the asset when used as collateral\n     * @param _liquidationThreshold the threshold at which loans using this\n     * asset as collateral will be considered undercollateralized\n     * @param _liquidationBonus the bonus liquidators receive to liquidate this\n     * asset\n     **/\n    event ReserveEnabledAsCollateral(\n        address indexed _reserve,\n        uint256 _ltv,\n        uint256 _liquidationThreshold,\n        uint256 _liquidationBonus\n    );\n\n    /**\n     * @dev emitted when a reserve is disabled as collateral\n     * @param _reserve the address of the reserve\n     **/\n    event ReserveDisabledAsCollateral(address indexed _reserve);\n\n    /**\n     * @dev emitted when stable rate borrowing is enabled on a reserve\n     * @param _reserve the address of the reserve\n     **/\n    event StableRateEnabledOnReserve(address indexed _reserve);\n\n    /**\n     * @dev emitted when stable rate borrowing is disabled on a reserve\n     * @param _reserve the address of the reserve\n     **/\n    event StableRateDisabledOnReserve(address indexed _reserve);\n\n    /**\n     * @dev emitted when a reserve is activated\n     * @param _reserve the address of the reserve\n     **/\n    event ReserveActivated(address indexed _reserve);\n\n    /**\n     * @dev emitted when a reserve is deactivated\n     * @param _reserve the address of the reserve\n     **/\n    event ReserveDeactivated(address indexed _reserve);\n\n    /**\n     * @dev emitted when a reserve is freezed\n     * @param _reserve the address of the reserve\n     **/\n    event ReserveFreezed(address indexed _reserve);\n\n    /**\n     * @dev emitted when a reserve is unfreezed\n     * @param _reserve the address of the reserve\n     **/\n    event ReserveUnfreezed(address indexed _reserve);\n\n    /**\n     * @dev emitted when a reserve loan to value is updated\n     * @param _reserve the address of the reserve\n     * @param _ltv the new value for the loan to value\n     **/\n    event ReserveBaseLtvChanged(address _reserve, uint256 _ltv);\n\n    /**\n     * @dev emitted when a reserve liquidation threshold is updated\n     * @param _reserve the address of the reserve\n     * @param _threshold the new value for the liquidation threshold\n     **/\n    event ReserveLiquidationThresholdChanged(\n        address _reserve,\n        uint256 _threshold\n    );\n\n    /**\n     * @dev emitted when a reserve liquidation bonus is updated\n     * @param _reserve the address of the reserve\n     * @param _bonus the new value for the liquidation bonus\n     **/\n    event ReserveLiquidationBonusChanged(address _reserve, uint256 _bonus);\n\n    /**\n     * @dev emitted when the reserve decimals are updated\n     * @param _reserve the address of the reserve\n     * @param _decimals the new decimals\n     **/\n    event ReserveDecimalsChanged(address _reserve, uint256 _decimals);\n\n    /**\n     * @dev emitted when a reserve interest strategy contract is updated\n     * @param _reserve the address of the reserve\n     * @param _strategy the new address of the interest strategy contract\n     **/\n    event ReserveInterestRateStrategyChanged(\n        address _reserve,\n        address _strategy\n    );\n\n    LendingPoolAddressesProvider public poolAddressesProvider;\n    /**\n     * @dev only the lending pool manager can call functions affected by this\n     * modifier\n     **/\n    modifier onlyLendingPoolManager {\n        require(\n            poolAddressesProvider.getLendingPoolManager() == msg.sender,\n            \"The caller must be a lending pool manager\"\n        );\n        _;\n    }\n\n    uint256 public constant CONFIGURATOR_REVISION = 0x1;\n\n    function getRevision() internal pure returns (uint256) {\n        return CONFIGURATOR_REVISION;\n    }\n\n    function initialize(LendingPoolAddressesProvider _poolAddressesProvider)\n        public\n        initializer\n    {\n        poolAddressesProvider = _poolAddressesProvider;\n    }\n\n    /**\n     * @dev initializes a reserve\n     * @param _reserve the address of the reserve to be initialized\n     * @param _underlyingAssetDecimals the decimals of the reserve underlying\n     * asset\n     * @param _interestRateStrategyAddress the address of the interest rate\n     * strategy contract for this reserve\n     **/\n    function initReserve(\n        address _reserve,\n        uint8 _underlyingAssetDecimals,\n        address _interestRateStrategyAddress\n    ) external onlyLendingPoolManager {\n        ERC20Detailed asset = ERC20Detailed(_reserve);\n\n        string memory mTokenName =\n            string(\n                abi.encodePacked(\"Multiplier Interest bearing \", asset.name())\n            );\n        string memory mTokenSymbol =\n            string(abi.encodePacked(\"mx\", asset.symbol()));\n\n        initReserveWithData(\n            _reserve,\n            mTokenName,\n            mTokenSymbol,\n            _underlyingAssetDecimals,\n            _interestRateStrategyAddress\n        );\n    }\n\n    /**\n     * @dev initializes a reserve using mTokenData provided externally\n     * (useful if the underlying ERC20 contract doesn't expose name or decimals)\n     * @param _reserve the address of the reserve to be initialized\n     * @param _mTokenName the name of the mToken contract\n     * @param _mTokenSymbol the symbol of the mToken contract\n     * @param _underlyingAssetDecimals the decimals of the reserve underlying\n     * asset\n     * @param _interestRateStrategyAddress the address of the interest rate\n     * strategy contract for this reserve\n     **/\n    function initReserveWithData(\n        address _reserve,\n        string memory _mTokenName,\n        string memory _mTokenSymbol,\n        uint8 _underlyingAssetDecimals,\n        address _interestRateStrategyAddress\n    ) public onlyLendingPoolManager {\n        LendingPoolCore core =\n            LendingPoolCore(poolAddressesProvider.getLendingPoolCore());\n\n        mToken mTokenInstance =\n            new mToken(\n                poolAddressesProvider,\n                _reserve,\n                _underlyingAssetDecimals,\n                _mTokenName,\n                _mTokenSymbol\n            );\n        core.initReserve(\n            _reserve,\n            address(mTokenInstance),\n            _underlyingAssetDecimals,\n            _interestRateStrategyAddress\n        );\n\n        emit ReserveInitialized(\n            _reserve,\n            address(mTokenInstance),\n            _interestRateStrategyAddress\n        );\n    }\n\n    /**\n     * @dev removes the last added reserve in the list of the reserves\n     * @param _reserveToRemove the address of the reserve\n     **/\n    function removeLastAddedReserve(address _reserveToRemove)\n        external\n        onlyLendingPoolManager\n    {\n        LendingPoolCore core =\n            LendingPoolCore(poolAddressesProvider.getLendingPoolCore());\n        core.removeLastAddedReserve(_reserveToRemove);\n        emit ReserveRemoved(_reserveToRemove);\n    }\n\n    /**\n     * @dev enables borrowing on a reserve\n     * @param _reserve the address of the reserve\n     * @param _stableBorrowRateEnabled true if stable borrow rate needs to be\n     * enabled by default on this reserve\n     **/\n    function enableBorrowingOnReserve(\n        address _reserve,\n        bool _stableBorrowRateEnabled\n    ) external onlyLendingPoolManager {\n        LendingPoolCore core =\n            LendingPoolCore(poolAddressesProvider.getLendingPoolCore());\n        core.enableBorrowingOnReserve(_reserve, _stableBorrowRateEnabled);\n        emit BorrowingEnabledOnReserve(_reserve, _stableBorrowRateEnabled);\n    }\n\n    /**\n     * @dev disables borrowing on a reserve\n     * @param _reserve the address of the reserve\n     **/\n    function disableBorrowingOnReserve(address _reserve)\n        external\n        onlyLendingPoolManager\n    {\n        LendingPoolCore core =\n            LendingPoolCore(poolAddressesProvider.getLendingPoolCore());\n        core.disableBorrowingOnReserve(_reserve);\n\n        emit BorrowingDisabledOnReserve(_reserve);\n    }\n\n    /**\n     * @dev enables a reserve to be used as collateral\n     * @param _reserve the address of the reserve\n     * @param _baseLTVasCollateral the loan to value of the asset when used as\n     * collateral\n     * @param _liquidationThreshold the threshold at which loans using this\n     * asset as collateral will be considered undercollateralized\n     * @param _liquidationBonus the bonus liquidators receive to liquidate this\n     * asset\n     **/\n    function enableReserveAsCollateral(\n        address _reserve,\n        uint256 _baseLTVasCollateral,\n        uint256 _liquidationThreshold,\n        uint256 _liquidationBonus\n    ) external onlyLendingPoolManager {\n        LendingPoolCore core =\n            LendingPoolCore(poolAddressesProvider.getLendingPoolCore());\n        core.enableReserveAsCollateral(\n            _reserve,\n            _baseLTVasCollateral,\n            _liquidationThreshold,\n            _liquidationBonus\n        );\n        emit ReserveEnabledAsCollateral(\n            _reserve,\n            _baseLTVasCollateral,\n            _liquidationThreshold,\n            _liquidationBonus\n        );\n    }\n\n    /**\n     * @dev disables a reserve as collateral\n     * @param _reserve the address of the reserve\n     **/\n    function disableReserveAsCollateral(address _reserve)\n        external\n        onlyLendingPoolManager\n    {\n        LendingPoolCore core =\n            LendingPoolCore(poolAddressesProvider.getLendingPoolCore());\n        core.disableReserveAsCollateral(_reserve);\n\n        emit ReserveDisabledAsCollateral(_reserve);\n    }\n\n    /**\n     * @dev enable stable rate borrowing on a reserve\n     * @param _reserve the address of the reserve\n     **/\n    function enableReserveStableBorrowRate(address _reserve)\n        external\n        onlyLendingPoolManager\n    {\n        LendingPoolCore core =\n            LendingPoolCore(poolAddressesProvider.getLendingPoolCore());\n        core.enableReserveStableBorrowRate(_reserve);\n\n        emit StableRateEnabledOnReserve(_reserve);\n    }\n\n    /**\n     * @dev disable stable rate borrowing on a reserve\n     * @param _reserve the address of the reserve\n     **/\n    function disableReserveStableBorrowRate(address _reserve)\n        external\n        onlyLendingPoolManager\n    {\n        LendingPoolCore core =\n            LendingPoolCore(poolAddressesProvider.getLendingPoolCore());\n        core.disableReserveStableBorrowRate(_reserve);\n\n        emit StableRateDisabledOnReserve(_reserve);\n    }\n\n    /**\n     * @dev activates a reserve\n     * @param _reserve the address of the reserve\n     **/\n    function activateReserve(address _reserve) external onlyLendingPoolManager {\n        LendingPoolCore core =\n            LendingPoolCore(poolAddressesProvider.getLendingPoolCore());\n        core.activateReserve(_reserve);\n\n        emit ReserveActivated(_reserve);\n    }\n\n    /**\n     * @dev deactivates a reserve\n     * @param _reserve the address of the reserve\n     **/\n    function deactivateReserve(address _reserve)\n        external\n        onlyLendingPoolManager\n    {\n        LendingPoolCore core =\n            LendingPoolCore(poolAddressesProvider.getLendingPoolCore());\n        require(\n            core.getReserveTotalLiquidity(_reserve) == 0,\n            \"The liquidity of the reserve needs to be 0\"\n        );\n        core.deactivateReserve(_reserve);\n\n        emit ReserveDeactivated(_reserve);\n    }\n\n    /**\n     * @dev freezes a reserve. A freezed reserve doesn't accept any new deposit,\n     * borrow or rate swap, but can accept repayments, liquidations, rate\n     * rebalances and redeems\n     * @param _reserve the address of the reserve\n     **/\n    function freezeReserve(address _reserve) external onlyLendingPoolManager {\n        LendingPoolCore core =\n            LendingPoolCore(poolAddressesProvider.getLendingPoolCore());\n        core.freezeReserve(_reserve);\n\n        emit ReserveFreezed(_reserve);\n    }\n\n    /**\n     * @dev unfreezes a reserve\n     * @param _reserve the address of the reserve\n     **/\n    function unfreezeReserve(address _reserve) external onlyLendingPoolManager {\n        LendingPoolCore core =\n            LendingPoolCore(poolAddressesProvider.getLendingPoolCore());\n        core.unfreezeReserve(_reserve);\n\n        emit ReserveUnfreezed(_reserve);\n    }\n\n    /**\n     * @dev emitted when a reserve loan to value is updated\n     * @param _reserve the address of the reserve\n     * @param _ltv the new value for the loan to value\n     **/\n    function setReserveBaseLTVasCollateral(address _reserve, uint256 _ltv)\n        external\n        onlyLendingPoolManager\n    {\n        LendingPoolCore core =\n            LendingPoolCore(poolAddressesProvider.getLendingPoolCore());\n        core.setReserveBaseLTVasCollateral(_reserve, _ltv);\n        emit ReserveBaseLtvChanged(_reserve, _ltv);\n    }\n\n    /**\n     * @dev updates the liquidation threshold of a reserve.\n     * @param _reserve the address of the reserve\n     * @param _threshold the new value for the liquidation threshold\n     **/\n    function setReserveLiquidationThreshold(\n        address _reserve,\n        uint256 _threshold\n    ) external onlyLendingPoolManager {\n        LendingPoolCore core =\n            LendingPoolCore(poolAddressesProvider.getLendingPoolCore());\n        core.setReserveLiquidationThreshold(_reserve, _threshold);\n        emit ReserveLiquidationThresholdChanged(_reserve, _threshold);\n    }\n\n    /**\n     * @dev updates the liquidation bonus of a reserve\n     * @param _reserve the address of the reserve\n     * @param _bonus the new value for the liquidation bonus\n     **/\n    function setReserveLiquidationBonus(address _reserve, uint256 _bonus)\n        external\n        onlyLendingPoolManager\n    {\n        LendingPoolCore core =\n            LendingPoolCore(poolAddressesProvider.getLendingPoolCore());\n        core.setReserveLiquidationBonus(_reserve, _bonus);\n        emit ReserveLiquidationBonusChanged(_reserve, _bonus);\n    }\n\n    /**\n     * @dev updates the reserve decimals\n     * @param _reserve the address of the reserve\n     * @param _decimals the new number of decimals\n     **/\n    function setReserveDecimals(address _reserve, uint256 _decimals)\n        external\n        onlyLendingPoolManager\n    {\n        LendingPoolCore core =\n            LendingPoolCore(poolAddressesProvider.getLendingPoolCore());\n        core.setReserveDecimals(_reserve, _decimals);\n        emit ReserveDecimalsChanged(_reserve, _decimals);\n    }\n\n    /**\n     * @dev sets the interest rate strategy of a reserve\n     * @param _reserve the address of the reserve\n     * @param _rateStrategyAddress the new address of the interest strategy\n     * contract\n     **/\n    function setReserveInterestRateStrategyAddress(\n        address _reserve,\n        address _rateStrategyAddress\n    ) external onlyLendingPoolManager {\n        LendingPoolCore core =\n            LendingPoolCore(poolAddressesProvider.getLendingPoolCore());\n        core.setReserveInterestRateStrategyAddress(\n            _reserve,\n            _rateStrategyAddress\n        );\n        emit ReserveInterestRateStrategyChanged(_reserve, _rateStrategyAddress);\n    }\n\n    /**\n     * @dev refreshes the lending pool core configuration to update the cached\n     * address\n     **/\n    function refreshLendingPoolCoreConfiguration()\n        external\n        onlyLendingPoolManager\n    {\n        LendingPoolCore core =\n            LendingPoolCore(poolAddressesProvider.getLendingPoolCore());\n        core.refreshConfiguration();\n    }\n}\n",
  "sourcePath": "/Users/dev/Documents/Project/MCLendNew/MCL-SmartContracts/lending/contracts/lendingpool/LendingPoolConfigurator.sol",
  "compiler": {
    "name": "solc",
    "version": "0.5.16+commit.9c3226ce.Emscripten.clang"
  },
  "schemaVersion": "3.2.3",
  "updatedAt": "2021-02-19T07:32:48.572Z",
  "devdoc": {
    "author": "Multiplier Finance",
    "methods": {
      "activateReserve(address)": {
        "details": "activates a reserve",
        "params": {
          "_reserve": "the address of the reserve*"
        }
      },
      "deactivateReserve(address)": {
        "details": "deactivates a reserve",
        "params": {
          "_reserve": "the address of the reserve*"
        }
      },
      "disableBorrowingOnReserve(address)": {
        "details": "disables borrowing on a reserve",
        "params": {
          "_reserve": "the address of the reserve*"
        }
      },
      "disableReserveAsCollateral(address)": {
        "details": "disables a reserve as collateral",
        "params": {
          "_reserve": "the address of the reserve*"
        }
      },
      "disableReserveStableBorrowRate(address)": {
        "details": "disable stable rate borrowing on a reserve",
        "params": {
          "_reserve": "the address of the reserve*"
        }
      },
      "enableBorrowingOnReserve(address,bool)": {
        "details": "enables borrowing on a reserve",
        "params": {
          "_reserve": "the address of the reserve",
          "_stableBorrowRateEnabled": "true if stable borrow rate needs to be enabled by default on this reserve*"
        }
      },
      "enableReserveAsCollateral(address,uint256,uint256,uint256)": {
        "details": "enables a reserve to be used as collateral",
        "params": {
          "_baseLTVasCollateral": "the loan to value of the asset when used as collateral",
          "_liquidationBonus": "the bonus liquidators receive to liquidate this asset*",
          "_liquidationThreshold": "the threshold at which loans using this asset as collateral will be considered undercollateralized",
          "_reserve": "the address of the reserve"
        }
      },
      "enableReserveStableBorrowRate(address)": {
        "details": "enable stable rate borrowing on a reserve",
        "params": {
          "_reserve": "the address of the reserve*"
        }
      },
      "freezeReserve(address)": {
        "details": "freezes a reserve. A freezed reserve doesn't accept any new deposit, borrow or rate swap, but can accept repayments, liquidations, rate rebalances and redeems",
        "params": {
          "_reserve": "the address of the reserve*"
        }
      },
      "initReserve(address,uint8,address)": {
        "details": "initializes a reserve",
        "params": {
          "_interestRateStrategyAddress": "the address of the interest rate strategy contract for this reserve*",
          "_reserve": "the address of the reserve to be initialized",
          "_underlyingAssetDecimals": "the decimals of the reserve underlying asset"
        }
      },
      "initReserveWithData(address,string,string,uint8,address)": {
        "details": "initializes a reserve using mTokenData provided externally (useful if the underlying ERC20 contract doesn't expose name or decimals)",
        "params": {
          "_interestRateStrategyAddress": "the address of the interest rate strategy contract for this reserve*",
          "_mTokenName": "the name of the mToken contract",
          "_mTokenSymbol": "the symbol of the mToken contract",
          "_reserve": "the address of the reserve to be initialized",
          "_underlyingAssetDecimals": "the decimals of the reserve underlying asset"
        }
      },
      "refreshLendingPoolCoreConfiguration()": {
        "details": "refreshes the lending pool core configuration to update the cached address*"
      },
      "removeLastAddedReserve(address)": {
        "details": "removes the last added reserve in the list of the reserves",
        "params": {
          "_reserveToRemove": "the address of the reserve*"
        }
      },
      "setReserveBaseLTVasCollateral(address,uint256)": {
        "details": "emitted when a reserve loan to value is updated",
        "params": {
          "_ltv": "the new value for the loan to value*",
          "_reserve": "the address of the reserve"
        }
      },
      "setReserveDecimals(address,uint256)": {
        "details": "updates the reserve decimals",
        "params": {
          "_decimals": "the new number of decimals*",
          "_reserve": "the address of the reserve"
        }
      },
      "setReserveInterestRateStrategyAddress(address,address)": {
        "details": "sets the interest rate strategy of a reserve",
        "params": {
          "_rateStrategyAddress": "the new address of the interest strategy contract*",
          "_reserve": "the address of the reserve"
        }
      },
      "setReserveLiquidationBonus(address,uint256)": {
        "details": "updates the liquidation bonus of a reserve",
        "params": {
          "_bonus": "the new value for the liquidation bonus*",
          "_reserve": "the address of the reserve"
        }
      },
      "setReserveLiquidationThreshold(address,uint256)": {
        "details": "updates the liquidation threshold of a reserve.",
        "params": {
          "_reserve": "the address of the reserve",
          "_threshold": "the new value for the liquidation threshold*"
        }
      },
      "unfreezeReserve(address)": {
        "details": "unfreezes a reserve",
        "params": {
          "_reserve": "the address of the reserve*"
        }
      }
    },
    "title": "LendingPoolConfigurator contract"
  },
  "userdoc": {
    "methods": {},
    "notice": "Executes configuration methods on the LendingPoolCore contract. Allows to enable/disable reserves, and set different protocol parameters.*"
  }
}