{
  "contractName": "LendingPoolDataProvider",
  "abi": [
    {
      "constant": true,
      "inputs": [],
      "name": "DATA_PROVIDER_REVISION",
      "outputs": [
        {
          "internalType": "uint256",
          "name": "",
          "type": "uint256"
        }
      ],
      "payable": false,
      "stateMutability": "view",
      "type": "function"
    },
    {
      "constant": true,
      "inputs": [],
      "name": "HEALTH_FACTOR_LIQUIDATION_THRESHOLD",
      "outputs": [
        {
          "internalType": "uint256",
          "name": "",
          "type": "uint256"
        }
      ],
      "payable": false,
      "stateMutability": "view",
      "type": "function"
    },
    {
      "constant": true,
      "inputs": [],
      "name": "addressesProvider",
      "outputs": [
        {
          "internalType": "contract LendingPoolAddressesProvider",
          "name": "",
          "type": "address"
        }
      ],
      "payable": false,
      "stateMutability": "view",
      "type": "function"
    },
    {
      "constant": true,
      "inputs": [],
      "name": "core",
      "outputs": [
        {
          "internalType": "contract LendingPoolCore",
          "name": "",
          "type": "address"
        }
      ],
      "payable": false,
      "stateMutability": "view",
      "type": "function"
    },
    {
      "constant": false,
      "inputs": [
        {
          "internalType": "contract LendingPoolAddressesProvider",
          "name": "_addressesProvider",
          "type": "address"
        }
      ],
      "name": "initialize",
      "outputs": [],
      "payable": false,
      "stateMutability": "nonpayable",
      "type": "function"
    },
    {
      "constant": true,
      "inputs": [
        {
          "internalType": "address",
          "name": "_user",
          "type": "address"
        }
      ],
      "name": "calculateUserGlobalData",
      "outputs": [
        {
          "internalType": "uint256",
          "name": "totalLiquidityBalanceBNB",
          "type": "uint256"
        },
        {
          "internalType": "uint256",
          "name": "totalCollateralBalanceBNB",
          "type": "uint256"
        },
        {
          "internalType": "uint256",
          "name": "totalBorrowBalanceBNB",
          "type": "uint256"
        },
        {
          "internalType": "uint256",
          "name": "totalFeesBNB",
          "type": "uint256"
        },
        {
          "internalType": "uint256",
          "name": "currentLtv",
          "type": "uint256"
        },
        {
          "internalType": "uint256",
          "name": "currentLiquidationThreshold",
          "type": "uint256"
        },
        {
          "internalType": "uint256",
          "name": "healthFactor",
          "type": "uint256"
        },
        {
          "internalType": "bool",
          "name": "healthFactorBelowThreshold",
          "type": "bool"
        }
      ],
      "payable": false,
      "stateMutability": "view",
      "type": "function"
    },
    {
      "constant": true,
      "inputs": [
        {
          "internalType": "address",
          "name": "_reserve",
          "type": "address"
        },
        {
          "internalType": "address",
          "name": "_user",
          "type": "address"
        },
        {
          "internalType": "uint256",
          "name": "_amount",
          "type": "uint256"
        }
      ],
      "name": "balanceDecreaseAllowed",
      "outputs": [
        {
          "internalType": "bool",
          "name": "",
          "type": "bool"
        }
      ],
      "payable": false,
      "stateMutability": "view",
      "type": "function"
    },
    {
      "constant": true,
      "inputs": [
        {
          "internalType": "address",
          "name": "_reserve",
          "type": "address"
        },
        {
          "internalType": "uint256",
          "name": "_amount",
          "type": "uint256"
        },
        {
          "internalType": "uint256",
          "name": "_fee",
          "type": "uint256"
        },
        {
          "internalType": "uint256",
          "name": "_userCurrentBorrowBalanceTH",
          "type": "uint256"
        },
        {
          "internalType": "uint256",
          "name": "_userCurrentFeesBNB",
          "type": "uint256"
        },
        {
          "internalType": "uint256",
          "name": "_userCurrentLtv",
          "type": "uint256"
        }
      ],
      "name": "calculateCollateralNeededInBNB",
      "outputs": [
        {
          "internalType": "uint256",
          "name": "",
          "type": "uint256"
        }
      ],
      "payable": false,
      "stateMutability": "view",
      "type": "function"
    },
    {
      "constant": true,
      "inputs": [],
      "name": "getHealthFactorLiquidationThreshold",
      "outputs": [
        {
          "internalType": "uint256",
          "name": "",
          "type": "uint256"
        }
      ],
      "payable": false,
      "stateMutability": "pure",
      "type": "function"
    },
    {
      "constant": true,
      "inputs": [
        {
          "internalType": "address",
          "name": "_reserve",
          "type": "address"
        }
      ],
      "name": "getReserveConfigurationData",
      "outputs": [
        {
          "internalType": "uint256",
          "name": "ltv",
          "type": "uint256"
        },
        {
          "internalType": "uint256",
          "name": "liquidationThreshold",
          "type": "uint256"
        },
        {
          "internalType": "uint256",
          "name": "liquidationBonus",
          "type": "uint256"
        },
        {
          "internalType": "address",
          "name": "rateStrategyAddress",
          "type": "address"
        },
        {
          "internalType": "bool",
          "name": "usageAsCollateralEnabled",
          "type": "bool"
        },
        {
          "internalType": "bool",
          "name": "borrowingEnabled",
          "type": "bool"
        },
        {
          "internalType": "bool",
          "name": "stableBorrowRateEnabled",
          "type": "bool"
        },
        {
          "internalType": "bool",
          "name": "isActive",
          "type": "bool"
        }
      ],
      "payable": false,
      "stateMutability": "view",
      "type": "function"
    },
    {
      "constant": true,
      "inputs": [
        {
          "internalType": "address",
          "name": "_reserve",
          "type": "address"
        }
      ],
      "name": "getReserveData",
      "outputs": [
        {
          "internalType": "uint256",
          "name": "totalLiquidity",
          "type": "uint256"
        },
        {
          "internalType": "uint256",
          "name": "availableLiquidity",
          "type": "uint256"
        },
        {
          "internalType": "uint256",
          "name": "totalBorrowsStable",
          "type": "uint256"
        },
        {
          "internalType": "uint256",
          "name": "totalBorrowsVariable",
          "type": "uint256"
        },
        {
          "internalType": "uint256",
          "name": "liquidityRate",
          "type": "uint256"
        },
        {
          "internalType": "uint256",
          "name": "variableBorrowRate",
          "type": "uint256"
        },
        {
          "internalType": "uint256",
          "name": "stableBorrowRate",
          "type": "uint256"
        },
        {
          "internalType": "uint256",
          "name": "averageStableBorrowRate",
          "type": "uint256"
        },
        {
          "internalType": "uint256",
          "name": "utilizationRate",
          "type": "uint256"
        },
        {
          "internalType": "uint256",
          "name": "liquidityIndex",
          "type": "uint256"
        },
        {
          "internalType": "uint256",
          "name": "variableBorrowIndex",
          "type": "uint256"
        },
        {
          "internalType": "address",
          "name": "mTokenAddress",
          "type": "address"
        },
        {
          "internalType": "uint40",
          "name": "lastUpdateTimestamp",
          "type": "uint40"
        }
      ],
      "payable": false,
      "stateMutability": "view",
      "type": "function"
    },
    {
      "constant": true,
      "inputs": [
        {
          "internalType": "address",
          "name": "_user",
          "type": "address"
        }
      ],
      "name": "getUserAccountData",
      "outputs": [
        {
          "internalType": "uint256",
          "name": "totalLiquidityBNB",
          "type": "uint256"
        },
        {
          "internalType": "uint256",
          "name": "totalCollateralBNB",
          "type": "uint256"
        },
        {
          "internalType": "uint256",
          "name": "totalBorrowsBNB",
          "type": "uint256"
        },
        {
          "internalType": "uint256",
          "name": "totalFeesBNB",
          "type": "uint256"
        },
        {
          "internalType": "uint256",
          "name": "availableBorrowsBNB",
          "type": "uint256"
        },
        {
          "internalType": "uint256",
          "name": "currentLiquidationThreshold",
          "type": "uint256"
        },
        {
          "internalType": "uint256",
          "name": "ltv",
          "type": "uint256"
        },
        {
          "internalType": "uint256",
          "name": "healthFactor",
          "type": "uint256"
        }
      ],
      "payable": false,
      "stateMutability": "view",
      "type": "function"
    },
    {
      "constant": true,
      "inputs": [
        {
          "internalType": "address",
          "name": "_reserve",
          "type": "address"
        },
        {
          "internalType": "address",
          "name": "_user",
          "type": "address"
        }
      ],
      "name": "getUserReserveData",
      "outputs": [
        {
          "internalType": "uint256",
          "name": "currentmTokenBalance",
          "type": "uint256"
        },
        {
          "internalType": "uint256",
          "name": "currentBorrowBalance",
          "type": "uint256"
        },
        {
          "internalType": "uint256",
          "name": "principalBorrowBalance",
          "type": "uint256"
        },
        {
          "internalType": "uint256",
          "name": "borrowRateMode",
          "type": "uint256"
        },
        {
          "internalType": "uint256",
          "name": "borrowRate",
          "type": "uint256"
        },
        {
          "internalType": "uint256",
          "name": "liquidityRate",
          "type": "uint256"
        },
        {
          "internalType": "uint256",
          "name": "originationFee",
          "type": "uint256"
        },
        {
          "internalType": "uint256",
          "name": "variableBorrowIndex",
          "type": "uint256"
        },
        {
          "internalType": "uint256",
          "name": "lastUpdateTimestamp",
          "type": "uint256"
        },
        {
          "internalType": "bool",
          "name": "usageAsCollateralEnabled",
          "type": "bool"
        }
      ],
      "payable": false,
      "stateMutability": "view",
      "type": "function"
    }
  ],
  "bytecode": "0x60806040526000805534801561001457600080fd5b50613c11806100246000396000f3fe608060405234801561001057600080fd5b50600436106100bf5760003560e01c80638daf609f1161007c5780638daf609f1461045b578063bf92857c14610479578063c3525c2814610502578063c4d66de814610520578063c72c4d1014610564578063dd335c96146105ae578063f2f4eb2614610638576100bf565b806328dd2d01146100c45780632c6d0e9b1461017f57806335ea6a751461020c5780633e150141146102f25780633e44bee8146103b757806376e9d615146103d5575b600080fd5b610126600480360360408110156100da57600080fd5b81019080803573ffffffffffffffffffffffffffffffffffffffff169060200190929190803573ffffffffffffffffffffffffffffffffffffffff169060200190929190505050610682565b604051808b81526020018a8152602001898152602001888152602001878152602001868152602001858152602001848152602001838152602001821515151581526020019a505050505050505050505060405180910390f35b6101c16004803603602081101561019557600080fd5b81019080803573ffffffffffffffffffffffffffffffffffffffff1690602001909291905050506111cb565b60405180898152602001888152602001878152602001868152602001858152602001848152602001838152602001821515151581526020019850505050505050505060405180910390f35b61024e6004803603602081101561022257600080fd5b81019080803573ffffffffffffffffffffffffffffffffffffffff169060200190929190505050611993565b604051808e81526020018d81526020018c81526020018b81526020018a81526020018981526020018881526020018781526020018681526020018581526020018481526020018373ffffffffffffffffffffffffffffffffffffffff1673ffffffffffffffffffffffffffffffffffffffff1681526020018264ffffffffff1664ffffffffff1681526020019d505050505050505050505050505060405180910390f35b6103346004803603602081101561030857600080fd5b81019080803573ffffffffffffffffffffffffffffffffffffffff1690602001909291905050506124e4565b604051808981526020018881526020018781526020018673ffffffffffffffffffffffffffffffffffffffff1673ffffffffffffffffffffffffffffffffffffffff168152602001851515151581526020018415151515815260200183151515158152602001821515151581526020019850505050505050505060405180910390f35b6103bf612a4f565b6040518082815260200191505060405180910390f35b610441600480360360608110156103eb57600080fd5b81019080803573ffffffffffffffffffffffffffffffffffffffff169060200190929190803573ffffffffffffffffffffffffffffffffffffffff16906020019092919080359060200190929190505050612a5f565b604051808215151515815260200191505060405180910390f35b610463612f72565b6040518082815260200191505060405180910390f35b6104bb6004803603602081101561048f57600080fd5b81019080803573ffffffffffffffffffffffffffffffffffffffff169060200190929190505050612f77565b604051808981526020018881526020018781526020018681526020018581526020018481526020018381526020018281526020019850505050505050505060405180910390f35b61050a612fc2565b6040518082815260200191505060405180910390f35b6105626004803603602081101561053657600080fd5b81019080803573ffffffffffffffffffffffffffffffffffffffff169060200190929190505050612fce565b005b61056c6131c0565b604051808273ffffffffffffffffffffffffffffffffffffffff1673ffffffffffffffffffffffffffffffffffffffff16815260200191505060405180910390f35b610622600480360360c08110156105c457600080fd5b81019080803573ffffffffffffffffffffffffffffffffffffffff16906020019092919080359060200190929190803590602001909291908035906020019092919080359060200190929190803590602001909291905050506131e6565b6040518082815260200191505060405180910390f35b6106406134c0565b604051808273ffffffffffffffffffffffffffffffffffffffff1673ffffffffffffffffffffffffffffffffffffffff16815260200191505060405180910390f35b600080600080600080600080600080603460009054906101000a900473ffffffffffffffffffffffffffffffffffffffff1673ffffffffffffffffffffffffffffffffffffffff16635c90bc858d6040518263ffffffff1660e01b8152600401808273ffffffffffffffffffffffffffffffffffffffff1673ffffffffffffffffffffffffffffffffffffffff16815260200191505060206040518083038186803b15801561073057600080fd5b505afa158015610744573d6000803e3d6000fd5b505050506040513d602081101561075a57600080fd5b810190808051906020019092919050505073ffffffffffffffffffffffffffffffffffffffff166370a082318c6040518263ffffffff1660e01b8152600401808273ffffffffffffffffffffffffffffffffffffffff1673ffffffffffffffffffffffffffffffffffffffff16815260200191505060206040518083038186803b1580156107e757600080fd5b505afa1580156107fb573d6000803e3d6000fd5b505050506040513d602081101561081157600080fd5b810190808051906020019092919050505099506000603460009054906101000a900473ffffffffffffffffffffffffffffffffffffffff1673ffffffffffffffffffffffffffffffffffffffff16631ca19f198e8e6040518363ffffffff1660e01b8152600401808373ffffffffffffffffffffffffffffffffffffffff1673ffffffffffffffffffffffffffffffffffffffff1681526020018273ffffffffffffffffffffffffffffffffffffffff1673ffffffffffffffffffffffffffffffffffffffff1681526020019250505060206040518083038186803b1580156108f957600080fd5b505afa15801561090d573d6000803e3d6000fd5b505050506040513d602081101561092357600080fd5b81019080805190602001909291905050509050603460009054906101000a900473ffffffffffffffffffffffffffffffffffffffff1673ffffffffffffffffffffffffffffffffffffffff16639fb8afcd8e8e6040518363ffffffff1660e01b8152600401808373ffffffffffffffffffffffffffffffffffffffff1673ffffffffffffffffffffffffffffffffffffffff1681526020018273ffffffffffffffffffffffffffffffffffffffff1673ffffffffffffffffffffffffffffffffffffffff1681526020019250505060606040518083038186803b158015610a0957600080fd5b505afa158015610a1d573d6000803e3d6000fd5b505050506040513d6060811015610a3357600080fd5b8101908080519060200190929190805190602001909291908051906020019092919050505050809b50819a50505060016002811115610a6e57fe5b816002811115610a7a57fe5b1415610b9557603460009054906101000a900473ffffffffffffffffffffffffffffffffffffffff1673ffffffffffffffffffffffffffffffffffffffff16636fffab0c8e8e6040518363ffffffff1660e01b8152600401808373ffffffffffffffffffffffffffffffffffffffff1673ffffffffffffffffffffffffffffffffffffffff1681526020018273ffffffffffffffffffffffffffffffffffffffff1673ffffffffffffffffffffffffffffffffffffffff1681526020019250505060206040518083038186803b158015610b5357600080fd5b505afa158015610b67573d6000803e3d6000fd5b505050506040513d6020811015610b7d57600080fd5b81019080805190602001909291905050509650610c91565b600280811115610ba157fe5b816002811115610bad57fe5b1415610c9057603460009054906101000a900473ffffffffffffffffffffffffffffffffffffffff1673ffffffffffffffffffffffffffffffffffffffff1663906c0a418e6040518263ffffffff1660e01b8152600401808273ffffffffffffffffffffffffffffffffffffffff1673ffffffffffffffffffffffffffffffffffffffff16815260200191505060206040518083038186803b158015610c5257600080fd5b505afa158015610c66573d6000803e3d6000fd5b505050506040513d6020811015610c7c57600080fd5b810190808051906020019092919050505096505b5b806002811115610c9d57fe5b9750603460009054906101000a900473ffffffffffffffffffffffffffffffffffffffff1673ffffffffffffffffffffffffffffffffffffffff1663c540148e8e6040518263ffffffff1660e01b8152600401808273ffffffffffffffffffffffffffffffffffffffff1673ffffffffffffffffffffffffffffffffffffffff16815260200191505060206040518083038186803b158015610d3e57600080fd5b505afa158015610d52573d6000803e3d6000fd5b505050506040513d6020811015610d6857600080fd5b81019080805190602001909291905050509550603460009054906101000a900473ffffffffffffffffffffffffffffffffffffffff1673ffffffffffffffffffffffffffffffffffffffff1663feab31ac8e8e6040518363ffffffff1660e01b8152600401808373ffffffffffffffffffffffffffffffffffffffff1673ffffffffffffffffffffffffffffffffffffffff1681526020018273ffffffffffffffffffffffffffffffffffffffff1673ffffffffffffffffffffffffffffffffffffffff1681526020019250505060206040518083038186803b158015610e4e57600080fd5b505afa158015610e62573d6000803e3d6000fd5b505050506040513d6020811015610e7857600080fd5b81019080805190602001909291905050509450603460009054906101000a900473ffffffffffffffffffffffffffffffffffffffff1673ffffffffffffffffffffffffffffffffffffffff1663f6ea8d768e8e6040518363ffffffff1660e01b8152600401808373ffffffffffffffffffffffffffffffffffffffff1673ffffffffffffffffffffffffffffffffffffffff1681526020018273ffffffffffffffffffffffffffffffffffffffff1673ffffffffffffffffffffffffffffffffffffffff1681526020019250505060206040518083038186803b158015610f5e57600080fd5b505afa158015610f72573d6000803e3d6000fd5b505050506040513d6020811015610f8857600080fd5b81019080805190602001909291905050509350603460009054906101000a900473ffffffffffffffffffffffffffffffffffffffff1673ffffffffffffffffffffffffffffffffffffffff166366d103f38e8e6040518363ffffffff1660e01b8152600401808373ffffffffffffffffffffffffffffffffffffffff1673ffffffffffffffffffffffffffffffffffffffff1681526020018273ffffffffffffffffffffffffffffffffffffffff1673ffffffffffffffffffffffffffffffffffffffff1681526020019250505060206040518083038186803b15801561106e57600080fd5b505afa158015611082573d6000803e3d6000fd5b505050506040513d602081101561109857600080fd5b81019080805190602001909291905050509250603460009054906101000a900473ffffffffffffffffffffffffffffffffffffffff1673ffffffffffffffffffffffffffffffffffffffff16639e3c4f3b8e8e6040518363ffffffff1660e01b8152600401808373ffffffffffffffffffffffffffffffffffffffff1673ffffffffffffffffffffffffffffffffffffffff1681526020018273ffffffffffffffffffffffffffffffffffffffff1673ffffffffffffffffffffffffffffffffffffffff1681526020019250505060206040518083038186803b15801561117e57600080fd5b505afa158015611192573d6000803e3d6000fd5b505050506040513d60208110156111a857600080fd5b81019080805190602001909291905050509150509295989b9194979a5092959850565b6000806000806000806000806000603560009054906101000a900473ffffffffffffffffffffffffffffffffffffffff1673ffffffffffffffffffffffffffffffffffffffff1663fca513a86040518163ffffffff1660e01b815260040160206040518083038186803b15801561124157600080fd5b505afa158015611255573d6000803e3d6000fd5b505050506040513d602081101561126b57600080fd5b81019080805190602001909291905050509050611286613abd565b6060603460009054906101000a900473ffffffffffffffffffffffffffffffffffffffff1673ffffffffffffffffffffffffffffffffffffffff16630902f1ac6040518163ffffffff1660e01b815260040160006040518083038186803b1580156112f057600080fd5b505afa158015611304573d6000803e3d6000fd5b505050506040513d6000823e3d601f19601f82011682018060405250602081101561132e57600080fd5b810190808051604051939291908464010000000082111561134e57600080fd5b8382019150602082018581111561136457600080fd5b825186602082028301116401000000008211171561138157600080fd5b8083526020830192505050908051906020019060200280838360005b838110156113b857808201518184015260208101905061139d565b50505050905001604052505050905060008090505b815181101561191f578181815181106113e257fe5b602002602001015183610140019073ffffffffffffffffffffffffffffffffffffffff16908173ffffffffffffffffffffffffffffffffffffffff1681525050603460009054906101000a900473ffffffffffffffffffffffffffffffffffffffff1673ffffffffffffffffffffffffffffffffffffffff1663e10076ad8461014001518f6040518363ffffffff1660e01b8152600401808373ffffffffffffffffffffffffffffffffffffffff1673ffffffffffffffffffffffffffffffffffffffff1681526020018273ffffffffffffffffffffffffffffffffffffffff1673ffffffffffffffffffffffffffffffffffffffff1681526020019250505060806040518083038186803b1580156114fa57600080fd5b505afa15801561150e573d6000803e3d6000fd5b505050506040513d608081101561152457600080fd5b810190808051906020019092919080519060200190929190805190602001909291908051906020019092919050505086604001876060018860e001896101200184151515158152508481525084815250848152505050505060008360400151148015611594575060008360600151145b1561159e57611912565b603460009054906101000a900473ffffffffffffffffffffffffffffffffffffffff1673ffffffffffffffffffffffffffffffffffffffff16635fc526ff8461014001516040518263ffffffff1660e01b8152600401808273ffffffffffffffffffffffffffffffffffffffff1673ffffffffffffffffffffffffffffffffffffffff16815260200191505060806040518083038186803b15801561164257600080fd5b505afa158015611656573d6000803e3d6000fd5b505050506040513d608081101561166c57600080fd5b8101908080519060200190929190805190602001909291908051906020019092919080519060200190929190505050866080018760a0018860c00189610100018415151515815250848152508481525084815250505050508260800151600a0a8360200181815250508373ffffffffffffffffffffffffffffffffffffffff1663b3596f078461014001516040518263ffffffff1660e01b8152600401808273ffffffffffffffffffffffffffffffffffffffff1673ffffffffffffffffffffffffffffffffffffffff16815260200191505060206040518083038186803b15801561175757600080fd5b505afa15801561176b573d6000803e3d6000fd5b505050506040513d602081101561178157600080fd5b81019080805190602001909291905050508360000181815250506000836040015111156118795760006117db84602001516117cd866040015187600001516134e690919063ffffffff16565b61356c90919063ffffffff16565b90506117f0818e6135b690919063ffffffff16565b9c50836101000151801561180657508361012001515b156118775761181e818d6135b690919063ffffffff16565b9b5061184961183a8560a00151836134e690919063ffffffff16565b8a6135b690919063ffffffff16565b98506118746118658560c00151836134e690919063ffffffff16565b896135b690919063ffffffff16565b97505b505b600083606001511115611911576118c96118ba84602001516118ac866060015187600001516134e690919063ffffffff16565b61356c90919063ffffffff16565b8b6135b690919063ffffffff16565b995061190e6118ff84602001516118f186600001518760e001516134e690919063ffffffff16565b61356c90919063ffffffff16565b8a6135b690919063ffffffff16565b98505b5b80806001019150506113cd565b5060008a1161192f576000611943565b6119428a8861356c90919063ffffffff16565b5b965060008a11611954576000611968565b6119678a8761356c90919063ffffffff16565b5b95506119768a8a8a8961363e565b9450670de0b6b3a764000085109350505050919395975091939597565b6000806000806000806000806000806000806000603460009054906101000a900473ffffffffffffffffffffffffffffffffffffffff1673ffffffffffffffffffffffffffffffffffffffff1663c33cfd908f6040518263ffffffff1660e01b8152600401808273ffffffffffffffffffffffffffffffffffffffff1673ffffffffffffffffffffffffffffffffffffffff16815260200191505060206040518083038186803b158015611a4657600080fd5b505afa158015611a5a573d6000803e3d6000fd5b505050506040513d6020811015611a7057600080fd5b81019080805190602001909291905050509c50603460009054906101000a900473ffffffffffffffffffffffffffffffffffffffff1673ffffffffffffffffffffffffffffffffffffffff1663e24030198f6040518263ffffffff1660e01b8152600401808273ffffffffffffffffffffffffffffffffffffffff1673ffffffffffffffffffffffffffffffffffffffff16815260200191505060206040518083038186803b158015611b2257600080fd5b505afa158015611b36573d6000803e3d6000fd5b505050506040513d6020811015611b4c57600080fd5b81019080805190602001909291905050509b50603460009054906101000a900473ffffffffffffffffffffffffffffffffffffffff1673ffffffffffffffffffffffffffffffffffffffff16637f90fec58f6040518263ffffffff1660e01b8152600401808273ffffffffffffffffffffffffffffffffffffffff1673ffffffffffffffffffffffffffffffffffffffff16815260200191505060206040518083038186803b158015611bfe57600080fd5b505afa158015611c12573d6000803e3d6000fd5b505050506040513d6020811015611c2857600080fd5b81019080805190602001909291905050509a50603460009054906101000a900473ffffffffffffffffffffffffffffffffffffffff1673ffffffffffffffffffffffffffffffffffffffff166398bd47378f6040518263ffffffff1660e01b8152600401808273ffffffffffffffffffffffffffffffffffffffff1673ffffffffffffffffffffffffffffffffffffffff16815260200191505060206040518083038186803b158015611cda57600080fd5b505afa158015611cee573d6000803e3d6000fd5b505050506040513d6020811015611d0457600080fd5b81019080805190602001909291905050509950603460009054906101000a900473ffffffffffffffffffffffffffffffffffffffff1673ffffffffffffffffffffffffffffffffffffffff1663c540148e8f6040518263ffffffff1660e01b8152600401808273ffffffffffffffffffffffffffffffffffffffff1673ffffffffffffffffffffffffffffffffffffffff16815260200191505060206040518083038186803b158015611db657600080fd5b505afa158015611dca573d6000803e3d6000fd5b505050506040513d6020811015611de057600080fd5b81019080805190602001909291905050509850603460009054906101000a900473ffffffffffffffffffffffffffffffffffffffff1673ffffffffffffffffffffffffffffffffffffffff1663906c0a418f6040518263ffffffff1660e01b8152600401808273ffffffffffffffffffffffffffffffffffffffff1673ffffffffffffffffffffffffffffffffffffffff16815260200191505060206040518083038186803b158015611e9257600080fd5b505afa158015611ea6573d6000803e3d6000fd5b505050506040513d6020811015611ebc57600080fd5b81019080805190602001909291905050509750603460009054906101000a900473ffffffffffffffffffffffffffffffffffffffff1673ffffffffffffffffffffffffffffffffffffffff166388079d888f6040518263ffffffff1660e01b8152600401808273ffffffffffffffffffffffffffffffffffffffff1673ffffffffffffffffffffffffffffffffffffffff16815260200191505060206040518083038186803b158015611f6e57600080fd5b505afa158015611f82573d6000803e3d6000fd5b505050506040513d6020811015611f9857600080fd5b81019080805190602001909291905050509650603460009054906101000a900473ffffffffffffffffffffffffffffffffffffffff1673ffffffffffffffffffffffffffffffffffffffff166346bc0f288f6040518263ffffffff1660e01b8152600401808273ffffffffffffffffffffffffffffffffffffffff1673ffffffffffffffffffffffffffffffffffffffff16815260200191505060206040518083038186803b15801561204a57600080fd5b505afa15801561205e573d6000803e3d6000fd5b505050506040513d602081101561207457600080fd5b81019080805190602001909291905050509550603460009054906101000a900473ffffffffffffffffffffffffffffffffffffffff1673ffffffffffffffffffffffffffffffffffffffff1663bfacad848f6040518263ffffffff1660e01b8152600401808273ffffffffffffffffffffffffffffffffffffffff1673ffffffffffffffffffffffffffffffffffffffff16815260200191505060206040518083038186803b15801561212657600080fd5b505afa15801561213a573d6000803e3d6000fd5b505050506040513d602081101561215057600080fd5b81019080805190602001909291905050509450603460009054906101000a900473ffffffffffffffffffffffffffffffffffffffff1673ffffffffffffffffffffffffffffffffffffffff1663bd7fd79a8f6040518263ffffffff1660e01b8152600401808273ffffffffffffffffffffffffffffffffffffffff1673ffffffffffffffffffffffffffffffffffffffff16815260200191505060206040518083038186803b15801561220257600080fd5b505afa158015612216573d6000803e3d6000fd5b505050506040513d602081101561222c57600080fd5b81019080805190602001909291905050509350603460009054906101000a900473ffffffffffffffffffffffffffffffffffffffff1673ffffffffffffffffffffffffffffffffffffffff1663b701d0938f6040518263ffffffff1660e01b8152600401808273ffffffffffffffffffffffffffffffffffffffff1673ffffffffffffffffffffffffffffffffffffffff16815260200191505060206040518083038186803b1580156122de57600080fd5b505afa1580156122f2573d6000803e3d6000fd5b505050506040513d602081101561230857600080fd5b81019080805190602001909291905050509250603460009054906101000a900473ffffffffffffffffffffffffffffffffffffffff1673ffffffffffffffffffffffffffffffffffffffff16635c90bc858f6040518263ffffffff1660e01b8152600401808273ffffffffffffffffffffffffffffffffffffffff1673ffffffffffffffffffffffffffffffffffffffff16815260200191505060206040518083038186803b1580156123ba57600080fd5b505afa1580156123ce573d6000803e3d6000fd5b505050506040513d60208110156123e457600080fd5b81019080805190602001909291905050509150603460009054906101000a900473ffffffffffffffffffffffffffffffffffffffff1673ffffffffffffffffffffffffffffffffffffffff16634f1446098f6040518263ffffffff1660e01b8152600401808273ffffffffffffffffffffffffffffffffffffffff1673ffffffffffffffffffffffffffffffffffffffff16815260200191505060206040518083038186803b15801561249657600080fd5b505afa1580156124aa573d6000803e3d6000fd5b505050506040513d60208110156124c057600080fd5b8101908080519060200190929190505050905091939597999b9d90929496989a9c50565b600080600080600080600080603460009054906101000a900473ffffffffffffffffffffffffffffffffffffffff1673ffffffffffffffffffffffffffffffffffffffff16635fc526ff8a6040518263ffffffff1660e01b8152600401808273ffffffffffffffffffffffffffffffffffffffff1673ffffffffffffffffffffffffffffffffffffffff16815260200191505060806040518083038186803b15801561258f57600080fd5b505afa1580156125a3573d6000803e3d6000fd5b505050506040513d60808110156125b957600080fd5b810190808051906020019092919080519060200190929190805190602001909291908051906020019092919050505090919250809650819950829a50505050603460009054906101000a900473ffffffffffffffffffffffffffffffffffffffff1673ffffffffffffffffffffffffffffffffffffffff16639e6748488a6040518263ffffffff1660e01b8152600401808273ffffffffffffffffffffffffffffffffffffffff1673ffffffffffffffffffffffffffffffffffffffff16815260200191505060206040518083038186803b15801561269757600080fd5b505afa1580156126ab573d6000803e3d6000fd5b505050506040513d60208110156126c157600080fd5b81019080805190602001909291905050509150603460009054906101000a900473ffffffffffffffffffffffffffffffffffffffff1673ffffffffffffffffffffffffffffffffffffffff16635cf2e6568a6040518263ffffffff1660e01b8152600401808273ffffffffffffffffffffffffffffffffffffffff1673ffffffffffffffffffffffffffffffffffffffff16815260200191505060206040518083038186803b15801561277357600080fd5b505afa158015612787573d6000803e3d6000fd5b505050506040513d602081101561279d57600080fd5b81019080805190602001909291905050509250603460009054906101000a900473ffffffffffffffffffffffffffffffffffffffff1673ffffffffffffffffffffffffffffffffffffffff166305075d6e8a6040518263ffffffff1660e01b8152600401808273ffffffffffffffffffffffffffffffffffffffff1673ffffffffffffffffffffffffffffffffffffffff16815260200191505060206040518083038186803b15801561284f57600080fd5b505afa158015612863573d6000803e3d6000fd5b505050506040513d602081101561287957600080fd5b81019080805190602001909291905050509050603460009054906101000a900473ffffffffffffffffffffffffffffffffffffffff1673ffffffffffffffffffffffffffffffffffffffff1663c76a6c9c8a6040518263ffffffff1660e01b8152600401808273ffffffffffffffffffffffffffffffffffffffff1673ffffffffffffffffffffffffffffffffffffffff16815260200191505060206040518083038186803b15801561292b57600080fd5b505afa15801561293f573d6000803e3d6000fd5b505050506040513d602081101561295557600080fd5b81019080805190602001909291905050509550603460009054906101000a900473ffffffffffffffffffffffffffffffffffffffff1673ffffffffffffffffffffffffffffffffffffffff16636ae144168a6040518263ffffffff1660e01b8152600401808273ffffffffffffffffffffffffffffffffffffffff1673ffffffffffffffffffffffffffffffffffffffff16815260200191505060206040518083038186803b158015612a0757600080fd5b505afa158015612a1b573d6000803e3d6000fd5b505050506040513d6020811015612a3157600080fd5b81019080805190602001909291905050509450919395975091939597565b6000670de0b6b3a7640000905090565b6000612a69613b31565b603460009054906101000a900473ffffffffffffffffffffffffffffffffffffffff1673ffffffffffffffffffffffffffffffffffffffff16635fc526ff866040518263ffffffff1660e01b8152600401808273ffffffffffffffffffffffffffffffffffffffff1673ffffffffffffffffffffffffffffffffffffffff16815260200191505060806040518083038186803b158015612b0857600080fd5b505afa158015612b1c573d6000803e3d6000fd5b505050506040513d6080811015612b3257600080fd5b8101908080519060200190929190805190602001909291908051906020019092919080519060200190929190505050909150836000018460a0018561014001831515151581525083815250838152505050508061014001511580612ca15750603460009054906101000a900473ffffffffffffffffffffffffffffffffffffffff1673ffffffffffffffffffffffffffffffffffffffff16639e3c4f3b86866040518363ffffffff1660e01b8152600401808373ffffffffffffffffffffffffffffffffffffffff1673ffffffffffffffffffffffffffffffffffffffff1681526020018273ffffffffffffffffffffffffffffffffffffffff1673ffffffffffffffffffffffffffffffffffffffff1681526020019250505060206040518083038186803b158015612c6457600080fd5b505afa158015612c78573d6000803e3d6000fd5b505050506040513d6020811015612c8e57600080fd5b8101908080519060200190929190505050155b15612cb0576001915050612f6b565b612cb9846111cb565b909192939495965090919250905050846020018560400186606001876080018481525084815250848152508481525050505050600081604001511415612d03576001915050612f6b565b6000603560009054906101000a900473ffffffffffffffffffffffffffffffffffffffff1673ffffffffffffffffffffffffffffffffffffffff1663fca513a86040518163ffffffff1660e01b815260040160206040518083038186803b158015612d6d57600080fd5b505afa158015612d81573d6000803e3d6000fd5b505050506040513d6020811015612d9757600080fd5b81019080805190602001909291905050509050612e8d8260000151600a0a612e7f868473ffffffffffffffffffffffffffffffffffffffff1663b3596f078b6040518263ffffffff1660e01b8152600401808273ffffffffffffffffffffffffffffffffffffffff1673ffffffffffffffffffffffffffffffffffffffff16815260200191505060206040518083038186803b158015612e3657600080fd5b505afa158015612e4a573d6000803e3d6000fd5b505050506040513d6020811015612e6057600080fd5b81019080805190602001909291905050506134e690919063ffffffff16565b61356c90919063ffffffff16565b8260c0018181525050612eb18260c0015183602001516136c590919063ffffffff16565b8260e001818152505060008260e001511415612ed257600092505050612f6b565b612f2f8260e00151612f21612ef88560a001518660c001516134e690919063ffffffff16565b612f13866080015187602001516134e690919063ffffffff16565b6136c590919063ffffffff16565b61356c90919063ffffffff16565b826101000181815250506000612f588360e001518460400151856060015186610100015161363e565b9050670de0b6b3a7640000811193505050505b9392505050565b600181565b600080600080600080600080612f8c896111cb565b50809750819950829850839b50849c50859d50869e5050505050505050612fb58787878561370f565b9350919395975091939597565b670de0b6b3a764000081565b6000612fd86138c5565b9050600160009054906101000a900460ff1680612ff95750612ff86138ce565b5b80613005575060005481115b61305a576040517f08c379a000000000000000000000000000000000000000000000000000000000815260040180806020018281038252602e815260200180613baf602e913960400191505060405180910390fd5b6000600160009054906101000a900460ff1615905080156130975760018060006101000a81548160ff021916908315150217905550816000819055505b82603560006101000a81548173ffffffffffffffffffffffffffffffffffffffff021916908373ffffffffffffffffffffffffffffffffffffffff1602179055508273ffffffffffffffffffffffffffffffffffffffff1663ed6ff7606040518163ffffffff1660e01b815260040160206040518083038186803b15801561311e57600080fd5b505afa158015613132573d6000803e3d6000fd5b505050506040513d602081101561314857600080fd5b8101908080519060200190929190505050603460006101000a81548173ffffffffffffffffffffffffffffffffffffffff021916908373ffffffffffffffffffffffffffffffffffffffff16021790555080156131bb576000600160006101000a81548160ff0219169083151502179055505b505050565b603560009054906101000a900473ffffffffffffffffffffffffffffffffffffffff1681565b600080603460009054906101000a900473ffffffffffffffffffffffffffffffffffffffff1673ffffffffffffffffffffffffffffffffffffffff1663a2353fdc896040518263ffffffff1660e01b8152600401808273ffffffffffffffffffffffffffffffffffffffff1673ffffffffffffffffffffffffffffffffffffffff16815260200191505060206040518083038186803b15801561328857600080fd5b505afa15801561329c573d6000803e3d6000fd5b505050506040513d60208110156132b257600080fd5b810190808051906020019092919050505090506000603560009054906101000a900473ffffffffffffffffffffffffffffffffffffffff1673ffffffffffffffffffffffffffffffffffffffff1663fca513a86040518163ffffffff1660e01b815260040160206040518083038186803b15801561332f57600080fd5b505afa158015613343573d6000803e3d6000fd5b505050506040513d602081101561335957600080fd5b81019080805190602001909291905050509050600061345f83600a0a61345161338b8b8d6135b690919063ffffffff16565b8573ffffffffffffffffffffffffffffffffffffffff1663b3596f078f6040518263ffffffff1660e01b8152600401808273ffffffffffffffffffffffffffffffffffffffff1673ffffffffffffffffffffffffffffffffffffffff16815260200191505060206040518083038186803b15801561340857600080fd5b505afa15801561341c573d6000803e3d6000fd5b505050506040513d602081101561343257600080fd5b81019080805190602001909291905050506134e690919063ffffffff16565b61356c90919063ffffffff16565b905060006134ad8661349f6064613491866134838d8f6135b690919063ffffffff16565b6135b690919063ffffffff16565b6134e690919063ffffffff16565b61356c90919063ffffffff16565b9050809450505050509695505050505050565b603460009054906101000a900473ffffffffffffffffffffffffffffffffffffffff1681565b6000808314156134f95760009050613566565b600082840290508284828161350a57fe5b0414613561576040517f08c379a0000000000000000000000000000000000000000000000000000000008152600401808060200182810382526021815260200180613b8e6021913960400191505060405180910390fd5b809150505b92915050565b60006135ae83836040518060400160405280601a81526020017f536166654d6174683a206469766973696f6e206279207a65726f0000000000008152506138df565b905092915050565b600080828401905083811015613634576040517f08c379a000000000000000000000000000000000000000000000000000000000815260040180806020018281038252601b8152602001807f536166654d6174683a206164646974696f6e206f766572666c6f77000000000081525060200191505060405180910390fd5b8091505092915050565b600080841415613670577fffffffffffffffffffffffffffffffffffffffffffffffffffffffffffffffff90506136bd565b6136ba61368684866135b690919063ffffffff16565b6136ac606461369e868a6134e690919063ffffffff16565b61356c90919063ffffffff16565b6139a590919063ffffffff16565b90505b949350505050565b600061370783836040518060400160405280601e81526020017f536166654d6174683a207375627472616374696f6e206f766572666c6f7700008152506139fd565b905092915050565b600080613738606461372a85896134e690919063ffffffff16565b61356c90919063ffffffff16565b90508481101561374c5760009150506138bd565b61377161376285876135b690919063ffffffff16565b826136c590919063ffffffff16565b90506000603560009054906101000a900473ffffffffffffffffffffffffffffffffffffffff1673ffffffffffffffffffffffffffffffffffffffff1663fbeefc3c6040518163ffffffff1660e01b815260040160206040518083038186803b1580156137dd57600080fd5b505afa1580156137f1573d6000803e3d6000fd5b505050506040513d602081101561380757600080fd5b810190808051906020019092919050505073ffffffffffffffffffffffffffffffffffffffff1663249bbe91836040518263ffffffff1660e01b81526004018082815260200191505060206040518083038186803b15801561386857600080fd5b505afa15801561387c573d6000803e3d6000fd5b505050506040513d602081101561389257600080fd5b810190808051906020019092919050505090506138b881836136c590919063ffffffff16565b925050505b949350505050565b60006001905090565b600080303b90506000811491505090565b6000808311829061398b576040517f08c379a00000000000000000000000000000000000000000000000000000000081526004018080602001828103825283818151815260200191508051906020019080838360005b83811015613950578082015181840152602081019050613935565b50505050905090810190601f16801561397d5780820380516001836020036101000a031916815260200191505b509250505060405180910390fd5b50600083858161399757fe5b049050809150509392505050565b600080600283816139b257fe5b0490506139f4836139e66139d7670de0b6b3a7640000886134e690919063ffffffff16565b846135b690919063ffffffff16565b61356c90919063ffffffff16565b91505092915050565b6000838311158290613aaa576040517f08c379a00000000000000000000000000000000000000000000000000000000081526004018080602001828103825283818151815260200191508051906020019080838360005b83811015613a6f578082015181840152602081019050613a54565b50505050905090810190601f168015613a9c5780820380516001836020036101000a031916815260200191505b509250505060405180910390fd5b5060008385039050809150509392505050565b6040518061016001604052806000815260200160008152602001600081526020016000815260200160008152602001600081526020016000815260200160008152602001600015158152602001600015158152602001600073ffffffffffffffffffffffffffffffffffffffff1681525090565b60405180610160016040528060008152602001600081526020016000815260200160008152602001600081526020016000815260200160008152602001600081526020016000815260200160008152602001600015158152509056fe536166654d6174683a206d756c7469706c69636174696f6e206f766572666c6f77436f6e747261637420696e7374616e63652068617320616c7265616479206265656e20696e697469616c697a6564a265627a7a723158202cb66cb38d08cff68ad60b30c0c7e406ba8a27afba180f94e725f9323fdbf60964736f6c63430005100032",
  "source": "pragma solidity ^0.5.0;\n\nimport \"openzeppelin-solidity/contracts/math/SafeMath.sol\";\nimport \"../libraries/openzeppelin-upgradeability/VersionedInitializable.sol\";\n\nimport \"../libraries/CoreLibrary.sol\";\nimport \"../configuration/LendingPoolAddressesProvider.sol\";\nimport \"../libraries/WadRayMath.sol\";\nimport \"../interfaces/IPriceOracleGetter.sol\";\nimport \"../interfaces/IFeeProvider.sol\";\nimport \"../tokenization/MToken.sol\";\n\nimport \"./LendingPoolCore.sol\";\n\n/**\n * @title LendingPoolDataProvider contract\n * @author Multiplier Finance\n * @notice Implements functions to fetch data from the core, and aggregate them\n * in order to allow computation\n * on the compounded balances and the account balances in BNB\n **/\ncontract LendingPoolDataProvider is VersionedInitializable {\n    using SafeMath for uint256;\n    using WadRayMath for uint256;\n\n    LendingPoolCore public core;\n    LendingPoolAddressesProvider public addressesProvider;\n\n    /**\n     * @dev specifies the health factor threshold at which the user position is\n     * liquidated.\n     * 1e18 by default, if the health factor drops below 1e18, the loan can be\n     * liquidated.\n     **/\n    uint256 public constant HEALTH_FACTOR_LIQUIDATION_THRESHOLD = 1e18;\n\n    uint256 public constant DATA_PROVIDER_REVISION = 0x1;\n\n    function getRevision() internal pure returns (uint256) {\n        return DATA_PROVIDER_REVISION;\n    }\n\n    /**\n     * @dev initializer\n     * @param _addressesProvider the address of the Address Provider\n     **/\n\n    function initialize(LendingPoolAddressesProvider _addressesProvider)\n        public\n        initializer\n    {\n        addressesProvider = _addressesProvider;\n        core = LendingPoolCore(_addressesProvider.getLendingPoolCore());\n    }\n\n    /**\n     * @dev struct to hold calculateUserGlobalData() local computations\n     **/\n    struct UserGlobalDataLocalVars {\n        uint256 reserveUnitPrice;\n        uint256 tokenUnit;\n        uint256 compoundedLiquidityBalance;\n        uint256 compoundedBorrowBalance;\n        uint256 reserveDecimals;\n        uint256 baseLtv;\n        uint256 liquidationThreshold;\n        uint256 originationFee;\n        bool usageAsCollateralEnabled;\n        bool userUsesReserveAsCollateral;\n        address currentReserve;\n    }\n\n    /**\n     * @dev calculates the user data across the reserves.\n     * this includes the total liquidity/collateral/borrow balances in BNB,\n     * the average Loan To Value, the average Liquidation Ratio, and the Health factor.\n     * @param _user the address of the user\n     * @return the total liquidity, total collateral, total borrow balances of\n     * the user in BNB.\n     * also the average Ltv, liquidation threshold, and the health factor\n     **/\n    function calculateUserGlobalData(address _user)\n        public\n        view\n        returns (\n            uint256 totalLiquidityBalanceBNB,\n            uint256 totalCollateralBalanceBNB,\n            uint256 totalBorrowBalanceBNB,\n            uint256 totalFeesBNB,\n            uint256 currentLtv,\n            uint256 currentLiquidationThreshold,\n            uint256 healthFactor,\n            bool healthFactorBelowThreshold\n        )\n    {\n        IPriceOracleGetter oracle =\n            IPriceOracleGetter(addressesProvider.getPriceOracle());\n\n        // Usage of a memory struct of vars to avoid \"Stack too deep\" errors due to local variables\n        UserGlobalDataLocalVars memory vars;\n\n        address[] memory reserves = core.getReserves();\n\n        for (uint256 i = 0; i < reserves.length; i++) {\n            vars.currentReserve = reserves[i];\n\n            (\n                vars.compoundedLiquidityBalance,\n                vars.compoundedBorrowBalance,\n                vars.originationFee,\n                vars.userUsesReserveAsCollateral\n            ) = core.getUserBasicReserveData(vars.currentReserve, _user);\n\n            if (\n                vars.compoundedLiquidityBalance == 0 &&\n                vars.compoundedBorrowBalance == 0\n            ) {\n                continue;\n            }\n\n            //fetch reserve data\n            (\n                vars.reserveDecimals,\n                vars.baseLtv,\n                vars.liquidationThreshold,\n                vars.usageAsCollateralEnabled\n            ) = core.getReserveConfiguration(vars.currentReserve);\n\n            vars.tokenUnit = 10**vars.reserveDecimals;\n            vars.reserveUnitPrice = oracle.getAssetPrice(vars.currentReserve);\n\n            //liquidity and collateral balance\n            if (vars.compoundedLiquidityBalance > 0) {\n                uint256 liquidityBalanceBNB =\n                    vars\n                        .reserveUnitPrice\n                        .mul(vars.compoundedLiquidityBalance)\n                        .div(vars.tokenUnit);\n                totalLiquidityBalanceBNB = totalLiquidityBalanceBNB.add(\n                    liquidityBalanceBNB\n                );\n\n                if (\n                    vars.usageAsCollateralEnabled &&\n                    vars.userUsesReserveAsCollateral\n                ) {\n                    totalCollateralBalanceBNB = totalCollateralBalanceBNB.add(\n                        liquidityBalanceBNB\n                    );\n                    currentLtv = currentLtv.add(\n                        liquidityBalanceBNB.mul(vars.baseLtv)\n                    );\n                    currentLiquidationThreshold = currentLiquidationThreshold\n                        .add(\n                        liquidityBalanceBNB.mul(vars.liquidationThreshold)\n                    );\n                }\n            }\n\n            if (vars.compoundedBorrowBalance > 0) {\n                totalBorrowBalanceBNB = totalBorrowBalanceBNB.add(\n                    vars.reserveUnitPrice.mul(vars.compoundedBorrowBalance).div(\n                        vars.tokenUnit\n                    )\n                );\n                totalFeesBNB = totalFeesBNB.add(\n                    vars.originationFee.mul(vars.reserveUnitPrice).div(\n                        vars.tokenUnit\n                    )\n                );\n            }\n        }\n\n        currentLtv = totalCollateralBalanceBNB > 0\n            ? currentLtv.div(totalCollateralBalanceBNB)\n            : 0;\n        currentLiquidationThreshold = totalCollateralBalanceBNB > 0\n            ? currentLiquidationThreshold.div(totalCollateralBalanceBNB)\n            : 0;\n\n        healthFactor = calculateHealthFactorFromBalancesInternal(\n            totalCollateralBalanceBNB,\n            totalBorrowBalanceBNB,\n            totalFeesBNB,\n            currentLiquidationThreshold\n        );\n        healthFactorBelowThreshold =\n            healthFactor < HEALTH_FACTOR_LIQUIDATION_THRESHOLD;\n    }\n\n    struct balanceDecreaseAllowedLocalVars {\n        uint256 decimals;\n        uint256 collateralBalanceBNB;\n        uint256 borrowBalanceBNB;\n        uint256 totalFeesBNB;\n        uint256 currentLiquidationThreshold;\n        uint256 reserveLiquidationThreshold;\n        uint256 amountToDecreaseBNB;\n        uint256 collateralBalancefterDecrease;\n        uint256 liquidationThresholdAfterDecrease;\n        uint256 healthFactorAfterDecrease;\n        bool reserveUsageAsCollateralEnabled;\n    }\n\n    /**\n     * @dev check if a specific balance decrease is allowed (i.e. doesn't bring * the user borrow position health factor under 1e18)\n     * @param _reserve the address of the reserve\n     * @param _user the address of the user\n     * @param _amount the amount to decrease\n     * @return true if the decrease of the balance is allowed\n     **/\n\n    function balanceDecreaseAllowed(\n        address _reserve,\n        address _user,\n        uint256 _amount\n    ) external view returns (bool) {\n        // Usage of a memory struct of vars to avoid \"Stack too deep\" errors due to local variables\n        balanceDecreaseAllowedLocalVars memory vars;\n\n        (\n            vars.decimals,\n            ,\n            vars.reserveLiquidationThreshold,\n            vars.reserveUsageAsCollateralEnabled\n        ) = core.getReserveConfiguration(_reserve);\n\n        if (\n            !vars.reserveUsageAsCollateralEnabled ||\n            !core.isUserUseReserveAsCollateralEnabled(_reserve, _user)\n        ) {\n            return true; //if reserve is not used as collateral, no reasons to block the transfer\n        }\n\n        (\n            ,\n            vars.collateralBalanceBNB,\n            vars.borrowBalanceBNB,\n            vars.totalFeesBNB,\n            ,\n            vars.currentLiquidationThreshold,\n            ,\n\n        ) = calculateUserGlobalData(_user);\n\n        if (vars.borrowBalanceBNB == 0) {\n            return true; //no borrows - no reasons to block the transfer\n        }\n\n        IPriceOracleGetter oracle =\n            IPriceOracleGetter(addressesProvider.getPriceOracle());\n\n        vars.amountToDecreaseBNB = oracle\n            .getAssetPrice(_reserve)\n            .mul(_amount)\n            .div(10**vars.decimals);\n\n        vars.collateralBalancefterDecrease = vars.collateralBalanceBNB.sub(\n            vars.amountToDecreaseBNB\n        );\n\n        //if there is a borrow, there can't be 0 collateral\n        if (vars.collateralBalancefterDecrease == 0) {\n            return false;\n        }\n\n        vars.liquidationThresholdAfterDecrease = vars\n            .collateralBalanceBNB\n            .mul(vars.currentLiquidationThreshold)\n            .sub(vars.amountToDecreaseBNB.mul(vars.reserveLiquidationThreshold))\n            .div(vars.collateralBalancefterDecrease);\n\n        uint256 healthFactorAfterDecrease =\n            calculateHealthFactorFromBalancesInternal(\n                vars.collateralBalancefterDecrease,\n                vars.borrowBalanceBNB,\n                vars.totalFeesBNB,\n                vars.liquidationThresholdAfterDecrease\n            );\n\n        return healthFactorAfterDecrease > HEALTH_FACTOR_LIQUIDATION_THRESHOLD;\n    }\n\n    /**\n     * @notice calculates the amount of collateral needed in BNB to cover a new\n     * borrow.\n     * @param _reserve the reserve from which the user wants to borrow\n     * @param _amount the amount the user wants to borrow\n     * @param _fee the fee for the amount that the user needs to cover\n     * @param _userCurrentBorrowBalanceTH the current borrow balance of the user\n     * (before the borrow)\n     * @param _userCurrentLtv the average ltv of the user given his current\n     * collateral\n     * @return the total amount of collateral in BNB to cover the current borrow\n     * balance + the new amount + fee\n     **/\n    function calculateCollateralNeededInBNB(\n        address _reserve,\n        uint256 _amount,\n        uint256 _fee,\n        uint256 _userCurrentBorrowBalanceTH,\n        uint256 _userCurrentFeesBNB,\n        uint256 _userCurrentLtv\n    ) external view returns (uint256) {\n        uint256 reserveDecimals = core.getReserveDecimals(_reserve);\n\n        IPriceOracleGetter oracle =\n            IPriceOracleGetter(addressesProvider.getPriceOracle());\n\n        uint256 requestedBorrowAmountBNB =\n            oracle.getAssetPrice(_reserve).mul(_amount.add(_fee)).div(\n                10**reserveDecimals\n            ); //price is in bnb\n\n        //add the current already borrowed amount to the amount requested to calculate the total collateral needed.\n        uint256 collateralNeededInBNB =\n            _userCurrentBorrowBalanceTH\n                .add(_userCurrentFeesBNB)\n                .add(requestedBorrowAmountBNB)\n                .mul(100)\n                .div(_userCurrentLtv); //LTV is calculated in percentage\n\n        return collateralNeededInBNB;\n    }\n\n    /**\n     * @dev calculates the equivalent amount in BNB that an user can borrow,\n     * depending on the available collateral and the\n     * average Loan To Value.\n     * @param collateralBalanceBNB the total collateral balance\n     * @param borrowBalanceBNB the total borrow balance\n     * @param totalFeesBNB the total fees\n     * @param ltv the average loan to value\n     * @return the amount available to borrow in BNB for the user\n     **/\n\n    function calculateavailableBorrowsBNBInternal(\n        uint256 collateralBalanceBNB,\n        uint256 borrowBalanceBNB,\n        uint256 totalFeesBNB,\n        uint256 ltv\n    ) internal view returns (uint256) {\n        uint256 availableBorrowsBNB = collateralBalanceBNB.mul(ltv).div(100); //ltv is in percentage\n\n        if (availableBorrowsBNB < borrowBalanceBNB) {\n            return 0;\n        }\n\n        availableBorrowsBNB = availableBorrowsBNB.sub(\n            borrowBalanceBNB.add(totalFeesBNB)\n        );\n        //calculate fee\n        uint256 borrowFee =\n            IFeeProvider(addressesProvider.getFeeProvider())\n                .calculateLoanOriginationFee(availableBorrowsBNB);\n        return availableBorrowsBNB.sub(borrowFee);\n    }\n\n    /**\n     * @dev calculates the health factor from the corresponding balances\n     * @param collateralBalanceBNB the total collateral balance in BNB\n     * @param borrowBalanceBNB the total borrow balance in BNB\n     * @param totalFeesBNB the total fees in BNB\n     * @param liquidationThreshold the avg liquidation threshold\n     **/\n    function calculateHealthFactorFromBalancesInternal(\n        uint256 collateralBalanceBNB,\n        uint256 borrowBalanceBNB,\n        uint256 totalFeesBNB,\n        uint256 liquidationThreshold\n    ) internal pure returns (uint256) {\n        if (borrowBalanceBNB == 0) return uint256(-1);\n\n        return\n            (collateralBalanceBNB.mul(liquidationThreshold).div(100)).wadDiv(\n                borrowBalanceBNB.add(totalFeesBNB)\n            );\n    }\n\n    /**\n     * @dev returns the health factor liquidation threshold\n     **/\n    function getHealthFactorLiquidationThreshold()\n        public\n        pure\n        returns (uint256)\n    {\n        return HEALTH_FACTOR_LIQUIDATION_THRESHOLD;\n    }\n\n    /**\n     * @dev accessory functions to fetch data from the lendingPoolCore\n     **/\n    function getReserveConfigurationData(address _reserve)\n        external\n        view\n        returns (\n            uint256 ltv,\n            uint256 liquidationThreshold,\n            uint256 liquidationBonus,\n            address rateStrategyAddress,\n            bool usageAsCollateralEnabled,\n            bool borrowingEnabled,\n            bool stableBorrowRateEnabled,\n            bool isActive\n        )\n    {\n        (, ltv, liquidationThreshold, usageAsCollateralEnabled) = core\n            .getReserveConfiguration(_reserve);\n        stableBorrowRateEnabled = core.getReserveIsStableBorrowRateEnabled(\n            _reserve\n        );\n        borrowingEnabled = core.isReserveBorrowingEnabled(_reserve);\n        isActive = core.getReserveIsActive(_reserve);\n        liquidationBonus = core.getReserveLiquidationBonus(_reserve);\n\n        rateStrategyAddress = core.getReserveInterestRateStrategyAddress(\n            _reserve\n        );\n    }\n\n    function getReserveData(address _reserve)\n        external\n        view\n        returns (\n            uint256 totalLiquidity,\n            uint256 availableLiquidity,\n            uint256 totalBorrowsStable,\n            uint256 totalBorrowsVariable,\n            uint256 liquidityRate,\n            uint256 variableBorrowRate,\n            uint256 stableBorrowRate,\n            uint256 averageStableBorrowRate,\n            uint256 utilizationRate,\n            uint256 liquidityIndex,\n            uint256 variableBorrowIndex,\n            address mTokenAddress,\n            uint40 lastUpdateTimestamp\n        )\n    {\n        totalLiquidity = core.getReserveTotalLiquidity(_reserve);\n        availableLiquidity = core.getReserveAvailableLiquidity(_reserve);\n        totalBorrowsStable = core.getReserveTotalBorrowsStable(_reserve);\n        totalBorrowsVariable = core.getReserveTotalBorrowsVariable(_reserve);\n        liquidityRate = core.getReserveCurrentLiquidityRate(_reserve);\n        variableBorrowRate = core.getReserveCurrentVariableBorrowRate(_reserve);\n        stableBorrowRate = core.getReserveCurrentStableBorrowRate(_reserve);\n        averageStableBorrowRate = core.getReserveCurrentAverageStableBorrowRate(\n            _reserve\n        );\n        utilizationRate = core.getReserveUtilizationRate(_reserve);\n        liquidityIndex = core.getReserveLiquidityCumulativeIndex(_reserve);\n        variableBorrowIndex = core.getReserveVariableBorrowsCumulativeIndex(\n            _reserve\n        );\n        mTokenAddress = core.getReservemTokenAddress(_reserve);\n        lastUpdateTimestamp = core.getReserveLastUpdate(_reserve);\n    }\n\n    function getUserAccountData(address _user)\n        external\n        view\n        returns (\n            uint256 totalLiquidityBNB,\n            uint256 totalCollateralBNB,\n            uint256 totalBorrowsBNB,\n            uint256 totalFeesBNB,\n            uint256 availableBorrowsBNB,\n            uint256 currentLiquidationThreshold,\n            uint256 ltv,\n            uint256 healthFactor\n        )\n    {\n        (\n            totalLiquidityBNB,\n            totalCollateralBNB,\n            totalBorrowsBNB,\n            totalFeesBNB,\n            ltv,\n            currentLiquidationThreshold,\n            healthFactor,\n\n        ) = calculateUserGlobalData(_user);\n\n        availableBorrowsBNB = calculateavailableBorrowsBNBInternal(\n            totalCollateralBNB,\n            totalBorrowsBNB,\n            totalFeesBNB,\n            ltv\n        );\n    }\n\n    function getUserReserveData(address _reserve, address _user)\n        external\n        view\n        returns (\n            uint256 currentmTokenBalance,\n            uint256 currentBorrowBalance,\n            uint256 principalBorrowBalance,\n            uint256 borrowRateMode,\n            uint256 borrowRate,\n            uint256 liquidityRate,\n            uint256 originationFee,\n            uint256 variableBorrowIndex,\n            uint256 lastUpdateTimestamp,\n            bool usageAsCollateralEnabled\n        )\n    {\n        currentmTokenBalance = mToken(core.getReservemTokenAddress(_reserve))\n            .balanceOf(_user);\n        CoreLibrary.InterestRateMode mode =\n            core.getUserCurrentBorrowRateMode(_reserve, _user);\n        (principalBorrowBalance, currentBorrowBalance, ) = core\n            .getUserBorrowBalances(_reserve, _user);\n\n        //default is 0, if mode == CoreLibrary.InterestRateMode.NONE\n        if (mode == CoreLibrary.InterestRateMode.STABLE) {\n            borrowRate = core.getUserCurrentStableBorrowRate(_reserve, _user);\n        } else if (mode == CoreLibrary.InterestRateMode.VARIABLE) {\n            borrowRate = core.getReserveCurrentVariableBorrowRate(_reserve);\n        }\n\n        borrowRateMode = uint256(mode);\n        liquidityRate = core.getReserveCurrentLiquidityRate(_reserve);\n        originationFee = core.getUserOriginationFee(_reserve, _user);\n        variableBorrowIndex = core.getUserVariableBorrowCumulativeIndex(\n            _reserve,\n            _user\n        );\n        lastUpdateTimestamp = core.getUserLastUpdate(_reserve, _user);\n        usageAsCollateralEnabled = core.isUserUseReserveAsCollateralEnabled(\n            _reserve,\n            _user\n        );\n    }\n}\n",
  "sourcePath": "/Users/dev/Documents/Project/MCLendNew/MCL-SmartContracts/lending/contracts/lendingpool/LendingPoolDataProvider.sol",
  "compiler": {
    "name": "solc",
    "version": "0.5.16+commit.9c3226ce.Emscripten.clang"
  },
  "schemaVersion": "3.2.3",
  "updatedAt": "2021-02-19T07:32:48.676Z",
  "devdoc": {
    "author": "Multiplier Finance",
    "methods": {
      "balanceDecreaseAllowed(address,address,uint256)": {
        "details": "check if a specific balance decrease is allowed (i.e. doesn't bring * the user borrow position health factor under 1e18)",
        "params": {
          "_amount": "the amount to decrease",
          "_reserve": "the address of the reserve",
          "_user": "the address of the user"
        },
        "return": "true if the decrease of the balance is allowed*"
      },
      "calculateCollateralNeededInBNB(address,uint256,uint256,uint256,uint256,uint256)": {
        "params": {
          "_amount": "the amount the user wants to borrow",
          "_fee": "the fee for the amount that the user needs to cover",
          "_reserve": "the reserve from which the user wants to borrow",
          "_userCurrentBorrowBalanceTH": "the current borrow balance of the user (before the borrow)",
          "_userCurrentLtv": "the average ltv of the user given his current collateral"
        },
        "return": "the total amount of collateral in BNB to cover the current borrow balance + the new amount + fee*"
      },
      "calculateUserGlobalData(address)": {
        "details": "calculates the user data across the reserves. this includes the total liquidity/collateral/borrow balances in BNB, the average Loan To Value, the average Liquidation Ratio, and the Health factor.",
        "params": {
          "_user": "the address of the user"
        },
        "return": "the total liquidity, total collateral, total borrow balances of the user in BNB. also the average Ltv, liquidation threshold, and the health factor*"
      },
      "getHealthFactorLiquidationThreshold()": {
        "details": "returns the health factor liquidation threshold*"
      },
      "getReserveConfigurationData(address)": {
        "details": "accessory functions to fetch data from the lendingPoolCore*"
      },
      "initialize(address)": {
        "details": "initializer",
        "params": {
          "_addressesProvider": "the address of the Address Provider*"
        }
      }
    },
    "title": "LendingPoolDataProvider contract"
  },
  "userdoc": {
    "methods": {
      "calculateCollateralNeededInBNB(address,uint256,uint256,uint256,uint256,uint256)": {
        "notice": "calculates the amount of collateral needed in BNB to cover a new borrow."
      }
    },
    "notice": "Implements functions to fetch data from the core, and aggregate them in order to allow computation on the compounded balances and the account balances in BNB*"
  }
}