{
  "contractName": "LendingPoolParametersProvider",
  "abi": [
    {
      "constant": true,
      "inputs": [],
      "name": "getMaxStableRateBorrowSizePercent",
      "outputs": [
        {
          "internalType": "uint256",
          "name": "",
          "type": "uint256"
        }
      ],
      "payable": false,
      "stateMutability": "pure",
      "type": "function"
    },
    {
      "constant": true,
      "inputs": [],
      "name": "getRebalanceDownRateDelta",
      "outputs": [
        {
          "internalType": "uint256",
          "name": "",
          "type": "uint256"
        }
      ],
      "payable": false,
      "stateMutability": "pure",
      "type": "function"
    }
  ],
  "bytecode": "0x608060405234801561001057600080fd5b5060c08061001f6000396000f3fe6080604052348015600f57600080fd5b506004361060325760003560e01c806346f4f8d1146037578063d6b725ac146053575b600080fd5b603d606f565b6040518082815260200191505060405180910390f35b60596082565b6040518082815260200191505060405180910390f35b60006aa56fa5b99019a5c8000000905090565b6000601990509056fea265627a7a723158205c04c233af272238624958ad1d2f29e1c2ce84565233dd8d63d72e3edc39197664736f6c63430005100032",
  "source": "pragma solidity ^0.5.0;\r\n\r\nimport \"./UintStorage.sol\";\r\n\r\n/**\r\n* @title LendingPoolParametersProvider\r\n* @author Multiplier Finance\r\n* @notice stores the configuration parameters of the Lending Pool contract\r\n**/\r\n\r\n\r\ncontract LendingPoolParametersProvider {\r\n    \r\n    uint256 private constant MAX_STABLE_RATE_BORROW_SIZE_PERCENT = 25;\r\n    uint256 private constant REBALANCE_DOWN_RATE_DELTA = (1e27)/5;\r\n    \r\n    /**\r\n    * @dev returns the maximum stable rate borrow size, in percentage of the\r\n    * available liquidity.\r\n    **/\r\n    function getMaxStableRateBorrowSizePercent() external pure returns (uint256)  {\r\n        return (MAX_STABLE_RATE_BORROW_SIZE_PERCENT);\r\n    }\r\n\r\n    /**\r\n    * @dev returns the delta between the current stable rate and the user\r\n    * stable rate at which the borrow position of the user will be rebalanced\r\n    * (scaled down)\r\n    **/\r\n    function getRebalanceDownRateDelta() external pure returns (uint256) {\r\n        return (REBALANCE_DOWN_RATE_DELTA);\r\n    }\r\n  \r\n}\r\n",
  "sourcePath": "/Users/dev/Documents/Project/MCLendNew/MCL-SmartContracts/lending/contracts/configuration/LendingPoolParametersProvider.sol",
  "compiler": {
    "name": "solc",
    "version": "0.5.16+commit.9c3226ce.Emscripten.clang"
  },
  "schemaVersion": "3.2.3",
  "updatedAt": "2021-02-19T07:32:48.491Z",
  "devdoc": {
    "author": "Multiplier Finance",
    "methods": {
      "getMaxStableRateBorrowSizePercent()": {
        "details": "returns the maximum stable rate borrow size, in percentage of the available liquidity.*"
      },
      "getRebalanceDownRateDelta()": {
        "details": "returns the delta between the current stable rate and the user stable rate at which the borrow position of the user will be rebalanced (scaled down)*"
      }
    },
    "title": "LendingPoolParametersProvider"
  },
  "userdoc": {
    "methods": {},
    "notice": "stores the configuration parameters of the Lending Pool contract*"
  }
}