{
  "contractName": "LendingRateOracle",
  "abi": [
    {
      "constant": true,
      "inputs": [
        {
          "internalType": "address",
          "name": "_asset",
          "type": "address"
        }
      ],
      "name": "getMarketBorrowRate",
      "outputs": [
        {
          "internalType": "uint256",
          "name": "",
          "type": "uint256"
        }
      ],
      "payable": false,
      "stateMutability": "view",
      "type": "function"
    },
    {
      "constant": false,
      "inputs": [
        {
          "internalType": "address",
          "name": "_asset",
          "type": "address"
        },
        {
          "internalType": "uint256",
          "name": "_rate",
          "type": "uint256"
        }
      ],
      "name": "setMarketBorrowRate",
      "outputs": [],
      "payable": false,
      "stateMutability": "nonpayable",
      "type": "function"
    },
    {
      "constant": true,
      "inputs": [
        {
          "internalType": "address",
          "name": "_asset",
          "type": "address"
        }
      ],
      "name": "getMarketLiquidityRate",
      "outputs": [
        {
          "internalType": "uint256",
          "name": "",
          "type": "uint256"
        }
      ],
      "payable": false,
      "stateMutability": "view",
      "type": "function"
    },
    {
      "constant": false,
      "inputs": [
        {
          "internalType": "address",
          "name": "_asset",
          "type": "address"
        },
        {
          "internalType": "uint256",
          "name": "_rate",
          "type": "uint256"
        }
      ],
      "name": "setMarketLiquidityRate",
      "outputs": [],
      "payable": false,
      "stateMutability": "nonpayable",
      "type": "function"
    }
  ],
  "bytecode": "0x608060405234801561001057600080fd5b506102f2806100206000396000f3fe608060405234801561001057600080fd5b506004361061004c5760003560e01c806372eb293d146100515780639f86a0ee1461009f578063bb85c0bb146100ed578063fbe5ba1e14610145575b600080fd5b61009d6004803603604081101561006757600080fd5b81019080803573ffffffffffffffffffffffffffffffffffffffff1690602001909291908035906020019092919050505061019d565b005b6100eb600480360360408110156100b557600080fd5b81019080803573ffffffffffffffffffffffffffffffffffffffff169060200190929190803590602001909291905050506101e4565b005b61012f6004803603602081101561010357600080fd5b81019080803573ffffffffffffffffffffffffffffffffffffffff16906020019092919050505061022c565b6040518082815260200191505060405180910390f35b6101876004803603602081101561015b57600080fd5b81019080803573ffffffffffffffffffffffffffffffffffffffff169060200190929190505050610274565b6040518082815260200191505060405180910390f35b806000808473ffffffffffffffffffffffffffffffffffffffff1673ffffffffffffffffffffffffffffffffffffffff168152602001908152602001600020819055505050565b80600160008473ffffffffffffffffffffffffffffffffffffffff1673ffffffffffffffffffffffffffffffffffffffff168152602001908152602001600020819055505050565b60008060008373ffffffffffffffffffffffffffffffffffffffff1673ffffffffffffffffffffffffffffffffffffffff168152602001908152602001600020549050919050565b6000600160008373ffffffffffffffffffffffffffffffffffffffff1673ffffffffffffffffffffffffffffffffffffffff16815260200190815260200160002054905091905056fea265627a7a72315820f30657181cbb90ba754247ba6c9a03e11a0b56f07fcf3e2c43da6610a18452d464736f6c63430005100032",
  "source": "pragma solidity ^0.5.0;\r\n\r\nimport \"../../interfaces/ILendingRateOracle.sol\";\r\n\r\ncontract LendingRateOracle is ILendingRateOracle {\r\n    mapping(address => uint256) borrowRates;\r\n    mapping(address => uint256) liquidityRates;\r\n\r\n    function getMarketBorrowRate(address _asset)\r\n        external\r\n        view\r\n        returns (uint256)\r\n    {\r\n        return borrowRates[_asset];\r\n    }\r\n\r\n    function setMarketBorrowRate(address _asset, uint256 _rate) external {\r\n        borrowRates[_asset] = _rate;\r\n    }\r\n\r\n    function getMarketLiquidityRate(address _asset)\r\n        external\r\n        view\r\n        returns (uint256)\r\n    {\r\n        return liquidityRates[_asset];\r\n    }\r\n\r\n    function setMarketLiquidityRate(address _asset, uint256 _rate) external {\r\n        liquidityRates[_asset] = _rate;\r\n    }\r\n}\r\n",
  "sourcePath": "/Users/dev/Documents/Project/MCLendNew/MCL-SmartContracts/lending/contracts/mocks/oracle/LendingRateOracle.sol",
  "compiler": {
    "name": "solc",
    "version": "0.5.16+commit.9c3226ce.Emscripten.clang"
  },
  "schemaVersion": "3.2.3",
  "updatedAt": "2021-01-15T04:28:32.555Z",
  "devdoc": {
    "methods": {}
  },
  "userdoc": {
    "methods": {}
  }
}