{
  "contractName": "MockLendingPoolCore",
  "abi": [
    {
      "anonymous": false,
      "inputs": [
        {
          "indexed": true,
          "internalType": "address",
          "name": "reserve",
          "type": "address"
        },
        {
          "indexed": false,
          "internalType": "uint256",
          "name": "liquidityRate",
          "type": "uint256"
        },
        {
          "indexed": false,
          "internalType": "uint256",
          "name": "stableBorrowRate",
          "type": "uint256"
        },
        {
          "indexed": false,
          "internalType": "uint256",
          "name": "variableBorrowRate",
          "type": "uint256"
        },
        {
          "indexed": false,
          "internalType": "uint256",
          "name": "liquidityIndex",
          "type": "uint256"
        },
        {
          "indexed": false,
          "internalType": "uint256",
          "name": "variableBorrowIndex",
          "type": "uint256"
        }
      ],
      "name": "ReserveUpdated",
      "type": "event"
    },
    {
      "anonymous": false,
      "inputs": [
        {
          "indexed": true,
          "internalType": "uint256",
          "name": "revision",
          "type": "uint256"
        }
      ],
      "name": "ReserveUpdatedFromMock",
      "type": "event"
    },
    {
      "payable": true,
      "stateMutability": "payable",
      "type": "fallback"
    },
    {
      "constant": true,
      "inputs": [],
      "name": "CORE_REVISION",
      "outputs": [
        {
          "internalType": "uint256",
          "name": "",
          "type": "uint256"
        }
      ],
      "payable": false,
      "stateMutability": "view",
      "type": "function"
    },
    {
      "constant": false,
      "inputs": [
        {
          "internalType": "address",
          "name": "_reserve",
          "type": "address"
        }
      ],
      "name": "activateReserve",
      "outputs": [],
      "payable": false,
      "stateMutability": "nonpayable",
      "type": "function"
    },
    {
      "constant": true,
      "inputs": [],
      "name": "addressesProvider",
      "outputs": [
        {
          "internalType": "contract LendingPoolAddressesProvider",
          "name": "",
          "type": "address"
        }
      ],
      "payable": false,
      "stateMutability": "view",
      "type": "function"
    },
    {
      "constant": false,
      "inputs": [
        {
          "internalType": "address",
          "name": "_reserve",
          "type": "address"
        }
      ],
      "name": "deactivateReserve",
      "outputs": [],
      "payable": false,
      "stateMutability": "nonpayable",
      "type": "function"
    },
    {
      "constant": false,
      "inputs": [
        {
          "internalType": "address",
          "name": "_reserve",
          "type": "address"
        }
      ],
      "name": "disableBorrowingOnReserve",
      "outputs": [],
      "payable": false,
      "stateMutability": "nonpayable",
      "type": "function"
    },
    {
      "constant": false,
      "inputs": [
        {
          "internalType": "address",
          "name": "_reserve",
          "type": "address"
        }
      ],
      "name": "disableReserveAsCollateral",
      "outputs": [],
      "payable": false,
      "stateMutability": "nonpayable",
      "type": "function"
    },
    {
      "constant": false,
      "inputs": [
        {
          "internalType": "address",
          "name": "_reserve",
          "type": "address"
        }
      ],
      "name": "disableReserveStableBorrowRate",
      "outputs": [],
      "payable": false,
      "stateMutability": "nonpayable",
      "type": "function"
    },
    {
      "constant": false,
      "inputs": [
        {
          "internalType": "address",
          "name": "_reserve",
          "type": "address"
        },
        {
          "internalType": "bool",
          "name": "_stableBorrowRateEnabled",
          "type": "bool"
        }
      ],
      "name": "enableBorrowingOnReserve",
      "outputs": [],
      "payable": false,
      "stateMutability": "nonpayable",
      "type": "function"
    },
    {
      "constant": false,
      "inputs": [
        {
          "internalType": "address",
          "name": "_reserve",
          "type": "address"
        },
        {
          "internalType": "uint256",
          "name": "_baseLTVasCollateral",
          "type": "uint256"
        },
        {
          "internalType": "uint256",
          "name": "_liquidationThreshold",
          "type": "uint256"
        },
        {
          "internalType": "uint256",
          "name": "_liquidationBonus",
          "type": "uint256"
        }
      ],
      "name": "enableReserveAsCollateral",
      "outputs": [],
      "payable": false,
      "stateMutability": "nonpayable",
      "type": "function"
    },
    {
      "constant": false,
      "inputs": [
        {
          "internalType": "address",
          "name": "_reserve",
          "type": "address"
        }
      ],
      "name": "enableReserveStableBorrowRate",
      "outputs": [],
      "payable": false,
      "stateMutability": "nonpayable",
      "type": "function"
    },
    {
      "constant": true,
      "inputs": [],
      "name": "feeProvider",
      "outputs": [
        {
          "internalType": "contract IFeeProvider",
          "name": "",
          "type": "address"
        }
      ],
      "payable": false,
      "stateMutability": "view",
      "type": "function"
    },
    {
      "constant": false,
      "inputs": [
        {
          "internalType": "address",
          "name": "_reserve",
          "type": "address"
        }
      ],
      "name": "freezeReserve",
      "outputs": [],
      "payable": false,
      "stateMutability": "nonpayable",
      "type": "function"
    },
    {
      "constant": true,
      "inputs": [
        {
          "internalType": "address",
          "name": "_reserve",
          "type": "address"
        }
      ],
      "name": "getReserveAvailableLiquidity",
      "outputs": [
        {
          "internalType": "uint256",
          "name": "",
          "type": "uint256"
        }
      ],
      "payable": false,
      "stateMutability": "view",
      "type": "function"
    },
    {
      "constant": true,
      "inputs": [
        {
          "internalType": "address",
          "name": "_reserve",
          "type": "address"
        }
      ],
      "name": "getReserveConfiguration",
      "outputs": [
        {
          "internalType": "uint256",
          "name": "",
          "type": "uint256"
        },
        {
          "internalType": "uint256",
          "name": "",
          "type": "uint256"
        },
        {
          "internalType": "uint256",
          "name": "",
          "type": "uint256"
        },
        {
          "internalType": "bool",
          "name": "",
          "type": "bool"
        }
      ],
      "payable": false,
      "stateMutability": "view",
      "type": "function"
    },
    {
      "constant": true,
      "inputs": [
        {
          "internalType": "address",
          "name": "_reserve",
          "type": "address"
        }
      ],
      "name": "getReserveCurrentAverageStableBorrowRate",
      "outputs": [
        {
          "internalType": "uint256",
          "name": "",
          "type": "uint256"
        }
      ],
      "payable": false,
      "stateMutability": "view",
      "type": "function"
    },
    {
      "constant": true,
      "inputs": [
        {
          "internalType": "address",
          "name": "_reserve",
          "type": "address"
        }
      ],
      "name": "getReserveCurrentLiquidityRate",
      "outputs": [
        {
          "internalType": "uint256",
          "name": "",
          "type": "uint256"
        }
      ],
      "payable": false,
      "stateMutability": "view",
      "type": "function"
    },
    {
      "constant": true,
      "inputs": [
        {
          "internalType": "address",
          "name": "_reserve",
          "type": "address"
        }
      ],
      "name": "getReserveCurrentStableBorrowRate",
      "outputs": [
        {
          "internalType": "uint256",
          "name": "",
          "type": "uint256"
        }
      ],
      "payable": false,
      "stateMutability": "view",
      "type": "function"
    },
    {
      "constant": true,
      "inputs": [
        {
          "internalType": "address",
          "name": "_reserve",
          "type": "address"
        }
      ],
      "name": "getReserveCurrentVariableBorrowRate",
      "outputs": [
        {
          "internalType": "uint256",
          "name": "",
          "type": "uint256"
        }
      ],
      "payable": false,
      "stateMutability": "view",
      "type": "function"
    },
    {
      "constant": true,
      "inputs": [
        {
          "internalType": "address",
          "name": "_reserve",
          "type": "address"
        }
      ],
      "name": "getReserveDecimals",
      "outputs": [
        {
          "internalType": "uint256",
          "name": "",
          "type": "uint256"
        }
      ],
      "payable": false,
      "stateMutability": "view",
      "type": "function"
    },
    {
      "constant": true,
      "inputs": [
        {
          "internalType": "address",
          "name": "_reserve",
          "type": "address"
        }
      ],
      "name": "getReserveInterestRateStrategyAddress",
      "outputs": [
        {
          "internalType": "address",
          "name": "",
          "type": "address"
        }
      ],
      "payable": false,
      "stateMutability": "view",
      "type": "function"
    },
    {
      "constant": true,
      "inputs": [
        {
          "internalType": "address",
          "name": "_reserve",
          "type": "address"
        }
      ],
      "name": "getReserveIsActive",
      "outputs": [
        {
          "internalType": "bool",
          "name": "",
          "type": "bool"
        }
      ],
      "payable": false,
      "stateMutability": "view",
      "type": "function"
    },
    {
      "constant": true,
      "inputs": [
        {
          "internalType": "address",
          "name": "_reserve",
          "type": "address"
        }
      ],
      "name": "getReserveIsFreezed",
      "outputs": [
        {
          "internalType": "bool",
          "name": "",
          "type": "bool"
        }
      ],
      "payable": false,
      "stateMutability": "view",
      "type": "function"
    },
    {
      "constant": true,
      "inputs": [
        {
          "internalType": "address",
          "name": "_reserve",
          "type": "address"
        }
      ],
      "name": "getReserveIsStableBorrowRateEnabled",
      "outputs": [
        {
          "internalType": "bool",
          "name": "",
          "type": "bool"
        }
      ],
      "payable": false,
      "stateMutability": "view",
      "type": "function"
    },
    {
      "constant": true,
      "inputs": [
        {
          "internalType": "address",
          "name": "_reserve",
          "type": "address"
        }
      ],
      "name": "getReserveLastUpdate",
      "outputs": [
        {
          "internalType": "uint40",
          "name": "timestamp",
          "type": "uint40"
        }
      ],
      "payable": false,
      "stateMutability": "view",
      "type": "function"
    },
    {
      "constant": true,
      "inputs": [
        {
          "internalType": "address",
          "name": "_reserve",
          "type": "address"
        }
      ],
      "name": "getReserveLiquidationBonus",
      "outputs": [
        {
          "internalType": "uint256",
          "name": "",
          "type": "uint256"
        }
      ],
      "payable": false,
      "stateMutability": "view",
      "type": "function"
    },
    {
      "constant": true,
      "inputs": [
        {
          "internalType": "address",
          "name": "_reserve",
          "type": "address"
        }
      ],
      "name": "getReserveLiquidationThreshold",
      "outputs": [
        {
          "internalType": "uint256",
          "name": "",
          "type": "uint256"
        }
      ],
      "payable": false,
      "stateMutability": "view",
      "type": "function"
    },
    {
      "constant": true,
      "inputs": [
        {
          "internalType": "address",
          "name": "_reserve",
          "type": "address"
        }
      ],
      "name": "getReserveLiquidityCumulativeIndex",
      "outputs": [
        {
          "internalType": "uint256",
          "name": "",
          "type": "uint256"
        }
      ],
      "payable": false,
      "stateMutability": "view",
      "type": "function"
    },
    {
      "constant": true,
      "inputs": [
        {
          "internalType": "address",
          "name": "_reserve",
          "type": "address"
        }
      ],
      "name": "getReserveNormalizedIncome",
      "outputs": [
        {
          "internalType": "uint256",
          "name": "",
          "type": "uint256"
        }
      ],
      "payable": false,
      "stateMutability": "view",
      "type": "function"
    },
    {
      "constant": true,
      "inputs": [
        {
          "internalType": "address",
          "name": "_reserve",
          "type": "address"
        }
      ],
      "name": "getReserveTotalBorrows",
      "outputs": [
        {
          "internalType": "uint256",
          "name": "",
          "type": "uint256"
        }
      ],
      "payable": false,
      "stateMutability": "view",
      "type": "function"
    },
    {
      "constant": true,
      "inputs": [
        {
          "internalType": "address",
          "name": "_reserve",
          "type": "address"
        }
      ],
      "name": "getReserveTotalBorrowsStable",
      "outputs": [
        {
          "internalType": "uint256",
          "name": "",
          "type": "uint256"
        }
      ],
      "payable": false,
      "stateMutability": "view",
      "type": "function"
    },
    {
      "constant": true,
      "inputs": [
        {
          "internalType": "address",
          "name": "_reserve",
          "type": "address"
        }
      ],
      "name": "getReserveTotalBorrowsVariable",
      "outputs": [
        {
          "internalType": "uint256",
          "name": "",
          "type": "uint256"
        }
      ],
      "payable": false,
      "stateMutability": "view",
      "type": "function"
    },
    {
      "constant": true,
      "inputs": [
        {
          "internalType": "address",
          "name": "_reserve",
          "type": "address"
        }
      ],
      "name": "getReserveTotalLiquidity",
      "outputs": [
        {
          "internalType": "uint256",
          "name": "",
          "type": "uint256"
        }
      ],
      "payable": false,
      "stateMutability": "view",
      "type": "function"
    },
    {
      "constant": true,
      "inputs": [
        {
          "internalType": "address",
          "name": "_reserve",
          "type": "address"
        }
      ],
      "name": "getReserveUtilizationRate",
      "outputs": [
        {
          "internalType": "uint256",
          "name": "",
          "type": "uint256"
        }
      ],
      "payable": false,
      "stateMutability": "view",
      "type": "function"
    },
    {
      "constant": true,
      "inputs": [
        {
          "internalType": "address",
          "name": "_reserve",
          "type": "address"
        }
      ],
      "name": "getReserveVariableBorrowsCumulativeIndex",
      "outputs": [
        {
          "internalType": "uint256",
          "name": "",
          "type": "uint256"
        }
      ],
      "payable": false,
      "stateMutability": "view",
      "type": "function"
    },
    {
      "constant": true,
      "inputs": [
        {
          "internalType": "address",
          "name": "_reserve",
          "type": "address"
        }
      ],
      "name": "getReservemTokenAddress",
      "outputs": [
        {
          "internalType": "address",
          "name": "",
          "type": "address"
        }
      ],
      "payable": false,
      "stateMutability": "view",
      "type": "function"
    },
    {
      "constant": true,
      "inputs": [],
      "name": "getReserves",
      "outputs": [
        {
          "internalType": "address[]",
          "name": "",
          "type": "address[]"
        }
      ],
      "payable": false,
      "stateMutability": "view",
      "type": "function"
    },
    {
      "constant": true,
      "inputs": [
        {
          "internalType": "address",
          "name": "_reserve",
          "type": "address"
        }
      ],
      "name": "getTotalmTokenSupply",
      "outputs": [
        {
          "internalType": "uint256",
          "name": "",
          "type": "uint256"
        }
      ],
      "payable": false,
      "stateMutability": "view",
      "type": "function"
    },
    {
      "constant": true,
      "inputs": [
        {
          "internalType": "address",
          "name": "_reserve",
          "type": "address"
        },
        {
          "internalType": "address",
          "name": "_user",
          "type": "address"
        }
      ],
      "name": "getUserBasicReserveData",
      "outputs": [
        {
          "internalType": "uint256",
          "name": "",
          "type": "uint256"
        },
        {
          "internalType": "uint256",
          "name": "",
          "type": "uint256"
        },
        {
          "internalType": "uint256",
          "name": "",
          "type": "uint256"
        },
        {
          "internalType": "bool",
          "name": "",
          "type": "bool"
        }
      ],
      "payable": false,
      "stateMutability": "view",
      "type": "function"
    },
    {
      "constant": true,
      "inputs": [
        {
          "internalType": "address",
          "name": "_reserve",
          "type": "address"
        },
        {
          "internalType": "address",
          "name": "_user",
          "type": "address"
        }
      ],
      "name": "getUserBorrowBalances",
      "outputs": [
        {
          "internalType": "uint256",
          "name": "",
          "type": "uint256"
        },
        {
          "internalType": "uint256",
          "name": "",
          "type": "uint256"
        },
        {
          "internalType": "uint256",
          "name": "",
          "type": "uint256"
        }
      ],
      "payable": false,
      "stateMutability": "view",
      "type": "function"
    },
    {
      "constant": true,
      "inputs": [
        {
          "internalType": "address",
          "name": "_reserve",
          "type": "address"
        },
        {
          "internalType": "address",
          "name": "_user",
          "type": "address"
        }
      ],
      "name": "getUserCurrentBorrowRateMode",
      "outputs": [
        {
          "internalType": "enum CoreLibrary.InterestRateMode",
          "name": "",
          "type": "uint8"
        }
      ],
      "payable": false,
      "stateMutability": "view",
      "type": "function"
    },
    {
      "constant": true,
      "inputs": [
        {
          "internalType": "address",
          "name": "_reserve",
          "type": "address"
        },
        {
          "internalType": "address",
          "name": "_user",
          "type": "address"
        }
      ],
      "name": "getUserCurrentStableBorrowRate",
      "outputs": [
        {
          "internalType": "uint256",
          "name": "",
          "type": "uint256"
        }
      ],
      "payable": false,
      "stateMutability": "view",
      "type": "function"
    },
    {
      "constant": true,
      "inputs": [
        {
          "internalType": "address",
          "name": "_reserve",
          "type": "address"
        },
        {
          "internalType": "address",
          "name": "_user",
          "type": "address"
        }
      ],
      "name": "getUserLastUpdate",
      "outputs": [
        {
          "internalType": "uint256",
          "name": "timestamp",
          "type": "uint256"
        }
      ],
      "payable": false,
      "stateMutability": "view",
      "type": "function"
    },
    {
      "constant": true,
      "inputs": [
        {
          "internalType": "address",
          "name": "_reserve",
          "type": "address"
        },
        {
          "internalType": "address",
          "name": "_user",
          "type": "address"
        }
      ],
      "name": "getUserOriginationFee",
      "outputs": [
        {
          "internalType": "uint256",
          "name": "",
          "type": "uint256"
        }
      ],
      "payable": false,
      "stateMutability": "view",
      "type": "function"
    },
    {
      "constant": true,
      "inputs": [
        {
          "internalType": "address",
          "name": "_user",
          "type": "address"
        }
      ],
      "name": "getUserStakedTokenBalance",
      "outputs": [
        {
          "internalType": "uint256",
          "name": "",
          "type": "uint256"
        }
      ],
      "payable": false,
      "stateMutability": "view",
      "type": "function"
    },
    {
      "constant": true,
      "inputs": [
        {
          "internalType": "address",
          "name": "_reserve",
          "type": "address"
        },
        {
          "internalType": "address",
          "name": "_user",
          "type": "address"
        }
      ],
      "name": "getUserUnderlyingAssetBalance",
      "outputs": [
        {
          "internalType": "uint256",
          "name": "",
          "type": "uint256"
        }
      ],
      "payable": false,
      "stateMutability": "view",
      "type": "function"
    },
    {
      "constant": true,
      "inputs": [
        {
          "internalType": "address",
          "name": "_reserve",
          "type": "address"
        },
        {
          "internalType": "address",
          "name": "_user",
          "type": "address"
        }
      ],
      "name": "getUserVariableBorrowCumulativeIndex",
      "outputs": [
        {
          "internalType": "uint256",
          "name": "",
          "type": "uint256"
        }
      ],
      "payable": false,
      "stateMutability": "view",
      "type": "function"
    },
    {
      "constant": true,
      "inputs": [
        {
          "internalType": "address",
          "name": "_reserve",
          "type": "address"
        },
        {
          "internalType": "address",
          "name": "_user",
          "type": "address"
        }
      ],
      "name": "getUsermTokenBalance",
      "outputs": [
        {
          "internalType": "uint256",
          "name": "",
          "type": "uint256"
        }
      ],
      "payable": false,
      "stateMutability": "view",
      "type": "function"
    },
    {
      "constant": false,
      "inputs": [
        {
          "internalType": "address",
          "name": "_reserve",
          "type": "address"
        },
        {
          "internalType": "address",
          "name": "_mTokenAddress",
          "type": "address"
        },
        {
          "internalType": "uint256",
          "name": "_decimals",
          "type": "uint256"
        },
        {
          "internalType": "address",
          "name": "_interestRateStrategyAddress",
          "type": "address"
        }
      ],
      "name": "initReserve",
      "outputs": [],
      "payable": false,
      "stateMutability": "nonpayable",
      "type": "function"
    },
    {
      "constant": true,
      "inputs": [
        {
          "internalType": "address",
          "name": "_reserve",
          "type": "address"
        }
      ],
      "name": "isReserveBorrowingEnabled",
      "outputs": [
        {
          "internalType": "bool",
          "name": "",
          "type": "bool"
        }
      ],
      "payable": false,
      "stateMutability": "view",
      "type": "function"
    },
    {
      "constant": true,
      "inputs": [
        {
          "internalType": "address",
          "name": "_reserve",
          "type": "address"
        }
      ],
      "name": "isReserveUsageAsCollateralEnabled",
      "outputs": [
        {
          "internalType": "bool",
          "name": "",
          "type": "bool"
        }
      ],
      "payable": false,
      "stateMutability": "view",
      "type": "function"
    },
    {
      "constant": true,
      "inputs": [
        {
          "internalType": "address",
          "name": "_reserve",
          "type": "address"
        },
        {
          "internalType": "address",
          "name": "_user",
          "type": "address"
        },
        {
          "internalType": "uint256",
          "name": "_amount",
          "type": "uint256"
        }
      ],
      "name": "isUserAllowedToBorrowAtStable",
      "outputs": [
        {
          "internalType": "bool",
          "name": "",
          "type": "bool"
        }
      ],
      "payable": false,
      "stateMutability": "view",
      "type": "function"
    },
    {
      "constant": true,
      "inputs": [
        {
          "internalType": "address",
          "name": "_reserve",
          "type": "address"
        },
        {
          "internalType": "address",
          "name": "_user",
          "type": "address"
        }
      ],
      "name": "isUserUseReserveAsCollateralEnabled",
      "outputs": [
        {
          "internalType": "bool",
          "name": "",
          "type": "bool"
        }
      ],
      "payable": false,
      "stateMutability": "view",
      "type": "function"
    },
    {
      "constant": true,
      "inputs": [],
      "name": "lendingPoolAddress",
      "outputs": [
        {
          "internalType": "address",
          "name": "",
          "type": "address"
        }
      ],
      "payable": false,
      "stateMutability": "view",
      "type": "function"
    },
    {
      "constant": false,
      "inputs": [
        {
          "internalType": "address",
          "name": "_token",
          "type": "address"
        },
        {
          "internalType": "uint256",
          "name": "_amount",
          "type": "uint256"
        }
      ],
      "name": "liquidateFee",
      "outputs": [],
      "payable": true,
      "stateMutability": "payable",
      "type": "function"
    },
    {
      "constant": true,
      "inputs": [],
      "name": "parametersProvider",
      "outputs": [
        {
          "internalType": "contract LendingPoolParametersProvider",
          "name": "",
          "type": "address"
        }
      ],
      "payable": false,
      "stateMutability": "view",
      "type": "function"
    },
    {
      "constant": false,
      "inputs": [],
      "name": "refreshConfiguration",
      "outputs": [],
      "payable": false,
      "stateMutability": "nonpayable",
      "type": "function"
    },
    {
      "constant": false,
      "inputs": [
        {
          "internalType": "address",
          "name": "_reserveToRemove",
          "type": "address"
        }
      ],
      "name": "removeLastAddedReserve",
      "outputs": [],
      "payable": false,
      "stateMutability": "nonpayable",
      "type": "function"
    },
    {
      "constant": true,
      "inputs": [
        {
          "internalType": "uint256",
          "name": "",
          "type": "uint256"
        }
      ],
      "name": "reservesList",
      "outputs": [
        {
          "internalType": "address",
          "name": "",
          "type": "address"
        }
      ],
      "payable": false,
      "stateMutability": "view",
      "type": "function"
    },
    {
      "constant": true,
      "inputs": [],
      "name": "rewardManager",
      "outputs": [
        {
          "internalType": "contract RewardsManager",
          "name": "",
          "type": "address"
        }
      ],
      "payable": false,
      "stateMutability": "view",
      "type": "function"
    },
    {
      "constant": false,
      "inputs": [
        {
          "internalType": "address",
          "name": "_reserve",
          "type": "address"
        },
        {
          "internalType": "uint256",
          "name": "_ltv",
          "type": "uint256"
        }
      ],
      "name": "setReserveBaseLTVasCollateral",
      "outputs": [],
      "payable": false,
      "stateMutability": "nonpayable",
      "type": "function"
    },
    {
      "constant": false,
      "inputs": [
        {
          "internalType": "address",
          "name": "_reserve",
          "type": "address"
        },
        {
          "internalType": "uint256",
          "name": "_decimals",
          "type": "uint256"
        }
      ],
      "name": "setReserveDecimals",
      "outputs": [],
      "payable": false,
      "stateMutability": "nonpayable",
      "type": "function"
    },
    {
      "constant": false,
      "inputs": [
        {
          "internalType": "address",
          "name": "_reserve",
          "type": "address"
        },
        {
          "internalType": "address",
          "name": "_rateStrategyAddress",
          "type": "address"
        }
      ],
      "name": "setReserveInterestRateStrategyAddress",
      "outputs": [],
      "payable": false,
      "stateMutability": "nonpayable",
      "type": "function"
    },
    {
      "constant": false,
      "inputs": [
        {
          "internalType": "address",
          "name": "_reserve",
          "type": "address"
        },
        {
          "internalType": "uint256",
          "name": "_bonus",
          "type": "uint256"
        }
      ],
      "name": "setReserveLiquidationBonus",
      "outputs": [],
      "payable": false,
      "stateMutability": "nonpayable",
      "type": "function"
    },
    {
      "constant": false,
      "inputs": [
        {
          "internalType": "address",
          "name": "_reserve",
          "type": "address"
        },
        {
          "internalType": "uint256",
          "name": "_threshold",
          "type": "uint256"
        }
      ],
      "name": "setReserveLiquidationThreshold",
      "outputs": [],
      "payable": false,
      "stateMutability": "nonpayable",
      "type": "function"
    },
    {
      "constant": false,
      "inputs": [
        {
          "internalType": "address",
          "name": "_reserve",
          "type": "address"
        },
        {
          "internalType": "address",
          "name": "_user",
          "type": "address"
        },
        {
          "internalType": "bool",
          "name": "_useAsCollateral",
          "type": "bool"
        }
      ],
      "name": "setUserUseReserveAsCollateral",
      "outputs": [],
      "payable": false,
      "stateMutability": "nonpayable",
      "type": "function"
    },
    {
      "constant": false,
      "inputs": [
        {
          "internalType": "address",
          "name": "_token",
          "type": "address"
        },
        {
          "internalType": "address",
          "name": "_user",
          "type": "address"
        },
        {
          "internalType": "uint256",
          "name": "_amount",
          "type": "uint256"
        },
        {
          "internalType": "bool",
          "name": "_transferFromCore",
          "type": "bool"
        }
      ],
      "name": "transferToFeeCollectionAddress",
      "outputs": [],
      "payable": true,
      "stateMutability": "payable",
      "type": "function"
    },
    {
      "constant": false,
      "inputs": [
        {
          "internalType": "address",
          "name": "_reserve",
          "type": "address"
        },
        {
          "internalType": "address payable",
          "name": "_user",
          "type": "address"
        },
        {
          "internalType": "uint256",
          "name": "_amount",
          "type": "uint256"
        }
      ],
      "name": "transferToReserve",
      "outputs": [],
      "payable": true,
      "stateMutability": "payable",
      "type": "function"
    },
    {
      "constant": false,
      "inputs": [
        {
          "internalType": "address",
          "name": "_reserve",
          "type": "address"
        },
        {
          "internalType": "address payable",
          "name": "_user",
          "type": "address"
        },
        {
          "internalType": "uint256",
          "name": "_amount",
          "type": "uint256"
        }
      ],
      "name": "transferToUser",
      "outputs": [],
      "payable": false,
      "stateMutability": "nonpayable",
      "type": "function"
    },
    {
      "constant": false,
      "inputs": [
        {
          "internalType": "address",
          "name": "_reserve",
          "type": "address"
        }
      ],
      "name": "unfreezeReserve",
      "outputs": [],
      "payable": false,
      "stateMutability": "nonpayable",
      "type": "function"
    },
    {
      "constant": false,
      "inputs": [
        {
          "internalType": "address",
          "name": "_reserve",
          "type": "address"
        },
        {
          "internalType": "address",
          "name": "_user",
          "type": "address"
        },
        {
          "internalType": "uint256",
          "name": "_amountBorrowed",
          "type": "uint256"
        },
        {
          "internalType": "uint256",
          "name": "_borrowFee",
          "type": "uint256"
        },
        {
          "internalType": "enum CoreLibrary.InterestRateMode",
          "name": "_rateMode",
          "type": "uint8"
        }
      ],
      "name": "updateStateOnBorrow",
      "outputs": [
        {
          "internalType": "uint256",
          "name": "",
          "type": "uint256"
        },
        {
          "internalType": "uint256",
          "name": "",
          "type": "uint256"
        }
      ],
      "payable": false,
      "stateMutability": "nonpayable",
      "type": "function"
    },
    {
      "constant": false,
      "inputs": [
        {
          "internalType": "address",
          "name": "_reserve",
          "type": "address"
        },
        {
          "internalType": "address",
          "name": "_user",
          "type": "address"
        },
        {
          "internalType": "uint256",
          "name": "_amount",
          "type": "uint256"
        },
        {
          "internalType": "bool",
          "name": "_isFirstDeposit",
          "type": "bool"
        }
      ],
      "name": "updateStateOnDeposit",
      "outputs": [],
      "payable": false,
      "stateMutability": "nonpayable",
      "type": "function"
    },
    {
      "constant": false,
      "inputs": [
        {
          "internalType": "address",
          "name": "_reserve",
          "type": "address"
        }
      ],
      "name": "updateStateOnFlashLoan",
      "outputs": [],
      "payable": false,
      "stateMutability": "nonpayable",
      "type": "function"
    },
    {
      "constant": false,
      "inputs": [
        {
          "internalType": "address",
          "name": "_principalReserve",
          "type": "address"
        },
        {
          "internalType": "address",
          "name": "_collateralReserve",
          "type": "address"
        },
        {
          "internalType": "address",
          "name": "_user",
          "type": "address"
        },
        {
          "internalType": "uint256",
          "name": "_amountToLiquidate",
          "type": "uint256"
        },
        {
          "internalType": "uint256",
          "name": "_collateralToLiquidate",
          "type": "uint256"
        },
        {
          "internalType": "uint256",
          "name": "_feeLiquidated",
          "type": "uint256"
        },
        {
          "internalType": "uint256",
          "name": "_liquidatedCollateralForFee",
          "type": "uint256"
        },
        {
          "internalType": "uint256",
          "name": "_balanceIncrease",
          "type": "uint256"
        },
        {
          "internalType": "bool",
          "name": "_liquidatorReceivesMToken",
          "type": "bool"
        }
      ],
      "name": "updateStateOnLiquidation",
      "outputs": [],
      "payable": false,
      "stateMutability": "nonpayable",
      "type": "function"
    },
    {
      "constant": false,
      "inputs": [
        {
          "internalType": "address",
          "name": "_reserve",
          "type": "address"
        },
        {
          "internalType": "address",
          "name": "_user",
          "type": "address"
        },
        {
          "internalType": "uint256",
          "name": "_balanceIncrease",
          "type": "uint256"
        }
      ],
      "name": "updateStateOnRebalance",
      "outputs": [
        {
          "internalType": "uint256",
          "name": "",
          "type": "uint256"
        }
      ],
      "payable": false,
      "stateMutability": "nonpayable",
      "type": "function"
    },
    {
      "constant": false,
      "inputs": [
        {
          "internalType": "address",
          "name": "_reserve",
          "type": "address"
        },
        {
          "internalType": "address",
          "name": "_user",
          "type": "address"
        },
        {
          "internalType": "uint256",
          "name": "_amountRedeemed",
          "type": "uint256"
        },
        {
          "internalType": "bool",
          "name": "_userRedeemedEverything",
          "type": "bool"
        }
      ],
      "name": "updateStateOnRedeem",
      "outputs": [],
      "payable": false,
      "stateMutability": "nonpayable",
      "type": "function"
    },
    {
      "constant": false,
      "inputs": [
        {
          "internalType": "address",
          "name": "_reserve",
          "type": "address"
        },
        {
          "internalType": "address",
          "name": "_user",
          "type": "address"
        },
        {
          "internalType": "uint256",
          "name": "_paybackAmountMinusFees",
          "type": "uint256"
        },
        {
          "internalType": "uint256",
          "name": "_originationFeeRepaid",
          "type": "uint256"
        },
        {
          "internalType": "uint256",
          "name": "_balanceIncrease",
          "type": "uint256"
        },
        {
          "internalType": "bool",
          "name": "_repaidWholeLoan",
          "type": "bool"
        }
      ],
      "name": "updateStateOnRepay",
      "outputs": [],
      "payable": false,
      "stateMutability": "nonpayable",
      "type": "function"
    },
    {
      "constant": false,
      "inputs": [
        {
          "internalType": "address",
          "name": "_reserve",
          "type": "address"
        },
        {
          "internalType": "address",
          "name": "_user",
          "type": "address"
        },
        {
          "internalType": "uint256",
          "name": "_principalBorrowBalance",
          "type": "uint256"
        },
        {
          "internalType": "uint256",
          "name": "_compoundedBorrowBalance",
          "type": "uint256"
        },
        {
          "internalType": "uint256",
          "name": "_balanceIncrease",
          "type": "uint256"
        },
        {
          "internalType": "enum CoreLibrary.InterestRateMode",
          "name": "_currentRateMode",
          "type": "uint8"
        }
      ],
      "name": "updateStateOnSwapRate",
      "outputs": [
        {
          "internalType": "enum CoreLibrary.InterestRateMode",
          "name": "",
          "type": "uint8"
        },
        {
          "internalType": "uint256",
          "name": "",
          "type": "uint256"
        }
      ],
      "payable": false,
      "stateMutability": "nonpayable",
      "type": "function"
    },
    {
      "constant": false,
      "inputs": [
        {
          "internalType": "contract LendingPoolAddressesProvider",
          "name": "_addressesProvider",
          "type": "address"
        }
      ],
      "name": "initialize",
      "outputs": [],
      "payable": false,
      "stateMutability": "nonpayable",
      "type": "function"
    }
  ],
  "bytecode": "0x6080604052600080553480156200001557600080fd5b5061a97380620000266000396000f3fe60806040526004361061043d5760003560e01c80639e6748481161022f578063d06e2ec111610139578063e8ae2f5b116100b6578063f61483111161007a578063f614831114612367578063f6ea8d761461242c578063fa51854c146124b1578063fa93b2a51461252e578063feab31ac146125a95761043d565b8063e8ae2f5b146121b5578063eede87c114612206578063ef1f937314612263578063f054ab46146122b4578063f3b3d6cd146123195761043d565b8063dae4c4e7116100fd578063dae4c4e714611f69578063e10076ad14611fba578063e2174d8614612058578063e2403019146120eb578063e6d18190146121505761043d565b8063d06e2ec114611d66578063d15e005314611db7578063d3ae26b314611e1c578063d466016f14611e73578063da12d96f14611ece5761043d565b8063b8c0f745116101c7578063c4d66de81161018b578063c4d66de814611b6f578063c540148e14611bc0578063c72c4d1014611c25578063c76a6c9c14611c7c578063cda0af9614611ce15761043d565b8063b8c0f74514611968578063bcd6ffa4146119b9578063bd7fd79a14611a40578063bfacad8414611aa5578063c33cfd9014611b0a5761043d565b80639e6748481461157b5780639fb8afcd146115e4578063a2353fdc14611677578063a5bc826c146116dc578063a8dc0f451461174b578063af825b071461179c578063afcdbea31461182b578063b701d093146118b2578063b75d6f34146119175761043d565b806358707e061161034b5780636fffab0c116102c8578063906c0a411161028c578063906c0a41146113725780639659227d146113d75780639792d51e1461143c57806398bd47371461148d5780639e3c4f3b146114f25761043d565b80636fffab0c1461117757806370fb84f4146111fc5780637aca76eb146112575780637f90fec5146112a857806388079d881461130d5761043d565b806366bbd9281161030f57806366bbd92814610ed157806366d103f314610f2c57806368beb4d614610fb157806369cb88fd146110815780636ae14416146110e65761043d565b806358707e0614610ceb5780635c90bc8514610d425780635cf2e65614610dd35780635fc526ff14610e3c5780636468108314610eba5761043d565b80633443a14b116103d957806345330a401161039d57806345330a4014610a9457806346bc0f2814610b2f5780634a08accb14610b945780634f14460914610bfd5780634fe7a6e514610c705761043d565b80633443a14b1461086a57806337ac6fe4146108c557806338b32a33146109725780633e72a454146109ec5780634066fdea14610a3d5761043d565b806305075d6e146104b35780630902f1ac1461051c5780630c7de4e9146105885780630f4ef8a6146105b357806318a4dbca1461060a57806318f9bbae1461068f5780631ca19f19146106f85780631d2118f91461078b57806328fcf4d3146107fc575b61045c3373ffffffffffffffffffffffffffffffffffffffff1661262e565b6104b1576040517f08c379a000000000000000000000000000000000000000000000000000000000815260040180806020018281038252603481526020018061a6f36034913960400191505060405180910390fd5b005b3480156104bf57600080fd5b50610502600480360360208110156104d657600080fd5b81019080803573ffffffffffffffffffffffffffffffffffffffff169060200190929190505050612679565b604051808215151515815260200191505060405180910390f35b34801561052857600080fd5b506105316126d7565b6040518080602001828103825283818151815260200191508051906020019060200280838360005b83811015610574578082015181840152602081019050610559565b505050509050019250505060405180910390f35b34801561059457600080fd5b5061059d612765565b6040518082815260200191505060405180910390f35b3480156105bf57600080fd5b506105c861276a565b604051808273ffffffffffffffffffffffffffffffffffffffff1673ffffffffffffffffffffffffffffffffffffffff16815260200191505060405180910390f35b34801561061657600080fd5b506106796004803603604081101561062d57600080fd5b81019080803573ffffffffffffffffffffffffffffffffffffffff169060200190929190803573ffffffffffffffffffffffffffffffffffffffff169060200190929190505050612790565b6040518082815260200191505060405180910390f35b34801561069b57600080fd5b506106de600480360360208110156106b257600080fd5b81019080803573ffffffffffffffffffffffffffffffffffffffff1690602001909291905050506128b9565b604051808215151515815260200191505060405180910390f35b34801561070457600080fd5b506107676004803603604081101561071b57600080fd5b81019080803573ffffffffffffffffffffffffffffffffffffffff169060200190929190803573ffffffffffffffffffffffffffffffffffffffff169060200190929190505050612917565b6040518082600281111561077757fe5b60ff16815260200191505060405180910390f35b34801561079757600080fd5b506107fa600480360360408110156107ae57600080fd5b81019080803573ffffffffffffffffffffffffffffffffffffffff169060200190929190803573ffffffffffffffffffffffffffffffffffffffff1690602001909291905050506129cf565b005b6108686004803603606081101561081257600080fd5b81019080803573ffffffffffffffffffffffffffffffffffffffff169060200190929190803573ffffffffffffffffffffffffffffffffffffffff16906020019092919080359060200190929190505050612b7a565b005b34801561087657600080fd5b506108c36004803603604081101561088d57600080fd5b81019080803573ffffffffffffffffffffffffffffffffffffffff16906020019092919080359060200190929190505050612e47565b005b3480156108d157600080fd5b50610955600480360360a08110156108e857600080fd5b81019080803573ffffffffffffffffffffffffffffffffffffffff169060200190929190803573ffffffffffffffffffffffffffffffffffffffff1690602001909291908035906020019092919080359060200190929190803560ff169060200190929190505050612fbe565b604051808381526020018281526020019250505060405180910390f35b6109ea6004803603608081101561098857600080fd5b81019080803573ffffffffffffffffffffffffffffffffffffffff169060200190929190803573ffffffffffffffffffffffffffffffffffffffff169060200190929190803590602001909291908035151590602001909291905050506130bc565b005b3480156109f857600080fd5b50610a3b60048036036020811015610a0f57600080fd5b81019080803573ffffffffffffffffffffffffffffffffffffffff169060200190929190505050613174565b005b348015610a4957600080fd5b50610a526132fe565b604051808273ffffffffffffffffffffffffffffffffffffffff1673ffffffffffffffffffffffffffffffffffffffff16815260200191505060405180910390f35b348015610aa057600080fd5b50610b2d60048036036080811015610ab757600080fd5b81019080803573ffffffffffffffffffffffffffffffffffffffff169060200190929190803573ffffffffffffffffffffffffffffffffffffffff16906020019092919080359060200190929190803573ffffffffffffffffffffffffffffffffffffffff169060200190929190505050613324565b005b348015610b3b57600080fd5b50610b7e60048036036020811015610b5257600080fd5b81019080803573ffffffffffffffffffffffffffffffffffffffff169060200190929190505050613570565b6040518082815260200191505060405180910390f35b348015610ba057600080fd5b50610be360048036036020811015610bb757600080fd5b81019080803573ffffffffffffffffffffffffffffffffffffffff1690602001909291905050506135c1565b604051808215151515815260200191505060405180910390f35b348015610c0957600080fd5b50610c4c60048036036020811015610c2057600080fd5b81019080803573ffffffffffffffffffffffffffffffffffffffff16906020019092919050505061361f565b604051808264ffffffffff1664ffffffffff16815260200191505060405180910390f35b348015610c7c57600080fd5b50610ca960048036036020811015610c9357600080fd5b8101908080359060200190929190505050613681565b604051808273ffffffffffffffffffffffffffffffffffffffff1673ffffffffffffffffffffffffffffffffffffffff16815260200191505060405180910390f35b348015610cf757600080fd5b50610d006136bd565b604051808273ffffffffffffffffffffffffffffffffffffffff1673ffffffffffffffffffffffffffffffffffffffff16815260200191505060405180910390f35b348015610d4e57600080fd5b50610d9160048036036020811015610d6557600080fd5b81019080803573ffffffffffffffffffffffffffffffffffffffff1690602001909291905050506136e3565b604051808273ffffffffffffffffffffffffffffffffffffffff1673ffffffffffffffffffffffffffffffffffffffff16815260200191505060405180910390f35b348015610ddf57600080fd5b50610e2260048036036020811015610df657600080fd5b81019080803573ffffffffffffffffffffffffffffffffffffffff169060200190929190505050613754565b604051808215151515815260200191505060405180910390f35b348015610e4857600080fd5b50610e8b60048036036020811015610e5f57600080fd5b81019080803573ffffffffffffffffffffffffffffffffffffffff1690602001909291905050506137b2565b604051808581526020018481526020018381526020018215151515815260200194505050505060405180910390f35b348015610ec657600080fd5b50610ecf613842565b005b348015610edd57600080fd5b50610f2a60048036036040811015610ef457600080fd5b81019080803573ffffffffffffffffffffffffffffffffffffffff16906020019092919080359060200190929190505050613972565b005b348015610f3857600080fd5b50610f9b60048036036040811015610f4f57600080fd5b81019080803573ffffffffffffffffffffffffffffffffffffffff169060200190929190803573ffffffffffffffffffffffffffffffffffffffff169060200190929190505050613ae9565b6040518082815260200191505060405180910390f35b348015610fbd57600080fd5b5061107f6004803603610120811015610fd557600080fd5b81019080803573ffffffffffffffffffffffffffffffffffffffff169060200190929190803573ffffffffffffffffffffffffffffffffffffffff169060200190929190803573ffffffffffffffffffffffffffffffffffffffff1690602001909291908035906020019092919080359060200190929190803590602001909291908035906020019092919080359060200190929190803515159060200190929190505050613b90565b005b34801561108d57600080fd5b506110d0600480360360208110156110a457600080fd5b81019080803573ffffffffffffffffffffffffffffffffffffffff169060200190929190505050613c93565b6040518082815260200191505060405180910390f35b3480156110f257600080fd5b506111356004803603602081101561110957600080fd5b81019080803573ffffffffffffffffffffffffffffffffffffffff169060200190929190505050613d84565b604051808273ffffffffffffffffffffffffffffffffffffffff1673ffffffffffffffffffffffffffffffffffffffff16815260200191505060405180910390f35b34801561118357600080fd5b506111e66004803603604081101561119a57600080fd5b81019080803573ffffffffffffffffffffffffffffffffffffffff169060200190929190803573ffffffffffffffffffffffffffffffffffffffff169060200190929190505050613df5565b6040518082815260200191505060405180910390f35b34801561120857600080fd5b506112556004803603604081101561121f57600080fd5b81019080803573ffffffffffffffffffffffffffffffffffffffff16906020019092919080359060200190929190505050613e84565b005b34801561126357600080fd5b506112a66004803603602081101561127a57600080fd5b81019080803573ffffffffffffffffffffffffffffffffffffffff169060200190929190505050613ffb565b005b3480156112b457600080fd5b506112f7600480360360208110156112cb57600080fd5b81019080803573ffffffffffffffffffffffffffffffffffffffff169060200190929190505050614185565b6040518082815260200191505060405180910390f35b34801561131957600080fd5b5061135c6004803603602081101561133057600080fd5b81019080803573ffffffffffffffffffffffffffffffffffffffff1690602001909291905050506141d6565b6040518082815260200191505060405180910390f35b34801561137e57600080fd5b506113c16004803603602081101561139557600080fd5b81019080803573ffffffffffffffffffffffffffffffffffffffff16906020019092919050505061439e565b6040518082815260200191505060405180910390f35b3480156113e357600080fd5b50611426600480360360208110156113fa57600080fd5b81019080803573ffffffffffffffffffffffffffffffffffffffff1690602001909291905050506144aa565b6040518082815260200191505060405180910390f35b34801561144857600080fd5b5061148b6004803603602081101561145f57600080fd5b81019080803573ffffffffffffffffffffffffffffffffffffffff169060200190929190505050614612565b005b34801561149957600080fd5b506114dc600480360360208110156114b057600080fd5b81019080803573ffffffffffffffffffffffffffffffffffffffff169060200190929190505050614702565b6040518082815260200191505060405180910390f35b3480156114fe57600080fd5b506115616004803603604081101561151557600080fd5b81019080803573ffffffffffffffffffffffffffffffffffffffff169060200190929190803573ffffffffffffffffffffffffffffffffffffffff169060200190929190505050614753565b604051808215151515815260200191505060405180910390f35b34801561158757600080fd5b506115ca6004803603602081101561159e57600080fd5b81019080803573ffffffffffffffffffffffffffffffffffffffff1690602001909291905050506147ef565b604051808215151515815260200191505060405180910390f35b3480156115f057600080fd5b506116536004803603604081101561160757600080fd5b81019080803573ffffffffffffffffffffffffffffffffffffffff169060200190929190803573ffffffffffffffffffffffffffffffffffffffff16906020019092919050505061484d565b60405180848152602001838152602001828152602001935050505060405180910390f35b34801561168357600080fd5b506116c66004803603602081101561169a57600080fd5b81019080803573ffffffffffffffffffffffffffffffffffffffff169060200190929190505050614973565b6040518082815260200191505060405180910390f35b3480156116e857600080fd5b50611749600480360360808110156116ff57600080fd5b81019080803573ffffffffffffffffffffffffffffffffffffffff1690602001909291908035906020019092919080359060200190929190803590602001909291905050506149bf565b005b34801561175757600080fd5b5061179a6004803603602081101561176e57600080fd5b81019080803573ffffffffffffffffffffffffffffffffffffffff169060200190929190505050614baa565b005b3480156117a857600080fd5b50611815600480360360608110156117bf57600080fd5b81019080803573ffffffffffffffffffffffffffffffffffffffff169060200190929190803573ffffffffffffffffffffffffffffffffffffffff16906020019092919080359060200190929190505050614d7a565b6040518082815260200191505060405180910390f35b34801561183757600080fd5b506118b06004803603608081101561184e57600080fd5b81019080803573ffffffffffffffffffffffffffffffffffffffff169060200190929190803573ffffffffffffffffffffffffffffffffffffffff16906020019092919080359060200190929190803515159060200190929190505050614ecd565b005b3480156118be57600080fd5b50611901600480360360208110156118d557600080fd5b81019080803573ffffffffffffffffffffffffffffffffffffffff169060200190929190505050614fdf565b6040518082815260200191505060405180910390f35b34801561192357600080fd5b506119666004803603602081101561193a57600080fd5b81019080803573ffffffffffffffffffffffffffffffffffffffff169060200190929190505050615030565b005b34801561197457600080fd5b506119b76004803603602081101561198b57600080fd5b81019080803573ffffffffffffffffffffffffffffffffffffffff169060200190929190505050615227565b005b3480156119c557600080fd5b50611a3e600480360360808110156119dc57600080fd5b81019080803573ffffffffffffffffffffffffffffffffffffffff169060200190929190803573ffffffffffffffffffffffffffffffffffffffff169060200190929190803590602001909291908035151590602001909291905050506153b1565b005b348015611a4c57600080fd5b50611a8f60048036036020811015611a6357600080fd5b81019080803573ffffffffffffffffffffffffffffffffffffffff1690602001909291905050506154c3565b6040518082815260200191505060405180910390f35b348015611ab157600080fd5b50611af460048036036020811015611ac857600080fd5b81019080803573ffffffffffffffffffffffffffffffffffffffff169060200190929190505050615514565b6040518082815260200191505060405180910390f35b348015611b1657600080fd5b50611b5960048036036020811015611b2d57600080fd5b81019080803573ffffffffffffffffffffffffffffffffffffffff1690602001909291905050506155b6565b6040518082815260200191505060405180910390f35b348015611b7b57600080fd5b50611bbe60048036036020811015611b9257600080fd5b81019080803573ffffffffffffffffffffffffffffffffffffffff169060200190929190505050615625565b005b348015611bcc57600080fd5b50611c0f60048036036020811015611be357600080fd5b81019080803573ffffffffffffffffffffffffffffffffffffffff16906020019092919050505061575e565b6040518082815260200191505060405180910390f35b348015611c3157600080fd5b50611c3a6157af565b604051808273ffffffffffffffffffffffffffffffffffffffff1673ffffffffffffffffffffffffffffffffffffffff16815260200191505060405180910390f35b348015611c8857600080fd5b50611ccb60048036036020811015611c9f57600080fd5b81019080803573ffffffffffffffffffffffffffffffffffffffff1690602001909291905050506157d5565b6040518082815260200191505060405180910390f35b348015611ced57600080fd5b50611d5060048036036040811015611d0457600080fd5b81019080803573ffffffffffffffffffffffffffffffffffffffff169060200190929190803573ffffffffffffffffffffffffffffffffffffffff169060200190929190505050615826565b6040518082815260200191505060405180910390f35b348015611d7257600080fd5b50611db560048036036020811015611d8957600080fd5b81019080803573ffffffffffffffffffffffffffffffffffffffff16906020019092919050505061594f565b005b348015611dc357600080fd5b50611e0660048036036020811015611dda57600080fd5b81019080803573ffffffffffffffffffffffffffffffffffffffff169060200190929190505050615fa7565b6040518082815260200191505060405180910390f35b348015611e2857600080fd5b50611e31615ffc565b604051808273ffffffffffffffffffffffffffffffffffffffff1673ffffffffffffffffffffffffffffffffffffffff16815260200191505060405180910390f35b348015611e7f57600080fd5b50611ecc60048036036040811015611e9657600080fd5b81019080803573ffffffffffffffffffffffffffffffffffffffff16906020019092919080359060200190929190505050616022565b005b348015611eda57600080fd5b50611f67600480360360c0811015611ef157600080fd5b81019080803573ffffffffffffffffffffffffffffffffffffffff169060200190929190803573ffffffffffffffffffffffffffffffffffffffff169060200190929190803590602001909291908035906020019092919080359060200190929190803515159060200190929190505050616199565b005b348015611f7557600080fd5b50611fb860048036036020811015611f8c57600080fd5b81019080803573ffffffffffffffffffffffffffffffffffffffff16906020019092919050505061626d565b005b348015611fc657600080fd5b5061202960048036036040811015611fdd57600080fd5b81019080803573ffffffffffffffffffffffffffffffffffffffff169060200190929190803573ffffffffffffffffffffffffffffffffffffffff1690602001909291905050506163f7565b604051808581526020018481526020018381526020018215151515815260200194505050505060405180910390f35b34801561206457600080fd5b506120d16004803603606081101561207b57600080fd5b81019080803573ffffffffffffffffffffffffffffffffffffffff169060200190929190803573ffffffffffffffffffffffffffffffffffffffff16906020019092919080359060200190929190505050616547565b604051808215151515815260200191505060405180910390f35b3480156120f757600080fd5b5061213a6004803603602081101561210e57600080fd5b81019080803573ffffffffffffffffffffffffffffffffffffffff169060200190929190505050616678565b6040518082815260200191505060405180910390f35b34801561215c57600080fd5b5061219f6004803603602081101561217357600080fd5b81019080803573ffffffffffffffffffffffffffffffffffffffff169060200190929190505050616786565b6040518082815260200191505060405180910390f35b3480156121c157600080fd5b50612204600480360360208110156121d857600080fd5b81019080803573ffffffffffffffffffffffffffffffffffffffff1690602001909291905050506167d6565b005b34801561221257600080fd5b506122616004803603604081101561222957600080fd5b81019080803573ffffffffffffffffffffffffffffffffffffffff1690602001909291908035151590602001909291905050506169a6565b005b34801561226f57600080fd5b506122b26004803603602081101561228657600080fd5b81019080803573ffffffffffffffffffffffffffffffffffffffff169060200190929190505050616b83565b005b3480156122c057600080fd5b50612303600480360360208110156122d757600080fd5b81019080803573ffffffffffffffffffffffffffffffffffffffff169060200190929190505050616d0d565b6040518082815260200191505060405180910390f35b6123656004803603604081101561232f57600080fd5b81019080803573ffffffffffffffffffffffffffffffffffffffff16906020019092919080359060200190929190505050616d5e565b005b34801561237357600080fd5b50612401600480360360c081101561238a57600080fd5b81019080803573ffffffffffffffffffffffffffffffffffffffff169060200190929190803573ffffffffffffffffffffffffffffffffffffffff169060200190929190803590602001909291908035906020019092919080359060200190929190803560ff169060200190929190505050617028565b6040518083600281111561241157fe5b60ff1681526020018281526020019250505060405180910390f35b34801561243857600080fd5b5061249b6004803603604081101561244f57600080fd5b81019080803573ffffffffffffffffffffffffffffffffffffffff169060200190929190803573ffffffffffffffffffffffffffffffffffffffff169060200190929190505050617115565b6040518082815260200191505060405180910390f35b3480156124bd57600080fd5b5061252c600480360360608110156124d457600080fd5b81019080803573ffffffffffffffffffffffffffffffffffffffff169060200190929190803573ffffffffffffffffffffffffffffffffffffffff1690602001909291908035151590602001909291905050506171a4565b005b34801561253a57600080fd5b506125a76004803603606081101561255157600080fd5b81019080803573ffffffffffffffffffffffffffffffffffffffff169060200190929190803573ffffffffffffffffffffffffffffffffffffffff169060200190929190803590602001909291905050506172ec565b005b3480156125b557600080fd5b50612618600480360360408110156125cc57600080fd5b81019080803573ffffffffffffffffffffffffffffffffffffffff169060200190929190803573ffffffffffffffffffffffffffffffffffffffff1690602001909291905050506174e4565b6040518082815260200191505060405180910390f35b60008060007fc5d2460186f7233c927e7db2dcc703c0e500b653ca82273b7bfad8045d85a47060001b9050833f91506000801b82141580156126705750808214155b92505050919050565b600080603960008473ffffffffffffffffffffffffffffffffffffffff1673ffffffffffffffffffffffffffffffffffffffff168152602001908152602001600020905080600d01601c9054906101000a900460ff16915050919050565b6060603b80548060200260200160405190810160405280929190818152602001828054801561275b57602002820191906000526020600020905b8160009054906101000a900473ffffffffffffffffffffffffffffffffffffffff1673ffffffffffffffffffffffffffffffffffffffff1681526020019060010190808311612711575b5050505050905090565b600181565b603860009054906101000a900473ffffffffffffffffffffffffffffffffffffffff1681565b600080603960008573ffffffffffffffffffffffffffffffffffffffff1673ffffffffffffffffffffffffffffffffffffffff168152602001908152602001600020600c0160009054906101000a900473ffffffffffffffffffffffffffffffffffffffff1690508073ffffffffffffffffffffffffffffffffffffffff166370a08231846040518263ffffffff1660e01b8152600401808273ffffffffffffffffffffffffffffffffffffffff1673ffffffffffffffffffffffffffffffffffffffff16815260200191505060206040518083038186803b15801561287557600080fd5b505afa158015612889573d6000803e3d6000fd5b505050506040513d602081101561289f57600080fd5b810190808051906020019092919050505091505092915050565b600080603960008473ffffffffffffffffffffffffffffffffffffffff1673ffffffffffffffffffffffffffffffffffffffff168152602001908152602001600020905080600d01601a9054906101000a900460ff16915050919050565b600080603a60008473ffffffffffffffffffffffffffffffffffffffff1673ffffffffffffffffffffffffffffffffffffffff16815260200190815260200160002060008573ffffffffffffffffffffffffffffffffffffffff1673ffffffffffffffffffffffffffffffffffffffff16815260200190815260200160002090506000816000015414156129af5760009150506129c9565b60008160030154116129c25760026129c5565b60015b9150505b92915050565b3373ffffffffffffffffffffffffffffffffffffffff16603560009054906101000a900473ffffffffffffffffffffffffffffffffffffffff1673ffffffffffffffffffffffffffffffffffffffff166385c858b16040518163ffffffff1660e01b815260040160206040518083038186803b158015612a4e57600080fd5b505afa158015612a62573d6000803e3d6000fd5b505050506040513d6020811015612a7857600080fd5b810190808051906020019092919050505073ffffffffffffffffffffffffffffffffffffffff1614612af5576040517f08c379a000000000000000000000000000000000000000000000000000000000815260040180806020018281038252603781526020018061a7ec6037913960400191505060405180910390fd5b80603960008473ffffffffffffffffffffffffffffffffffffffff1673ffffffffffffffffffffffffffffffffffffffff168152602001908152602001600020600d0160006101000a81548173ffffffffffffffffffffffffffffffffffffffff021916908373ffffffffffffffffffffffffffffffffffffffff1602179055505050565b3373ffffffffffffffffffffffffffffffffffffffff16603460009054906101000a900473ffffffffffffffffffffffffffffffffffffffff1673ffffffffffffffffffffffffffffffffffffffff1614612c20576040517f08c379a000000000000000000000000000000000000000000000000000000000815260040180806020018281038252602a81526020018061a896602a913960400191505060405180910390fd5b612c28617573565b73ffffffffffffffffffffffffffffffffffffffff168373ffffffffffffffffffffffffffffffffffffffff1614612ce55760003414612cb3576040517f08c379a000000000000000000000000000000000000000000000000000000000815260040180806020018281038252603281526020018061a8c06032913960400191505060405180910390fd5b612ce08230838673ffffffffffffffffffffffffffffffffffffffff1661758f909392919063ffffffff16565b612e42565b80341015612d3e576040517f08c379a000000000000000000000000000000000000000000000000000000000815260040180806020018281038252603581526020018061a7276035913960400191505060405180910390fd5b80341115612e41576000612d5b823461769590919063ffffffff16565b905060008373ffffffffffffffffffffffffffffffffffffffff168261c35090604051806000019050600060405180830381858888f193505050503d8060008114612dc2576040519150601f19603f3d011682016040523d82523d6000602084013e612dc7565b606091505b5050905080612e3e576040517f08c379a00000000000000000000000000000000000000000000000000000000081526004018080602001828103825260168152602001807f5472616e73666572206f6620626e62206661696c65640000000000000000000081525060200191505060405180910390fd5b50505b5b505050565b3373ffffffffffffffffffffffffffffffffffffffff16603560009054906101000a900473ffffffffffffffffffffffffffffffffffffffff1673ffffffffffffffffffffffffffffffffffffffff166385c858b16040518163ffffffff1660e01b815260040160206040518083038186803b158015612ec657600080fd5b505afa158015612eda573d6000803e3d6000fd5b505050506040513d6020811015612ef057600080fd5b810190808051906020019092919050505073ffffffffffffffffffffffffffffffffffffffff1614612f6d576040517f08c379a000000000000000000000000000000000000000000000000000000000815260040180806020018281038252603781526020018061a7ec6037913960400191505060405180910390fd5b6000603960008473ffffffffffffffffffffffffffffffffffffffff1673ffffffffffffffffffffffffffffffffffffffff1681526020019081526020016000209050818160090181905550505050565b6000803373ffffffffffffffffffffffffffffffffffffffff16603460009054906101000a900473ffffffffffffffffffffffffffffffffffffffff1673ffffffffffffffffffffffffffffffffffffffff1614613067576040517f08c379a000000000000000000000000000000000000000000000000000000000815260040180806020018281038252602a81526020018061a896602a913960400191505060405180910390fd5b600080613074898961484d565b9250509150613087898984848b8a6176df565b613095898989848a8a61773c565b6130a189600089617962565b6130ab89896179a6565b819350935050509550959350505050565b3373ffffffffffffffffffffffffffffffffffffffff16603460009054906101000a900473ffffffffffffffffffffffffffffffffffffffff1673ffffffffffffffffffffffffffffffffffffffff1614613162576040517f08c379a000000000000000000000000000000000000000000000000000000000815260040180806020018281038252602a81526020018061a896602a913960400191505060405180910390fd5b61316e84848484617acf565b50505050565b3373ffffffffffffffffffffffffffffffffffffffff16603560009054906101000a900473ffffffffffffffffffffffffffffffffffffffff1673ffffffffffffffffffffffffffffffffffffffff166385c858b16040518163ffffffff1660e01b815260040160206040518083038186803b1580156131f357600080fd5b505afa158015613207573d6000803e3d6000fd5b505050506040513d602081101561321d57600080fd5b810190808051906020019092919050505073ffffffffffffffffffffffffffffffffffffffff161461329a576040517f08c379a000000000000000000000000000000000000000000000000000000000815260040180806020018281038252603781526020018061a7ec6037913960400191505060405180910390fd5b6000603960008373ffffffffffffffffffffffffffffffffffffffff1673ffffffffffffffffffffffffffffffffffffffff1681526020019081526020016000209050600081600d01601c6101000a81548160ff0219169083151502179055505050565b603760009054906101000a900473ffffffffffffffffffffffffffffffffffffffff1681565b3373ffffffffffffffffffffffffffffffffffffffff16603560009054906101000a900473ffffffffffffffffffffffffffffffffffffffff1673ffffffffffffffffffffffffffffffffffffffff166385c858b16040518163ffffffff1660e01b815260040160206040518083038186803b1580156133a357600080fd5b505afa1580156133b7573d6000803e3d6000fd5b505050506040513d60208110156133cd57600080fd5b810190808051906020019092919050505073ffffffffffffffffffffffffffffffffffffffff161461344a576040517f08c379a000000000000000000000000000000000000000000000000000000000815260040180806020018281038252603781526020018061a7ec6037913960400191505060405180910390fd5b603960008573ffffffffffffffffffffffffffffffffffffffff1673ffffffffffffffffffffffffffffffffffffffff16815260200190815260200160002073__CoreLibrary___________________________6313769cd490918585856040518563ffffffff1660e01b8152600401808581526020018473ffffffffffffffffffffffffffffffffffffffff1673ffffffffffffffffffffffffffffffffffffffff1681526020018381526020018273ffffffffffffffffffffffffffffffffffffffff1673ffffffffffffffffffffffffffffffffffffffff16815260200194505050505060006040518083038186803b15801561354957600080fd5b505af415801561355d573d6000803e3d6000fd5b5050505061356a846182a5565b50505050565b600080603960008473ffffffffffffffffffffffffffffffffffffffff1673ffffffffffffffffffffffffffffffffffffffff16815260200190815260200160002090508060060154915050919050565b600080603960008473ffffffffffffffffffffffffffffffffffffffff1673ffffffffffffffffffffffffffffffffffffffff168152602001908152602001600020905080600d01601d9054906101000a900460ff16915050919050565b600080603960008473ffffffffffffffffffffffffffffffffffffffff1673ffffffffffffffffffffffffffffffffffffffff168152602001908152602001600020905080600d0160149054906101000a900464ffffffffff16915050919050565b603b818154811061368e57fe5b906000526020600020016000915054906101000a900473ffffffffffffffffffffffffffffffffffffffff1681565b603660009054906101000a900473ffffffffffffffffffffffffffffffffffffffff1681565b600080603960008473ffffffffffffffffffffffffffffffffffffffff1673ffffffffffffffffffffffffffffffffffffffff168152602001908152602001600020905080600c0160009054906101000a900473ffffffffffffffffffffffffffffffffffffffff16915050919050565b600080603960008473ffffffffffffffffffffffffffffffffffffffff1673ffffffffffffffffffffffffffffffffffffffff168152602001908152602001600020905080600d0160199054906101000a900460ff16915050919050565b6000806000806000806000806000603960008b73ffffffffffffffffffffffffffffffffffffffff1673ffffffffffffffffffffffffffffffffffffffff168152602001908152602001600020905080600b01549450806008015493508060090154925080600d01601a9054906101000a900460ff16915084848484985098509850985050505050509193509193565b3373ffffffffffffffffffffffffffffffffffffffff16603560009054906101000a900473ffffffffffffffffffffffffffffffffffffffff1673ffffffffffffffffffffffffffffffffffffffff166385c858b16040518163ffffffff1660e01b815260040160206040518083038186803b1580156138c157600080fd5b505afa1580156138d5573d6000803e3d6000fd5b505050506040513d60208110156138eb57600080fd5b810190808051906020019092919050505073ffffffffffffffffffffffffffffffffffffffff1614613968576040517f08c379a000000000000000000000000000000000000000000000000000000000815260040180806020018281038252603781526020018061a7ec6037913960400191505060405180910390fd5b6139706183ab565b565b3373ffffffffffffffffffffffffffffffffffffffff16603560009054906101000a900473ffffffffffffffffffffffffffffffffffffffff1673ffffffffffffffffffffffffffffffffffffffff166385c858b16040518163ffffffff1660e01b815260040160206040518083038186803b1580156139f157600080fd5b505afa158015613a05573d6000803e3d6000fd5b505050506040513d6020811015613a1b57600080fd5b810190808051906020019092919050505073ffffffffffffffffffffffffffffffffffffffff1614613a98576040517f08c379a000000000000000000000000000000000000000000000000000000000815260040180806020018281038252603781526020018061a7ec6037913960400191505060405180910390fd5b6000603960008473ffffffffffffffffffffffffffffffffffffffff1673ffffffffffffffffffffffffffffffffffffffff16815260200190815260200160002090508181600b0181905550505050565b600080603a60008473ffffffffffffffffffffffffffffffffffffffff1673ffffffffffffffffffffffffffffffffffffffff16815260200190815260200160002060008573ffffffffffffffffffffffffffffffffffffffff1673ffffffffffffffffffffffffffffffffffffffff16815260200190815260200160002090508060040160009054906101000a900464ffffffffff1664ffffffffff1691505092915050565b3373ffffffffffffffffffffffffffffffffffffffff16603460009054906101000a900473ffffffffffffffffffffffffffffffffffffffff1673ffffffffffffffffffffffffffffffffffffffff1614613c36576040517f08c379a000000000000000000000000000000000000000000000000000000000815260040180806020018281038252602a81526020018061a896602a913960400191505060405180910390fd5b613c4289888885618739565b613c4b88618899565b613c5889888887866188e3565b613c6489876000617962565b80613c8857613c87886000613c828689618a6390919063ffffffff16565b617962565b5b505050505050505050565b600080603960008473ffffffffffffffffffffffffffffffffffffffff1673ffffffffffffffffffffffffffffffffffffffff168152602001908152602001600020600c0160009054906101000a900473ffffffffffffffffffffffffffffffffffffffff1690508073ffffffffffffffffffffffffffffffffffffffff166330d7e1986040518163ffffffff1660e01b815260040160206040518083038186803b158015613d4157600080fd5b505afa158015613d55573d6000803e3d6000fd5b505050506040513d6020811015613d6b57600080fd5b8101908080519060200190929190505050915050919050565b600080603960008473ffffffffffffffffffffffffffffffffffffffff1673ffffffffffffffffffffffffffffffffffffffff168152602001908152602001600020905080600d0160009054906101000a900473ffffffffffffffffffffffffffffffffffffffff16915050919050565b600080603a60008473ffffffffffffffffffffffffffffffffffffffff1673ffffffffffffffffffffffffffffffffffffffff16815260200190815260200160002060008573ffffffffffffffffffffffffffffffffffffffff1673ffffffffffffffffffffffffffffffffffffffff1681526020019081526020016000209050806003015491505092915050565b3373ffffffffffffffffffffffffffffffffffffffff16603560009054906101000a900473ffffffffffffffffffffffffffffffffffffffff1673ffffffffffffffffffffffffffffffffffffffff166385c858b16040518163ffffffff1660e01b815260040160206040518083038186803b158015613f0357600080fd5b505afa158015613f17573d6000803e3d6000fd5b505050506040513d6020811015613f2d57600080fd5b810190808051906020019092919050505073ffffffffffffffffffffffffffffffffffffffff1614613faa576040517f08c379a000000000000000000000000000000000000000000000000000000000815260040180806020018281038252603781526020018061a7ec6037913960400191505060405180910390fd5b6000603960008473ffffffffffffffffffffffffffffffffffffffff1673ffffffffffffffffffffffffffffffffffffffff16815260200190815260200160002090508181600a0181905550505050565b3373ffffffffffffffffffffffffffffffffffffffff16603560009054906101000a900473ffffffffffffffffffffffffffffffffffffffff1673ffffffffffffffffffffffffffffffffffffffff166385c858b16040518163ffffffff1660e01b815260040160206040518083038186803b15801561407a57600080fd5b505afa15801561408e573d6000803e3d6000fd5b505050506040513d60208110156140a457600080fd5b810190808051906020019092919050505073ffffffffffffffffffffffffffffffffffffffff1614614121576040517f08c379a000000000000000000000000000000000000000000000000000000000815260040180806020018281038252603781526020018061a7ec6037913960400191505060405180910390fd5b6000603960008373ffffffffffffffffffffffffffffffffffffffff1673ffffffffffffffffffffffffffffffffffffffff1681526020019081526020016000209050600181600d01601d6101000a81548160ff0219169083151502179055505050565b600080603960008473ffffffffffffffffffffffffffffffffffffffff1673ffffffffffffffffffffffffffffffffffffffff16815260200190815260200160002090508060020154915050919050565b600080603960008473ffffffffffffffffffffffffffffffffffffffff1673ffffffffffffffffffffffffffffffffffffffff16815260200190815260200160002090506000603560009054906101000a900473ffffffffffffffffffffffffffffffffffffffff1673ffffffffffffffffffffffffffffffffffffffff16633618abba6040518163ffffffff1660e01b815260040160206040518083038186803b15801561428457600080fd5b505afa158015614298573d6000803e3d6000fd5b505050506040513d60208110156142ae57600080fd5b8101908080519060200190929190505050905060008260050154141561438f578073ffffffffffffffffffffffffffffffffffffffff1663bb85c0bb856040518263ffffffff1660e01b8152600401808273ffffffffffffffffffffffffffffffffffffffff1673ffffffffffffffffffffffffffffffffffffffff16815260200191505060206040518083038186803b15801561434b57600080fd5b505afa15801561435f573d6000803e3d6000fd5b505050506040513d602081101561437557600080fd5b810190808051906020019092919050505092505050614399565b8160050154925050505b919050565b600080603960008473ffffffffffffffffffffffffffffffffffffffff1673ffffffffffffffffffffffffffffffffffffffff168152602001908152602001600020905060008160040154141561449c5780600d0160009054906101000a900473ffffffffffffffffffffffffffffffffffffffff1673ffffffffffffffffffffffffffffffffffffffff166334762ca56040518163ffffffff1660e01b815260040160206040518083038186803b15801561445957600080fd5b505afa15801561446d573d6000803e3d6000fd5b505050506040513d602081101561448357600080fd5b81019080805190602001909291905050509150506144a5565b80600401549150505b919050565b600080603560009054906101000a900473ffffffffffffffffffffffffffffffffffffffff1673ffffffffffffffffffffffffffffffffffffffff16639f9106d16040518163ffffffff1660e01b815260040160206040518083038186803b15801561451557600080fd5b505afa158015614529573d6000803e3d6000fd5b505050506040513d602081101561453f57600080fd5b810190808051906020019092919050505090508073ffffffffffffffffffffffffffffffffffffffff166370a08231846040518263ffffffff1660e01b8152600401808273ffffffffffffffffffffffffffffffffffffffff1673ffffffffffffffffffffffffffffffffffffffff16815260200191505060206040518083038186803b1580156145cf57600080fd5b505afa1580156145e3573d6000803e3d6000fd5b505050506040513d60208110156145f957600080fd5b8101908080519060200190929190505050915050919050565b3373ffffffffffffffffffffffffffffffffffffffff16603460009054906101000a900473ffffffffffffffffffffffffffffffffffffffff1673ffffffffffffffffffffffffffffffffffffffff16146146b8576040517f08c379a000000000000000000000000000000000000000000000000000000000815260040180806020018281038252602a81526020018061a896602a913960400191505060405180910390fd5b6146ff603960008373ffffffffffffffffffffffffffffffffffffffff1673ffffffffffffffffffffffffffffffffffffffff168152602001908152602001600020618aeb565b50565b600080603960008473ffffffffffffffffffffffffffffffffffffffff1673ffffffffffffffffffffffffffffffffffffffff16815260200190815260200160002090508060030154915050919050565b600080603a60008473ffffffffffffffffffffffffffffffffffffffff1673ffffffffffffffffffffffffffffffffffffffff16815260200190815260200160002060008573ffffffffffffffffffffffffffffffffffffffff1673ffffffffffffffffffffffffffffffffffffffff16815260200190815260200160002090508060040160059054906101000a900460ff1691505092915050565b600080603960008473ffffffffffffffffffffffffffffffffffffffff1673ffffffffffffffffffffffffffffffffffffffff168152602001908152602001600020905080600d01601b9054906101000a900460ff16915050919050565b600080600080603a60008673ffffffffffffffffffffffffffffffffffffffff1673ffffffffffffffffffffffffffffffffffffffff16815260200190815260200160002060008773ffffffffffffffffffffffffffffffffffffffff1673ffffffffffffffffffffffffffffffffffffffff16815260200190815260200160002090506000816000015414156148f85760008060008292508191508090509350935093505061496c565b600081600001549050600061494b83603960008b73ffffffffffffffffffffffffffffffffffffffff1673ffffffffffffffffffffffffffffffffffffffff168152602001908152602001600020618b94565b90508181614962848461769590919063ffffffff16565b9550955095505050505b9250925092565b6000603960008373ffffffffffffffffffffffffffffffffffffffff1673ffffffffffffffffffffffffffffffffffffffff168152602001908152602001600020600b01549050919050565b3373ffffffffffffffffffffffffffffffffffffffff16603560009054906101000a900473ffffffffffffffffffffffffffffffffffffffff1673ffffffffffffffffffffffffffffffffffffffff166385c858b16040518163ffffffff1660e01b815260040160206040518083038186803b158015614a3e57600080fd5b505afa158015614a52573d6000803e3d6000fd5b505050506040513d6020811015614a6857600080fd5b810190808051906020019092919050505073ffffffffffffffffffffffffffffffffffffffff1614614ae5576040517f08c379a000000000000000000000000000000000000000000000000000000000815260040180806020018281038252603781526020018061a7ec6037913960400191505060405180910390fd5b603960008573ffffffffffffffffffffffffffffffffffffffff1673ffffffffffffffffffffffffffffffffffffffff16815260200190815260200160002073__CoreLibrary___________________________6324ddc4e690918585856040518563ffffffff1660e01b81526004018085815260200184815260200183815260200182815260200194505050505060006040518083038186803b158015614b8c57600080fd5b505af4158015614ba0573d6000803e3d6000fd5b5050505050505050565b3373ffffffffffffffffffffffffffffffffffffffff16603560009054906101000a900473ffffffffffffffffffffffffffffffffffffffff1673ffffffffffffffffffffffffffffffffffffffff166385c858b16040518163ffffffff1660e01b815260040160206040518083038186803b158015614c2957600080fd5b505afa158015614c3d573d6000803e3d6000fd5b505050506040513d6020811015614c5357600080fd5b810190808051906020019092919050505073ffffffffffffffffffffffffffffffffffffffff1614614cd0576040517f08c379a000000000000000000000000000000000000000000000000000000000815260040180806020018281038252603781526020018061a7ec6037913960400191505060405180910390fd5b603960008273ffffffffffffffffffffffffffffffffffffffff1673ffffffffffffffffffffffffffffffffffffffff16815260200190815260200160002073__CoreLibrary___________________________63e5df56a690916040518263ffffffff1660e01b81526004018082815260200191505060006040518083038186803b158015614d5f57600080fd5b505af4158015614d73573d6000803e3d6000fd5b5050505050565b60003373ffffffffffffffffffffffffffffffffffffffff16603460009054906101000a900473ffffffffffffffffffffffffffffffffffffffff1673ffffffffffffffffffffffffffffffffffffffff1614614e22576040517f08c379a000000000000000000000000000000000000000000000000000000000815260040180806020018281038252602a81526020018061a896602a913960400191505060405180910390fd5b614e2d848484618ccb565b614e38848484618db7565b614e4484600080617962565b603a60008473ffffffffffffffffffffffffffffffffffffffff1673ffffffffffffffffffffffffffffffffffffffff16815260200190815260200160002060008573ffffffffffffffffffffffffffffffffffffffff1673ffffffffffffffffffffffffffffffffffffffff1681526020019081526020016000206003015490509392505050565b3373ffffffffffffffffffffffffffffffffffffffff16603460009054906101000a900473ffffffffffffffffffffffffffffffffffffffff1673ffffffffffffffffffffffffffffffffffffffff1614614f73576040517f08c379a000000000000000000000000000000000000000000000000000000000815260040180806020018281038252602a81526020018061a896602a913960400191505060405180910390fd5b614fba603960008673ffffffffffffffffffffffffffffffffffffffff1673ffffffffffffffffffffffffffffffffffffffff168152602001908152602001600020618aeb565b614fc684600084617962565b8015614fd957614fd8848460006171a4565b5b50505050565b600080603960008473ffffffffffffffffffffffffffffffffffffffff1673ffffffffffffffffffffffffffffffffffffffff16815260200190815260200160002090508060070154915050919050565b3373ffffffffffffffffffffffffffffffffffffffff16603560009054906101000a900473ffffffffffffffffffffffffffffffffffffffff1673ffffffffffffffffffffffffffffffffffffffff166385c858b16040518163ffffffff1660e01b815260040160206040518083038186803b1580156150af57600080fd5b505afa1580156150c3573d6000803e3d6000fd5b505050506040513d60208110156150d957600080fd5b810190808051906020019092919050505073ffffffffffffffffffffffffffffffffffffffff1614615156576040517f08c379a000000000000000000000000000000000000000000000000000000000815260040180806020018281038252603781526020018061a7ec6037913960400191505060405180910390fd5b6000603960008373ffffffffffffffffffffffffffffffffffffffff1673ffffffffffffffffffffffffffffffffffffffff1681526020019081526020016000209050600081600001541180156151b1575060008160070154115b615206576040517f08c379a000000000000000000000000000000000000000000000000000000000815260040180806020018281038252602481526020018061a8236024913960400191505060405180910390fd5b600181600d01601c6101000a81548160ff0219169083151502179055505050565b3373ffffffffffffffffffffffffffffffffffffffff16603560009054906101000a900473ffffffffffffffffffffffffffffffffffffffff1673ffffffffffffffffffffffffffffffffffffffff166385c858b16040518163ffffffff1660e01b815260040160206040518083038186803b1580156152a657600080fd5b505afa1580156152ba573d6000803e3d6000fd5b505050506040513d60208110156152d057600080fd5b810190808051906020019092919050505073ffffffffffffffffffffffffffffffffffffffff161461534d576040517f08c379a000000000000000000000000000000000000000000000000000000000815260040180806020018281038252603781526020018061a7ec6037913960400191505060405180910390fd5b6000603960008373ffffffffffffffffffffffffffffffffffffffff1673ffffffffffffffffffffffffffffffffffffffff1681526020019081526020016000209050600081600d01601b6101000a81548160ff0219169083151502179055505050565b3373ffffffffffffffffffffffffffffffffffffffff16603460009054906101000a900473ffffffffffffffffffffffffffffffffffffffff1673ffffffffffffffffffffffffffffffffffffffff1614615457576040517f08c379a000000000000000000000000000000000000000000000000000000000815260040180806020018281038252602a81526020018061a896602a913960400191505060405180910390fd5b61549e603960008673ffffffffffffffffffffffffffffffffffffffff1673ffffffffffffffffffffffffffffffffffffffff168152602001908152602001600020618aeb565b6154aa84836000617962565b80156154bd576154bc848460016171a4565b5b50505050565b600080603960008473ffffffffffffffffffffffffffffffffffffffff1673ffffffffffffffffffffffffffffffffffffffff16815260200190815260200160002090508060000154915050919050565b600080603960008473ffffffffffffffffffffffffffffffffffffffff1673ffffffffffffffffffffffffffffffffffffffff1681526020019081526020016000209050600061556382618ed2565b90506000811415615579576000925050506155b1565b600061558485616678565b90506155ab61559c8383618a6390919063ffffffff16565b83618ef690919063ffffffff16565b93505050505b919050565b600080603960008473ffffffffffffffffffffffffffffffffffffffff1673ffffffffffffffffffffffffffffffffffffffff168152602001908152602001600020905061561d61560682618ed2565b61560f85616678565b618a6390919063ffffffff16565b915050919050565b600061562f618f52565b9050600160009054906101000a900460ff1680615650575061564f618f5b565b5b8061565c575060005481115b6156b1576040517f08c379a000000000000000000000000000000000000000000000000000000000815260040180806020018281038252602e81526020018061a868602e913960400191505060405180910390fd5b6000600160009054906101000a900460ff1615905080156156ee5760018060006101000a81548160ff021916908315150217905550816000819055505b82603560006101000a81548173ffffffffffffffffffffffffffffffffffffffff021916908373ffffffffffffffffffffffffffffffffffffffff1602179055506157376183ab565b8015615759576000600160006101000a81548160ff0219169083151502179055505b505050565b600080603960008473ffffffffffffffffffffffffffffffffffffffff1673ffffffffffffffffffffffffffffffffffffffff16815260200190815260200160002090508060010154915050919050565b603560009054906101000a900473ffffffffffffffffffffffffffffffffffffffff1681565b600080603960008473ffffffffffffffffffffffffffffffffffffffff1673ffffffffffffffffffffffffffffffffffffffff168152602001908152602001600020905080600a0154915050919050565b600080603960008573ffffffffffffffffffffffffffffffffffffffff1673ffffffffffffffffffffffffffffffffffffffff168152602001908152602001600020600c0160009054906101000a900473ffffffffffffffffffffffffffffffffffffffff1690508073ffffffffffffffffffffffffffffffffffffffff1663c634dfaa846040518263ffffffff1660e01b8152600401808273ffffffffffffffffffffffffffffffffffffffff1673ffffffffffffffffffffffffffffffffffffffff16815260200191505060206040518083038186803b15801561590b57600080fd5b505afa15801561591f573d6000803e3d6000fd5b505050506040513d602081101561593557600080fd5b810190808051906020019092919050505091505092915050565b3373ffffffffffffffffffffffffffffffffffffffff16603560009054906101000a900473ffffffffffffffffffffffffffffffffffffffff1673ffffffffffffffffffffffffffffffffffffffff166385c858b16040518163ffffffff1660e01b815260040160206040518083038186803b1580156159ce57600080fd5b505afa1580156159e2573d6000803e3d6000fd5b505050506040513d60208110156159f857600080fd5b810190808051906020019092919050505073ffffffffffffffffffffffffffffffffffffffff1614615a75576040517f08c379a000000000000000000000000000000000000000000000000000000000815260040180806020018281038252603781526020018061a7ec6037913960400191505060405180910390fd5b6000603b6001603b805490500381548110615a8c57fe5b9060005260206000200160009054906101000a900473ffffffffffffffffffffffffffffffffffffffff1690508173ffffffffffffffffffffffffffffffffffffffff168173ffffffffffffffffffffffffffffffffffffffff1614615b3d576040517f08c379a000000000000000000000000000000000000000000000000000000000815260040180806020018281038252603d81526020018061a77f603d913960400191505060405180910390fd5b6000615b4882616786565b14615b9e576040517f08c379a000000000000000000000000000000000000000000000000000000000815260040180806020018281038252603081526020018061a7bc6030913960400191505060405180910390fd5b6000603960008373ffffffffffffffffffffffffffffffffffffffff1673ffffffffffffffffffffffffffffffffffffffff168152602001908152602001600020600d01601c6101000a81548160ff0219169083151502179055506000603960008373ffffffffffffffffffffffffffffffffffffffff1673ffffffffffffffffffffffffffffffffffffffff168152602001908152602001600020600c0160006101000a81548173ffffffffffffffffffffffffffffffffffffffff021916908373ffffffffffffffffffffffffffffffffffffffff1602179055506000603960008373ffffffffffffffffffffffffffffffffffffffff1673ffffffffffffffffffffffffffffffffffffffff168152602001908152602001600020600b01819055506000603960008373ffffffffffffffffffffffffffffffffffffffff1673ffffffffffffffffffffffffffffffffffffffff168152602001908152602001600020600001819055506000603960008373ffffffffffffffffffffffffffffffffffffffff1673ffffffffffffffffffffffffffffffffffffffff168152602001908152602001600020600701819055506000603960008373ffffffffffffffffffffffffffffffffffffffff1673ffffffffffffffffffffffffffffffffffffffff168152602001908152602001600020600d0160196101000a81548160ff0219169083151502179055506000603960008373ffffffffffffffffffffffffffffffffffffffff1673ffffffffffffffffffffffffffffffffffffffff168152602001908152602001600020600d01601a6101000a81548160ff0219169083151502179055506000603960008373ffffffffffffffffffffffffffffffffffffffff1673ffffffffffffffffffffffffffffffffffffffff168152602001908152602001600020600801819055506000603960008373ffffffffffffffffffffffffffffffffffffffff1673ffffffffffffffffffffffffffffffffffffffff168152602001908152602001600020600901819055506000603960008373ffffffffffffffffffffffffffffffffffffffff1673ffffffffffffffffffffffffffffffffffffffff168152602001908152602001600020600a01819055506000603960008373ffffffffffffffffffffffffffffffffffffffff1673ffffffffffffffffffffffffffffffffffffffff168152602001908152602001600020600d0160006101000a81548173ffffffffffffffffffffffffffffffffffffffff021916908373ffffffffffffffffffffffffffffffffffffffff160217905550603b805480615f6e57fe5b6001900381819060005260206000200160006101000a81549073ffffffffffffffffffffffffffffffffffffffff021916905590555050565b600080603960008473ffffffffffffffffffffffffffffffffffffffff1673ffffffffffffffffffffffffffffffffffffffff1681526020019081526020016000209050615ff481618f6c565b915050919050565b603460009054906101000a900473ffffffffffffffffffffffffffffffffffffffff1681565b3373ffffffffffffffffffffffffffffffffffffffff16603560009054906101000a900473ffffffffffffffffffffffffffffffffffffffff1673ffffffffffffffffffffffffffffffffffffffff166385c858b16040518163ffffffff1660e01b815260040160206040518083038186803b1580156160a157600080fd5b505afa1580156160b5573d6000803e3d6000fd5b505050506040513d60208110156160cb57600080fd5b810190808051906020019092919050505073ffffffffffffffffffffffffffffffffffffffff1614616148576040517f08c379a000000000000000000000000000000000000000000000000000000000815260040180806020018281038252603781526020018061a7ec6037913960400191505060405180910390fd5b6000603960008473ffffffffffffffffffffffffffffffffffffffff1673ffffffffffffffffffffffffffffffffffffffff1681526020019081526020016000209050818160080181905550505050565b3373ffffffffffffffffffffffffffffffffffffffff16603460009054906101000a900473ffffffffffffffffffffffffffffffffffffffff1673ffffffffffffffffffffffffffffffffffffffff161461623f576040517f08c379a000000000000000000000000000000000000000000000000000000000815260040180806020018281038252602a81526020018061a896602a913960400191505060405180910390fd5b61624b86868685618fb3565b616259868686868686619151565b61626586856000617962565b505050505050565b3373ffffffffffffffffffffffffffffffffffffffff16603560009054906101000a900473ffffffffffffffffffffffffffffffffffffffff1673ffffffffffffffffffffffffffffffffffffffff166385c858b16040518163ffffffff1660e01b815260040160206040518083038186803b1580156162ec57600080fd5b505afa158015616300573d6000803e3d6000fd5b505050506040513d602081101561631657600080fd5b810190808051906020019092919050505073ffffffffffffffffffffffffffffffffffffffff1614616393576040517f08c379a000000000000000000000000000000000000000000000000000000000815260040180806020018281038252603781526020018061a7ec6037913960400191505060405180910390fd5b6000603960008373ffffffffffffffffffffffffffffffffffffffff1673ffffffffffffffffffffffffffffffffffffffff1681526020019081526020016000209050600181600d01601b6101000a81548160ff0219169083151502179055505050565b6000806000806000603960008873ffffffffffffffffffffffffffffffffffffffff1673ffffffffffffffffffffffffffffffffffffffff16815260200190815260200160002090506000603a60008873ffffffffffffffffffffffffffffffffffffffff1673ffffffffffffffffffffffffffffffffffffffff16815260200190815260200160002060008973ffffffffffffffffffffffffffffffffffffffff1673ffffffffffffffffffffffffffffffffffffffff168152602001908152602001600020905060006164cc8989612790565b905060008260000154141561650757806000808460040160059054906101000a900460ff16829250819150965096509650965050505061653e565b8061651b8484618b9490919063ffffffff16565b83600201548460040160059054906101000a900460ff1696509650965096505050505b92959194509250565b600080603960008673ffffffffffffffffffffffffffffffffffffffff1673ffffffffffffffffffffffffffffffffffffffff16815260200190815260200160002090506000603a60008673ffffffffffffffffffffffffffffffffffffffff1673ffffffffffffffffffffffffffffffffffffffff16815260200190815260200160002060008773ffffffffffffffffffffffffffffffffffffffff1673ffffffffffffffffffffffffffffffffffffffff168152602001908152602001600020905081600d01601b9054906101000a900460ff1661662c57600092505050616671565b8060040160059054906101000a900460ff161580616659575081600d01601a9054906101000a900460ff16155b8061666c57506166698686612790565b84115b925050505b9392505050565b60008060009050616687617573565b73ffffffffffffffffffffffffffffffffffffffff168373ffffffffffffffffffffffffffffffffffffffff1614156166c25747905061677d565b8273ffffffffffffffffffffffffffffffffffffffff166370a08231306040518263ffffffff1660e01b8152600401808273ffffffffffffffffffffffffffffffffffffffff1673ffffffffffffffffffffffffffffffffffffffff16815260200191505060206040518083038186803b15801561673f57600080fd5b505afa158015616753573d6000803e3d6000fd5b505050506040513d602081101561676957600080fd5b810190808051906020019092919050505090505b80915050919050565b60006167cf603960008473ffffffffffffffffffffffffffffffffffffffff1673ffffffffffffffffffffffffffffffffffffffff168152602001908152602001600020618ed2565b9050919050565b3373ffffffffffffffffffffffffffffffffffffffff16603560009054906101000a900473ffffffffffffffffffffffffffffffffffffffff1673ffffffffffffffffffffffffffffffffffffffff166385c858b16040518163ffffffff1660e01b815260040160206040518083038186803b15801561685557600080fd5b505afa158015616869573d6000803e3d6000fd5b505050506040513d602081101561687f57600080fd5b810190808051906020019092919050505073ffffffffffffffffffffffffffffffffffffffff16146168fc576040517f08c379a000000000000000000000000000000000000000000000000000000000815260040180806020018281038252603781526020018061a7ec6037913960400191505060405180910390fd5b603960008273ffffffffffffffffffffffffffffffffffffffff1673ffffffffffffffffffffffffffffffffffffffff16815260200190815260200160002073__CoreLibrary___________________________6383c165a090916040518263ffffffff1660e01b81526004018082815260200191505060006040518083038186803b15801561698b57600080fd5b505af415801561699f573d6000803e3d6000fd5b5050505050565b3373ffffffffffffffffffffffffffffffffffffffff16603560009054906101000a900473ffffffffffffffffffffffffffffffffffffffff1673ffffffffffffffffffffffffffffffffffffffff166385c858b16040518163ffffffff1660e01b815260040160206040518083038186803b158015616a2557600080fd5b505afa158015616a39573d6000803e3d6000fd5b505050506040513d6020811015616a4f57600080fd5b810190808051906020019092919050505073ffffffffffffffffffffffffffffffffffffffff1614616acc576040517f08c379a000000000000000000000000000000000000000000000000000000000815260040180806020018281038252603781526020018061a7ec6037913960400191505060405180910390fd5b603960008373ffffffffffffffffffffffffffffffffffffffff1673ffffffffffffffffffffffffffffffffffffffff16815260200190815260200160002073__CoreLibrary___________________________63f63babbe9091836040518363ffffffff1660e01b815260040180838152602001821515151581526020019250505060006040518083038186803b158015616b6757600080fd5b505af4158015616b7b573d6000803e3d6000fd5b505050505050565b3373ffffffffffffffffffffffffffffffffffffffff16603560009054906101000a900473ffffffffffffffffffffffffffffffffffffffff1673ffffffffffffffffffffffffffffffffffffffff166385c858b16040518163ffffffff1660e01b815260040160206040518083038186803b158015616c0257600080fd5b505afa158015616c16573d6000803e3d6000fd5b505050506040513d6020811015616c2c57600080fd5b810190808051906020019092919050505073ffffffffffffffffffffffffffffffffffffffff1614616ca9576040517f08c379a000000000000000000000000000000000000000000000000000000000815260040180806020018281038252603781526020018061a7ec6037913960400191505060405180910390fd5b6000603960008373ffffffffffffffffffffffffffffffffffffffff1673ffffffffffffffffffffffffffffffffffffffff1681526020019081526020016000209050600081600d01601d6101000a81548160ff0219169083151502179055505050565b600080603960008473ffffffffffffffffffffffffffffffffffffffff1673ffffffffffffffffffffffffffffffffffffffff16815260200190815260200160002090508060090154915050919050565b3373ffffffffffffffffffffffffffffffffffffffff16603460009054906101000a900473ffffffffffffffffffffffffffffffffffffffff1673ffffffffffffffffffffffffffffffffffffffff1614616e04576040517f08c379a000000000000000000000000000000000000000000000000000000000815260040180806020018281038252602a81526020018061a896602a913960400191505060405180910390fd5b60003414616e5d576040517f08c379a000000000000000000000000000000000000000000000000000000000815260040180806020018281038252603681526020018061a60e6036913960400191505060405180910390fd5b6000811415616e6b57617024565b600080603760009054906101000a900473ffffffffffffffffffffffffffffffffffffffff1673ffffffffffffffffffffffffffffffffffffffff1663d3ea4350846040518263ffffffff1660e01b81526004018082815260200191505060606040518083038186803b158015616ee157600080fd5b505afa158015616ef5573d6000803e3d6000fd5b505050506040513d6060811015616f0b57600080fd5b8101908080519060200190929190805190602001909291908051906020019092919050505050915091506000616f4085613c93565b9050603860009054906101000a900473ffffffffffffffffffffffffffffffffffffffff1673ffffffffffffffffffffffffffffffffffffffff166333f93b42868584866040518563ffffffff1660e01b8152600401808573ffffffffffffffffffffffffffffffffffffffff1673ffffffffffffffffffffffffffffffffffffffff168152602001848152602001838152602001828152602001945050505050600060405180830381600087803b158015616ffb57600080fd5b505af115801561700f573d6000803e3d6000fd5b505050506170208530866001617acf565b5050505b5050565b6000803373ffffffffffffffffffffffffffffffffffffffff16603460009054906101000a900473ffffffffffffffffffffffffffffffffffffffff1673ffffffffffffffffffffffffffffffffffffffff16146170d1576040517f08c379a000000000000000000000000000000000000000000000000000000000815260040180806020018281038252602a81526020018061a896602a913960400191505060405180910390fd5b6170de88888888876192bb565b60006170ec898987876194aa565b90506170fa89600080617962565b806171058a8a6179a6565b9250925050965096945050505050565b600080603a60008473ffffffffffffffffffffffffffffffffffffffff1673ffffffffffffffffffffffffffffffffffffffff16815260200190815260200160002060008573ffffffffffffffffffffffffffffffffffffffff1673ffffffffffffffffffffffffffffffffffffffff1681526020019081526020016000209050806001015491505092915050565b3373ffffffffffffffffffffffffffffffffffffffff16603460009054906101000a900473ffffffffffffffffffffffffffffffffffffffff1673ffffffffffffffffffffffffffffffffffffffff161461724a576040517f08c379a000000000000000000000000000000000000000000000000000000000815260040180806020018281038252602a81526020018061a896602a913960400191505060405180910390fd5b6000603a60008473ffffffffffffffffffffffffffffffffffffffff1673ffffffffffffffffffffffffffffffffffffffff16815260200190815260200160002060008573ffffffffffffffffffffffffffffffffffffffff1673ffffffffffffffffffffffffffffffffffffffff1681526020019081526020016000209050818160040160056101000a81548160ff02191690831515021790555050505050565b3373ffffffffffffffffffffffffffffffffffffffff16603460009054906101000a900473ffffffffffffffffffffffffffffffffffffffff1673ffffffffffffffffffffffffffffffffffffffff1614617392576040517f08c379a000000000000000000000000000000000000000000000000000000000815260040180806020018281038252602a81526020018061a896602a913960400191505060405180910390fd5b61739a617573565b73ffffffffffffffffffffffffffffffffffffffff168373ffffffffffffffffffffffffffffffffffffffff16146173fc576173f782828573ffffffffffffffffffffffffffffffffffffffff166196949092919063ffffffff16565b6174df565b60008273ffffffffffffffffffffffffffffffffffffffff168261c35090604051806000019050600060405180830381858888f193505050503d8060008114617461576040519150601f19603f3d011682016040523d82523d6000602084013e617466565b606091505b50509050806174dd576040517f08c379a00000000000000000000000000000000000000000000000000000000081526004018080602001828103825260168152602001807f5472616e73666572206f6620626e62206661696c65640000000000000000000081525060200191505060405180910390fd5b505b505050565b600080603a60008473ffffffffffffffffffffffffffffffffffffffff1673ffffffffffffffffffffffffffffffffffffffff16815260200190815260200160002060008573ffffffffffffffffffffffffffffffffffffffff1673ffffffffffffffffffffffffffffffffffffffff1681526020019081526020016000209050806002015491505092915050565b600073eeeeeeeeeeeeeeeeeeeeeeeeeeeeeeeeeeeeeeee905090565b61768f848573ffffffffffffffffffffffffffffffffffffffff166323b872dd905060e01b858585604051602401808473ffffffffffffffffffffffffffffffffffffffff1673ffffffffffffffffffffffffffffffffffffffff1681526020018373ffffffffffffffffffffffffffffffffffffffff1673ffffffffffffffffffffffffffffffffffffffff1681526020018281526020019350505050604051602081830303815290604052907bffffffffffffffffffffffffffffffffffffffffffffffffffffffff19166020820180517bffffffffffffffffffffffffffffffffffffffffffffffffffffffff8381831617835250505050619765565b50505050565b60006176d783836040518060400160405280601e81526020017f536166654d6174683a207375627472616374696f6e206f766572666c6f7700008152506199b0565b905092915050565b617726603960008873ffffffffffffffffffffffffffffffffffffffff1673ffffffffffffffffffffffffffffffffffffffff168152602001908152602001600020618aeb565b617734868686868686619a70565b505050505050565b6000603960008873ffffffffffffffffffffffffffffffffffffffff1673ffffffffffffffffffffffffffffffffffffffff16815260200190815260200160002090506000603a60008873ffffffffffffffffffffffffffffffffffffffff1673ffffffffffffffffffffffffffffffffffffffff16815260200190815260200160002060008973ffffffffffffffffffffffffffffffffffffffff1673ffffffffffffffffffffffffffffffffffffffff16815260200190815260200160002090506001600281111561780c57fe5b83600281111561781857fe5b141561783a5781600501548160030181905550600081600101819055506178e3565b60028081111561784657fe5b83600281111561785257fe5b14156178745760008160030181905550816007015481600101819055506178e2565b6040517f08c379a00000000000000000000000000000000000000000000000000000000081526004018080602001828103825260188152602001807f496e76616c696420626f72726f772072617465206d6f6465000000000000000081525060200191505060405180910390fd5b5b61790c856178fe888460000154618a6390919063ffffffff16565b618a6390919063ffffffff16565b816000018190555061792b848260020154618a6390919063ffffffff16565b8160020181905550428160040160006101000a81548164ffffffffff021916908364ffffffffff1602179055505050505050505050565b61796d838383619cc8565b617975618f52565b7fb362f715591e6551ba78917a287fa286eed1ded21d619b267911b67f595af1c960405160405180910390a2505050565b6000806179b38484612917565b9050600060028111156179c257fe5b8160028111156179ce57fe5b14156179de576000915050617ac9565b600160028111156179eb57fe5b8160028111156179f757fe5b14617a4457603960008573ffffffffffffffffffffffffffffffffffffffff1673ffffffffffffffffffffffffffffffffffffffff16815260200190815260200160002060040154617ac5565b603a60008473ffffffffffffffffffffffffffffffffffffffff1673ffffffffffffffffffffffffffffffffffffffff16815260200190815260200160002060008573ffffffffffffffffffffffffffffffffffffffff1673ffffffffffffffffffffffffffffffffffffffff168152602001908152602001600020600301545b9150505b92915050565b617ad761a5ec565b603760009054906101000a900473ffffffffffffffffffffffffffffffffffffffff1673ffffffffffffffffffffffffffffffffffffffff1663d3ea4350846040518263ffffffff1660e01b81526004018082815260200191505060606040518083038186803b158015617b4a57600080fd5b505afa158015617b5e573d6000803e3d6000fd5b505050506040513d6060811015617b7457600080fd5b810190808051906020019092919080519060200190929190805190602001909291905050508360000184602001856040018381525083815250838152505050506000603560009054906101000a900473ffffffffffffffffffffffffffffffffffffffff1673ffffffffffffffffffffffffffffffffffffffff166313dc12cf6040518163ffffffff1660e01b815260040160206040518083038186803b158015617c1e57600080fd5b505afa158015617c32573d6000803e3d6000fd5b505050506040513d6020811015617c4857600080fd5b810190808051906020019092919050505090506000603560009054906101000a900473ffffffffffffffffffffffffffffffffffffffff1673ffffffffffffffffffffffffffffffffffffffff1663194308cd6040518163ffffffff1660e01b815260040160206040518083038186803b158015617cc557600080fd5b505afa158015617cd9573d6000803e3d6000fd5b505050506040513d6020811015617cef57600080fd5b810190808051906020019092919050505090506000603560009054906101000a900473ffffffffffffffffffffffffffffffffffffffff1673ffffffffffffffffffffffffffffffffffffffff166331c2ddbc6040518163ffffffff1660e01b815260040160206040518083038186803b158015617d6c57600080fd5b505afa158015617d80573d6000803e3d6000fd5b505050506040513d6020811015617d9657600080fd5b81019080805190602001909291905050509050617db1617573565b73ffffffffffffffffffffffffffffffffffffffff168873ffffffffffffffffffffffffffffffffffffffff1614617fc15760003414617e3c576040517f08c379a000000000000000000000000000000000000000000000000000000000815260040180806020018281038252605f81526020018061a694605f913960600191505060405180910390fd5b60008890508515617f00576000856000015114617e8357617e828486600001518373ffffffffffffffffffffffffffffffffffffffff166196949092919063ffffffff16565b5b6000856020015114617ebf57617ebe8386602001518373ffffffffffffffffffffffffffffffffffffffff166196949092919063ffffffff16565b5b6000856040015114617efb57617efa8286604001518373ffffffffffffffffffffffffffffffffffffffff166196949092919063ffffffff16565b5b617fbb565b6000856000015114617f3e57617f3d888587600001518473ffffffffffffffffffffffffffffffffffffffff1661758f909392919063ffffffff16565b5b6000856020015114617f7c57617f7b888487602001518473ffffffffffffffffffffffffffffffffffffffff1661758f909392919063ffffffff16565b5b6000856040015114617fba57617fb9888387604001518473ffffffffffffffffffffffffffffffffffffffff1661758f909392919063ffffffff16565b5b5b5061829b565b60008460000151146180b45760008373ffffffffffffffffffffffffffffffffffffffff16856000015161c35090604051806000019050600060405180830381858888f193505050503d8060008114618036576040519150601f19603f3d011682016040523d82523d6000602084013e61803b565b606091505b50509050806180b2576040517f08c379a00000000000000000000000000000000000000000000000000000000081526004018080602001828103825260168152602001807f5472616e73666572206f6620626e62206661696c65640000000000000000000081525060200191505060405180910390fd5b505b60008460200151146181a75760008273ffffffffffffffffffffffffffffffffffffffff16856020015161c35090604051806000019050600060405180830381858888f193505050503d8060008114618129576040519150601f19603f3d011682016040523d82523d6000602084013e61812e565b606091505b50509050806181a5576040517f08c379a00000000000000000000000000000000000000000000000000000000081526004018080602001828103825260168152602001807f5472616e73666572206f6620626e62206661696c65640000000000000000000081525060200191505060405180910390fd5b505b600084604001511461829a5760008173ffffffffffffffffffffffffffffffffffffffff16856040015161c35090604051806000019050600060405180830381858888f193505050503d806000811461821c576040519150601f19603f3d011682016040523d82523d6000602084013e618221565b606091505b5050905080618298576040517f08c379a00000000000000000000000000000000000000000000000000000000081526004018080602001828103825260168152602001807f5472616e73666572206f6620626e62206661696c65640000000000000000000081525060200191505060405180910390fd5b505b5b5050505050505050565b600080905060008090505b603b8054905081101561833a578273ffffffffffffffffffffffffffffffffffffffff16603b82815481106182e157fe5b9060005260206000200160009054906101000a900473ffffffffffffffffffffffffffffffffffffffff1673ffffffffffffffffffffffffffffffffffffffff16141561832d57600191505b80806001019150506182b0565b50806183a757603b8290806001815401808255809150509060018203906000526020600020016000909192909190916101000a81548173ffffffffffffffffffffffffffffffffffffffff021916908373ffffffffffffffffffffffffffffffffffffffff160217905550505b5050565b603560009054906101000a900473ffffffffffffffffffffffffffffffffffffffff1673ffffffffffffffffffffffffffffffffffffffff16630261bf8b6040518163ffffffff1660e01b815260040160206040518083038186803b15801561841357600080fd5b505afa158015618427573d6000803e3d6000fd5b505050506040513d602081101561843d57600080fd5b8101908080519060200190929190505050603460006101000a81548173ffffffffffffffffffffffffffffffffffffffff021916908373ffffffffffffffffffffffffffffffffffffffff160217905550603560009054906101000a900473ffffffffffffffffffffffffffffffffffffffff1673ffffffffffffffffffffffffffffffffffffffff166304061d8e6040518163ffffffff1660e01b815260040160206040518083038186803b1580156184f657600080fd5b505afa15801561850a573d6000803e3d6000fd5b505050506040513d602081101561852057600080fd5b8101908080519060200190929190505050603660006101000a81548173ffffffffffffffffffffffffffffffffffffffff021916908373ffffffffffffffffffffffffffffffffffffffff160217905550603560009054906101000a900473ffffffffffffffffffffffffffffffffffffffff1673ffffffffffffffffffffffffffffffffffffffff1663fbeefc3c6040518163ffffffff1660e01b815260040160206040518083038186803b1580156185d957600080fd5b505afa1580156185ed573d6000803e3d6000fd5b505050506040513d602081101561860357600080fd5b8101908080519060200190929190505050603760006101000a81548173ffffffffffffffffffffffffffffffffffffffff021916908373ffffffffffffffffffffffffffffffffffffffff160217905550603560009054906101000a900473ffffffffffffffffffffffffffffffffffffffff1673ffffffffffffffffffffffffffffffffffffffff166304e76c8f6040518163ffffffff1660e01b815260040160206040518083038186803b1580156186bc57600080fd5b505afa1580156186d0573d6000803e3d6000fd5b505050506040513d60208110156186e657600080fd5b8101908080519060200190929190505050603860006101000a81548173ffffffffffffffffffffffffffffffffffffffff021916908373ffffffffffffffffffffffffffffffffffffffff160217905550565b6000603960008673ffffffffffffffffffffffffffffffffffffffff1673ffffffffffffffffffffffffffffffffffffffff16815260200190815260200160002090506000603a60008673ffffffffffffffffffffffffffffffffffffffff1673ffffffffffffffffffffffffffffffffffffffff16815260200190815260200160002060008773ffffffffffffffffffffffffffffffffffffffff1673ffffffffffffffffffffffffffffffffffffffff168152602001908152602001600020905061880582618aeb565b60006188118787612917565b90506001600281111561882057fe5b81600281111561882c57fe5b14156188695761884b84836003015485619f1d9092919063ffffffff16565b61886485836003015485619fc89092919063ffffffff16565b618890565b61887c848461a16490919063ffffffff16565b61888f858461a18790919063ffffffff16565b5b50505050505050565b6188e0603960008373ffffffffffffffffffffffffffffffffffffffff1673ffffffffffffffffffffffffffffffffffffffff168152602001908152602001600020618aeb565b50565b6000603a60008673ffffffffffffffffffffffffffffffffffffffff1673ffffffffffffffffffffffffffffffffffffffff16815260200190815260200160002060008773ffffffffffffffffffffffffffffffffffffffff1673ffffffffffffffffffffffffffffffffffffffff16815260200190815260200160002090506000603960008873ffffffffffffffffffffffffffffffffffffffff1673ffffffffffffffffffffffffffffffffffffffff16815260200190815260200160002090506189cf856189c1858560000154618a6390919063ffffffff16565b61769590919063ffffffff16565b82600001819055506002808111156189e357fe5b6189ed8888612917565b60028111156189f857fe5b1415618a0c57806007015482600101819055505b6000841115618a3557618a2c84836002015461769590919063ffffffff16565b82600201819055505b428260040160006101000a81548164ffffffffff021916908364ffffffffff16021790555050505050505050565b600080828401905083811015618ae1576040517f08c379a000000000000000000000000000000000000000000000000000000000815260040180806020018281038252601b8152602001807f536166654d6174683a206164646974696f6e206f766572666c6f77000000000081525060200191505060405180910390fd5b8091505092915050565b6000618af682618ed2565b90506000811115618b90576000618b26836001015484600d0160149054906101000a900464ffffffffff1661a207565b9050618b3f83600001548261a28790919063ffffffff16565b83600001819055506000618b6c846004015485600d0160149054906101000a900464ffffffffff1661a2ea565b9050618b8584600701548261a28790919063ffffffff16565b846007018190555050505b5050565b60008083600001541415618bab5760009050618cc5565b6000618bba846000015461a35a565b905060008090506000809050600086600301541115618bfd57618bf686600301548760040160009054906101000a900464ffffffffff1661a2ea565b9050618c4f565b618c4c8660010154618c3e8760070154618c3089600401548a600d0160149054906101000a900464ffffffffff1661a2ea565b61a28790919063ffffffff16565b618ef690919063ffffffff16565b90505b618c6a618c65828561a28790919063ffffffff16565b61a37a565b91508560000154821415618cbe57428660040160009054906101000a900464ffffffffff1664ffffffffff1614618cbd57618cb360018760000154618a6390919063ffffffff16565b9350505050618cc5565b5b8193505050505b92915050565b6000603960008573ffffffffffffffffffffffffffffffffffffffff1673ffffffffffffffffffffffffffffffffffffffff16815260200190815260200160002090506000603a60008573ffffffffffffffffffffffffffffffffffffffff1673ffffffffffffffffffffffffffffffffffffffff16815260200190815260200160002060008673ffffffffffffffffffffffffffffffffffffffff1673ffffffffffffffffffffffffffffffffffffffff1681526020019081526020016000209050618d9782618aeb565b618db083826003015484619f1d9092919063ffffffff16565b5050505050565b6000603a60008473ffffffffffffffffffffffffffffffffffffffff1673ffffffffffffffffffffffffffffffffffffffff16815260200190815260200160002060008573ffffffffffffffffffffffffffffffffffffffff1673ffffffffffffffffffffffffffffffffffffffff16815260200190815260200160002090506000603960008673ffffffffffffffffffffffffffffffffffffffff1673ffffffffffffffffffffffffffffffffffffffff1681526020019081526020016000209050618e91838360000154618a6390919063ffffffff16565b826000018190555080600501548260030181905550428260040160006101000a81548164ffffffffff021916908364ffffffffff1602179055505050505050565b6000618eef82600301548360020154618a6390919063ffffffff16565b9050919050565b60008060028381618f0357fe5b049050618f4983618f3b618f2c6b033b2e3c9fd0803ce80000008861a3bf90919063ffffffff16565b84618a6390919063ffffffff16565b61a44590919063ffffffff16565b91505092915050565b60006005905090565b600080303b90506000811491505090565b600080618fa88360000154618f9a856001015486600d0160149054906101000a900464ffffffffff1661a207565b61a28790919063ffffffff16565b905080915050919050565b6000603960008673ffffffffffffffffffffffffffffffffffffffff1673ffffffffffffffffffffffffffffffffffffffff16815260200190815260200160002090506000603a60008773ffffffffffffffffffffffffffffffffffffffff1673ffffffffffffffffffffffffffffffffffffffff16815260200190815260200160002060008673ffffffffffffffffffffffffffffffffffffffff1673ffffffffffffffffffffffffffffffffffffffff168152602001908152602001600020905060006190828787612917565b90506190cb603960008973ffffffffffffffffffffffffffffffffffffffff1673ffffffffffffffffffffffffffffffffffffffff168152602001908152602001600020618aeb565b600160028111156190d857fe5b8160028111156190e457fe5b14156191215761910384836003015485619f1d9092919063ffffffff16565b61911c85836003015485619fc89092919063ffffffff16565b619148565b619134848461a16490919063ffffffff16565b619147858461a18790919063ffffffff16565b5b50505050505050565b6000603960008873ffffffffffffffffffffffffffffffffffffffff1673ffffffffffffffffffffffffffffffffffffffff16815260200190815260200160002090506000603a60008873ffffffffffffffffffffffffffffffffffffffff1673ffffffffffffffffffffffffffffffffffffffff16815260200190815260200160002060008973ffffffffffffffffffffffffffffffffffffffff1673ffffffffffffffffffffffffffffffffffffffff168152602001908152602001600020905061923d8661922f868460000154618a6390919063ffffffff16565b61769590919063ffffffff16565b816000018190555081600701548160010181905550821561926d5760008160030181905550600081600101819055505b61928485826002015461769590919063ffffffff16565b8160020181905550428160040160006101000a81548164ffffffffff021916908364ffffffffff1602179055505050505050505050565b6000603960008773ffffffffffffffffffffffffffffffffffffffff1673ffffffffffffffffffffffffffffffffffffffff16815260200190815260200160002090506000603a60008773ffffffffffffffffffffffffffffffffffffffff1673ffffffffffffffffffffffffffffffffffffffff16815260200190815260200160002060008873ffffffffffffffffffffffffffffffffffffffff1673ffffffffffffffffffffffffffffffffffffffff168152602001908152602001600020905061938782618aeb565b6001600281111561939457fe5b8360028111156193a057fe5b14156193dd576000816003015490506193c4868285619fc89092919063ffffffff16565b6193d7858461a16490919063ffffffff16565b506194a1565b6002808111156193e957fe5b8360028111156193f557fe5b141561943257600082600501549050619417868461a18790919063ffffffff16565b61942c858285619f1d9092919063ffffffff16565b506194a0565b6040517f08c379a000000000000000000000000000000000000000000000000000000000815260040180806020018281038252601a8152602001807f496e76616c69642072617465206d6f646520726563656976656400000000000081525060200191505060405180910390fd5b5b50505050505050565b600080603a60008673ffffffffffffffffffffffffffffffffffffffff1673ffffffffffffffffffffffffffffffffffffffff16815260200190815260200160002060008773ffffffffffffffffffffffffffffffffffffffff1673ffffffffffffffffffffffffffffffffffffffff16815260200190815260200160002090506000603960008873ffffffffffffffffffffffffffffffffffffffff1673ffffffffffffffffffffffffffffffffffffffff1681526020019081526020016000209050600080905060028081111561957f57fe5b85600281111561958b57fe5b14156195b157600190508160050154836003018190555060008360010181905550619642565b600160028111156195be57fe5b8560028111156195ca57fe5b14156195f057600290506000836003018190555081600701548360010181905550619641565b6040517f08c379a000000000000000000000000000000000000000000000000000000000815260040180806020018281038252602381526020018061a8f26023913960400191505060405180910390fd5b5b619659868460000154618a6390919063ffffffff16565b8360000181905550428360040160006101000a81548164ffffffffff021916908364ffffffffff160217905550809350505050949350505050565b619760838473ffffffffffffffffffffffffffffffffffffffff1663a9059cbb905060e01b8484604051602401808373ffffffffffffffffffffffffffffffffffffffff1673ffffffffffffffffffffffffffffffffffffffff16815260200182815260200192505050604051602081830303815290604052907bffffffffffffffffffffffffffffffffffffffffffffffffffffffff19166020820180517bffffffffffffffffffffffffffffffffffffffffffffffffffffffff8381831617835250505050619765565b505050565b6197848273ffffffffffffffffffffffffffffffffffffffff1661262e565b6197f6576040517f08c379a000000000000000000000000000000000000000000000000000000000815260040180806020018281038252601f8152602001807f5361666545524332303a2063616c6c20746f206e6f6e2d636f6e74726163740081525060200191505060405180910390fd5b600060608373ffffffffffffffffffffffffffffffffffffffff16836040518082805190602001908083835b602083106198455780518252602082019150602081019050602083039250619822565b6001836020036101000a0380198251168184511680821785525050505050509050019150506000604051808303816000865af19150503d80600081146198a7576040519150601f19603f3d011682016040523d82523d6000602084013e6198ac565b606091505b509150915081619924576040517f08c379a00000000000000000000000000000000000000000000000000000000081526004018080602001828103825260208152602001807f5361666545524332303a206c6f772d6c6576656c2063616c6c206661696c656481525060200191505060405180910390fd5b6000815111156199aa5780806020019051602081101561994357600080fd5b81019080805190602001909291905050506199a9576040517f08c379a000000000000000000000000000000000000000000000000000000000815260040180806020018281038252602a81526020018061a915602a913960400191505060405180910390fd5b5b50505050565b6000838311158290619a5d576040517f08c379a00000000000000000000000000000000000000000000000000000000081526004018080602001828103825283818151815260200191508051906020019080838360005b83811015619a22578082015181840152602081019050619a07565b50505050905090810190601f168015619a4f5780820380516001836020036101000a031916815260200191505b509250505060405180910390fd5b5060008385039050809150509392505050565b6000619a7c8787612917565b90506000603960008973ffffffffffffffffffffffffffffffffffffffff1673ffffffffffffffffffffffffffffffffffffffff168152602001908152602001600020905060016002811115619ace57fe5b826002811115619ada57fe5b1415619b7f576000603a60008973ffffffffffffffffffffffffffffffffffffffff1673ffffffffffffffffffffffffffffffffffffffff16815260200190815260200160002060008a73ffffffffffffffffffffffffffffffffffffffff1673ffffffffffffffffffffffffffffffffffffffff1681526020019081526020016000209050619b7987826003015484619fc89092919063ffffffff16565b50619bb2565b600280811115619b8b57fe5b826002811115619b9757fe5b1415619bb157619bb0868261a18790919063ffffffff16565b5b5b6000619bd985619bcb888a618a6390919063ffffffff16565b618a6390919063ffffffff16565b905060016002811115619be857fe5b846002811115619bf457fe5b1415619c1857619c1381836005015484619f1d9092919063ffffffff16565b619cbd565b600280811115619c2457fe5b846002811115619c3057fe5b1415619c4e57619c49818361a16490919063ffffffff16565b619cbc565b6040517f08c379a000000000000000000000000000000000000000000000000000000000815260040180806020018281038252601c8152602001807f496e76616c6964206e657720626f72726f772072617465206d6f64650000000081525060200191505060405180910390fd5b5b505050505050505050565b6000603960008573ffffffffffffffffffffffffffffffffffffffff1673ffffffffffffffffffffffffffffffffffffffff1681526020019081526020016000209050600080600083600d0160009054906101000a900473ffffffffffffffffffffffffffffffffffffffff1673ffffffffffffffffffffffffffffffffffffffff166357e37af088619d7e88619d708b619d628e616678565b618a6390919063ffffffff16565b61769590919063ffffffff16565b8760020154886003015489600601546040518663ffffffff1660e01b8152600401808673ffffffffffffffffffffffffffffffffffffffff1673ffffffffffffffffffffffffffffffffffffffff1681526020018581526020018481526020018381526020018281526020019550505050505060606040518083038186803b158015619e0957600080fd5b505afa158015619e1d573d6000803e3d6000fd5b505050506040513d6060811015619e3357600080fd5b810190808051906020019092919080519060200190929190805190602001909291905050509250925092508284600101819055508184600501819055508084600401819055504284600d0160146101000a81548164ffffffffff021916908364ffffffffff1602179055508673ffffffffffffffffffffffffffffffffffffffff167f04e4f521f16fcfd987978b05504262c2a2db223844977aab000e5accedb2d72584848488600001548960070154604051808681526020018581526020018481526020018381526020018281526020019550505050505060405180910390a250505050505050565b600083600201549050619f3d838560020154618a6390919063ffffffff16565b84600201819055506000619f6283619f548661a35a565b61a28790919063ffffffff16565b90506000619f858660060154619f778561a35a565b61a28790919063ffffffff16565b9050619fb8619f97876002015461a35a565b619faa8385618a6390919063ffffffff16565b618ef690919063ffffffff16565b8660060181905550505050505050565b818360020154101561a042576040517f08c379a000000000000000000000000000000000000000000000000000000000815260040180806020018281038252601a8152602001807f496e76616c696420616d6f756e7420746f20646563726561736500000000000081525060200191505060405180910390fd5b60008360020154905061a06283856002015461769590919063ffffffff16565b846002018190555060008460020154141561a08757600084600601819055505061a15f565b600061a0a48361a0968661a35a565b61a28790919063ffffffff16565b9050600061a0c7866006015461a0b98561a35a565b61a28790919063ffffffff16565b90508181101561a122576040517f08c379a000000000000000000000000000000000000000000000000000000000815260040180806020018281038252602381526020018061a75c6023913960400191505060405180910390fd5b61a15361a132876002015461a35a565b61a145848461769590919063ffffffff16565b618ef690919063ffffffff16565b86600601819055505050505b505050565b61a17b818360030154618a6390919063ffffffff16565b82600301819055505050565b808260030154101561a1e4576040517f08c379a000000000000000000000000000000000000000000000000000000000815260040180806020018281038252605081526020018061a6446050913960600191505060405180910390fd5b61a1fb81836003015461769590919063ffffffff16565b82600301819055505050565b60008061a2248364ffffffffff164261769590919063ffffffff16565b9050600061a24f61a2386301e1338061a35a565b61a2418461a35a565b618ef690919063ffffffff16565b905061a27d61a25c61a48f565b61a26f838861a28790919063ffffffff16565b618a6390919063ffffffff16565b9250505092915050565b600061a2e26b033b2e3c9fd0803ce800000061a2d461a2af858761a3bf90919063ffffffff16565b60026b033b2e3c9fd0803ce80000008161a2c557fe5b04618a6390919063ffffffff16565b61a44590919063ffffffff16565b905092915050565b60008061a3078364ffffffffff164261769590919063ffffffff16565b9050600061a3226301e133808661a44590919063ffffffff16565b905061a3508261a34261a33361a48f565b84618a6390919063ffffffff16565b61a4a390919063ffffffff16565b9250505092915050565b600061a373633b9aca008361a3bf90919063ffffffff16565b9050919050565b6000806002633b9aca008161a38b57fe5b04905061a3b7633b9aca0061a3a98584618a6390919063ffffffff16565b61a44590919063ffffffff16565b915050919050565b60008083141561a3d2576000905061a43f565b600082840290508284828161a3e357fe5b041461a43a576040517f08c379a000000000000000000000000000000000000000000000000000000000815260040180806020018281038252602181526020018061a8476021913960400191505060405180910390fd5b809150505b92915050565b600061a48783836040518060400160405280601a81526020017f536166654d6174683a206469766973696f6e206279207a65726f00000000000081525061a526565b905092915050565b60006b033b2e3c9fd0803ce8000000905090565b6000806002838161a4b057fe5b06141561a4c9576b033b2e3c9fd0803ce800000061a4cb565b825b90506002828161a4d757fe5b0491505b6000821461a5205761a4ed838461a287565b925060006002838161a4fb57fe5b061461a50e5761a50b818461a287565b90505b6002828161a51857fe5b04915061a4db565b92915050565b6000808311829061a5d2576040517f08c379a00000000000000000000000000000000000000000000000000000000081526004018080602001828103825283818151815260200191508051906020019080838360005b8381101561a59757808201518184015260208101905061a57c565b50505050905090810190601f16801561a5c45780820380516001836020036101000a031916815260200191505b509250505060405180910390fd5b50600083858161a5de57fe5b049050809150509392505050565b6040518060600160405280600081526020016000815260200160008152509056fe466565206c69717569646174696f6e20646f6573206e6f74207265717569726520616e79207472616e73666572206f662076616c756554686520616d6f756e742074686174206973206265696e6720737562747261637465642066726f6d20746865207661726961626c6520746f74616c20626f72726f777320697320696e636f7272656374557365722069732073656e64696e6720626e6220616c6f6e67207769746820746865204552433230207472616e736665722e20436865636b207468652076616c756520617474726962757465206f6620746865207472616e73616374696f6e4f6e6c7920636f6e7472616374732063616e2073656e6420626e6220746f20746865204c656e64696e6720706f6f6c20636f726554686520616d6f756e7420616e64207468652076616c75652073656e7420746f206465706f73697420646f206e6f74206d6174636854686520616d6f756e747320746f20737562747261637420646f6e2774206d6174636852657365727665206265696e672072656d6f76656420697320646966666572656e74207468616e2074686520726573657276652072657175657374656443616e6e6f742072656d6f7665206120726573657276652077697468206c6971756964697479206465706f73697465645468652063616c6c6572206d7573742062652061206c656e64696e6720706f6f6c20636f6e666967757261746f7220636f6e74726163745265736572766520686173206e6f74206265656e20696e697469616c697a656420796574536166654d6174683a206d756c7469706c69636174696f6e206f766572666c6f77436f6e747261637420696e7374616e63652068617320616c7265616479206265656e20696e697469616c697a65645468652063616c6c6572206d7573742062652061206c656e64696e6720706f6f6c20636f6e7472616374557365722069732073656e64696e6720626e6220616c6f6e67207769746820746865204552433230207472616e736665722e496e76616c696420696e7465726573742072617465206d6f64652072656365697665645361666545524332303a204552433230206f7065726174696f6e20646964206e6f742073756363656564a265627a7a7231582031fd9cd63b0f9a09bca24e6feccbdea73687f05363fbeb02cc764c5dcaf0664164736f6c63430005100032",
  "source": "pragma solidity ^0.5.0;\n\nimport \"openzeppelin-solidity/contracts/math/SafeMath.sol\";\nimport \"openzeppelin-solidity/contracts/token/ERC20/SafeERC20.sol\";\nimport \"openzeppelin-solidity/contracts/token/ERC20/ERC20.sol\";\nimport \"openzeppelin-solidity/contracts/utils/Address.sol\";\nimport \"../../libraries/openzeppelin-upgradeability/VersionedInitializable.sol\";\n\nimport \"../../libraries/CoreLibrary.sol\";\nimport \"../../configuration/LendingPoolAddressesProvider.sol\";\nimport \"../../interfaces/ILendingRateOracle.sol\";\nimport \"../../interfaces/IReserveInterestRateStrategy.sol\";\nimport \"../../libraries/WadRayMath.sol\";\n\nimport \"../../lendingpool/LendingPoolCore.sol\";\n\n/*****************************************************************\n * @title MockLendingPoolCore contract\n * @author Multiplier Finance\n * @notice This is a mock contract to test upgradeability of the AddressProvider\n ************************************************************************/\n\ncontract MockLendingPoolCore is LendingPoolCore {\n    event ReserveUpdatedFromMock(uint256 indexed revision);\n\n    uint256 private constant CORE_REVISION = 0x5;\n\n    function getRevision() internal pure returns (uint256) {\n        return CORE_REVISION;\n    }\n\n    function initialize(LendingPoolAddressesProvider _addressesProvider)\n        public\n        initializer\n    {\n        addressesProvider = _addressesProvider;\n        refreshConfigInternal();\n    }\n\n    function updateReserveInterestRatesAndTimestampInternal(\n        address _reserve,\n        uint256 _liquidityAdded,\n        uint256 _liquidityTaken\n    ) internal {\n        super.updateReserveInterestRatesAndTimestampInternal(\n            _reserve,\n            _liquidityAdded,\n            _liquidityTaken\n        );\n\n        emit ReserveUpdatedFromMock(getRevision());\n    }\n}\n",
  "sourcePath": "/Users/dev/Documents/Project/MCLendNew/MCL-SmartContracts/lending/contracts/mocks/upgradeability/MockLendingPoolCore.sol",
  "compiler": {
    "name": "solc",
    "version": "0.5.16+commit.9c3226ce.Emscripten.clang"
  },
  "schemaVersion": "3.2.3",
  "updatedAt": "2021-02-19T07:32:48.770Z",
  "devdoc": {
    "author": "Multiplier Finance",
    "methods": {
      "activateReserve(address)": {
        "details": "activates a reserve",
        "params": {
          "_reserve": "the address of the reserve*"
        }
      },
      "deactivateReserve(address)": {
        "details": "deactivates a reserve",
        "params": {
          "_reserve": "the address of the reserve*"
        }
      },
      "disableBorrowingOnReserve(address)": {
        "details": "disables borrowing on a reserve",
        "params": {
          "_reserve": "the address of the reserve*"
        }
      },
      "disableReserveAsCollateral(address)": {
        "details": "disables a reserve to be used as collateral",
        "params": {
          "_reserve": "the address of the reserve*"
        }
      },
      "disableReserveStableBorrowRate(address)": {
        "details": "disable the stable borrow rate mode on a reserve",
        "params": {
          "_reserve": "the address of the reserve*"
        }
      },
      "enableBorrowingOnReserve(address,bool)": {
        "details": "enables borrowing on a reserve. Also sets the stable rate borrowing",
        "params": {
          "_reserve": "the address of the reserve",
          "_stableBorrowRateEnabled": "true if the stable rate needs to be enabled, false otherwise*"
        }
      },
      "enableReserveAsCollateral(address,uint256,uint256,uint256)": {
        "details": "enables a reserve to be used as collateral",
        "params": {
          "_reserve": "the address of the reserve*"
        }
      },
      "enableReserveStableBorrowRate(address)": {
        "details": "enable the stable borrow rate mode on a reserve",
        "params": {
          "_reserve": "the address of the reserve*"
        }
      },
      "freezeReserve(address)": {
        "params": {
          "_reserve": "the address of the reserve*"
        }
      },
      "getReserveAvailableLiquidity(address)": {
        "details": "gets the available liquidity in the reserve. The available liquidity is the balance of the core contract",
        "params": {
          "_reserve": "the reserve address"
        },
        "return": "the available liquidity*"
      },
      "getReserveConfiguration(address)": {
        "details": "this function aggregates the configuration parameters of the reserve. It's used in the LendingPoolDataProvider specifically to save gas, and avoid multiple external contract calls to fetch the same data.",
        "params": {
          "_reserve": "the reserve address"
        },
        "return": "the reserve decimalsthe base ltv as collateralthe liquidation thresholdif the reserve is used as collateral or not*"
      },
      "getReserveCurrentAverageStableBorrowRate(address)": {
        "details": "gets the reserve average stable borrow rate. The average stable rate is the weighted average of all the loans taken at stable rate.",
        "params": {
          "_reserve": "the reserve address"
        },
        "return": "the reserve current average borrow rate*"
      },
      "getReserveCurrentLiquidityRate(address)": {
        "details": "gets the reserve liquidity rate",
        "params": {
          "_reserve": "the reserve address"
        },
        "return": "the reserve liquidity rate*"
      },
      "getReserveCurrentStableBorrowRate(address)": {
        "details": "gets the reserve current stable borrow rate. Is the market rate if the reserve is empty",
        "params": {
          "_reserve": "the reserve address"
        },
        "return": "the reserve current stable borrow rate*"
      },
      "getReserveCurrentVariableBorrowRate(address)": {
        "details": "gets the reserve current variable borrow rate. Is the base variable borrow rate if the reserve is empty",
        "params": {
          "_reserve": "the reserve address"
        },
        "return": "the reserve current variable borrow rate*"
      },
      "getReserveDecimals(address)": {
        "details": "returns the decimals of the reserve",
        "params": {
          "_reserve": "the reserve address"
        },
        "return": "the reserve decimals*"
      },
      "getReserveInterestRateStrategyAddress(address)": {
        "details": "gets the interest rate strategy contract address for the reserve",
        "params": {
          "_reserve": "the reserve address"
        },
        "return": "the address of the interest rate strategy contract*"
      },
      "getReserveIsActive(address)": {
        "details": "returns true if the reserve is active",
        "params": {
          "_reserve": "the reserve address"
        },
        "return": "true if the reserve is active, false otherwise*"
      },
      "getReserveIsFreezed(address)": {
        "params": {
          "_reserve": "the reserve for which the information is needed"
        },
        "return": "true if the reserve is freezed, false otherwise*"
      },
      "getReserveIsStableBorrowRateEnabled(address)": {
        "details": "returns true if the stable rate is enabled on reserve",
        "params": {
          "_reserve": "the reserve address"
        },
        "return": "true if the stable rate is enabled on reserve, false otherwise*"
      },
      "getReserveLastUpdate(address)": {
        "params": {
          "_reserve": "the reserve for which the information is needed"
        },
        "return": "the last updated timestamp of the reserve*"
      },
      "getReserveLiquidationBonus(address)": {
        "details": "gets the reserve liquidation bonus",
        "params": {
          "_reserve": "the reserve address"
        },
        "return": "the reserve liquidation bonus*"
      },
      "getReserveLiquidationThreshold(address)": {
        "details": "gets the reserve liquidation threshold",
        "params": {
          "_reserve": "the reserve address"
        },
        "return": "the reserve liquidation threshold*"
      },
      "getReserveLiquidityCumulativeIndex(address)": {
        "details": "gets the reserve liquidity cumulative index",
        "params": {
          "_reserve": "the reserve address"
        },
        "return": "the reserve liquidity cumulative index*"
      },
      "getReserveNormalizedIncome(address)": {
        "details": "gets the normalized income of the reserve. a value of 1e27 means there is no income. A value of 2e27 means there there has been 100% income.",
        "params": {
          "_reserve": "the reserve address"
        },
        "return": "the reserve normalized income*"
      },
      "getReserveTotalBorrows(address)": {
        "details": "gets the reserve total borrows",
        "params": {
          "_reserve": "the reserve address"
        },
        "return": "the total borrows (stable + variable)*"
      },
      "getReserveTotalBorrowsStable(address)": {
        "details": "gets the reserve total borrows stable",
        "params": {
          "_reserve": "the reserve address"
        },
        "return": "the total borrows stable*"
      },
      "getReserveTotalBorrowsVariable(address)": {
        "details": "gets the reserve total borrows variable",
        "params": {
          "_reserve": "the reserve address"
        },
        "return": "the total borrows variable*"
      },
      "getReserveTotalLiquidity(address)": {
        "details": "gets the total liquidity in the reserve. The total liquidity is the balance of the core contract + total borrows",
        "params": {
          "_reserve": "the reserve address"
        },
        "return": "the total liquidity*"
      },
      "getReserveUtilizationRate(address)": {
        "details": "returns the utilization rate U of a specific reserve",
        "params": {
          "_reserve": "the reserve for which the information is needed"
        },
        "return": "the utilization rate in ray*"
      },
      "getReserveVariableBorrowsCumulativeIndex(address)": {
        "details": "gets the reserve variable borrow index",
        "params": {
          "_reserve": "the reserve address"
        },
        "return": "the reserve variable borrow index*"
      },
      "getReservemTokenAddress(address)": {
        "details": "gets the mToken contract address for the reserve",
        "params": {
          "_reserve": "the reserve address"
        },
        "return": "the address of the mToken contract*"
      },
      "getReserves()": {
        "return": "the array of reserves configured on the core*"
      },
      "getUserBasicReserveData(address,address)": {
        "details": "returns the basic data (balances, fee accrued, reserve enabled/ disabled as collateral) needed to calculate the global account data in the LendingPoolDataProvider",
        "params": {
          "_reserve": "the address of the reserve",
          "_user": "the address of the user"
        },
        "return": "the user deposited balance, the principal borrow balance, the fee, and if the reserve is enabled as collateral or not*"
      },
      "getUserBorrowBalances(address,address)": {
        "details": "calculates and returns the borrow balances of the user",
        "params": {
          "_reserve": "the address of the reserve",
          "_user": "the address of the user"
        },
        "return": "the principal borrow balance, the compounded balance and the balance increase since the last borrow/repay/swap/rebalance*"
      },
      "getUserCurrentBorrowRateMode(address,address)": {
        "details": "users with no loans in progress have NONE as borrow rate mode",
        "params": {
          "_reserve": "the address of the reserve for which the information is needed",
          "_user": "the address of the user for which the information is needed"
        },
        "return": "the borrow rate mode for the user,*"
      },
      "getUserCurrentStableBorrowRate(address,address)": {
        "details": "the stable rate returned is 0 if the user is borrowing at variable or not borrowing at all",
        "params": {
          "_reserve": "the address of the reserve for which the information is needed",
          "_user": "the address of the user for which the information is needed"
        },
        "return": "the user stable rate*"
      },
      "getUserLastUpdate(address,address)": {
        "details": "the variable borrow index of the user is 0 if the user is not borrowing or borrowing at stable",
        "params": {
          "_reserve": "the address of the reserve for which the information is needed",
          "_user": "the address of the user for which the information is needed"
        },
        "return": "the variable borrow index for the user*"
      },
      "getUserOriginationFee(address,address)": {
        "params": {
          "_reserve": "the address of the reserve for which the information is needed",
          "_user": "the address of the user for which the information is needed"
        },
        "return": "the origination fee for the user*"
      },
      "getUserUnderlyingAssetBalance(address,address)": {
        "details": "gets the underlying asset balance of a user based on the corresponding mToken balance.",
        "params": {
          "_reserve": "the reserve address",
          "_user": "the user address"
        },
        "return": "the underlying deposit balance of the user*"
      },
      "getUserVariableBorrowCumulativeIndex(address,address)": {
        "details": "the variable borrow index of the user is 0 if the user is not borrowing or borrowing at stable",
        "params": {
          "_reserve": "the address of the reserve for which the information is needed",
          "_user": "the address of the user for which the information is needed"
        },
        "return": "the variable borrow index for the user*"
      },
      "initReserve(address,address,uint256,address)": {
        "details": "initializes a reserve",
        "params": {
          "_decimals": "the decimals of the reserve currency",
          "_interestRateStrategyAddress": "the address of the interest rate strategy contract*",
          "_mTokenAddress": "the address of the overlying mToken contract",
          "_reserve": "the address of the reserve"
        }
      },
      "isReserveBorrowingEnabled(address)": {
        "details": "returns true if the reserve is enabled for borrowing",
        "params": {
          "_reserve": "the reserve address"
        },
        "return": "true if the reserve is enabled for borrowing, false otherwise*"
      },
      "isReserveUsageAsCollateralEnabled(address)": {
        "details": "returns true if the reserve is enabled as collateral",
        "params": {
          "_reserve": "the reserve address"
        },
        "return": "true if the reserve is enabled as collateral, false otherwise*"
      },
      "isUserAllowedToBorrowAtStable(address,address,uint256)": {
        "details": "checks if a user is allowed to borrow at a stable rate",
        "params": {
          "_amount": "the amount the the user wants to borrow",
          "_reserve": "the reserve address",
          "_user": "the user"
        },
        "return": "true if the user is allowed to borrow at a stable rate, false otherwise*"
      },
      "isUserUseReserveAsCollateralEnabled(address,address)": {
        "params": {
          "_reserve": "the address of the reserve for which the information is needed",
          "_user": "the address of the user for which the information is needed"
        },
        "return": "true if the user has chosen to use the reserve as collateral, false otherwise*"
      },
      "liquidateFee(address,uint256)": {
        "details": "transfers the fees to the fees collection address in the case of liquidation",
        "params": {
          "_amount": "the amount being transferred*",
          "_token": "the address of the token being transferred"
        }
      },
      "refreshConfiguration()": {
        "details": "updates the lending pool core configuration*"
      },
      "removeLastAddedReserve(address)": {
        "details": "removes the last added reserve in the reservesList array",
        "params": {
          "_reserveToRemove": "the address of the reserve*"
        }
      },
      "setReserveBaseLTVasCollateral(address,uint256)": {
        "params": {
          "_ltv": "the new loan to value*",
          "_reserve": "the address of the reserve"
        }
      },
      "setReserveDecimals(address,uint256)": {
        "params": {
          "_decimals": "the decimals of the reserve*",
          "_reserve": "the address of the reserve"
        }
      },
      "setReserveInterestRateStrategyAddress(address,address)": {
        "details": "updates the address of the interest rate strategy contract",
        "params": {
          "_rateStrategyAddress": "the address of the interest rate strategy contract*",
          "_reserve": "the address of the reserve"
        }
      },
      "setReserveLiquidationBonus(address,uint256)": {
        "params": {
          "_bonus": "the new liquidation bonus*",
          "_reserve": "the address of the reserve"
        }
      },
      "setReserveLiquidationThreshold(address,uint256)": {
        "params": {
          "_reserve": "the address of the reserve",
          "_threshold": "the new liquidation threshold*"
        }
      },
      "setUserUseReserveAsCollateral(address,address,bool)": {
        "details": "enables or disables a reserve as collateral",
        "params": {
          "_reserve": "the address of the principal reserve where the user deposited",
          "_useAsCollateral": "true if the depositor wants to use the reserve as collateral*",
          "_user": "the address of the depositor"
        }
      },
      "transferToFeeCollectionAddress(address,address,uint256,bool)": {
        "details": "transfers the protocol fees to the fees collection address",
        "params": {
          "_amount": "the amount being transferred*",
          "_token": "the address of the token being transferred",
          "_user": "the address of the user from where the transfer is happening"
        }
      },
      "transferToReserve(address,address,uint256)": {
        "details": "transfers an amount from a user to the destination reserve",
        "params": {
          "_amount": "the amount being transferred*",
          "_reserve": "the address of the reserve where the amount is being transferred",
          "_user": "the address of the user from where the transfer is happening"
        }
      },
      "transferToUser(address,address,uint256)": {
        "details": "transfers to the user a specific amount from the reserve.",
        "params": {
          "_amount": "the amount being transferred*",
          "_reserve": "the address of the reserve where the transfer is happening",
          "_user": "the address of the user receiving the transfer"
        }
      },
      "unfreezeReserve(address)": {
        "params": {
          "_reserve": "the address of the reserve*"
        }
      },
      "updateStateOnBorrow(address,address,uint256,uint256,uint8)": {
        "details": "updates the state of the core as a consequence of a borrow action.",
        "params": {
          "_amountBorrowed": "the new amount borrowed",
          "_borrowFee": "the fee on the amount borrowed",
          "_rateMode": "the borrow rate mode (stable, variable)",
          "_reserve": "the address of the reserve on which the user is borrowing",
          "_user": "the address of the borrower"
        },
        "return": "the new borrow rate for the user*"
      },
      "updateStateOnDeposit(address,address,uint256,bool)": {
        "details": "updates the state of the core as a result of a deposit action",
        "params": {
          "_amount": "the amount being deposited",
          "_isFirstDeposit": "true if the user is depositing for the first time*",
          "_reserve": "the address of the reserve in which the deposit is happening",
          "_user": "the address of the the user depositing"
        }
      },
      "updateStateOnFlashLoan(address)": {
        "details": "updates the state of the core as a result of a flashloan action",
        "params": {
          "_reserve": "the address of the reserve in which the flashloan is happening*"
        }
      },
      "updateStateOnLiquidation(address,address,address,uint256,uint256,uint256,uint256,uint256,bool)": {
        "details": "updates the state of the core as a consequence of a liquidation action.",
        "params": {
          "_amountToLiquidate": "the amount being repaid by the liquidator",
          "_balanceIncrease": "the accrued interest on the borrowed amount",
          "_collateralReserve": "the address of the collateral reserve that is being liquidated",
          "_collateralToLiquidate": "the amount of collateral being liquidated",
          "_feeLiquidated": "the amount of origination fee being liquidated",
          "_liquidatedCollateralForFee": "the amount of collateral equivalent to the origination fee + bonus",
          "_liquidatorReceivesMToken": "true if the liquidator will receive Tokens, false otherwise*",
          "_principalReserve": "the address of the principal reserve that is being repaid",
          "_user": "the address of the borrower"
        }
      },
      "updateStateOnRebalance(address,address,uint256)": {
        "details": "updates the state of the core as a consequence of a stable rate rebalance",
        "params": {
          "_balanceIncrease": "the accrued interest on the borrowed amount",
          "_reserve": "the address of the principal reserve where the user borrowed",
          "_user": "the address of the borrower"
        },
        "return": "the new stable rate for the user*"
      },
      "updateStateOnRedeem(address,address,uint256,bool)": {
        "details": "updates the state of the core as a result of a redeem action",
        "params": {
          "_amountRedeemed": "the amount being redeemed",
          "_reserve": "the address of the reserve in which the redeem is happening",
          "_user": "the address of the the user redeeming",
          "_userRedeemedEverything": "true if the user is redeeming everything*"
        }
      },
      "updateStateOnRepay(address,address,uint256,uint256,uint256,bool)": {
        "details": "updates the state of the core as a consequence of a repay action.",
        "params": {
          "_balanceIncrease": "the accrued interest on the borrowed amount",
          "_originationFeeRepaid": "the fee on the amount that is being repaid",
          "_paybackAmountMinusFees": "the amount being paid back minus fees",
          "_repaidWholeLoan": "true if the user is repaying the whole loan*",
          "_reserve": "the address of the reserve on which the user is repaying",
          "_user": "the address of the borrower"
        }
      },
      "updateStateOnSwapRate(address,address,uint256,uint256,uint256,uint8)": {
        "details": "updates the state of the core as a consequence of a swap rate action.",
        "params": {
          "_balanceIncrease": "the accrued interest on the borrowed amount",
          "_compoundedBorrowBalance": "the amount borrowed plus accrued interest",
          "_currentRateMode": "the current interest rate mode for the user*",
          "_principalBorrowBalance": "the amount borrowed by the user",
          "_reserve": "the address of the reserve on which the user is repaying",
          "_user": "the address of the borrower"
        }
      }
    },
    "title": "MockLendingPoolCore contract"
  },
  "userdoc": {
    "methods": {
      "freezeReserve(address)": {
        "notice": "allows the configurator to freeze the reserve. A freezed reserve does not allow any action apart from repay, redeem, liquidationCall, rebalance."
      },
      "getReserveIsFreezed(address)": {
        "notice": "returns if a reserve is freezed"
      },
      "getReserveLastUpdate(address)": {
        "notice": "returns the timestamp of the last action on the reserve"
      },
      "setReserveBaseLTVasCollateral(address,uint256)": {
        "notice": "allows the configurator to update the loan to value of a reserve"
      },
      "setReserveDecimals(address,uint256)": {
        "notice": "allows the configurator to update the reserve decimals"
      },
      "setReserveLiquidationBonus(address,uint256)": {
        "notice": "allows the configurator to update the liquidation bonus of a reserve"
      },
      "setReserveLiquidationThreshold(address,uint256)": {
        "notice": "allows the configurator to update the liquidation threshold of a reserve"
      },
      "unfreezeReserve(address)": {
        "notice": "allows the configurator to unfreeze the reserve. A unfreezed reserve allows any action to be executed."
      }
    },
    "notice": "***************************************************************This is a mock contract to test upgradeability of the AddressProvider***********************************************************************"
  }
}