{
  "contractName": "MockAggregatorBase",
  "abi": [
    {
      "inputs": [
        {
          "internalType": "int256",
          "name": "_initialAnswer",
          "type": "int256"
        }
      ],
      "payable": false,
      "stateMutability": "nonpayable",
      "type": "constructor"
    },
    {
      "anonymous": false,
      "inputs": [
        {
          "indexed": true,
          "internalType": "int256",
          "name": "current",
          "type": "int256"
        },
        {
          "indexed": true,
          "internalType": "uint256",
          "name": "roundId",
          "type": "uint256"
        },
        {
          "indexed": false,
          "internalType": "uint256",
          "name": "timestamp",
          "type": "uint256"
        }
      ],
      "name": "AnswerUpdated",
      "type": "event"
    },
    {
      "constant": true,
      "inputs": [],
      "name": "latestAnswer",
      "outputs": [
        {
          "internalType": "int256",
          "name": "",
          "type": "int256"
        }
      ],
      "payable": false,
      "stateMutability": "view",
      "type": "function"
    }
  ],
  "bytecode": "0x608060405234801561001057600080fd5b5060405161011b38038061011b8339818101604052602081101561003357600080fd5b8101908080519060200190929190505050806000819055506000817f0559884fd3a460db3073b7fc896cc77986f16e378210ded43186175bf646fc5f426040518082815260200191505060405180910390a3506087806100946000396000f3fe6080604052348015600f57600080fd5b506004361060285760003560e01c806350d25bcd14602d575b600080fd5b60336049565b6040518082815260200191505060405180910390f35b6000805490509056fea265627a7a72315820fac20c289ec35f2321e44575bb3d251afd86c60eb6473fd90edf5e4291a6e4df64736f6c63430005100032",
  "source": "pragma solidity ^0.5.0;\r\n\r\ncontract MockAggregatorBase {\r\n    int256 private _latestAnswer;\r\n\r\n    event AnswerUpdated(\r\n        int256 indexed current,\r\n        uint256 indexed roundId,\r\n        uint256 timestamp\r\n    );\r\n\r\n    constructor(int256 _initialAnswer) public {\r\n        _latestAnswer = _initialAnswer;\r\n        emit AnswerUpdated(_initialAnswer, 0, now);\r\n    }\r\n\r\n    function latestAnswer() external view returns (int256) {\r\n        return _latestAnswer;\r\n    }\r\n}\r\n",
  "sourcePath": "/Users/dev/Documents/Project/MCLendNew/MCL-SmartContracts/lending/contracts/mocks/oracle/CLAggregators/MockAggregatorBase.sol",
  "compiler": {
    "name": "solc",
    "version": "0.5.16+commit.9c3226ce.Emscripten.clang"
  },
  "schemaVersion": "3.2.3",
  "updatedAt": "2021-01-15T04:28:32.547Z",
  "devdoc": {
    "methods": {}
  },
  "userdoc": {
    "methods": {}
  }
}