{
  "contractName": "PriceOracle",
  "abi": [
    {
      "anonymous": false,
      "inputs": [
        {
          "indexed": false,
          "internalType": "address",
          "name": "_asset",
          "type": "address"
        },
        {
          "indexed": false,
          "internalType": "uint256",
          "name": "_price",
          "type": "uint256"
        },
        {
          "indexed": false,
          "internalType": "uint256",
          "name": "timestamp",
          "type": "uint256"
        }
      ],
      "name": "AssetPriceUpdated",
      "type": "event"
    },
    {
      "anonymous": false,
      "inputs": [
        {
          "indexed": false,
          "internalType": "uint256",
          "name": "_price",
          "type": "uint256"
        },
        {
          "indexed": false,
          "internalType": "uint256",
          "name": "timestamp",
          "type": "uint256"
        }
      ],
      "name": "EthPriceUpdated",
      "type": "event"
    },
    {
      "constant": true,
      "inputs": [
        {
          "internalType": "address",
          "name": "_asset",
          "type": "address"
        }
      ],
      "name": "getAssetPrice",
      "outputs": [
        {
          "internalType": "uint256",
          "name": "",
          "type": "uint256"
        }
      ],
      "payable": false,
      "stateMutability": "view",
      "type": "function"
    },
    {
      "constant": false,
      "inputs": [
        {
          "internalType": "address",
          "name": "_asset",
          "type": "address"
        },
        {
          "internalType": "uint256",
          "name": "_price",
          "type": "uint256"
        }
      ],
      "name": "setAssetPrice",
      "outputs": [],
      "payable": false,
      "stateMutability": "nonpayable",
      "type": "function"
    },
    {
      "constant": true,
      "inputs": [],
      "name": "getEthUsdPrice",
      "outputs": [
        {
          "internalType": "uint256",
          "name": "",
          "type": "uint256"
        }
      ],
      "payable": false,
      "stateMutability": "view",
      "type": "function"
    },
    {
      "constant": false,
      "inputs": [
        {
          "internalType": "uint256",
          "name": "_price",
          "type": "uint256"
        }
      ],
      "name": "setEthUsdPrice",
      "outputs": [],
      "payable": false,
      "stateMutability": "nonpayable",
      "type": "function"
    },
    {
      "constant": true,
      "inputs": [
        {
          "internalType": "address[]",
          "name": "_assets",
          "type": "address[]"
        }
      ],
      "name": "getAssetsPrices",
      "outputs": [
        {
          "internalType": "uint256[]",
          "name": "",
          "type": "uint256[]"
        }
      ],
      "payable": false,
      "stateMutability": "view",
      "type": "function"
    }
  ],
  "bytecode": "0x608060405234801561001057600080fd5b506104ff806100206000396000f3fe608060405234801561001057600080fd5b50600436106100575760003560e01c806351323f721461005c5780639d23d9f2146100aa578063a0a8045e14610178578063b3596f0714610196578063b951883a146101ee575b600080fd5b6100a86004803603604081101561007257600080fd5b81019080803573ffffffffffffffffffffffffffffffffffffffff1690602001909291908035906020019092919050505061021c565b005b610121600480360360208110156100c057600080fd5b81019080803590602001906401000000008111156100dd57600080fd5b8201836020820111156100ef57600080fd5b8035906020019184602083028401116401000000008311171561011157600080fd5b90919293919293905050506102d6565b6040518080602001828103825283818151815260200191508051906020019060200280838360005b83811015610164578082015181840152602081019050610149565b505050509050019250505060405180910390f35b61018061042f565b6040518082815260200191505060405180910390f35b6101d8600480360360208110156101ac57600080fd5b81019080803573ffffffffffffffffffffffffffffffffffffffff169060200190929190505050610439565b6040518082815260200191505060405180910390f35b61021a6004803603602081101561020457600080fd5b8101908080359060200190929190505050610481565b005b806000808473ffffffffffffffffffffffffffffffffffffffff1673ffffffffffffffffffffffffffffffffffffffff168152602001908152602001600020819055507fce6e0b57367bae95ca7198e1172f653ea64a645c16ab586b4cefa9237bfc2d92828242604051808473ffffffffffffffffffffffffffffffffffffffff1673ffffffffffffffffffffffffffffffffffffffff168152602001838152602001828152602001935050505060405180910390a15050565b6060808383905060405190808252806020026020018201604052801561030b5781602001602082028038833980820191505090505b50905060008090505b84849050811015610424573073ffffffffffffffffffffffffffffffffffffffff1663b3596f0786868481811061034757fe5b9050602002013573ffffffffffffffffffffffffffffffffffffffff166040518263ffffffff1660e01b8152600401808273ffffffffffffffffffffffffffffffffffffffff1673ffffffffffffffffffffffffffffffffffffffff16815260200191505060206040518083038186803b1580156103c457600080fd5b505afa1580156103d8573d6000803e3d6000fd5b505050506040513d60208110156103ee57600080fd5b810190808051906020019092919050505082828151811061040b57fe5b6020026020010181815250508080600101915050610314565b508091505092915050565b6000600154905090565b60008060008373ffffffffffffffffffffffffffffffffffffffff1673ffffffffffffffffffffffffffffffffffffffff168152602001908152602001600020549050919050565b806001819055507fb4f35977939fa8b5ffe552d517a8ff5223046b1fdd3ee0068ae38d1e2b8d00168142604051808381526020018281526020019250505060405180910390a15056fea265627a7a7231582029aab01e330716e33f1cdfc62c7906188a50078026919e483b5491cd2b86037c64736f6c63430005100032",
  "source": "pragma solidity ^0.5.0;\r\n\r\nimport \"../../interfaces/IPriceOracle.sol\";\r\n\r\ncontract PriceOracle is IPriceOracle {\r\n    mapping(address => uint256) prices;\r\n    uint256 ethPriceUsd;\r\n\r\n    event AssetPriceUpdated(address _asset, uint256 _price, uint256 timestamp);\r\n    event EthPriceUpdated(uint256 _price, uint256 timestamp);\r\n\r\n    function getAssetPrice(address _asset) external view returns (uint256) {\r\n        return prices[_asset];\r\n    }\r\n\r\n    function setAssetPrice(address _asset, uint256 _price) external {\r\n        prices[_asset] = _price;\r\n        emit AssetPriceUpdated(_asset, _price, block.timestamp);\r\n    }\r\n\r\n    function getEthUsdPrice() external view returns (uint256) {\r\n        return ethPriceUsd;\r\n    }\r\n\r\n    function setEthUsdPrice(uint256 _price) external {\r\n        ethPriceUsd = _price;\r\n        emit EthPriceUpdated(_price, block.timestamp);\r\n    }\r\n\r\n    function getAssetsPrices(address[] calldata _assets)\r\n        external\r\n        view\r\n        returns (uint256[] memory)\r\n    {\r\n        uint256[] memory prices = new uint256[](_assets.length);\r\n        for (uint256 i = 0; i < _assets.length; i++) {\r\n            prices[i] = this.getAssetPrice(_assets[i]);\r\n        }\r\n        return prices;\r\n    }\r\n}\r\n",
  "sourcePath": "/Users/dev/Documents/Project/MCLendNew/MCL-SmartContracts/lending/contracts/mocks/oracle/PriceOracle.sol",
  "compiler": {
    "name": "solc",
    "version": "0.5.16+commit.9c3226ce.Emscripten.clang"
  },
  "schemaVersion": "3.2.3",
  "updatedAt": "2021-02-19T07:32:48.749Z",
  "devdoc": {
    "methods": {}
  },
  "userdoc": {
    "methods": {}
  }
}