{
  "contractName": "RewardsManager",
  "abi": [
    {
      "inputs": [
        {
          "internalType": "contract LendingPoolAddressesProvider",
          "name": "_addressProvider",
          "type": "address"
        }
      ],
      "payable": false,
      "stateMutability": "nonpayable",
      "type": "constructor"
    },
    {
      "anonymous": false,
      "inputs": [
        {
          "indexed": true,
          "internalType": "address",
          "name": "previousOwner",
          "type": "address"
        },
        {
          "indexed": true,
          "internalType": "address",
          "name": "newOwner",
          "type": "address"
        }
      ],
      "name": "OwnershipTransferred",
      "type": "event"
    },
    {
      "constant": true,
      "inputs": [],
      "name": "addressesProvider",
      "outputs": [
        {
          "internalType": "contract LendingPoolAddressesProvider",
          "name": "",
          "type": "address"
        }
      ],
      "payable": false,
      "stateMutability": "view",
      "type": "function"
    },
    {
      "constant": true,
      "inputs": [],
      "name": "coreAddress",
      "outputs": [
        {
          "internalType": "address",
          "name": "",
          "type": "address"
        }
      ],
      "payable": false,
      "stateMutability": "view",
      "type": "function"
    },
    {
      "constant": true,
      "inputs": [],
      "name": "isOwner",
      "outputs": [
        {
          "internalType": "bool",
          "name": "",
          "type": "bool"
        }
      ],
      "payable": false,
      "stateMutability": "view",
      "type": "function"
    },
    {
      "constant": true,
      "inputs": [],
      "name": "lendingPoolAddress",
      "outputs": [
        {
          "internalType": "address",
          "name": "",
          "type": "address"
        }
      ],
      "payable": false,
      "stateMutability": "view",
      "type": "function"
    },
    {
      "constant": true,
      "inputs": [],
      "name": "owner",
      "outputs": [
        {
          "internalType": "address",
          "name": "",
          "type": "address"
        }
      ],
      "payable": false,
      "stateMutability": "view",
      "type": "function"
    },
    {
      "constant": false,
      "inputs": [],
      "name": "renounceOwnership",
      "outputs": [],
      "payable": false,
      "stateMutability": "nonpayable",
      "type": "function"
    },
    {
      "constant": true,
      "inputs": [
        {
          "internalType": "address",
          "name": "",
          "type": "address"
        }
      ],
      "name": "rewardPools",
      "outputs": [
        {
          "internalType": "uint256",
          "name": "nextRewardPtr",
          "type": "uint256"
        },
        {
          "internalType": "bool",
          "name": "valid",
          "type": "bool"
        }
      ],
      "payable": false,
      "stateMutability": "view",
      "type": "function"
    },
    {
      "constant": true,
      "inputs": [],
      "name": "stakingToken",
      "outputs": [
        {
          "internalType": "address",
          "name": "",
          "type": "address"
        }
      ],
      "payable": false,
      "stateMutability": "view",
      "type": "function"
    },
    {
      "constant": false,
      "inputs": [
        {
          "internalType": "address",
          "name": "newOwner",
          "type": "address"
        }
      ],
      "name": "transferOwnership",
      "outputs": [],
      "payable": false,
      "stateMutability": "nonpayable",
      "type": "function"
    },
    {
      "constant": false,
      "inputs": [
        {
          "internalType": "address[]",
          "name": "_reserves",
          "type": "address[]"
        }
      ],
      "name": "registerPools",
      "outputs": [],
      "payable": false,
      "stateMutability": "nonpayable",
      "type": "function"
    },
    {
      "constant": false,
      "inputs": [
        {
          "internalType": "address",
          "name": "_reserve",
          "type": "address"
        },
        {
          "internalType": "uint256",
          "name": "_lpRewardAmt",
          "type": "uint256"
        },
        {
          "internalType": "uint256",
          "name": "lpBase",
          "type": "uint256"
        },
        {
          "internalType": "uint256",
          "name": "govRewardAmt",
          "type": "uint256"
        }
      ],
      "name": "addRewardItem",
      "outputs": [],
      "payable": false,
      "stateMutability": "nonpayable",
      "type": "function"
    },
    {
      "constant": false,
      "inputs": [
        {
          "internalType": "address",
          "name": "_reserve",
          "type": "address"
        },
        {
          "internalType": "address",
          "name": "_user",
          "type": "address"
        },
        {
          "internalType": "uint256",
          "name": "_sharesLp",
          "type": "uint256"
        },
        {
          "internalType": "uint256",
          "name": "_sharesGov",
          "type": "uint256"
        },
        {
          "internalType": "uint256",
          "name": "_num",
          "type": "uint256"
        }
      ],
      "name": "updateRewards",
      "outputs": [],
      "payable": false,
      "stateMutability": "nonpayable",
      "type": "function"
    },
    {
      "constant": false,
      "inputs": [
        {
          "internalType": "address",
          "name": "_reserve",
          "type": "address"
        },
        {
          "internalType": "address",
          "name": "_user",
          "type": "address"
        },
        {
          "internalType": "enum RewardsManager.RewardTypes",
          "name": "_type",
          "type": "uint8"
        },
        {
          "internalType": "uint256",
          "name": "_shares",
          "type": "uint256"
        },
        {
          "internalType": "uint256",
          "name": "_num",
          "type": "uint256"
        }
      ],
      "name": "updateReward",
      "outputs": [],
      "payable": false,
      "stateMutability": "nonpayable",
      "type": "function"
    },
    {
      "constant": true,
      "inputs": [
        {
          "internalType": "address",
          "name": "_reserve",
          "type": "address"
        },
        {
          "internalType": "address",
          "name": "_user",
          "type": "address"
        },
        {
          "internalType": "enum RewardsManager.RewardTypes",
          "name": "_type",
          "type": "uint8"
        },
        {
          "internalType": "uint256",
          "name": "_share",
          "type": "uint256"
        }
      ],
      "name": "readRewards",
      "outputs": [
        {
          "internalType": "uint256",
          "name": "",
          "type": "uint256"
        }
      ],
      "payable": false,
      "stateMutability": "view",
      "type": "function"
    },
    {
      "constant": false,
      "inputs": [
        {
          "internalType": "address",
          "name": "_reserve",
          "type": "address"
        },
        {
          "internalType": "address",
          "name": "_user",
          "type": "address"
        },
        {
          "internalType": "enum RewardsManager.RewardTypes",
          "name": "_type",
          "type": "uint8"
        }
      ],
      "name": "resetReward",
      "outputs": [],
      "payable": false,
      "stateMutability": "nonpayable",
      "type": "function"
    },
    {
      "constant": false,
      "inputs": [
        {
          "internalType": "enum RewardsManager.RewardTypes",
          "name": "_type",
          "type": "uint8"
        },
        {
          "internalType": "address",
          "name": "_token",
          "type": "address"
        },
        {
          "internalType": "address payable",
          "name": "_to",
          "type": "address"
        },
        {
          "internalType": "uint256",
          "name": "_amount",
          "type": "uint256"
        }
      ],
      "name": "withdrawFromVault",
      "outputs": [],
      "payable": false,
      "stateMutability": "nonpayable",
      "type": "function"
    }
  ],
  "bytecode": "0x60806040523480156200001157600080fd5b506040516200296538038062002965833981810160405260208110156200003757600080fd5b8101908080519060200190929190505050620000586200041460201b60201c565b6000806101000a81548173ffffffffffffffffffffffffffffffffffffffff021916908373ffffffffffffffffffffffffffffffffffffffff1602179055506000809054906101000a900473ffffffffffffffffffffffffffffffffffffffff1673ffffffffffffffffffffffffffffffffffffffff16600073ffffffffffffffffffffffffffffffffffffffff167f8be0079c531659141344cd1fd0a4f28419497f9722a3daafe3b4186f6b6457e060405160405180910390a36001808190555080600560006101000a81548173ffffffffffffffffffffffffffffffffffffffff021916908373ffffffffffffffffffffffffffffffffffffffff160217905550600560009054906101000a900473ffffffffffffffffffffffffffffffffffffffff1673ffffffffffffffffffffffffffffffffffffffff16630261bf8b6040518163ffffffff1660e01b815260040160206040518083038186803b158015620001c457600080fd5b505afa158015620001d9573d6000803e3d6000fd5b505050506040513d6020811015620001f057600080fd5b8101908080519060200190929190505050600260006101000a81548173ffffffffffffffffffffffffffffffffffffffff021916908373ffffffffffffffffffffffffffffffffffffffff160217905550600560009054906101000a900473ffffffffffffffffffffffffffffffffffffffff1673ffffffffffffffffffffffffffffffffffffffff1663ed6ff7606040518163ffffffff1660e01b815260040160206040518083038186803b158015620002aa57600080fd5b505afa158015620002bf573d6000803e3d6000fd5b505050506040513d6020811015620002d657600080fd5b8101908080519060200190929190505050600360006101000a81548173ffffffffffffffffffffffffffffffffffffffff021916908373ffffffffffffffffffffffffffffffffffffffff160217905550600560009054906101000a900473ffffffffffffffffffffffffffffffffffffffff1673ffffffffffffffffffffffffffffffffffffffff16639f9106d16040518163ffffffff1660e01b815260040160206040518083038186803b1580156200039057600080fd5b505afa158015620003a5573d6000803e3d6000fd5b505050506040513d6020811015620003bc57600080fd5b8101908080519060200190929190505050600460006101000a81548173ffffffffffffffffffffffffffffffffffffffff021916908373ffffffffffffffffffffffffffffffffffffffff160217905550506200041c565b600033905090565b612539806200042c6000396000f3fe608060405234801561001057600080fd5b50600436106100e05760003560e01c806372f702f31161008757806372f702f31461044c5780638da5cb5b146104965780638f32d59b146104e0578063b6638fbb14610502578063c72c4d1014610573578063cf2305cd146105bd578063d3ae26b314610638578063f2fde38b14610682576100e0565b80630d3c1f6f146100e55780631c0ad6461461016a5780632ae61099146101b457806330ab9fdb1461024357806333f93b42146102fb5780633721535e1461035d578063372d9448146103df578063715018a614610442575b600080fd5b610168600480360360a08110156100fb57600080fd5b81019080803573ffffffffffffffffffffffffffffffffffffffff169060200190929190803573ffffffffffffffffffffffffffffffffffffffff169060200190929190803560ff16906020019092919080359060200190929190803590602001909291905050506106c6565b005b61017261092b565b604051808273ffffffffffffffffffffffffffffffffffffffff1673ffffffffffffffffffffffffffffffffffffffff16815260200191505060405180910390f35b61022d600480360360808110156101ca57600080fd5b81019080803573ffffffffffffffffffffffffffffffffffffffff169060200190929190803573ffffffffffffffffffffffffffffffffffffffff169060200190929190803560ff16906020019092919080359060200190929190505050610951565b6040518082815260200191505060405180910390f35b6102f96004803603602081101561025957600080fd5b810190808035906020019064010000000081111561027657600080fd5b82018360208201111561028857600080fd5b803590602001918460208302840111640100000000831117156102aa57600080fd5b919080806020026020016040519081016040528093929190818152602001838360200280828437600081840152601f19601f820116905080830192505050505050509192919290505050610af6565b005b61035b6004803603608081101561031157600080fd5b81019080803573ffffffffffffffffffffffffffffffffffffffff169060200190929190803590602001909291908035906020019092919080359060200190929190505050610d80565b005b6103dd600480360360a081101561037357600080fd5b81019080803573ffffffffffffffffffffffffffffffffffffffff169060200190929190803573ffffffffffffffffffffffffffffffffffffffff169060200190929190803590602001909291908035906020019092919080359060200190929190505050611196565b005b610421600480360360208110156103f557600080fd5b81019080803573ffffffffffffffffffffffffffffffffffffffff16906020019092919050505061125f565b60405180838152602001821515151581526020019250505060405180910390f35b61044a611290565b005b6104546113c9565b604051808273ffffffffffffffffffffffffffffffffffffffff1673ffffffffffffffffffffffffffffffffffffffff16815260200191505060405180910390f35b61049e6113ef565b604051808273ffffffffffffffffffffffffffffffffffffffff1673ffffffffffffffffffffffffffffffffffffffff16815260200191505060405180910390f35b6104e8611418565b604051808215151515815260200191505060405180910390f35b6105716004803603606081101561051857600080fd5b81019080803573ffffffffffffffffffffffffffffffffffffffff169060200190929190803573ffffffffffffffffffffffffffffffffffffffff169060200190929190803560ff169060200190929190505050611476565b005b61057b611643565b604051808273ffffffffffffffffffffffffffffffffffffffff1673ffffffffffffffffffffffffffffffffffffffff16815260200191505060405180910390f35b610636600480360360808110156105d357600080fd5b81019080803560ff169060200190929190803573ffffffffffffffffffffffffffffffffffffffff169060200190929190803573ffffffffffffffffffffffffffffffffffffffff16906020019092919080359060200190929190505050611669565b005b610640611a23565b604051808273ffffffffffffffffffffffffffffffffffffffff1673ffffffffffffffffffffffffffffffffffffffff16815260200191505060405180910390f35b6106c46004803603602081101561069857600080fd5b81019080803573ffffffffffffffffffffffffffffffffffffffff169060200190929190505050611a49565b005b3373ffffffffffffffffffffffffffffffffffffffff16600260009054906101000a900473ffffffffffffffffffffffffffffffffffffffff1673ffffffffffffffffffffffffffffffffffffffff161461076c576040517f08c379a000000000000000000000000000000000000000000000000000000000815260040180806020018281038252602a8152602001806124b5602a913960400191505060405180910390fd5b60018060008282540192505081905550600060015490506000600660008873ffffffffffffffffffffffffffffffffffffffff1673ffffffffffffffffffffffffffffffffffffffff16815260200190815260200160002090508060030160009054906101000a900460ff1661082d576040517f08c379a00000000000000000000000000000000000000000000000000000000081526004018080602001828103825260268152602001806124df6026913960400191505060405180910390fd5b60008160020154141561084057506108ac565b600084141561086b57610865818787600281111561085a57fe5b600080600080611acf565b506108ac565b6000806000610887848a8a600281111561088157fe5b89611d47565b9250925092506108a7848a8a600281111561089e57fe5b86868c87611acf565b505050505b6001548114610923576040517f08c379a000000000000000000000000000000000000000000000000000000000815260040180806020018281038252601f8152602001807f5265656e7472616e637947756172643a207265656e7472616e742063616c6c0081525060200191505060405180910390fd5b505050505050565b600360009054906101000a900473ffffffffffffffffffffffffffffffffffffffff1681565b600080600660008773ffffffffffffffffffffffffffffffffffffffff1673ffffffffffffffffffffffffffffffffffffffff16815260200190815260200160002090508060030160009054906101000a900460ff166109fc576040517f08c379a00000000000000000000000000000000000000000000000000000000081526004018080602001828103825260268152602001806124df6026913960400191505060405180910390fd5b600081600201541415610a13576000915050610aee565b60008160000160008773ffffffffffffffffffffffffffffffffffffffff1673ffffffffffffffffffffffffffffffffffffffff168152602001908152602001600020856002811115610a6257fe5b60028110610a6c57fe5b600202016001015490506000841415610a89578092505050610aee565b6000806000610aa6858a8a6002811115610a9f57fe5b6000611d47565b9250925092508015610ae5576000610acc868a6002811115610ac457fe5b86868c611e56565b9050610ae18186611f7090919063ffffffff16565b9450505b83955050505050505b949350505050565b3373ffffffffffffffffffffffffffffffffffffffff16600260009054906101000a900473ffffffffffffffffffffffffffffffffffffffff1673ffffffffffffffffffffffffffffffffffffffff1614610b9c576040517f08c379a000000000000000000000000000000000000000000000000000000000815260040180806020018281038252602a8152602001806124b5602a913960400191505060405180910390fd5b600180600082825401925050819055506000600154905060008251905060008090505b81811015610d0357610bcf6123e4565b60066000868481518110610bdf57fe5b602002602001015173ffffffffffffffffffffffffffffffffffffffff1673ffffffffffffffffffffffffffffffffffffffff168152602001908152602001600020604051806040016040529081600282015481526020016003820160009054906101000a900460ff16151515158152505090508060200151610cf5576040518060400160405280600081526020016001151581525060066000878581518110610c8557fe5b602002602001015173ffffffffffffffffffffffffffffffffffffffff1673ffffffffffffffffffffffffffffffffffffffff1681526020019081526020016000206000820151816002015560208201518160030160006101000a81548160ff0219169083151502179055509050505b508080600101915050610bbf565b50506001548114610d7c576040517f08c379a000000000000000000000000000000000000000000000000000000000815260040180806020018281038252601f8152602001807f5265656e7472616e637947756172643a207265656e7472616e742063616c6c0081525060200191505060405180910390fd5b5050565b3373ffffffffffffffffffffffffffffffffffffffff16600260009054906101000a900473ffffffffffffffffffffffffffffffffffffffff1673ffffffffffffffffffffffffffffffffffffffff161480610e2957503373ffffffffffffffffffffffffffffffffffffffff16600360009054906101000a900473ffffffffffffffffffffffffffffffffffffffff1673ffffffffffffffffffffffffffffffffffffffff16145b610e7e576040517f08c379a00000000000000000000000000000000000000000000000000000000081526004018080602001828103825260328152602001806124626032913960400191505060405180910390fd5b60018060008282540192505081905550600060015490506000841480610ea45750600082145b80610eaf5750600083145b15610eb957611118565b6000600660008773ffffffffffffffffffffffffffffffffffffffff1673ffffffffffffffffffffffffffffffffffffffff16815260200190815260200160002090508060030160009054906101000a900460ff16610f63576040517f08c379a00000000000000000000000000000000000000000000000000000000081526004018080602001828103825260268152602001806124df6026913960400191505060405180910390fd5b604051806060016040528086815260200160008152602001858152508160010160008360020154815260200190815260200160002060006002811115610fa557fe5b60028110610faf57fe5b600302016000820151816000015560208201518160010155604082015181600201559050506000600460009054906101000a900473ffffffffffffffffffffffffffffffffffffffff1673ffffffffffffffffffffffffffffffffffffffff166318160ddd6040518163ffffffff1660e01b815260040160206040518083038186803b15801561103e57600080fd5b505afa158015611052573d6000803e3d6000fd5b505050506040513d602081101561106857600080fd5b81019080805190602001909291905050509050600081146110f5576040518060600160405280858152602001600081526020018281525082600101600084600201548152602001908152602001600020600160028111156110c557fe5b600281106110cf57fe5b600302016000820151816000015560208201518160010155604082015181600201559050505b61110d60018360020154611f7090919063ffffffff16565b826002018190555050505b600154811461118f576040517f08c379a000000000000000000000000000000000000000000000000000000000815260040180806020018281038252601f8152602001807f5265656e7472616e637947756172643a207265656e7472616e742063616c6c0081525060200191505060405180910390fd5b5050505050565b3373ffffffffffffffffffffffffffffffffffffffff16600260009054906101000a900473ffffffffffffffffffffffffffffffffffffffff1673ffffffffffffffffffffffffffffffffffffffff161461123c576040517f08c379a000000000000000000000000000000000000000000000000000000000815260040180806020018281038252602a8152602001806124b5602a913960400191505060405180910390fd5b61124a8585600086856106c6565b6112588585600185856106c6565b5050505050565b60066020528060005260406000206000915090508060020154908060030160009054906101000a900460ff16905082565b611298611418565b61130a576040517f08c379a00000000000000000000000000000000000000000000000000000000081526004018080602001828103825260208152602001807f4f776e61626c653a2063616c6c6572206973206e6f7420746865206f776e657281525060200191505060405180910390fd5b600073ffffffffffffffffffffffffffffffffffffffff166000809054906101000a900473ffffffffffffffffffffffffffffffffffffffff1673ffffffffffffffffffffffffffffffffffffffff167f8be0079c531659141344cd1fd0a4f28419497f9722a3daafe3b4186f6b6457e060405160405180910390a360008060006101000a81548173ffffffffffffffffffffffffffffffffffffffff021916908373ffffffffffffffffffffffffffffffffffffffff160217905550565b600460009054906101000a900473ffffffffffffffffffffffffffffffffffffffff1681565b60008060009054906101000a900473ffffffffffffffffffffffffffffffffffffffff16905090565b60008060009054906101000a900473ffffffffffffffffffffffffffffffffffffffff1673ffffffffffffffffffffffffffffffffffffffff1661145a611ff8565b73ffffffffffffffffffffffffffffffffffffffff1614905090565b3373ffffffffffffffffffffffffffffffffffffffff16600260009054906101000a900473ffffffffffffffffffffffffffffffffffffffff1673ffffffffffffffffffffffffffffffffffffffff161461151c576040517f08c379a000000000000000000000000000000000000000000000000000000000815260040180806020018281038252602a8152602001806124b5602a913960400191505060405180910390fd5b6000600660008573ffffffffffffffffffffffffffffffffffffffff1673ffffffffffffffffffffffffffffffffffffffff16815260200190815260200160002090508060030160009054906101000a900460ff166115c6576040517f08c379a00000000000000000000000000000000000000000000000000000000081526004018080602001828103825260268152602001806124df6026913960400191505060405180910390fd5b60008160000160008573ffffffffffffffffffffffffffffffffffffffff1673ffffffffffffffffffffffffffffffffffffffff16815260200190815260200160002083600281111561161557fe5b6002811061161f57fe5b60020201905081600201548160000181905550600081600101819055505050505050565b600560009054906101000a900473ffffffffffffffffffffffffffffffffffffffff1681565b3373ffffffffffffffffffffffffffffffffffffffff16600260009054906101000a900473ffffffffffffffffffffffffffffffffffffffff1673ffffffffffffffffffffffffffffffffffffffff161461170f576040517f08c379a000000000000000000000000000000000000000000000000000000000815260040180806020018281038252602a8152602001806124b5602a913960400191505060405180910390fd5b600080600281111561171d57fe5b85600281111561172957fe5b14156117d957600560009054906101000a900473ffffffffffffffffffffffffffffffffffffffff1673ffffffffffffffffffffffffffffffffffffffff166313dc12cf6040518163ffffffff1660e01b815260040160206040518083038186803b15801561179757600080fd5b505afa1580156117ab573d6000803e3d6000fd5b505050506040513d60208110156117c157600080fd5b81019080805190602001909291905050509050611949565b600160028111156117e657fe5b8560028111156117f257fe5b14156118a257600560009054906101000a900473ffffffffffffffffffffffffffffffffffffffff1673ffffffffffffffffffffffffffffffffffffffff1663194308cd6040518163ffffffff1660e01b815260040160206040518083038186803b15801561186057600080fd5b505afa158015611874573d6000803e3d6000fd5b505050506040513d602081101561188a57600080fd5b81019080805190602001909291905050509050611948565b600560009054906101000a900473ffffffffffffffffffffffffffffffffffffffff1673ffffffffffffffffffffffffffffffffffffffff166331c2ddbc6040518163ffffffff1660e01b815260040160206040518083038186803b15801561190a57600080fd5b505afa15801561191e573d6000803e3d6000fd5b505050506040513d602081101561193457600080fd5b810190808051906020019092919050505090505b5b8073ffffffffffffffffffffffffffffffffffffffff1663d9caed128585856040518463ffffffff1660e01b8152600401808473ffffffffffffffffffffffffffffffffffffffff1673ffffffffffffffffffffffffffffffffffffffff1681526020018373ffffffffffffffffffffffffffffffffffffffff1673ffffffffffffffffffffffffffffffffffffffff1681526020018281526020019350505050600060405180830381600087803b158015611a0457600080fd5b505af1158015611a18573d6000803e3d6000fd5b505050505050505050565b600260009054906101000a900473ffffffffffffffffffffffffffffffffffffffff1681565b611a51611418565b611ac3576040517f08c379a00000000000000000000000000000000000000000000000000000000081526004018080602001828103825260208152602001807f4f776e61626c653a2063616c6c6572206973206e6f7420746865206f776e657281525060200191505060405180910390fd5b611acc81612000565b50565b80611b3b5760008760000160008873ffffffffffffffffffffffffffffffffffffffff1673ffffffffffffffffffffffffffffffffffffffff1681526020019081526020016000208660028110611b2257fe5b6002020190508760020154816000018190555050611d3e565b6000808590505b848111611cab57611b51612400565b8960010160008381526020019081526020016000208860028110611b7157fe5b6003020160405180606001604052908160008201548152602001600182015481526020016002820154815250509050600081600001511415611bb35750611c9e565b6000611bd08260200151836000015161214490919063ffffffff16565b90506000811415611be2575050611c9e565b6000611c118360400151611c0385600001518a61218e90919063ffffffff16565b61221490919063ffffffff16565b905080821015611c1f578190505b611c328186611f7090919063ffffffff16565b9450611c4b818460200151611f7090919063ffffffff16565b836020018181525050828c60010160008681526020019081526020016000208b60028110611c7557fe5b600302016000820151816000015560208201518160010155604082015181600201559050505050505b8080600101915050611b42565b5060008860000160008973ffffffffffffffffffffffffffffffffffffffff1673ffffffffffffffffffffffffffffffffffffffff1681526020019081526020016000208760028110611cfa57fe5b600202019050611d14600186611f7090919063ffffffff16565b8160000181905550611d33828260010154611f7090919063ffffffff16565b816001018190555050505b50505050505050565b6000806000611d54612421565b8760000160008873ffffffffffffffffffffffffffffffffffffffff1673ffffffffffffffffffffffffffffffffffffffff1681526020019081526020016000208660028110611da057fe5b600202016040518060400160405290816000820154815260200160018201548152505090508760020154816000015110611deb57600080600082925081915093509350935050611e4c565b6000611e0560018a6002015461214490919063ffffffff16565b905060008614611e3b576000611e2b600188038460000151611f7090919063ffffffff16565b905081811015611e39578091505b505b816000015181600194509450945050505b9450945094915050565b60008060008590505b848111611f6257611e6e612400565b8860010160008381526020019081526020016000208860028110611e8e57fe5b6003020160405180606001604052908160008201548152602001600182015481526020016002820154815250509050600081600001511415611ed05750611f55565b6000611eed8260200151836000015161214490919063ffffffff16565b90506000811415611eff575050611f55565b6000611f2e8360400151611f2085600001518a61218e90919063ffffffff16565b61221490919063ffffffff16565b905080821015611f3c578190505b611f4f8186611f7090919063ffffffff16565b94505050505b8080600101915050611e5f565b508091505095945050505050565b600080828401905083811015611fee576040517f08c379a000000000000000000000000000000000000000000000000000000000815260040180806020018281038252601b8152602001807f536166654d6174683a206164646974696f6e206f766572666c6f77000000000081525060200191505060405180910390fd5b8091505092915050565b600033905090565b600073ffffffffffffffffffffffffffffffffffffffff168173ffffffffffffffffffffffffffffffffffffffff161415612086576040517f08c379a000000000000000000000000000000000000000000000000000000000815260040180806020018281038252602681526020018061243c6026913960400191505060405180910390fd5b8073ffffffffffffffffffffffffffffffffffffffff166000809054906101000a900473ffffffffffffffffffffffffffffffffffffffff1673ffffffffffffffffffffffffffffffffffffffff167f8be0079c531659141344cd1fd0a4f28419497f9722a3daafe3b4186f6b6457e060405160405180910390a3806000806101000a81548173ffffffffffffffffffffffffffffffffffffffff021916908373ffffffffffffffffffffffffffffffffffffffff16021790555050565b600061218683836040518060400160405280601e81526020017f536166654d6174683a207375627472616374696f6e206f766572666c6f77000081525061225e565b905092915050565b6000808314156121a1576000905061220e565b60008284029050828482816121b257fe5b0414612209576040517f08c379a00000000000000000000000000000000000000000000000000000000081526004018080602001828103825260218152602001806124946021913960400191505060405180910390fd5b809150505b92915050565b600061225683836040518060400160405280601a81526020017f536166654d6174683a206469766973696f6e206279207a65726f00000000000081525061231e565b905092915050565b600083831115829061230b576040517f08c379a00000000000000000000000000000000000000000000000000000000081526004018080602001828103825283818151815260200191508051906020019080838360005b838110156122d05780820151818401526020810190506122b5565b50505050905090810190601f1680156122fd5780820380516001836020036101000a031916815260200191505b509250505060405180910390fd5b5060008385039050809150509392505050565b600080831182906123ca576040517f08c379a00000000000000000000000000000000000000000000000000000000081526004018080602001828103825283818151815260200191508051906020019080838360005b8381101561238f578082015181840152602081019050612374565b50505050905090810190601f1680156123bc5780820380516001836020036101000a031916815260200191505b509250505060405180910390fd5b5060008385816123d657fe5b049050809150509392505050565b6040518060400160405280600081526020016000151581525090565b60405180606001604052806000815260200160008152602001600081525090565b60405180604001604052806000815260200160008152509056fe4f776e61626c653a206e6577206f776e657220697320746865207a65726f20616464726573735468652063616c6c6572206d7573742062652061206c656e64696e6720706f6f6c206f7220636f726520636f6e7472616374536166654d6174683a206d756c7469706c69636174696f6e206f766572666c6f775468652063616c6c6572206d7573742062652061206c656e64696e6720706f6f6c20636f6e7472616374556e6b6e6f776e207265736572766520706f6f6c20696e20526577617264204d616e61676572a265627a7a72315820f2d04f1c1a0a8fe13d24a9e1a27ae73c750deaf02cb0c427daa1cd0529da3e2464736f6c63430005100032",
  "source": "pragma solidity ^0.5.0;\n\nimport \"openzeppelin-solidity/contracts/ownership/Ownable.sol\";\nimport \"openzeppelin-solidity/contracts/utils/ReentrancyGuard.sol\";\nimport \"openzeppelin-solidity/contracts/token/ERC20/ERC20.sol\";\nimport \"openzeppelin-solidity/contracts/token/ERC20/SafeERC20.sol\";\nimport \"../configuration/LendingPoolAddressesProvider.sol\";\nimport \"../interfaces/IRewardVault.sol\";\n\ncontract RewardsManager is Ownable, ReentrancyGuard {\n    using SafeMath for uint256;\n    using SafeERC20 for ERC20;\n\n    address public lendingPoolAddress;\n    address public coreAddress;\n    address public stakingToken;\n    LendingPoolAddressesProvider public addressesProvider;\n\n    /**\n     * @dev - An enum for the types of rewards\n     */\n    enum RewardTypes {Depositor, Governance, Safety}\n\n    /**\n     * @dev - A struct to store a user's accumulated reward and the pointer to the next claimable reward.\n     */\n    struct UserClaim {\n        uint256 nextClaimablePtr;\n        uint256 accumReward;\n    }\n\n    /**\n     * @dev - A struct to store the RewardItem.\n     * @notice amount - The amount of reward.\n     * @notice paidSoFar - The amount that a user has accumulated or claimed from this reward item.\n     * @notice totalSharingBase - For Depositor reward, this represent the total liquidity. For Governance reward, this represent the total bMxx staked.\n     */\n    struct RewardItem {\n        uint256 amount;\n        uint256 paidSoFar;\n        uint256 totalSharingBase; // Either total LP or total bMxx Staking amount //\n    }\n\n    /**\n     * @dev - A struct to store the individual RewardPools.\n     * @notice claims - A mapping of user address to UserClaims.\n     * @notice rewards - A mapping of RewardItems, retrieved by index. The index starts from 0.\n     * @notice nextRewardPtr - Stores the index to the next reward item.\n     * @notice valid - Determines whether a pool is valid or not.\n     */\n    struct RewardPool {\n        mapping(address => UserClaim[2]) claims;\n        mapping(uint256 => RewardItem[2]) rewards;\n        uint256 nextRewardPtr;\n        bool valid;\n    }\n\n    mapping(address => RewardPool) public rewardPools;\n\n    /**\n     * @dev only LendingPool can use functions affected by this modifier\n     **/\n    modifier onlyLendingPool {\n        require(\n            lendingPoolAddress == msg.sender,\n            \"The caller must be a lending pool contract\"\n        );\n        _;\n    }\n\n    /**\n     * @dev only LendingPool or Core can use functions affected by this modifier\n     **/\n    modifier onlyLendingPoolOrCore {\n        require(\n            lendingPoolAddress == msg.sender || coreAddress == msg.sender,\n            \"The caller must be a lending pool or core contract\"\n        );\n        _;\n    }\n\n    constructor(LendingPoolAddressesProvider _addressProvider)\n        public\n        Ownable()\n    {\n        addressesProvider = _addressProvider;\n        lendingPoolAddress = addressesProvider.getLendingPool();\n        coreAddress = addressesProvider.getLendingPoolCore();\n        stakingToken = addressesProvider.getStakingToken();\n    }\n\n    /**\n     * @dev This function will register the reward pools based on an array of reserves\n     * @param _reserves - Array of addresses\n     * Access Control: Only Lending Pools\n     */\n    function registerPools(address[] memory _reserves)\n        public\n        onlyLendingPool\n        nonReentrant\n    {\n        uint256 len = _reserves.length;\n        for (uint256 i = 0; i < len; i++) {\n            RewardPool memory pool = rewardPools[_reserves[i]];\n            if (!pool.valid) {\n                rewardPools[_reserves[i]] = RewardPool({\n                    nextRewardPtr: 0,\n                    valid: true\n                });\n            }\n        }\n    }\n\n    /**\n     * @dev This function will add a new reward item.\n     * @param _reserve - The reserve of the lending pool.\n     * @param _lpRewardAmt - The amount of reward for depositors.\n     * @param lpBase - The total amount of the mToken supplied.\n     * @param govRewardAmt - The amount of reward for the governance stakers.\n     * Access Control: Only Lending Pools or Core\n     */\n    function addRewardItem(\n        address _reserve,\n        uint256 _lpRewardAmt,\n        uint256 lpBase,\n        uint256 govRewardAmt\n    ) public onlyLendingPoolOrCore nonReentrant {\n        // Check for any zero inputs//\n        if (_lpRewardAmt == 0 || govRewardAmt == 0 || lpBase == 0) {\n            return;\n        }\n\n        RewardPool storage pool = rewardPools[_reserve];\n        require(pool.valid, \"Unknown reserve pool in Reward Manager\");\n\n        pool.rewards[pool.nextRewardPtr][\n            uint256(RewardTypes.Depositor)\n        ] = RewardItem(_lpRewardAmt, 0, lpBase);\n\n        uint256 stakedTokenSupply = IERC20(stakingToken).totalSupply();\n        if (stakedTokenSupply != 0) {\n            pool.rewards[pool.nextRewardPtr][\n                uint256(RewardTypes.Governance)\n            ] = RewardItem(govRewardAmt, 0, stakedTokenSupply);\n        }\n        pool.nextRewardPtr = pool.nextRewardPtr.add(1);\n    }\n\n    /**\n     * @dev This function will update both the Depositor and Governance reward of the user.\n     * @param _reserve - The reserve of the lending pool.\n     * @param _user - The user's address.\n     * @param _sharesLp - The amount of the mToken the user has.\n     * @param _sharesGov - The amount of stBMXX token the user has.\n     * @param _num - The number of reward items to update. Input 0 to update all available reward items.\n     * Access Control: Only Lending Pools\n     */\n    function updateRewards(\n        address _reserve,\n        address _user,\n        uint256 _sharesLp,\n        uint256 _sharesGov,\n        uint256 _num\n    ) public onlyLendingPool {\n        updateReward(_reserve, _user, RewardTypes.Depositor, _sharesLp, _num);\n        updateReward(_reserve, _user, RewardTypes.Governance, _sharesGov, _num);\n    }\n\n    /**\n     * @dev Called by LendingPool to accumulate and update the reward for a user.\n     * @param _reserve The lending pool reserver.\n     * @param _user The address of the user.\n     * @param _type The type of reward to update.\n     * @param _type The amount of reward.\n     * @param _num The number of reward items to update. Input 0 to update all available reward items.\n     * Access Control: Only Lending Pools\n     **/\n    function updateReward(\n        address _reserve,\n        address _user,\n        RewardTypes _type,\n        uint256 _shares,\n        uint256 _num\n    ) public onlyLendingPool nonReentrant {\n        RewardPool storage pool = rewardPools[_reserve];\n        require(pool.valid, \"Unknown reserve pool in Reward Manager\");\n\n        // Pool has no reward yet ?\n        if (pool.nextRewardPtr == 0) {\n            return;\n        }\n\n        // For optimization, if _shares is 0, then we just update the next claimable pointer\n        if (_shares == 0) {\n            updateRange(pool, _user, uint256(_type), 0, 0, 0, false);\n            return;\n        }\n\n        (uint256 start, uint256 end, bool hasNewReward) =\n            getValidRange(pool, _user, uint256(_type), _num);\n        updateRange(\n            pool,\n            _user,\n            uint256(_type),\n            start,\n            end,\n            _shares,\n            hasNewReward\n        );\n    }\n\n    /**\n     * @dev This function will read the available reward of the user.\n     * @param _reserve - The reserve of the lending pool.\n     * @param _user - The user's address.\n     * @param _type - The type of reward.\n     * @param _share - The amount of mToken or stBMXX token, depending on the _type specified.\n     */\n    function readRewards(\n        address _reserve,\n        address _user,\n        RewardTypes _type,\n        uint256 _share\n    ) public view returns (uint256) {\n        RewardPool storage pool = rewardPools[_reserve];\n        require(pool.valid, \"Unknown reserve pool in Reward Manager\");\n\n        // Pool has no reward yet ?\n        if (pool.nextRewardPtr == 0) {\n            return 0;\n        }\n\n        uint256 rewardAmt = pool.claims[_user][uint256(_type)].accumReward;\n        if (_share == 0) {\n            return rewardAmt;\n        }\n\n        (uint256 start, uint256 end, bool hasNewReward) =\n            getValidRange(pool, _user, uint256(_type), 0);\n        if (hasNewReward) {\n            uint256 accum = readRange(pool, uint256(_type), start, end, _share);\n            rewardAmt = rewardAmt.add(accum);\n        }\n        return rewardAmt;\n    }\n\n    /**\n     * @dev This function will retriev the start and end index of the reward item.\n     * @param _pool - The reward pool.\n     * @param _user - The user's address.\n     * @param _type - The type of reward.\n     * @param _num - The number of reward items to update. Input 0 to update all available reward items.\n     */\n    function getValidRange(\n        RewardPool storage _pool,\n        address _user,\n        uint256 _type,\n        uint256 _num\n    )\n        private\n        view\n        returns (\n            uint256,\n            uint256,\n            bool\n        )\n    {\n        UserClaim memory claim = _pool.claims[_user][_type];\n        if (claim.nextClaimablePtr >= _pool.nextRewardPtr) {\n            return (0, 0, false);\n        }\n\n        // Find the start and end //\n        uint256 end = _pool.nextRewardPtr.sub(1);\n        if (_num != 0) {\n            uint256 temp = claim.nextClaimablePtr.add(_num - 1);\n            if (temp < end) {\n                end = temp;\n            }\n        }\n        return (claim.nextClaimablePtr, end, true);\n    }\n\n    /**\n     * @dev This function will update the accumulated reward of the user based on the range.\n     * @param _pool - The reward pool.\n     * @param _user - The user's address.\n     * @param _type - The type of reward.\n     * @param _start - The start of the range.\n     * @param _end - The end of the range.\n     * @param _share - The amount of mToken or stBMXX token, depending on the _type specified.\n     * @param _hasNewReward - Specify whether a new reward is available.\n     */\n    function updateRange(\n        RewardPool storage _pool,\n        address _user,\n        uint256 _type,\n        uint256 _start,\n        uint256 _end,\n        uint256 _share,\n        bool _hasNewReward\n    ) private {\n        // If there is no new claim, just point the nextClaimPtr to the latest\n        if (!_hasNewReward) {\n            UserClaim storage claim = _pool.claims[_user][_type];\n            claim.nextClaimablePtr = _pool.nextRewardPtr;\n            return;\n        }\n\n        uint256 accum;\n        for (uint256 n = _start; n <= _end; n++) {\n            RewardItem memory r = _pool.rewards[n][_type];\n            if (r.amount == 0) {\n                continue;\n            }\n\n            // Enough in RewardItem to pay ?\n            uint256 amountAvailable = r.amount.sub(r.paidSoFar);\n            if (amountAvailable == 0) {\n                continue;\n            }\n\n            uint256 rewardAmt = _share.mul(r.amount).div(r.totalSharingBase);\n\n            if (amountAvailable < rewardAmt) {\n                rewardAmt = amountAvailable;\n            }\n\n            accum = accum.add(rewardAmt);\n\n            // Update\n            r.paidSoFar = r.paidSoFar.add(rewardAmt);\n            _pool.rewards[n][_type] = r;\n        }\n\n        // Update\n        UserClaim storage claim = _pool.claims[_user][_type];\n        claim.nextClaimablePtr = _end.add(1); // set pointer to next reward in future //\n        claim.accumReward = claim.accumReward.add(accum);\n    }\n\n    /**\n     * @dev This function will read the accumulated reward from a range.\n     * @param _pool - The reward pool.\n     * @param _type - The type of reward.\n     * @param _start - The start of the range.\n     * @param _end - The end of the range.\n     * @param _share - The amount of mToken or stBMXX token, depending on the _type specified.\n     */\n    function readRange(\n        RewardPool storage _pool,\n        uint256 _type,\n        uint256 _start,\n        uint256 _end,\n        uint256 _share\n    ) private view returns (uint256) {\n        uint256 accum;\n        for (uint256 n = _start; n <= _end; n++) {\n            RewardItem memory r = _pool.rewards[n][_type];\n            if (r.amount == 0) {\n                continue;\n            }\n\n            // Enough in RewardItem to pay ?\n            uint256 amountAvailable = r.amount.sub(r.paidSoFar);\n            if (amountAvailable == 0) {\n                continue;\n            }\n\n            uint256 rewardAmt = _share.mul(r.amount).div(r.totalSharingBase);\n\n            if (amountAvailable < rewardAmt) {\n                rewardAmt = amountAvailable;\n            }\n\n            accum = accum.add(rewardAmt);\n        }\n        return accum;\n    }\n\n    /**\n     * @dev This function will reset the user's accumulated reward to 0 and set the pointer to the pool's next reward.\n     * @param _reserve - The reserve of the lending pool.\n     * @param _user - The user's address.\n     * @param _type - The type of reward.\n     * Access Control: Only Lending Pools\n     */\n    function resetReward(\n        address _reserve,\n        address _user,\n        RewardTypes _type\n    ) public onlyLendingPool {\n        RewardPool storage pool = rewardPools[_reserve];\n        require(pool.valid, \"Unknown reserve pool in Reward Manager\");\n\n        UserClaim storage claim = pool.claims[_user][uint256(_type)];\n        claim.nextClaimablePtr = pool.nextRewardPtr;\n        claim.accumReward = 0;\n    }\n\n    /**\n     * @dev This function will withdraw the reward and send to the user.\n     * @param _type - The type of reward.\n     * @param _token - The token to withdraw.\n     * @param _to - The payee's address.\n     * @param _amount - The amount to pay.\n     * Access Control: Only Lending Pools\n     */\n    function withdrawFromVault(\n        RewardTypes _type,\n        address _token,\n        address payable _to,\n        uint256 _amount\n    ) external onlyLendingPool {\n        IRewardVault vault;\n        if (_type == RewardTypes.Depositor) {\n            vault = IRewardVault(addressesProvider.getLpRewardVault());\n        } else if (_type == RewardTypes.Governance) {\n            vault = IRewardVault(addressesProvider.getGovRewardVault());\n        } else {\n            vault = IRewardVault(addressesProvider.getSafetyRewardVault());\n        }\n        vault.withdraw(_token, _to, _amount);\n    }\n}\n",
  "sourcePath": "/Users/dev/Documents/Project/MCLendNew/MCL-SmartContracts/lending/contracts/rewards/RewardsManager.sol",
  "compiler": {
    "name": "solc",
    "version": "0.5.16+commit.9c3226ce.Emscripten.clang"
  },
  "schemaVersion": "3.2.3",
  "updatedAt": "2021-02-19T07:32:48.780Z",
  "devdoc": {
    "methods": {
      "addRewardItem(address,uint256,uint256,uint256)": {
        "details": "This function will add a new reward item.",
        "params": {
          "_lpRewardAmt": "- The amount of reward for depositors.",
          "_reserve": "- The reserve of the lending pool.",
          "govRewardAmt": "- The amount of reward for the governance stakers. Access Control: Only Lending Pools or Core",
          "lpBase": "- The total amount of the mToken supplied."
        }
      },
      "isOwner()": {
        "details": "Returns true if the caller is the current owner."
      },
      "owner()": {
        "details": "Returns the address of the current owner."
      },
      "readRewards(address,address,uint8,uint256)": {
        "details": "This function will read the available reward of the user.",
        "params": {
          "_reserve": "- The reserve of the lending pool.",
          "_share": "- The amount of mToken or stBMXX token, depending on the _type specified.",
          "_type": "- The type of reward.",
          "_user": "- The user's address."
        }
      },
      "registerPools(address[])": {
        "details": "This function will register the reward pools based on an array of reserves",
        "params": {
          "_reserves": "- Array of addresses Access Control: Only Lending Pools"
        }
      },
      "renounceOwnership()": {
        "details": "Leaves the contract without owner. It will not be possible to call `onlyOwner` functions anymore. Can only be called by the current owner.     * NOTE: Renouncing ownership will leave the contract without an owner, thereby removing any functionality that is only available to the owner."
      },
      "resetReward(address,address,uint8)": {
        "details": "This function will reset the user's accumulated reward to 0 and set the pointer to the pool's next reward.",
        "params": {
          "_reserve": "- The reserve of the lending pool.",
          "_type": "- The type of reward. Access Control: Only Lending Pools",
          "_user": "- The user's address."
        }
      },
      "transferOwnership(address)": {
        "details": "Transfers ownership of the contract to a new account (`newOwner`). Can only be called by the current owner."
      },
      "updateReward(address,address,uint8,uint256,uint256)": {
        "details": "Called by LendingPool to accumulate and update the reward for a user.",
        "params": {
          "_num": "The number of reward items to update. Input 0 to update all available reward items. Access Control: Only Lending Pools*",
          "_reserve": "The lending pool reserver.",
          "_type": "The amount of reward.",
          "_user": "The address of the user."
        }
      },
      "updateRewards(address,address,uint256,uint256,uint256)": {
        "details": "This function will update both the Depositor and Governance reward of the user.",
        "params": {
          "_num": "- The number of reward items to update. Input 0 to update all available reward items. Access Control: Only Lending Pools",
          "_reserve": "- The reserve of the lending pool.",
          "_sharesGov": "- The amount of stBMXX token the user has.",
          "_sharesLp": "- The amount of the mToken the user has.",
          "_user": "- The user's address."
        }
      },
      "withdrawFromVault(uint8,address,address,uint256)": {
        "details": "This function will withdraw the reward and send to the user.",
        "params": {
          "_amount": "- The amount to pay. Access Control: Only Lending Pools",
          "_to": "- The payee's address.",
          "_token": "- The token to withdraw.",
          "_type": "- The type of reward."
        }
      }
    }
  },
  "userdoc": {
    "methods": {}
  }
}