{
  "contractName": "RewardVault",
  "abi": [
    {
      "anonymous": false,
      "inputs": [
        {
          "indexed": true,
          "internalType": "address",
          "name": "_vaultAddress",
          "type": "address"
        },
        {
          "indexed": false,
          "internalType": "uint256",
          "name": "_timestampWithdrawable",
          "type": "uint256"
        }
      ],
      "name": "EmergencyWithdrawlCooldown",
      "type": "event"
    },
    {
      "anonymous": false,
      "inputs": [
        {
          "indexed": true,
          "internalType": "address",
          "name": "_vaultAddress",
          "type": "address"
        },
        {
          "indexed": false,
          "internalType": "address",
          "name": "_reserve",
          "type": "address"
        },
        {
          "indexed": false,
          "internalType": "uint256",
          "name": "_amount",
          "type": "uint256"
        },
        {
          "indexed": false,
          "internalType": "address",
          "name": "_destination",
          "type": "address"
        },
        {
          "indexed": false,
          "internalType": "uint256",
          "name": "_timestamp",
          "type": "uint256"
        }
      ],
      "name": "EmergencyWithdrawlExecuted",
      "type": "event"
    },
    {
      "anonymous": false,
      "inputs": [
        {
          "indexed": true,
          "internalType": "address",
          "name": "previousOwner",
          "type": "address"
        },
        {
          "indexed": true,
          "internalType": "address",
          "name": "newOwner",
          "type": "address"
        }
      ],
      "name": "OwnershipTransferred",
      "type": "event"
    },
    {
      "payable": true,
      "stateMutability": "payable",
      "type": "fallback"
    },
    {
      "constant": true,
      "inputs": [],
      "name": "EMERGENCY_COOLDOWN_PERIOD",
      "outputs": [
        {
          "internalType": "uint256",
          "name": "",
          "type": "uint256"
        }
      ],
      "payable": false,
      "stateMutability": "view",
      "type": "function"
    },
    {
      "constant": true,
      "inputs": [],
      "name": "EMERGENCY_WITHDRAW_WINDOW_PERIOD",
      "outputs": [
        {
          "internalType": "uint256",
          "name": "",
          "type": "uint256"
        }
      ],
      "payable": false,
      "stateMutability": "view",
      "type": "function"
    },
    {
      "constant": true,
      "inputs": [],
      "name": "coolDownStart",
      "outputs": [
        {
          "internalType": "uint256",
          "name": "",
          "type": "uint256"
        }
      ],
      "payable": false,
      "stateMutability": "view",
      "type": "function"
    },
    {
      "constant": true,
      "inputs": [],
      "name": "isOwner",
      "outputs": [
        {
          "internalType": "bool",
          "name": "",
          "type": "bool"
        }
      ],
      "payable": false,
      "stateMutability": "view",
      "type": "function"
    },
    {
      "constant": true,
      "inputs": [],
      "name": "owner",
      "outputs": [
        {
          "internalType": "address",
          "name": "",
          "type": "address"
        }
      ],
      "payable": false,
      "stateMutability": "view",
      "type": "function"
    },
    {
      "constant": true,
      "inputs": [],
      "name": "paused",
      "outputs": [
        {
          "internalType": "bool",
          "name": "",
          "type": "bool"
        }
      ],
      "payable": false,
      "stateMutability": "view",
      "type": "function"
    },
    {
      "constant": false,
      "inputs": [],
      "name": "renounceOwnership",
      "outputs": [],
      "payable": false,
      "stateMutability": "nonpayable",
      "type": "function"
    },
    {
      "constant": true,
      "inputs": [],
      "name": "rewardManager",
      "outputs": [
        {
          "internalType": "address",
          "name": "",
          "type": "address"
        }
      ],
      "payable": false,
      "stateMutability": "view",
      "type": "function"
    },
    {
      "constant": false,
      "inputs": [
        {
          "internalType": "address",
          "name": "newOwner",
          "type": "address"
        }
      ],
      "name": "transferOwnership",
      "outputs": [],
      "payable": false,
      "stateMutability": "nonpayable",
      "type": "function"
    },
    {
      "constant": false,
      "inputs": [
        {
          "internalType": "address",
          "name": "_rewardManager",
          "type": "address"
        }
      ],
      "name": "setRewardManager",
      "outputs": [],
      "payable": false,
      "stateMutability": "nonpayable",
      "type": "function"
    },
    {
      "constant": false,
      "inputs": [
        {
          "internalType": "address",
          "name": "_token",
          "type": "address"
        },
        {
          "internalType": "address payable",
          "name": "_to",
          "type": "address"
        },
        {
          "internalType": "uint256",
          "name": "_amount",
          "type": "uint256"
        }
      ],
      "name": "withdraw",
      "outputs": [],
      "payable": false,
      "stateMutability": "nonpayable",
      "type": "function"
    },
    {
      "constant": false,
      "inputs": [
        {
          "internalType": "bool",
          "name": "_pause",
          "type": "bool"
        }
      ],
      "name": "setPaused",
      "outputs": [],
      "payable": false,
      "stateMutability": "nonpayable",
      "type": "function"
    },
    {
      "constant": false,
      "inputs": [],
      "name": "activateEmergencyCooldown",
      "outputs": [],
      "payable": false,
      "stateMutability": "nonpayable",
      "type": "function"
    },
    {
      "constant": false,
      "inputs": [
        {
          "internalType": "address",
          "name": "_token",
          "type": "address"
        },
        {
          "internalType": "address payable",
          "name": "_to",
          "type": "address"
        },
        {
          "internalType": "uint256",
          "name": "_amount",
          "type": "uint256"
        }
      ],
      "name": "emergencyWithdraw",
      "outputs": [],
      "payable": false,
      "stateMutability": "nonpayable",
      "type": "function"
    }
  ],
  "bytecode": "0x60806040526100126100d960201b60201c565b6000806101000a81548173ffffffffffffffffffffffffffffffffffffffff021916908373ffffffffffffffffffffffffffffffffffffffff1602179055506000809054906101000a900473ffffffffffffffffffffffffffffffffffffffff1673ffffffffffffffffffffffffffffffffffffffff16600073ffffffffffffffffffffffffffffffffffffffff167f8be0079c531659141344cd1fd0a4f28419497f9722a3daafe3b4186f6b6457e060405160405180910390a3600180819055506100e1565b600033905090565b61161b806100f06000396000f3fe6080604052600436106100bd5760003560e01c80635c975abb1161006f5780635c975abb1461029a578063715018a6146102c95780638da5cb5b146102e05780638f32d59b14610337578063d9caed1214610366578063e63ea408146103e1578063f2fde38b1461045c576100bd565b806308b3c91a1461011d5780630f4ef8a614610148578063153ee5541461019f57806316c38b3c146101f05780631b79903c1461022d5780631cd99adf146102585780632c50a4da14610283575b6100c6336104ad565b61011b576040517f08c379a00000000000000000000000000000000000000000000000000000000081526004018080602001828103825260278152602001806115966027913960400191505060405180910390fd5b005b34801561012957600080fd5b506101326104f8565b6040518082815260200191505060405180910390f35b34801561015457600080fd5b5061015d6104ff565b604051808273ffffffffffffffffffffffffffffffffffffffff1673ffffffffffffffffffffffffffffffffffffffff16815260200191505060405180910390f35b3480156101ab57600080fd5b506101ee600480360360208110156101c257600080fd5b81019080803573ffffffffffffffffffffffffffffffffffffffff169060200190929190505050610525565b005b3480156101fc57600080fd5b5061022b6004803603602081101561021357600080fd5b810190808035151590602001909291905050506105e3565b005b34801561023957600080fd5b5061024261067a565b6040518082815260200191505060405180910390f35b34801561026457600080fd5b5061026d610680565b6040518082815260200191505060405180910390f35b34801561028f57600080fd5b50610298610687565b005b3480156102a657600080fd5b506102af61076f565b604051808215151515815260200191505060405180910390f35b3480156102d557600080fd5b506102de610782565b005b3480156102ec57600080fd5b506102f56108bb565b604051808273ffffffffffffffffffffffffffffffffffffffff1673ffffffffffffffffffffffffffffffffffffffff16815260200191505060405180910390f35b34801561034357600080fd5b5061034c6108e4565b604051808215151515815260200191505060405180910390f35b34801561037257600080fd5b506103df6004803603606081101561038957600080fd5b81019080803573ffffffffffffffffffffffffffffffffffffffff169060200190929190803573ffffffffffffffffffffffffffffffffffffffff16906020019092919080359060200190929190505050610942565b005b3480156103ed57600080fd5b5061045a6004803603606081101561040457600080fd5b81019080803573ffffffffffffffffffffffffffffffffffffffff169060200190929190803573ffffffffffffffffffffffffffffffffffffffff16906020019092919080359060200190929190505050610a15565b005b34801561046857600080fd5b506104ab6004803603602081101561047f57600080fd5b81019080803573ffffffffffffffffffffffffffffffffffffffff169060200190929190505050610ce7565b005b60008060007fc5d2460186f7233c927e7db2dcc703c0e500b653ca82273b7bfad8045d85a47060001b9050833f91506000801b82141580156104ef5750808214155b92505050919050565b6201518081565b600260019054906101000a900473ffffffffffffffffffffffffffffffffffffffff1681565b61052d6108e4565b61059f576040517f08c379a00000000000000000000000000000000000000000000000000000000081526004018080602001828103825260208152602001807f4f776e61626c653a2063616c6c6572206973206e6f7420746865206f776e657281525060200191505060405180910390fd5b80600260016101000a81548173ffffffffffffffffffffffffffffffffffffffff021916908373ffffffffffffffffffffffffffffffffffffffff16021790555050565b6105eb6108e4565b61065d576040517f08c379a00000000000000000000000000000000000000000000000000000000081526004018080602001828103825260208152602001807f4f776e61626c653a2063616c6c6572206973206e6f7420746865206f776e657281525060200191505060405180910390fd5b80600260006101000a81548160ff02191690831515021790555050565b60035481565b6201518081565b61068f6108e4565b610701576040517f08c379a00000000000000000000000000000000000000000000000000000000081526004018080602001828103825260208152602001807f4f776e61626c653a2063616c6c6572206973206e6f7420746865206f776e657281525060200191505060405180910390fd5b426003819055503073ffffffffffffffffffffffffffffffffffffffff167f7859d7508c92f7dda588d1f7a42707733bd7161b3a024021d6631d2d729caff061075862015180600354610d6d90919063ffffffff16565b6040518082815260200191505060405180910390a2565b600260009054906101000a900460ff1681565b61078a6108e4565b6107fc576040517f08c379a00000000000000000000000000000000000000000000000000000000081526004018080602001828103825260208152602001807f4f776e61626c653a2063616c6c6572206973206e6f7420746865206f776e657281525060200191505060405180910390fd5b600073ffffffffffffffffffffffffffffffffffffffff166000809054906101000a900473ffffffffffffffffffffffffffffffffffffffff1673ffffffffffffffffffffffffffffffffffffffff167f8be0079c531659141344cd1fd0a4f28419497f9722a3daafe3b4186f6b6457e060405160405180910390a360008060006101000a81548173ffffffffffffffffffffffffffffffffffffffff021916908373ffffffffffffffffffffffffffffffffffffffff160217905550565b60008060009054906101000a900473ffffffffffffffffffffffffffffffffffffffff16905090565b60008060009054906101000a900473ffffffffffffffffffffffffffffffffffffffff1673ffffffffffffffffffffffffffffffffffffffff16610926610df5565b73ffffffffffffffffffffffffffffffffffffffff1614905090565b600260019054906101000a900473ffffffffffffffffffffffffffffffffffffffff1673ffffffffffffffffffffffffffffffffffffffff163373ffffffffffffffffffffffffffffffffffffffff1614610a05576040517f08c379a000000000000000000000000000000000000000000000000000000000815260040180806020018281038252601d8152602001807f4d7573742063616c6c2066726f6d20726577617264206d616e6167657200000081525060200191505060405180910390fd5b610a10838383610dfd565b505050565b610a1d6108e4565b610a8f576040517f08c379a00000000000000000000000000000000000000000000000000000000081526004018080602001828103825260208152602001807f4f776e61626c653a2063616c6c6572206973206e6f7420746865206f776e657281525060200191505060405180910390fd5b60006003541415610b08576040517f08c379a00000000000000000000000000000000000000000000000000000000081526004018080602001828103825260158152602001807f436f6f6c2d646f776e206e6f742073746172746564000000000000000000000081525060200191505060405180910390fd5b610b2062015180600354610d6d90919063ffffffff16565b4211610b94576040517f08c379a00000000000000000000000000000000000000000000000000000000081526004018080602001828103825260168152602001807f496e73756666696369656e7420636f6f6c2d646f776e0000000000000000000081525060200191505060405180910390fd5b62015180610bc2610bb362015180600354610d6d90919063ffffffff16565b42610fc790919063ffffffff16565b1115610c19576040517f08c379a00000000000000000000000000000000000000000000000000000000081526004018080602001828103825260228152602001806115746022913960400191505060405180910390fd5b610c24838383610dfd565b3073ffffffffffffffffffffffffffffffffffffffff167fd7bb5d08028d8b0dbe9077422c469fdf90de9f2031beb19a8e04a271bd4273af84838542604051808573ffffffffffffffffffffffffffffffffffffffff1673ffffffffffffffffffffffffffffffffffffffff1681526020018481526020018373ffffffffffffffffffffffffffffffffffffffff1673ffffffffffffffffffffffffffffffffffffffff16815260200182815260200194505050505060405180910390a2505050565b610cef6108e4565b610d61576040517f08c379a00000000000000000000000000000000000000000000000000000000081526004018080602001828103825260208152602001807f4f776e61626c653a2063616c6c6572206973206e6f7420746865206f776e657281525060200191505060405180910390fd5b610d6a81611011565b50565b600080828401905083811015610deb576040517f08c379a000000000000000000000000000000000000000000000000000000000815260040180806020018281038252601b8152602001807f536166654d6174683a206164646974696f6e206f766572666c6f77000000000081525060200191505060405180910390fd5b8091505092915050565b600033905090565b6001806000828254019250508190555060006001549050600260009054906101000a900460ff1615610e97576040517f08c379a00000000000000000000000000000000000000000000000000000000081526004018080602001828103825260128152602001807f4d757374206e6f7420626520706175736564000000000000000000000000000081525060200191505060405180910390fd5b8373ffffffffffffffffffffffffffffffffffffffff16610eb6611155565b73ffffffffffffffffffffffffffffffffffffffff161415610f1e578273ffffffffffffffffffffffffffffffffffffffff166108fc839081150290604051600060405180830381858888f19350505050158015610f18573d6000803e3d6000fd5b50610f4a565b610f4983838673ffffffffffffffffffffffffffffffffffffffff166111719092919063ffffffff16565b5b6001548114610fc1576040517f08c379a000000000000000000000000000000000000000000000000000000000815260040180806020018281038252601f8152602001807f5265656e7472616e637947756172643a207265656e7472616e742063616c6c0081525060200191505060405180910390fd5b50505050565b600061100983836040518060400160405280601e81526020017f536166654d6174683a207375627472616374696f6e206f766572666c6f770000815250611242565b905092915050565b600073ffffffffffffffffffffffffffffffffffffffff168173ffffffffffffffffffffffffffffffffffffffff161415611097576040517f08c379a000000000000000000000000000000000000000000000000000000000815260040180806020018281038252602681526020018061154e6026913960400191505060405180910390fd5b8073ffffffffffffffffffffffffffffffffffffffff166000809054906101000a900473ffffffffffffffffffffffffffffffffffffffff1673ffffffffffffffffffffffffffffffffffffffff167f8be0079c531659141344cd1fd0a4f28419497f9722a3daafe3b4186f6b6457e060405160405180910390a3806000806101000a81548173ffffffffffffffffffffffffffffffffffffffff021916908373ffffffffffffffffffffffffffffffffffffffff16021790555050565b600073eeeeeeeeeeeeeeeeeeeeeeeeeeeeeeeeeeeeeeee905090565b61123d838473ffffffffffffffffffffffffffffffffffffffff1663a9059cbb905060e01b8484604051602401808373ffffffffffffffffffffffffffffffffffffffff1673ffffffffffffffffffffffffffffffffffffffff16815260200182815260200192505050604051602081830303815290604052907bffffffffffffffffffffffffffffffffffffffffffffffffffffffff19166020820180517bffffffffffffffffffffffffffffffffffffffffffffffffffffffff8381831617835250505050611302565b505050565b60008383111582906112ef576040517f08c379a00000000000000000000000000000000000000000000000000000000081526004018080602001828103825283818151815260200191508051906020019080838360005b838110156112b4578082015181840152602081019050611299565b50505050905090810190601f1680156112e15780820380516001836020036101000a031916815260200191505b509250505060405180910390fd5b5060008385039050809150509392505050565b6113218273ffffffffffffffffffffffffffffffffffffffff166104ad565b611393576040517f08c379a000000000000000000000000000000000000000000000000000000000815260040180806020018281038252601f8152602001807f5361666545524332303a2063616c6c20746f206e6f6e2d636f6e74726163740081525060200191505060405180910390fd5b600060608373ffffffffffffffffffffffffffffffffffffffff16836040518082805190602001908083835b602083106113e257805182526020820191506020810190506020830392506113bf565b6001836020036101000a0380198251168184511680821785525050505050509050019150506000604051808303816000865af19150503d8060008114611444576040519150601f19603f3d011682016040523d82523d6000602084013e611449565b606091505b5091509150816114c1576040517f08c379a00000000000000000000000000000000000000000000000000000000081526004018080602001828103825260208152602001807f5361666545524332303a206c6f772d6c6576656c2063616c6c206661696c656481525060200191505060405180910390fd5b600081511115611547578080602001905160208110156114e057600080fd5b8101908080519060200190929190505050611546576040517f08c379a000000000000000000000000000000000000000000000000000000000815260040180806020018281038252602a8152602001806115bd602a913960400191505060405180910390fd5b5b5050505056fe4f776e61626c653a206e6577206f776e657220697320746865207a65726f2061646472657373456d657267656e6379207769746864726177616c2077696e646f7720636c6f73656452656a656374206163636964656e74616c20424e42207472616e736665722066726f6d20454f415361666545524332303a204552433230206f7065726174696f6e20646964206e6f742073756363656564a265627a7a72315820a6ff43bc534ae88dbf802167e596233c5effb47084b04aa71b1f8314dbcf0a0464736f6c63430005100032",
  "source": "pragma solidity ^0.5.0;\n\nimport \"openzeppelin-solidity/contracts/utils/ReentrancyGuard.sol\";\nimport \"openzeppelin-solidity/contracts/ownership/Ownable.sol\";\nimport \"openzeppelin-solidity/contracts/token/ERC20/ERC20.sol\";\nimport \"openzeppelin-solidity/contracts/token/ERC20/SafeERC20.sol\";\nimport \"openzeppelin-solidity/contracts/math/SafeMath.sol\";\nimport \"openzeppelin-solidity/contracts/utils/Address.sol\";\nimport \"../libraries/BscAddressLib.sol\";\nimport \"../interfaces/IRewardVault.sol\";\n\ncontract RewardVault is IRewardVault, Ownable, ReentrancyGuard {\n    using SafeMath for uint256;\n    using SafeERC20 for ERC20;\n    \n    bool    public paused;\n    address public rewardManager;\n    uint256 public coolDownStart;\n    uint256 public constant EMERGENCY_COOLDOWN_PERIOD = 1 days;\n    uint256 public constant EMERGENCY_WITHDRAW_WINDOW_PERIOD = 1 days;\n\n    /**\n     * @dev event for the activation of cool-down for emergency withdraw\n     * @param _vaultAddress the address of the vault activated\n     * @param _timestampWithdrawable the timestamp where the emergency withdrawal will be enabled\n     **/\n    event EmergencyWithdrawlCooldown(\n        address indexed _vaultAddress,\n        uint256 _timestampWithdrawable\n    );\n\n    /**\n     * @dev event for the execution of emergency withdraw\n     * @param _vaultAddress the address of the vault\n     * @param _reserve the address of the withdrawn asset\n     * @param _amount the amount of asset withdrawed\n     * @param _destination the destination of the withdrawal\n     * @param _timestamp the timestamp where the emergency withdrawal is executed\n     **/\n    event EmergencyWithdrawlExecuted(\n        address indexed _vaultAddress,\n        address _reserve,\n        uint256 _amount,\n        address _destination,\n        uint256 _timestamp\n    );\n/*\n    constructor(address _rewardManager) public {\n        rewardManager = _rewardManager;\n    }\n*/\n    /// @notice In order to receive BNB transfers\n    function() external payable {\n        // Ensure the sender is a contract\n        require(Address.isContract(msg.sender), \"Reject accidental BNB transfer from EOA\");\n    }\n\n    /**\n     * @dev only Reward Manager can use functions affected by this modifier\n     **/\n    modifier onlyRewardManager() {\n        require(msg.sender == rewardManager, \"Must call from reward manager\");\n        _;\n    }\n\n    /**\n     * @dev only when Not Paused, then this functions can be called.\n     **/\n    modifier onlyNotPaused() {\n        require(!paused, \"Must not be paused\");\n        _;\n    }\n\n    /**\n     * @dev This function will set the Reward Manager.\n     * @param _rewardManager - The reward manager to set.\n     * Access Control: Owner Only.\n     */\n    function setRewardManager(address _rewardManager) external onlyOwner {\n        rewardManager = _rewardManager;\n    }\n\n    /**\n     * @dev This function will allow the Reward Manager to withdraw a token.\n     * @param _token - The token to withdraw.\n     * @param _to - The payee's address.\n     * @param _amount - The amount to pay.\n     * Access Control: Reward Manager Only.\n     */\n    function withdraw(\n        address _token,\n        address payable _to,\n        uint256 _amount\n    ) external onlyRewardManager {\n        withdrawInternal(_token, _to, _amount);\n    }\n\n    /**\n     * @dev This function will withdraw a token.\n     * @param _token - The token to withdraw.\n     * @param _to - The payee's address.\n     * @param _amount - The amount to pay.\n     * Access Control: Not Paused Only.\n     */\n    function withdrawInternal(\n        address _token,\n        address payable _to,\n        uint256 _amount\n    ) internal nonReentrant onlyNotPaused {\n        if (BscAddressLib.bnbAddress() == _token) {\n            _to.transfer(_amount);\n        } else {\n            ERC20(_token).safeTransfer(_to, _amount);\n        }\n    }\n\n    /**\n     * @dev This function will set emergency Pause.\n     * @param _pause - Set Pause, Unpause.\n     * Access Control: Only Owner\n     */\n    function setPaused(bool _pause) external onlyOwner {\n        paused = _pause;\n    }\n\n\n    /**\n     * @dev This function will activate the cool-down period for emergency withdrawal.\n     * Access Control: Only Owner\n     */\n    function activateEmergencyCooldown() external onlyOwner {\n        coolDownStart = block.timestamp;\n        emit EmergencyWithdrawlCooldown(address(this), coolDownStart.add(EMERGENCY_COOLDOWN_PERIOD));\n    }\n\n    /**\n     * @dev This function will allow admin owner to withdraw in case of emergency. The admin owner is a multi-Signature address.\n     * @param _token - The token to withdraw.\n     * @param _to - The payee's address.\n     * @param _amount - The amount to pay.\n     * Access Control: Only Owner\n     */\n    function emergencyWithdraw(\n        address _token,\n        address payable _to,\n        uint256 _amount\n    ) external onlyOwner {\n\n        require(\n            coolDownStart != 0, \n            \"Cool-down not started\"\n        );\n        require(\n            block.timestamp > coolDownStart.add(EMERGENCY_COOLDOWN_PERIOD),\n            \"Insufficient cool-down\"\n        );\n        require(\n            block.timestamp.sub(coolDownStart.add(EMERGENCY_COOLDOWN_PERIOD)) <=\n                EMERGENCY_WITHDRAW_WINDOW_PERIOD,\n            \"Emergency withdrawal window closed\"\n        );\n        \n        withdrawInternal(_token, _to, _amount);\n        emit EmergencyWithdrawlExecuted(address(this), _token, _amount, _to, block.timestamp);\n    }\n}",
  "sourcePath": "/Users/dev/Documents/Project/MCLendNew/MCL-SmartContracts/lending/contracts/vaults/RewardVault.sol",
  "compiler": {
    "name": "solc",
    "version": "0.5.16+commit.9c3226ce.Emscripten.clang"
  },
  "schemaVersion": "3.2.3",
  "updatedAt": "2021-02-19T07:32:48.815Z",
  "devdoc": {
    "methods": {
      "activateEmergencyCooldown()": {
        "details": "This function will activate the cool-down period for emergency withdrawal. Access Control: Only Owner"
      },
      "emergencyWithdraw(address,address,uint256)": {
        "details": "This function will allow admin owner to withdraw in case of emergency. The admin owner is a multi-Signature address.",
        "params": {
          "_amount": "- The amount to pay. Access Control: Only Owner",
          "_to": "- The payee's address.",
          "_token": "- The token to withdraw."
        }
      },
      "isOwner()": {
        "details": "Returns true if the caller is the current owner."
      },
      "owner()": {
        "details": "Returns the address of the current owner."
      },
      "renounceOwnership()": {
        "details": "Leaves the contract without owner. It will not be possible to call `onlyOwner` functions anymore. Can only be called by the current owner.     * NOTE: Renouncing ownership will leave the contract without an owner, thereby removing any functionality that is only available to the owner."
      },
      "setPaused(bool)": {
        "details": "This function will set emergency Pause.",
        "params": {
          "_pause": "- Set Pause, Unpause. Access Control: Only Owner"
        }
      },
      "setRewardManager(address)": {
        "details": "This function will set the Reward Manager.",
        "params": {
          "_rewardManager": "- The reward manager to set. Access Control: Owner Only."
        }
      },
      "transferOwnership(address)": {
        "details": "Transfers ownership of the contract to a new account (`newOwner`). Can only be called by the current owner."
      },
      "withdraw(address,address,uint256)": {
        "details": "This function will allow the Reward Manager to withdraw a token.",
        "params": {
          "_amount": "- The amount to pay. Access Control: Reward Manager Only.",
          "_to": "- The payee's address.",
          "_token": "- The token to withdraw."
        }
      }
    }
  },
  "userdoc": {
    "methods": {}
  }
}