{
  "contractName": "UintStorage",
  "abi": [
    {
      "constant": true,
      "inputs": [
        {
          "internalType": "bytes32",
          "name": "_key",
          "type": "bytes32"
        }
      ],
      "name": "getUint",
      "outputs": [
        {
          "internalType": "uint256",
          "name": "",
          "type": "uint256"
        }
      ],
      "payable": false,
      "stateMutability": "view",
      "type": "function"
    }
  ],
  "bytecode": "0x6080604052348015600f57600080fd5b5060bd8061001e6000396000f3fe6080604052348015600f57600080fd5b506004361060285760003560e01c8063bd02d0f514602d575b600080fd5b605660048036036020811015604157600080fd5b8101908080359060200190929190505050606c565b6040518082815260200191505060405180910390f35b600080600083815260200190815260200160002054905091905056fea265627a7a723158205f436f0c989bd28e14671d1086b2fa543b4102d911eac5cece9c48976c84435164736f6c63430005100032",
  "source": "pragma solidity ^0.5.0;\r\n\r\ncontract UintStorage {\r\n    mapping(bytes32 => uint256) private uints;\r\n\r\n    /**\r\n     * @dev function to return the uint associated with a given key value\r\n     * @param _key the key value to be examined\r\n     **/\r\n    function getUint(bytes32 _key) public view returns (uint256) {\r\n        return uints[_key];\r\n    }\r\n\r\n    /**\r\n     * @dev function to set a key value with a provided key and value argument\r\n     * @param _key The key to be set\r\n     * @param _value The value to be set\r\n     **/\r\n    function _setUint(bytes32 _key, uint256 _value) internal {\r\n        uints[_key] = _value;\r\n    }\r\n}\r\n",
  "sourcePath": "/Users/dev/Documents/Project/MCLendNew/MCL-SmartContracts/lending/contracts/configuration/UintStorage.sol",
  "compiler": {
    "name": "solc",
    "version": "0.5.16+commit.9c3226ce.Emscripten.clang"
  },
  "schemaVersion": "3.2.3",
  "updatedAt": "2021-01-15T04:28:32.379Z",
  "devdoc": {
    "methods": {
      "getUint(bytes32)": {
        "details": "function to return the uint associated with a given key value",
        "params": {
          "_key": "the key value to be examined*"
        }
      }
    }
  },
  "userdoc": {
    "methods": {}
  }
}