{
  "_format": "hh-sol-artifact-1",
  "contractName": "LendingPoolMock",
  "sourceName": "contracts/mocks/LendingPoolMock.sol",
  "abi": [
    {
      "inputs": [
        {
          "internalType": "address",
          "name": "_user",
          "type": "address"
        }
      ],
      "name": "updateGovernanceStakingRewards",
      "outputs": [],
      "stateMutability": "nonpayable",
      "type": "function"
    }
  ],
  "bytecode": "0x6080604052348015600f57600080fd5b50608b8061001e6000396000f3fe6080604052348015600f57600080fd5b506004361060285760003560e01c80632d24f6c714602d575b600080fd5b605060048036036020811015604157600080fd5b50356001600160a01b03166052565b005b5056fea26469706673582212208515798f54767ee39d7e90f6578d9f87451bb02dbd2924fea9d058a16d6115ba64736f6c634300060c0033",
  "linkReferences": {},
  "deployedLinkReferences": {}
}