{
  "contractName": "MxxConverterRedemption",
  "abi": [
    {
      "inputs": [
        {
          "internalType": "address",
          "name": "_bMxxAdress",
          "type": "address"
        }
      ],
      "payable": false,
      "stateMutability": "nonpayable",
      "type": "constructor"
    },
    {
      "anonymous": false,
      "inputs": [
        {
          "indexed": true,
          "internalType": "address",
          "name": "previousOwner",
          "type": "address"
        },
        {
          "indexed": true,
          "internalType": "address",
          "name": "newOwner",
          "type": "address"
        }
      ],
      "name": "OwnershipTransferred",
      "type": "event"
    },
    {
      "anonymous": false,
      "inputs": [
        {
          "indexed": false,
          "internalType": "uint256",
          "name": "index",
          "type": "uint256"
        },
        {
          "indexed": false,
          "internalType": "address",
          "name": "from",
          "type": "address"
        },
        {
          "indexed": false,
          "internalType": "address",
          "name": "to",
          "type": "address"
        },
        {
          "indexed": false,
          "internalType": "uint256",
          "name": "amtbMxx",
          "type": "uint256"
        }
      ],
      "name": "RedeemedSuccess",
      "type": "event"
    },
    {
      "constant": true,
      "inputs": [],
      "name": "CONVERT_RATE",
      "outputs": [
        {
          "internalType": "uint256",
          "name": "",
          "type": "uint256"
        }
      ],
      "payable": false,
      "stateMutability": "view",
      "type": "function"
    },
    {
      "constant": true,
      "inputs": [
        {
          "internalType": "uint256",
          "name": "",
          "type": "uint256"
        }
      ],
      "name": "allRedemptions",
      "outputs": [
        {
          "internalType": "uint256",
          "name": "amtMxx",
          "type": "uint256"
        },
        {
          "internalType": "uint256",
          "name": "amtbMxx",
          "type": "uint256"
        },
        {
          "internalType": "address",
          "name": "fromAddress",
          "type": "address"
        },
        {
          "internalType": "address",
          "name": "toAddress",
          "type": "address"
        },
        {
          "internalType": "uint48",
          "name": "time",
          "type": "uint48"
        },
        {
          "internalType": "enum MxxConverterRedemption.Status",
          "name": "status",
          "type": "uint8"
        }
      ],
      "payable": false,
      "stateMutability": "view",
      "type": "function"
    },
    {
      "constant": true,
      "inputs": [],
      "name": "availablebMxxAmt",
      "outputs": [
        {
          "internalType": "uint256",
          "name": "",
          "type": "uint256"
        }
      ],
      "payable": false,
      "stateMutability": "view",
      "type": "function"
    },
    {
      "constant": true,
      "inputs": [],
      "name": "bMxxTokenAddress",
      "outputs": [
        {
          "internalType": "address",
          "name": "",
          "type": "address"
        }
      ],
      "payable": false,
      "stateMutability": "view",
      "type": "function"
    },
    {
      "constant": true,
      "inputs": [],
      "name": "count",
      "outputs": [
        {
          "internalType": "uint256",
          "name": "",
          "type": "uint256"
        }
      ],
      "payable": false,
      "stateMutability": "view",
      "type": "function"
    },
    {
      "constant": true,
      "inputs": [],
      "name": "isOwner",
      "outputs": [
        {
          "internalType": "bool",
          "name": "",
          "type": "bool"
        }
      ],
      "payable": false,
      "stateMutability": "view",
      "type": "function"
    },
    {
      "constant": true,
      "inputs": [],
      "name": "owner",
      "outputs": [
        {
          "internalType": "address",
          "name": "",
          "type": "address"
        }
      ],
      "payable": false,
      "stateMutability": "view",
      "type": "function"
    },
    {
      "constant": false,
      "inputs": [],
      "name": "renounceOwnership",
      "outputs": [],
      "payable": false,
      "stateMutability": "nonpayable",
      "type": "function"
    },
    {
      "constant": false,
      "inputs": [
        {
          "internalType": "address",
          "name": "newOwner",
          "type": "address"
        }
      ],
      "name": "transferOwnership",
      "outputs": [],
      "payable": false,
      "stateMutability": "nonpayable",
      "type": "function"
    },
    {
      "constant": false,
      "inputs": [
        {
          "internalType": "uint256",
          "name": "_id",
          "type": "uint256"
        },
        {
          "internalType": "address",
          "name": "_fromAddress",
          "type": "address"
        },
        {
          "internalType": "address",
          "name": "_toBscAddress",
          "type": "address"
        },
        {
          "internalType": "uint256",
          "name": "_mxxAmt",
          "type": "uint256"
        },
        {
          "internalType": "uint256",
          "name": "_feePcnt",
          "type": "uint256"
        }
      ],
      "name": "redeem",
      "outputs": [],
      "payable": true,
      "stateMutability": "payable",
      "type": "function"
    }
  ],
  "bytecode": "0x608060405234801561001057600080fd5b506040516114423803806114428339818101604052602081101561003357600080fd5b810190808051906020019092919050505061005261016d60201b60201c565b6000806101000a81548173ffffffffffffffffffffffffffffffffffffffff021916908373ffffffffffffffffffffffffffffffffffffffff1602179055506000809054906101000a900473ffffffffffffffffffffffffffffffffffffffff1673ffffffffffffffffffffffffffffffffffffffff16600073ffffffffffffffffffffffffffffffffffffffff167f8be0079c531659141344cd1fd0a4f28419497f9722a3daafe3b4186f6b6457e060405160405180910390a3600180819055506a036ecbf36705a6f5c0000060028190555080600560006101000a81548173ffffffffffffffffffffffffffffffffffffffff021916908373ffffffffffffffffffffffffffffffffffffffff16021790555050610175565b600033905090565b6112be806101846000396000f3fe6080604052600436106100915760003560e01c8063715018a611610059578063715018a6146101f05780638da5cb5b146102075780638f32d59b1461025e578063f0f0eda11461028d578063f2fde38b1461037557610091565b806306661abd146100965780630864287d146100c15780632a358918146100ec5780633d17d05f1461016e5780634036337d14610199575b600080fd5b3480156100a257600080fd5b506100ab6103c6565b6040518082815260200191505060405180910390f35b3480156100cd57600080fd5b506100d66103cc565b6040518082815260200191505060405180910390f35b61016c600480360360a081101561010257600080fd5b8101908080359060200190929190803573ffffffffffffffffffffffffffffffffffffffff169060200190929190803573ffffffffffffffffffffffffffffffffffffffff16906020019092919080359060200190929190803590602001909291905050506103d2565b005b34801561017a57600080fd5b50610183610b5a565b6040518082815260200191505060405180910390f35b3480156101a557600080fd5b506101ae610b62565b604051808273ffffffffffffffffffffffffffffffffffffffff1673ffffffffffffffffffffffffffffffffffffffff16815260200191505060405180910390f35b3480156101fc57600080fd5b50610205610b88565b005b34801561021357600080fd5b5061021c610cc1565b604051808273ffffffffffffffffffffffffffffffffffffffff1673ffffffffffffffffffffffffffffffffffffffff16815260200191505060405180910390f35b34801561026a57600080fd5b50610273610cea565b604051808215151515815260200191505060405180910390f35b34801561029957600080fd5b506102c6600480360360208110156102b057600080fd5b8101908080359060200190929190505050610d48565b604051808781526020018681526020018573ffffffffffffffffffffffffffffffffffffffff1673ffffffffffffffffffffffffffffffffffffffff1681526020018473ffffffffffffffffffffffffffffffffffffffff1673ffffffffffffffffffffffffffffffffffffffff1681526020018365ffffffffffff1665ffffffffffff16815260200182600281111561035c57fe5b60ff168152602001965050505050505060405180910390f35b34801561038157600080fd5b506103c46004803603602081101561039857600080fd5b81019080803573ffffffffffffffffffffffffffffffffffffffff169060200190929190505050610de3565b005b60035481565b60025481565b60018060008282540192505081905550600060015490506103f1610cea565b610463576040517f08c379a00000000000000000000000000000000000000000000000000000000081526004018080602001828103825260208152602001807f4f776e61626c653a2063616c6c6572206973206e6f7420746865206f776e657281525060200191505060405180910390fd5b61046b6111cd565b600460008881526020019081526020016000206040518060c001604052908160008201548152602001600182015481526020016002820160009054906101000a900473ffffffffffffffffffffffffffffffffffffffff1673ffffffffffffffffffffffffffffffffffffffff1673ffffffffffffffffffffffffffffffffffffffff1681526020016003820160009054906101000a900473ffffffffffffffffffffffffffffffffffffffff1673ffffffffffffffffffffffffffffffffffffffff1673ffffffffffffffffffffffffffffffffffffffff1681526020016003820160149054906101000a900465ffffffffffff1665ffffffffffff1665ffffffffffff16815260200160038201601a9054906101000a900460ff16600281111561059357fe5b600281111561059e57fe5b815250509050600060028111156105b157fe5b8160a0015160028111156105c157fe5b14610634576040517f08c379a000000000000000000000000000000000000000000000000000000000815260040180806020018281038252600d8152602001807f416c72656164792065786973740000000000000000000000000000000000000081525060200191505060405180910390fd5b600034146106aa576040517f08c379a00000000000000000000000000000000000000000000000000000000081526004018080602001828103825260128152602001807f57726f6e672066756e642069732073656e74000000000000000000000000000081525060200191505060405180910390fd5b6000841415610721576040517f08c379a00000000000000000000000000000000000000000000000000000000081526004018080602001828103825260128152602001807f416d6f756e742063616e6e6f742062652030000000000000000000000000000081525060200191505060405180910390fd5b600061073a6305f5e10086610e6990919063ffffffff16565b90506002548111156107b4576040517f08c379a000000000000000000000000000000000000000000000000000000000815260040180806020018281038252600f8152602001807f416d6f756e74206578636565646564000000000000000000000000000000000081525060200191505060405180910390fd5b6000600560009054906101000a900473ffffffffffffffffffffffffffffffffffffffff1690508073ffffffffffffffffffffffffffffffffffffffff16635b5863138389886040518463ffffffff1660e01b8152600401808481526020018373ffffffffffffffffffffffffffffffffffffffff1673ffffffffffffffffffffffffffffffffffffffff1681526020018281526020019350505050600060405180830381600087803b15801561086a57600080fd5b505af115801561087e573d6000803e3d6000fd5b505050506040518060c001604052808781526020018381526020018973ffffffffffffffffffffffffffffffffffffffff1681526020018873ffffffffffffffffffffffffffffffffffffffff1681526020014265ffffffffffff1681526020016002808111156108eb57fe5b815250600460008b8152602001908152602001600020600082015181600001556020820151816001015560408201518160020160006101000a81548173ffffffffffffffffffffffffffffffffffffffff021916908373ffffffffffffffffffffffffffffffffffffffff16021790555060608201518160030160006101000a81548173ffffffffffffffffffffffffffffffffffffffff021916908373ffffffffffffffffffffffffffffffffffffffff16021790555060808201518160030160146101000a81548165ffffffffffff021916908365ffffffffffff16021790555060a082015181600301601a6101000a81548160ff021916908360028111156109f257fe5b02179055509050507f1241d201ced1cbc106389cfc8a751500ce5f45f8aae60e4a5c9d9bf37cd6b05989898985604051808581526020018473ffffffffffffffffffffffffffffffffffffffff1673ffffffffffffffffffffffffffffffffffffffff1681526020018373ffffffffffffffffffffffffffffffffffffffff1673ffffffffffffffffffffffffffffffffffffffff16815260200182815260200194505050505060405180910390a1610ab76001600354610eef90919063ffffffff16565b600381905550610ad282600254610f7790919063ffffffff16565b6002819055505050506001548114610b52576040517f08c379a000000000000000000000000000000000000000000000000000000000815260040180806020018281038252601f8152602001807f5265656e7472616e637947756172643a207265656e7472616e742063616c6c0081525060200191505060405180910390fd5b505050505050565b6305f5e10081565b600560009054906101000a900473ffffffffffffffffffffffffffffffffffffffff1681565b610b90610cea565b610c02576040517f08c379a00000000000000000000000000000000000000000000000000000000081526004018080602001828103825260208152602001807f4f776e61626c653a2063616c6c6572206973206e6f7420746865206f776e657281525060200191505060405180910390fd5b600073ffffffffffffffffffffffffffffffffffffffff166000809054906101000a900473ffffffffffffffffffffffffffffffffffffffff1673ffffffffffffffffffffffffffffffffffffffff167f8be0079c531659141344cd1fd0a4f28419497f9722a3daafe3b4186f6b6457e060405160405180910390a360008060006101000a81548173ffffffffffffffffffffffffffffffffffffffff021916908373ffffffffffffffffffffffffffffffffffffffff160217905550565b60008060009054906101000a900473ffffffffffffffffffffffffffffffffffffffff16905090565b60008060009054906101000a900473ffffffffffffffffffffffffffffffffffffffff1673ffffffffffffffffffffffffffffffffffffffff16610d2c610fc1565b73ffffffffffffffffffffffffffffffffffffffff1614905090565b60046020528060005260406000206000915090508060000154908060010154908060020160009054906101000a900473ffffffffffffffffffffffffffffffffffffffff16908060030160009054906101000a900473ffffffffffffffffffffffffffffffffffffffff16908060030160149054906101000a900465ffffffffffff169080600301601a9054906101000a900460ff16905086565b610deb610cea565b610e5d576040517f08c379a00000000000000000000000000000000000000000000000000000000081526004018080602001828103825260208152602001807f4f776e61626c653a2063616c6c6572206973206e6f7420746865206f776e657281525060200191505060405180910390fd5b610e6681610fc9565b50565b600080831415610e7c5760009050610ee9565b6000828402905082848281610e8d57fe5b0414610ee4576040517f08c379a00000000000000000000000000000000000000000000000000000000081526004018080602001828103825260218152602001806112696021913960400191505060405180910390fd5b809150505b92915050565b600080828401905083811015610f6d576040517f08c379a000000000000000000000000000000000000000000000000000000000815260040180806020018281038252601b8152602001807f536166654d6174683a206164646974696f6e206f766572666c6f77000000000081525060200191505060405180910390fd5b8091505092915050565b6000610fb983836040518060400160405280601e81526020017f536166654d6174683a207375627472616374696f6e206f766572666c6f77000081525061110d565b905092915050565b600033905090565b600073ffffffffffffffffffffffffffffffffffffffff168173ffffffffffffffffffffffffffffffffffffffff16141561104f576040517f08c379a00000000000000000000000000000000000000000000000000000000081526004018080602001828103825260268152602001806112436026913960400191505060405180910390fd5b8073ffffffffffffffffffffffffffffffffffffffff166000809054906101000a900473ffffffffffffffffffffffffffffffffffffffff1673ffffffffffffffffffffffffffffffffffffffff167f8be0079c531659141344cd1fd0a4f28419497f9722a3daafe3b4186f6b6457e060405160405180910390a3806000806101000a81548173ffffffffffffffffffffffffffffffffffffffff021916908373ffffffffffffffffffffffffffffffffffffffff16021790555050565b60008383111582906111ba576040517f08c379a00000000000000000000000000000000000000000000000000000000081526004018080602001828103825283818151815260200191508051906020019080838360005b8381101561117f578082015181840152602081019050611164565b50505050905090810190601f1680156111ac5780820380516001836020036101000a031916815260200191505b509250505060405180910390fd5b5060008385039050809150509392505050565b6040518060c001604052806000815260200160008152602001600073ffffffffffffffffffffffffffffffffffffffff168152602001600073ffffffffffffffffffffffffffffffffffffffff168152602001600065ffffffffffff1681526020016000600281111561123c57fe5b8152509056fe4f776e61626c653a206e6577206f776e657220697320746865207a65726f2061646472657373536166654d6174683a206d756c7469706c69636174696f6e206f766572666c6f77a265627a7a72315820858f7a35a8c6182ef09d8014dba4661d443dc2651d5e713cb507b26b542bb5b764736f6c63430005100032",
  "source": "// This program is free software: you can redistribute it and/or modify\n// it under the terms of the GNU General Public License as published by\n// the Free Software Foundation, either version 3 of the License, or\n// (at your option) any later version.\n\n// This program is distributed in the hope that it will be useful,\n// but WITHOUT ANY WARRANTY; without even the implied warranty of\n// MERCHANTABILITY or FITNESS FOR A PARTICULAR PURPOSE.  See the\n// GNU General Public License for more details.\n\n// You should have received a copy of the GNU General Public License\n// along with this program.  If not, see <http://www.gnu.org/licenses/>.\n\npragma solidity ^0.5.0;\n\n// Importing libraries\nimport \"openzeppelin-solidity/contracts/ownership/Ownable.sol\";\nimport \"openzeppelin-solidity/contracts/utils/ReentrancyGuard.sol\";\nimport \"openzeppelin-solidity/contracts/math/SafeMath.sol\";\nimport \"./bMxx.sol\";\n\n/**\n * @title Mxx Converter Redemption Contract\n * @notice Contract to allow server (owner) to mint bMxx on the BSC chain.\n */\n\ncontract MxxConverterRedemption is Ownable, ReentrancyGuard {\n    // Using SafeMath Library to prevent integer overflow\n    using SafeMath for uint256;\n\n    /**\n     * @dev - A enum to store the status of each cobversion\n     */\n    enum Status {Invalid, New, Completed}\n\n    /**\n     * @dev - A struct to store each redemption details\n     * @notice idFromEth - The same id from ETH chain, just for cross-referencing\n     * @notice amtMxx - The amount of Mxx to be converted\n     * @notice amtbMxx - The amount of bMxx to be received\n     * @notice fromAddress - user's ETH chain address\n     * @notice toAddress - user's BSC chain address\n     * @notice time - End time of the redemption\n     */\n    struct RedeemRecord {\n        uint256 amtMxx;\n        uint256 amtbMxx;\n        address fromAddress;\n        address toAddress;\n        uint48 time;\n        Status status;\n    }\n\n    /**\n     * @dev - Events\n     */\n    event RedeemedSuccess(\n        uint256 index,\n        address from,\n        address to,\n        uint256 amtbMxx\n    );\n\n    /**\n     * @dev - Constant variable to store conversion ratio\n     */\n    uint256 public constant CONVERT_RATE = 1e8; // 1e18 div by (1e8 * 100)\n\n    /**\n     * @dev - The grand total number of Mxx that can be converted to BSC.\n     */\n    uint256 internal constant MAX_AVAIL_BMXX_FOR_CONVERSION = 4_150_000e18;\n\n    uint256 public availablebMxxAmt;\n\n    uint256 public count;\n\n    mapping(uint256 => RedeemRecord) public allRedemptions;\n\n    address public bMxxTokenAddress;\n\n    constructor(address _bMxxAdress) public Ownable() {\n        availablebMxxAmt = MAX_AVAIL_BMXX_FOR_CONVERSION;\n        bMxxTokenAddress = _bMxxAdress;\n    }\n\n    function redeem(\n        uint256 _id,\n        address _fromAddress,\n        address _toBscAddress,\n        uint256 _mxxAmt,\n        uint256 _feePcnt\n    ) external payable nonReentrant() onlyOwner() {\n        RedeemRecord memory record = allRedemptions[_id];\n        require(record.status == Status.Invalid, \"Already exist\");\n\n        require(msg.value == 0, \"Wrong fund is sent\");\n\n        require(_mxxAmt != 0, \"Amount cannot be 0\");\n\n        uint256 bMxxAmt = _mxxAmt.mul(CONVERT_RATE);\n\n        require(bMxxAmt <= availablebMxxAmt, \"Amount exceeded\");\n\n        bMXX token = bMXX(bMxxTokenAddress);\n        token.redeemWithDeed(bMxxAmt, _toBscAddress, _feePcnt);\n\n        allRedemptions[_id] = RedeemRecord(\n            _mxxAmt,\n            bMxxAmt,\n            _fromAddress,\n            _toBscAddress,\n            uint48(now),\n            Status.Completed\n        );\n\n        emit RedeemedSuccess(_id, _fromAddress, _toBscAddress, bMxxAmt);\n\n        count = count.add(1);\n        availablebMxxAmt = availablebMxxAmt.sub(bMxxAmt);\n    }\n}\n",
  "sourcePath": "/Users/dev/Documents/Project/MCLendNew/MCL-SmartContracts/converter/bsc/contracts/MxxConverterRedemption.sol",
  "compiler": {
    "name": "solc",
    "version": "0.5.16+commit.9c3226ce.Emscripten.clang"
  },
  "schemaVersion": "3.2.3",
  "updatedAt": "2021-02-02T06:21:24.379Z",
  "devdoc": {
    "methods": {
      "isOwner()": {
        "details": "Returns true if the caller is the current owner."
      },
      "owner()": {
        "details": "Returns the address of the current owner."
      },
      "renounceOwnership()": {
        "details": "Leaves the contract without owner. It will not be possible to call `onlyOwner` functions anymore. Can only be called by the current owner.     * NOTE: Renouncing ownership will leave the contract without an owner, thereby removing any functionality that is only available to the owner."
      },
      "transferOwnership(address)": {
        "details": "Transfers ownership of the contract to a new account (`newOwner`). Can only be called by the current owner."
      }
    },
    "title": "Mxx Converter Redemption Contract"
  },
  "userdoc": {
    "methods": {},
    "notice": "Contract to allow server (owner) to mint bMxx on the BSC chain."
  }
}