{
  "contractName": "MxxConverter",
  "abi": [
    {
      "inputs": [
        {
          "internalType": "address",
          "name": "mxx",
          "type": "address"
        },
        {
          "internalType": "address",
          "name": "burnAddress",
          "type": "address"
        }
      ],
      "payable": false,
      "stateMutability": "nonpayable",
      "type": "constructor"
    },
    {
      "anonymous": false,
      "inputs": [
        {
          "indexed": false,
          "internalType": "uint256",
          "name": "id",
          "type": "uint256"
        }
      ],
      "name": "ConversionCompleted",
      "type": "event"
    },
    {
      "anonymous": false,
      "inputs": [
        {
          "indexed": false,
          "internalType": "uint256",
          "name": "id",
          "type": "uint256"
        }
      ],
      "name": "ConversionRefunded",
      "type": "event"
    },
    {
      "anonymous": false,
      "inputs": [
        {
          "indexed": false,
          "internalType": "uint256",
          "name": "index",
          "type": "uint256"
        },
        {
          "indexed": true,
          "internalType": "address",
          "name": "from",
          "type": "address"
        },
        {
          "indexed": true,
          "internalType": "address",
          "name": "to",
          "type": "address"
        },
        {
          "indexed": false,
          "internalType": "uint256",
          "name": "amount",
          "type": "uint256"
        },
        {
          "indexed": false,
          "internalType": "uint256",
          "name": "feePcnt",
          "type": "uint256"
        }
      ],
      "name": "NewConversion",
      "type": "event"
    },
    {
      "anonymous": false,
      "inputs": [
        {
          "indexed": true,
          "internalType": "address",
          "name": "previousOwner",
          "type": "address"
        },
        {
          "indexed": true,
          "internalType": "address",
          "name": "newOwner",
          "type": "address"
        }
      ],
      "name": "OwnershipTransferred",
      "type": "event"
    },
    {
      "constant": true,
      "inputs": [],
      "name": "BURN_ADDRESS",
      "outputs": [
        {
          "internalType": "address",
          "name": "",
          "type": "address"
        }
      ],
      "payable": false,
      "stateMutability": "view",
      "type": "function"
    },
    {
      "constant": true,
      "inputs": [],
      "name": "MXX_ADDRESS",
      "outputs": [
        {
          "internalType": "address",
          "name": "",
          "type": "address"
        }
      ],
      "payable": false,
      "stateMutability": "view",
      "type": "function"
    },
    {
      "constant": true,
      "inputs": [
        {
          "internalType": "uint256",
          "name": "",
          "type": "uint256"
        }
      ],
      "name": "allConversions",
      "outputs": [
        {
          "internalType": "uint256",
          "name": "amount",
          "type": "uint256"
        },
        {
          "internalType": "uint256",
          "name": "feePcnt",
          "type": "uint256"
        },
        {
          "internalType": "address",
          "name": "fromAddress",
          "type": "address"
        },
        {
          "internalType": "address",
          "name": "toAddress",
          "type": "address"
        },
        {
          "internalType": "uint48",
          "name": "startTime",
          "type": "uint48"
        },
        {
          "internalType": "uint48",
          "name": "endTime",
          "type": "uint48"
        },
        {
          "internalType": "enum MxxConverter.Status",
          "name": "status",
          "type": "uint8"
        }
      ],
      "payable": false,
      "stateMutability": "view",
      "type": "function"
    },
    {
      "constant": true,
      "inputs": [],
      "name": "availableMxxAmt",
      "outputs": [
        {
          "internalType": "uint256",
          "name": "",
          "type": "uint256"
        }
      ],
      "payable": false,
      "stateMutability": "view",
      "type": "function"
    },
    {
      "constant": true,
      "inputs": [],
      "name": "feePcnt",
      "outputs": [
        {
          "internalType": "uint256",
          "name": "",
          "type": "uint256"
        }
      ],
      "payable": false,
      "stateMutability": "view",
      "type": "function"
    },
    {
      "constant": true,
      "inputs": [],
      "name": "index",
      "outputs": [
        {
          "internalType": "uint256",
          "name": "",
          "type": "uint256"
        }
      ],
      "payable": false,
      "stateMutability": "view",
      "type": "function"
    },
    {
      "constant": true,
      "inputs": [],
      "name": "isOwner",
      "outputs": [
        {
          "internalType": "bool",
          "name": "",
          "type": "bool"
        }
      ],
      "payable": false,
      "stateMutability": "view",
      "type": "function"
    },
    {
      "constant": true,
      "inputs": [],
      "name": "owner",
      "outputs": [
        {
          "internalType": "address",
          "name": "",
          "type": "address"
        }
      ],
      "payable": false,
      "stateMutability": "view",
      "type": "function"
    },
    {
      "constant": false,
      "inputs": [],
      "name": "renounceOwnership",
      "outputs": [],
      "payable": false,
      "stateMutability": "nonpayable",
      "type": "function"
    },
    {
      "constant": false,
      "inputs": [
        {
          "internalType": "address",
          "name": "newOwner",
          "type": "address"
        }
      ],
      "name": "transferOwnership",
      "outputs": [],
      "payable": false,
      "stateMutability": "nonpayable",
      "type": "function"
    },
    {
      "constant": false,
      "inputs": [
        {
          "internalType": "address",
          "name": "_toBscAddress",
          "type": "address"
        },
        {
          "internalType": "uint256",
          "name": "_amount",
          "type": "uint256"
        }
      ],
      "name": "depositForConversion",
      "outputs": [],
      "payable": true,
      "stateMutability": "payable",
      "type": "function"
    },
    {
      "constant": false,
      "inputs": [
        {
          "internalType": "uint256",
          "name": "_index",
          "type": "uint256"
        }
      ],
      "name": "completeConversion",
      "outputs": [],
      "payable": false,
      "stateMutability": "nonpayable",
      "type": "function"
    },
    {
      "constant": false,
      "inputs": [
        {
          "internalType": "uint256",
          "name": "_index",
          "type": "uint256"
        }
      ],
      "name": "refund",
      "outputs": [],
      "payable": false,
      "stateMutability": "nonpayable",
      "type": "function"
    },
    {
      "constant": false,
      "inputs": [
        {
          "internalType": "uint256",
          "name": "_fee",
          "type": "uint256"
        }
      ],
      "name": "setFee",
      "outputs": [],
      "payable": false,
      "stateMutability": "nonpayable",
      "type": "function"
    }
  ],
  "bytecode": "0x6080604052738f1e37afacdc033dc2c0bf2bd116eaa558efcde8600260006101000a81548173ffffffffffffffffffffffffffffffffffffffff021916908373ffffffffffffffffffffffffffffffffffffffff160217905550731f31541e77cac6bfae2fbda66a2085e6c137871e600360006101000a81548173ffffffffffffffffffffffffffffffffffffffff021916908373ffffffffffffffffffffffffffffffffffffffff160217905550620f42406007553480156100c157600080fd5b5060405161237d38038061237d833981810160405260408110156100e457600080fd5b81019080805190602001909291908051906020019092919050505061010d61026660201b60201c565b6000806101000a81548173ffffffffffffffffffffffffffffffffffffffff021916908373ffffffffffffffffffffffffffffffffffffffff1602179055506000809054906101000a900473ffffffffffffffffffffffffffffffffffffffff1673ffffffffffffffffffffffffffffffffffffffff16600073ffffffffffffffffffffffffffffffffffffffff167f8be0079c531659141344cd1fd0a4f28419497f9722a3daafe3b4186f6b6457e060405160405180910390a36001808190555066937007b62dc00060048190555081600260006101000a81548173ffffffffffffffffffffffffffffffffffffffff021916908373ffffffffffffffffffffffffffffffffffffffff16021790555080600360006101000a81548173ffffffffffffffffffffffffffffffffffffffff021916908373ffffffffffffffffffffffffffffffffffffffff160217905550505061026e565b600033905090565b6121008061027d6000396000f3fe6080604052600436106100dd5760003560e01c80638da5cb5b1161007f578063a7607dab11610059578063a7607dab146103b0578063c749ae1514610407578063f2fde38b14610455578063fccc2813146104a6576100dd565b80638da5cb5b146102ef5780638f32d59b1461034657806398d50a3b14610375576100dd565b806369fe0e2d116100bb57806369fe0e2d14610173578063715018a6146101ae5780638aba1215146101c55780638be22bec146101f0576100dd565b806310a4538f146100e2578063278ecde11461010d5780632986c0e514610148575b600080fd5b3480156100ee57600080fd5b506100f76104fd565b6040518082815260200191505060405180910390f35b34801561011957600080fd5b506101466004803603602081101561013057600080fd5b8101908080359060200190929190505050610503565b005b34801561015457600080fd5b5061015d610a87565b6040518082815260200191505060405180910390f35b34801561017f57600080fd5b506101ac6004803603602081101561019657600080fd5b8101908080359060200190929190505050610a8d565b005b3480156101ba57600080fd5b506101c3610b11565b005b3480156101d157600080fd5b506101da610c4a565b6040518082815260200191505060405180910390f35b3480156101fc57600080fd5b506102296004803603602081101561021357600080fd5b8101908080359060200190929190505050610c50565b604051808881526020018781526020018673ffffffffffffffffffffffffffffffffffffffff1673ffffffffffffffffffffffffffffffffffffffff1681526020018573ffffffffffffffffffffffffffffffffffffffff1673ffffffffffffffffffffffffffffffffffffffff1681526020018465ffffffffffff1665ffffffffffff1681526020018365ffffffffffff1665ffffffffffff1681526020018260038111156102d557fe5b60ff16815260200197505050505050505060405180910390f35b3480156102fb57600080fd5b50610304610d03565b604051808273ffffffffffffffffffffffffffffffffffffffff1673ffffffffffffffffffffffffffffffffffffffff16815260200191505060405180910390f35b34801561035257600080fd5b5061035b610d2c565b604051808215151515815260200191505060405180910390f35b34801561038157600080fd5b506103ae6004803603602081101561039857600080fd5b8101908080359060200190929190505050610d8a565b005b3480156103bc57600080fd5b506103c561132c565b604051808273ffffffffffffffffffffffffffffffffffffffff1673ffffffffffffffffffffffffffffffffffffffff16815260200191505060405180910390f35b6104536004803603604081101561041d57600080fd5b81019080803573ffffffffffffffffffffffffffffffffffffffff16906020019092919080359060200190929190505050611352565b005b34801561046157600080fd5b506104a46004803603602081101561047857600080fd5b81019080803573ffffffffffffffffffffffffffffffffffffffff169060200190929190505050611800565b005b3480156104b257600080fd5b506104bb611886565b604051808273ffffffffffffffffffffffffffffffffffffffff1673ffffffffffffffffffffffffffffffffffffffff16815260200191505060405180910390f35b60045481565b61050b610d2c565b61057d576040517f08c379a00000000000000000000000000000000000000000000000000000000081526004018080602001828103825260208152602001807f4f776e61626c653a2063616c6c6572206973206e6f7420746865206f776e657281525060200191505060405180910390fd5b6001806000828254019250508190555060006001549050600554821061060b576040517f08c379a00000000000000000000000000000000000000000000000000000000081526004018080602001828103825260128152602001807f496e646578206f7574206f662072616e6765000000000000000000000000000081525060200191505060405180910390fd5b610613611ff7565b600660008481526020019081526020016000206040518060e001604052908160008201548152602001600182015481526020016002820160009054906101000a900473ffffffffffffffffffffffffffffffffffffffff1673ffffffffffffffffffffffffffffffffffffffff1673ffffffffffffffffffffffffffffffffffffffff1681526020016003820160009054906101000a900473ffffffffffffffffffffffffffffffffffffffff1673ffffffffffffffffffffffffffffffffffffffff1673ffffffffffffffffffffffffffffffffffffffff1681526020016003820160149054906101000a900465ffffffffffff1665ffffffffffff1665ffffffffffff16815260200160038201601a9054906101000a900465ffffffffffff1665ffffffffffff1665ffffffffffff1681526020016004820160009054906101000a900460ff16600381111561076757fe5b600381111561077257fe5b8152505090506001600381111561078557fe5b8160c00151600381111561079557fe5b14610808576040517f08c379a000000000000000000000000000000000000000000000000000000000815260040180806020018281038252600e8152602001807f496e76616c69642053746174757300000000000000000000000000000000000081525060200191505060405180910390fd5b61085d81604001518260000151600260009054906101000a900473ffffffffffffffffffffffffffffffffffffffff1673ffffffffffffffffffffffffffffffffffffffff166118ac9092919063ffffffff16565b60038160c00190600381111561086f57fe5b9081600381111561087c57fe5b81525050428160a0019065ffffffffffff16908165ffffffffffff16815250508060066000858152602001908152602001600020600082015181600001556020820151816001015560408201518160020160006101000a81548173ffffffffffffffffffffffffffffffffffffffff021916908373ffffffffffffffffffffffffffffffffffffffff16021790555060608201518160030160006101000a81548173ffffffffffffffffffffffffffffffffffffffff021916908373ffffffffffffffffffffffffffffffffffffffff16021790555060808201518160030160146101000a81548165ffffffffffff021916908365ffffffffffff16021790555060a082015181600301601a6101000a81548165ffffffffffff021916908365ffffffffffff16021790555060c08201518160040160006101000a81548160ff021916908360038111156109cc57fe5b02179055509050507f4c0ce36dbc32c3fca3be492b689acde5f6beb08a810fd14b5d636c4483180b95836040518082815260200191505060405180910390a1506001548114610a83576040517f08c379a000000000000000000000000000000000000000000000000000000000815260040180806020018281038252601f8152602001807f5265656e7472616e637947756172643a207265656e7472616e742063616c6c0081525060200191505060405180910390fd5b5050565b60055481565b610a95610d2c565b610b07576040517f08c379a00000000000000000000000000000000000000000000000000000000081526004018080602001828103825260208152602001807f4f776e61626c653a2063616c6c6572206973206e6f7420746865206f776e657281525060200191505060405180910390fd5b8060078190555050565b610b19610d2c565b610b8b576040517f08c379a00000000000000000000000000000000000000000000000000000000081526004018080602001828103825260208152602001807f4f776e61626c653a2063616c6c6572206973206e6f7420746865206f776e657281525060200191505060405180910390fd5b600073ffffffffffffffffffffffffffffffffffffffff166000809054906101000a900473ffffffffffffffffffffffffffffffffffffffff1673ffffffffffffffffffffffffffffffffffffffff167f8be0079c531659141344cd1fd0a4f28419497f9722a3daafe3b4186f6b6457e060405160405180910390a360008060006101000a81548173ffffffffffffffffffffffffffffffffffffffff021916908373ffffffffffffffffffffffffffffffffffffffff160217905550565b60075481565b60066020528060005260406000206000915090508060000154908060010154908060020160009054906101000a900473ffffffffffffffffffffffffffffffffffffffff16908060030160009054906101000a900473ffffffffffffffffffffffffffffffffffffffff16908060030160149054906101000a900465ffffffffffff169080600301601a9054906101000a900465ffffffffffff16908060040160009054906101000a900460ff16905087565b60008060009054906101000a900473ffffffffffffffffffffffffffffffffffffffff16905090565b60008060009054906101000a900473ffffffffffffffffffffffffffffffffffffffff1673ffffffffffffffffffffffffffffffffffffffff16610d6e61197d565b73ffffffffffffffffffffffffffffffffffffffff1614905090565b610d92610d2c565b610e04576040517f08c379a00000000000000000000000000000000000000000000000000000000081526004018080602001828103825260208152602001807f4f776e61626c653a2063616c6c6572206973206e6f7420746865206f776e657281525060200191505060405180910390fd5b60018060008282540192505081905550600060015490506005548210610e92576040517f08c379a00000000000000000000000000000000000000000000000000000000081526004018080602001828103825260128152602001807f496e646578206f7574206f662072616e6765000000000000000000000000000081525060200191505060405180910390fd5b610e9a611ff7565b600660008481526020019081526020016000206040518060e001604052908160008201548152602001600182015481526020016002820160009054906101000a900473ffffffffffffffffffffffffffffffffffffffff1673ffffffffffffffffffffffffffffffffffffffff1673ffffffffffffffffffffffffffffffffffffffff1681526020016003820160009054906101000a900473ffffffffffffffffffffffffffffffffffffffff1673ffffffffffffffffffffffffffffffffffffffff1673ffffffffffffffffffffffffffffffffffffffff1681526020016003820160149054906101000a900465ffffffffffff1665ffffffffffff1665ffffffffffff16815260200160038201601a9054906101000a900465ffffffffffff1665ffffffffffff1665ffffffffffff1681526020016004820160009054906101000a900460ff166003811115610fee57fe5b6003811115610ff957fe5b8152505090506001600381111561100c57fe5b8160c00151600381111561101c57fe5b1461108f576040517f08c379a000000000000000000000000000000000000000000000000000000000815260040180806020018281038252600e8152602001807f496e76616c69642053746174757300000000000000000000000000000000000081525060200191505060405180910390fd5b611102600360009054906101000a900473ffffffffffffffffffffffffffffffffffffffff168260000151600260009054906101000a900473ffffffffffffffffffffffffffffffffffffffff1673ffffffffffffffffffffffffffffffffffffffff166118ac9092919063ffffffff16565b60028160c00190600381111561111457fe5b9081600381111561112157fe5b81525050428160a0019065ffffffffffff16908165ffffffffffff16815250508060066000858152602001908152602001600020600082015181600001556020820151816001015560408201518160020160006101000a81548173ffffffffffffffffffffffffffffffffffffffff021916908373ffffffffffffffffffffffffffffffffffffffff16021790555060608201518160030160006101000a81548173ffffffffffffffffffffffffffffffffffffffff021916908373ffffffffffffffffffffffffffffffffffffffff16021790555060808201518160030160146101000a81548165ffffffffffff021916908365ffffffffffff16021790555060a082015181600301601a6101000a81548165ffffffffffff021916908365ffffffffffff16021790555060c08201518160040160006101000a81548160ff0219169083600381111561127157fe5b02179055509050507fe350aca1a7566bd848d09a13cf3c67ae083d6309788ec1f680ce64e5b8b9ff63836040518082815260200191505060405180910390a1506001548114611328576040517f08c379a000000000000000000000000000000000000000000000000000000000815260040180806020018281038252601f8152602001807f5265656e7472616e637947756172643a207265656e7472616e742063616c6c0081525060200191505060405180910390fd5b5050565b600260009054906101000a900473ffffffffffffffffffffffffffffffffffffffff1681565b6001806000828254019250508190555060006001549050600034146113df576040517f08c379a00000000000000000000000000000000000000000000000000000000081526004018080602001828103825260128152602001807f57726f6e672066756e642069732073656e74000000000000000000000000000081525060200191505060405180910390fd5b6000821415611456576040517f08c379a00000000000000000000000000000000000000000000000000000000081526004018080602001828103825260128152602001807f416d6f756e742063616e6e6f742062652030000000000000000000000000000081525060200191505060405180910390fd5b6004548211156114ce576040517f08c379a000000000000000000000000000000000000000000000000000000000815260040180806020018281038252600f8152602001807f416d6f756e74206578636565646564000000000000000000000000000000000081525060200191505060405180910390fd5b61151d333084600260009054906101000a900473ffffffffffffffffffffffffffffffffffffffff1673ffffffffffffffffffffffffffffffffffffffff16611985909392919063ffffffff16565b6040518060e0016040528083815260200160075481526020013373ffffffffffffffffffffffffffffffffffffffff1681526020018473ffffffffffffffffffffffffffffffffffffffff1681526020014265ffffffffffff168152602001600065ffffffffffff1681526020016001600381111561159857fe5b815250600660006005548152602001908152602001600020600082015181600001556020820151816001015560408201518160020160006101000a81548173ffffffffffffffffffffffffffffffffffffffff021916908373ffffffffffffffffffffffffffffffffffffffff16021790555060608201518160030160006101000a81548173ffffffffffffffffffffffffffffffffffffffff021916908373ffffffffffffffffffffffffffffffffffffffff16021790555060808201518160030160146101000a81548165ffffffffffff021916908365ffffffffffff16021790555060a082015181600301601a6101000a81548165ffffffffffff021916908365ffffffffffff16021790555060c08201518160040160006101000a81548160ff021916908360038111156116cc57fe5b02179055509050508273ffffffffffffffffffffffffffffffffffffffff163373ffffffffffffffffffffffffffffffffffffffff167f35d3e043e7fc851f7671f1e35211d0877e93565d1547254238fddbe928d4cc8a6005548560075460405180848152602001838152602001828152602001935050505060405180910390a36117636001600554611a8b90919063ffffffff16565b60058190555061177e82600454611b1390919063ffffffff16565b60048190555060015481146117fb576040517f08c379a000000000000000000000000000000000000000000000000000000000815260040180806020018281038252601f8152602001807f5265656e7472616e637947756172643a207265656e7472616e742063616c6c0081525060200191505060405180910390fd5b505050565b611808610d2c565b61187a576040517f08c379a00000000000000000000000000000000000000000000000000000000081526004018080602001828103825260208152602001807f4f776e61626c653a2063616c6c6572206973206e6f7420746865206f776e657281525060200191505060405180910390fd5b61188381611b5d565b50565b600360009054906101000a900473ffffffffffffffffffffffffffffffffffffffff1681565b611978838473ffffffffffffffffffffffffffffffffffffffff1663a9059cbb905060e01b8484604051602401808373ffffffffffffffffffffffffffffffffffffffff1673ffffffffffffffffffffffffffffffffffffffff16815260200182815260200192505050604051602081830303815290604052907bffffffffffffffffffffffffffffffffffffffffffffffffffffffff19166020820180517bffffffffffffffffffffffffffffffffffffffffffffffffffffffff8381831617835250505050611ca1565b505050565b600033905090565b611a85848573ffffffffffffffffffffffffffffffffffffffff166323b872dd905060e01b858585604051602401808473ffffffffffffffffffffffffffffffffffffffff1673ffffffffffffffffffffffffffffffffffffffff1681526020018373ffffffffffffffffffffffffffffffffffffffff1673ffffffffffffffffffffffffffffffffffffffff1681526020018281526020019350505050604051602081830303815290604052907bffffffffffffffffffffffffffffffffffffffffffffffffffffffff19166020820180517bffffffffffffffffffffffffffffffffffffffffffffffffffffffff8381831617835250505050611ca1565b50505050565b600080828401905083811015611b09576040517f08c379a000000000000000000000000000000000000000000000000000000000815260040180806020018281038252601b8152602001807f536166654d6174683a206164646974696f6e206f766572666c6f77000000000081525060200191505060405180910390fd5b8091505092915050565b6000611b5583836040518060400160405280601e81526020017f536166654d6174683a207375627472616374696f6e206f766572666c6f770000815250611eec565b905092915050565b600073ffffffffffffffffffffffffffffffffffffffff168173ffffffffffffffffffffffffffffffffffffffff161415611be3576040517f08c379a000000000000000000000000000000000000000000000000000000000815260040180806020018281038252602681526020018061207c6026913960400191505060405180910390fd5b8073ffffffffffffffffffffffffffffffffffffffff166000809054906101000a900473ffffffffffffffffffffffffffffffffffffffff1673ffffffffffffffffffffffffffffffffffffffff167f8be0079c531659141344cd1fd0a4f28419497f9722a3daafe3b4186f6b6457e060405160405180910390a3806000806101000a81548173ffffffffffffffffffffffffffffffffffffffff021916908373ffffffffffffffffffffffffffffffffffffffff16021790555050565b611cc08273ffffffffffffffffffffffffffffffffffffffff16611fac565b611d32576040517f08c379a000000000000000000000000000000000000000000000000000000000815260040180806020018281038252601f8152602001807f5361666545524332303a2063616c6c20746f206e6f6e2d636f6e74726163740081525060200191505060405180910390fd5b600060608373ffffffffffffffffffffffffffffffffffffffff16836040518082805190602001908083835b60208310611d815780518252602082019150602081019050602083039250611d5e565b6001836020036101000a0380198251168184511680821785525050505050509050019150506000604051808303816000865af19150503d8060008114611de3576040519150601f19603f3d011682016040523d82523d6000602084013e611de8565b606091505b509150915081611e60576040517f08c379a00000000000000000000000000000000000000000000000000000000081526004018080602001828103825260208152602001807f5361666545524332303a206c6f772d6c6576656c2063616c6c206661696c656481525060200191505060405180910390fd5b600081511115611ee657808060200190516020811015611e7f57600080fd5b8101908080519060200190929190505050611ee5576040517f08c379a000000000000000000000000000000000000000000000000000000000815260040180806020018281038252602a8152602001806120a2602a913960400191505060405180910390fd5b5b50505050565b6000838311158290611f99576040517f08c379a00000000000000000000000000000000000000000000000000000000081526004018080602001828103825283818151815260200191508051906020019080838360005b83811015611f5e578082015181840152602081019050611f43565b50505050905090810190601f168015611f8b5780820380516001836020036101000a031916815260200191505b509250505060405180910390fd5b5060008385039050809150509392505050565b60008060007fc5d2460186f7233c927e7db2dcc703c0e500b653ca82273b7bfad8045d85a47060001b9050833f91506000801b8214158015611fee5750808214155b92505050919050565b6040518060e001604052806000815260200160008152602001600073ffffffffffffffffffffffffffffffffffffffff168152602001600073ffffffffffffffffffffffffffffffffffffffff168152602001600065ffffffffffff168152602001600065ffffffffffff1681526020016000600381111561207557fe5b8152509056fe4f776e61626c653a206e6577206f776e657220697320746865207a65726f20616464726573735361666545524332303a204552433230206f7065726174696f6e20646964206e6f742073756363656564a265627a7a7231582007cfac5a5a50af3314dae42ef844ab6d837e7f162a205613db19d9ab3cef82ed64736f6c63430005100032",
  "source": "// This program is free software: you can redistribute it and/or modify\n// it under the terms of the GNU General Public License as published by\n// the Free Software Foundation, either version 3 of the License, or\n// (at your option) any later version.\n\n// This program is distributed in the hope that it will be useful,\n// but WITHOUT ANY WARRANTY; without even the implied warranty of\n// MERCHANTABILITY or FITNESS FOR A PARTICULAR PURPOSE.  See the\n// GNU General Public License for more details.\n\n// You should have received a copy of the GNU General Public License\n// along with this program.  If not, see <http://www.gnu.org/licenses/>.\n\npragma solidity ^0.5.0;\n\n// Importing libraries\nimport \"openzeppelin-solidity/contracts/ownership/Ownable.sol\";\nimport \"openzeppelin-solidity/contracts/utils/ReentrancyGuard.sol\";\nimport \"openzeppelin-solidity/contracts/token/ERC20/ERC20.sol\";\nimport \"openzeppelin-solidity/contracts/token/ERC20/SafeERC20.sol\";\nimport \"openzeppelin-solidity/contracts/math/SafeMath.sol\";\n\n/**\n * @title Mxx Converter Contract\n * @notice Contract to allow a user to deposit Mxx token to be converted to bMxx on the binance smart chain.\n */\n\ncontract MxxConverter is Ownable, ReentrancyGuard {\n    // Using SafeMath Library to prevent integer overflow\n    using SafeMath for uint256;\n\n    // Using SafeERC20 for ERC20\n    using SafeERC20 for ERC20;\n\n    /**\n     * @dev - A struct to store each conversion details\n     * @notice amount - The amount of Mxx to be converted\n     * @notice fromAddress - user's address on ETH chain\n     * @notice toAddress - destination address on BSC chain\n     * @notice startTime - Start Time of the conversion\n     * @notice endTime - End time of the conversion\n     * @notice status - The status of this conversion\n     */\n    struct ConversionDetails {\n        uint256 amount;\n        uint256 feePcnt;\n        address fromAddress;\n        address toAddress;\n        uint48 startTime;\n        uint48 endTime;\n        Status status;\n    }\n\n    /**\n     * @dev - A enum to store the status of each cobversion\n     */\n    enum Status {Invalid, New, Completed, Refunded}\n\n    /**\n     * @dev - Events\n     */\n    event NewConversion(\n        uint256 index,\n        address indexed from,\n        address indexed to,\n        uint256 amount,\n        uint256 feePcnt\n    );\n    event ConversionCompleted(uint256 id);\n    event ConversionRefunded(uint256 id);\n\n    /**\n     * @dev - Variable to store Official MXX ERC20 token address\n     */\n    address public MXX_ADDRESS = 0x8F1E37Afacdc033dC2c0BF2BD116eaa558eFCdE8;\n\n    /**\n     * @dev - Address to store the Official MXX Burn Address\n     */\n    address public BURN_ADDRESS = 0x1f31541E77cAC6BFAE2FBdA66a2085e6C137871e;\n\n    /**\n     * @dev - The grand total number of Mxx that can be converted to BSC.\n     */\n    uint256 internal constant MAX_CONVERTABLE = 415_000_000e8;\n\n    uint256 public availableMxxAmt;\n\n    uint256 public index;\n\n    mapping(uint256 => ConversionDetails) public allConversions;\n\n    uint256 public feePcnt = 1_000_000;\n\n    constructor(address mxx, address burnAddress) public Ownable() {\n        availableMxxAmt = MAX_CONVERTABLE;\n        MXX_ADDRESS = mxx;\n        BURN_ADDRESS = burnAddress;\n    }\n\n    function depositForConversion(address _toBscAddress, uint256 _amount)\n        external\n        payable\n        nonReentrant()\n    {\n        require(msg.value == 0, \"Wrong fund is sent\");\n\n        require(_amount != 0, \"Amount cannot be 0\");\n\n        require(_amount <= availableMxxAmt, \"Amount exceeded\");\n\n        ERC20(MXX_ADDRESS).safeTransferFrom(msg.sender, address(this), _amount);\n\n        allConversions[index] = ConversionDetails(\n            _amount,\n            feePcnt,\n            msg.sender,\n            _toBscAddress,\n            uint48(now),\n            0,\n            Status.New\n        );\n\n        emit NewConversion(index, msg.sender, _toBscAddress, _amount, feePcnt);\n\n        index = index.add(1);\n        availableMxxAmt = availableMxxAmt.sub(_amount);\n    }\n\n    function completeConversion(uint256 _index)\n        external\n        onlyOwner()\n        nonReentrant()\n    {\n        require(_index < index, \"Index out of range\");\n\n        ConversionDetails memory details = allConversions[_index];\n        require(details.status == Status.New, \"Invalid Status\");\n\n        ERC20(MXX_ADDRESS).safeTransfer(BURN_ADDRESS, details.amount);\n\n        details.status = Status.Completed;\n        details.endTime = uint48(now);\n        allConversions[_index] = details;\n\n        emit ConversionCompleted(_index);\n    }\n\n    function refund(uint256 _index) external onlyOwner() nonReentrant() {\n        require(_index < index, \"Index out of range\");\n\n        ConversionDetails memory details = allConversions[_index];\n        require(details.status == Status.New, \"Invalid Status\");\n\n        ERC20(MXX_ADDRESS).safeTransfer(details.fromAddress, details.amount);\n\n        details.status = Status.Refunded;\n        details.endTime = uint48(now);\n        allConversions[_index] = details;\n\n        emit ConversionRefunded(_index);\n    }\n\n    function setFee(uint256 _fee) external onlyOwner() {\n        feePcnt = _fee;\n    }\n}\n",
  "sourcePath": "/Users/dev/Documents/Project/MCLendNew/MCL-SmartContracts/converter/eth/contracts/MxxConverter.sol",
  "compiler": {
    "name": "solc",
    "version": "0.5.16+commit.9c3226ce.Emscripten.clang"
  },
  "schemaVersion": "3.2.3",
  "updatedAt": "2021-02-02T06:21:38.857Z",
  "devdoc": {
    "methods": {
      "isOwner()": {
        "details": "Returns true if the caller is the current owner."
      },
      "owner()": {
        "details": "Returns the address of the current owner."
      },
      "renounceOwnership()": {
        "details": "Leaves the contract without owner. It will not be possible to call `onlyOwner` functions anymore. Can only be called by the current owner.     * NOTE: Renouncing ownership will leave the contract without an owner, thereby removing any functionality that is only available to the owner."
      },
      "transferOwnership(address)": {
        "details": "Transfers ownership of the contract to a new account (`newOwner`). Can only be called by the current owner."
      }
    },
    "title": "Mxx Converter Contract"
  },
  "userdoc": {
    "methods": {},
    "notice": "Contract to allow a user to deposit Mxx token to be converted to bMxx on the binance smart chain."
  }
}